{"contracts/NFTContract.sol":{"NFTContract":{"abi":[{"inputs":[{"internalType":"string","name":"_name","type":"string"},{"internalType":"string","name":"_symbol","type":"string"},{"internalType":"string","name":"_baseURI","type":"string"},{"internalType":"string","name":"contractURI_","type":"string"},{"internalType":"string","name":"_hiddenMetaDataURI","type":"string"},{"internalType":"address","name":"royaltyRecipient_","type":"address"},{"internalType":"address","name":"withdrawAddress_","type":"address"}],"stateMutability":"nonpayable","type":"constructor"},{"anonymous":false,"inputs":[{"indexed":true,"internalType":"address","name":"owner","type":"address"},{"indexed":true,"internalType":"address","name":"approved","type":"address"},{"indexed":true,"internalType":"uint256","name":"tokenId","type":"uint256"}],"name":"Approval","type":"event"},{"anonymous":false,"inputs":[{"indexed":true,"internalType":"address","name":"owner","type":"address"},{"indexed":true,"internalType":"address","name":"operator","type":"address"},{"indexed":false,"internalType":"bool","name":"approved","type":"bool"}],"name":"ApprovalForAll","type":"event"},{"anonymous":false,"inputs":[],"name":"AuctionEnded","type":"event"},{"anonymous":false,"inputs":[{"indexed":true,"internalType":"address","name":"buyer","type":"address"},{"indexed":false,"internalType":"uint256","name":"quantity","type":"uint256"},{"indexed":false,"internalType":"uint256","name":"totalPrice","type":"uint256"},{"indexed":false,"internalType":"uint256","name":"pricePerToken","type":"uint256"}],"name":"AuctionMinted","type":"event"},{"anonymous":false,"inputs":[{"indexed":false,"internalType":"uint256","name":"startPrice","type":"uint256"},{"indexed":false,"internalType":"uint256","name":"endPrice","type":"uint256"},{"indexed":false,"internalType":"uint256","name":"duration","type":"uint256"}],"name":"AuctionPriceUpdated","type":"event"},{"anonymous":false,"inputs":[{"indexed":false,"internalType":"uint256","name":"startPrice","type":"uint256"},{"indexed":false,"internalType":"uint256","name":"endPrice","type":"uint256"},{"indexed":false,"internalType":"uint256","name":"duration","type":"uint256"},{"indexed":false,"internalType":"uint256","name":"startTime","type":"uint256"}],"name":"AuctionStarted","type":"event"},{"anonymous":false,"inputs":[{"indexed":false,"internalType":"string","name":"newBaseURI","type":"string"}],"name":"BaseURIUpdated","type":"event"},{"anonymous":false,"inputs":[{"indexed":false,"internalType":"uint256","name":"_fromTokenId","type":"uint256"},{"indexed":false,"internalType":"uint256","name":"_toTokenId","type":"uint256"}],"name":"BatchMetadataUpdate","type":"event"},{"anonymous":false,"inputs":[{"indexed":true,"internalType":"address","name":"to","type":"address"},{"indexed":false,"internalType":"uint256","name":"quantity","type":"uint256"},{"indexed":false,"internalType":"uint256","name":"startTokenId","type":"uint256"}],"name":"BatchMinted","type":"event"},{"anonymous":false,"inputs":[{"indexed":false,"internalType":"string","name":"newContractURI","type":"string"}],"name":"ContractURIUpdated","type":"event"},{"anonymous":false,"inputs":[{"indexed":true,"internalType":"address","name":"token","type":"address"},{"indexed":true,"internalType":"address","name":"recipient","type":"address"},{"indexed":false,"internalType":"uint256","name":"amount","type":"uint256"}],"name":"ERC20Recovered","type":"event"},{"anonymous":false,"inputs":[{"indexed":false,"internalType":"bool","name":"stopped","type":"bool"}],"name":"EmergencyStopToggled","type":"event"},{"anonymous":false,"inputs":[{"indexed":true,"internalType":"address","name":"recipient","type":"address"},{"indexed":false,"internalType":"uint256","name":"amount","type":"uint256"}],"name":"EmergencyWithdrawal","type":"event"},{"anonymous":false,"inputs":[{"indexed":false,"internalType":"string","name":"newHiddenMetaDataURI","type":"string"}],"name":"HiddenMetaDataURIUpdated","type":"event"},{"anonymous":false,"inputs":[{"indexed":false,"internalType":"uint256","name":"_tokenId","type":"uint256"}],"name":"MetadataUpdate","type":"event"},{"anonymous":false,"inputs":[{"indexed":true,"internalType":"address","name":"previousOwner","type":"address"},{"indexed":true,"internalType":"address","name":"newOwner","type":"address"}],"name":"OwnershipTransferred","type":"event"},{"anonymous":false,"inputs":[{"indexed":false,"internalType":"address","name":"account","type":"address"}],"name":"Paused","type":"event"},{"anonymous":false,"inputs":[{"indexed":true,"internalType":"bytes32","name":"role","type":"bytes32"},{"indexed":true,"internalType":"bytes32","name":"previousAdminRole","type":"bytes32"},{"indexed":true,"internalType":"bytes32","name":"newAdminRole","type":"bytes32"}],"name":"RoleAdminChanged","type":"event"},{"anonymous":false,"inputs":[{"indexed":true,"internalType":"bytes32","name":"role","type":"bytes32"},{"indexed":true,"internalType":"address","name":"account","type":"address"},{"indexed":true,"internalType":"address","name":"sender","type":"address"}],"name":"RoleGranted","type":"event"},{"anonymous":false,"inputs":[{"indexed":true,"internalType":"bytes32","name":"role","type":"bytes32"},{"indexed":true,"internalType":"address","name":"account","type":"address"},{"indexed":true,"internalType":"address","name":"sender","type":"address"}],"name":"RoleRevoked","type":"event"},{"anonymous":false,"inputs":[{"indexed":false,"internalType":"address","name":"recipient","type":"address"},{"indexed":false,"internalType":"uint96","name":"fee","type":"uint96"}],"name":"RoyaltyUpdated","type":"event"},{"anonymous":false,"inputs":[{"indexed":false,"internalType":"bool","name":"enabled","type":"bool"}],"name":"StakingToggled","type":"event"},{"anonymous":false,"inputs":[{"indexed":true,"internalType":"uint256","name":"tokenId","type":"uint256"},{"indexed":false,"internalType":"string","name":"newURI","type":"string"}],"name":"TokenMetaDataUpdated","type":"event"},{"anonymous":false,"inputs":[{"indexed":true,"internalType":"address","name":"to","type":"address"},{"indexed":true,"internalType":"uint256","name":"tokenId","type":"uint256"},{"indexed":false,"internalType":"uint256","name":"rarityTier","type":"uint256"},{"indexed":false,"internalType":"string","name":"rarityName","type":"string"}],"name":"TokenMinted","type":"event"},{"anonymous":false,"inputs":[{"indexed":true,"internalType":"uint256","name":"tokenId","type":"uint256"},{"indexed":true,"internalType":"address","name":"owner","type":"address"}],"name":"TokenStaked","type":"event"},{"anonymous":false,"inputs":[{"indexed":true,"internalType":"uint256","name":"tokenId","type":"uint256"},{"indexed":true,"internalType":"address","name":"owner","type":"address"}],"name":"TokenUnstaked","type":"event"},{"anonymous":false,"inputs":[],"name":"TokensRevealed","type":"event"},{"anonymous":false,"inputs":[{"indexed":true,"internalType":"address","name":"from","type":"address"},{"indexed":true,"internalType":"address","name":"to","type":"address"},{"indexed":true,"internalType":"uint256","name":"tokenId","type":"uint256"}],"name":"Transfer","type":"event"},{"anonymous":false,"inputs":[{"indexed":false,"internalType":"address","name":"account","type":"address"}],"name":"Unpaused","type":"event"},{"anonymous":false,"inputs":[{"indexed":true,"internalType":"address","name":"to","type":"address"},{"indexed":false,"internalType":"uint256","name":"quantity","type":"uint256"}],"name":"WhitelistMinted","type":"event"},{"anonymous":false,"inputs":[{"indexed":false,"internalType":"bool","name":"active","type":"bool"}],"name":"WhitelistPhaseToggled","type":"event"},{"anonymous":false,"inputs":[{"indexed":true,"internalType":"address","name":"user","type":"address"},{"indexed":false,"internalType":"bool","name":"status","type":"bool"}],"name":"WhitelistUpdated","type":"event"},{"anonymous":false,"inputs":[{"indexed":true,"internalType":"address","name":"newAddress","type":"address"}],"name":"WithdrawAddressUpdated","type":"event"},{"inputs":[],"name":"ADMIN_ROLE","outputs":[{"internalType":"bytes32","name":"","type":"bytes32"}],"stateMutability":"view","type":"function"},{"inputs":[],"name":"DEFAULT_ADMIN_ROLE","outputs":[{"internalType":"bytes32","name":"","type":"bytes32"}],"stateMutability":"view","type":"function"},{"inputs":[],"name":"MAX_MINT_PER_TX","outputs":[{"internalType":"uint256","name":"","type":"uint256"}],"stateMutability":"view","type":"function"},{"inputs":[],"name":"MINTER_ROLE","outputs":[{"internalType":"bytes32","name":"","type":"bytes32"}],"stateMutability":"view","type":"function"},{"inputs":[],"name":"STAKING_ROLE","outputs":[{"internalType":"bytes32","name":"","type":"bytes32"}],"stateMutability":"view","type":"function"},{"inputs":[],"name":"_contractURI","outputs":[{"internalType":"string","name":"","type":"string"}],"stateMutability":"view","type":"function"},{"inputs":[{"internalType":"address[]","name":"addresses","type":"address[]"}],"name":"addToWhitelist","outputs":[],"stateMutability":"nonpayable","type":"function"},{"inputs":[{"internalType":"address","name":"to","type":"address"},{"internalType":"uint256","name":"quantity","type":"uint256"}],"name":"adminMint","outputs":[],"stateMutability":"nonpayable","type":"function"},{"inputs":[{"internalType":"address","name":"to","type":"address"},{"internalType":"uint256","name":"tokenId","type":"uint256"}],"name":"approve","outputs":[],"stateMutability":"nonpayable","type":"function"},{"inputs":[],"name":"auctionActive","outputs":[{"internalType":"bool","name":"","type":"bool"}],"stateMutability":"view","type":"function"},{"inputs":[],"name":"auctionDuration","outputs":[{"internalType":"uint256","name":"","type":"uint256"}],"stateMutability":"view","type":"function"},{"inputs":[],"name":"auctionEndPrice","outputs":[{"internalType":"uint256","name":"","type":"uint256"}],"stateMutability":"view","type":"function"},{"inputs":[{"internalType":"uint256","name":"quantity","type":"uint256"}],"name":"auctionMint","outputs":[],"stateMutability":"payable","type":"function"},{"inputs":[],"name":"auctionPriceDropInterval","outputs":[{"internalType":"uint256","name":"","type":"uint256"}],"stateMutability":"view","type":"function"},{"inputs":[],"name":"auctionStartPrice","outputs":[{"internalType":"uint256","name":"","type":"uint256"}],"stateMutability":"view","type":"function"},{"inputs":[],"name":"auctionStartTime","outputs":[{"internalType":"uint256","name":"","type":"uint256"}],"stateMutability":"view","type":"function"},{"inputs":[{"internalType":"address","name":"owner","type":"address"}],"name":"balanceOf","outputs":[{"internalType":"uint256","name":"","type":"uint256"}],"stateMutability":"view","type":"function"},{"inputs":[],"name":"baseURI","outputs":[{"internalType":"string","name":"","type":"string"}],"stateMutability":"view","type":"function"},{"inputs":[{"internalType":"address","name":"to","type":"address"},{"internalType":"uint256","name":"quantity","type":"uint256"}],"name":"batchMint","outputs":[],"stateMutability":"nonpayable","type":"function"},{"inputs":[{"internalType":"uint256[]","name":"tokenIdList","type":"uint256[]"}],"name":"batchStake","outputs":[],"stateMutability":"nonpayable","type":"function"},{"inputs":[{"internalType":"uint256[]","name":"tokenIdList","type":"uint256[]"}],"name":"batchUnstake","outputs":[],"stateMutability":"nonpayable","type":"function"},{"inputs":[],"name":"contractURI","outputs":[{"internalType":"string","name":"","type":"string"}],"stateMutability":"view","type":"function"},{"inputs":[],"name":"currentSupply","outputs":[{"internalType":"uint256","name":"","type":"uint256"}],"stateMutability":"view","type":"function"},{"inputs":[],"name":"emergencyStop","outputs":[{"internalType":"bool","name":"","type":"bool"}],"stateMutability":"view","type":"function"},{"inputs":[],"name":"emergencyWithdraw","outputs":[],"stateMutability":"nonpayable","type":"function"},{"inputs":[],"name":"endAuction","outputs":[],"stateMutability":"nonpayable","type":"function"},{"inputs":[],"name":"getAllRarityTiers","outputs":[{"components":[{"internalType":"string","name":"name","type":"string"},{"internalType":"uint256","name":"probability","type":"uint256"},{"internalType":"uint256","name":"maxSupply","type":"uint256"},{"internalType":"uint256","name":"currentSupply","type":"uint256"},{"internalType":"string","name":"specialAttribute","type":"string"}],"internalType":"struct NFTContract.RarityTier[]","name":"","type":"tuple[]"}],"stateMutability":"view","type":"function"},{"inputs":[{"internalType":"uint256","name":"tokenId","type":"uint256"}],"name":"getApproved","outputs":[{"internalType":"address","name":"","type":"address"}],"stateMutability":"view","type":"function"},{"inputs":[],"name":"getAuctionStatus","outputs":[{"internalType":"bool","name":"isActive","type":"bool"},{"internalType":"uint256","name":"currentPrice","type":"uint256"},{"internalType":"uint256","name":"timeRemaining","type":"uint256"}],"stateMutability":"view","type":"function"},{"inputs":[],"name":"getContractStats","outputs":[{"internalType":"uint256","name":"totalSupply","type":"uint256"},{"internalType":"uint256","name":"remainingSupply","type":"uint256"},{"internalType":"uint256","name":"totalRarityTiers","type":"uint256"},{"internalType":"bool","name":"isRevealed","type":"bool"},{"internalType":"bool","name":"isStakingEnabled","type":"bool"},{"internalType":"bool","name":"isWhitelistPhaseActive","type":"bool"},{"internalType":"bool","name":"isAuctionActive","type":"bool"}],"stateMutability":"view","type":"function"},{"inputs":[],"name":"getCurrentAuctionPrice","outputs":[{"internalType":"uint256","name":"","type":"uint256"}],"stateMutability":"view","type":"function"},{"inputs":[],"name":"getNextPriceDropTime","outputs":[{"internalType":"uint256","name":"","type":"uint256"}],"stateMutability":"view","type":"function"},{"inputs":[{"internalType":"uint256","name":"index","type":"uint256"}],"name":"getRarityTier","outputs":[{"components":[{"internalType":"string","name":"name","type":"string"},{"internalType":"uint256","name":"probability","type":"uint256"},{"internalType":"uint256","name":"maxSupply","type":"uint256"},{"internalType":"uint256","name":"currentSupply","type":"uint256"},{"internalType":"string","name":"specialAttribute","type":"string"}],"internalType":"struct NFTContract.RarityTier","name":"","type":"tuple"}],"stateMutability":"view","type":"function"},{"inputs":[],"name":"getRarityTierCount","outputs":[{"internalType":"uint256","name":"","type":"uint256"}],"stateMutability":"view","type":"function"},{"inputs":[{"internalType":"uint256","name":"rarityTierIndex","type":"uint256"}],"name":"getRemainingRaritySupply","outputs":[{"internalType":"uint256","name":"","type":"uint256"}],"stateMutability":"view","type":"function"},{"inputs":[],"name":"getRemainingSupply","outputs":[{"internalType":"uint256","name":"","type":"uint256"}],"stateMutability":"view","type":"function"},{"inputs":[{"internalType":"address","name":"user","type":"address"}],"name":"getRemainingWhiteListMints","outputs":[{"internalType":"uint256","name":"","type":"uint256"}],"stateMutability":"view","type":"function"},{"inputs":[{"internalType":"bytes32","name":"role","type":"bytes32"}],"name":"getRoleAdmin","outputs":[{"internalType":"bytes32","name":"","type":"bytes32"}],"stateMutability":"view","type":"function"},{"inputs":[{"internalType":"uint256","name":"tokenId","type":"uint256"}],"name":"getStakingDuration","outputs":[{"internalType":"uint256","name":"","type":"uint256"}],"stateMutability":"view","type":"function"},{"inputs":[{"internalType":"uint256","name":"tokenId","type":"uint256"}],"name":"getTokenRarity","outputs":[{"components":[{"internalType":"string","name":"name","type":"string"},{"internalType":"uint256","name":"probability","type":"uint256"},{"internalType":"uint256","name":"maxSupply","type":"uint256"},{"internalType":"uint256","name":"currentSupply","type":"uint256"},{"internalType":"string","name":"specialAttribute","type":"string"}],"internalType":"struct NFTContract.RarityTier","name":"","type":"tuple"}],"stateMutability":"view","type":"function"},{"inputs":[],"name":"getTotalRarityProbability","outputs":[{"internalType":"uint256","name":"","type":"uint256"}],"stateMutability":"view","type":"function"},{"inputs":[{"internalType":"address","name":"user","type":"address"}],"name":"getTotalStakedByUser","outputs":[{"internalType":"uint256","name":"","type":"uint256"}],"stateMutability":"view","type":"function"},{"inputs":[{"internalType":"address","name":"user","type":"address"}],"name":"getUserStakedTokens","outputs":[{"internalType":"uint256[]","name":"","type":"uint256[]"}],"stateMutability":"view","type":"function"},{"inputs":[{"internalType":"address","name":"user","type":"address"}],"name":"getWhitelistMintedCount","outputs":[{"internalType":"uint256","name":"","type":"uint256"}],"stateMutability":"view","type":"function"},{"inputs":[{"internalType":"bytes32","name":"role","type":"bytes32"},{"internalType":"address","name":"account","type":"address"}],"name":"grantRole","outputs":[],"stateMutability":"nonpayable","type":"function"},{"inputs":[],"name":"hasAuctionEnded","outputs":[{"internalType":"bool","name":"","type":"bool"}],"stateMutability":"view","type":"function"},{"inputs":[{"internalType":"bytes32","name":"role","type":"bytes32"},{"internalType":"address","name":"account","type":"address"}],"name":"hasRole","outputs":[{"internalType":"bool","name":"","type":"bool"}],"stateMutability":"view","type":"function"},{"inputs":[],"name":"hiddenMetaDataURI","outputs":[{"internalType":"string","name":"","type":"string"}],"stateMutability":"view","type":"function"},{"inputs":[{"internalType":"address","name":"owner","type":"address"},{"internalType":"address","name":"operator","type":"address"}],"name":"isApprovedForAll","outputs":[{"internalType":"bool","name":"","type":"bool"}],"stateMutability":"view","type":"function"},{"inputs":[{"internalType":"uint256","name":"rarityTierIndex","type":"uint256"}],"name":"isRarityTierAvailable","outputs":[{"internalType":"bool","name":"","type":"bool"}],"stateMutability":"view","type":"function"},{"inputs":[{"internalType":"uint256","name":"tokenId","type":"uint256"}],"name":"isTokenStaked","outputs":[{"internalType":"bool","name":"","type":"bool"}],"stateMutability":"view","type":"function"},{"inputs":[{"internalType":"address","name":"user","type":"address"}],"name":"isWhitelisted","outputs":[{"internalType":"bool","name":"","type":"bool"}],"stateMutability":"view","type":"function"},{"inputs":[],"name":"maxSupply","outputs":[{"internalType":"uint256","name":"","type":"uint256"}],"stateMutability":"view","type":"function"},{"inputs":[],"name":"maxWhitelistMints","outputs":[{"internalType":"uint256","name":"","type":"uint256"}],"stateMutability":"view","type":"function"},{"inputs":[{"internalType":"string","name":"newIPFSBaseURI","type":"string"}],"name":"migrateToIPFS","outputs":[],"stateMutability":"nonpayable","type":"function"},{"inputs":[{"internalType":"address","name":"to","type":"address"}],"name":"mint","outputs":[],"stateMutability":"nonpayable","type":"function"},{"inputs":[],"name":"name","outputs":[{"internalType":"string","name":"","type":"string"}],"stateMutability":"view","type":"function"},{"inputs":[],"name":"owner","outputs":[{"internalType":"address","name":"","type":"address"}],"stateMutability":"view","type":"function"},{"inputs":[{"internalType":"address","name":"to","type":"address"},{"internalType":"uint256","name":"rarityTierIndex","type":"uint256"}],"name":"ownerMint","outputs":[],"stateMutability":"nonpayable","type":"function"},{"inputs":[{"internalType":"uint256","name":"tokenId","type":"uint256"}],"name":"ownerOf","outputs":[{"internalType":"address","name":"","type":"address"}],"stateMutability":"view","type":"function"},{"inputs":[],"name":"pauseContract","outputs":[],"stateMutability":"nonpayable","type":"function"},{"inputs":[],"name":"paused","outputs":[{"internalType":"bool","name":"","type":"bool"}],"stateMutability":"view","type":"function"},{"inputs":[{"internalType":"string","name":"","type":"string"}],"name":"rarityNameToIndex","outputs":[{"internalType":"uint256","name":"","type":"uint256"}],"stateMutability":"view","type":"function"},{"inputs":[{"internalType":"uint256","name":"","type":"uint256"}],"name":"rarityTiers","outputs":[{"internalType":"string","name":"name","type":"string"},{"internalType":"uint256","name":"probability","type":"uint256"},{"internalType":"uint256","name":"maxSupply","type":"uint256"},{"internalType":"uint256","name":"currentSupply","type":"uint256"},{"internalType":"string","name":"specialAttribute","type":"string"}],"stateMutability":"view","type":"function"},{"inputs":[{"internalType":"address","name":"token","type":"address"},{"internalType":"uint256","name":"amount","type":"uint256"}],"name":"recoverERC20","outputs":[],"stateMutability":"nonpayable","type":"function"},{"inputs":[{"internalType":"address","name":"token","type":"address"},{"internalType":"uint256","name":"tokenId","type":"uint256"}],"name":"recoverERC721","outputs":[],"stateMutability":"nonpayable","type":"function"},{"inputs":[{"internalType":"address[]","name":"addresses","type":"address[]"}],"name":"removeFromWhitelist","outputs":[],"stateMutability":"nonpayable","type":"function"},{"inputs":[],"name":"renounceOwnership","outputs":[],"stateMutability":"nonpayable","type":"function"},{"inputs":[{"internalType":"bytes32","name":"role","type":"bytes32"},{"internalType":"address","name":"account","type":"address"}],"name":"renounceRole","outputs":[],"stateMutability":"nonpayable","type":"function"},{"inputs":[],"name":"reveal","outputs":[],"stateMutability":"nonpayable","type":"function"},{"inputs":[],"name":"revealed","outputs":[{"internalType":"bool","name":"","type":"bool"}],"stateMutability":"view","type":"function"},{"inputs":[{"internalType":"bytes32","name":"role","type":"bytes32"},{"internalType":"address","name":"account","type":"address"}],"name":"revokeRole","outputs":[],"stateMutability":"nonpayable","type":"function"},{"inputs":[{"internalType":"uint256","name":"tokenId","type":"uint256"},{"internalType":"uint256","name":"salePrice","type":"uint256"}],"name":"royaltyInfo","outputs":[{"internalType":"address","name":"","type":"address"},{"internalType":"uint256","name":"","type":"uint256"}],"stateMutability":"view","type":"function"},{"inputs":[{"internalType":"address","name":"from","type":"address"},{"internalType":"address","name":"to","type":"address"},{"internalType":"uint256","name":"tokenId","type":"uint256"}],"name":"safeTransferFrom","outputs":[],"stateMutability":"nonpayable","type":"function"},{"inputs":[{"internalType":"address","name":"from","type":"address"},{"internalType":"address","name":"to","type":"address"},{"internalType":"uint256","name":"tokenId","type":"uint256"},{"internalType":"bytes","name":"data","type":"bytes"}],"name":"safeTransferFrom","outputs":[],"stateMutability":"nonpayable","type":"function"},{"inputs":[{"internalType":"address","name":"operator","type":"address"},{"internalType":"bool","name":"approved","type":"bool"}],"name":"setApprovalForAll","outputs":[],"stateMutability":"nonpayable","type":"function"},{"inputs":[{"internalType":"uint256","name":"startPrice","type":"uint256"},{"internalType":"uint256","name":"endPrice","type":"uint256"},{"internalType":"uint256","name":"duration","type":"uint256"},{"internalType":"uint256","name":"priceDropInterval","type":"uint256"}],"name":"setAuctionParameters","outputs":[],"stateMutability":"nonpayable","type":"function"},{"inputs":[{"internalType":"string","name":"newBaseURI","type":"string"}],"name":"setBaseURI","outputs":[],"stateMutability":"nonpayable","type":"function"},{"inputs":[{"internalType":"string","name":"newContractURI","type":"string"}],"name":"setContractURI","outputs":[],"stateMutability":"nonpayable","type":"function"},{"inputs":[{"internalType":"bool","name":"stopped","type":"bool"}],"name":"setEmergencyStop","outputs":[],"stateMutability":"nonpayable","type":"function"},{"inputs":[{"internalType":"string","name":"newHiddenMetaDataURI","type":"string"}],"name":"setHiddenMetaDataURI","outputs":[],"stateMutability":"nonpayable","type":"function"},{"inputs":[{"internalType":"uint256","name":"maxMints","type":"uint256"}],"name":"setMaxWhitelistMints","outputs":[],"stateMutability":"nonpayable","type":"function"},{"inputs":[{"internalType":"address","name":"recipient","type":"address"},{"internalType":"uint96","name":"fee","type":"uint96"}],"name":"setRoyaltyInfo","outputs":[],"stateMutability":"nonpayable","type":"function"},{"inputs":[{"internalType":"bool","name":"active","type":"bool"}],"name":"setWhitelistPhase","outputs":[],"stateMutability":"nonpayable","type":"function"},{"inputs":[{"internalType":"address","name":"newAddress","type":"address"}],"name":"setWithdrawAddress","outputs":[],"stateMutability":"nonpayable","type":"function"},{"inputs":[{"internalType":"uint256","name":"tokenId","type":"uint256"}],"name":"stake","outputs":[],"stateMutability":"nonpayable","type":"function"},{"inputs":[{"internalType":"uint256","name":"","type":"uint256"}],"name":"stakedTokens","outputs":[{"internalType":"bool","name":"","type":"bool"}],"stateMutability":"view","type":"function"},{"inputs":[],"name":"stakingEnabled","outputs":[{"internalType":"bool","name":"","type":"bool"}],"stateMutability":"view","type":"function"},{"inputs":[{"internalType":"uint256","name":"","type":"uint256"}],"name":"stakingStartTime","outputs":[{"internalType":"uint256","name":"","type":"uint256"}],"stateMutability":"view","type":"function"},{"inputs":[{"internalType":"uint256","name":"startPrice","type":"uint256"},{"internalType":"uint256","name":"endPrice","type":"uint256"},{"internalType":"uint256","name":"duration","type":"uint256"},{"internalType":"uint256","name":"priceDropInterval","type":"uint256"}],"name":"startAuction","outputs":[],"stateMutability":"nonpayable","type":"function"},{"inputs":[{"internalType":"bytes4","name":"interfaceId","type":"bytes4"}],"name":"supportsInterface","outputs":[{"internalType":"bool","name":"","type":"bool"}],"stateMutability":"view","type":"function"},{"inputs":[],"name":"symbol","outputs":[{"internalType":"string","name":"","type":"string"}],"stateMutability":"view","type":"function"},{"inputs":[],"name":"toggleStaking","outputs":[],"stateMutability":"nonpayable","type":"function"},{"inputs":[{"internalType":"uint256","name":"","type":"uint256"}],"name":"tokenToRarity","outputs":[{"internalType":"uint256","name":"","type":"uint256"}],"stateMutability":"view","type":"function"},{"inputs":[{"internalType":"uint256","name":"tokenId","type":"uint256"}],"name":"tokenURI","outputs":[{"internalType":"string","name":"","type":"string"}],"stateMutability":"view","type":"function"},{"inputs":[{"internalType":"address","name":"from","type":"address"},{"internalType":"address","name":"to","type":"address"},{"internalType":"uint256","name":"tokenId","type":"uint256"}],"name":"transferFrom","outputs":[],"stateMutability":"nonpayable","type":"function"},{"inputs":[{"internalType":"address","name":"newOwner","type":"address"}],"name":"transferOwnership","outputs":[],"stateMutability":"nonpayable","type":"function"},{"inputs":[],"name":"unpauseContract","outputs":[],"stateMutability":"nonpayable","type":"function"},{"inputs":[{"internalType":"uint256","name":"tokenId","type":"uint256"}],"name":"unstake","outputs":[],"stateMutability":"nonpayable","type":"function"},{"inputs":[{"internalType":"uint256","name":"tierIndex","type":"uint256"},{"internalType":"string","name":"name","type":"string"},{"internalType":"uint256","name":"probability","type":"uint256"},{"internalType":"uint256","name":"maxSupplyTier","type":"uint256"},{"internalType":"string","name":"specialAttribute","type":"string"}],"name":"updateRarityTier","outputs":[],"stateMutability":"nonpayable","type":"function"},{"inputs":[{"internalType":"uint256","name":"tokenId","type":"uint256"},{"internalType":"string","name":"newURI","type":"string"}],"name":"updateTokenMetadata","outputs":[],"stateMutability":"nonpayable","type":"function"},{"inputs":[{"internalType":"address","name":"","type":"address"},{"internalType":"uint256","name":"","type":"uint256"}],"name":"userStakedTokens","outputs":[{"internalType":"uint256","name":"","type":"uint256"}],"stateMutability":"view","type":"function"},{"inputs":[{"internalType":"address","name":"","type":"address"}],"name":"whitelist","outputs":[{"internalType":"bool","name":"","type":"bool"}],"stateMutability":"view","type":"function"},{"inputs":[{"internalType":"uint256","name":"quantity","type":"uint256"}],"name":"whitelistMint","outputs":[],"stateMutability":"nonpayable","type":"function"},{"inputs":[{"internalType":"address","name":"","type":"address"}],"name":"whitelistMinted","outputs":[{"internalType":"uint256","name":"","type":"uint256"}],"stateMutability":"view","type":"function"},{"inputs":[],"name":"whitelistPhaseActive","outputs":[{"internalType":"bool","name":"","type":"bool"}],"stateMutability":"view","type":"function"},{"inputs":[],"name":"withdraw","outputs":[],"stateMutability":"nonpayable","type":"function"},{"inputs":[],"name":"withdrawAddress","outputs":[{"internalType":"address","name":"","type":"address"}],"stateMutability":"view","type":"function"}],"evm":{"bytecode":{"linkReferences":{},"object":"608080604052346200116757620079bb8038038091620000208285620011a4565b833981019060e081830312620011675780516001600160401b0381116200116757826200004f918301620011c8565b60208201516001600160401b03811162001167578362000071918401620011c8565b60408301519092906001600160401b03811162001167578462000096918301620011c8565b60608201516001600160401b038111620011675785620000b8918401620011c8565b608083015190956001600160401b0382116200116757620000db918401620011c8565b93620000f860c0620000f060a086016200123f565b94016200123f565b845190946001600160401b038211620009f65760005490600182811c921680156200115c575b602083101462000aec5781601f849311620010fc575b50602090601f8311600114620010805760009262001074575b50508160011b916000199060031b1c1916176000555b8051906001600160401b038211620009f65760015490600182811c9216801562001069575b602083101462000aec5781601f84931162001005575b50602090601f831160011462000f875760009262000f7b575b50508160011b916000199060031b1c1916176001555b60078054336001600160a01b0319821681179092556040516001600160a01b0392909183167f8be0079c531659141344cd1fd0a4f28419497f9722a3daafe3b4186f6b6457e0600080a3600160085560ff19600954166009556000600c5560ff19600f5416600f55600360175560ff1960185416601855670de0b6b3a764000060195567016345785d8a0000601a55610e10601c5561012c601d5560ff19601e5416601e556102ee60018060601b0319601f541617601f5561ffff19602354166023558184161562000f28575083161562000ed3578051906001600160401b038211620009f657600d5490600182811c9216801562000ec8575b602083101462000aec5781601f84931162000e67575b50602090601f831160011462000de95760009262000ddd575b50508160011b916000199060031b1c191617600d555b83516001600160401b038111620009f657600e54600181811c9116801562000dd2575b602082101462000aec57601f811162000d6c575b506020601f821160011462000cfc57819293949560009262000cf0575b50508160011b916000199060031b1c191617600e555b82516001600160401b038111620009f657601054600181811c9116801562000ce5575b602082101462000aec57601f811162000c7f575b506020601f821160011462000c10578192939460009262000c04575b50508160011b916000199060031b1c1916176010555b601e8054610100600160a81b03191660089290921b610100600160a81b03169190911790556023805462010000600160b01b03191660109290921b62010000600160b01b0316919091179055600b8054600101905560405160009060269062000448816200116c565b620004b6604051916200045b8362001188565b600683526521b7b6b6b7b760d11b92836020820152815261177060208201526102586040820152846060820152604051620004968162001188565b600881526714dd185b99185c9960c21b6020820152608082015262001254565b60405190815260136006820152205560016024604051620004d7816200116c565b6200054360405191620004ea8362001188565b60048352635261726560e01b9283602082015281526109c4602082015260fa604082015260006060820152604051620005238162001188565b6008815267115b9a185b98d95960c21b6020820152608082015262001254565b6040519081526013600482015220556002602460405162000564816200116c565b620005b760405191620005778362001188565b60048352634570696360e01b9283602082015281526104b060208201526078604082015260006060820152620005ac62001566565b608082015262001254565b604051908152601360048201522055604051620005d4816200116c565b620005de62001566565b815261012c6020820152601e604082015260006060820152604051620006048162001188565b6008815267135e5d1a1a58d85b60c21b6020820152608082015260115468010000000000000000811015620009f657600181018060115581101562000bee5760116000528151805190926000805160206200793b833981519152916001600160401b038111620009f65760058402830154600181811c9116801562000be3575b602082101462000aec57601f811162000b95575b506020601f821160011462000b19578190608094959660009262000b0d575b50508160011b916000199060031b1c191617600585028401555b6020810151600585028401600181019190915560408201516002820155606082015160039091015501518051906001600160401b038211620009f65760046005850284010154600181811c9116801562000b02575b602082101462000aec57601f811162000a97575b50602090601f831160011462000a185791806005926004959460009262000a0c575b50508160011b916000199060031b1c19161793020101555b60036029604051684c6567656e6461727960b81b8152601360098201522055604051602081014281524460408301523360601b606083015260548252608082019180831060018060401b03841117620009f657604083815290519091206014553360009081527f13da86008ba1c6922daee3e07db95305ef49ebced9f5467a0b8613fcc6b343e36020522054600a9060ff1615620009b5575b7fa49807205ce4d355092ef5a8a18f56e8913cf4a201fbe287825b095693c21775806000528160205260406000203360005260205260ff604060002054161562000972575b507f9f2df0fed2c77648de5860a4cc508cd0818c85b8b8a1ab4ceeef8d981c8956a6806000528160205260406000203360005260205260ff60406000205416156200092f575b507ff18246d2e788c2a885ec6aeee43fc7c89077b8b7a1e52e99f27f5889e429e2f590816000528060205260406000203360005260205260ff6040600020541615620008ec575b61638d83816200158e8239f35b816000526020526040600020336000526020526040600020600160ff19825416179055339033906000805160206200791b833981519152600080a43880620008df565b80600052816020526040600020336000526020526040600020600160ff19825416179055339033906000805160206200791b833981519152600080a43862000898565b80600052816020526040600020336000526020526040600020600160ff19825416179055339033906000805160206200791b833981519152600080a43862000852565b60008052806020526040600020336000526020526040600020600160ff19825416179055333360006000805160206200791b8339815191528180a46200080d565b634e487b7160e01b600052604160045260246000fd5b0151905038806200075c565b9060046005860285010160005260206000209160005b601f198516811062000a7e5750926005926001926004969583601f1981161062000a64575b505050811b01930201015562000774565b015160001960f88460031b161c1916905538808062000a53565b9192602060018192868501518155019401920162000a2e565b6004600586028501016000526020600020601f840160051c8101916020851062000ae1575b601f0160051c01905b81811062000ad457506200073a565b6000815560010162000ac5565b909150819062000abc565b634e487b7160e01b600052602260045260246000fd5b90607f169062000726565b015190503880620006b7565b60058502840160005260206000209560005b601f198416811062000b7c57509582916080959697600194601f1981161062000b62575b505050811b0160058502840155620006d1565b015160001960f88460031b161c1916905538808062000b4f565b8282015188556001909701966020928301920162000b2b565b6005850284016000526020600020601f830160051c81016020841062000bdb575b601f830160051c8201811062000bce57505062000698565b6000815560010162000bb6565b508062000bb6565b90607f169062000684565b634e487b7160e01b600052603260045260246000fd5b015190503880620003c9565b601060005260206000209060005b601f198416811062000c665750600193949583601f1981161062000c4c575b505050811b01601055620003df565b015160001960f88460031b161c1916905538808062000c3d565b9091602060018192858a01518155019301910162000c1e565b60106000527f1b6847dc741a1b0cd08d278845f9d819d87b734759afb55fe2de5cb82a9ae672601f830160051c81016020841062000cdd575b601f830160051c8201811062000cd0575050620003ad565b6000815560010162000cb8565b508062000cb8565b90607f169062000399565b01519050388062000360565b600e60005260206000209060005b601f198416811062000d53575060019394959683601f1981161062000d39575b505050811b01600e5562000376565b015160001960f88460031b161c1916905538808062000d2a565b9091602060018192858b01518155019301910162000d0a565b600e6000527fbb7b4a454dc3493923482f07822329ed19e8244eff582cc204f8554c3620c3fd601f830160051c81016020841062000dca575b601f830160051c8201811062000dbd57505062000343565b6000815560010162000da5565b508062000da5565b90607f16906200032f565b015190503880620002f6565b600d600090815293506000805160206200797b83398151915291905b601f198416851062000e4b576001945083601f1981161062000e31575b505050811b01600d556200030c565b015160001960f88460031b161c1916905538808062000e22565b8181015183556020948501946001909301929091019062000e05565b600d6000529091506000805160206200797b833981519152601f840160051c81016020851062000ec0575b90849392915b601f830160051c8201811062000eb0575050620002dd565b6000815585945060010162000e98565b508062000e92565b91607f1691620002c7565b60405162461bcd60e51b815260206004820152602760248201527f576974686472617720616464726573732063616e6e6f74206265207a65726f206044820152666164647265737360c81b6064820152608490fd5b62461bcd60e51b815260206004820152602860248201527f526f79616c747920726563697069656e742063616e6e6f74206265207a65726f604482015267206164647265737360c01b6064820152608490fd5b015190503880620001b7565b6001600090815293506000805160206200799b83398151915291905b601f198416851062000fe9576001945083601f1981161062000fcf575b505050811b01600155620001cd565b015160001960f88460031b161c1916905538808062000fc0565b8181015183556020948501946001909301929091019062000fa3565b60016000529091506000805160206200799b833981519152601f840160051c810191602085106200105e575b90601f859493920160051c01905b8181106200104e57506200019e565b600081558493506001016200103f565b909150819062001031565b91607f169162000188565b0151905038806200014d565b600080805293506000805160206200795b83398151915291905b601f1984168510620010e0576001945083601f19811610620010c6575b505050811b0160005562000163565b015160001960f88460031b161c19169055388080620010b7565b818101518355602094850194600190930192909101906200109a565b600080529091506000805160206200795b833981519152601f840160051c81016020851062001154575b90849392915b601f830160051c820181106200114457505062000134565b600081558594506001016200112c565b508062001126565b91607f16916200011e565b600080fd5b60a081019081106001600160401b03821117620009f657604052565b604081019081106001600160401b03821117620009f657604052565b601f909101601f19168101906001600160401b03821190821017620009f657604052565b919080601f8401121562001167578251906001600160401b038211620009f6576040519160209162001204601f8301601f1916840185620011a4565b818452828287010111620011675760005b8181106200122b57508260009394955001015290565b858101830151848201840152820162001215565b51906001600160a01b03821682036200116757565b60115468010000000000000000811015620009f65760018082018060115582101562000bee5760116000908152835180516020946001600160401b0394939160059091026000805160206200793b833981519152019085811162001552578154938585811c9516801562001547575b888610146200153357601f94858111620014eb575b5087908583116001146200147c57918060809492600494879262001470575b5050600019600383901b1c191690871b1781555b87890151868201556040890151600282015560608901516003820155019601519081519485116200145c5786548481811c9116801562001451575b878210146200143d57838111620013f5575b50859285116001146200139257939450849291908362001386575b50501b916000199060031b1c1916179055565b01519250388062001373565b86815285812093958591601f198316915b88838310620013da5750505010620013c0575b505050811b019055565b015160001960f88460031b161c19169055388080620013b6565b858701518855909601959485019487935090810190620013a3565b8782528682208480880160051c82019289891062001433575b0160051c019085905b8281106200142757505062001358565b83815501859062001417565b925081926200140e565b634e487b7160e01b82526022600452602482fd5b90607f169062001346565b634e487b7160e01b81526041600452602490fd5b015190503880620012f7565b8385528885208793929091601f198416875b8c828210620014d457505091600495939185608098969410620014ba575b505050811b0181556200130b565b015160001960f88460031b161c19169055388080620014ac565b8385015186558b979095019493840193016200148e565b8385528885208680850160051c8201928b861062001529575b0160051c019087905b8281106200151d575050620012d8565b8681550187906200150d565b9250819262001504565b634e487b7160e01b84526022600452602484fd5b94607f1694620012c3565b634e487b7160e01b83526041600452602483fd5b60405190620015758262001188565b60098252684c6567656e6461727960b81b602083015256fe608060408181526004918236101561001657600080fd5b600092833560e01c91826301ffc9a7146143fe5750816302bdd7551461439d57816302fa7c4714614256578163061886cd1461420057816306fdde0314614179578163081812fc146141595781630951984d14614121578163095ea7b314613fb35781630c4ad45b14613f945781630cbf54c814613f755781631581b60014613f485781631c06adcd14613f205781631cfff51b14613efc57816323b872dd14613ed7578163248a9ca314613eac578163250aeeb714613e8c578163275b1efb14613e1e5781632a55205a14613dcf5781632cb2f52e14613cc65781632e17de7814613baf5781632e93be3014613b245781632f2ff15d14613a8657816336568abe146139f45781633ab1a494146139325781633af32abf146118f95781633b8105b3146137265781633ccfd60b1461364e5781633f244f041461362657816342842e0e146135f257816343508b0514613459578163439766ce146134105781634542fc46146133f1578163484b973c146132855781634d3554c314613037578163512d5c611461301a5781635183022714612ff657816351c7115b14612fd9578163521c46d814612f5b578163548db17414612eaa578163555ec78b14612e4e57816355f804b314612d0d5781635c975abb14612ce95781636352211e14612cb857816363a599a414612c91578163694d9778146119375781636a62784214612b1d5781636c0360eb14612a4e57816370a08231146129b8578163715018a61461296d57816375b238fc14612944578163771282f61461292557816378bc0301146127b65781637f649783146126a3578163819d4cc6146125c9578163868ff4a21461236a5781638980f11f1461224d5781638cdb026d146121e05781638d2c4488146120ea5781638d63a27214611e0a5781638da5cb5b14611de15781638ecad72114611dc55781639105281614611d8a57816391d1485414611d445781639222800614611d20578163938e3d7b14611bae5781639470fc9314611ac757816395d89b4114611a14578163969ce9cf1461196f57816398a8cffe146119375781639b19251a146118f9578163a0484dda146118d3578163a04a6ac8146118b4578163a217fddf14611899578163a22cb465146117ca578163a30c40551461177a578163a475b5dd146116e4578163a694fc3a1461162d578163ae1a01a214611580578163b33712c514611536578163b88d4fde146114ab578163bb9391a114611486578163c078855514610698578163c0e7274014610733578163c21277931461133e578163c73d7c7b14611233578163c87b56dd146111ff578163cbc85d6f14611075578163d12f743a14611051578163d2acd13d14610e31578163d539139314610e08578163d547741f14610dd8578163d5abeb0114610dbb578163d756985b14610d9c578163d7af40e514610d11578163db2e21bc14610c47578163dfe6b5d614610bc2578163e4b7fb7314610b82578163e4dad1ee14610a88578163e58306f914610775578163e8a3d48514610733578163e985e9c5146106e3578163eb54f9ec146106c4578163f0a5242414610698578163f2fde38b146105e3578163f90adccc146105b6578163faf531691461054357508063fe67a54b146104ea5763ff6e36ed146104c957600080fd5b346104e657816003193601126104e6576020906017549051908152f35b5080fd5b82346105405780600319360112610540576105036149ae565b601e5461051260ff8216615d0d565b60ff1916601e557fa0e92984607195c326795751263414ee1074526323552e694c90ef2b99ae3f298180a180f35b80fd5b9050346105b25760203660031901126105b2578035916105616149ae565b821561056f57505060175580f35b906020606492519162461bcd60e51b8352820152602060248201527f4d6178206d696e7473206d7573742062652067726561746572207468616e20306044820152fd5b8280fd5b5050346104e65760203660031901126104e6576020906105dc6105d76144c6565b615b27565b9051908152f35b9050346105b25760203660031901126105b2576105fe6144c6565b906106076149ae565b6001600160a01b03918216928315610646575050600780546001600160a01b031981168417909155166000805160206161d8833981519152600080a380f35b906020608492519162461bcd60e51b8352820152602660248201527f4f776e61626c653a206e6577206f776e657220697320746865207a65726f206160448201526564647265737360d01b6064820152fd5b9050346105b25760203660031901126105b2578160209360ff9235815284805220541690519015158152f35b5050346104e657816003193601126104e657602090601b549051908152f35b5050346104e657806003193601126104e6576020916107006144c6565b826107096144dc565b9260018060a01b03809316815260058652209116600052825260ff81600020541690519015158152f35b5050346104e657816003193601126104e65780516107719161075f826107588161471f565b0383614886565b51918291602083526020830190614543565b0390f35b8383346104e657806003193601126104e65761078f6144c6565b906024938435906000805160206161f88339815191529586600052602096600a88528460002033600052885260ff856000205416156108d5575050506107d6811515615a9a565b600c6107f06103e86107e9848454615551565b1115615ae6565b600b805490966001600160a01b0386169591929091875b85811061083057505050600080516020616318833981519152949596508351928352820152a280f35b6108d0908a896000805160206161b88339815191528a808e61085061555e565b918291875497610860898d6151bb565b600181540190556108718c546150fc565b8c5587815260128d522055600361088782614919565b500161089381546150fc565b90556108a76108a18661570a565b866153dc565b6108c86108b382614919565b5083519384938452808d850152830190614789565b0390a36150fc565b610807565b87935084906108e333615e0d565b9082516108ef8161486b565b60428152868101916060368437815115610a7457603083538151600190811015610a6057607860218401536041905b8082116109f55750506109c75760486109c3959385936109ab9361099c975197889376020b1b1b2b9b9a1b7b73a3937b61d1030b1b1b7bab73a1604d1b8d8601526109738d8251928391603789019101614520565b8401917001034b99036b4b9b9b4b733903937b6329607d1b603784015251809386840190614520565b01036028810186520184614886565b5194859462461bcd60e51b8652850152830190614543565b0390fd5b60648688878188519362461bcd60e51b85528401528201526000805160206161388339815191526044820152fd5b9091600f81166010811015610a4c576f181899199a1a9b1b9c1cb0b131b232b360811b901a610a248486615dfc565b53881c918015610a3857600019019061091e565b8760118a634e487b7160e01b600052526000fd5b8860328b634e487b7160e01b600052526000fd5b86603289634e487b7160e01b600052526000fd5b85603288634e487b7160e01b600052526000fd5b839150346104e657610a99366148fb565b909193610aa46149ae565b60ff601e5416610b285750907fd19188be05e6ddc5a5158014d33ce7d5ce58bdb3b168f1f6760891d7ec6f09719495610b1892610ae2868611615c15565b610aed831515615c77565b80151580610b1e575b610aff90615cc3565b8460195585601a5582601c55601d555193849384615d4e565b0390a180f35b5082811115610af6565b608490602088519162461bcd60e51b8352820152602e60248201527f43616e6e6f742075706461746520706172616d657465727320647572696e672060448201526d30b1ba34bb329030bab1ba34b7b760911b6064820152fd5b8383346104e657816003193601126104e657600c54916103e8928303928311610baf576020838351908152f35b634e487b7160e01b815260118452602490fd5b828434610540578060031936011261054057600c54916103e891838303928311610c34575060e0935060115460ff600f541660ff602354169160ff601854169360ff601e541695815197885260208801528601521515606085015215156080840152151560a0830152151560c0820152f35b634e487b7160e01b815260118552602490fd5b9050346105b257826003193601126105b257610c616149ae565b610c69615165565b4790610c768215156160b0565b60018060a01b0390848080808686600754165af1610c92614dac565b5015610cd057507f23d6711a1d031134a36921253c75aa59e967d38e369ac625992824315e204f2091602091600754169351908152a2600160085580f35b606490602085519162461bcd60e51b8352820152601b60248201527a115b595c99d95b98de481dda5d1a191c985dd85b0819985a5b1959602a1b6044820152fd5b905082346105405760203660031901126105405750803590601154821015610d5c576020836105dc846003610d536002610d4a84614919565b50015492614919565b500154906158f4565b606490602084519162461bcd60e51b8352820152601a60248201527914985c9a5d1e481d1a595c88191bd95cc81b9bdd08195e1a5cdd60321b6044820152fd5b5050346104e657816003193601126104e6576020906019549051908152f35b5050346104e657816003193601126104e657602090516103e88152f35b919050346105b2573660031901126104e657610e0590610df66144dc565b90610dff6149ae565b35614938565b80f35b5050346104e657816003193601126104e657602090516000805160206161f88339815191528152f35b919050346105b25760208060031936011261104d5782356001600160401b03811161104957610e639036908501614630565b929091610e6e615165565b60ff93610e7e8560235416615f09565b610e898115156160f3565b60148111610ffb57909386935b828510610ea65787600160085580f35b610eb68584839a9798999a615a76565b3593610ec9610ec486614d8f565b614fe1565b610ee5336001600160a01b03610ede88614a4d565b1614615f4b565b848652878052610ef9838288205416615fef565b84865287805280862060ff1981541690556021885285818120553386526022885280862097865b895480821015610fe7578790610f36838d6144f2565b929054600393841b1c14610f54575050610f4f906150fc565b610f20565b60009c9b9397969a95999c989498198101908111610fd457610fb192610f938593610f87610fac94610fca9a99986144f2565b9054911b1c91846144f2565b90919082549060031b91821b91600019901b1916179055565b61602e565b33906000805160206161788339815191528b80a36150fc565b9394909194610e96565b634e487b7160e01b8d5260118c5260248dfd5b50509392969094610fca9296999850610fb1565b825162461bcd60e51b8152808701839052602260248201527f546f6f206d616e7920746f6b656e7320746f20756e7374616b65206174206f6e604482015261636560f01b6064820152608490fd5b8480fd5b8380fd5b5050346104e657816003193601126104e65760209060ff6018541690519015158152f35b839150346104e657602092836003193601126105b2576001600160401b03908235828111611049576110aa9036908501614603565b9390926110b56149ae565b60ff600f5416156111be5784116111ab57506110db836110d6600d54614660565b615334565b8394601f84116001146111305750610b18908385966000805160206162988339815191529691611125575b508460011b906000198660031b1c191617600d555b5192839283615a0a565b905083013587611106565b94601f198416600d86528686209686905b82821061119257505095610b18929185600080516020616298833981519152979810611178575b5050600184811b01600d5561111b565b840135600019600387901b60f8161c191690558680611168565b8386013589556001909801979283019290810190611141565b634e487b7160e01b855260419052602484fd5b5085606492519162461bcd60e51b8352820152601c60248201527b10d85b9b9bdd081b5a59dc985d19481899599bdc99481c995d99585b60221b6044820152fd5b8284346105405760203660031901126105405750611220610771923561595b565b9051918291602083526020830190614543565b919050346105b25760203660031901126105b25761124f6144b7565b916112586149ae565b8215159260235461ff008560081b169061ff001916176023556000146112c0575060008051602061619883398151915291602091611294615121565b600160ff196009541617600955600080516020616278833981519152838251338152a15b51908152a180f35b6009549060ff8216156113045750916020916000805160206161988339815191529360ff1916600955600080516020616158833981519152838251338152a16112b8565b606490602084519162461bcd60e51b8352820152601460248201527314185d5cd8589b194e881b9bdd081c185d5cd95960621b6044820152fd5b9050346105b2576020918260031936011261104d5781356001600160401b038111611049576113709036908401614630565b61137b949194615165565b60ff9361138b8560235416615f09565b6113968215156160f3565b601482116114455750855b8181106113b15786600160085580f35b806113c0611440928489615a76565b356113cd610ec482614d8f565b6113e2336001600160a01b03610ede84614a4d565b8089528480526113f787878b20541615615f89565b808952848052858920600160ff198254161790556021855242868a20553389526022855261142781878b20615fcc565b33906000805160206162b88339815191528a80a36150fc565b6113a1565b606490838086519262461bcd60e51b845283015260248201527f546f6f206d616e7920746f6b656e7320746f207374616b65206174206f6e63656044820152fd5b5050346104e657816003193601126104e65780516107719161075f826107588161469a565b8390346104e65760803660031901126104e6576114c66144c6565b906114cf6144dc565b6064359290604435906001600160401b03851161153257366023860112156115325761150a61152d94866024610e05983693013591016148c4565b9261151d6115188433614b71565b614a9c565b611528838383614c39565b614ed0565b614b51565b8580fd5b9050346105b257826003193601126105b2576115506149ae565b6009549060ff821615611304575060ff19166009555133815260008051602061615883398151915290602090a180f35b82843461054057602090816003193601126105405782906001600160a01b036115a76144c6565b16815260228352818120908251808584549182815201908194845286842090845b81811061161957505050816115de910382614886565b83519485948186019282875251809352850193925b82811061160257505050500390f35b8351855286955093810193928101926001016115f3565b8254845292880192600192830192016115c8565b9050346105b25760208060031936011261104d576022926116c89235938492611654615165565b61166260ff60235416615f09565b61166e610ec485614d8f565b61168a61167a85614a4d565b6001600160a01b03163314615f4b565b8387528080526116a060ff848920541615615f89565b838752808052828720600160ff19825416179055602181524283882055338752528420615fcc565b33906000805160206162b88339815191528380a3600160085580f35b9050346105b257826003193601126105b2576116fe6149ae565b600f549160ff831661173d5760ff198316600117600f55837f08775102fde7505699b9d1e2b921e3786c1b5c7b2aec306add2b484a8ef0cbac8180a180f35b906020606492519162461bcd60e51b83528201526017602482015276151bdad95b9cc8185b1c9958591e481c995d99585b1959604a1b6044820152fd5b82843461054057806003193601126105405760115491815b8381106117a3576020838351908152f35b916117bf6117c59160016117b686614919565b50015490615551565b926150fc565b611792565b919050346105b257806003193601126105b2576117e56144c6565b9060243591821515809303611894576001600160a01b03169233841461185657503384526005602052808420836000526020528060002060ff1981541660ff8416179055519081527f17307eab39ab6107e8899845ad3d59bd9653f200f220920489ca2b5937696c3160203392a380f35b6020606492519162461bcd60e51b8352820152601960248201527822a9219b99189d1030b8383937bb32903a379031b0b63632b960391b6044820152fd5b600080fd5b5050346104e657816003193601126104e65751908152602090f35b5050346104e657816003193601126104e657602090601a549051908152f35b5050346104e657816003193601126104e6576020906118f0615d64565b90519015158152f35b5050346104e65760203660031901126104e65760209160ff9082906001600160a01b036119246144c6565b1681526015855220541690519015158152f35b5050346104e65760203660031901126104e65760209181906001600160a01b0361195f6144c6565b1681526016845220549051908152f35b905082346105405760203660031901126105405781359060115482101561054057506119f9926119a161077192614919565b50928151936119bb856119b48184614789565b0386614886565b6001810154926002820154906119e66003840154936119df83518097819301614789565b0385614886565b805197889760a0895260a0890190614543565b94602088015286015260608501528382036080850152614543565b82843461054057806003193601126105405750805160009160018054611a3981614660565b80855290828116908115611a9f5750600114611a61575b505061075f82610771940383614886565b93508060005260209384600020916000925b828410611a8c5750505082019092019161075f82611a50565b8054868501880152928601928101611a73565b610771965061075f93506020915091859260ff191682840152151560051b8201019450611a50565b9050346105b257826003193601126105b257601154906001600160401b038211611b9b57508151600593906020611b0284871b820183614886565b8382528082019384601185528285208886925b848410611b75575050505050845194818601928287525180935282818701971b8601019392955b828710611b495785850386f35b909192938280611b65600193603f198a8203018652885161459d565b9601920196019592919092611b3c565b9085600192611b87859a98999a614f78565b815201920192019190899096959496611b15565b634e487b7160e01b845260419052602483fd5b839150346104e657602092836003193601126105b2576001600160401b0390823582811161104957611be39036908501614603565b939092611bee6149ae565b84116111ab5750611c00600e54614660565b601f8111611cd9575b508394601f8411600114611c5e5750610b18908385966000805160206162f88339815191529691611c53575b508460011b906000198660031b1c191617600e555192839283615a0a565b905083013587611c35565b94601f198416600e86528686209686905b828210611cc057505095610b189291856000805160206162f8833981519152979810611ca6575b5050600184811b01600e5561111b565b840135600019600387901b60f8161c191690558680611c96565b8386013589556001909801979283019290810190611c6f565b600e60005285600020601f850160051c810191878610611d16575b601f0160051c01905b818110611d0a5750611c09565b60008155600101611cfd565b9091508190611cf4565b5050346104e657816003193601126104e65760209060ff601e541690519015158152f35b9050346105b257816003193601126105b25781602093611d626144dc565b92358152600a8552209060018060a01b0316600052825260ff81600020541690519015158152f35b5050346104e657816003193601126104e657602090517ff18246d2e788c2a885ec6aeee43fc7c89077b8b7a1e52e99f27f5889e429e2f58152f35b5050346104e657816003193601126104e65760209051600a8152f35b5050346104e657816003193601126104e65760075490516001600160a01b039091168152602090f35b919050346105b25760a03660031901126105b2578135916001600160401b0360243581811161153257611e409036908401614603565b9390916064356084358281116120e657611e5d9036908701614603565b919095611e686149ae565b6011548910156120ae576003611e7d8a614919565b500154821061205557611e8f89614919565b508489116120425780611ead8a611ea7859454614660565b83615388565b898c8d601f8311600114611fd95791611fce575b508a60011b906000198c60031b1c19161781555b60019360443585830155600282015501938311611fbb5750908291611f0682611f008a979654614660565b85615388565b89601f8311600114611f5157829182916020998d94611f46575b50501b916000199060031b1c19161790555b519384928337810160138152030190205580f35b013592503880611f20565b601f92919219821697848c52602091828d20928d905b8b8210611fa15750508360209a10611f87575b505050811b019055611f32565b0135600019600384901b60f8161c19169055388080611f7a565b8284013585558c9950938601939182019190810190611f67565b634e487b7160e01b8a5260419052602489fd5b905088013538611ec1565b83815260208082209391601f198316915b8d838310612024575050501061200a575b505060018a811b018155611ed5565b89013560001960038d901b60f8161c191690553880611ffb565b8501358655889750600190950194938401938f935090810190611fea565b634e487b7160e01b8b526041825260248bfd5b608490602086519162461bcd60e51b8352820152602d60248201527f4d617820737570706c792063616e6e6f74206265206c657373207468616e206360448201526c757272656e7420737570706c7960981b6064820152fd5b606490602086519162461bcd60e51b83528201526012602482015271092dcecc2d8d2c840e8d2cae440d2dcc8caf60731b6044820152fd5b8880fd5b9050346105b2576120fa366148fb565b6121089593959491946149ae565b601e549160ff83166121a457509160018694926080969461214b847fa832766a05f1bd0298b0268308621777cfe1e4eea23afe7c06beea79bc6ddd2d9a11615c15565b612156861515615c77565b8015158061219a575b61216890615cc3565b8660195583601a5585601c55601d5542601b5560ff191617601e5581519384526020840152820152426060820152a180f35b508581111561215f565b606490602086519162461bcd60e51b8352820152601660248201527541756374696f6e20616c72656164792061637469766560501b6044820152fd5b828434610540576020366003190112610540578235906001600160401b038211610540573660238301121561054057506020612229819483602461223b953693013591016148c4565b81845193828580945193849201614520565b81016013815203019020549051908152f35b9050346105b257816003193601126105b2576122676144c6565b602435906122736149ae565b6001600160a01b0390811692831561232f57602083918360075416906122aa8851948593849363a9059cbb60e01b855284016145e8565b038189885af18015612325576122ee575b507faca8fb252cde442184e5f10e0f2e6e4029e8cd7717cae63559079610702436aa91602091600754169451908152a380f35b6020813d821161231d575b8161230660209383614886565b8101031261153257518015150361104957386122bb565b3d91506122f9565b85513d88823e3d90fd5b606490602086519162461bcd60e51b83528201526015602482015274496e76616c696420746f6b656e206164647265737360581b6044820152fd5b839150346104e657602092836003193601126105b25781359161238b615121565b61239d60ff60235460081c1615615024565b6123a5615165565b60ff601854161561258b573384526015855260ff828520541615612550576123ce831515615a9a565b338452601685526123e28383862054615551565b601754106125115750600c936123ff6103e86107e9858854615551565b600b90815491855b85811061247657505090600080516020616318833981519152929133865260168152828620612437868254615551565b905582518581527fce77e469b386be007f957632f6f65216f2e74c5daa303aff682e8296f628d010823392a282519485528401523392a2600160085580f35b61250c9061248261555e565b83549061248f82336151bb565b600185540185556124a08b546150fc565b8b55818a526012865280888b205560036124b982614919565b50016124c581546150fc565b90556124d96124d38361570a565b836153dc565b6000805160206161b88339815191526124f182614919565b509189519081528988820152806108c833948c830190614789565b612407565b84606492519162461bcd60e51b8352820152601b60248201527a115e18d95959081dda1a5d195b1a5cdd081b5a5b9d081b1a5b5a5d602a1b6044820152fd5b84606492519162461bcd60e51b835282015260176024820152761059191c995cdcc81b9bdd081dda1a5d195b1a5cdd1959604a1b6044820152fd5b84606492519162461bcd60e51b8352820152601a60248201527957686974656c697374207068617365206e6f742061637469766560301b6044820152fd5b8383346104e657806003193601126104e6576125e36144c6565b926125ec6149ae565b6001600160a01b039384163081146126645783946007541690803b156110495760648592855196879384926323b872dd60e01b84523088850152602484015260243560448401525af1801561265a57612643578380f35b6001600160401b038311611b9b5750528180808380f35b82513d86823e3d90fd5b506020606492519162461bcd60e51b8352820152601960248201527843616e6e6f74207265636f766572206f776e20746f6b656e7360381b6044820152fd5b9050346105b25760208060031936011261104d5781356001600160401b038111611049576126d49036908401614630565b926126dd6149ae565b6126e8841515615a32565b855b8481106126f5578680f35b6001600160a01b038061271161270c848988615a76565b615a86565b161561277357908161276e9261272b61270c848a89615a76565b1689526015865260008051602061633883398151915286898b20926001938460ff1982541617905561276161270c868c8b615a76565b16928a51908152a26150fc565b6126ea565b865162461bcd60e51b8152808401869052601d60248201527f43616e6e6f742077686974656c697374207a65726f20616464726573730000006044820152606490fd5b839150346104e657602092836003193601126105b2576001600160401b03908235828111611049576127eb9036908501614603565b9390926127f66149ae565b84116111ab5750612808601054614660565b601f81116128e1575b508394601f84116001146128665750610b1890838596600080516020616218833981519152969161285b575b508460011b906000198660031b1c1916176010555192839283615a0a565b90508301358761283d565b94601f198416601086528686209686905b8282106128c857505095610b189291856000805160206162188339815191529798106128ae575b5050600184811b0160105561111b565b840135600019600387901b60f8161c19169055868061289e565b8386013589556001909801979283019290810190612877565b60108552858520601f850160051c81019187861061291b575b601f0160051c01905b8181106129105750612811565b858155600101612903565b90915081906128fa565b5050346104e657816003193601126104e657602090600c549051908152f35b5050346104e657816003193601126104e657602090516000805160206162588339815191528152f35b83346105405780600319360112610540576129866149ae565b600780546001600160a01b0319811690915581906001600160a01b03166000805160206161d88339815191528280a380f35b839150346104e65760203660031901126104e6576001600160a01b036129dc6144c6565b169081156129f95760208480858581526003845220549051908152f35b608490602085519162461bcd60e51b8352820152602960248201527f4552433732313a2061646472657373207a65726f206973206e6f7420612076616044820152683634b21037bbb732b960b91b6064820152fd5b5050346104e657816003193601126104e65780519082600d54612a7081614660565b80855290600190818116908115612af55750600114612a9c575b50505061075f82610771940383614886565b600d8352602095507fd7b6990105719101dabeb77144f2a3385c8033acd3af97e9423a695e81ad1eb55b828410612ae257505050826107719461075f9282010194612a8a565b8054868501880152928601928101612ac6565b610771975061075f9450602092508693915060ff191682840152151560051b82010194612a8a565b9050346105b25760203660031901126105b257612b386144c6565b91612b41615121565b612b5360ff60235460081c1615615024565b612b5b615165565b612b6a6103e8600c541061506d565b6001600160a01b03831691612b808315156150b2565b612b8861555e565b906003612b9483614919565b5001546002612ba284614919565b5001541115612c405750906000805160206161b883398151915291612bca600b5480966151bb565b6001600b5401600b55612bde600c546150fc565b600c55848652601260205280828720556003612bf982614919565b5001612c0581546150fc565b9055612c136108a18661570a565b612c35612c1f82614919565b5083519384938452806020850152830190614789565b0390a3600160085580f35b608490602084519162461bcd60e51b8352820152602560248201527f53656c656374656420726172697479207469657220737570706c7920657868616044820152641d5cdd195960da1b6064820152fd5b5050346104e657816003193601126104e65760209060ff60235460081c1690519015158152f35b8284346105405760203660031901126105405750612cd860209235614a4d565b90516001600160a01b039091168152f35b5050346104e657816003193601126104e65760209060ff6009541690519015158152f35b839150346104e657602092836003193601126105b2576001600160401b0390823582811161104957612d429036908501614603565b939092612d4d6149ae565b8415612e115784116111ab5750612d69836110d6600d54614660565b8394601f8411600114612db15750610b1890838596600080516020616298833981519152969161112557508460011b906000198660031b1c191617600d555192839283615a0a565b94601f198416600d86528686209686905b828210612df857505095610b18929185600080516020616298833981519152979810611178575050600184811b01600d5561111b565b8386013589556001909801979283019290810190612dc2565b5085606492519162461bcd60e51b8352820152601860248201527742617365205552492063616e6e6f7420626520656d70747960401b6044820152fd5b9050346105b25760203660031901126105b257612e918261077194612e979335612e76614f4b565b50612e83610ec482614d8f565b815260126020522054614919565b50614f78565b905191829160208352602083019061459d565b919050346105b2576020918260031936011261104d578035906001600160401b03821161104957612edd91369101614630565b9290612ee76149ae565b612ef2841515615a32565b845b848110612eff578580f35b612f56906001600160a01b0380612f1a61270c848a88615a76565b16885260158552858820805460ff19169055612f3a61270c838987615a76565b166000805160206163388339815191528587518a8152a26150fc565b612ef4565b82843461054057602036600319011261054057508135601154811015612f9a57602092506002612f8f6003610d4a84614919565b500154119051908152f35b815162461bcd60e51b81526020818501526019602482015278092dcecc2d8d2c840e4c2e4d2e8f240e8d2cae440d2dcc8caf603b1b6044820152606490fd5b5050346104e657816003193601126104e6576020906105dc615b76565b5050346104e657816003193601126104e65760209060ff600f541690519015158152f35b5050346104e657816003193601126104e6576020906105dc615d89565b91602091503660031901821361104d57823591613052615121565b61306460ff60235460081c1615615024565b61306c615165565b61307a60ff601e5416615d0d565b601b544210613249578215158061323e575b61309590615901565b600c906130a96103e86107e9868554615551565b6130b1615b76565b946130bc8587615b63565b908134106132045750600b92835493885b87811061316857505050803411613138575b7f663bd6898d9847b7aab9a13504609b487bfbc6e8dccdbd1c44357539418257976131226000805160206163188339815191529697865191829133958b84615d4e565b0390a282519485528401523392a2600160085580f35b8680808061314685346158f4565b81811561315f575b3390f16130df5783513d88823e3d90fd5b506108fc61314e565b6131ff908a886000805160206161b883398151915261318561555e565b808388549561319487336151bb565b60018a54018a556131a58b546150fc565b8b5586815260128d52205560036131bb82614919565b50016131c781546150fc565b90556131db6131d58561570a565b856153dc565b6131e481614919565b50906108c884519283928352858d8401523395830190614789565b6130cd565b845162461bcd60e51b81529081018390526014602482015273125b9cdd59999a58da595b9d081c185e5b595b9d60621b6044820152606490fd5b50600a83111561308c565b8390606492519162461bcd60e51b83528201526017602482015276105d58dd1a5bdb881b9bdd081cdd185c9d1959081e595d604a1b6044820152fd5b9050346105b257816003193601126105b25761329f6144c6565b916024356132ab6149ae565b6132ba6103e8600c541061506d565b6001600160a01b038416926132d08415156150b2565b6011548210156133b85760036132e583614919565b50015460026132f384614919565b50015411156133765750906000805160206161b88339815191529161331b600b5480966151bb565b6001600b5401600b5561332f600c546150fc565b600c5584865260126020528082872055600361334a82614919565b500161335681546150fc565b90556133646108a18661570a565b613370612c1f82614919565b0390a380f35b606490602084519162461bcd60e51b8352820152601c60248201527b14985c9a5d1e481d1a595c881cdd5c1c1b1e48195e1a185d5cdd195960221b6044820152fd5b606490602084519162461bcd60e51b8352820152601360248201527224b73b30b634b2103930b934ba3c903a34b2b960691b6044820152fd5b5050346104e657816003193601126104e657602090601d549051908152f35b5050346104e657816003193601126104e65760206000805160206162788339815191529161343c6149ae565b613444615121565b600160ff19600954161760095551338152a180f35b8383346104e657806003193601126104e6576134736144c6565b9060243561347f615121565b61349160ff60235460081c1615615024565b613499615165565b801515806135e7575b6134ab90615901565b600c946103e86134bc838854615551565b116135a457506001600160a01b038316926134d88415156150b2565b600b805491865b84811061350d57505083519283525060208201526000805160206163188339815191529190a2600160085580f35b61359f9089886000805160206161b88339815191528b61352b61555e565b885494613538868a6151bb565b60018a54018a5561354981546150fc565b9055848252808c602093601285522055600361356482614919565b500161357081546150fc565b905561357e6108a18661570a565b6108c861358a82614919565b508d805194859485528401528d830190614789565b6134df565b606490602084519162461bcd60e51b8352820152601d60248201527f4261746368206d696e742065786365656473206d617820737570706c790000006044820152fd5b50600a8111156134a2565b5050346104e65761152d610e059161360936614568565b9192519261361684614850565b86845261151d6115188433614b71565b9050346105b25760203660031901126105b25760209282913581526012845220549051908152f35b919050346105b257826003193601126105b2576136696149ae565b613671615165565b60235460101c6001600160a01b031680156136e857838080809347906136988215156160b0565b5af16136a2614dac565b50156136b15782600160085580f35b906020606492519162461bcd60e51b8352820152601160248201527015da5d1a191c985dd85b0819985a5b1959607a1b6044820152fd5b815162461bcd60e51b8152602081850152601860248201527715da5d1a191c985dc81859191c995cdcc81b9bdd081cd95d60421b6044820152606490fd5b919050346105b257826003193601126105b25760008051602061625883398151915291828452602092600a8452828520338652845260ff8386205416156137aa57847f886bf152398e89a7de17f229134a054c5448ada42007eaae5187b82753278be685856023549060ff8083161516809260ff191617602355519015158152a180f35b9092936137b633615e0d565b918351906137c38261486b565b6042825286820192606036853782511561391f576030845382519060019182101561390c5790607860218501536041915b8183116138a157505050613872576048613849938593613858936109c3975196879376020b1b1b2b9b9a1b7b73a3937b61d1030b1b1b7bab73a1604d1b8c8601526109738c8251928391603789019101614520565b01036028810185520183614886565b5193849362461bcd60e51b85528401526024830190614543565b606485878087519262461bcd60e51b845283015260248201526000805160206161388339815191526044820152fd5b909192600f811660108110156138f9576f181899199a1a9b1b9c1cb0b131b232b360811b901a6138d18587615dfc565b53881c9280156138e6576000190191906137f4565b634e487b7160e01b825260118952602482fd5b634e487b7160e01b835260328a52602483fd5b634e487b7160e01b815260328852602490fd5b634e487b7160e01b815260328752602490fd5b9050346105b25760203660031901126105b25761394d6144c6565b906139566149ae565b6001600160a01b0382169283156139b75750506023805462010000600160b01b03191660109290921b62010000600160b01b03169190911790557f7560c42213a1d729912e2864a115883b3e527ba2f5813ecc26188d5ea8bcf4038280a280f35b906020606492519162461bcd60e51b8352820152601760248201527643616e6e6f7420736574207a65726f206164647265737360481b6044820152fd5b839150346104e657826003193601126104e657613a0f6144dc565b90336001600160a01b03831603613a2b5790610e059135614938565b608490602085519162461bcd60e51b8352820152602f60248201527f416363657373436f6e74726f6c3a2063616e206f6e6c792072656e6f756e636560448201526e103937b632b9903337b91039b2b63360891b6064820152fd5b9050346105b257816003193601126105b2573590613aa26144dc565b90613aab6149ae565b828452600a60209081528185206001600160a01b039093168086529290528084205460ff1615613ad9578380f35b828452600a6020528084208285526020528320600160ff1982541617905533917f2f8788117e7eff1d82e926ec794901d17c78024a50270940304540a733656f0d8480a43880808380f35b5050346104e657816003193601126104e6579060609160ff601e541690613b49615b76565b91158015939084613ba4575b15613b6b57915b81519384526020840152820152f35b601b54601c54613b7b8183615551565b4210613b8957505091613b5c565b613b9e9250613b99904292615551565b6158f4565b91613b5c565b50601b544210613b55565b82843461054057602091826003193601126104e6576022843593613bd1615165565b613bdf60ff60235416615f09565b613beb610ec486614d8f565b613bf761167a86614a4d565b848452808052613c0c60ff8486205416615fef565b84845280805282842060ff19815416905560218152838381205533845252812091815b835480821015613cbb578290613c4583876144f2565b929054600393841b1c14613c63575050613c5e906150fc565b613c2f565b939492936000198101908111613ca857613c8c94959650610fac9291610f87610f9392866144f2565b33906000805160206161788339815191528380a3600160085580f35b634e487b7160e01b865260118752602486fd5b505091509150613c8c565b839150346104e657826003193601126104e6578035906024356001600160401b03811161104d57613cfa9036908301614603565b91613d036149ae565b613d0c84614d8f565b15613d9a5760ff600f541615613d5e5750613d587fdb97328c83f32485a3581bd960425f69a2e03d66bbfdef66cb9d290d07e0296493949561111b613d523686866148c4565b876153dc565b0390a280f35b606490602087519162461bcd60e51b83528201526016602482015275151bdad95b881b9bdd081c995d99585b1959081e595d60521b6044820152fd5b606490602087519162461bcd60e51b8352820152600f60248201526e125b9d985b1a59081d1bdad95b9259608a1b6044820152fd5b82843461054057816003193601126105405750601f5461271090613dfe906001600160601b0316602435615b63565b601e54925192839261077192049060081c6001600160a01b0316836145e8565b905082346105405760203660031901126105405750803590613e3e614f4b565b50601154821015613e595761077183612e97612e9185614919565b606490602084519162461bcd60e51b8352820152600d60248201526c092dcecc2d8d2c840d2dcc8caf609b1b6044820152fd5b82843461054057602036600319011261054057506105dc6020923561606e565b9050346105b25760203660031901126105b25781602093600192358152600a85522001549051908152f35b833461054057610e05613ee936614568565b91613ef76115188433614b71565b614c39565b5050346104e657816003193601126104e65760209060ff6023541690519015158152f35b9050346105b25760203660031901126105b25760209282913581526021845220549051908152f35b5050346104e657816003193601126104e657602354905160109190911c6001600160a01b03168152602090f35b5050346104e657816003193601126104e657602090601c549051908152f35b5050346104e657816003193601126104e6576020906011549051908152f35b9050346105b257816003193601126105b257613fcd6144c6565b6024359290916001600160a01b0391908280613fe887614a4d565b169416938085146140d4578033149081156140b5575b501561404d57848652602052842080546001600160a01b0319168317905561402583614a4d565b167f8c5be1e5ebec7d5bd14f71427d1e84f3dd0314c0f7b2291e5b200ac8c7c3b9258480a480f35b6020608492519162461bcd60e51b8352820152603d60248201527f4552433732313a20617070726f76652063616c6c6572206973206e6f7420746f60448201527f6b656e206f776e6572206f7220617070726f76656420666f7220616c6c0000006064820152fd5b90508652600560205281862033875260205260ff828720541638613ffe565b506020608492519162461bcd60e51b8352820152602160248201527f4552433732313a20617070726f76616c20746f2063757272656e74206f776e656044820152603960f91b6064820152fd5b5050346104e65760203660031901126104e65760209181906001600160a01b036141496144c6565b1681526022845220549051908152f35b8284346105405760203660031901126105405750612cd860209235614a70565b5050346104e657816003193601126104e65780519082805461419a81614660565b80855290600190818116908115612af557506001146141c55750505061075f82610771940383614886565b94508180526020948583205b8284106141ed57505050826107719461075f9282010194612a8a565b80548685018801529286019281016141d1565b5050346104e657806003193601126104e65761421a6144c6565b6001600160a01b031682526022602052808220805460243593908410156105405750602092614248916144f2565b91905490519160031b1c8152f35b8383346104e657806003193601126104e6576142706144c6565b926024356001600160601b0381169081900361104d5761428e6149ae565b6103e8811161435a576001600160a01b0385169182156143175750601e8054610100600160a81b03191660089690961b610100600160a81b031695909517909455601f80546001600160601b031916851790558151908152602081019390935290917f8039bd6e4e7dba001c8840eb2e118d9d131246faa7d0d04335f7305127ec0b109190a180f35b606490602085519162461bcd60e51b8352820152602060248201527f526563697069656e742063616e6e6f74206265207a65726f20616464726573736044820152fd5b506020606492519162461bcd60e51b8352820152601d60248201527f526f79616c7479206665652063616e6e6f7420657863656564203130250000006044820152fd5b5050346104e65760203660031901126104e65760207fb7ca260b52317206c15b3b393b9437b88d5a6495ef4cc56fdc039f65db3036e5916143dc6144b7565b6143e46149ae565b15159060ff196018541660ff83161760185551908152a180f35b8491346105b25760203660031901126105b2573563ffffffff60e01b81168091036105b2576020925063152a902d60e11b8114908115614440575b5015158152f35b637965db0b60e01b81149150811561445a575b5083614439565b632483248360e11b811491508115614474575b5083614453565b6380ac58cd60e01b8114915081156144a6575b8115614495575b508361446d565b6301ffc9a760e01b1490508361448e565b635b5e139f60e01b81149150614487565b60043590811515820361189457565b600435906001600160a01b038216820361189457565b602435906001600160a01b038216820361189457565b805482101561450a5760005260206000200190600090565b634e487b7160e01b600052603260045260246000fd5b60005b8381106145335750506000910152565b8181015183820152602001614523565b9060209161455c81518092818552858086019101614520565b601f01601f1916010190565b6060906003190112611894576001600160a01b0390600435828116810361189457916024359081168103611894579060443590565b6145e59160806145b6835160a0845260a0840190614543565b926020810151602084015260408101516040840152606081015160608401520151906080818403910152614543565b90565b6001600160a01b039091168152602081019190915260400190565b9181601f84011215611894578235916001600160401b038311611894576020838186019501011161189457565b9181601f84011215611894578235916001600160401b038311611894576020808501948460051b01011161189457565b90600182811c92168015614690575b602083101461467a57565b634e487b7160e01b600052602260045260246000fd5b91607f169161466f565b601054600092916146aa82614660565b90818152600192838116908160001461470457506001146146ca57505050565b9092935060106000526020928360002092846000945b8386106146f05750505050010190565b8054858701830152940193859082016146e0565b91935050602093945060ff191683830152151560051b010190565b600e546000929161472f82614660565b908181526001928381169081600014614704575060011461474f57505050565b90929350600e6000526020928360002092846000945b8386106147755750505050010190565b805485870183015294019385908201614765565b906000929180549161479a83614660565b9182825260019384811690816000146147fc57506001146147bc575b50505050565b90919394506000526020928360002092846000945b8386106147e85750505050010190388080806147b6565b8054858701830152940193859082016147d1565b9294505050602093945060ff191683830152151560051b010190388080806147b6565b60a081019081106001600160401b0382111761483a57604052565b634e487b7160e01b600052604160045260246000fd5b602081019081106001600160401b0382111761483a57604052565b608081019081106001600160401b0382111761483a57604052565b601f909101601f19168101906001600160401b0382119082101761483a57604052565b6001600160401b03811161483a57601f01601f191660200190565b9291926148d0826148a9565b916148de6040519384614886565b829481845281830111611894578281602093846000960137010152565b60809060031901126118945760043590602435906044359060643590565b60115481101561450a5760116000526005602060002091020190600090565b90600091808352600a602052604083209160018060a01b03169182845260205260ff60408420541661496957505050565b808352600a602052604083208284526020526040832060ff1981541690557ff6391f5c32d9c69d2a47ea670b442974b53935d1edc7fd64eb21e047a839171b339380a4565b6007546001600160a01b031633036149c257565b606460405162461bcd60e51b815260206004820152602060248201527f4f776e61626c653a2063616c6c6572206973206e6f7420746865206f776e65726044820152fd5b15614a0d57565b60405162461bcd60e51b8152602060048201526018602482015277115490cdcc8c4e881a5b9d985b1a59081d1bdad95b88125160421b6044820152606490fd5b6000908152600260205260409020546001600160a01b03166145e5811515614a06565b614a81614a7c82614d8f565b614a06565b6000908152600460205260409020546001600160a01b031690565b15614aa357565b60405162461bcd60e51b815260206004820152602d60248201527f4552433732313a2063616c6c6572206973206e6f7420746f6b656e206f776e6560448201526c1c881bdc88185c1c1c9bdd9959609a1b6064820152608490fd5b60809060208152603260208201527f4552433732313a207472616e7366657220746f206e6f6e20455243373231526560408201527131b2b4bb32b91034b6b83632b6b2b73a32b960711b60608201520190565b15614b5857565b60405162461bcd60e51b8152806109c360048201614afe565b906001600160a01b038080614b8584614a4d565b16931691838314938415614bb8575b508315614ba2575b50505090565b614bae91929350614a70565b1614388080614b9c565b909350600052600560205260406000208260005260205260ff604060002054169238614b94565b15614be657565b60405162461bcd60e51b815260206004820152602560248201527f4552433732313a207472616e736665722066726f6d20696e636f72726563742060448201526437bbb732b960d91b6064820152608490fd5b90614c6191614c4784614a4d565b6001600160a01b0393918416928492909183168414614bdf565b16918215614d3e5760009084825260209081805260409060ff8285205416614cfb57600080516020616238833981519152939291614cab868893614ca48b614a4d565b1614614bdf565b8784526004835280842080546001600160a01b03199081169091558685526003845281852080546000190190558285528185208054600101905588855260029093528320805490921617905580a4565b815162461bcd60e51b815260048101849052601c60248201527b21b0b73737ba103a3930b739b332b91039ba30b5b2b2103a37b5b2b760211b6044820152606490fd5b60405162461bcd60e51b8152602060048201526024808201527f4552433732313a207472616e7366657220746f20746865207a65726f206164646044820152637265737360e01b6064820152608490fd5b6000908152600260205260409020546001600160a01b0316151590565b3d15614dd7573d90614dbd826148a9565b91614dcb6040519384614886565b82523d6000602084013e565b606090565b9091600091803b15614ec757614e276020918493604051948580948193630a85bd0160e11b9a8b84523360048501528460248501526044840152608060648401526084830190614543565b03926001600160a01b03165af190829082614e7f575b5050614e7157614e4b614dac565b80519081614e6c5760405162461bcd60e51b8152806109c360048201614afe565b602001fd5b6001600160e01b0319161490565b909192506020813d8211614ebf575b81614e9b60209383614886565b810103126104e65751906001600160e01b0319821682036105405750903880614e3d565b3d9150614e8e565b50505050600190565b91926000929190813b15614f4157602091614f269185604051958680958194630a85bd0160e11b9b8c845233600485015260018060a01b0380951660248501526044840152608060648401526084830190614543565b0393165af190829082614e7f575050614e7157614e4b614dac565b5050505050600190565b60405190614f588261481f565b606060808382815260006020820152600060408201526000838201520152565b9060046080604051614f898161481f565b614fdd8195604051614fa681614f9f8185614789565b0382614886565b8352600181015460208401526002810154604084015260038101546060840152614fd66040518096819301614789565b0384614886565b0152565b15614fe857565b60405162461bcd60e51b8152602060048201526014602482015273151bdad95b88191bd95cc81b9bdd08195e1a5cdd60621b6044820152606490fd5b1561502b57565b60405162461bcd60e51b815260206004820152601a60248201527910dbdb9d1c9858dd08195b595c99d95b98de481cdd1bdc1c195960321b6044820152606490fd5b1561507457565b60405162461bcd60e51b815260206004820152601660248201527513585e1a5b5d5b481cdd5c1c1b1e481c995858da195960521b6044820152606490fd5b156150b957565b60405162461bcd60e51b815260206004820152601b60248201527a43616e6e6f74206d696e7420746f207a65726f206164647265737360281b6044820152606490fd5b600019811461510b5760010190565b634e487b7160e01b600052601160045260246000fd5b60ff6009541661512d57565b60405162461bcd60e51b815260206004820152601060248201526f14185d5cd8589b194e881c185d5cd95960821b6044820152606490fd5b600260085414615176576002600855565b60405162461bcd60e51b815260206004820152601f60248201527f5265656e7472616e637947756172643a207265656e7472616e742063616c6c006044820152606490fd5b906040918251926151cb84614850565b60008085526001600160a01b0383169182156152a6576151f36151ed86614d8f565b156152e9565b8482526020805260ff81832054166152645793809261526296949261152d9661521e6151ed85614d8f565b828252600360209081528183208054600101905584835260029052812080546001600160a01b031916831790556000805160206162388339815191528180a4614ddc565b565b5162461bcd60e51b815260206004820152601c60248201527b21b0b73737ba103a3930b739b332b91039ba30b5b2b2103a37b5b2b760211b6044820152606490fd5b5162461bcd60e51b815260206004820181905260248201527f4552433732313a206d696e7420746f20746865207a65726f20616464726573736044820152606490fd5b156152f057565b60405162461bcd60e51b815260206004820152601c60248201527b115490cdcc8c4e881d1bdad95b88185b1c9958591e481b5a5b9d195960221b6044820152606490fd5b601f8111615340575050565b600090600d825260208220906020601f850160051c8301941061537e575b601f0160051c01915b82811061537357505050565b818155600101615367565b909250829061535e565b90601f811161539657505050565b600091825260208220906020601f850160051c830194106153d2575b601f0160051c01915b8281106153c757505050565b8181556001016153bb565b90925082906153b2565b9190916153e881614d8f565b156154f5576000818152600660209081526040822085519193929091906001600160401b0382116154e15761542182611f008554614660565b8490601f831160011461546f57906000805160206162d8833981519152969783615464575b50508160011b916000199060031b1c19161790555b604051908152a1565b015190503880615446565b9196601f198816848452868420935b8181106154ca57509160019391896000805160206162d8833981519152999a94106154b1575b505050811b01905561545b565b015160001960f88460031b161c191690553880806154a4565b92938760018192878601518155019501930161547e565b634e487b7160e01b81526041600452602490fd5b60405162461bcd60e51b815260206004820152602e60248201527f45524337323155524953746f726167653a2055524920736574206f66206e6f6e60448201526d32bc34b9ba32b73a103a37b5b2b760911b6064820152608490fd5b9190820180921161510b57565b601454600b549060405191602083019182524260408401524460608401523360601b608084015260948301526094825260c082019180831060018060401b0384111761483a576127109260405251902080601455066000908190601154925b8383106156465750505060005b8181106156125760405162461bcd60e51b81526020600482015260196024820152784e6f2072617269747920746965727320617661696c61626c6560381b6044820152606490fd5b600361561d82614919565b500154600261562b83614919565b500154116156415761563c906150fc565b6155ca565b905090565b6156559060016117b685614919565b9182821061566d575b615667906150fc565b916155bd565b600361567882614919565b500154600261568683614919565b500154111561565e579250505090565b600d54600092916156a682614660565b916001908181169081156156f757506001146156c157505050565b9091929350600d60005260209081600020906000915b8583106156e657505050500190565b8054858401529183019181016156d7565b60ff191683525050811515909102019150565b60ff600f541615615761576145e56005615725602093615792565b604051938491615746615739838501615696565b9182815194859201614520565b0164173539b7b760d91b815203601a19810184520182614886565b506040516145e581614f9f8161469a565b811561577c570490565b634e487b7160e01b600052601260045260246000fd5b6000908072184f03e93ff9f4daa797ed6e38ed64bf6a1f0160401b808210156158e6575b506904ee2d6d415b85acef8160201b808310156158d7575b50662386f26fc10000808310156158c8575b506305f5e100808310156158b9575b50612710808310156158aa575b50606482101561589a575b600a80921015615890575b60019081602181860195615825876148a9565b966158336040519889614886565b808852615842601f19916148a9565b01366020890137860101905b61585a575b5050505090565b600019019083906f181899199a1a9b1b9c1cb0b131b232b360811b8282061a83530491821561588b5791908261584e565b615853565b9160010191615812565b9190606460029104910191615807565b600491939204910191386157fc565b600891939204910191386157ef565b601091939204910191386157e0565b602091939204910191386157ce565b6040935081049150386157b6565b9190820391821161510b57565b1561590857565b60405162461bcd60e51b815260206004820152602560248201527f496e76616c6964207175616e746974793a20312d313020746f6b656e7320616c6044820152641b1bddd95960da1b6064820152608490fd5b61596481614d8f565b156159c65760ff600f54161561576157615980614a7c82614d8f565b806000526006602052614f9f6159a0604060002060405192838092614789565b60006040516159ae81614850565b52805161564157506145e56005615725602093615792565b606460405162461bcd60e51b815260206004820152602060248201527f55524920717565727920666f72206e6f6e206578697374696e6720746f6b656e6044820152fd5b90918060409360208452816020850152848401376000828201840152601f01601f1916010190565b15615a3957565b60405162461bcd60e51b8152602060048201526015602482015274456d7074792061646472657373657320617272617960581b6044820152606490fd5b919081101561450a5760051b0190565b356001600160a01b03811681036118945790565b15615aa157565b60405162461bcd60e51b815260206004820152601f60248201527f5175616e74697479206d7573742062652067726561746572207468616e2030006044820152606490fd5b15615aed57565b60405162461bcd60e51b815260206004820152601260248201527145786365656473206d617820737570706c7960701b6044820152606490fd5b6001600160a01b031660009081526015602052604090205460ff1615615b5e576145e56017546016602052604060002054906158f4565b600090565b8181029291811591840414171561510b57565b60ff601e541615615c0f57601b54804210615c0857615b9590426158f4565b601c549081811015615c0057615bb890615bb2601d548092615772565b92615772565b908015615bf857615bec90615be660195491615be0601a5495615bdb87866158f4565b615772565b90615b63565b906158f4565b90808210615641575090565b505060195490565b5050601a5490565b5060195490565b60195490565b15615c1c57565b60405162461bcd60e51b815260206004820152602d60248201527f5374617274207072696365206d75737420626520686967686572207468616e2060448201526c74686520656e6420707269636560981b6064820152608490fd5b15615c7e57565b60405162461bcd60e51b815260206004820152601f60248201527f4475726174696f6e206d7573742062652067726561746572207468616e2030006044820152606490fd5b15615cca57565b60405162461bcd60e51b815260206004820152601b60248201527a125b9d985b1a59081c1c9a58d948191c9bdc081a5b9d195c9d985b602a1b6044820152606490fd5b15615d1457565b60405162461bcd60e51b815260206004820152601260248201527141756374696f6e206e6f742061637469766560701b6044820152606490fd5b6040919493926060820195825260208201520152565b60ff601e541615615d8457615d7e601b54601c5490615551565b42101590565b600190565b60ff601e5416158015615df1575b615b5e57601b54615da881426158f4565b615db5601d548092615772565b906001820180921161510b57615dd1615dd791615de193615b63565b83615551565b91601c5490615551565b811015615deb5790565b50600090565b50601b544210615d97565b90815181101561450a570160200190565b60405190606082016001600160401b0381118382101761483a57604052602a825260208201604036823782511561450a5760309053815160019081101561450a57607860218401536029905b808211615e9b575050615e695790565b606460405162461bcd60e51b815260206004820152602060248201526000805160206161388339815191526044820152fd5b9091600f81166010811015615ef4576f181899199a1a9b1b9c1cb0b131b232b360811b901a615eca8486615dfc565b5360041c918015615edf576000190190615e59565b60246000634e487b7160e01b81526011600452fd5b60246000634e487b7160e01b81526032600452fd5b15615f1057565b60405162461bcd60e51b815260206004820152601360248201527214dd185ada5b99c81b9bdd08195b98589b1959606a1b6044820152606490fd5b15615f5257565b60405162461bcd60e51b815260206004820152600f60248201526e2737ba103a37b5b2b71037bbb732b960891b6044820152606490fd5b15615f9057565b60405162461bcd60e51b8152602060048201526014602482015273151bdad95b88185b1c9958591e481cdd185ad95960621b6044820152606490fd5b80549190600160401b83101561483a5782610f93916001615262950181556144f2565b15615ff657565b60405162461bcd60e51b815260206004820152601060248201526f151bdad95b881b9bdd081cdd185ad95960821b6044820152606490fd5b8054908115616058576000199182019161604883836144f2565b909182549160031b1b1916905555565b634e487b7160e01b600052603160045260246000fd5b6000526020805260ff6040600020541615801561609e575b615b5e5760216020526145e5604060002054426158f4565b50602160205260406000205415616086565b156160b757565b60405162461bcd60e51b81526020600482015260146024820152734e6f2066756e647320746f20776974686472617760601b6044820152606490fd5b156160fa57565b60405162461bcd60e51b8152602060048201526015602482015274456d70747920746f6b656e2049447320617272617960581b6044820152606490fdfe537472696e67733a20686578206c656e67746820696e73756666696369656e745db9ee0a495bf2e6ff9c91a7834c1ba4fdd244a5e8aa4e537bd38aeae4b073aa0bd399ae365ab45a4803bca8e95718b4f1ff0915b48493d790b2525603c0a09205b88d23d9a60b7924fccc370e1e0c1ccf49989e3b2968cafaf7db7fc13bd13ffd8041fd7e4d7047a13bde415402e7278ad32792f9bdf46102a274181893cc948be0079c531659141344cd1fd0a4f28419497f9722a3daafe3b4186f6b6457e09f2df0fed2c77648de5860a4cc508cd0818c85b8b8a1ab4ceeef8d981c8956a6a67fa1d1d89c2d62b3f7fda41a9e2958cf2b076098afd5156de632e082b06ef2ddf252ad1be2c89b69c2b068fc378daa952ba7f163c4a11628f55a4df523b3efa49807205ce4d355092ef5a8a18f56e8913cf4a201fbe287825b095693c2177562e78cea01bee320cd4e420270b5ea74000d11b0c9f74754ebdbfc544b05a2586741b2fc379fad678116fe3d4d4b9a1a184ab53ba36b86ad0fa66340b1ab41ad7d2f41d944235f7c99290ca6f149e25aa6deb5397189be3882b8ddf71c51bbecf8e1a15aba9398e019f0b49df1a4fde98ee17ae345cb5f6b5e2c27f5033e8ce7905d981207a7d0b6c62cc46ab0be2a076d0298e4a86d0ab79882dbd01ac3737859f9fb6d992d2aee0ed338bb4c504a17fd3f67ae91a3135bc2ef947e308c41b2f93f9a76c1bf3444d22400a00cb9fe990e6abe9dbb333fda48859cfee864543da264697066735822122008105ee0e6cda490298e007f049785b4c0f3b210e36a4a494fcaac2b1c59fdb464736f6c634300081300332f8788117e7eff1d82e926ec794901d17c78024a50270940304540a733656f0d31ecc21a745e3968a04e9570e4425bc18fa8019c68028196b546d1669c200c68290decd9548b62a8d60345a988386fc84ba6bc95484008f6362f93160ef3e563d7b6990105719101dabeb77144f2a3385c8033acd3af97e9423a695e81ad1eb5b10e2d527612073b26eecdfd717e6a320cf44b4afac2b0732d9fcbe2b7fa0cf6","opcodes":"PUSH1 0x80 DUP1 PUSH1 0x40 MSTORE CALLVALUE PUSH3 0x1167 JUMPI PUSH3 0x79BB DUP1 CODESIZE SUB DUP1 SWAP2 PUSH3 0x20 DUP3 DUP6 PUSH3 0x11A4 JUMP JUMPDEST DUP4 CODECOPY DUP2 ADD SWAP1 PUSH1 0xE0 DUP2 DUP4 SUB SLT PUSH3 0x1167 JUMPI DUP1 MLOAD PUSH1 0x1 PUSH1 0x1 PUSH1 0x40 SHL SUB DUP2 GT PUSH3 0x1167 JUMPI DUP3 PUSH3 0x4F SWAP2 DUP4 ADD PUSH3 0x11C8 JUMP JUMPDEST PUSH1 0x20 DUP3 ADD MLOAD PUSH1 0x1 PUSH1 0x1 PUSH1 0x40 SHL SUB DUP2 GT PUSH3 0x1167 JUMPI DUP4 PUSH3 0x71 SWAP2 DUP5 ADD PUSH3 0x11C8 JUMP JUMPDEST PUSH1 0x40 DUP4 ADD MLOAD SWAP1 SWAP3 SWAP1 PUSH1 0x1 PUSH1 0x1 PUSH1 0x40 SHL SUB DUP2 GT PUSH3 0x1167 JUMPI DUP5 PUSH3 0x96 SWAP2 DUP4 ADD PUSH3 0x11C8 JUMP JUMPDEST PUSH1 0x60 DUP3 ADD MLOAD PUSH1 0x1 PUSH1 0x1 PUSH1 0x40 SHL SUB DUP2 GT PUSH3 0x1167 JUMPI DUP6 PUSH3 0xB8 SWAP2 DUP5 ADD PUSH3 0x11C8 JUMP JUMPDEST PUSH1 0x80 DUP4 ADD MLOAD SWAP1 SWAP6 PUSH1 0x1 PUSH1 0x1 PUSH1 0x40 SHL SUB DUP3 GT PUSH3 0x1167 JUMPI PUSH3 0xDB SWAP2 DUP5 ADD PUSH3 0x11C8 JUMP JUMPDEST SWAP4 PUSH3 0xF8 PUSH1 0xC0 PUSH3 0xF0 PUSH1 0xA0 DUP7 ADD PUSH3 0x123F JUMP JUMPDEST SWAP5 ADD PUSH3 0x123F JUMP JUMPDEST DUP5 MLOAD SWAP1 SWAP5 PUSH1 0x1 PUSH1 0x1 PUSH1 0x40 SHL SUB DUP3 GT PUSH3 0x9F6 JUMPI PUSH1 0x0 SLOAD SWAP1 PUSH1 0x1 DUP3 DUP2 SHR SWAP3 AND DUP1 ISZERO PUSH3 0x115C JUMPI JUMPDEST PUSH1 0x20 DUP4 LT EQ PUSH3 0xAEC JUMPI DUP2 PUSH1 0x1F DUP5 SWAP4 GT PUSH3 0x10FC JUMPI JUMPDEST POP PUSH1 0x20 SWAP1 PUSH1 0x1F DUP4 GT PUSH1 0x1 EQ PUSH3 0x1080 JUMPI PUSH1 0x0 SWAP3 PUSH3 0x1074 JUMPI JUMPDEST POP POP DUP2 PUSH1 0x1 SHL SWAP2 PUSH1 0x0 NOT SWAP1 PUSH1 0x3 SHL SHR NOT AND OR PUSH1 0x0 SSTORE JUMPDEST DUP1 MLOAD SWAP1 PUSH1 0x1 PUSH1 0x1 PUSH1 0x40 SHL SUB DUP3 GT PUSH3 0x9F6 JUMPI PUSH1 0x1 SLOAD SWAP1 PUSH1 0x1 DUP3 DUP2 SHR SWAP3 AND DUP1 ISZERO PUSH3 0x1069 JUMPI JUMPDEST PUSH1 0x20 DUP4 LT EQ PUSH3 0xAEC JUMPI DUP2 PUSH1 0x1F DUP5 SWAP4 GT PUSH3 0x1005 JUMPI JUMPDEST POP PUSH1 0x20 SWAP1 PUSH1 0x1F DUP4 GT PUSH1 0x1 EQ PUSH3 0xF87 JUMPI PUSH1 0x0 SWAP3 PUSH3 0xF7B JUMPI JUMPDEST POP POP DUP2 PUSH1 0x1 SHL SWAP2 PUSH1 0x0 NOT SWAP1 PUSH1 0x3 SHL SHR NOT AND OR PUSH1 0x1 SSTORE JUMPDEST PUSH1 0x7 DUP1 SLOAD CALLER PUSH1 0x1 PUSH1 0x1 PUSH1 0xA0 SHL SUB NOT DUP3 AND DUP2 OR SWAP1 SWAP3 SSTORE PUSH1 0x40 MLOAD PUSH1 0x1 PUSH1 0x1 PUSH1 0xA0 SHL SUB SWAP3 SWAP1 SWAP2 DUP4 AND PUSH32 0x8BE0079C531659141344CD1FD0A4F28419497F9722A3DAAFE3B4186F6B6457E0 PUSH1 0x0 DUP1 LOG3 PUSH1 0x1 PUSH1 0x8 SSTORE PUSH1 0xFF NOT PUSH1 0x9 SLOAD AND PUSH1 0x9 SSTORE PUSH1 0x0 PUSH1 0xC SSTORE PUSH1 0xFF NOT PUSH1 0xF SLOAD AND PUSH1 0xF SSTORE PUSH1 0x3 PUSH1 0x17 SSTORE PUSH1 0xFF NOT PUSH1 0x18 SLOAD AND PUSH1 0x18 SSTORE PUSH8 0xDE0B6B3A7640000 PUSH1 0x19 SSTORE PUSH8 0x16345785D8A0000 PUSH1 0x1A SSTORE PUSH2 0xE10 PUSH1 0x1C SSTORE PUSH2 0x12C PUSH1 0x1D SSTORE PUSH1 0xFF NOT PUSH1 0x1E SLOAD AND PUSH1 0x1E SSTORE PUSH2 0x2EE PUSH1 0x1 DUP1 PUSH1 0x60 SHL SUB NOT PUSH1 0x1F SLOAD AND OR PUSH1 0x1F SSTORE PUSH2 0xFFFF NOT PUSH1 0x23 SLOAD AND PUSH1 0x23 SSTORE DUP2 DUP5 AND ISZERO PUSH3 0xF28 JUMPI POP DUP4 AND ISZERO PUSH3 0xED3 JUMPI DUP1 MLOAD SWAP1 PUSH1 0x1 PUSH1 0x1 PUSH1 0x40 SHL SUB DUP3 GT PUSH3 0x9F6 JUMPI PUSH1 0xD SLOAD SWAP1 PUSH1 0x1 DUP3 DUP2 SHR SWAP3 AND DUP1 ISZERO PUSH3 0xEC8 JUMPI JUMPDEST PUSH1 0x20 DUP4 LT EQ PUSH3 0xAEC JUMPI DUP2 PUSH1 0x1F DUP5 SWAP4 GT PUSH3 0xE67 JUMPI JUMPDEST POP PUSH1 0x20 SWAP1 PUSH1 0x1F DUP4 GT PUSH1 0x1 EQ PUSH3 0xDE9 JUMPI PUSH1 0x0 SWAP3 PUSH3 0xDDD JUMPI JUMPDEST POP POP DUP2 PUSH1 0x1 SHL SWAP2 PUSH1 0x0 NOT SWAP1 PUSH1 0x3 SHL SHR NOT AND OR PUSH1 0xD SSTORE JUMPDEST DUP4 MLOAD PUSH1 0x1 PUSH1 0x1 PUSH1 0x40 SHL SUB DUP2 GT PUSH3 0x9F6 JUMPI PUSH1 0xE SLOAD PUSH1 0x1 DUP2 DUP2 SHR SWAP2 AND DUP1 ISZERO PUSH3 0xDD2 JUMPI JUMPDEST PUSH1 0x20 DUP3 LT EQ PUSH3 0xAEC JUMPI PUSH1 0x1F DUP2 GT PUSH3 0xD6C JUMPI JUMPDEST POP PUSH1 0x20 PUSH1 0x1F DUP3 GT PUSH1 0x1 EQ PUSH3 0xCFC JUMPI DUP2 SWAP3 SWAP4 SWAP5 SWAP6 PUSH1 0x0 SWAP3 PUSH3 0xCF0 JUMPI JUMPDEST POP POP DUP2 PUSH1 0x1 SHL SWAP2 PUSH1 0x0 NOT SWAP1 PUSH1 0x3 SHL SHR NOT AND OR PUSH1 0xE SSTORE JUMPDEST DUP3 MLOAD PUSH1 0x1 PUSH1 0x1 PUSH1 0x40 SHL SUB DUP2 GT PUSH3 0x9F6 JUMPI PUSH1 0x10 SLOAD PUSH1 0x1 DUP2 DUP2 SHR SWAP2 AND DUP1 ISZERO PUSH3 0xCE5 JUMPI JUMPDEST PUSH1 0x20 DUP3 LT EQ PUSH3 0xAEC JUMPI PUSH1 0x1F DUP2 GT PUSH3 0xC7F JUMPI JUMPDEST POP PUSH1 0x20 PUSH1 0x1F DUP3 GT PUSH1 0x1 EQ PUSH3 0xC10 JUMPI DUP2 SWAP3 SWAP4 SWAP5 PUSH1 0x0 SWAP3 PUSH3 0xC04 JUMPI JUMPDEST POP POP DUP2 PUSH1 0x1 SHL SWAP2 PUSH1 0x0 NOT SWAP1 PUSH1 0x3 SHL SHR NOT AND OR PUSH1 0x10 SSTORE JUMPDEST PUSH1 0x1E DUP1 SLOAD PUSH2 0x100 PUSH1 0x1 PUSH1 0xA8 SHL SUB NOT AND PUSH1 0x8 SWAP3 SWAP1 SWAP3 SHL PUSH2 0x100 PUSH1 0x1 PUSH1 0xA8 SHL SUB AND SWAP2 SWAP1 SWAP2 OR SWAP1 SSTORE PUSH1 0x23 DUP1 SLOAD PUSH3 0x10000 PUSH1 0x1 PUSH1 0xB0 SHL SUB NOT AND PUSH1 0x10 SWAP3 SWAP1 SWAP3 SHL PUSH3 0x10000 PUSH1 0x1 PUSH1 0xB0 SHL SUB AND SWAP2 SWAP1 SWAP2 OR SWAP1 SSTORE PUSH1 0xB DUP1 SLOAD PUSH1 0x1 ADD SWAP1 SSTORE PUSH1 0x40 MLOAD PUSH1 0x0 SWAP1 PUSH1 0x26 SWAP1 PUSH3 0x448 DUP2 PUSH3 0x116C JUMP JUMPDEST PUSH3 0x4B6 PUSH1 0x40 MLOAD SWAP2 PUSH3 0x45B DUP4 PUSH3 0x1188 JUMP JUMPDEST PUSH1 0x6 DUP4 MSTORE PUSH6 0x21B7B6B6B7B7 PUSH1 0xD1 SHL SWAP3 DUP4 PUSH1 0x20 DUP3 ADD MSTORE DUP2 MSTORE PUSH2 0x1770 PUSH1 0x20 DUP3 ADD MSTORE PUSH2 0x258 PUSH1 0x40 DUP3 ADD MSTORE DUP5 PUSH1 0x60 DUP3 ADD MSTORE PUSH1 0x40 MLOAD PUSH3 0x496 DUP2 PUSH3 0x1188 JUMP JUMPDEST PUSH1 0x8 DUP2 MSTORE PUSH8 0x14DD185B99185C99 PUSH1 0xC2 SHL PUSH1 0x20 DUP3 ADD MSTORE PUSH1 0x80 DUP3 ADD MSTORE PUSH3 0x1254 JUMP JUMPDEST PUSH1 0x40 MLOAD SWAP1 DUP2 MSTORE PUSH1 0x13 PUSH1 0x6 DUP3 ADD MSTORE KECCAK256 SSTORE PUSH1 0x1 PUSH1 0x24 PUSH1 0x40 MLOAD PUSH3 0x4D7 DUP2 PUSH3 0x116C JUMP JUMPDEST PUSH3 0x543 PUSH1 0x40 MLOAD SWAP2 PUSH3 0x4EA DUP4 PUSH3 0x1188 JUMP JUMPDEST PUSH1 0x4 DUP4 MSTORE PUSH4 0x52617265 PUSH1 0xE0 SHL SWAP3 DUP4 PUSH1 0x20 DUP3 ADD MSTORE DUP2 MSTORE PUSH2 0x9C4 PUSH1 0x20 DUP3 ADD MSTORE PUSH1 0xFA PUSH1 0x40 DUP3 ADD MSTORE PUSH1 0x0 PUSH1 0x60 DUP3 ADD MSTORE PUSH1 0x40 MLOAD PUSH3 0x523 DUP2 PUSH3 0x1188 JUMP JUMPDEST PUSH1 0x8 DUP2 MSTORE PUSH8 0x115B9A185B98D959 PUSH1 0xC2 SHL PUSH1 0x20 DUP3 ADD MSTORE PUSH1 0x80 DUP3 ADD MSTORE PUSH3 0x1254 JUMP JUMPDEST PUSH1 0x40 MLOAD SWAP1 DUP2 MSTORE PUSH1 0x13 PUSH1 0x4 DUP3 ADD MSTORE KECCAK256 SSTORE PUSH1 0x2 PUSH1 0x24 PUSH1 0x40 MLOAD PUSH3 0x564 DUP2 PUSH3 0x116C JUMP JUMPDEST PUSH3 0x5B7 PUSH1 0x40 MLOAD SWAP2 PUSH3 0x577 DUP4 PUSH3 0x1188 JUMP JUMPDEST PUSH1 0x4 DUP4 MSTORE PUSH4 0x45706963 PUSH1 0xE0 SHL SWAP3 DUP4 PUSH1 0x20 DUP3 ADD MSTORE DUP2 MSTORE PUSH2 0x4B0 PUSH1 0x20 DUP3 ADD MSTORE PUSH1 0x78 PUSH1 0x40 DUP3 ADD MSTORE PUSH1 0x0 PUSH1 0x60 DUP3 ADD MSTORE PUSH3 0x5AC PUSH3 0x1566 JUMP JUMPDEST PUSH1 0x80 DUP3 ADD MSTORE PUSH3 0x1254 JUMP JUMPDEST PUSH1 0x40 MLOAD SWAP1 DUP2 MSTORE PUSH1 0x13 PUSH1 0x4 DUP3 ADD MSTORE KECCAK256 SSTORE PUSH1 0x40 MLOAD PUSH3 0x5D4 DUP2 PUSH3 0x116C JUMP JUMPDEST PUSH3 0x5DE PUSH3 0x1566 JUMP JUMPDEST DUP2 MSTORE PUSH2 0x12C PUSH1 0x20 DUP3 ADD MSTORE PUSH1 0x1E PUSH1 0x40 DUP3 ADD MSTORE PUSH1 0x0 PUSH1 0x60 DUP3 ADD MSTORE PUSH1 0x40 MLOAD PUSH3 0x604 DUP2 PUSH3 0x1188 JUMP JUMPDEST PUSH1 0x8 DUP2 MSTORE PUSH8 0x135E5D1A1A58D85B PUSH1 0xC2 SHL PUSH1 0x20 DUP3 ADD MSTORE PUSH1 0x80 DUP3 ADD MSTORE PUSH1 0x11 SLOAD PUSH9 0x10000000000000000 DUP2 LT ISZERO PUSH3 0x9F6 JUMPI PUSH1 0x1 DUP2 ADD DUP1 PUSH1 0x11 SSTORE DUP2 LT ISZERO PUSH3 0xBEE JUMPI PUSH1 0x11 PUSH1 0x0 MSTORE DUP2 MLOAD DUP1 MLOAD SWAP1 SWAP3 PUSH1 0x0 DUP1 MLOAD PUSH1 0x20 PUSH3 0x793B DUP4 CODECOPY DUP2 MLOAD SWAP2 MSTORE SWAP2 PUSH1 0x1 PUSH1 0x1 PUSH1 0x40 SHL SUB DUP2 GT PUSH3 0x9F6 JUMPI PUSH1 0x5 DUP5 MUL DUP4 ADD SLOAD PUSH1 0x1 DUP2 DUP2 SHR SWAP2 AND DUP1 ISZERO PUSH3 0xBE3 JUMPI JUMPDEST PUSH1 0x20 DUP3 LT EQ PUSH3 0xAEC JUMPI PUSH1 0x1F DUP2 GT PUSH3 0xB95 JUMPI JUMPDEST POP PUSH1 0x20 PUSH1 0x1F DUP3 GT PUSH1 0x1 EQ PUSH3 0xB19 JUMPI DUP2 SWAP1 PUSH1 0x80 SWAP5 SWAP6 SWAP7 PUSH1 0x0 SWAP3 PUSH3 0xB0D JUMPI JUMPDEST POP POP DUP2 PUSH1 0x1 SHL SWAP2 PUSH1 0x0 NOT SWAP1 PUSH1 0x3 SHL SHR NOT AND OR PUSH1 0x5 DUP6 MUL DUP5 ADD SSTORE JUMPDEST PUSH1 0x20 DUP2 ADD MLOAD PUSH1 0x5 DUP6 MUL DUP5 ADD PUSH1 0x1 DUP2 ADD SWAP2 SWAP1 SWAP2 SSTORE PUSH1 0x40 DUP3 ADD MLOAD PUSH1 0x2 DUP3 ADD SSTORE PUSH1 0x60 DUP3 ADD MLOAD PUSH1 0x3 SWAP1 SWAP2 ADD SSTORE ADD MLOAD DUP1 MLOAD SWAP1 PUSH1 0x1 PUSH1 0x1 PUSH1 0x40 SHL SUB DUP3 GT PUSH3 0x9F6 JUMPI PUSH1 0x4 PUSH1 0x5 DUP6 MUL DUP5 ADD ADD SLOAD PUSH1 0x1 DUP2 DUP2 SHR SWAP2 AND DUP1 ISZERO PUSH3 0xB02 JUMPI JUMPDEST PUSH1 0x20 DUP3 LT EQ PUSH3 0xAEC JUMPI PUSH1 0x1F DUP2 GT PUSH3 0xA97 JUMPI JUMPDEST POP PUSH1 0x20 SWAP1 PUSH1 0x1F DUP4 GT PUSH1 0x1 EQ PUSH3 0xA18 JUMPI SWAP2 DUP1 PUSH1 0x5 SWAP3 PUSH1 0x4 SWAP6 SWAP5 PUSH1 0x0 SWAP3 PUSH3 0xA0C JUMPI JUMPDEST POP POP DUP2 PUSH1 0x1 SHL SWAP2 PUSH1 0x0 NOT SWAP1 PUSH1 0x3 SHL SHR NOT AND OR SWAP4 MUL ADD ADD SSTORE JUMPDEST PUSH1 0x3 PUSH1 0x29 PUSH1 0x40 MLOAD PUSH9 0x4C6567656E64617279 PUSH1 0xB8 SHL DUP2 MSTORE PUSH1 0x13 PUSH1 0x9 DUP3 ADD MSTORE KECCAK256 SSTORE PUSH1 0x40 MLOAD PUSH1 0x20 DUP2 ADD TIMESTAMP DUP2 MSTORE PREVRANDAO PUSH1 0x40 DUP4 ADD MSTORE CALLER PUSH1 0x60 SHL PUSH1 0x60 DUP4 ADD MSTORE PUSH1 0x54 DUP3 MSTORE PUSH1 0x80 DUP3 ADD SWAP2 DUP1 DUP4 LT PUSH1 0x1 DUP1 PUSH1 0x40 SHL SUB DUP5 GT OR PUSH3 0x9F6 JUMPI PUSH1 0x40 DUP4 DUP2 MSTORE SWAP1 MLOAD SWAP1 SWAP2 KECCAK256 PUSH1 0x14 SSTORE CALLER PUSH1 0x0 SWAP1 DUP2 MSTORE PUSH32 0x13DA86008BA1C6922DAEE3E07DB95305EF49EBCED9F5467A0B8613FCC6B343E3 PUSH1 0x20 MSTORE KECCAK256 SLOAD PUSH1 0xA SWAP1 PUSH1 0xFF AND ISZERO PUSH3 0x9B5 JUMPI JUMPDEST PUSH32 0xA49807205CE4D355092EF5A8A18F56E8913CF4A201FBE287825B095693C21775 DUP1 PUSH1 0x0 MSTORE DUP2 PUSH1 0x20 MSTORE PUSH1 0x40 PUSH1 0x0 KECCAK256 CALLER PUSH1 0x0 MSTORE PUSH1 0x20 MSTORE PUSH1 0xFF PUSH1 0x40 PUSH1 0x0 KECCAK256 SLOAD AND ISZERO PUSH3 0x972 JUMPI JUMPDEST POP PUSH32 0x9F2DF0FED2C77648DE5860A4CC508CD0818C85B8B8A1AB4CEEEF8D981C8956A6 DUP1 PUSH1 0x0 MSTORE DUP2 PUSH1 0x20 MSTORE PUSH1 0x40 PUSH1 0x0 KECCAK256 CALLER PUSH1 0x0 MSTORE PUSH1 0x20 MSTORE PUSH1 0xFF PUSH1 0x40 PUSH1 0x0 KECCAK256 SLOAD AND ISZERO PUSH3 0x92F JUMPI JUMPDEST POP PUSH32 0xF18246D2E788C2A885EC6AEEE43FC7C89077B8B7A1E52E99F27F5889E429E2F5 SWAP1 DUP2 PUSH1 0x0 MSTORE DUP1 PUSH1 0x20 MSTORE PUSH1 0x40 PUSH1 0x0 KECCAK256 CALLER PUSH1 0x0 MSTORE PUSH1 0x20 MSTORE PUSH1 0xFF PUSH1 0x40 PUSH1 0x0 KECCAK256 SLOAD AND ISZERO PUSH3 0x8EC JUMPI JUMPDEST PUSH2 0x638D DUP4 DUP2 PUSH3 0x158E DUP3 CODECOPY RETURN JUMPDEST DUP2 PUSH1 0x0 MSTORE PUSH1 0x20 MSTORE PUSH1 0x40 PUSH1 0x0 KECCAK256 CALLER PUSH1 0x0 MSTORE PUSH1 0x20 MSTORE PUSH1 0x40 PUSH1 0x0 KECCAK256 PUSH1 0x1 PUSH1 0xFF NOT DUP3 SLOAD AND OR SWAP1 SSTORE CALLER SWAP1 CALLER SWAP1 PUSH1 0x0 DUP1 MLOAD PUSH1 0x20 PUSH3 0x791B DUP4 CODECOPY DUP2 MLOAD SWAP2 MSTORE PUSH1 0x0 DUP1 LOG4 CODESIZE DUP1 PUSH3 0x8DF JUMP JUMPDEST DUP1 PUSH1 0x0 MSTORE DUP2 PUSH1 0x20 MSTORE PUSH1 0x40 PUSH1 0x0 KECCAK256 CALLER PUSH1 0x0 MSTORE PUSH1 0x20 MSTORE PUSH1 0x40 PUSH1 0x0 KECCAK256 PUSH1 0x1 PUSH1 0xFF NOT DUP3 SLOAD AND OR SWAP1 SSTORE CALLER SWAP1 CALLER SWAP1 PUSH1 0x0 DUP1 MLOAD PUSH1 0x20 PUSH3 0x791B DUP4 CODECOPY DUP2 MLOAD SWAP2 MSTORE PUSH1 0x0 DUP1 LOG4 CODESIZE PUSH3 0x898 JUMP JUMPDEST DUP1 PUSH1 0x0 MSTORE DUP2 PUSH1 0x20 MSTORE PUSH1 0x40 PUSH1 0x0 KECCAK256 CALLER PUSH1 0x0 MSTORE PUSH1 0x20 MSTORE PUSH1 0x40 PUSH1 0x0 KECCAK256 PUSH1 0x1 PUSH1 0xFF NOT DUP3 SLOAD AND OR SWAP1 SSTORE CALLER SWAP1 CALLER SWAP1 PUSH1 0x0 DUP1 MLOAD PUSH1 0x20 PUSH3 0x791B DUP4 CODECOPY DUP2 MLOAD SWAP2 MSTORE PUSH1 0x0 DUP1 LOG4 CODESIZE PUSH3 0x852 JUMP JUMPDEST PUSH1 0x0 DUP1 MSTORE DUP1 PUSH1 0x20 MSTORE PUSH1 0x40 PUSH1 0x0 KECCAK256 CALLER PUSH1 0x0 MSTORE PUSH1 0x20 MSTORE PUSH1 0x40 PUSH1 0x0 KECCAK256 PUSH1 0x1 PUSH1 0xFF NOT DUP3 SLOAD AND OR SWAP1 SSTORE CALLER CALLER PUSH1 0x0 PUSH1 0x0 DUP1 MLOAD PUSH1 0x20 PUSH3 0x791B DUP4 CODECOPY DUP2 MLOAD SWAP2 MSTORE DUP2 DUP1 LOG4 PUSH3 0x80D JUMP JUMPDEST PUSH4 0x4E487B71 PUSH1 0xE0 SHL PUSH1 0x0 MSTORE PUSH1 0x41 PUSH1 0x4 MSTORE PUSH1 0x24 PUSH1 0x0 REVERT JUMPDEST ADD MLOAD SWAP1 POP CODESIZE DUP1 PUSH3 0x75C JUMP JUMPDEST SWAP1 PUSH1 0x4 PUSH1 0x5 DUP7 MUL DUP6 ADD ADD PUSH1 0x0 MSTORE PUSH1 0x20 PUSH1 0x0 KECCAK256 SWAP2 PUSH1 0x0 JUMPDEST PUSH1 0x1F NOT DUP6 AND DUP2 LT PUSH3 0xA7E JUMPI POP SWAP3 PUSH1 0x5 SWAP3 PUSH1 0x1 SWAP3 PUSH1 0x4 SWAP7 SWAP6 DUP4 PUSH1 0x1F NOT DUP2 AND LT PUSH3 0xA64 JUMPI JUMPDEST POP POP POP DUP2 SHL ADD SWAP4 MUL ADD ADD SSTORE PUSH3 0x774 JUMP JUMPDEST ADD MLOAD PUSH1 0x0 NOT PUSH1 0xF8 DUP5 PUSH1 0x3 SHL AND SHR NOT AND SWAP1 SSTORE CODESIZE DUP1 DUP1 PUSH3 0xA53 JUMP JUMPDEST SWAP2 SWAP3 PUSH1 0x20 PUSH1 0x1 DUP2 SWAP3 DUP7 DUP6 ADD MLOAD DUP2 SSTORE ADD SWAP5 ADD SWAP3 ADD PUSH3 0xA2E JUMP JUMPDEST PUSH1 0x4 PUSH1 0x5 DUP7 MUL DUP6 ADD ADD PUSH1 0x0 MSTORE PUSH1 0x20 PUSH1 0x0 KECCAK256 PUSH1 0x1F DUP5 ADD PUSH1 0x5 SHR DUP2 ADD SWAP2 PUSH1 0x20 DUP6 LT PUSH3 0xAE1 JUMPI JUMPDEST PUSH1 0x1F ADD PUSH1 0x5 SHR ADD SWAP1 JUMPDEST DUP2 DUP2 LT PUSH3 0xAD4 JUMPI POP PUSH3 0x73A JUMP JUMPDEST PUSH1 0x0 DUP2 SSTORE PUSH1 0x1 ADD PUSH3 0xAC5 JUMP JUMPDEST SWAP1 SWAP2 POP DUP2 SWAP1 PUSH3 0xABC JUMP JUMPDEST PUSH4 0x4E487B71 PUSH1 0xE0 SHL PUSH1 0x0 MSTORE PUSH1 0x22 PUSH1 0x4 MSTORE PUSH1 0x24 PUSH1 0x0 REVERT JUMPDEST SWAP1 PUSH1 0x7F AND SWAP1 PUSH3 0x726 JUMP JUMPDEST ADD MLOAD SWAP1 POP CODESIZE DUP1 PUSH3 0x6B7 JUMP JUMPDEST PUSH1 0x5 DUP6 MUL DUP5 ADD PUSH1 0x0 MSTORE PUSH1 0x20 PUSH1 0x0 KECCAK256 SWAP6 PUSH1 0x0 JUMPDEST PUSH1 0x1F NOT DUP5 AND DUP2 LT PUSH3 0xB7C JUMPI POP SWAP6 DUP3 SWAP2 PUSH1 0x80 SWAP6 SWAP7 SWAP8 PUSH1 0x1 SWAP5 PUSH1 0x1F NOT DUP2 AND LT PUSH3 0xB62 JUMPI JUMPDEST POP POP POP DUP2 SHL ADD PUSH1 0x5 DUP6 MUL DUP5 ADD SSTORE PUSH3 0x6D1 JUMP JUMPDEST ADD MLOAD PUSH1 0x0 NOT PUSH1 0xF8 DUP5 PUSH1 0x3 SHL AND SHR NOT AND SWAP1 SSTORE CODESIZE DUP1 DUP1 PUSH3 0xB4F JUMP JUMPDEST DUP3 DUP3 ADD MLOAD DUP9 SSTORE PUSH1 0x1 SWAP1 SWAP8 ADD SWAP7 PUSH1 0x20 SWAP3 DUP4 ADD SWAP3 ADD PUSH3 0xB2B JUMP JUMPDEST PUSH1 0x5 DUP6 MUL DUP5 ADD PUSH1 0x0 MSTORE PUSH1 0x20 PUSH1 0x0 KECCAK256 PUSH1 0x1F DUP4 ADD PUSH1 0x5 SHR DUP2 ADD PUSH1 0x20 DUP5 LT PUSH3 0xBDB JUMPI JUMPDEST PUSH1 0x1F DUP4 ADD PUSH1 0x5 SHR DUP3 ADD DUP2 LT PUSH3 0xBCE JUMPI POP POP PUSH3 0x698 JUMP JUMPDEST PUSH1 0x0 DUP2 SSTORE PUSH1 0x1 ADD PUSH3 0xBB6 JUMP JUMPDEST POP DUP1 PUSH3 0xBB6 JUMP JUMPDEST SWAP1 PUSH1 0x7F AND SWAP1 PUSH3 0x684 JUMP JUMPDEST PUSH4 0x4E487B71 PUSH1 0xE0 SHL PUSH1 0x0 MSTORE PUSH1 0x32 PUSH1 0x4 MSTORE PUSH1 0x24 PUSH1 0x0 REVERT JUMPDEST ADD MLOAD SWAP1 POP CODESIZE DUP1 PUSH3 0x3C9 JUMP JUMPDEST PUSH1 0x10 PUSH1 0x0 MSTORE PUSH1 0x20 PUSH1 0x0 KECCAK256 SWAP1 PUSH1 0x0 JUMPDEST PUSH1 0x1F NOT DUP5 AND DUP2 LT PUSH3 0xC66 JUMPI POP PUSH1 0x1 SWAP4 SWAP5 SWAP6 DUP4 PUSH1 0x1F NOT DUP2 AND LT PUSH3 0xC4C JUMPI JUMPDEST POP POP POP DUP2 SHL ADD PUSH1 0x10 SSTORE PUSH3 0x3DF JUMP JUMPDEST ADD MLOAD PUSH1 0x0 NOT PUSH1 0xF8 DUP5 PUSH1 0x3 SHL AND SHR NOT AND SWAP1 SSTORE CODESIZE DUP1 DUP1 PUSH3 0xC3D JUMP JUMPDEST SWAP1 SWAP2 PUSH1 0x20 PUSH1 0x1 DUP2 SWAP3 DUP6 DUP11 ADD MLOAD DUP2 SSTORE ADD SWAP4 ADD SWAP2 ADD PUSH3 0xC1E JUMP JUMPDEST PUSH1 0x10 PUSH1 0x0 MSTORE PUSH32 0x1B6847DC741A1B0CD08D278845F9D819D87B734759AFB55FE2DE5CB82A9AE672 PUSH1 0x1F DUP4 ADD PUSH1 0x5 SHR DUP2 ADD PUSH1 0x20 DUP5 LT PUSH3 0xCDD JUMPI JUMPDEST PUSH1 0x1F DUP4 ADD PUSH1 0x5 SHR DUP3 ADD DUP2 LT PUSH3 0xCD0 JUMPI POP POP PUSH3 0x3AD JUMP JUMPDEST PUSH1 0x0 DUP2 SSTORE PUSH1 0x1 ADD PUSH3 0xCB8 JUMP JUMPDEST POP DUP1 PUSH3 0xCB8 JUMP JUMPDEST SWAP1 PUSH1 0x7F AND SWAP1 PUSH3 0x399 JUMP JUMPDEST ADD MLOAD SWAP1 POP CODESIZE DUP1 PUSH3 0x360 JUMP JUMPDEST PUSH1 0xE PUSH1 0x0 MSTORE PUSH1 0x20 PUSH1 0x0 KECCAK256 SWAP1 PUSH1 0x0 JUMPDEST PUSH1 0x1F NOT DUP5 AND DUP2 LT PUSH3 0xD53 JUMPI POP PUSH1 0x1 SWAP4 SWAP5 SWAP6 SWAP7 DUP4 PUSH1 0x1F NOT DUP2 AND LT PUSH3 0xD39 JUMPI JUMPDEST POP POP POP DUP2 SHL ADD PUSH1 0xE SSTORE PUSH3 0x376 JUMP JUMPDEST ADD MLOAD PUSH1 0x0 NOT PUSH1 0xF8 DUP5 PUSH1 0x3 SHL AND SHR NOT AND SWAP1 SSTORE CODESIZE DUP1 DUP1 PUSH3 0xD2A JUMP JUMPDEST SWAP1 SWAP2 PUSH1 0x20 PUSH1 0x1 DUP2 SWAP3 DUP6 DUP12 ADD MLOAD DUP2 SSTORE ADD SWAP4 ADD SWAP2 ADD PUSH3 0xD0A JUMP JUMPDEST PUSH1 0xE PUSH1 0x0 MSTORE PUSH32 0xBB7B4A454DC3493923482F07822329ED19E8244EFF582CC204F8554C3620C3FD PUSH1 0x1F DUP4 ADD PUSH1 0x5 SHR DUP2 ADD PUSH1 0x20 DUP5 LT PUSH3 0xDCA JUMPI JUMPDEST PUSH1 0x1F DUP4 ADD PUSH1 0x5 SHR DUP3 ADD DUP2 LT PUSH3 0xDBD JUMPI POP POP PUSH3 0x343 JUMP JUMPDEST PUSH1 0x0 DUP2 SSTORE PUSH1 0x1 ADD PUSH3 0xDA5 JUMP JUMPDEST POP DUP1 PUSH3 0xDA5 JUMP JUMPDEST SWAP1 PUSH1 0x7F AND SWAP1 PUSH3 0x32F JUMP JUMPDEST ADD MLOAD SWAP1 POP CODESIZE DUP1 PUSH3 0x2F6 JUMP JUMPDEST PUSH1 0xD PUSH1 0x0 SWAP1 DUP2 MSTORE SWAP4 POP PUSH1 0x0 DUP1 MLOAD PUSH1 0x20 PUSH3 0x797B DUP4 CODECOPY DUP2 MLOAD SWAP2 MSTORE SWAP2 SWAP1 JUMPDEST PUSH1 0x1F NOT DUP5 AND DUP6 LT PUSH3 0xE4B JUMPI PUSH1 0x1 SWAP5 POP DUP4 PUSH1 0x1F NOT DUP2 AND LT PUSH3 0xE31 JUMPI JUMPDEST POP POP POP DUP2 SHL ADD PUSH1 0xD SSTORE PUSH3 0x30C JUMP JUMPDEST ADD MLOAD PUSH1 0x0 NOT PUSH1 0xF8 DUP5 PUSH1 0x3 SHL AND SHR NOT AND SWAP1 SSTORE CODESIZE DUP1 DUP1 PUSH3 0xE22 JUMP JUMPDEST DUP2 DUP2 ADD MLOAD DUP4 SSTORE PUSH1 0x20 SWAP5 DUP6 ADD SWAP5 PUSH1 0x1 SWAP1 SWAP4 ADD SWAP3 SWAP1 SWAP2 ADD SWAP1 PUSH3 0xE05 JUMP JUMPDEST PUSH1 0xD PUSH1 0x0 MSTORE SWAP1 SWAP2 POP PUSH1 0x0 DUP1 MLOAD PUSH1 0x20 PUSH3 0x797B DUP4 CODECOPY DUP2 MLOAD SWAP2 MSTORE PUSH1 0x1F DUP5 ADD PUSH1 0x5 SHR DUP2 ADD PUSH1 0x20 DUP6 LT PUSH3 0xEC0 JUMPI JUMPDEST SWAP1 DUP5 SWAP4 SWAP3 SWAP2 JUMPDEST PUSH1 0x1F DUP4 ADD PUSH1 0x5 SHR DUP3 ADD DUP2 LT PUSH3 0xEB0 JUMPI POP POP PUSH3 0x2DD JUMP JUMPDEST PUSH1 0x0 DUP2 SSTORE DUP6 SWAP5 POP PUSH1 0x1 ADD PUSH3 0xE98 JUMP JUMPDEST POP DUP1 PUSH3 0xE92 JUMP JUMPDEST SWAP2 PUSH1 0x7F AND SWAP2 PUSH3 0x2C7 JUMP JUMPDEST PUSH1 0x40 MLOAD PUSH3 0x461BCD PUSH1 0xE5 SHL DUP2 MSTORE PUSH1 0x20 PUSH1 0x4 DUP3 ADD MSTORE PUSH1 0x27 PUSH1 0x24 DUP3 ADD MSTORE PUSH32 0x576974686472617720616464726573732063616E6E6F74206265207A65726F20 PUSH1 0x44 DUP3 ADD MSTORE PUSH7 0x61646472657373 PUSH1 0xC8 SHL PUSH1 0x64 DUP3 ADD MSTORE PUSH1 0x84 SWAP1 REVERT JUMPDEST PUSH3 0x461BCD PUSH1 0xE5 SHL DUP2 MSTORE PUSH1 0x20 PUSH1 0x4 DUP3 ADD MSTORE PUSH1 0x28 PUSH1 0x24 DUP3 ADD MSTORE PUSH32 0x526F79616C747920726563697069656E742063616E6E6F74206265207A65726F PUSH1 0x44 DUP3 ADD MSTORE PUSH8 0x2061646472657373 PUSH1 0xC0 SHL PUSH1 0x64 DUP3 ADD MSTORE PUSH1 0x84 SWAP1 REVERT JUMPDEST ADD MLOAD SWAP1 POP CODESIZE DUP1 PUSH3 0x1B7 JUMP JUMPDEST PUSH1 0x1 PUSH1 0x0 SWAP1 DUP2 MSTORE SWAP4 POP PUSH1 0x0 DUP1 MLOAD PUSH1 0x20 PUSH3 0x799B DUP4 CODECOPY DUP2 MLOAD SWAP2 MSTORE SWAP2 SWAP1 JUMPDEST PUSH1 0x1F NOT DUP5 AND DUP6 LT PUSH3 0xFE9 JUMPI PUSH1 0x1 SWAP5 POP DUP4 PUSH1 0x1F NOT DUP2 AND LT PUSH3 0xFCF JUMPI JUMPDEST POP POP POP DUP2 SHL ADD PUSH1 0x1 SSTORE PUSH3 0x1CD JUMP JUMPDEST ADD MLOAD PUSH1 0x0 NOT PUSH1 0xF8 DUP5 PUSH1 0x3 SHL AND SHR NOT AND SWAP1 SSTORE CODESIZE DUP1 DUP1 PUSH3 0xFC0 JUMP JUMPDEST DUP2 DUP2 ADD MLOAD DUP4 SSTORE PUSH1 0x20 SWAP5 DUP6 ADD SWAP5 PUSH1 0x1 SWAP1 SWAP4 ADD SWAP3 SWAP1 SWAP2 ADD SWAP1 PUSH3 0xFA3 JUMP JUMPDEST PUSH1 0x1 PUSH1 0x0 MSTORE SWAP1 SWAP2 POP PUSH1 0x0 DUP1 MLOAD PUSH1 0x20 PUSH3 0x799B DUP4 CODECOPY DUP2 MLOAD SWAP2 MSTORE PUSH1 0x1F DUP5 ADD PUSH1 0x5 SHR DUP2 ADD SWAP2 PUSH1 0x20 DUP6 LT PUSH3 0x105E JUMPI JUMPDEST SWAP1 PUSH1 0x1F DUP6 SWAP5 SWAP4 SWAP3 ADD PUSH1 0x5 SHR ADD SWAP1 JUMPDEST DUP2 DUP2 LT PUSH3 0x104E JUMPI POP PUSH3 0x19E JUMP JUMPDEST PUSH1 0x0 DUP2 SSTORE DUP5 SWAP4 POP PUSH1 0x1 ADD PUSH3 0x103F JUMP JUMPDEST SWAP1 SWAP2 POP DUP2 SWAP1 PUSH3 0x1031 JUMP JUMPDEST SWAP2 PUSH1 0x7F AND SWAP2 PUSH3 0x188 JUMP JUMPDEST ADD MLOAD SWAP1 POP CODESIZE DUP1 PUSH3 0x14D JUMP JUMPDEST PUSH1 0x0 DUP1 DUP1 MSTORE SWAP4 POP PUSH1 0x0 DUP1 MLOAD PUSH1 0x20 PUSH3 0x795B DUP4 CODECOPY DUP2 MLOAD SWAP2 MSTORE SWAP2 SWAP1 JUMPDEST PUSH1 0x1F NOT DUP5 AND DUP6 LT PUSH3 0x10E0 JUMPI PUSH1 0x1 SWAP5 POP DUP4 PUSH1 0x1F NOT DUP2 AND LT PUSH3 0x10C6 JUMPI JUMPDEST POP POP POP DUP2 SHL ADD PUSH1 0x0 SSTORE PUSH3 0x163 JUMP JUMPDEST ADD MLOAD PUSH1 0x0 NOT PUSH1 0xF8 DUP5 PUSH1 0x3 SHL AND SHR NOT AND SWAP1 SSTORE CODESIZE DUP1 DUP1 PUSH3 0x10B7 JUMP JUMPDEST DUP2 DUP2 ADD MLOAD DUP4 SSTORE PUSH1 0x20 SWAP5 DUP6 ADD SWAP5 PUSH1 0x1 SWAP1 SWAP4 ADD SWAP3 SWAP1 SWAP2 ADD SWAP1 PUSH3 0x109A JUMP JUMPDEST PUSH1 0x0 DUP1 MSTORE SWAP1 SWAP2 POP PUSH1 0x0 DUP1 MLOAD PUSH1 0x20 PUSH3 0x795B DUP4 CODECOPY DUP2 MLOAD SWAP2 MSTORE PUSH1 0x1F DUP5 ADD PUSH1 0x5 SHR DUP2 ADD PUSH1 0x20 DUP6 LT PUSH3 0x1154 JUMPI JUMPDEST SWAP1 DUP5 SWAP4 SWAP3 SWAP2 JUMPDEST PUSH1 0x1F DUP4 ADD PUSH1 0x5 SHR DUP3 ADD DUP2 LT PUSH3 0x1144 JUMPI POP POP PUSH3 0x134 JUMP JUMPDEST PUSH1 0x0 DUP2 SSTORE DUP6 SWAP5 POP PUSH1 0x1 ADD PUSH3 0x112C JUMP JUMPDEST POP DUP1 PUSH3 0x1126 JUMP JUMPDEST SWAP2 PUSH1 0x7F AND SWAP2 PUSH3 0x11E JUMP JUMPDEST PUSH1 0x0 DUP1 REVERT JUMPDEST PUSH1 0xA0 DUP2 ADD SWAP1 DUP2 LT PUSH1 0x1 PUSH1 0x1 PUSH1 0x40 SHL SUB DUP3 GT OR PUSH3 0x9F6 JUMPI PUSH1 0x40 MSTORE JUMP JUMPDEST PUSH1 0x40 DUP2 ADD SWAP1 DUP2 LT PUSH1 0x1 PUSH1 0x1 PUSH1 0x40 SHL SUB DUP3 GT OR PUSH3 0x9F6 JUMPI PUSH1 0x40 MSTORE JUMP JUMPDEST PUSH1 0x1F SWAP1 SWAP2 ADD PUSH1 0x1F NOT AND DUP2 ADD SWAP1 PUSH1 0x1 PUSH1 0x1 PUSH1 0x40 SHL SUB DUP3 GT SWAP1 DUP3 LT OR PUSH3 0x9F6 JUMPI PUSH1 0x40 MSTORE JUMP JUMPDEST SWAP2 SWAP1 DUP1 PUSH1 0x1F DUP5 ADD SLT ISZERO PUSH3 0x1167 JUMPI DUP3 MLOAD SWAP1 PUSH1 0x1 PUSH1 0x1 PUSH1 0x40 SHL SUB DUP3 GT PUSH3 0x9F6 JUMPI PUSH1 0x40 MLOAD SWAP2 PUSH1 0x20 SWAP2 PUSH3 0x1204 PUSH1 0x1F DUP4 ADD PUSH1 0x1F NOT AND DUP5 ADD DUP6 PUSH3 0x11A4 JUMP JUMPDEST DUP2 DUP5 MSTORE DUP3 DUP3 DUP8 ADD ADD GT PUSH3 0x1167 JUMPI PUSH1 0x0 JUMPDEST DUP2 DUP2 LT PUSH3 0x122B JUMPI POP DUP3 PUSH1 0x0 SWAP4 SWAP5 SWAP6 POP ADD ADD MSTORE SWAP1 JUMP JUMPDEST DUP6 DUP2 ADD DUP4 ADD MLOAD DUP5 DUP3 ADD DUP5 ADD MSTORE DUP3 ADD PUSH3 0x1215 JUMP JUMPDEST MLOAD SWAP1 PUSH1 0x1 PUSH1 0x1 PUSH1 0xA0 SHL SUB DUP3 AND DUP3 SUB PUSH3 0x1167 JUMPI JUMP JUMPDEST PUSH1 0x11 SLOAD PUSH9 0x10000000000000000 DUP2 LT ISZERO PUSH3 0x9F6 JUMPI PUSH1 0x1 DUP1 DUP3 ADD DUP1 PUSH1 0x11 SSTORE DUP3 LT ISZERO PUSH3 0xBEE JUMPI PUSH1 0x11 PUSH1 0x0 SWAP1 DUP2 MSTORE DUP4 MLOAD DUP1 MLOAD PUSH1 0x20 SWAP5 PUSH1 0x1 PUSH1 0x1 PUSH1 0x40 SHL SUB SWAP5 SWAP4 SWAP2 PUSH1 0x5 SWAP1 SWAP2 MUL PUSH1 0x0 DUP1 MLOAD PUSH1 0x20 PUSH3 0x793B DUP4 CODECOPY DUP2 MLOAD SWAP2 MSTORE ADD SWAP1 DUP6 DUP2 GT PUSH3 0x1552 JUMPI DUP2 SLOAD SWAP4 DUP6 DUP6 DUP2 SHR SWAP6 AND DUP1 ISZERO PUSH3 0x1547 JUMPI JUMPDEST DUP9 DUP7 LT EQ PUSH3 0x1533 JUMPI PUSH1 0x1F SWAP5 DUP6 DUP2 GT PUSH3 0x14EB JUMPI JUMPDEST POP DUP8 SWAP1 DUP6 DUP4 GT PUSH1 0x1 EQ PUSH3 0x147C JUMPI SWAP2 DUP1 PUSH1 0x80 SWAP5 SWAP3 PUSH1 0x4 SWAP5 DUP8 SWAP3 PUSH3 0x1470 JUMPI JUMPDEST POP POP PUSH1 0x0 NOT PUSH1 0x3 DUP4 SWAP1 SHL SHR NOT AND SWAP1 DUP8 SHL OR DUP2 SSTORE JUMPDEST DUP8 DUP10 ADD MLOAD DUP7 DUP3 ADD SSTORE PUSH1 0x40 DUP10 ADD MLOAD PUSH1 0x2 DUP3 ADD SSTORE PUSH1 0x60 DUP10 ADD MLOAD PUSH1 0x3 DUP3 ADD SSTORE ADD SWAP7 ADD MLOAD SWAP1 DUP2 MLOAD SWAP5 DUP6 GT PUSH3 0x145C JUMPI DUP7 SLOAD DUP5 DUP2 DUP2 SHR SWAP2 AND DUP1 ISZERO PUSH3 0x1451 JUMPI JUMPDEST DUP8 DUP3 LT EQ PUSH3 0x143D JUMPI DUP4 DUP2 GT PUSH3 0x13F5 JUMPI JUMPDEST POP DUP6 SWAP3 DUP6 GT PUSH1 0x1 EQ PUSH3 0x1392 JUMPI SWAP4 SWAP5 POP DUP5 SWAP3 SWAP2 SWAP1 DUP4 PUSH3 0x1386 JUMPI JUMPDEST POP POP SHL SWAP2 PUSH1 0x0 NOT SWAP1 PUSH1 0x3 SHL SHR NOT AND OR SWAP1 SSTORE JUMP JUMPDEST ADD MLOAD SWAP3 POP CODESIZE DUP1 PUSH3 0x1373 JUMP JUMPDEST DUP7 DUP2 MSTORE DUP6 DUP2 KECCAK256 SWAP4 SWAP6 DUP6 SWAP2 PUSH1 0x1F NOT DUP4 AND SWAP2 JUMPDEST DUP9 DUP4 DUP4 LT PUSH3 0x13DA JUMPI POP POP POP LT PUSH3 0x13C0 JUMPI JUMPDEST POP POP POP DUP2 SHL ADD SWAP1 SSTORE JUMP JUMPDEST ADD MLOAD PUSH1 0x0 NOT PUSH1 0xF8 DUP5 PUSH1 0x3 SHL AND SHR NOT AND SWAP1 SSTORE CODESIZE DUP1 DUP1 PUSH3 0x13B6 JUMP JUMPDEST DUP6 DUP8 ADD MLOAD DUP9 SSTORE SWAP1 SWAP7 ADD SWAP6 SWAP5 DUP6 ADD SWAP5 DUP8 SWAP4 POP SWAP1 DUP2 ADD SWAP1 PUSH3 0x13A3 JUMP JUMPDEST DUP8 DUP3 MSTORE DUP7 DUP3 KECCAK256 DUP5 DUP1 DUP9 ADD PUSH1 0x5 SHR DUP3 ADD SWAP3 DUP10 DUP10 LT PUSH3 0x1433 JUMPI JUMPDEST ADD PUSH1 0x5 SHR ADD SWAP1 DUP6 SWAP1 JUMPDEST DUP3 DUP2 LT PUSH3 0x1427 JUMPI POP POP PUSH3 0x1358 JUMP JUMPDEST DUP4 DUP2 SSTORE ADD DUP6 SWAP1 PUSH3 0x1417 JUMP JUMPDEST SWAP3 POP DUP2 SWAP3 PUSH3 0x140E JUMP JUMPDEST PUSH4 0x4E487B71 PUSH1 0xE0 SHL DUP3 MSTORE PUSH1 0x22 PUSH1 0x4 MSTORE PUSH1 0x24 DUP3 REVERT JUMPDEST SWAP1 PUSH1 0x7F AND SWAP1 PUSH3 0x1346 JUMP JUMPDEST PUSH4 0x4E487B71 PUSH1 0xE0 SHL DUP2 MSTORE PUSH1 0x41 PUSH1 0x4 MSTORE PUSH1 0x24 SWAP1 REVERT JUMPDEST ADD MLOAD SWAP1 POP CODESIZE DUP1 PUSH3 0x12F7 JUMP JUMPDEST DUP4 DUP6 MSTORE DUP9 DUP6 KECCAK256 DUP8 SWAP4 SWAP3 SWAP1 SWAP2 PUSH1 0x1F NOT DUP5 AND DUP8 JUMPDEST DUP13 DUP3 DUP3 LT PUSH3 0x14D4 JUMPI POP POP SWAP2 PUSH1 0x4 SWAP6 SWAP4 SWAP2 DUP6 PUSH1 0x80 SWAP9 SWAP7 SWAP5 LT PUSH3 0x14BA JUMPI JUMPDEST POP POP POP DUP2 SHL ADD DUP2 SSTORE PUSH3 0x130B JUMP JUMPDEST ADD MLOAD PUSH1 0x0 NOT PUSH1 0xF8 DUP5 PUSH1 0x3 SHL AND SHR NOT AND SWAP1 SSTORE CODESIZE DUP1 DUP1 PUSH3 0x14AC JUMP JUMPDEST DUP4 DUP6 ADD MLOAD DUP7 SSTORE DUP12 SWAP8 SWAP1 SWAP6 ADD SWAP5 SWAP4 DUP5 ADD SWAP4 ADD PUSH3 0x148E JUMP JUMPDEST DUP4 DUP6 MSTORE DUP9 DUP6 KECCAK256 DUP7 DUP1 DUP6 ADD PUSH1 0x5 SHR DUP3 ADD SWAP3 DUP12 DUP7 LT PUSH3 0x1529 JUMPI JUMPDEST ADD PUSH1 0x5 SHR ADD SWAP1 DUP8 SWAP1 JUMPDEST DUP3 DUP2 LT PUSH3 0x151D JUMPI POP POP PUSH3 0x12D8 JUMP JUMPDEST DUP7 DUP2 SSTORE ADD DUP8 SWAP1 PUSH3 0x150D JUMP JUMPDEST SWAP3 POP DUP2 SWAP3 PUSH3 0x1504 JUMP JUMPDEST PUSH4 0x4E487B71 PUSH1 0xE0 SHL DUP5 MSTORE PUSH1 0x22 PUSH1 0x4 MSTORE PUSH1 0x24 DUP5 REVERT JUMPDEST SWAP5 PUSH1 0x7F AND SWAP5 PUSH3 0x12C3 JUMP JUMPDEST PUSH4 0x4E487B71 PUSH1 0xE0 SHL DUP4 MSTORE PUSH1 0x41 PUSH1 0x4 MSTORE PUSH1 0x24 DUP4 REVERT JUMPDEST PUSH1 0x40 MLOAD SWAP1 PUSH3 0x1575 DUP3 PUSH3 0x1188 JUMP JUMPDEST PUSH1 0x9 DUP3 MSTORE PUSH9 0x4C6567656E64617279 PUSH1 0xB8 SHL PUSH1 0x20 DUP4 ADD MSTORE JUMP INVALID PUSH1 0x80 PUSH1 0x40 DUP2 DUP2 MSTORE PUSH1 0x4 SWAP2 DUP3 CALLDATASIZE LT ISZERO PUSH2 0x16 JUMPI PUSH1 0x0 DUP1 REVERT JUMPDEST PUSH1 0x0 SWAP3 DUP4 CALLDATALOAD PUSH1 0xE0 SHR SWAP2 DUP3 PUSH4 0x1FFC9A7 EQ PUSH2 0x43FE JUMPI POP DUP2 PUSH4 0x2BDD755 EQ PUSH2 0x439D JUMPI DUP2 PUSH4 0x2FA7C47 EQ PUSH2 0x4256 JUMPI DUP2 PUSH4 0x61886CD EQ PUSH2 0x4200 JUMPI DUP2 PUSH4 0x6FDDE03 EQ PUSH2 0x4179 JUMPI DUP2 PUSH4 0x81812FC EQ PUSH2 0x4159 JUMPI DUP2 PUSH4 0x951984D EQ PUSH2 0x4121 JUMPI DUP2 PUSH4 0x95EA7B3 EQ PUSH2 0x3FB3 JUMPI DUP2 PUSH4 0xC4AD45B EQ PUSH2 0x3F94 JUMPI DUP2 PUSH4 0xCBF54C8 EQ PUSH2 0x3F75 JUMPI DUP2 PUSH4 0x1581B600 EQ PUSH2 0x3F48 JUMPI DUP2 PUSH4 0x1C06ADCD EQ PUSH2 0x3F20 JUMPI DUP2 PUSH4 0x1CFFF51B EQ PUSH2 0x3EFC JUMPI DUP2 PUSH4 0x23B872DD EQ PUSH2 0x3ED7 JUMPI DUP2 PUSH4 0x248A9CA3 EQ PUSH2 0x3EAC JUMPI DUP2 PUSH4 0x250AEEB7 EQ PUSH2 0x3E8C JUMPI DUP2 PUSH4 0x275B1EFB EQ PUSH2 0x3E1E JUMPI DUP2 PUSH4 0x2A55205A EQ PUSH2 0x3DCF JUMPI DUP2 PUSH4 0x2CB2F52E EQ PUSH2 0x3CC6 JUMPI DUP2 PUSH4 0x2E17DE78 EQ PUSH2 0x3BAF JUMPI DUP2 PUSH4 0x2E93BE30 EQ PUSH2 0x3B24 JUMPI DUP2 PUSH4 0x2F2FF15D EQ PUSH2 0x3A86 JUMPI DUP2 PUSH4 0x36568ABE EQ PUSH2 0x39F4 JUMPI DUP2 PUSH4 0x3AB1A494 EQ PUSH2 0x3932 JUMPI DUP2 PUSH4 0x3AF32ABF EQ PUSH2 0x18F9 JUMPI DUP2 PUSH4 0x3B8105B3 EQ PUSH2 0x3726 JUMPI DUP2 PUSH4 0x3CCFD60B EQ PUSH2 0x364E JUMPI DUP2 PUSH4 0x3F244F04 EQ PUSH2 0x3626 JUMPI DUP2 PUSH4 0x42842E0E EQ PUSH2 0x35F2 JUMPI DUP2 PUSH4 0x43508B05 EQ PUSH2 0x3459 JUMPI DUP2 PUSH4 0x439766CE EQ PUSH2 0x3410 JUMPI DUP2 PUSH4 0x4542FC46 EQ PUSH2 0x33F1 JUMPI DUP2 PUSH4 0x484B973C EQ PUSH2 0x3285 JUMPI DUP2 PUSH4 0x4D3554C3 EQ PUSH2 0x3037 JUMPI DUP2 PUSH4 0x512D5C61 EQ PUSH2 0x301A JUMPI DUP2 PUSH4 0x51830227 EQ PUSH2 0x2FF6 JUMPI DUP2 PUSH4 0x51C7115B EQ PUSH2 0x2FD9 JUMPI DUP2 PUSH4 0x521C46D8 EQ PUSH2 0x2F5B JUMPI DUP2 PUSH4 0x548DB174 EQ PUSH2 0x2EAA JUMPI DUP2 PUSH4 0x555EC78B EQ PUSH2 0x2E4E JUMPI DUP2 PUSH4 0x55F804B3 EQ PUSH2 0x2D0D JUMPI DUP2 PUSH4 0x5C975ABB EQ PUSH2 0x2CE9 JUMPI DUP2 PUSH4 0x6352211E EQ PUSH2 0x2CB8 JUMPI DUP2 PUSH4 0x63A599A4 EQ PUSH2 0x2C91 JUMPI DUP2 PUSH4 0x694D9778 EQ PUSH2 0x1937 JUMPI DUP2 PUSH4 0x6A627842 EQ PUSH2 0x2B1D JUMPI DUP2 PUSH4 0x6C0360EB EQ PUSH2 0x2A4E JUMPI DUP2 PUSH4 0x70A08231 EQ PUSH2 0x29B8 JUMPI DUP2 PUSH4 0x715018A6 EQ PUSH2 0x296D JUMPI DUP2 PUSH4 0x75B238FC EQ PUSH2 0x2944 JUMPI DUP2 PUSH4 0x771282F6 EQ PUSH2 0x2925 JUMPI DUP2 PUSH4 0x78BC0301 EQ PUSH2 0x27B6 JUMPI DUP2 PUSH4 0x7F649783 EQ PUSH2 0x26A3 JUMPI DUP2 PUSH4 0x819D4CC6 EQ PUSH2 0x25C9 JUMPI DUP2 PUSH4 0x868FF4A2 EQ PUSH2 0x236A JUMPI DUP2 PUSH4 0x8980F11F EQ PUSH2 0x224D JUMPI DUP2 PUSH4 0x8CDB026D EQ PUSH2 0x21E0 JUMPI DUP2 PUSH4 0x8D2C4488 EQ PUSH2 0x20EA JUMPI DUP2 PUSH4 0x8D63A272 EQ PUSH2 0x1E0A JUMPI DUP2 PUSH4 0x8DA5CB5B EQ PUSH2 0x1DE1 JUMPI DUP2 PUSH4 0x8ECAD721 EQ PUSH2 0x1DC5 JUMPI DUP2 PUSH4 0x91052816 EQ PUSH2 0x1D8A JUMPI DUP2 PUSH4 0x91D14854 EQ PUSH2 0x1D44 JUMPI DUP2 PUSH4 0x92228006 EQ PUSH2 0x1D20 JUMPI DUP2 PUSH4 0x938E3D7B EQ PUSH2 0x1BAE JUMPI DUP2 PUSH4 0x9470FC93 EQ PUSH2 0x1AC7 JUMPI DUP2 PUSH4 0x95D89B41 EQ PUSH2 0x1A14 JUMPI DUP2 PUSH4 0x969CE9CF EQ PUSH2 0x196F JUMPI DUP2 PUSH4 0x98A8CFFE EQ PUSH2 0x1937 JUMPI DUP2 PUSH4 0x9B19251A EQ PUSH2 0x18F9 JUMPI DUP2 PUSH4 0xA0484DDA EQ PUSH2 0x18D3 JUMPI DUP2 PUSH4 0xA04A6AC8 EQ PUSH2 0x18B4 JUMPI DUP2 PUSH4 0xA217FDDF EQ PUSH2 0x1899 JUMPI DUP2 PUSH4 0xA22CB465 EQ PUSH2 0x17CA JUMPI DUP2 PUSH4 0xA30C4055 EQ PUSH2 0x177A JUMPI DUP2 PUSH4 0xA475B5DD EQ PUSH2 0x16E4 JUMPI DUP2 PUSH4 0xA694FC3A EQ PUSH2 0x162D JUMPI DUP2 PUSH4 0xAE1A01A2 EQ PUSH2 0x1580 JUMPI DUP2 PUSH4 0xB33712C5 EQ PUSH2 0x1536 JUMPI DUP2 PUSH4 0xB88D4FDE EQ PUSH2 0x14AB JUMPI DUP2 PUSH4 0xBB9391A1 EQ PUSH2 0x1486 JUMPI DUP2 PUSH4 0xC0788555 EQ PUSH2 0x698 JUMPI DUP2 PUSH4 0xC0E72740 EQ PUSH2 0x733 JUMPI DUP2 PUSH4 0xC2127793 EQ PUSH2 0x133E JUMPI DUP2 PUSH4 0xC73D7C7B EQ PUSH2 0x1233 JUMPI DUP2 PUSH4 0xC87B56DD EQ PUSH2 0x11FF JUMPI DUP2 PUSH4 0xCBC85D6F EQ PUSH2 0x1075 JUMPI DUP2 PUSH4 0xD12F743A EQ PUSH2 0x1051 JUMPI DUP2 PUSH4 0xD2ACD13D EQ PUSH2 0xE31 JUMPI DUP2 PUSH4 0xD5391393 EQ PUSH2 0xE08 JUMPI DUP2 PUSH4 0xD547741F EQ PUSH2 0xDD8 JUMPI DUP2 PUSH4 0xD5ABEB01 EQ PUSH2 0xDBB JUMPI DUP2 PUSH4 0xD756985B EQ PUSH2 0xD9C JUMPI DUP2 PUSH4 0xD7AF40E5 EQ PUSH2 0xD11 JUMPI DUP2 PUSH4 0xDB2E21BC EQ PUSH2 0xC47 JUMPI DUP2 PUSH4 0xDFE6B5D6 EQ PUSH2 0xBC2 JUMPI DUP2 PUSH4 0xE4B7FB73 EQ PUSH2 0xB82 JUMPI DUP2 PUSH4 0xE4DAD1EE EQ PUSH2 0xA88 JUMPI DUP2 PUSH4 0xE58306F9 EQ PUSH2 0x775 JUMPI DUP2 PUSH4 0xE8A3D485 EQ PUSH2 0x733 JUMPI DUP2 PUSH4 0xE985E9C5 EQ PUSH2 0x6E3 JUMPI DUP2 PUSH4 0xEB54F9EC EQ PUSH2 0x6C4 JUMPI DUP2 PUSH4 0xF0A52424 EQ PUSH2 0x698 JUMPI DUP2 PUSH4 0xF2FDE38B EQ PUSH2 0x5E3 JUMPI DUP2 PUSH4 0xF90ADCCC EQ PUSH2 0x5B6 JUMPI DUP2 PUSH4 0xFAF53169 EQ PUSH2 0x543 JUMPI POP DUP1 PUSH4 0xFE67A54B EQ PUSH2 0x4EA JUMPI PUSH4 0xFF6E36ED EQ PUSH2 0x4C9 JUMPI PUSH1 0x0 DUP1 REVERT JUMPDEST CALLVALUE PUSH2 0x4E6 JUMPI DUP2 PUSH1 0x3 NOT CALLDATASIZE ADD SLT PUSH2 0x4E6 JUMPI PUSH1 0x20 SWAP1 PUSH1 0x17 SLOAD SWAP1 MLOAD SWAP1 DUP2 MSTORE RETURN JUMPDEST POP DUP1 REVERT JUMPDEST DUP3 CALLVALUE PUSH2 0x540 JUMPI DUP1 PUSH1 0x3 NOT CALLDATASIZE ADD SLT PUSH2 0x540 JUMPI PUSH2 0x503 PUSH2 0x49AE JUMP JUMPDEST PUSH1 0x1E SLOAD PUSH2 0x512 PUSH1 0xFF DUP3 AND PUSH2 0x5D0D JUMP JUMPDEST PUSH1 0xFF NOT AND PUSH1 0x1E SSTORE PUSH32 0xA0E92984607195C326795751263414EE1074526323552E694C90EF2B99AE3F29 DUP2 DUP1 LOG1 DUP1 RETURN JUMPDEST DUP1 REVERT JUMPDEST SWAP1 POP CALLVALUE PUSH2 0x5B2 JUMPI PUSH1 0x20 CALLDATASIZE PUSH1 0x3 NOT ADD SLT PUSH2 0x5B2 JUMPI DUP1 CALLDATALOAD SWAP2 PUSH2 0x561 PUSH2 0x49AE JUMP JUMPDEST DUP3 ISZERO PUSH2 0x56F JUMPI POP POP PUSH1 0x17 SSTORE DUP1 RETURN JUMPDEST SWAP1 PUSH1 0x20 PUSH1 0x64 SWAP3 MLOAD SWAP2 PUSH3 0x461BCD PUSH1 0xE5 SHL DUP4 MSTORE DUP3 ADD MSTORE PUSH1 0x20 PUSH1 0x24 DUP3 ADD MSTORE PUSH32 0x4D6178206D696E7473206D7573742062652067726561746572207468616E2030 PUSH1 0x44 DUP3 ADD MSTORE REVERT JUMPDEST DUP3 DUP1 REVERT JUMPDEST POP POP CALLVALUE PUSH2 0x4E6 JUMPI PUSH1 0x20 CALLDATASIZE PUSH1 0x3 NOT ADD SLT PUSH2 0x4E6 JUMPI PUSH1 0x20 SWAP1 PUSH2 0x5DC PUSH2 0x5D7 PUSH2 0x44C6 JUMP JUMPDEST PUSH2 0x5B27 JUMP JUMPDEST SWAP1 MLOAD SWAP1 DUP2 MSTORE RETURN JUMPDEST SWAP1 POP CALLVALUE PUSH2 0x5B2 JUMPI PUSH1 0x20 CALLDATASIZE PUSH1 0x3 NOT ADD SLT PUSH2 0x5B2 JUMPI PUSH2 0x5FE PUSH2 0x44C6 JUMP JUMPDEST SWAP1 PUSH2 0x607 PUSH2 0x49AE JUMP JUMPDEST PUSH1 0x1 PUSH1 0x1 PUSH1 0xA0 SHL SUB SWAP2 DUP3 AND SWAP3 DUP4 ISZERO PUSH2 0x646 JUMPI POP POP PUSH1 0x7 DUP1 SLOAD PUSH1 0x1 PUSH1 0x1 PUSH1 0xA0 SHL SUB NOT DUP2 AND DUP5 OR SWAP1 SWAP2 SSTORE AND PUSH1 0x0 DUP1 MLOAD PUSH1 0x20 PUSH2 0x61D8 DUP4 CODECOPY DUP2 MLOAD SWAP2 MSTORE PUSH1 0x0 DUP1 LOG3 DUP1 RETURN JUMPDEST SWAP1 PUSH1 0x20 PUSH1 0x84 SWAP3 MLOAD SWAP2 PUSH3 0x461BCD PUSH1 0xE5 SHL DUP4 MSTORE DUP3 ADD MSTORE PUSH1 0x26 PUSH1 0x24 DUP3 ADD MSTORE PUSH32 0x4F776E61626C653A206E6577206F776E657220697320746865207A65726F2061 PUSH1 0x44 DUP3 ADD MSTORE PUSH6 0x646472657373 PUSH1 0xD0 SHL PUSH1 0x64 DUP3 ADD MSTORE REVERT JUMPDEST SWAP1 POP CALLVALUE PUSH2 0x5B2 JUMPI PUSH1 0x20 CALLDATASIZE PUSH1 0x3 NOT ADD SLT PUSH2 0x5B2 JUMPI DUP2 PUSH1 0x20 SWAP4 PUSH1 0xFF SWAP3 CALLDATALOAD DUP2 MSTORE DUP5 DUP1 MSTORE KECCAK256 SLOAD AND SWAP1 MLOAD SWAP1 ISZERO ISZERO DUP2 MSTORE RETURN JUMPDEST POP POP CALLVALUE PUSH2 0x4E6 JUMPI DUP2 PUSH1 0x3 NOT CALLDATASIZE ADD SLT PUSH2 0x4E6 JUMPI PUSH1 0x20 SWAP1 PUSH1 0x1B SLOAD SWAP1 MLOAD SWAP1 DUP2 MSTORE RETURN JUMPDEST POP POP CALLVALUE PUSH2 0x4E6 JUMPI DUP1 PUSH1 0x3 NOT CALLDATASIZE ADD SLT PUSH2 0x4E6 JUMPI PUSH1 0x20 SWAP2 PUSH2 0x700 PUSH2 0x44C6 JUMP JUMPDEST DUP3 PUSH2 0x709 PUSH2 0x44DC JUMP JUMPDEST SWAP3 PUSH1 0x1 DUP1 PUSH1 0xA0 SHL SUB DUP1 SWAP4 AND DUP2 MSTORE PUSH1 0x5 DUP7 MSTORE KECCAK256 SWAP2 AND PUSH1 0x0 MSTORE DUP3 MSTORE PUSH1 0xFF DUP2 PUSH1 0x0 KECCAK256 SLOAD AND SWAP1 MLOAD SWAP1 ISZERO ISZERO DUP2 MSTORE RETURN JUMPDEST POP POP CALLVALUE PUSH2 0x4E6 JUMPI DUP2 PUSH1 0x3 NOT CALLDATASIZE ADD SLT PUSH2 0x4E6 JUMPI DUP1 MLOAD PUSH2 0x771 SWAP2 PUSH2 0x75F DUP3 PUSH2 0x758 DUP2 PUSH2 0x471F JUMP JUMPDEST SUB DUP4 PUSH2 0x4886 JUMP JUMPDEST MLOAD SWAP2 DUP3 SWAP2 PUSH1 0x20 DUP4 MSTORE PUSH1 0x20 DUP4 ADD SWAP1 PUSH2 0x4543 JUMP JUMPDEST SUB SWAP1 RETURN JUMPDEST DUP4 DUP4 CALLVALUE PUSH2 0x4E6 JUMPI DUP1 PUSH1 0x3 NOT CALLDATASIZE ADD SLT PUSH2 0x4E6 JUMPI PUSH2 0x78F PUSH2 0x44C6 JUMP JUMPDEST SWAP1 PUSH1 0x24 SWAP4 DUP5 CALLDATALOAD SWAP1 PUSH1 0x0 DUP1 MLOAD PUSH1 0x20 PUSH2 0x61F8 DUP4 CODECOPY DUP2 MLOAD SWAP2 MSTORE SWAP6 DUP7 PUSH1 0x0 MSTORE PUSH1 0x20 SWAP7 PUSH1 0xA DUP9 MSTORE DUP5 PUSH1 0x0 KECCAK256 CALLER PUSH1 0x0 MSTORE DUP9 MSTORE PUSH1 0xFF DUP6 PUSH1 0x0 KECCAK256 SLOAD AND ISZERO PUSH2 0x8D5 JUMPI POP POP POP PUSH2 0x7D6 DUP2 ISZERO ISZERO PUSH2 0x5A9A JUMP JUMPDEST PUSH1 0xC PUSH2 0x7F0 PUSH2 0x3E8 PUSH2 0x7E9 DUP5 DUP5 SLOAD PUSH2 0x5551 JUMP JUMPDEST GT ISZERO PUSH2 0x5AE6 JUMP JUMPDEST PUSH1 0xB DUP1 SLOAD SWAP1 SWAP7 PUSH1 0x1 PUSH1 0x1 PUSH1 0xA0 SHL SUB DUP7 AND SWAP6 SWAP2 SWAP3 SWAP1 SWAP2 DUP8 JUMPDEST DUP6 DUP2 LT PUSH2 0x830 JUMPI POP POP POP PUSH1 0x0 DUP1 MLOAD PUSH1 0x20 PUSH2 0x6318 DUP4 CODECOPY DUP2 MLOAD SWAP2 MSTORE SWAP5 SWAP6 SWAP7 POP DUP4 MLOAD SWAP3 DUP4 MSTORE DUP3 ADD MSTORE LOG2 DUP1 RETURN JUMPDEST PUSH2 0x8D0 SWAP1 DUP11 DUP10 PUSH1 0x0 DUP1 MLOAD PUSH1 0x20 PUSH2 0x61B8 DUP4 CODECOPY DUP2 MLOAD SWAP2 MSTORE DUP11 DUP1 DUP15 PUSH2 0x850 PUSH2 0x555E JUMP JUMPDEST SWAP2 DUP3 SWAP2 DUP8 SLOAD SWAP8 PUSH2 0x860 DUP10 DUP14 PUSH2 0x51BB JUMP JUMPDEST PUSH1 0x1 DUP2 SLOAD ADD SWAP1 SSTORE PUSH2 0x871 DUP13 SLOAD PUSH2 0x50FC JUMP JUMPDEST DUP13 SSTORE DUP8 DUP2 MSTORE PUSH1 0x12 DUP14 MSTORE KECCAK256 SSTORE PUSH1 0x3 PUSH2 0x887 DUP3 PUSH2 0x4919 JUMP JUMPDEST POP ADD PUSH2 0x893 DUP2 SLOAD PUSH2 0x50FC JUMP JUMPDEST SWAP1 SSTORE PUSH2 0x8A7 PUSH2 0x8A1 DUP7 PUSH2 0x570A JUMP JUMPDEST DUP7 PUSH2 0x53DC JUMP JUMPDEST PUSH2 0x8C8 PUSH2 0x8B3 DUP3 PUSH2 0x4919 JUMP JUMPDEST POP DUP4 MLOAD SWAP4 DUP5 SWAP4 DUP5 MSTORE DUP1 DUP14 DUP6 ADD MSTORE DUP4 ADD SWAP1 PUSH2 0x4789 JUMP JUMPDEST SUB SWAP1 LOG3 PUSH2 0x50FC JUMP JUMPDEST PUSH2 0x807 JUMP JUMPDEST DUP8 SWAP4 POP DUP5 SWAP1 PUSH2 0x8E3 CALLER PUSH2 0x5E0D JUMP JUMPDEST SWAP1 DUP3 MLOAD PUSH2 0x8EF DUP2 PUSH2 0x486B JUMP JUMPDEST PUSH1 0x42 DUP2 MSTORE DUP7 DUP2 ADD SWAP2 PUSH1 0x60 CALLDATASIZE DUP5 CALLDATACOPY DUP2 MLOAD ISZERO PUSH2 0xA74 JUMPI PUSH1 0x30 DUP4 MSTORE8 DUP2 MLOAD PUSH1 0x1 SWAP1 DUP2 LT ISZERO PUSH2 0xA60 JUMPI PUSH1 0x78 PUSH1 0x21 DUP5 ADD MSTORE8 PUSH1 0x41 SWAP1 JUMPDEST DUP1 DUP3 GT PUSH2 0x9F5 JUMPI POP POP PUSH2 0x9C7 JUMPI PUSH1 0x48 PUSH2 0x9C3 SWAP6 SWAP4 DUP6 SWAP4 PUSH2 0x9AB SWAP4 PUSH2 0x99C SWAP8 MLOAD SWAP8 DUP9 SWAP4 PUSH23 0x20B1B1B2B9B9A1B7B73A3937B61D1030B1B1B7BAB73A1 PUSH1 0x4D SHL DUP14 DUP7 ADD MSTORE PUSH2 0x973 DUP14 DUP3 MLOAD SWAP3 DUP4 SWAP2 PUSH1 0x37 DUP10 ADD SWAP2 ADD PUSH2 0x4520 JUMP JUMPDEST DUP5 ADD SWAP2 PUSH17 0x1034B99036B4B9B9B4B733903937B6329 PUSH1 0x7D SHL PUSH1 0x37 DUP5 ADD MSTORE MLOAD DUP1 SWAP4 DUP7 DUP5 ADD SWAP1 PUSH2 0x4520 JUMP JUMPDEST ADD SUB PUSH1 0x28 DUP2 ADD DUP7 MSTORE ADD DUP5 PUSH2 0x4886 JUMP JUMPDEST MLOAD SWAP5 DUP6 SWAP5 PUSH3 0x461BCD PUSH1 0xE5 SHL DUP7 MSTORE DUP6 ADD MSTORE DUP4 ADD SWAP1 PUSH2 0x4543 JUMP JUMPDEST SUB SWAP1 REVERT JUMPDEST PUSH1 0x64 DUP7 DUP9 DUP8 DUP2 DUP9 MLOAD SWAP4 PUSH3 0x461BCD PUSH1 0xE5 SHL DUP6 MSTORE DUP5 ADD MSTORE DUP3 ADD MSTORE PUSH1 0x0 DUP1 MLOAD PUSH1 0x20 PUSH2 0x6138 DUP4 CODECOPY DUP2 MLOAD SWAP2 MSTORE PUSH1 0x44 DUP3 ADD MSTORE REVERT JUMPDEST SWAP1 SWAP2 PUSH1 0xF DUP2 AND PUSH1 0x10 DUP2 LT ISZERO PUSH2 0xA4C JUMPI PUSH16 0x181899199A1A9B1B9C1CB0B131B232B3 PUSH1 0x81 SHL SWAP1 BYTE PUSH2 0xA24 DUP5 DUP7 PUSH2 0x5DFC JUMP JUMPDEST MSTORE8 DUP9 SHR SWAP2 DUP1 ISZERO PUSH2 0xA38 JUMPI PUSH1 0x0 NOT ADD SWAP1 PUSH2 0x91E JUMP JUMPDEST DUP8 PUSH1 0x11 DUP11 PUSH4 0x4E487B71 PUSH1 0xE0 SHL PUSH1 0x0 MSTORE MSTORE PUSH1 0x0 REVERT JUMPDEST DUP9 PUSH1 0x32 DUP12 PUSH4 0x4E487B71 PUSH1 0xE0 SHL PUSH1 0x0 MSTORE MSTORE PUSH1 0x0 REVERT JUMPDEST DUP7 PUSH1 0x32 DUP10 PUSH4 0x4E487B71 PUSH1 0xE0 SHL PUSH1 0x0 MSTORE MSTORE PUSH1 0x0 REVERT JUMPDEST DUP6 PUSH1 0x32 DUP9 PUSH4 0x4E487B71 PUSH1 0xE0 SHL PUSH1 0x0 MSTORE MSTORE PUSH1 0x0 REVERT JUMPDEST DUP4 SWAP2 POP CALLVALUE PUSH2 0x4E6 JUMPI PUSH2 0xA99 CALLDATASIZE PUSH2 0x48FB JUMP JUMPDEST SWAP1 SWAP2 SWAP4 PUSH2 0xAA4 PUSH2 0x49AE JUMP JUMPDEST PUSH1 0xFF PUSH1 0x1E SLOAD AND PUSH2 0xB28 JUMPI POP SWAP1 PUSH32 0xD19188BE05E6DDC5A5158014D33CE7D5CE58BDB3B168F1F6760891D7EC6F0971 SWAP5 SWAP6 PUSH2 0xB18 SWAP3 PUSH2 0xAE2 DUP7 DUP7 GT PUSH2 0x5C15 JUMP JUMPDEST PUSH2 0xAED DUP4 ISZERO ISZERO PUSH2 0x5C77 JUMP JUMPDEST DUP1 ISZERO ISZERO DUP1 PUSH2 0xB1E JUMPI JUMPDEST PUSH2 0xAFF SWAP1 PUSH2 0x5CC3 JUMP JUMPDEST DUP5 PUSH1 0x19 SSTORE DUP6 PUSH1 0x1A SSTORE DUP3 PUSH1 0x1C SSTORE PUSH1 0x1D SSTORE MLOAD SWAP4 DUP5 SWAP4 DUP5 PUSH2 0x5D4E JUMP JUMPDEST SUB SWAP1 LOG1 DUP1 RETURN JUMPDEST POP DUP3 DUP2 GT ISZERO PUSH2 0xAF6 JUMP JUMPDEST PUSH1 0x84 SWAP1 PUSH1 0x20 DUP9 MLOAD SWAP2 PUSH3 0x461BCD PUSH1 0xE5 SHL DUP4 MSTORE DUP3 ADD MSTORE PUSH1 0x2E PUSH1 0x24 DUP3 ADD MSTORE PUSH32 0x43616E6E6F742075706461746520706172616D657465727320647572696E6720 PUSH1 0x44 DUP3 ADD MSTORE PUSH14 0x30B1BA34BB329030BAB1BA34B7B7 PUSH1 0x91 SHL PUSH1 0x64 DUP3 ADD MSTORE REVERT JUMPDEST DUP4 DUP4 CALLVALUE PUSH2 0x4E6 JUMPI DUP2 PUSH1 0x3 NOT CALLDATASIZE ADD SLT PUSH2 0x4E6 JUMPI PUSH1 0xC SLOAD SWAP2 PUSH2 0x3E8 SWAP3 DUP4 SUB SWAP3 DUP4 GT PUSH2 0xBAF JUMPI PUSH1 0x20 DUP4 DUP4 MLOAD SWAP1 DUP2 MSTORE RETURN JUMPDEST PUSH4 0x4E487B71 PUSH1 0xE0 SHL DUP2 MSTORE PUSH1 0x11 DUP5 MSTORE PUSH1 0x24 SWAP1 REVERT JUMPDEST DUP3 DUP5 CALLVALUE PUSH2 0x540 JUMPI DUP1 PUSH1 0x3 NOT CALLDATASIZE ADD SLT PUSH2 0x540 JUMPI PUSH1 0xC SLOAD SWAP2 PUSH2 0x3E8 SWAP2 DUP4 DUP4 SUB SWAP3 DUP4 GT PUSH2 0xC34 JUMPI POP PUSH1 0xE0 SWAP4 POP PUSH1 0x11 SLOAD PUSH1 0xFF PUSH1 0xF SLOAD AND PUSH1 0xFF PUSH1 0x23 SLOAD AND SWAP2 PUSH1 0xFF PUSH1 0x18 SLOAD AND SWAP4 PUSH1 0xFF PUSH1 0x1E SLOAD AND SWAP6 DUP2 MLOAD SWAP8 DUP9 MSTORE PUSH1 0x20 DUP9 ADD MSTORE DUP7 ADD MSTORE ISZERO ISZERO PUSH1 0x60 DUP6 ADD MSTORE ISZERO ISZERO PUSH1 0x80 DUP5 ADD MSTORE ISZERO ISZERO PUSH1 0xA0 DUP4 ADD MSTORE ISZERO ISZERO PUSH1 0xC0 DUP3 ADD MSTORE RETURN JUMPDEST PUSH4 0x4E487B71 PUSH1 0xE0 SHL DUP2 MSTORE PUSH1 0x11 DUP6 MSTORE PUSH1 0x24 SWAP1 REVERT JUMPDEST SWAP1 POP CALLVALUE PUSH2 0x5B2 JUMPI DUP3 PUSH1 0x3 NOT CALLDATASIZE ADD SLT PUSH2 0x5B2 JUMPI PUSH2 0xC61 PUSH2 0x49AE JUMP JUMPDEST PUSH2 0xC69 PUSH2 0x5165 JUMP JUMPDEST SELFBALANCE SWAP1 PUSH2 0xC76 DUP3 ISZERO ISZERO PUSH2 0x60B0 JUMP JUMPDEST PUSH1 0x1 DUP1 PUSH1 0xA0 SHL SUB SWAP1 DUP5 DUP1 DUP1 DUP1 DUP7 DUP7 PUSH1 0x7 SLOAD AND GAS CALL PUSH2 0xC92 PUSH2 0x4DAC JUMP JUMPDEST POP ISZERO PUSH2 0xCD0 JUMPI POP PUSH32 0x23D6711A1D031134A36921253C75AA59E967D38E369AC625992824315E204F20 SWAP2 PUSH1 0x20 SWAP2 PUSH1 0x7 SLOAD AND SWAP4 MLOAD SWAP1 DUP2 MSTORE LOG2 PUSH1 0x1 PUSH1 0x8 SSTORE DUP1 RETURN JUMPDEST PUSH1 0x64 SWAP1 PUSH1 0x20 DUP6 MLOAD SWAP2 PUSH3 0x461BCD PUSH1 0xE5 SHL DUP4 MSTORE DUP3 ADD MSTORE PUSH1 0x1B PUSH1 0x24 DUP3 ADD MSTORE PUSH27 0x115B595C99D95B98DE481DDA5D1A191C985DD85B0819985A5B1959 PUSH1 0x2A SHL PUSH1 0x44 DUP3 ADD MSTORE REVERT JUMPDEST SWAP1 POP DUP3 CALLVALUE PUSH2 0x540 JUMPI PUSH1 0x20 CALLDATASIZE PUSH1 0x3 NOT ADD SLT PUSH2 0x540 JUMPI POP DUP1 CALLDATALOAD SWAP1 PUSH1 0x11 SLOAD DUP3 LT ISZERO PUSH2 0xD5C JUMPI PUSH1 0x20 DUP4 PUSH2 0x5DC DUP5 PUSH1 0x3 PUSH2 0xD53 PUSH1 0x2 PUSH2 0xD4A DUP5 PUSH2 0x4919 JUMP JUMPDEST POP ADD SLOAD SWAP3 PUSH2 0x4919 JUMP JUMPDEST POP ADD SLOAD SWAP1 PUSH2 0x58F4 JUMP JUMPDEST PUSH1 0x64 SWAP1 PUSH1 0x20 DUP5 MLOAD SWAP2 PUSH3 0x461BCD PUSH1 0xE5 SHL DUP4 MSTORE DUP3 ADD MSTORE PUSH1 0x1A PUSH1 0x24 DUP3 ADD MSTORE PUSH26 0x14985C9A5D1E481D1A595C88191BD95CC81B9BDD08195E1A5CDD PUSH1 0x32 SHL PUSH1 0x44 DUP3 ADD MSTORE REVERT JUMPDEST POP POP CALLVALUE PUSH2 0x4E6 JUMPI DUP2 PUSH1 0x3 NOT CALLDATASIZE ADD SLT PUSH2 0x4E6 JUMPI PUSH1 0x20 SWAP1 PUSH1 0x19 SLOAD SWAP1 MLOAD SWAP1 DUP2 MSTORE RETURN JUMPDEST POP POP CALLVALUE PUSH2 0x4E6 JUMPI DUP2 PUSH1 0x3 NOT CALLDATASIZE ADD SLT PUSH2 0x4E6 JUMPI PUSH1 0x20 SWAP1 MLOAD PUSH2 0x3E8 DUP2 MSTORE RETURN JUMPDEST SWAP2 SWAP1 POP CALLVALUE PUSH2 0x5B2 JUMPI CALLDATASIZE PUSH1 0x3 NOT ADD SLT PUSH2 0x4E6 JUMPI PUSH2 0xE05 SWAP1 PUSH2 0xDF6 PUSH2 0x44DC JUMP JUMPDEST SWAP1 PUSH2 0xDFF PUSH2 0x49AE JUMP JUMPDEST CALLDATALOAD PUSH2 0x4938 JUMP JUMPDEST DUP1 RETURN JUMPDEST POP POP CALLVALUE PUSH2 0x4E6 JUMPI DUP2 PUSH1 0x3 NOT CALLDATASIZE ADD SLT PUSH2 0x4E6 JUMPI PUSH1 0x20 SWAP1 MLOAD PUSH1 0x0 DUP1 MLOAD PUSH1 0x20 PUSH2 0x61F8 DUP4 CODECOPY DUP2 MLOAD SWAP2 MSTORE DUP2 MSTORE RETURN JUMPDEST SWAP2 SWAP1 POP CALLVALUE PUSH2 0x5B2 JUMPI PUSH1 0x20 DUP1 PUSH1 0x3 NOT CALLDATASIZE ADD SLT PUSH2 0x104D JUMPI DUP3 CALLDATALOAD PUSH1 0x1 PUSH1 0x1 PUSH1 0x40 SHL SUB DUP2 GT PUSH2 0x1049 JUMPI PUSH2 0xE63 SWAP1 CALLDATASIZE SWAP1 DUP6 ADD PUSH2 0x4630 JUMP JUMPDEST SWAP3 SWAP1 SWAP2 PUSH2 0xE6E PUSH2 0x5165 JUMP JUMPDEST PUSH1 0xFF SWAP4 PUSH2 0xE7E DUP6 PUSH1 0x23 SLOAD AND PUSH2 0x5F09 JUMP JUMPDEST PUSH2 0xE89 DUP2 ISZERO ISZERO PUSH2 0x60F3 JUMP JUMPDEST PUSH1 0x14 DUP2 GT PUSH2 0xFFB JUMPI SWAP1 SWAP4 DUP7 SWAP4 JUMPDEST DUP3 DUP6 LT PUSH2 0xEA6 JUMPI DUP8 PUSH1 0x1 PUSH1 0x8 SSTORE DUP1 RETURN JUMPDEST PUSH2 0xEB6 DUP6 DUP5 DUP4 SWAP11 SWAP8 SWAP9 SWAP10 SWAP11 PUSH2 0x5A76 JUMP JUMPDEST CALLDATALOAD SWAP4 PUSH2 0xEC9 PUSH2 0xEC4 DUP7 PUSH2 0x4D8F JUMP JUMPDEST PUSH2 0x4FE1 JUMP JUMPDEST PUSH2 0xEE5 CALLER PUSH1 0x1 PUSH1 0x1 PUSH1 0xA0 SHL SUB PUSH2 0xEDE DUP9 PUSH2 0x4A4D JUMP JUMPDEST AND EQ PUSH2 0x5F4B JUMP JUMPDEST DUP5 DUP7 MSTORE DUP8 DUP1 MSTORE PUSH2 0xEF9 DUP4 DUP3 DUP9 KECCAK256 SLOAD AND PUSH2 0x5FEF JUMP JUMPDEST DUP5 DUP7 MSTORE DUP8 DUP1 MSTORE DUP1 DUP7 KECCAK256 PUSH1 0xFF NOT DUP2 SLOAD AND SWAP1 SSTORE PUSH1 0x21 DUP9 MSTORE DUP6 DUP2 DUP2 KECCAK256 SSTORE CALLER DUP7 MSTORE PUSH1 0x22 DUP9 MSTORE DUP1 DUP7 KECCAK256 SWAP8 DUP7 JUMPDEST DUP10 SLOAD DUP1 DUP3 LT ISZERO PUSH2 0xFE7 JUMPI DUP8 SWAP1 PUSH2 0xF36 DUP4 DUP14 PUSH2 0x44F2 JUMP JUMPDEST SWAP3 SWAP1 SLOAD PUSH1 0x3 SWAP4 DUP5 SHL SHR EQ PUSH2 0xF54 JUMPI POP POP PUSH2 0xF4F SWAP1 PUSH2 0x50FC JUMP JUMPDEST PUSH2 0xF20 JUMP JUMPDEST PUSH1 0x0 SWAP13 SWAP12 SWAP4 SWAP8 SWAP7 SWAP11 SWAP6 SWAP10 SWAP13 SWAP9 SWAP5 SWAP9 NOT DUP2 ADD SWAP1 DUP2 GT PUSH2 0xFD4 JUMPI PUSH2 0xFB1 SWAP3 PUSH2 0xF93 DUP6 SWAP4 PUSH2 0xF87 PUSH2 0xFAC SWAP5 PUSH2 0xFCA SWAP11 SWAP10 SWAP9 PUSH2 0x44F2 JUMP JUMPDEST SWAP1 SLOAD SWAP2 SHL SHR SWAP2 DUP5 PUSH2 0x44F2 JUMP JUMPDEST SWAP1 SWAP2 SWAP1 DUP3 SLOAD SWAP1 PUSH1 0x3 SHL SWAP2 DUP3 SHL SWAP2 PUSH1 0x0 NOT SWAP1 SHL NOT AND OR SWAP1 SSTORE JUMP JUMPDEST PUSH2 0x602E JUMP JUMPDEST CALLER SWAP1 PUSH1 0x0 DUP1 MLOAD PUSH1 0x20 PUSH2 0x6178 DUP4 CODECOPY DUP2 MLOAD SWAP2 MSTORE DUP12 DUP1 LOG3 PUSH2 0x50FC JUMP JUMPDEST SWAP4 SWAP5 SWAP1 SWAP2 SWAP5 PUSH2 0xE96 JUMP JUMPDEST PUSH4 0x4E487B71 PUSH1 0xE0 SHL DUP14 MSTORE PUSH1 0x11 DUP13 MSTORE PUSH1 0x24 DUP14 REVERT JUMPDEST POP POP SWAP4 SWAP3 SWAP7 SWAP1 SWAP5 PUSH2 0xFCA SWAP3 SWAP7 SWAP10 SWAP9 POP PUSH2 0xFB1 JUMP JUMPDEST DUP3 MLOAD PUSH3 0x461BCD PUSH1 0xE5 SHL DUP2 MSTORE DUP1 DUP8 ADD DUP4 SWAP1 MSTORE PUSH1 0x22 PUSH1 0x24 DUP3 ADD MSTORE PUSH32 0x546F6F206D616E7920746F6B656E7320746F20756E7374616B65206174206F6E PUSH1 0x44 DUP3 ADD MSTORE PUSH2 0x6365 PUSH1 0xF0 SHL PUSH1 0x64 DUP3 ADD MSTORE PUSH1 0x84 SWAP1 REVERT JUMPDEST DUP5 DUP1 REVERT JUMPDEST DUP4 DUP1 REVERT JUMPDEST POP POP CALLVALUE PUSH2 0x4E6 JUMPI DUP2 PUSH1 0x3 NOT CALLDATASIZE ADD SLT PUSH2 0x4E6 JUMPI PUSH1 0x20 SWAP1 PUSH1 0xFF PUSH1 0x18 SLOAD AND SWAP1 MLOAD SWAP1 ISZERO ISZERO DUP2 MSTORE RETURN JUMPDEST DUP4 SWAP2 POP CALLVALUE PUSH2 0x4E6 JUMPI PUSH1 0x20 SWAP3 DUP4 PUSH1 0x3 NOT CALLDATASIZE ADD SLT PUSH2 0x5B2 JUMPI PUSH1 0x1 PUSH1 0x1 PUSH1 0x40 SHL SUB SWAP1 DUP3 CALLDATALOAD DUP3 DUP2 GT PUSH2 0x1049 JUMPI PUSH2 0x10AA SWAP1 CALLDATASIZE SWAP1 DUP6 ADD PUSH2 0x4603 JUMP JUMPDEST SWAP4 SWAP1 SWAP3 PUSH2 0x10B5 PUSH2 0x49AE JUMP JUMPDEST PUSH1 0xFF PUSH1 0xF SLOAD AND ISZERO PUSH2 0x11BE JUMPI DUP5 GT PUSH2 0x11AB JUMPI POP PUSH2 0x10DB DUP4 PUSH2 0x10D6 PUSH1 0xD SLOAD PUSH2 0x4660 JUMP JUMPDEST PUSH2 0x5334 JUMP JUMPDEST DUP4 SWAP5 PUSH1 0x1F DUP5 GT PUSH1 0x1 EQ PUSH2 0x1130 JUMPI POP PUSH2 0xB18 SWAP1 DUP4 DUP6 SWAP7 PUSH1 0x0 DUP1 MLOAD PUSH1 0x20 PUSH2 0x6298 DUP4 CODECOPY DUP2 MLOAD SWAP2 MSTORE SWAP7 SWAP2 PUSH2 0x1125 JUMPI JUMPDEST POP DUP5 PUSH1 0x1 SHL SWAP1 PUSH1 0x0 NOT DUP7 PUSH1 0x3 SHL SHR NOT AND OR PUSH1 0xD SSTORE JUMPDEST MLOAD SWAP3 DUP4 SWAP3 DUP4 PUSH2 0x5A0A JUMP JUMPDEST SWAP1 POP DUP4 ADD CALLDATALOAD DUP8 PUSH2 0x1106 JUMP JUMPDEST SWAP5 PUSH1 0x1F NOT DUP5 AND PUSH1 0xD DUP7 MSTORE DUP7 DUP7 KECCAK256 SWAP7 DUP7 SWAP1 JUMPDEST DUP3 DUP3 LT PUSH2 0x1192 JUMPI POP POP SWAP6 PUSH2 0xB18 SWAP3 SWAP2 DUP6 PUSH1 0x0 DUP1 MLOAD PUSH1 0x20 PUSH2 0x6298 DUP4 CODECOPY DUP2 MLOAD SWAP2 MSTORE SWAP8 SWAP9 LT PUSH2 0x1178 JUMPI JUMPDEST POP POP PUSH1 0x1 DUP5 DUP2 SHL ADD PUSH1 0xD SSTORE PUSH2 0x111B JUMP JUMPDEST DUP5 ADD CALLDATALOAD PUSH1 0x0 NOT PUSH1 0x3 DUP8 SWAP1 SHL PUSH1 0xF8 AND SHR NOT AND SWAP1 SSTORE DUP7 DUP1 PUSH2 0x1168 JUMP JUMPDEST DUP4 DUP7 ADD CALLDATALOAD DUP10 SSTORE PUSH1 0x1 SWAP1 SWAP9 ADD SWAP8 SWAP3 DUP4 ADD SWAP3 SWAP1 DUP2 ADD SWAP1 PUSH2 0x1141 JUMP JUMPDEST PUSH4 0x4E487B71 PUSH1 0xE0 SHL DUP6 MSTORE PUSH1 0x41 SWAP1 MSTORE PUSH1 0x24 DUP5 REVERT JUMPDEST POP DUP6 PUSH1 0x64 SWAP3 MLOAD SWAP2 PUSH3 0x461BCD PUSH1 0xE5 SHL DUP4 MSTORE DUP3 ADD MSTORE PUSH1 0x1C PUSH1 0x24 DUP3 ADD MSTORE PUSH28 0x10D85B9B9BDD081B5A59DC985D19481899599BDC99481C995D99585B PUSH1 0x22 SHL PUSH1 0x44 DUP3 ADD MSTORE REVERT JUMPDEST DUP3 DUP5 CALLVALUE PUSH2 0x540 JUMPI PUSH1 0x20 CALLDATASIZE PUSH1 0x3 NOT ADD SLT PUSH2 0x540 JUMPI POP PUSH2 0x1220 PUSH2 0x771 SWAP3 CALLDATALOAD PUSH2 0x595B JUMP JUMPDEST SWAP1 MLOAD SWAP2 DUP3 SWAP2 PUSH1 0x20 DUP4 MSTORE PUSH1 0x20 DUP4 ADD SWAP1 PUSH2 0x4543 JUMP JUMPDEST SWAP2 SWAP1 POP CALLVALUE PUSH2 0x5B2 JUMPI PUSH1 0x20 CALLDATASIZE PUSH1 0x3 NOT ADD SLT PUSH2 0x5B2 JUMPI PUSH2 0x124F PUSH2 0x44B7 JUMP JUMPDEST SWAP2 PUSH2 0x1258 PUSH2 0x49AE JUMP JUMPDEST DUP3 ISZERO ISZERO SWAP3 PUSH1 0x23 SLOAD PUSH2 0xFF00 DUP6 PUSH1 0x8 SHL AND SWAP1 PUSH2 0xFF00 NOT AND OR PUSH1 0x23 SSTORE PUSH1 0x0 EQ PUSH2 0x12C0 JUMPI POP PUSH1 0x0 DUP1 MLOAD PUSH1 0x20 PUSH2 0x6198 DUP4 CODECOPY DUP2 MLOAD SWAP2 MSTORE SWAP2 PUSH1 0x20 SWAP2 PUSH2 0x1294 PUSH2 0x5121 JUMP JUMPDEST PUSH1 0x1 PUSH1 0xFF NOT PUSH1 0x9 SLOAD AND OR PUSH1 0x9 SSTORE PUSH1 0x0 DUP1 MLOAD PUSH1 0x20 PUSH2 0x6278 DUP4 CODECOPY DUP2 MLOAD SWAP2 MSTORE DUP4 DUP3 MLOAD CALLER DUP2 MSTORE LOG1 JUMPDEST MLOAD SWAP1 DUP2 MSTORE LOG1 DUP1 RETURN JUMPDEST PUSH1 0x9 SLOAD SWAP1 PUSH1 0xFF DUP3 AND ISZERO PUSH2 0x1304 JUMPI POP SWAP2 PUSH1 0x20 SWAP2 PUSH1 0x0 DUP1 MLOAD PUSH1 0x20 PUSH2 0x6198 DUP4 CODECOPY DUP2 MLOAD SWAP2 MSTORE SWAP4 PUSH1 0xFF NOT AND PUSH1 0x9 SSTORE PUSH1 0x0 DUP1 MLOAD PUSH1 0x20 PUSH2 0x6158 DUP4 CODECOPY DUP2 MLOAD SWAP2 MSTORE DUP4 DUP3 MLOAD CALLER DUP2 MSTORE LOG1 PUSH2 0x12B8 JUMP JUMPDEST PUSH1 0x64 SWAP1 PUSH1 0x20 DUP5 MLOAD SWAP2 PUSH3 0x461BCD PUSH1 0xE5 SHL DUP4 MSTORE DUP3 ADD MSTORE PUSH1 0x14 PUSH1 0x24 DUP3 ADD MSTORE PUSH20 0x14185D5CD8589B194E881B9BDD081C185D5CD959 PUSH1 0x62 SHL PUSH1 0x44 DUP3 ADD MSTORE REVERT JUMPDEST SWAP1 POP CALLVALUE PUSH2 0x5B2 JUMPI PUSH1 0x20 SWAP2 DUP3 PUSH1 0x3 NOT CALLDATASIZE ADD SLT PUSH2 0x104D JUMPI DUP2 CALLDATALOAD PUSH1 0x1 PUSH1 0x1 PUSH1 0x40 SHL SUB DUP2 GT PUSH2 0x1049 JUMPI PUSH2 0x1370 SWAP1 CALLDATASIZE SWAP1 DUP5 ADD PUSH2 0x4630 JUMP JUMPDEST PUSH2 0x137B SWAP5 SWAP2 SWAP5 PUSH2 0x5165 JUMP JUMPDEST PUSH1 0xFF SWAP4 PUSH2 0x138B DUP6 PUSH1 0x23 SLOAD AND PUSH2 0x5F09 JUMP JUMPDEST PUSH2 0x1396 DUP3 ISZERO ISZERO PUSH2 0x60F3 JUMP JUMPDEST PUSH1 0x14 DUP3 GT PUSH2 0x1445 JUMPI POP DUP6 JUMPDEST DUP2 DUP2 LT PUSH2 0x13B1 JUMPI DUP7 PUSH1 0x1 PUSH1 0x8 SSTORE DUP1 RETURN JUMPDEST DUP1 PUSH2 0x13C0 PUSH2 0x1440 SWAP3 DUP5 DUP10 PUSH2 0x5A76 JUMP JUMPDEST CALLDATALOAD PUSH2 0x13CD PUSH2 0xEC4 DUP3 PUSH2 0x4D8F JUMP JUMPDEST PUSH2 0x13E2 CALLER PUSH1 0x1 PUSH1 0x1 PUSH1 0xA0 SHL SUB PUSH2 0xEDE DUP5 PUSH2 0x4A4D JUMP JUMPDEST DUP1 DUP10 MSTORE DUP5 DUP1 MSTORE PUSH2 0x13F7 DUP8 DUP8 DUP12 KECCAK256 SLOAD AND ISZERO PUSH2 0x5F89 JUMP JUMPDEST DUP1 DUP10 MSTORE DUP5 DUP1 MSTORE DUP6 DUP10 KECCAK256 PUSH1 0x1 PUSH1 0xFF NOT DUP3 SLOAD AND OR SWAP1 SSTORE PUSH1 0x21 DUP6 MSTORE TIMESTAMP DUP7 DUP11 KECCAK256 SSTORE CALLER DUP10 MSTORE PUSH1 0x22 DUP6 MSTORE PUSH2 0x1427 DUP2 DUP8 DUP12 KECCAK256 PUSH2 0x5FCC JUMP JUMPDEST CALLER SWAP1 PUSH1 0x0 DUP1 MLOAD PUSH1 0x20 PUSH2 0x62B8 DUP4 CODECOPY DUP2 MLOAD SWAP2 MSTORE DUP11 DUP1 LOG3 PUSH2 0x50FC JUMP JUMPDEST PUSH2 0x13A1 JUMP JUMPDEST PUSH1 0x64 SWAP1 DUP4 DUP1 DUP7 MLOAD SWAP3 PUSH3 0x461BCD PUSH1 0xE5 SHL DUP5 MSTORE DUP4 ADD MSTORE PUSH1 0x24 DUP3 ADD MSTORE PUSH32 0x546F6F206D616E7920746F6B656E7320746F207374616B65206174206F6E6365 PUSH1 0x44 DUP3 ADD MSTORE REVERT JUMPDEST POP POP CALLVALUE PUSH2 0x4E6 JUMPI DUP2 PUSH1 0x3 NOT CALLDATASIZE ADD SLT PUSH2 0x4E6 JUMPI DUP1 MLOAD PUSH2 0x771 SWAP2 PUSH2 0x75F DUP3 PUSH2 0x758 DUP2 PUSH2 0x469A JUMP JUMPDEST DUP4 SWAP1 CALLVALUE PUSH2 0x4E6 JUMPI PUSH1 0x80 CALLDATASIZE PUSH1 0x3 NOT ADD SLT PUSH2 0x4E6 JUMPI PUSH2 0x14C6 PUSH2 0x44C6 JUMP JUMPDEST SWAP1 PUSH2 0x14CF PUSH2 0x44DC JUMP JUMPDEST PUSH1 0x64 CALLDATALOAD SWAP3 SWAP1 PUSH1 0x44 CALLDATALOAD SWAP1 PUSH1 0x1 PUSH1 0x1 PUSH1 0x40 SHL SUB DUP6 GT PUSH2 0x1532 JUMPI CALLDATASIZE PUSH1 0x23 DUP7 ADD SLT ISZERO PUSH2 0x1532 JUMPI PUSH2 0x150A PUSH2 0x152D SWAP5 DUP7 PUSH1 0x24 PUSH2 0xE05 SWAP9 CALLDATASIZE SWAP4 ADD CALLDATALOAD SWAP2 ADD PUSH2 0x48C4 JUMP JUMPDEST SWAP3 PUSH2 0x151D PUSH2 0x1518 DUP5 CALLER PUSH2 0x4B71 JUMP JUMPDEST PUSH2 0x4A9C JUMP JUMPDEST PUSH2 0x1528 DUP4 DUP4 DUP4 PUSH2 0x4C39 JUMP JUMPDEST PUSH2 0x4ED0 JUMP JUMPDEST PUSH2 0x4B51 JUMP JUMPDEST DUP6 DUP1 REVERT JUMPDEST SWAP1 POP CALLVALUE PUSH2 0x5B2 JUMPI DUP3 PUSH1 0x3 NOT CALLDATASIZE ADD SLT PUSH2 0x5B2 JUMPI PUSH2 0x1550 PUSH2 0x49AE JUMP JUMPDEST PUSH1 0x9 SLOAD SWAP1 PUSH1 0xFF DUP3 AND ISZERO PUSH2 0x1304 JUMPI POP PUSH1 0xFF NOT AND PUSH1 0x9 SSTORE MLOAD CALLER DUP2 MSTORE PUSH1 0x0 DUP1 MLOAD PUSH1 0x20 PUSH2 0x6158 DUP4 CODECOPY DUP2 MLOAD SWAP2 MSTORE SWAP1 PUSH1 0x20 SWAP1 LOG1 DUP1 RETURN JUMPDEST DUP3 DUP5 CALLVALUE PUSH2 0x540 JUMPI PUSH1 0x20 SWAP1 DUP2 PUSH1 0x3 NOT CALLDATASIZE ADD SLT PUSH2 0x540 JUMPI DUP3 SWAP1 PUSH1 0x1 PUSH1 0x1 PUSH1 0xA0 SHL SUB PUSH2 0x15A7 PUSH2 0x44C6 JUMP JUMPDEST AND DUP2 MSTORE PUSH1 0x22 DUP4 MSTORE DUP2 DUP2 KECCAK256 SWAP1 DUP3 MLOAD DUP1 DUP6 DUP5 SLOAD SWAP2 DUP3 DUP2 MSTORE ADD SWAP1 DUP2 SWAP5 DUP5 MSTORE DUP7 DUP5 KECCAK256 SWAP1 DUP5 JUMPDEST DUP2 DUP2 LT PUSH2 0x1619 JUMPI POP POP POP DUP2 PUSH2 0x15DE SWAP2 SUB DUP3 PUSH2 0x4886 JUMP JUMPDEST DUP4 MLOAD SWAP5 DUP6 SWAP5 DUP2 DUP7 ADD SWAP3 DUP3 DUP8 MSTORE MLOAD DUP1 SWAP4 MSTORE DUP6 ADD SWAP4 SWAP3 JUMPDEST DUP3 DUP2 LT PUSH2 0x1602 JUMPI POP POP POP POP SUB SWAP1 RETURN JUMPDEST DUP4 MLOAD DUP6 MSTORE DUP7 SWAP6 POP SWAP4 DUP2 ADD SWAP4 SWAP3 DUP2 ADD SWAP3 PUSH1 0x1 ADD PUSH2 0x15F3 JUMP JUMPDEST DUP3 SLOAD DUP5 MSTORE SWAP3 DUP9 ADD SWAP3 PUSH1 0x1 SWAP3 DUP4 ADD SWAP3 ADD PUSH2 0x15C8 JUMP JUMPDEST SWAP1 POP CALLVALUE PUSH2 0x5B2 JUMPI PUSH1 0x20 DUP1 PUSH1 0x3 NOT CALLDATASIZE ADD SLT PUSH2 0x104D JUMPI PUSH1 0x22 SWAP3 PUSH2 0x16C8 SWAP3 CALLDATALOAD SWAP4 DUP5 SWAP3 PUSH2 0x1654 PUSH2 0x5165 JUMP JUMPDEST PUSH2 0x1662 PUSH1 0xFF PUSH1 0x23 SLOAD AND PUSH2 0x5F09 JUMP JUMPDEST PUSH2 0x166E PUSH2 0xEC4 DUP6 PUSH2 0x4D8F JUMP JUMPDEST PUSH2 0x168A PUSH2 0x167A DUP6 PUSH2 0x4A4D JUMP JUMPDEST PUSH1 0x1 PUSH1 0x1 PUSH1 0xA0 SHL SUB AND CALLER EQ PUSH2 0x5F4B JUMP JUMPDEST DUP4 DUP8 MSTORE DUP1 DUP1 MSTORE PUSH2 0x16A0 PUSH1 0xFF DUP5 DUP10 KECCAK256 SLOAD AND ISZERO PUSH2 0x5F89 JUMP JUMPDEST DUP4 DUP8 MSTORE DUP1 DUP1 MSTORE DUP3 DUP8 KECCAK256 PUSH1 0x1 PUSH1 0xFF NOT DUP3 SLOAD AND OR SWAP1 SSTORE PUSH1 0x21 DUP2 MSTORE TIMESTAMP DUP4 DUP9 KECCAK256 SSTORE CALLER DUP8 MSTORE MSTORE DUP5 KECCAK256 PUSH2 0x5FCC JUMP JUMPDEST CALLER SWAP1 PUSH1 0x0 DUP1 MLOAD PUSH1 0x20 PUSH2 0x62B8 DUP4 CODECOPY DUP2 MLOAD SWAP2 MSTORE DUP4 DUP1 LOG3 PUSH1 0x1 PUSH1 0x8 SSTORE DUP1 RETURN JUMPDEST SWAP1 POP CALLVALUE PUSH2 0x5B2 JUMPI DUP3 PUSH1 0x3 NOT CALLDATASIZE ADD SLT PUSH2 0x5B2 JUMPI PUSH2 0x16FE PUSH2 0x49AE JUMP JUMPDEST PUSH1 0xF SLOAD SWAP2 PUSH1 0xFF DUP4 AND PUSH2 0x173D JUMPI PUSH1 0xFF NOT DUP4 AND PUSH1 0x1 OR PUSH1 0xF SSTORE DUP4 PUSH32 0x8775102FDE7505699B9D1E2B921E3786C1B5C7B2AEC306ADD2B484A8EF0CBAC DUP2 DUP1 LOG1 DUP1 RETURN JUMPDEST SWAP1 PUSH1 0x20 PUSH1 0x64 SWAP3 MLOAD SWAP2 PUSH3 0x461BCD PUSH1 0xE5 SHL DUP4 MSTORE DUP3 ADD MSTORE PUSH1 0x17 PUSH1 0x24 DUP3 ADD MSTORE PUSH23 0x151BDAD95B9CC8185B1C9958591E481C995D99585B1959 PUSH1 0x4A SHL PUSH1 0x44 DUP3 ADD MSTORE REVERT JUMPDEST DUP3 DUP5 CALLVALUE PUSH2 0x540 JUMPI DUP1 PUSH1 0x3 NOT CALLDATASIZE ADD SLT PUSH2 0x540 JUMPI PUSH1 0x11 SLOAD SWAP2 DUP2 JUMPDEST DUP4 DUP2 LT PUSH2 0x17A3 JUMPI PUSH1 0x20 DUP4 DUP4 MLOAD SWAP1 DUP2 MSTORE RETURN JUMPDEST SWAP2 PUSH2 0x17BF PUSH2 0x17C5 SWAP2 PUSH1 0x1 PUSH2 0x17B6 DUP7 PUSH2 0x4919 JUMP JUMPDEST POP ADD SLOAD SWAP1 PUSH2 0x5551 JUMP JUMPDEST SWAP3 PUSH2 0x50FC JUMP JUMPDEST PUSH2 0x1792 JUMP JUMPDEST SWAP2 SWAP1 POP CALLVALUE PUSH2 0x5B2 JUMPI DUP1 PUSH1 0x3 NOT CALLDATASIZE ADD SLT PUSH2 0x5B2 JUMPI PUSH2 0x17E5 PUSH2 0x44C6 JUMP JUMPDEST SWAP1 PUSH1 0x24 CALLDATALOAD SWAP2 DUP3 ISZERO ISZERO DUP1 SWAP4 SUB PUSH2 0x1894 JUMPI PUSH1 0x1 PUSH1 0x1 PUSH1 0xA0 SHL SUB AND SWAP3 CALLER DUP5 EQ PUSH2 0x1856 JUMPI POP CALLER DUP5 MSTORE PUSH1 0x5 PUSH1 0x20 MSTORE DUP1 DUP5 KECCAK256 DUP4 PUSH1 0x0 MSTORE PUSH1 0x20 MSTORE DUP1 PUSH1 0x0 KECCAK256 PUSH1 0xFF NOT DUP2 SLOAD AND PUSH1 0xFF DUP5 AND OR SWAP1 SSTORE MLOAD SWAP1 DUP2 MSTORE PUSH32 0x17307EAB39AB6107E8899845AD3D59BD9653F200F220920489CA2B5937696C31 PUSH1 0x20 CALLER SWAP3 LOG3 DUP1 RETURN JUMPDEST PUSH1 0x20 PUSH1 0x64 SWAP3 MLOAD SWAP2 PUSH3 0x461BCD PUSH1 0xE5 SHL DUP4 MSTORE DUP3 ADD MSTORE PUSH1 0x19 PUSH1 0x24 DUP3 ADD MSTORE PUSH25 0x22A9219B99189D1030B8383937BB32903A379031B0B63632B9 PUSH1 0x39 SHL PUSH1 0x44 DUP3 ADD MSTORE REVERT JUMPDEST PUSH1 0x0 DUP1 REVERT JUMPDEST POP POP CALLVALUE PUSH2 0x4E6 JUMPI DUP2 PUSH1 0x3 NOT CALLDATASIZE ADD SLT PUSH2 0x4E6 JUMPI MLOAD SWAP1 DUP2 MSTORE PUSH1 0x20 SWAP1 RETURN JUMPDEST POP POP CALLVALUE PUSH2 0x4E6 JUMPI DUP2 PUSH1 0x3 NOT CALLDATASIZE ADD SLT PUSH2 0x4E6 JUMPI PUSH1 0x20 SWAP1 PUSH1 0x1A SLOAD SWAP1 MLOAD SWAP1 DUP2 MSTORE RETURN JUMPDEST POP POP CALLVALUE PUSH2 0x4E6 JUMPI DUP2 PUSH1 0x3 NOT CALLDATASIZE ADD SLT PUSH2 0x4E6 JUMPI PUSH1 0x20 SWAP1 PUSH2 0x18F0 PUSH2 0x5D64 JUMP JUMPDEST SWAP1 MLOAD SWAP1 ISZERO ISZERO DUP2 MSTORE RETURN JUMPDEST POP POP CALLVALUE PUSH2 0x4E6 JUMPI PUSH1 0x20 CALLDATASIZE PUSH1 0x3 NOT ADD SLT PUSH2 0x4E6 JUMPI PUSH1 0x20 SWAP2 PUSH1 0xFF SWAP1 DUP3 SWAP1 PUSH1 0x1 PUSH1 0x1 PUSH1 0xA0 SHL SUB PUSH2 0x1924 PUSH2 0x44C6 JUMP JUMPDEST AND DUP2 MSTORE PUSH1 0x15 DUP6 MSTORE KECCAK256 SLOAD AND SWAP1 MLOAD SWAP1 ISZERO ISZERO DUP2 MSTORE RETURN JUMPDEST POP POP CALLVALUE PUSH2 0x4E6 JUMPI PUSH1 0x20 CALLDATASIZE PUSH1 0x3 NOT ADD SLT PUSH2 0x4E6 JUMPI PUSH1 0x20 SWAP2 DUP2 SWAP1 PUSH1 0x1 PUSH1 0x1 PUSH1 0xA0 SHL SUB PUSH2 0x195F PUSH2 0x44C6 JUMP JUMPDEST AND DUP2 MSTORE PUSH1 0x16 DUP5 MSTORE KECCAK256 SLOAD SWAP1 MLOAD SWAP1 DUP2 MSTORE RETURN JUMPDEST SWAP1 POP DUP3 CALLVALUE PUSH2 0x540 JUMPI PUSH1 0x20 CALLDATASIZE PUSH1 0x3 NOT ADD SLT PUSH2 0x540 JUMPI DUP2 CALLDATALOAD SWAP1 PUSH1 0x11 SLOAD DUP3 LT ISZERO PUSH2 0x540 JUMPI POP PUSH2 0x19F9 SWAP3 PUSH2 0x19A1 PUSH2 0x771 SWAP3 PUSH2 0x4919 JUMP JUMPDEST POP SWAP3 DUP2 MLOAD SWAP4 PUSH2 0x19BB DUP6 PUSH2 0x19B4 DUP2 DUP5 PUSH2 0x4789 JUMP JUMPDEST SUB DUP7 PUSH2 0x4886 JUMP JUMPDEST PUSH1 0x1 DUP2 ADD SLOAD SWAP3 PUSH1 0x2 DUP3 ADD SLOAD SWAP1 PUSH2 0x19E6 PUSH1 0x3 DUP5 ADD SLOAD SWAP4 PUSH2 0x19DF DUP4 MLOAD DUP1 SWAP8 DUP2 SWAP4 ADD PUSH2 0x4789 JUMP JUMPDEST SUB DUP6 PUSH2 0x4886 JUMP JUMPDEST DUP1 MLOAD SWAP8 DUP9 SWAP8 PUSH1 0xA0 DUP10 MSTORE PUSH1 0xA0 DUP10 ADD SWAP1 PUSH2 0x4543 JUMP JUMPDEST SWAP5 PUSH1 0x20 DUP9 ADD MSTORE DUP7 ADD MSTORE PUSH1 0x60 DUP6 ADD MSTORE DUP4 DUP3 SUB PUSH1 0x80 DUP6 ADD MSTORE PUSH2 0x4543 JUMP JUMPDEST DUP3 DUP5 CALLVALUE PUSH2 0x540 JUMPI DUP1 PUSH1 0x3 NOT CALLDATASIZE ADD SLT PUSH2 0x540 JUMPI POP DUP1 MLOAD PUSH1 0x0 SWAP2 PUSH1 0x1 DUP1 SLOAD PUSH2 0x1A39 DUP2 PUSH2 0x4660 JUMP JUMPDEST DUP1 DUP6 MSTORE SWAP1 DUP3 DUP2 AND SWAP1 DUP2 ISZERO PUSH2 0x1A9F JUMPI POP PUSH1 0x1 EQ PUSH2 0x1A61 JUMPI JUMPDEST POP POP PUSH2 0x75F DUP3 PUSH2 0x771 SWAP5 SUB DUP4 PUSH2 0x4886 JUMP JUMPDEST SWAP4 POP DUP1 PUSH1 0x0 MSTORE PUSH1 0x20 SWAP4 DUP5 PUSH1 0x0 KECCAK256 SWAP2 PUSH1 0x0 SWAP3 JUMPDEST DUP3 DUP5 LT PUSH2 0x1A8C JUMPI POP POP POP DUP3 ADD SWAP1 SWAP3 ADD SWAP2 PUSH2 0x75F DUP3 PUSH2 0x1A50 JUMP JUMPDEST DUP1 SLOAD DUP7 DUP6 ADD DUP9 ADD MSTORE SWAP3 DUP7 ADD SWAP3 DUP2 ADD PUSH2 0x1A73 JUMP JUMPDEST PUSH2 0x771 SWAP7 POP PUSH2 0x75F SWAP4 POP PUSH1 0x20 SWAP2 POP SWAP2 DUP6 SWAP3 PUSH1 0xFF NOT AND DUP3 DUP5 ADD MSTORE ISZERO ISZERO PUSH1 0x5 SHL DUP3 ADD ADD SWAP5 POP PUSH2 0x1A50 JUMP JUMPDEST SWAP1 POP CALLVALUE PUSH2 0x5B2 JUMPI DUP3 PUSH1 0x3 NOT CALLDATASIZE ADD SLT PUSH2 0x5B2 JUMPI PUSH1 0x11 SLOAD SWAP1 PUSH1 0x1 PUSH1 0x1 PUSH1 0x40 SHL SUB DUP3 GT PUSH2 0x1B9B JUMPI POP DUP2 MLOAD PUSH1 0x5 SWAP4 SWAP1 PUSH1 0x20 PUSH2 0x1B02 DUP5 DUP8 SHL DUP3 ADD DUP4 PUSH2 0x4886 JUMP JUMPDEST DUP4 DUP3 MSTORE DUP1 DUP3 ADD SWAP4 DUP5 PUSH1 0x11 DUP6 MSTORE DUP3 DUP6 KECCAK256 DUP9 DUP7 SWAP3 JUMPDEST DUP5 DUP5 LT PUSH2 0x1B75 JUMPI POP POP POP POP POP DUP5 MLOAD SWAP5 DUP2 DUP7 ADD SWAP3 DUP3 DUP8 MSTORE MLOAD DUP1 SWAP4 MSTORE DUP3 DUP2 DUP8 ADD SWAP8 SHL DUP7 ADD ADD SWAP4 SWAP3 SWAP6 JUMPDEST DUP3 DUP8 LT PUSH2 0x1B49 JUMPI DUP6 DUP6 SUB DUP7 RETURN JUMPDEST SWAP1 SWAP2 SWAP3 SWAP4 DUP3 DUP1 PUSH2 0x1B65 PUSH1 0x1 SWAP4 PUSH1 0x3F NOT DUP11 DUP3 SUB ADD DUP7 MSTORE DUP9 MLOAD PUSH2 0x459D JUMP JUMPDEST SWAP7 ADD SWAP3 ADD SWAP7 ADD SWAP6 SWAP3 SWAP2 SWAP1 SWAP3 PUSH2 0x1B3C JUMP JUMPDEST SWAP1 DUP6 PUSH1 0x1 SWAP3 PUSH2 0x1B87 DUP6 SWAP11 SWAP9 SWAP10 SWAP11 PUSH2 0x4F78 JUMP JUMPDEST DUP2 MSTORE ADD SWAP3 ADD SWAP3 ADD SWAP2 SWAP1 DUP10 SWAP1 SWAP7 SWAP6 SWAP5 SWAP7 PUSH2 0x1B15 JUMP JUMPDEST PUSH4 0x4E487B71 PUSH1 0xE0 SHL DUP5 MSTORE PUSH1 0x41 SWAP1 MSTORE PUSH1 0x24 DUP4 REVERT JUMPDEST DUP4 SWAP2 POP CALLVALUE PUSH2 0x4E6 JUMPI PUSH1 0x20 SWAP3 DUP4 PUSH1 0x3 NOT CALLDATASIZE ADD SLT PUSH2 0x5B2 JUMPI PUSH1 0x1 PUSH1 0x1 PUSH1 0x40 SHL SUB SWAP1 DUP3 CALLDATALOAD DUP3 DUP2 GT PUSH2 0x1049 JUMPI PUSH2 0x1BE3 SWAP1 CALLDATASIZE SWAP1 DUP6 ADD PUSH2 0x4603 JUMP JUMPDEST SWAP4 SWAP1 SWAP3 PUSH2 0x1BEE PUSH2 0x49AE JUMP JUMPDEST DUP5 GT PUSH2 0x11AB JUMPI POP PUSH2 0x1C00 PUSH1 0xE SLOAD PUSH2 0x4660 JUMP JUMPDEST PUSH1 0x1F DUP2 GT PUSH2 0x1CD9 JUMPI JUMPDEST POP DUP4 SWAP5 PUSH1 0x1F DUP5 GT PUSH1 0x1 EQ PUSH2 0x1C5E JUMPI POP PUSH2 0xB18 SWAP1 DUP4 DUP6 SWAP7 PUSH1 0x0 DUP1 MLOAD PUSH1 0x20 PUSH2 0x62F8 DUP4 CODECOPY DUP2 MLOAD SWAP2 MSTORE SWAP7 SWAP2 PUSH2 0x1C53 JUMPI JUMPDEST POP DUP5 PUSH1 0x1 SHL SWAP1 PUSH1 0x0 NOT DUP7 PUSH1 0x3 SHL SHR NOT AND OR PUSH1 0xE SSTORE MLOAD SWAP3 DUP4 SWAP3 DUP4 PUSH2 0x5A0A JUMP JUMPDEST SWAP1 POP DUP4 ADD CALLDATALOAD DUP8 PUSH2 0x1C35 JUMP JUMPDEST SWAP5 PUSH1 0x1F NOT DUP5 AND PUSH1 0xE DUP7 MSTORE DUP7 DUP7 KECCAK256 SWAP7 DUP7 SWAP1 JUMPDEST DUP3 DUP3 LT PUSH2 0x1CC0 JUMPI POP POP SWAP6 PUSH2 0xB18 SWAP3 SWAP2 DUP6 PUSH1 0x0 DUP1 MLOAD PUSH1 0x20 PUSH2 0x62F8 DUP4 CODECOPY DUP2 MLOAD SWAP2 MSTORE SWAP8 SWAP9 LT PUSH2 0x1CA6 JUMPI JUMPDEST POP POP PUSH1 0x1 DUP5 DUP2 SHL ADD PUSH1 0xE SSTORE PUSH2 0x111B JUMP JUMPDEST DUP5 ADD CALLDATALOAD PUSH1 0x0 NOT PUSH1 0x3 DUP8 SWAP1 SHL PUSH1 0xF8 AND SHR NOT AND SWAP1 SSTORE DUP7 DUP1 PUSH2 0x1C96 JUMP JUMPDEST DUP4 DUP7 ADD CALLDATALOAD DUP10 SSTORE PUSH1 0x1 SWAP1 SWAP9 ADD SWAP8 SWAP3 DUP4 ADD SWAP3 SWAP1 DUP2 ADD SWAP1 PUSH2 0x1C6F JUMP JUMPDEST PUSH1 0xE PUSH1 0x0 MSTORE DUP6 PUSH1 0x0 KECCAK256 PUSH1 0x1F DUP6 ADD PUSH1 0x5 SHR DUP2 ADD SWAP2 DUP8 DUP7 LT PUSH2 0x1D16 JUMPI JUMPDEST PUSH1 0x1F ADD PUSH1 0x5 SHR ADD SWAP1 JUMPDEST DUP2 DUP2 LT PUSH2 0x1D0A JUMPI POP PUSH2 0x1C09 JUMP JUMPDEST PUSH1 0x0 DUP2 SSTORE PUSH1 0x1 ADD PUSH2 0x1CFD JUMP JUMPDEST SWAP1 SWAP2 POP DUP2 SWAP1 PUSH2 0x1CF4 JUMP JUMPDEST POP POP CALLVALUE PUSH2 0x4E6 JUMPI DUP2 PUSH1 0x3 NOT CALLDATASIZE ADD SLT PUSH2 0x4E6 JUMPI PUSH1 0x20 SWAP1 PUSH1 0xFF PUSH1 0x1E SLOAD AND SWAP1 MLOAD SWAP1 ISZERO ISZERO DUP2 MSTORE RETURN JUMPDEST SWAP1 POP CALLVALUE PUSH2 0x5B2 JUMPI DUP2 PUSH1 0x3 NOT CALLDATASIZE ADD SLT PUSH2 0x5B2 JUMPI DUP2 PUSH1 0x20 SWAP4 PUSH2 0x1D62 PUSH2 0x44DC JUMP JUMPDEST SWAP3 CALLDATALOAD DUP2 MSTORE PUSH1 0xA DUP6 MSTORE KECCAK256 SWAP1 PUSH1 0x1 DUP1 PUSH1 0xA0 SHL SUB AND PUSH1 0x0 MSTORE DUP3 MSTORE PUSH1 0xFF DUP2 PUSH1 0x0 KECCAK256 SLOAD AND SWAP1 MLOAD SWAP1 ISZERO ISZERO DUP2 MSTORE RETURN JUMPDEST POP POP CALLVALUE PUSH2 0x4E6 JUMPI DUP2 PUSH1 0x3 NOT CALLDATASIZE ADD SLT PUSH2 0x4E6 JUMPI PUSH1 0x20 SWAP1 MLOAD PUSH32 0xF18246D2E788C2A885EC6AEEE43FC7C89077B8B7A1E52E99F27F5889E429E2F5 DUP2 MSTORE RETURN JUMPDEST POP POP CALLVALUE PUSH2 0x4E6 JUMPI DUP2 PUSH1 0x3 NOT CALLDATASIZE ADD SLT PUSH2 0x4E6 JUMPI PUSH1 0x20 SWAP1 MLOAD PUSH1 0xA DUP2 MSTORE RETURN JUMPDEST POP POP CALLVALUE PUSH2 0x4E6 JUMPI DUP2 PUSH1 0x3 NOT CALLDATASIZE ADD SLT PUSH2 0x4E6 JUMPI PUSH1 0x7 SLOAD SWAP1 MLOAD PUSH1 0x1 PUSH1 0x1 PUSH1 0xA0 SHL SUB SWAP1 SWAP2 AND DUP2 MSTORE PUSH1 0x20 SWAP1 RETURN JUMPDEST SWAP2 SWAP1 POP CALLVALUE PUSH2 0x5B2 JUMPI PUSH1 0xA0 CALLDATASIZE PUSH1 0x3 NOT ADD SLT PUSH2 0x5B2 JUMPI DUP2 CALLDATALOAD SWAP2 PUSH1 0x1 PUSH1 0x1 PUSH1 0x40 SHL SUB PUSH1 0x24 CALLDATALOAD DUP2 DUP2 GT PUSH2 0x1532 JUMPI PUSH2 0x1E40 SWAP1 CALLDATASIZE SWAP1 DUP5 ADD PUSH2 0x4603 JUMP JUMPDEST SWAP4 SWAP1 SWAP2 PUSH1 0x64 CALLDATALOAD PUSH1 0x84 CALLDATALOAD DUP3 DUP2 GT PUSH2 0x20E6 JUMPI PUSH2 0x1E5D SWAP1 CALLDATASIZE SWAP1 DUP8 ADD PUSH2 0x4603 JUMP JUMPDEST SWAP2 SWAP1 SWAP6 PUSH2 0x1E68 PUSH2 0x49AE JUMP JUMPDEST PUSH1 0x11 SLOAD DUP10 LT ISZERO PUSH2 0x20AE JUMPI PUSH1 0x3 PUSH2 0x1E7D DUP11 PUSH2 0x4919 JUMP JUMPDEST POP ADD SLOAD DUP3 LT PUSH2 0x2055 JUMPI PUSH2 0x1E8F DUP10 PUSH2 0x4919 JUMP JUMPDEST POP DUP5 DUP10 GT PUSH2 0x2042 JUMPI DUP1 PUSH2 0x1EAD DUP11 PUSH2 0x1EA7 DUP6 SWAP5 SLOAD PUSH2 0x4660 JUMP JUMPDEST DUP4 PUSH2 0x5388 JUMP JUMPDEST DUP10 DUP13 DUP14 PUSH1 0x1F DUP4 GT PUSH1 0x1 EQ PUSH2 0x1FD9 JUMPI SWAP2 PUSH2 0x1FCE JUMPI JUMPDEST POP DUP11 PUSH1 0x1 SHL SWAP1 PUSH1 0x0 NOT DUP13 PUSH1 0x3 SHL SHR NOT AND OR DUP2 SSTORE JUMPDEST PUSH1 0x1 SWAP4 PUSH1 0x44 CALLDATALOAD DUP6 DUP4 ADD SSTORE PUSH1 0x2 DUP3 ADD SSTORE ADD SWAP4 DUP4 GT PUSH2 0x1FBB JUMPI POP SWAP1 DUP3 SWAP2 PUSH2 0x1F06 DUP3 PUSH2 0x1F00 DUP11 SWAP8 SWAP7 SLOAD PUSH2 0x4660 JUMP JUMPDEST DUP6 PUSH2 0x5388 JUMP JUMPDEST DUP10 PUSH1 0x1F DUP4 GT PUSH1 0x1 EQ PUSH2 0x1F51 JUMPI DUP3 SWAP2 DUP3 SWAP2 PUSH1 0x20 SWAP10 DUP14 SWAP5 PUSH2 0x1F46 JUMPI JUMPDEST POP POP SHL SWAP2 PUSH1 0x0 NOT SWAP1 PUSH1 0x3 SHL SHR NOT AND OR SWAP1 SSTORE JUMPDEST MLOAD SWAP4 DUP5 SWAP3 DUP4 CALLDATACOPY DUP2 ADD PUSH1 0x13 DUP2 MSTORE SUB ADD SWAP1 KECCAK256 SSTORE DUP1 RETURN JUMPDEST ADD CALLDATALOAD SWAP3 POP CODESIZE DUP1 PUSH2 0x1F20 JUMP JUMPDEST PUSH1 0x1F SWAP3 SWAP2 SWAP3 NOT DUP3 AND SWAP8 DUP5 DUP13 MSTORE PUSH1 0x20 SWAP2 DUP3 DUP14 KECCAK256 SWAP3 DUP14 SWAP1 JUMPDEST DUP12 DUP3 LT PUSH2 0x1FA1 JUMPI POP POP DUP4 PUSH1 0x20 SWAP11 LT PUSH2 0x1F87 JUMPI JUMPDEST POP POP POP DUP2 SHL ADD SWAP1 SSTORE PUSH2 0x1F32 JUMP JUMPDEST ADD CALLDATALOAD PUSH1 0x0 NOT PUSH1 0x3 DUP5 SWAP1 SHL PUSH1 0xF8 AND SHR NOT AND SWAP1 SSTORE CODESIZE DUP1 DUP1 PUSH2 0x1F7A JUMP JUMPDEST DUP3 DUP5 ADD CALLDATALOAD DUP6 SSTORE DUP13 SWAP10 POP SWAP4 DUP7 ADD SWAP4 SWAP2 DUP3 ADD SWAP2 SWAP1 DUP2 ADD SWAP1 PUSH2 0x1F67 JUMP JUMPDEST PUSH4 0x4E487B71 PUSH1 0xE0 SHL DUP11 MSTORE PUSH1 0x41 SWAP1 MSTORE PUSH1 0x24 DUP10 REVERT JUMPDEST SWAP1 POP DUP9 ADD CALLDATALOAD CODESIZE PUSH2 0x1EC1 JUMP JUMPDEST DUP4 DUP2 MSTORE PUSH1 0x20 DUP1 DUP3 KECCAK256 SWAP4 SWAP2 PUSH1 0x1F NOT DUP4 AND SWAP2 JUMPDEST DUP14 DUP4 DUP4 LT PUSH2 0x2024 JUMPI POP POP POP LT PUSH2 0x200A JUMPI JUMPDEST POP POP PUSH1 0x1 DUP11 DUP2 SHL ADD DUP2 SSTORE PUSH2 0x1ED5 JUMP JUMPDEST DUP10 ADD CALLDATALOAD PUSH1 0x0 NOT PUSH1 0x3 DUP14 SWAP1 SHL PUSH1 0xF8 AND SHR NOT AND SWAP1 SSTORE CODESIZE DUP1 PUSH2 0x1FFB JUMP JUMPDEST DUP6 ADD CALLDATALOAD DUP7 SSTORE DUP9 SWAP8 POP PUSH1 0x1 SWAP1 SWAP6 ADD SWAP5 SWAP4 DUP5 ADD SWAP4 DUP16 SWAP4 POP SWAP1 DUP2 ADD SWAP1 PUSH2 0x1FEA JUMP JUMPDEST PUSH4 0x4E487B71 PUSH1 0xE0 SHL DUP12 MSTORE PUSH1 0x41 DUP3 MSTORE PUSH1 0x24 DUP12 REVERT JUMPDEST PUSH1 0x84 SWAP1 PUSH1 0x20 DUP7 MLOAD SWAP2 PUSH3 0x461BCD PUSH1 0xE5 SHL DUP4 MSTORE DUP3 ADD MSTORE PUSH1 0x2D PUSH1 0x24 DUP3 ADD MSTORE PUSH32 0x4D617820737570706C792063616E6E6F74206265206C657373207468616E2063 PUSH1 0x44 DUP3 ADD MSTORE PUSH13 0x757272656E7420737570706C79 PUSH1 0x98 SHL PUSH1 0x64 DUP3 ADD MSTORE REVERT JUMPDEST PUSH1 0x64 SWAP1 PUSH1 0x20 DUP7 MLOAD SWAP2 PUSH3 0x461BCD PUSH1 0xE5 SHL DUP4 MSTORE DUP3 ADD MSTORE PUSH1 0x12 PUSH1 0x24 DUP3 ADD MSTORE PUSH18 0x92DCECC2D8D2C840E8D2CAE440D2DCC8CAF PUSH1 0x73 SHL PUSH1 0x44 DUP3 ADD MSTORE REVERT JUMPDEST DUP9 DUP1 REVERT JUMPDEST SWAP1 POP CALLVALUE PUSH2 0x5B2 JUMPI PUSH2 0x20FA CALLDATASIZE PUSH2 0x48FB JUMP JUMPDEST PUSH2 0x2108 SWAP6 SWAP4 SWAP6 SWAP5 SWAP2 SWAP5 PUSH2 0x49AE JUMP JUMPDEST PUSH1 0x1E SLOAD SWAP2 PUSH1 0xFF DUP4 AND PUSH2 0x21A4 JUMPI POP SWAP2 PUSH1 0x1 DUP7 SWAP5 SWAP3 PUSH1 0x80 SWAP7 SWAP5 PUSH2 0x214B DUP5 PUSH32 0xA832766A05F1BD0298B0268308621777CFE1E4EEA23AFE7C06BEEA79BC6DDD2D SWAP11 GT PUSH2 0x5C15 JUMP JUMPDEST PUSH2 0x2156 DUP7 ISZERO ISZERO PUSH2 0x5C77 JUMP JUMPDEST DUP1 ISZERO ISZERO DUP1 PUSH2 0x219A JUMPI JUMPDEST PUSH2 0x2168 SWAP1 PUSH2 0x5CC3 JUMP JUMPDEST DUP7 PUSH1 0x19 SSTORE DUP4 PUSH1 0x1A SSTORE DUP6 PUSH1 0x1C SSTORE PUSH1 0x1D SSTORE TIMESTAMP PUSH1 0x1B SSTORE PUSH1 0xFF NOT AND OR PUSH1 0x1E SSTORE DUP2 MLOAD SWAP4 DUP5 MSTORE PUSH1 0x20 DUP5 ADD MSTORE DUP3 ADD MSTORE TIMESTAMP PUSH1 0x60 DUP3 ADD MSTORE LOG1 DUP1 RETURN JUMPDEST POP DUP6 DUP2 GT ISZERO PUSH2 0x215F JUMP JUMPDEST PUSH1 0x64 SWAP1 PUSH1 0x20 DUP7 MLOAD SWAP2 PUSH3 0x461BCD PUSH1 0xE5 SHL DUP4 MSTORE DUP3 ADD MSTORE PUSH1 0x16 PUSH1 0x24 DUP3 ADD MSTORE PUSH22 0x41756374696F6E20616C726561647920616374697665 PUSH1 0x50 SHL PUSH1 0x44 DUP3 ADD MSTORE REVERT JUMPDEST DUP3 DUP5 CALLVALUE PUSH2 0x540 JUMPI PUSH1 0x20 CALLDATASIZE PUSH1 0x3 NOT ADD SLT PUSH2 0x540 JUMPI DUP3 CALLDATALOAD SWAP1 PUSH1 0x1 PUSH1 0x1 PUSH1 0x40 SHL SUB DUP3 GT PUSH2 0x540 JUMPI CALLDATASIZE PUSH1 0x23 DUP4 ADD SLT ISZERO PUSH2 0x540 JUMPI POP PUSH1 0x20 PUSH2 0x2229 DUP2 SWAP5 DUP4 PUSH1 0x24 PUSH2 0x223B SWAP6 CALLDATASIZE SWAP4 ADD CALLDATALOAD SWAP2 ADD PUSH2 0x48C4 JUMP JUMPDEST DUP2 DUP5 MLOAD SWAP4 DUP3 DUP6 DUP1 SWAP5 MLOAD SWAP4 DUP5 SWAP3 ADD PUSH2 0x4520 JUMP JUMPDEST DUP2 ADD PUSH1 0x13 DUP2 MSTORE SUB ADD SWAP1 KECCAK256 SLOAD SWAP1 MLOAD SWAP1 DUP2 MSTORE RETURN JUMPDEST SWAP1 POP CALLVALUE PUSH2 0x5B2 JUMPI DUP2 PUSH1 0x3 NOT CALLDATASIZE ADD SLT PUSH2 0x5B2 JUMPI PUSH2 0x2267 PUSH2 0x44C6 JUMP JUMPDEST PUSH1 0x24 CALLDATALOAD SWAP1 PUSH2 0x2273 PUSH2 0x49AE JUMP JUMPDEST PUSH1 0x1 PUSH1 0x1 PUSH1 0xA0 SHL SUB SWAP1 DUP2 AND SWAP3 DUP4 ISZERO PUSH2 0x232F JUMPI PUSH1 0x20 DUP4 SWAP2 DUP4 PUSH1 0x7 SLOAD AND SWAP1 PUSH2 0x22AA DUP9 MLOAD SWAP5 DUP6 SWAP4 DUP5 SWAP4 PUSH4 0xA9059CBB PUSH1 0xE0 SHL DUP6 MSTORE DUP5 ADD PUSH2 0x45E8 JUMP JUMPDEST SUB DUP2 DUP10 DUP9 GAS CALL DUP1 ISZERO PUSH2 0x2325 JUMPI PUSH2 0x22EE JUMPI JUMPDEST POP PUSH32 0xACA8FB252CDE442184E5F10E0F2E6E4029E8CD7717CAE63559079610702436AA SWAP2 PUSH1 0x20 SWAP2 PUSH1 0x7 SLOAD AND SWAP5 MLOAD SWAP1 DUP2 MSTORE LOG3 DUP1 RETURN JUMPDEST PUSH1 0x20 DUP2 RETURNDATASIZE DUP3 GT PUSH2 0x231D JUMPI JUMPDEST DUP2 PUSH2 0x2306 PUSH1 0x20 SWAP4 DUP4 PUSH2 0x4886 JUMP JUMPDEST DUP2 ADD SUB SLT PUSH2 0x1532 JUMPI MLOAD DUP1 ISZERO ISZERO SUB PUSH2 0x1049 JUMPI CODESIZE PUSH2 0x22BB JUMP JUMPDEST RETURNDATASIZE SWAP2 POP PUSH2 0x22F9 JUMP JUMPDEST DUP6 MLOAD RETURNDATASIZE DUP9 DUP3 RETURNDATACOPY RETURNDATASIZE SWAP1 REVERT JUMPDEST PUSH1 0x64 SWAP1 PUSH1 0x20 DUP7 MLOAD SWAP2 PUSH3 0x461BCD PUSH1 0xE5 SHL DUP4 MSTORE DUP3 ADD MSTORE PUSH1 0x15 PUSH1 0x24 DUP3 ADD MSTORE PUSH21 0x496E76616C696420746F6B656E2061646472657373 PUSH1 0x58 SHL PUSH1 0x44 DUP3 ADD MSTORE REVERT JUMPDEST DUP4 SWAP2 POP CALLVALUE PUSH2 0x4E6 JUMPI PUSH1 0x20 SWAP3 DUP4 PUSH1 0x3 NOT CALLDATASIZE ADD SLT PUSH2 0x5B2 JUMPI DUP2 CALLDATALOAD SWAP2 PUSH2 0x238B PUSH2 0x5121 JUMP JUMPDEST PUSH2 0x239D PUSH1 0xFF PUSH1 0x23 SLOAD PUSH1 0x8 SHR AND ISZERO PUSH2 0x5024 JUMP JUMPDEST PUSH2 0x23A5 PUSH2 0x5165 JUMP JUMPDEST PUSH1 0xFF PUSH1 0x18 SLOAD AND ISZERO PUSH2 0x258B JUMPI CALLER DUP5 MSTORE PUSH1 0x15 DUP6 MSTORE PUSH1 0xFF DUP3 DUP6 KECCAK256 SLOAD AND ISZERO PUSH2 0x2550 JUMPI PUSH2 0x23CE DUP4 ISZERO ISZERO PUSH2 0x5A9A JUMP JUMPDEST CALLER DUP5 MSTORE PUSH1 0x16 DUP6 MSTORE PUSH2 0x23E2 DUP4 DUP4 DUP7 KECCAK256 SLOAD PUSH2 0x5551 JUMP JUMPDEST PUSH1 0x17 SLOAD LT PUSH2 0x2511 JUMPI POP PUSH1 0xC SWAP4 PUSH2 0x23FF PUSH2 0x3E8 PUSH2 0x7E9 DUP6 DUP9 SLOAD PUSH2 0x5551 JUMP JUMPDEST PUSH1 0xB SWAP1 DUP2 SLOAD SWAP2 DUP6 JUMPDEST DUP6 DUP2 LT PUSH2 0x2476 JUMPI POP POP SWAP1 PUSH1 0x0 DUP1 MLOAD PUSH1 0x20 PUSH2 0x6318 DUP4 CODECOPY DUP2 MLOAD SWAP2 MSTORE SWAP3 SWAP2 CALLER DUP7 MSTORE PUSH1 0x16 DUP2 MSTORE DUP3 DUP7 KECCAK256 PUSH2 0x2437 DUP7 DUP3 SLOAD PUSH2 0x5551 JUMP JUMPDEST SWAP1 SSTORE DUP3 MLOAD DUP6 DUP2 MSTORE PUSH32 0xCE77E469B386BE007F957632F6F65216F2E74C5DAA303AFF682E8296F628D010 DUP3 CALLER SWAP3 LOG2 DUP3 MLOAD SWAP5 DUP6 MSTORE DUP5 ADD MSTORE CALLER SWAP3 LOG2 PUSH1 0x1 PUSH1 0x8 SSTORE DUP1 RETURN JUMPDEST PUSH2 0x250C SWAP1 PUSH2 0x2482 PUSH2 0x555E JUMP JUMPDEST DUP4 SLOAD SWAP1 PUSH2 0x248F DUP3 CALLER PUSH2 0x51BB JUMP JUMPDEST PUSH1 0x1 DUP6 SLOAD ADD DUP6 SSTORE PUSH2 0x24A0 DUP12 SLOAD PUSH2 0x50FC JUMP JUMPDEST DUP12 SSTORE DUP2 DUP11 MSTORE PUSH1 0x12 DUP7 MSTORE DUP1 DUP9 DUP12 KECCAK256 SSTORE PUSH1 0x3 PUSH2 0x24B9 DUP3 PUSH2 0x4919 JUMP JUMPDEST POP ADD PUSH2 0x24C5 DUP2 SLOAD PUSH2 0x50FC JUMP JUMPDEST SWAP1 SSTORE PUSH2 0x24D9 PUSH2 0x24D3 DUP4 PUSH2 0x570A JUMP JUMPDEST DUP4 PUSH2 0x53DC JUMP JUMPDEST PUSH1 0x0 DUP1 MLOAD PUSH1 0x20 PUSH2 0x61B8 DUP4 CODECOPY DUP2 MLOAD SWAP2 MSTORE PUSH2 0x24F1 DUP3 PUSH2 0x4919 JUMP JUMPDEST POP SWAP2 DUP10 MLOAD SWAP1 DUP2 MSTORE DUP10 DUP9 DUP3 ADD MSTORE DUP1 PUSH2 0x8C8 CALLER SWAP5 DUP13 DUP4 ADD SWAP1 PUSH2 0x4789 JUMP JUMPDEST PUSH2 0x2407 JUMP JUMPDEST DUP5 PUSH1 0x64 SWAP3 MLOAD SWAP2 PUSH3 0x461BCD PUSH1 0xE5 SHL DUP4 MSTORE DUP3 ADD MSTORE PUSH1 0x1B PUSH1 0x24 DUP3 ADD MSTORE PUSH27 0x115E18D95959081DDA1A5D195B1A5CDD081B5A5B9D081B1A5B5A5D PUSH1 0x2A SHL PUSH1 0x44 DUP3 ADD MSTORE REVERT JUMPDEST DUP5 PUSH1 0x64 SWAP3 MLOAD SWAP2 PUSH3 0x461BCD PUSH1 0xE5 SHL DUP4 MSTORE DUP3 ADD MSTORE PUSH1 0x17 PUSH1 0x24 DUP3 ADD MSTORE PUSH23 0x1059191C995CDCC81B9BDD081DDA1A5D195B1A5CDD1959 PUSH1 0x4A SHL PUSH1 0x44 DUP3 ADD MSTORE REVERT JUMPDEST DUP5 PUSH1 0x64 SWAP3 MLOAD SWAP2 PUSH3 0x461BCD PUSH1 0xE5 SHL DUP4 MSTORE DUP3 ADD MSTORE PUSH1 0x1A PUSH1 0x24 DUP3 ADD MSTORE PUSH26 0x57686974656C697374207068617365206E6F7420616374697665 PUSH1 0x30 SHL PUSH1 0x44 DUP3 ADD MSTORE REVERT JUMPDEST DUP4 DUP4 CALLVALUE PUSH2 0x4E6 JUMPI DUP1 PUSH1 0x3 NOT CALLDATASIZE ADD SLT PUSH2 0x4E6 JUMPI PUSH2 0x25E3 PUSH2 0x44C6 JUMP JUMPDEST SWAP3 PUSH2 0x25EC PUSH2 0x49AE JUMP JUMPDEST PUSH1 0x1 PUSH1 0x1 PUSH1 0xA0 SHL SUB SWAP4 DUP5 AND ADDRESS DUP2 EQ PUSH2 0x2664 JUMPI DUP4 SWAP5 PUSH1 0x7 SLOAD AND SWAP1 DUP1 EXTCODESIZE ISZERO PUSH2 0x1049 JUMPI PUSH1 0x64 DUP6 SWAP3 DUP6 MLOAD SWAP7 DUP8 SWAP4 DUP5 SWAP3 PUSH4 0x23B872DD PUSH1 0xE0 SHL DUP5 MSTORE ADDRESS DUP9 DUP6 ADD MSTORE PUSH1 0x24 DUP5 ADD MSTORE PUSH1 0x24 CALLDATALOAD PUSH1 0x44 DUP5 ADD MSTORE GAS CALL DUP1 ISZERO PUSH2 0x265A JUMPI PUSH2 0x2643 JUMPI DUP4 DUP1 RETURN JUMPDEST PUSH1 0x1 PUSH1 0x1 PUSH1 0x40 SHL SUB DUP4 GT PUSH2 0x1B9B JUMPI POP MSTORE DUP2 DUP1 DUP1 DUP4 DUP1 RETURN JUMPDEST DUP3 MLOAD RETURNDATASIZE DUP7 DUP3 RETURNDATACOPY RETURNDATASIZE SWAP1 REVERT JUMPDEST POP PUSH1 0x20 PUSH1 0x64 SWAP3 MLOAD SWAP2 PUSH3 0x461BCD PUSH1 0xE5 SHL DUP4 MSTORE DUP3 ADD MSTORE PUSH1 0x19 PUSH1 0x24 DUP3 ADD MSTORE PUSH25 0x43616E6E6F74207265636F766572206F776E20746F6B656E73 PUSH1 0x38 SHL PUSH1 0x44 DUP3 ADD MSTORE REVERT JUMPDEST SWAP1 POP CALLVALUE PUSH2 0x5B2 JUMPI PUSH1 0x20 DUP1 PUSH1 0x3 NOT CALLDATASIZE ADD SLT PUSH2 0x104D JUMPI DUP2 CALLDATALOAD PUSH1 0x1 PUSH1 0x1 PUSH1 0x40 SHL SUB DUP2 GT PUSH2 0x1049 JUMPI PUSH2 0x26D4 SWAP1 CALLDATASIZE SWAP1 DUP5 ADD PUSH2 0x4630 JUMP JUMPDEST SWAP3 PUSH2 0x26DD PUSH2 0x49AE JUMP JUMPDEST PUSH2 0x26E8 DUP5 ISZERO ISZERO PUSH2 0x5A32 JUMP JUMPDEST DUP6 JUMPDEST DUP5 DUP2 LT PUSH2 0x26F5 JUMPI DUP7 DUP1 RETURN JUMPDEST PUSH1 0x1 PUSH1 0x1 PUSH1 0xA0 SHL SUB DUP1 PUSH2 0x2711 PUSH2 0x270C DUP5 DUP10 DUP9 PUSH2 0x5A76 JUMP JUMPDEST PUSH2 0x5A86 JUMP JUMPDEST AND ISZERO PUSH2 0x2773 JUMPI SWAP1 DUP2 PUSH2 0x276E SWAP3 PUSH2 0x272B PUSH2 0x270C DUP5 DUP11 DUP10 PUSH2 0x5A76 JUMP JUMPDEST AND DUP10 MSTORE PUSH1 0x15 DUP7 MSTORE PUSH1 0x0 DUP1 MLOAD PUSH1 0x20 PUSH2 0x6338 DUP4 CODECOPY DUP2 MLOAD SWAP2 MSTORE DUP7 DUP10 DUP12 KECCAK256 SWAP3 PUSH1 0x1 SWAP4 DUP5 PUSH1 0xFF NOT DUP3 SLOAD AND OR SWAP1 SSTORE PUSH2 0x2761 PUSH2 0x270C DUP7 DUP13 DUP12 PUSH2 0x5A76 JUMP JUMPDEST AND SWAP3 DUP11 MLOAD SWAP1 DUP2 MSTORE LOG2 PUSH2 0x50FC JUMP JUMPDEST PUSH2 0x26EA JUMP JUMPDEST DUP7 MLOAD PUSH3 0x461BCD PUSH1 0xE5 SHL DUP2 MSTORE DUP1 DUP5 ADD DUP7 SWAP1 MSTORE PUSH1 0x1D PUSH1 0x24 DUP3 ADD MSTORE PUSH32 0x43616E6E6F742077686974656C697374207A65726F2061646472657373000000 PUSH1 0x44 DUP3 ADD MSTORE PUSH1 0x64 SWAP1 REVERT JUMPDEST DUP4 SWAP2 POP CALLVALUE PUSH2 0x4E6 JUMPI PUSH1 0x20 SWAP3 DUP4 PUSH1 0x3 NOT CALLDATASIZE ADD SLT PUSH2 0x5B2 JUMPI PUSH1 0x1 PUSH1 0x1 PUSH1 0x40 SHL SUB SWAP1 DUP3 CALLDATALOAD DUP3 DUP2 GT PUSH2 0x1049 JUMPI PUSH2 0x27EB SWAP1 CALLDATASIZE SWAP1 DUP6 ADD PUSH2 0x4603 JUMP JUMPDEST SWAP4 SWAP1 SWAP3 PUSH2 0x27F6 PUSH2 0x49AE JUMP JUMPDEST DUP5 GT PUSH2 0x11AB JUMPI POP PUSH2 0x2808 PUSH1 0x10 SLOAD PUSH2 0x4660 JUMP JUMPDEST PUSH1 0x1F DUP2 GT PUSH2 0x28E1 JUMPI JUMPDEST POP DUP4 SWAP5 PUSH1 0x1F DUP5 GT PUSH1 0x1 EQ PUSH2 0x2866 JUMPI POP PUSH2 0xB18 SWAP1 DUP4 DUP6 SWAP7 PUSH1 0x0 DUP1 MLOAD PUSH1 0x20 PUSH2 0x6218 DUP4 CODECOPY DUP2 MLOAD SWAP2 MSTORE SWAP7 SWAP2 PUSH2 0x285B JUMPI JUMPDEST POP DUP5 PUSH1 0x1 SHL SWAP1 PUSH1 0x0 NOT DUP7 PUSH1 0x3 SHL SHR NOT AND OR PUSH1 0x10 SSTORE MLOAD SWAP3 DUP4 SWAP3 DUP4 PUSH2 0x5A0A JUMP JUMPDEST SWAP1 POP DUP4 ADD CALLDATALOAD DUP8 PUSH2 0x283D JUMP JUMPDEST SWAP5 PUSH1 0x1F NOT DUP5 AND PUSH1 0x10 DUP7 MSTORE DUP7 DUP7 KECCAK256 SWAP7 DUP7 SWAP1 JUMPDEST DUP3 DUP3 LT PUSH2 0x28C8 JUMPI POP POP SWAP6 PUSH2 0xB18 SWAP3 SWAP2 DUP6 PUSH1 0x0 DUP1 MLOAD PUSH1 0x20 PUSH2 0x6218 DUP4 CODECOPY DUP2 MLOAD SWAP2 MSTORE SWAP8 SWAP9 LT PUSH2 0x28AE JUMPI JUMPDEST POP POP PUSH1 0x1 DUP5 DUP2 SHL ADD PUSH1 0x10 SSTORE PUSH2 0x111B JUMP JUMPDEST DUP5 ADD CALLDATALOAD PUSH1 0x0 NOT PUSH1 0x3 DUP8 SWAP1 SHL PUSH1 0xF8 AND SHR NOT AND SWAP1 SSTORE DUP7 DUP1 PUSH2 0x289E JUMP JUMPDEST DUP4 DUP7 ADD CALLDATALOAD DUP10 SSTORE PUSH1 0x1 SWAP1 SWAP9 ADD SWAP8 SWAP3 DUP4 ADD SWAP3 SWAP1 DUP2 ADD SWAP1 PUSH2 0x2877 JUMP JUMPDEST PUSH1 0x10 DUP6 MSTORE DUP6 DUP6 KECCAK256 PUSH1 0x1F DUP6 ADD PUSH1 0x5 SHR DUP2 ADD SWAP2 DUP8 DUP7 LT PUSH2 0x291B JUMPI JUMPDEST PUSH1 0x1F ADD PUSH1 0x5 SHR ADD SWAP1 JUMPDEST DUP2 DUP2 LT PUSH2 0x2910 JUMPI POP PUSH2 0x2811 JUMP JUMPDEST DUP6 DUP2 SSTORE PUSH1 0x1 ADD PUSH2 0x2903 JUMP JUMPDEST SWAP1 SWAP2 POP DUP2 SWAP1 PUSH2 0x28FA JUMP JUMPDEST POP POP CALLVALUE PUSH2 0x4E6 JUMPI DUP2 PUSH1 0x3 NOT CALLDATASIZE ADD SLT PUSH2 0x4E6 JUMPI PUSH1 0x20 SWAP1 PUSH1 0xC SLOAD SWAP1 MLOAD SWAP1 DUP2 MSTORE RETURN JUMPDEST POP POP CALLVALUE PUSH2 0x4E6 JUMPI DUP2 PUSH1 0x3 NOT CALLDATASIZE ADD SLT PUSH2 0x4E6 JUMPI PUSH1 0x20 SWAP1 MLOAD PUSH1 0x0 DUP1 MLOAD PUSH1 0x20 PUSH2 0x6258 DUP4 CODECOPY DUP2 MLOAD SWAP2 MSTORE DUP2 MSTORE RETURN JUMPDEST DUP4 CALLVALUE PUSH2 0x540 JUMPI DUP1 PUSH1 0x3 NOT CALLDATASIZE ADD SLT PUSH2 0x540 JUMPI PUSH2 0x2986 PUSH2 0x49AE JUMP JUMPDEST PUSH1 0x7 DUP1 SLOAD PUSH1 0x1 PUSH1 0x1 PUSH1 0xA0 SHL SUB NOT DUP2 AND SWAP1 SWAP2 SSTORE DUP2 SWAP1 PUSH1 0x1 PUSH1 0x1 PUSH1 0xA0 SHL SUB AND PUSH1 0x0 DUP1 MLOAD PUSH1 0x20 PUSH2 0x61D8 DUP4 CODECOPY DUP2 MLOAD SWAP2 MSTORE DUP3 DUP1 LOG3 DUP1 RETURN JUMPDEST DUP4 SWAP2 POP CALLVALUE PUSH2 0x4E6 JUMPI PUSH1 0x20 CALLDATASIZE PUSH1 0x3 NOT ADD SLT PUSH2 0x4E6 JUMPI PUSH1 0x1 PUSH1 0x1 PUSH1 0xA0 SHL SUB PUSH2 0x29DC PUSH2 0x44C6 JUMP JUMPDEST AND SWAP1 DUP2 ISZERO PUSH2 0x29F9 JUMPI PUSH1 0x20 DUP5 DUP1 DUP6 DUP6 DUP2 MSTORE PUSH1 0x3 DUP5 MSTORE KECCAK256 SLOAD SWAP1 MLOAD SWAP1 DUP2 MSTORE RETURN JUMPDEST PUSH1 0x84 SWAP1 PUSH1 0x20 DUP6 MLOAD SWAP2 PUSH3 0x461BCD PUSH1 0xE5 SHL DUP4 MSTORE DUP3 ADD MSTORE PUSH1 0x29 PUSH1 0x24 DUP3 ADD MSTORE PUSH32 0x4552433732313A2061646472657373207A65726F206973206E6F742061207661 PUSH1 0x44 DUP3 ADD MSTORE PUSH9 0x3634B21037BBB732B9 PUSH1 0xB9 SHL PUSH1 0x64 DUP3 ADD MSTORE REVERT JUMPDEST POP POP CALLVALUE PUSH2 0x4E6 JUMPI DUP2 PUSH1 0x3 NOT CALLDATASIZE ADD SLT PUSH2 0x4E6 JUMPI DUP1 MLOAD SWAP1 DUP3 PUSH1 0xD SLOAD PUSH2 0x2A70 DUP2 PUSH2 0x4660 JUMP JUMPDEST DUP1 DUP6 MSTORE SWAP1 PUSH1 0x1 SWAP1 DUP2 DUP2 AND SWAP1 DUP2 ISZERO PUSH2 0x2AF5 JUMPI POP PUSH1 0x1 EQ PUSH2 0x2A9C JUMPI JUMPDEST POP POP POP PUSH2 0x75F DUP3 PUSH2 0x771 SWAP5 SUB DUP4 PUSH2 0x4886 JUMP JUMPDEST PUSH1 0xD DUP4 MSTORE PUSH1 0x20 SWAP6 POP PUSH32 0xD7B6990105719101DABEB77144F2A3385C8033ACD3AF97E9423A695E81AD1EB5 JUMPDEST DUP3 DUP5 LT PUSH2 0x2AE2 JUMPI POP POP POP DUP3 PUSH2 0x771 SWAP5 PUSH2 0x75F SWAP3 DUP3 ADD ADD SWAP5 PUSH2 0x2A8A JUMP JUMPDEST DUP1 SLOAD DUP7 DUP6 ADD DUP9 ADD MSTORE SWAP3 DUP7 ADD SWAP3 DUP2 ADD PUSH2 0x2AC6 JUMP JUMPDEST PUSH2 0x771 SWAP8 POP PUSH2 0x75F SWAP5 POP PUSH1 0x20 SWAP3 POP DUP7 SWAP4 SWAP2 POP PUSH1 0xFF NOT AND DUP3 DUP5 ADD MSTORE ISZERO ISZERO PUSH1 0x5 SHL DUP3 ADD ADD SWAP5 PUSH2 0x2A8A JUMP JUMPDEST SWAP1 POP CALLVALUE PUSH2 0x5B2 JUMPI PUSH1 0x20 CALLDATASIZE PUSH1 0x3 NOT ADD SLT PUSH2 0x5B2 JUMPI PUSH2 0x2B38 PUSH2 0x44C6 JUMP JUMPDEST SWAP2 PUSH2 0x2B41 PUSH2 0x5121 JUMP JUMPDEST PUSH2 0x2B53 PUSH1 0xFF PUSH1 0x23 SLOAD PUSH1 0x8 SHR AND ISZERO PUSH2 0x5024 JUMP JUMPDEST PUSH2 0x2B5B PUSH2 0x5165 JUMP JUMPDEST PUSH2 0x2B6A PUSH2 0x3E8 PUSH1 0xC SLOAD LT PUSH2 0x506D JUMP JUMPDEST PUSH1 0x1 PUSH1 0x1 PUSH1 0xA0 SHL SUB DUP4 AND SWAP2 PUSH2 0x2B80 DUP4 ISZERO ISZERO PUSH2 0x50B2 JUMP JUMPDEST PUSH2 0x2B88 PUSH2 0x555E JUMP JUMPDEST SWAP1 PUSH1 0x3 PUSH2 0x2B94 DUP4 PUSH2 0x4919 JUMP JUMPDEST POP ADD SLOAD PUSH1 0x2 PUSH2 0x2BA2 DUP5 PUSH2 0x4919 JUMP JUMPDEST POP ADD SLOAD GT ISZERO PUSH2 0x2C40 JUMPI POP SWAP1 PUSH1 0x0 DUP1 MLOAD PUSH1 0x20 PUSH2 0x61B8 DUP4 CODECOPY DUP2 MLOAD SWAP2 MSTORE SWAP2 PUSH2 0x2BCA PUSH1 0xB SLOAD DUP1 SWAP7 PUSH2 0x51BB JUMP JUMPDEST PUSH1 0x1 PUSH1 0xB SLOAD ADD PUSH1 0xB SSTORE PUSH2 0x2BDE PUSH1 0xC SLOAD PUSH2 0x50FC JUMP JUMPDEST PUSH1 0xC SSTORE DUP5 DUP7 MSTORE PUSH1 0x12 PUSH1 0x20 MSTORE DUP1 DUP3 DUP8 KECCAK256 SSTORE PUSH1 0x3 PUSH2 0x2BF9 DUP3 PUSH2 0x4919 JUMP JUMPDEST POP ADD PUSH2 0x2C05 DUP2 SLOAD PUSH2 0x50FC JUMP JUMPDEST SWAP1 SSTORE PUSH2 0x2C13 PUSH2 0x8A1 DUP7 PUSH2 0x570A JUMP JUMPDEST PUSH2 0x2C35 PUSH2 0x2C1F DUP3 PUSH2 0x4919 JUMP JUMPDEST POP DUP4 MLOAD SWAP4 DUP5 SWAP4 DUP5 MSTORE DUP1 PUSH1 0x20 DUP6 ADD MSTORE DUP4 ADD SWAP1 PUSH2 0x4789 JUMP JUMPDEST SUB SWAP1 LOG3 PUSH1 0x1 PUSH1 0x8 SSTORE DUP1 RETURN JUMPDEST PUSH1 0x84 SWAP1 PUSH1 0x20 DUP5 MLOAD SWAP2 PUSH3 0x461BCD PUSH1 0xE5 SHL DUP4 MSTORE DUP3 ADD MSTORE PUSH1 0x25 PUSH1 0x24 DUP3 ADD MSTORE PUSH32 0x53656C656374656420726172697479207469657220737570706C792065786861 PUSH1 0x44 DUP3 ADD MSTORE PUSH5 0x1D5CDD1959 PUSH1 0xDA SHL PUSH1 0x64 DUP3 ADD MSTORE REVERT JUMPDEST POP POP CALLVALUE PUSH2 0x4E6 JUMPI DUP2 PUSH1 0x3 NOT CALLDATASIZE ADD SLT PUSH2 0x4E6 JUMPI PUSH1 0x20 SWAP1 PUSH1 0xFF PUSH1 0x23 SLOAD PUSH1 0x8 SHR AND SWAP1 MLOAD SWAP1 ISZERO ISZERO DUP2 MSTORE RETURN JUMPDEST DUP3 DUP5 CALLVALUE PUSH2 0x540 JUMPI PUSH1 0x20 CALLDATASIZE PUSH1 0x3 NOT ADD SLT PUSH2 0x540 JUMPI POP PUSH2 0x2CD8 PUSH1 0x20 SWAP3 CALLDATALOAD PUSH2 0x4A4D JUMP JUMPDEST SWAP1 MLOAD PUSH1 0x1 PUSH1 0x1 PUSH1 0xA0 SHL SUB SWAP1 SWAP2 AND DUP2 MSTORE RETURN JUMPDEST POP POP CALLVALUE PUSH2 0x4E6 JUMPI DUP2 PUSH1 0x3 NOT CALLDATASIZE ADD SLT PUSH2 0x4E6 JUMPI PUSH1 0x20 SWAP1 PUSH1 0xFF PUSH1 0x9 SLOAD AND SWAP1 MLOAD SWAP1 ISZERO ISZERO DUP2 MSTORE RETURN JUMPDEST DUP4 SWAP2 POP CALLVALUE PUSH2 0x4E6 JUMPI PUSH1 0x20 SWAP3 DUP4 PUSH1 0x3 NOT CALLDATASIZE ADD SLT PUSH2 0x5B2 JUMPI PUSH1 0x1 PUSH1 0x1 PUSH1 0x40 SHL SUB SWAP1 DUP3 CALLDATALOAD DUP3 DUP2 GT PUSH2 0x1049 JUMPI PUSH2 0x2D42 SWAP1 CALLDATASIZE SWAP1 DUP6 ADD PUSH2 0x4603 JUMP JUMPDEST SWAP4 SWAP1 SWAP3 PUSH2 0x2D4D PUSH2 0x49AE JUMP JUMPDEST DUP5 ISZERO PUSH2 0x2E11 JUMPI DUP5 GT PUSH2 0x11AB JUMPI POP PUSH2 0x2D69 DUP4 PUSH2 0x10D6 PUSH1 0xD SLOAD PUSH2 0x4660 JUMP JUMPDEST DUP4 SWAP5 PUSH1 0x1F DUP5 GT PUSH1 0x1 EQ PUSH2 0x2DB1 JUMPI POP PUSH2 0xB18 SWAP1 DUP4 DUP6 SWAP7 PUSH1 0x0 DUP1 MLOAD PUSH1 0x20 PUSH2 0x6298 DUP4 CODECOPY DUP2 MLOAD SWAP2 MSTORE SWAP7 SWAP2 PUSH2 0x1125 JUMPI POP DUP5 PUSH1 0x1 SHL SWAP1 PUSH1 0x0 NOT DUP7 PUSH1 0x3 SHL SHR NOT AND OR PUSH1 0xD SSTORE MLOAD SWAP3 DUP4 SWAP3 DUP4 PUSH2 0x5A0A JUMP JUMPDEST SWAP5 PUSH1 0x1F NOT DUP5 AND PUSH1 0xD DUP7 MSTORE DUP7 DUP7 KECCAK256 SWAP7 DUP7 SWAP1 JUMPDEST DUP3 DUP3 LT PUSH2 0x2DF8 JUMPI POP POP SWAP6 PUSH2 0xB18 SWAP3 SWAP2 DUP6 PUSH1 0x0 DUP1 MLOAD PUSH1 0x20 PUSH2 0x6298 DUP4 CODECOPY DUP2 MLOAD SWAP2 MSTORE SWAP8 SWAP9 LT PUSH2 0x1178 JUMPI POP POP PUSH1 0x1 DUP5 DUP2 SHL ADD PUSH1 0xD SSTORE PUSH2 0x111B JUMP JUMPDEST DUP4 DUP7 ADD CALLDATALOAD DUP10 SSTORE PUSH1 0x1 SWAP1 SWAP9 ADD SWAP8 SWAP3 DUP4 ADD SWAP3 SWAP1 DUP2 ADD SWAP1 PUSH2 0x2DC2 JUMP JUMPDEST POP DUP6 PUSH1 0x64 SWAP3 MLOAD SWAP2 PUSH3 0x461BCD PUSH1 0xE5 SHL DUP4 MSTORE DUP3 ADD MSTORE PUSH1 0x18 PUSH1 0x24 DUP3 ADD MSTORE PUSH24 0x42617365205552492063616E6E6F7420626520656D707479 PUSH1 0x40 SHL PUSH1 0x44 DUP3 ADD MSTORE REVERT JUMPDEST SWAP1 POP CALLVALUE PUSH2 0x5B2 JUMPI PUSH1 0x20 CALLDATASIZE PUSH1 0x3 NOT ADD SLT PUSH2 0x5B2 JUMPI PUSH2 0x2E91 DUP3 PUSH2 0x771 SWAP5 PUSH2 0x2E97 SWAP4 CALLDATALOAD PUSH2 0x2E76 PUSH2 0x4F4B JUMP JUMPDEST POP PUSH2 0x2E83 PUSH2 0xEC4 DUP3 PUSH2 0x4D8F JUMP JUMPDEST DUP2 MSTORE PUSH1 0x12 PUSH1 0x20 MSTORE KECCAK256 SLOAD PUSH2 0x4919 JUMP JUMPDEST POP PUSH2 0x4F78 JUMP JUMPDEST SWAP1 MLOAD SWAP2 DUP3 SWAP2 PUSH1 0x20 DUP4 MSTORE PUSH1 0x20 DUP4 ADD SWAP1 PUSH2 0x459D JUMP JUMPDEST SWAP2 SWAP1 POP CALLVALUE PUSH2 0x5B2 JUMPI PUSH1 0x20 SWAP2 DUP3 PUSH1 0x3 NOT CALLDATASIZE ADD SLT PUSH2 0x104D JUMPI DUP1 CALLDATALOAD SWAP1 PUSH1 0x1 PUSH1 0x1 PUSH1 0x40 SHL SUB DUP3 GT PUSH2 0x1049 JUMPI PUSH2 0x2EDD SWAP2 CALLDATASIZE SWAP2 ADD PUSH2 0x4630 JUMP JUMPDEST SWAP3 SWAP1 PUSH2 0x2EE7 PUSH2 0x49AE JUMP JUMPDEST PUSH2 0x2EF2 DUP5 ISZERO ISZERO PUSH2 0x5A32 JUMP JUMPDEST DUP5 JUMPDEST DUP5 DUP2 LT PUSH2 0x2EFF JUMPI DUP6 DUP1 RETURN JUMPDEST PUSH2 0x2F56 SWAP1 PUSH1 0x1 PUSH1 0x1 PUSH1 0xA0 SHL SUB DUP1 PUSH2 0x2F1A PUSH2 0x270C DUP5 DUP11 DUP9 PUSH2 0x5A76 JUMP JUMPDEST AND DUP9 MSTORE PUSH1 0x15 DUP6 MSTORE DUP6 DUP9 KECCAK256 DUP1 SLOAD PUSH1 0xFF NOT AND SWAP1 SSTORE PUSH2 0x2F3A PUSH2 0x270C DUP4 DUP10 DUP8 PUSH2 0x5A76 JUMP JUMPDEST AND PUSH1 0x0 DUP1 MLOAD PUSH1 0x20 PUSH2 0x6338 DUP4 CODECOPY DUP2 MLOAD SWAP2 MSTORE DUP6 DUP8 MLOAD DUP11 DUP2 MSTORE LOG2 PUSH2 0x50FC JUMP JUMPDEST PUSH2 0x2EF4 JUMP JUMPDEST DUP3 DUP5 CALLVALUE PUSH2 0x540 JUMPI PUSH1 0x20 CALLDATASIZE PUSH1 0x3 NOT ADD SLT PUSH2 0x540 JUMPI POP DUP2 CALLDATALOAD PUSH1 0x11 SLOAD DUP2 LT ISZERO PUSH2 0x2F9A JUMPI PUSH1 0x20 SWAP3 POP PUSH1 0x2 PUSH2 0x2F8F PUSH1 0x3 PUSH2 0xD4A DUP5 PUSH2 0x4919 JUMP JUMPDEST POP ADD SLOAD GT SWAP1 MLOAD SWAP1 DUP2 MSTORE RETURN JUMPDEST DUP2 MLOAD PUSH3 0x461BCD PUSH1 0xE5 SHL DUP2 MSTORE PUSH1 0x20 DUP2 DUP6 ADD MSTORE PUSH1 0x19 PUSH1 0x24 DUP3 ADD MSTORE PUSH25 0x92DCECC2D8D2C840E4C2E4D2E8F240E8D2CAE440D2DCC8CAF PUSH1 0x3B SHL PUSH1 0x44 DUP3 ADD MSTORE PUSH1 0x64 SWAP1 REVERT JUMPDEST POP POP CALLVALUE PUSH2 0x4E6 JUMPI DUP2 PUSH1 0x3 NOT CALLDATASIZE ADD SLT PUSH2 0x4E6 JUMPI PUSH1 0x20 SWAP1 PUSH2 0x5DC PUSH2 0x5B76 JUMP JUMPDEST POP POP CALLVALUE PUSH2 0x4E6 JUMPI DUP2 PUSH1 0x3 NOT CALLDATASIZE ADD SLT PUSH2 0x4E6 JUMPI PUSH1 0x20 SWAP1 PUSH1 0xFF PUSH1 0xF SLOAD AND SWAP1 MLOAD SWAP1 ISZERO ISZERO DUP2 MSTORE RETURN JUMPDEST POP POP CALLVALUE PUSH2 0x4E6 JUMPI DUP2 PUSH1 0x3 NOT CALLDATASIZE ADD SLT PUSH2 0x4E6 JUMPI PUSH1 0x20 SWAP1 PUSH2 0x5DC PUSH2 0x5D89 JUMP JUMPDEST SWAP2 PUSH1 0x20 SWAP2 POP CALLDATASIZE PUSH1 0x3 NOT ADD DUP3 SGT PUSH2 0x104D JUMPI DUP3 CALLDATALOAD SWAP2 PUSH2 0x3052 PUSH2 0x5121 JUMP JUMPDEST PUSH2 0x3064 PUSH1 0xFF PUSH1 0x23 SLOAD PUSH1 0x8 SHR AND ISZERO PUSH2 0x5024 JUMP JUMPDEST PUSH2 0x306C PUSH2 0x5165 JUMP JUMPDEST PUSH2 0x307A PUSH1 0xFF PUSH1 0x1E SLOAD AND PUSH2 0x5D0D JUMP JUMPDEST PUSH1 0x1B SLOAD TIMESTAMP LT PUSH2 0x3249 JUMPI DUP3 ISZERO ISZERO DUP1 PUSH2 0x323E JUMPI JUMPDEST PUSH2 0x3095 SWAP1 PUSH2 0x5901 JUMP JUMPDEST PUSH1 0xC SWAP1 PUSH2 0x30A9 PUSH2 0x3E8 PUSH2 0x7E9 DUP7 DUP6 SLOAD PUSH2 0x5551 JUMP JUMPDEST PUSH2 0x30B1 PUSH2 0x5B76 JUMP JUMPDEST SWAP5 PUSH2 0x30BC DUP6 DUP8 PUSH2 0x5B63 JUMP JUMPDEST SWAP1 DUP2 CALLVALUE LT PUSH2 0x3204 JUMPI POP PUSH1 0xB SWAP3 DUP4 SLOAD SWAP4 DUP9 JUMPDEST DUP8 DUP2 LT PUSH2 0x3168 JUMPI POP POP POP DUP1 CALLVALUE GT PUSH2 0x3138 JUMPI JUMPDEST PUSH32 0x663BD6898D9847B7AAB9A13504609B487BFBC6E8DCCDBD1C4435753941825797 PUSH2 0x3122 PUSH1 0x0 DUP1 MLOAD PUSH1 0x20 PUSH2 0x6318 DUP4 CODECOPY DUP2 MLOAD SWAP2 MSTORE SWAP7 SWAP8 DUP7 MLOAD SWAP2 DUP3 SWAP2 CALLER SWAP6 DUP12 DUP5 PUSH2 0x5D4E JUMP JUMPDEST SUB SWAP1 LOG2 DUP3 MLOAD SWAP5 DUP6 MSTORE DUP5 ADD MSTORE CALLER SWAP3 LOG2 PUSH1 0x1 PUSH1 0x8 SSTORE DUP1 RETURN JUMPDEST DUP7 DUP1 DUP1 DUP1 PUSH2 0x3146 DUP6 CALLVALUE PUSH2 0x58F4 JUMP JUMPDEST DUP2 DUP2 ISZERO PUSH2 0x315F JUMPI JUMPDEST CALLER SWAP1 CALL PUSH2 0x30DF JUMPI DUP4 MLOAD RETURNDATASIZE DUP9 DUP3 RETURNDATACOPY RETURNDATASIZE SWAP1 REVERT JUMPDEST POP PUSH2 0x8FC PUSH2 0x314E JUMP JUMPDEST PUSH2 0x31FF SWAP1 DUP11 DUP9 PUSH1 0x0 DUP1 MLOAD PUSH1 0x20 PUSH2 0x61B8 DUP4 CODECOPY DUP2 MLOAD SWAP2 MSTORE PUSH2 0x3185 PUSH2 0x555E JUMP JUMPDEST DUP1 DUP4 DUP9 SLOAD SWAP6 PUSH2 0x3194 DUP8 CALLER PUSH2 0x51BB JUMP JUMPDEST PUSH1 0x1 DUP11 SLOAD ADD DUP11 SSTORE PUSH2 0x31A5 DUP12 SLOAD PUSH2 0x50FC JUMP JUMPDEST DUP12 SSTORE DUP7 DUP2 MSTORE PUSH1 0x12 DUP14 MSTORE KECCAK256 SSTORE PUSH1 0x3 PUSH2 0x31BB DUP3 PUSH2 0x4919 JUMP JUMPDEST POP ADD PUSH2 0x31C7 DUP2 SLOAD PUSH2 0x50FC JUMP JUMPDEST SWAP1 SSTORE PUSH2 0x31DB PUSH2 0x31D5 DUP6 PUSH2 0x570A JUMP JUMPDEST DUP6 PUSH2 0x53DC JUMP JUMPDEST PUSH2 0x31E4 DUP2 PUSH2 0x4919 JUMP JUMPDEST POP SWAP1 PUSH2 0x8C8 DUP5 MLOAD SWAP3 DUP4 SWAP3 DUP4 MSTORE DUP6 DUP14 DUP5 ADD MSTORE CALLER SWAP6 DUP4 ADD SWAP1 PUSH2 0x4789 JUMP JUMPDEST PUSH2 0x30CD JUMP JUMPDEST DUP5 MLOAD PUSH3 0x461BCD PUSH1 0xE5 SHL DUP2 MSTORE SWAP1 DUP2 ADD DUP4 SWAP1 MSTORE PUSH1 0x14 PUSH1 0x24 DUP3 ADD MSTORE PUSH20 0x125B9CDD59999A58DA595B9D081C185E5B595B9D PUSH1 0x62 SHL PUSH1 0x44 DUP3 ADD MSTORE PUSH1 0x64 SWAP1 REVERT JUMPDEST POP PUSH1 0xA DUP4 GT ISZERO PUSH2 0x308C JUMP JUMPDEST DUP4 SWAP1 PUSH1 0x64 SWAP3 MLOAD SWAP2 PUSH3 0x461BCD PUSH1 0xE5 SHL DUP4 MSTORE DUP3 ADD MSTORE PUSH1 0x17 PUSH1 0x24 DUP3 ADD MSTORE PUSH23 0x105D58DD1A5BDB881B9BDD081CDD185C9D1959081E595D PUSH1 0x4A SHL PUSH1 0x44 DUP3 ADD MSTORE REVERT JUMPDEST SWAP1 POP CALLVALUE PUSH2 0x5B2 JUMPI DUP2 PUSH1 0x3 NOT CALLDATASIZE ADD SLT PUSH2 0x5B2 JUMPI PUSH2 0x329F PUSH2 0x44C6 JUMP JUMPDEST SWAP2 PUSH1 0x24 CALLDATALOAD PUSH2 0x32AB PUSH2 0x49AE JUMP JUMPDEST PUSH2 0x32BA PUSH2 0x3E8 PUSH1 0xC SLOAD LT PUSH2 0x506D JUMP JUMPDEST PUSH1 0x1 PUSH1 0x1 PUSH1 0xA0 SHL SUB DUP5 AND SWAP3 PUSH2 0x32D0 DUP5 ISZERO ISZERO PUSH2 0x50B2 JUMP JUMPDEST PUSH1 0x11 SLOAD DUP3 LT ISZERO PUSH2 0x33B8 JUMPI PUSH1 0x3 PUSH2 0x32E5 DUP4 PUSH2 0x4919 JUMP JUMPDEST POP ADD SLOAD PUSH1 0x2 PUSH2 0x32F3 DUP5 PUSH2 0x4919 JUMP JUMPDEST POP ADD SLOAD GT ISZERO PUSH2 0x3376 JUMPI POP SWAP1 PUSH1 0x0 DUP1 MLOAD PUSH1 0x20 PUSH2 0x61B8 DUP4 CODECOPY DUP2 MLOAD SWAP2 MSTORE SWAP2 PUSH2 0x331B PUSH1 0xB SLOAD DUP1 SWAP7 PUSH2 0x51BB JUMP JUMPDEST PUSH1 0x1 PUSH1 0xB SLOAD ADD PUSH1 0xB SSTORE PUSH2 0x332F PUSH1 0xC SLOAD PUSH2 0x50FC JUMP JUMPDEST PUSH1 0xC SSTORE DUP5 DUP7 MSTORE PUSH1 0x12 PUSH1 0x20 MSTORE DUP1 DUP3 DUP8 KECCAK256 SSTORE PUSH1 0x3 PUSH2 0x334A DUP3 PUSH2 0x4919 JUMP JUMPDEST POP ADD PUSH2 0x3356 DUP2 SLOAD PUSH2 0x50FC JUMP JUMPDEST SWAP1 SSTORE PUSH2 0x3364 PUSH2 0x8A1 DUP7 PUSH2 0x570A JUMP JUMPDEST PUSH2 0x3370 PUSH2 0x2C1F DUP3 PUSH2 0x4919 JUMP JUMPDEST SUB SWAP1 LOG3 DUP1 RETURN JUMPDEST PUSH1 0x64 SWAP1 PUSH1 0x20 DUP5 MLOAD SWAP2 PUSH3 0x461BCD PUSH1 0xE5 SHL DUP4 MSTORE DUP3 ADD MSTORE PUSH1 0x1C PUSH1 0x24 DUP3 ADD MSTORE PUSH28 0x14985C9A5D1E481D1A595C881CDD5C1C1B1E48195E1A185D5CDD1959 PUSH1 0x22 SHL PUSH1 0x44 DUP3 ADD MSTORE REVERT JUMPDEST PUSH1 0x64 SWAP1 PUSH1 0x20 DUP5 MLOAD SWAP2 PUSH3 0x461BCD PUSH1 0xE5 SHL DUP4 MSTORE DUP3 ADD MSTORE PUSH1 0x13 PUSH1 0x24 DUP3 ADD MSTORE PUSH19 0x24B73B30B634B2103930B934BA3C903A34B2B9 PUSH1 0x69 SHL PUSH1 0x44 DUP3 ADD MSTORE REVERT JUMPDEST POP POP CALLVALUE PUSH2 0x4E6 JUMPI DUP2 PUSH1 0x3 NOT CALLDATASIZE ADD SLT PUSH2 0x4E6 JUMPI PUSH1 0x20 SWAP1 PUSH1 0x1D SLOAD SWAP1 MLOAD SWAP1 DUP2 MSTORE RETURN JUMPDEST POP POP CALLVALUE PUSH2 0x4E6 JUMPI DUP2 PUSH1 0x3 NOT CALLDATASIZE ADD SLT PUSH2 0x4E6 JUMPI PUSH1 0x20 PUSH1 0x0 DUP1 MLOAD PUSH1 0x20 PUSH2 0x6278 DUP4 CODECOPY DUP2 MLOAD SWAP2 MSTORE SWAP2 PUSH2 0x343C PUSH2 0x49AE JUMP JUMPDEST PUSH2 0x3444 PUSH2 0x5121 JUMP JUMPDEST PUSH1 0x1 PUSH1 0xFF NOT PUSH1 0x9 SLOAD AND OR PUSH1 0x9 SSTORE MLOAD CALLER DUP2 MSTORE LOG1 DUP1 RETURN JUMPDEST DUP4 DUP4 CALLVALUE PUSH2 0x4E6 JUMPI DUP1 PUSH1 0x3 NOT CALLDATASIZE ADD SLT PUSH2 0x4E6 JUMPI PUSH2 0x3473 PUSH2 0x44C6 JUMP JUMPDEST SWAP1 PUSH1 0x24 CALLDATALOAD PUSH2 0x347F PUSH2 0x5121 JUMP JUMPDEST PUSH2 0x3491 PUSH1 0xFF PUSH1 0x23 SLOAD PUSH1 0x8 SHR AND ISZERO PUSH2 0x5024 JUMP JUMPDEST PUSH2 0x3499 PUSH2 0x5165 JUMP JUMPDEST DUP1 ISZERO ISZERO DUP1 PUSH2 0x35E7 JUMPI JUMPDEST PUSH2 0x34AB SWAP1 PUSH2 0x5901 JUMP JUMPDEST PUSH1 0xC SWAP5 PUSH2 0x3E8 PUSH2 0x34BC DUP4 DUP9 SLOAD PUSH2 0x5551 JUMP JUMPDEST GT PUSH2 0x35A4 JUMPI POP PUSH1 0x1 PUSH1 0x1 PUSH1 0xA0 SHL SUB DUP4 AND SWAP3 PUSH2 0x34D8 DUP5 ISZERO ISZERO PUSH2 0x50B2 JUMP JUMPDEST PUSH1 0xB DUP1 SLOAD SWAP2 DUP7 JUMPDEST DUP5 DUP2 LT PUSH2 0x350D JUMPI POP POP DUP4 MLOAD SWAP3 DUP4 MSTORE POP PUSH1 0x20 DUP3 ADD MSTORE PUSH1 0x0 DUP1 MLOAD PUSH1 0x20 PUSH2 0x6318 DUP4 CODECOPY DUP2 MLOAD SWAP2 MSTORE SWAP2 SWAP1 LOG2 PUSH1 0x1 PUSH1 0x8 SSTORE DUP1 RETURN JUMPDEST PUSH2 0x359F SWAP1 DUP10 DUP9 PUSH1 0x0 DUP1 MLOAD PUSH1 0x20 PUSH2 0x61B8 DUP4 CODECOPY DUP2 MLOAD SWAP2 MSTORE DUP12 PUSH2 0x352B PUSH2 0x555E JUMP JUMPDEST DUP9 SLOAD SWAP5 PUSH2 0x3538 DUP7 DUP11 PUSH2 0x51BB JUMP JUMPDEST PUSH1 0x1 DUP11 SLOAD ADD DUP11 SSTORE PUSH2 0x3549 DUP2 SLOAD PUSH2 0x50FC JUMP JUMPDEST SWAP1 SSTORE DUP5 DUP3 MSTORE DUP1 DUP13 PUSH1 0x20 SWAP4 PUSH1 0x12 DUP6 MSTORE KECCAK256 SSTORE PUSH1 0x3 PUSH2 0x3564 DUP3 PUSH2 0x4919 JUMP JUMPDEST POP ADD PUSH2 0x3570 DUP2 SLOAD PUSH2 0x50FC JUMP JUMPDEST SWAP1 SSTORE PUSH2 0x357E PUSH2 0x8A1 DUP7 PUSH2 0x570A JUMP JUMPDEST PUSH2 0x8C8 PUSH2 0x358A DUP3 PUSH2 0x4919 JUMP JUMPDEST POP DUP14 DUP1 MLOAD SWAP5 DUP6 SWAP5 DUP6 MSTORE DUP5 ADD MSTORE DUP14 DUP4 ADD SWAP1 PUSH2 0x4789 JUMP JUMPDEST PUSH2 0x34DF JUMP JUMPDEST PUSH1 0x64 SWAP1 PUSH1 0x20 DUP5 MLOAD SWAP2 PUSH3 0x461BCD PUSH1 0xE5 SHL DUP4 MSTORE DUP3 ADD MSTORE PUSH1 0x1D PUSH1 0x24 DUP3 ADD MSTORE PUSH32 0x4261746368206D696E742065786365656473206D617820737570706C79000000 PUSH1 0x44 DUP3 ADD MSTORE REVERT JUMPDEST POP PUSH1 0xA DUP2 GT ISZERO PUSH2 0x34A2 JUMP JUMPDEST POP POP CALLVALUE PUSH2 0x4E6 JUMPI PUSH2 0x152D PUSH2 0xE05 SWAP2 PUSH2 0x3609 CALLDATASIZE PUSH2 0x4568 JUMP JUMPDEST SWAP2 SWAP3 MLOAD SWAP3 PUSH2 0x3616 DUP5 PUSH2 0x4850 JUMP JUMPDEST DUP7 DUP5 MSTORE PUSH2 0x151D PUSH2 0x1518 DUP5 CALLER PUSH2 0x4B71 JUMP JUMPDEST SWAP1 POP CALLVALUE PUSH2 0x5B2 JUMPI PUSH1 0x20 CALLDATASIZE PUSH1 0x3 NOT ADD SLT PUSH2 0x5B2 JUMPI PUSH1 0x20 SWAP3 DUP3 SWAP2 CALLDATALOAD DUP2 MSTORE PUSH1 0x12 DUP5 MSTORE KECCAK256 SLOAD SWAP1 MLOAD SWAP1 DUP2 MSTORE RETURN JUMPDEST SWAP2 SWAP1 POP CALLVALUE PUSH2 0x5B2 JUMPI DUP3 PUSH1 0x3 NOT CALLDATASIZE ADD SLT PUSH2 0x5B2 JUMPI PUSH2 0x3669 PUSH2 0x49AE JUMP JUMPDEST PUSH2 0x3671 PUSH2 0x5165 JUMP JUMPDEST PUSH1 0x23 SLOAD PUSH1 0x10 SHR PUSH1 0x1 PUSH1 0x1 PUSH1 0xA0 SHL SUB AND DUP1 ISZERO PUSH2 0x36E8 JUMPI DUP4 DUP1 DUP1 DUP1 SWAP4 SELFBALANCE SWAP1 PUSH2 0x3698 DUP3 ISZERO ISZERO PUSH2 0x60B0 JUMP JUMPDEST GAS CALL PUSH2 0x36A2 PUSH2 0x4DAC JUMP JUMPDEST POP ISZERO PUSH2 0x36B1 JUMPI DUP3 PUSH1 0x1 PUSH1 0x8 SSTORE DUP1 RETURN JUMPDEST SWAP1 PUSH1 0x20 PUSH1 0x64 SWAP3 MLOAD SWAP2 PUSH3 0x461BCD PUSH1 0xE5 SHL DUP4 MSTORE DUP3 ADD MSTORE PUSH1 0x11 PUSH1 0x24 DUP3 ADD MSTORE PUSH17 0x15DA5D1A191C985DD85B0819985A5B1959 PUSH1 0x7A SHL PUSH1 0x44 DUP3 ADD MSTORE REVERT JUMPDEST DUP2 MLOAD PUSH3 0x461BCD PUSH1 0xE5 SHL DUP2 MSTORE PUSH1 0x20 DUP2 DUP6 ADD MSTORE PUSH1 0x18 PUSH1 0x24 DUP3 ADD MSTORE PUSH24 0x15DA5D1A191C985DC81859191C995CDCC81B9BDD081CD95D PUSH1 0x42 SHL PUSH1 0x44 DUP3 ADD MSTORE PUSH1 0x64 SWAP1 REVERT JUMPDEST SWAP2 SWAP1 POP CALLVALUE PUSH2 0x5B2 JUMPI DUP3 PUSH1 0x3 NOT CALLDATASIZE ADD SLT PUSH2 0x5B2 JUMPI PUSH1 0x0 DUP1 MLOAD PUSH1 0x20 PUSH2 0x6258 DUP4 CODECOPY DUP2 MLOAD SWAP2 MSTORE SWAP2 DUP3 DUP5 MSTORE PUSH1 0x20 SWAP3 PUSH1 0xA DUP5 MSTORE DUP3 DUP6 KECCAK256 CALLER DUP7 MSTORE DUP5 MSTORE PUSH1 0xFF DUP4 DUP7 KECCAK256 SLOAD AND ISZERO PUSH2 0x37AA JUMPI DUP5 PUSH32 0x886BF152398E89A7DE17F229134A054C5448ADA42007EAAE5187B82753278BE6 DUP6 DUP6 PUSH1 0x23 SLOAD SWAP1 PUSH1 0xFF DUP1 DUP4 AND ISZERO AND DUP1 SWAP3 PUSH1 0xFF NOT AND OR PUSH1 0x23 SSTORE MLOAD SWAP1 ISZERO ISZERO DUP2 MSTORE LOG1 DUP1 RETURN JUMPDEST SWAP1 SWAP3 SWAP4 PUSH2 0x37B6 CALLER PUSH2 0x5E0D JUMP JUMPDEST SWAP2 DUP4 MLOAD SWAP1 PUSH2 0x37C3 DUP3 PUSH2 0x486B JUMP JUMPDEST PUSH1 0x42 DUP3 MSTORE DUP7 DUP3 ADD SWAP3 PUSH1 0x60 CALLDATASIZE DUP6 CALLDATACOPY DUP3 MLOAD ISZERO PUSH2 0x391F JUMPI PUSH1 0x30 DUP5 MSTORE8 DUP3 MLOAD SWAP1 PUSH1 0x1 SWAP2 DUP3 LT ISZERO PUSH2 0x390C JUMPI SWAP1 PUSH1 0x78 PUSH1 0x21 DUP6 ADD MSTORE8 PUSH1 0x41 SWAP2 JUMPDEST DUP2 DUP4 GT PUSH2 0x38A1 JUMPI POP POP POP PUSH2 0x3872 JUMPI PUSH1 0x48 PUSH2 0x3849 SWAP4 DUP6 SWAP4 PUSH2 0x3858 SWAP4 PUSH2 0x9C3 SWAP8 MLOAD SWAP7 DUP8 SWAP4 PUSH23 0x20B1B1B2B9B9A1B7B73A3937B61D1030B1B1B7BAB73A1 PUSH1 0x4D SHL DUP13 DUP7 ADD MSTORE PUSH2 0x973 DUP13 DUP3 MLOAD SWAP3 DUP4 SWAP2 PUSH1 0x37 DUP10 ADD SWAP2 ADD PUSH2 0x4520 JUMP JUMPDEST ADD SUB PUSH1 0x28 DUP2 ADD DUP6 MSTORE ADD DUP4 PUSH2 0x4886 JUMP JUMPDEST MLOAD SWAP4 DUP5 SWAP4 PUSH3 0x461BCD PUSH1 0xE5 SHL DUP6 MSTORE DUP5 ADD MSTORE PUSH1 0x24 DUP4 ADD SWAP1 PUSH2 0x4543 JUMP JUMPDEST PUSH1 0x64 DUP6 DUP8 DUP1 DUP8 MLOAD SWAP3 PUSH3 0x461BCD PUSH1 0xE5 SHL DUP5 MSTORE DUP4 ADD MSTORE PUSH1 0x24 DUP3 ADD MSTORE PUSH1 0x0 DUP1 MLOAD PUSH1 0x20 PUSH2 0x6138 DUP4 CODECOPY DUP2 MLOAD SWAP2 MSTORE PUSH1 0x44 DUP3 ADD MSTORE REVERT JUMPDEST SWAP1 SWAP2 SWAP3 PUSH1 0xF DUP2 AND PUSH1 0x10 DUP2 LT ISZERO PUSH2 0x38F9 JUMPI PUSH16 0x181899199A1A9B1B9C1CB0B131B232B3 PUSH1 0x81 SHL SWAP1 BYTE PUSH2 0x38D1 DUP6 DUP8 PUSH2 0x5DFC JUMP JUMPDEST MSTORE8 DUP9 SHR SWAP3 DUP1 ISZERO PUSH2 0x38E6 JUMPI PUSH1 0x0 NOT ADD SWAP2 SWAP1 PUSH2 0x37F4 JUMP JUMPDEST PUSH4 0x4E487B71 PUSH1 0xE0 SHL DUP3 MSTORE PUSH1 0x11 DUP10 MSTORE PUSH1 0x24 DUP3 REVERT JUMPDEST PUSH4 0x4E487B71 PUSH1 0xE0 SHL DUP4 MSTORE PUSH1 0x32 DUP11 MSTORE PUSH1 0x24 DUP4 REVERT JUMPDEST PUSH4 0x4E487B71 PUSH1 0xE0 SHL DUP2 MSTORE PUSH1 0x32 DUP9 MSTORE PUSH1 0x24 SWAP1 REVERT JUMPDEST PUSH4 0x4E487B71 PUSH1 0xE0 SHL DUP2 MSTORE PUSH1 0x32 DUP8 MSTORE PUSH1 0x24 SWAP1 REVERT JUMPDEST SWAP1 POP CALLVALUE PUSH2 0x5B2 JUMPI PUSH1 0x20 CALLDATASIZE PUSH1 0x3 NOT ADD SLT PUSH2 0x5B2 JUMPI PUSH2 0x394D PUSH2 0x44C6 JUMP JUMPDEST SWAP1 PUSH2 0x3956 PUSH2 0x49AE JUMP JUMPDEST PUSH1 0x1 PUSH1 0x1 PUSH1 0xA0 SHL SUB DUP3 AND SWAP3 DUP4 ISZERO PUSH2 0x39B7 JUMPI POP POP PUSH1 0x23 DUP1 SLOAD PUSH3 0x10000 PUSH1 0x1 PUSH1 0xB0 SHL SUB NOT AND PUSH1 0x10 SWAP3 SWAP1 SWAP3 SHL PUSH3 0x10000 PUSH1 0x1 PUSH1 0xB0 SHL SUB AND SWAP2 SWAP1 SWAP2 OR SWAP1 SSTORE PUSH32 0x7560C42213A1D729912E2864A115883B3E527BA2F5813ECC26188D5EA8BCF403 DUP3 DUP1 LOG2 DUP1 RETURN JUMPDEST SWAP1 PUSH1 0x20 PUSH1 0x64 SWAP3 MLOAD SWAP2 PUSH3 0x461BCD PUSH1 0xE5 SHL DUP4 MSTORE DUP3 ADD MSTORE PUSH1 0x17 PUSH1 0x24 DUP3 ADD MSTORE PUSH23 0x43616E6E6F7420736574207A65726F2061646472657373 PUSH1 0x48 SHL PUSH1 0x44 DUP3 ADD MSTORE REVERT JUMPDEST DUP4 SWAP2 POP CALLVALUE PUSH2 0x4E6 JUMPI DUP3 PUSH1 0x3 NOT CALLDATASIZE ADD SLT PUSH2 0x4E6 JUMPI PUSH2 0x3A0F PUSH2 0x44DC JUMP JUMPDEST SWAP1 CALLER PUSH1 0x1 PUSH1 0x1 PUSH1 0xA0 SHL SUB DUP4 AND SUB PUSH2 0x3A2B JUMPI SWAP1 PUSH2 0xE05 SWAP2 CALLDATALOAD PUSH2 0x4938 JUMP JUMPDEST PUSH1 0x84 SWAP1 PUSH1 0x20 DUP6 MLOAD SWAP2 PUSH3 0x461BCD PUSH1 0xE5 SHL DUP4 MSTORE DUP3 ADD MSTORE PUSH1 0x2F PUSH1 0x24 DUP3 ADD MSTORE PUSH32 0x416363657373436F6E74726F6C3A2063616E206F6E6C792072656E6F756E6365 PUSH1 0x44 DUP3 ADD MSTORE PUSH15 0x103937B632B9903337B91039B2B633 PUSH1 0x89 SHL PUSH1 0x64 DUP3 ADD MSTORE REVERT JUMPDEST SWAP1 POP CALLVALUE PUSH2 0x5B2 JUMPI DUP2 PUSH1 0x3 NOT CALLDATASIZE ADD SLT PUSH2 0x5B2 JUMPI CALLDATALOAD SWAP1 PUSH2 0x3AA2 PUSH2 0x44DC JUMP JUMPDEST SWAP1 PUSH2 0x3AAB PUSH2 0x49AE JUMP JUMPDEST DUP3 DUP5 MSTORE PUSH1 0xA PUSH1 0x20 SWAP1 DUP2 MSTORE DUP2 DUP6 KECCAK256 PUSH1 0x1 PUSH1 0x1 PUSH1 0xA0 SHL SUB SWAP1 SWAP4 AND DUP1 DUP7 MSTORE SWAP3 SWAP1 MSTORE DUP1 DUP5 KECCAK256 SLOAD PUSH1 0xFF AND ISZERO PUSH2 0x3AD9 JUMPI DUP4 DUP1 RETURN JUMPDEST DUP3 DUP5 MSTORE PUSH1 0xA PUSH1 0x20 MSTORE DUP1 DUP5 KECCAK256 DUP3 DUP6 MSTORE PUSH1 0x20 MSTORE DUP4 KECCAK256 PUSH1 0x1 PUSH1 0xFF NOT DUP3 SLOAD AND OR SWAP1 SSTORE CALLER SWAP2 PUSH32 0x2F8788117E7EFF1D82E926EC794901D17C78024A50270940304540A733656F0D DUP5 DUP1 LOG4 CODESIZE DUP1 DUP1 DUP4 DUP1 RETURN JUMPDEST POP POP CALLVALUE PUSH2 0x4E6 JUMPI DUP2 PUSH1 0x3 NOT CALLDATASIZE ADD SLT PUSH2 0x4E6 JUMPI SWAP1 PUSH1 0x60 SWAP2 PUSH1 0xFF PUSH1 0x1E SLOAD AND SWAP1 PUSH2 0x3B49 PUSH2 0x5B76 JUMP JUMPDEST SWAP2 ISZERO DUP1 ISZERO SWAP4 SWAP1 DUP5 PUSH2 0x3BA4 JUMPI JUMPDEST ISZERO PUSH2 0x3B6B JUMPI SWAP2 JUMPDEST DUP2 MLOAD SWAP4 DUP5 MSTORE PUSH1 0x20 DUP5 ADD MSTORE DUP3 ADD MSTORE RETURN JUMPDEST PUSH1 0x1B SLOAD PUSH1 0x1C SLOAD PUSH2 0x3B7B DUP2 DUP4 PUSH2 0x5551 JUMP JUMPDEST TIMESTAMP LT PUSH2 0x3B89 JUMPI POP POP SWAP2 PUSH2 0x3B5C JUMP JUMPDEST PUSH2 0x3B9E SWAP3 POP PUSH2 0x3B99 SWAP1 TIMESTAMP SWAP3 PUSH2 0x5551 JUMP JUMPDEST PUSH2 0x58F4 JUMP JUMPDEST SWAP2 PUSH2 0x3B5C JUMP JUMPDEST POP PUSH1 0x1B SLOAD TIMESTAMP LT PUSH2 0x3B55 JUMP JUMPDEST DUP3 DUP5 CALLVALUE PUSH2 0x540 JUMPI PUSH1 0x20 SWAP2 DUP3 PUSH1 0x3 NOT CALLDATASIZE ADD SLT PUSH2 0x4E6 JUMPI PUSH1 0x22 DUP5 CALLDATALOAD SWAP4 PUSH2 0x3BD1 PUSH2 0x5165 JUMP JUMPDEST PUSH2 0x3BDF PUSH1 0xFF PUSH1 0x23 SLOAD AND PUSH2 0x5F09 JUMP JUMPDEST PUSH2 0x3BEB PUSH2 0xEC4 DUP7 PUSH2 0x4D8F JUMP JUMPDEST PUSH2 0x3BF7 PUSH2 0x167A DUP7 PUSH2 0x4A4D JUMP JUMPDEST DUP5 DUP5 MSTORE DUP1 DUP1 MSTORE PUSH2 0x3C0C PUSH1 0xFF DUP5 DUP7 KECCAK256 SLOAD AND PUSH2 0x5FEF JUMP JUMPDEST DUP5 DUP5 MSTORE DUP1 DUP1 MSTORE DUP3 DUP5 KECCAK256 PUSH1 0xFF NOT DUP2 SLOAD AND SWAP1 SSTORE PUSH1 0x21 DUP2 MSTORE DUP4 DUP4 DUP2 KECCAK256 SSTORE CALLER DUP5 MSTORE MSTORE DUP2 KECCAK256 SWAP2 DUP2 JUMPDEST DUP4 SLOAD DUP1 DUP3 LT ISZERO PUSH2 0x3CBB JUMPI DUP3 SWAP1 PUSH2 0x3C45 DUP4 DUP8 PUSH2 0x44F2 JUMP JUMPDEST SWAP3 SWAP1 SLOAD PUSH1 0x3 SWAP4 DUP5 SHL SHR EQ PUSH2 0x3C63 JUMPI POP POP PUSH2 0x3C5E SWAP1 PUSH2 0x50FC JUMP JUMPDEST PUSH2 0x3C2F JUMP JUMPDEST SWAP4 SWAP5 SWAP3 SWAP4 PUSH1 0x0 NOT DUP2 ADD SWAP1 DUP2 GT PUSH2 0x3CA8 JUMPI PUSH2 0x3C8C SWAP5 SWAP6 SWAP7 POP PUSH2 0xFAC SWAP3 SWAP2 PUSH2 0xF87 PUSH2 0xF93 SWAP3 DUP7 PUSH2 0x44F2 JUMP JUMPDEST CALLER SWAP1 PUSH1 0x0 DUP1 MLOAD PUSH1 0x20 PUSH2 0x6178 DUP4 CODECOPY DUP2 MLOAD SWAP2 MSTORE DUP4 DUP1 LOG3 PUSH1 0x1 PUSH1 0x8 SSTORE DUP1 RETURN JUMPDEST PUSH4 0x4E487B71 PUSH1 0xE0 SHL DUP7 MSTORE PUSH1 0x11 DUP8 MSTORE PUSH1 0x24 DUP7 REVERT JUMPDEST POP POP SWAP2 POP SWAP2 POP PUSH2 0x3C8C JUMP JUMPDEST DUP4 SWAP2 POP CALLVALUE PUSH2 0x4E6 JUMPI DUP3 PUSH1 0x3 NOT CALLDATASIZE ADD SLT PUSH2 0x4E6 JUMPI DUP1 CALLDATALOAD SWAP1 PUSH1 0x24 CALLDATALOAD PUSH1 0x1 PUSH1 0x1 PUSH1 0x40 SHL SUB DUP2 GT PUSH2 0x104D JUMPI PUSH2 0x3CFA SWAP1 CALLDATASIZE SWAP1 DUP4 ADD PUSH2 0x4603 JUMP JUMPDEST SWAP2 PUSH2 0x3D03 PUSH2 0x49AE JUMP JUMPDEST PUSH2 0x3D0C DUP5 PUSH2 0x4D8F JUMP JUMPDEST ISZERO PUSH2 0x3D9A JUMPI PUSH1 0xFF PUSH1 0xF SLOAD AND ISZERO PUSH2 0x3D5E JUMPI POP PUSH2 0x3D58 PUSH32 0xDB97328C83F32485A3581BD960425F69A2E03D66BBFDEF66CB9D290D07E02964 SWAP4 SWAP5 SWAP6 PUSH2 0x111B PUSH2 0x3D52 CALLDATASIZE DUP7 DUP7 PUSH2 0x48C4 JUMP JUMPDEST DUP8 PUSH2 0x53DC JUMP JUMPDEST SUB SWAP1 LOG2 DUP1 RETURN JUMPDEST PUSH1 0x64 SWAP1 PUSH1 0x20 DUP8 MLOAD SWAP2 PUSH3 0x461BCD PUSH1 0xE5 SHL DUP4 MSTORE DUP3 ADD MSTORE PUSH1 0x16 PUSH1 0x24 DUP3 ADD MSTORE PUSH22 0x151BDAD95B881B9BDD081C995D99585B1959081E595D PUSH1 0x52 SHL PUSH1 0x44 DUP3 ADD MSTORE REVERT JUMPDEST PUSH1 0x64 SWAP1 PUSH1 0x20 DUP8 MLOAD SWAP2 PUSH3 0x461BCD PUSH1 0xE5 SHL DUP4 MSTORE DUP3 ADD MSTORE PUSH1 0xF PUSH1 0x24 DUP3 ADD MSTORE PUSH15 0x125B9D985B1A59081D1BDAD95B9259 PUSH1 0x8A SHL PUSH1 0x44 DUP3 ADD MSTORE REVERT JUMPDEST DUP3 DUP5 CALLVALUE PUSH2 0x540 JUMPI DUP2 PUSH1 0x3 NOT CALLDATASIZE ADD SLT PUSH2 0x540 JUMPI POP PUSH1 0x1F SLOAD PUSH2 0x2710 SWAP1 PUSH2 0x3DFE SWAP1 PUSH1 0x1 PUSH1 0x1 PUSH1 0x60 SHL SUB AND PUSH1 0x24 CALLDATALOAD PUSH2 0x5B63 JUMP JUMPDEST PUSH1 0x1E SLOAD SWAP3 MLOAD SWAP3 DUP4 SWAP3 PUSH2 0x771 SWAP3 DIV SWAP1 PUSH1 0x8 SHR PUSH1 0x1 PUSH1 0x1 PUSH1 0xA0 SHL SUB AND DUP4 PUSH2 0x45E8 JUMP JUMPDEST SWAP1 POP DUP3 CALLVALUE PUSH2 0x540 JUMPI PUSH1 0x20 CALLDATASIZE PUSH1 0x3 NOT ADD SLT PUSH2 0x540 JUMPI POP DUP1 CALLDATALOAD SWAP1 PUSH2 0x3E3E PUSH2 0x4F4B JUMP JUMPDEST POP PUSH1 0x11 SLOAD DUP3 LT ISZERO PUSH2 0x3E59 JUMPI PUSH2 0x771 DUP4 PUSH2 0x2E97 PUSH2 0x2E91 DUP6 PUSH2 0x4919 JUMP JUMPDEST PUSH1 0x64 SWAP1 PUSH1 0x20 DUP5 MLOAD SWAP2 PUSH3 0x461BCD PUSH1 0xE5 SHL DUP4 MSTORE DUP3 ADD MSTORE PUSH1 0xD PUSH1 0x24 DUP3 ADD MSTORE PUSH13 0x92DCECC2D8D2C840D2DCC8CAF PUSH1 0x9B SHL PUSH1 0x44 DUP3 ADD MSTORE REVERT JUMPDEST DUP3 DUP5 CALLVALUE PUSH2 0x540 JUMPI PUSH1 0x20 CALLDATASIZE PUSH1 0x3 NOT ADD SLT PUSH2 0x540 JUMPI POP PUSH2 0x5DC PUSH1 0x20 SWAP3 CALLDATALOAD PUSH2 0x606E JUMP JUMPDEST SWAP1 POP CALLVALUE PUSH2 0x5B2 JUMPI PUSH1 0x20 CALLDATASIZE PUSH1 0x3 NOT ADD SLT PUSH2 0x5B2 JUMPI DUP2 PUSH1 0x20 SWAP4 PUSH1 0x1 SWAP3 CALLDATALOAD DUP2 MSTORE PUSH1 0xA DUP6 MSTORE KECCAK256 ADD SLOAD SWAP1 MLOAD SWAP1 DUP2 MSTORE RETURN JUMPDEST DUP4 CALLVALUE PUSH2 0x540 JUMPI PUSH2 0xE05 PUSH2 0x3EE9 CALLDATASIZE PUSH2 0x4568 JUMP JUMPDEST SWAP2 PUSH2 0x3EF7 PUSH2 0x1518 DUP5 CALLER PUSH2 0x4B71 JUMP JUMPDEST PUSH2 0x4C39 JUMP JUMPDEST POP POP CALLVALUE PUSH2 0x4E6 JUMPI DUP2 PUSH1 0x3 NOT CALLDATASIZE ADD SLT PUSH2 0x4E6 JUMPI PUSH1 0x20 SWAP1 PUSH1 0xFF PUSH1 0x23 SLOAD AND SWAP1 MLOAD SWAP1 ISZERO ISZERO DUP2 MSTORE RETURN JUMPDEST SWAP1 POP CALLVALUE PUSH2 0x5B2 JUMPI PUSH1 0x20 CALLDATASIZE PUSH1 0x3 NOT ADD SLT PUSH2 0x5B2 JUMPI PUSH1 0x20 SWAP3 DUP3 SWAP2 CALLDATALOAD DUP2 MSTORE PUSH1 0x21 DUP5 MSTORE KECCAK256 SLOAD SWAP1 MLOAD SWAP1 DUP2 MSTORE RETURN JUMPDEST POP POP CALLVALUE PUSH2 0x4E6 JUMPI DUP2 PUSH1 0x3 NOT CALLDATASIZE ADD SLT PUSH2 0x4E6 JUMPI PUSH1 0x23 SLOAD SWAP1 MLOAD PUSH1 0x10 SWAP2 SWAP1 SWAP2 SHR PUSH1 0x1 PUSH1 0x1 PUSH1 0xA0 SHL SUB AND DUP2 MSTORE PUSH1 0x20 SWAP1 RETURN JUMPDEST POP POP CALLVALUE PUSH2 0x4E6 JUMPI DUP2 PUSH1 0x3 NOT CALLDATASIZE ADD SLT PUSH2 0x4E6 JUMPI PUSH1 0x20 SWAP1 PUSH1 0x1C SLOAD SWAP1 MLOAD SWAP1 DUP2 MSTORE RETURN JUMPDEST POP POP CALLVALUE PUSH2 0x4E6 JUMPI DUP2 PUSH1 0x3 NOT CALLDATASIZE ADD SLT PUSH2 0x4E6 JUMPI PUSH1 0x20 SWAP1 PUSH1 0x11 SLOAD SWAP1 MLOAD SWAP1 DUP2 MSTORE RETURN JUMPDEST SWAP1 POP CALLVALUE PUSH2 0x5B2 JUMPI DUP2 PUSH1 0x3 NOT CALLDATASIZE ADD SLT PUSH2 0x5B2 JUMPI PUSH2 0x3FCD PUSH2 0x44C6 JUMP JUMPDEST PUSH1 0x24 CALLDATALOAD SWAP3 SWAP1 SWAP2 PUSH1 0x1 PUSH1 0x1 PUSH1 0xA0 SHL SUB SWAP2 SWAP1 DUP3 DUP1 PUSH2 0x3FE8 DUP8 PUSH2 0x4A4D JUMP JUMPDEST AND SWAP5 AND SWAP4 DUP1 DUP6 EQ PUSH2 0x40D4 JUMPI DUP1 CALLER EQ SWAP1 DUP2 ISZERO PUSH2 0x40B5 JUMPI JUMPDEST POP ISZERO PUSH2 0x404D JUMPI DUP5 DUP7 MSTORE PUSH1 0x20 MSTORE DUP5 KECCAK256 DUP1 SLOAD PUSH1 0x1 PUSH1 0x1 PUSH1 0xA0 SHL SUB NOT AND DUP4 OR SWAP1 SSTORE PUSH2 0x4025 DUP4 PUSH2 0x4A4D JUMP JUMPDEST AND PUSH32 0x8C5BE1E5EBEC7D5BD14F71427D1E84F3DD0314C0F7B2291E5B200AC8C7C3B925 DUP5 DUP1 LOG4 DUP1 RETURN JUMPDEST PUSH1 0x20 PUSH1 0x84 SWAP3 MLOAD SWAP2 PUSH3 0x461BCD PUSH1 0xE5 SHL DUP4 MSTORE DUP3 ADD MSTORE PUSH1 0x3D PUSH1 0x24 DUP3 ADD MSTORE PUSH32 0x4552433732313A20617070726F76652063616C6C6572206973206E6F7420746F PUSH1 0x44 DUP3 ADD MSTORE PUSH32 0x6B656E206F776E6572206F7220617070726F76656420666F7220616C6C000000 PUSH1 0x64 DUP3 ADD MSTORE REVERT JUMPDEST SWAP1 POP DUP7 MSTORE PUSH1 0x5 PUSH1 0x20 MSTORE DUP2 DUP7 KECCAK256 CALLER DUP8 MSTORE PUSH1 0x20 MSTORE PUSH1 0xFF DUP3 DUP8 KECCAK256 SLOAD AND CODESIZE PUSH2 0x3FFE JUMP JUMPDEST POP PUSH1 0x20 PUSH1 0x84 SWAP3 MLOAD SWAP2 PUSH3 0x461BCD PUSH1 0xE5 SHL DUP4 MSTORE DUP3 ADD MSTORE PUSH1 0x21 PUSH1 0x24 DUP3 ADD MSTORE PUSH32 0x4552433732313A20617070726F76616C20746F2063757272656E74206F776E65 PUSH1 0x44 DUP3 ADD MSTORE PUSH1 0x39 PUSH1 0xF9 SHL PUSH1 0x64 DUP3 ADD MSTORE REVERT JUMPDEST POP POP CALLVALUE PUSH2 0x4E6 JUMPI PUSH1 0x20 CALLDATASIZE PUSH1 0x3 NOT ADD SLT PUSH2 0x4E6 JUMPI PUSH1 0x20 SWAP2 DUP2 SWAP1 PUSH1 0x1 PUSH1 0x1 PUSH1 0xA0 SHL SUB PUSH2 0x4149 PUSH2 0x44C6 JUMP JUMPDEST AND DUP2 MSTORE PUSH1 0x22 DUP5 MSTORE KECCAK256 SLOAD SWAP1 MLOAD SWAP1 DUP2 MSTORE RETURN JUMPDEST DUP3 DUP5 CALLVALUE PUSH2 0x540 JUMPI PUSH1 0x20 CALLDATASIZE PUSH1 0x3 NOT ADD SLT PUSH2 0x540 JUMPI POP PUSH2 0x2CD8 PUSH1 0x20 SWAP3 CALLDATALOAD PUSH2 0x4A70 JUMP JUMPDEST POP POP CALLVALUE PUSH2 0x4E6 JUMPI DUP2 PUSH1 0x3 NOT CALLDATASIZE ADD SLT PUSH2 0x4E6 JUMPI DUP1 MLOAD SWAP1 DUP3 DUP1 SLOAD PUSH2 0x419A DUP2 PUSH2 0x4660 JUMP JUMPDEST DUP1 DUP6 MSTORE SWAP1 PUSH1 0x1 SWAP1 DUP2 DUP2 AND SWAP1 DUP2 ISZERO PUSH2 0x2AF5 JUMPI POP PUSH1 0x1 EQ PUSH2 0x41C5 JUMPI POP POP POP PUSH2 0x75F DUP3 PUSH2 0x771 SWAP5 SUB DUP4 PUSH2 0x4886 JUMP JUMPDEST SWAP5 POP DUP2 DUP1 MSTORE PUSH1 0x20 SWAP5 DUP6 DUP4 KECCAK256 JUMPDEST DUP3 DUP5 LT PUSH2 0x41ED JUMPI POP POP POP DUP3 PUSH2 0x771 SWAP5 PUSH2 0x75F SWAP3 DUP3 ADD ADD SWAP5 PUSH2 0x2A8A JUMP JUMPDEST DUP1 SLOAD DUP7 DUP6 ADD DUP9 ADD MSTORE SWAP3 DUP7 ADD SWAP3 DUP2 ADD PUSH2 0x41D1 JUMP JUMPDEST POP POP CALLVALUE PUSH2 0x4E6 JUMPI DUP1 PUSH1 0x3 NOT CALLDATASIZE ADD SLT PUSH2 0x4E6 JUMPI PUSH2 0x421A PUSH2 0x44C6 JUMP JUMPDEST PUSH1 0x1 PUSH1 0x1 PUSH1 0xA0 SHL SUB AND DUP3 MSTORE PUSH1 0x22 PUSH1 0x20 MSTORE DUP1 DUP3 KECCAK256 DUP1 SLOAD PUSH1 0x24 CALLDATALOAD SWAP4 SWAP1 DUP5 LT ISZERO PUSH2 0x540 JUMPI POP PUSH1 0x20 SWAP3 PUSH2 0x4248 SWAP2 PUSH2 0x44F2 JUMP JUMPDEST SWAP2 SWAP1 SLOAD SWAP1 MLOAD SWAP2 PUSH1 0x3 SHL SHR DUP2 MSTORE RETURN JUMPDEST DUP4 DUP4 CALLVALUE PUSH2 0x4E6 JUMPI DUP1 PUSH1 0x3 NOT CALLDATASIZE ADD SLT PUSH2 0x4E6 JUMPI PUSH2 0x4270 PUSH2 0x44C6 JUMP JUMPDEST SWAP3 PUSH1 0x24 CALLDATALOAD PUSH1 0x1 PUSH1 0x1 PUSH1 0x60 SHL SUB DUP2 AND SWAP1 DUP2 SWAP1 SUB PUSH2 0x104D JUMPI PUSH2 0x428E PUSH2 0x49AE JUMP JUMPDEST PUSH2 0x3E8 DUP2 GT PUSH2 0x435A JUMPI PUSH1 0x1 PUSH1 0x1 PUSH1 0xA0 SHL SUB DUP6 AND SWAP2 DUP3 ISZERO PUSH2 0x4317 JUMPI POP PUSH1 0x1E DUP1 SLOAD PUSH2 0x100 PUSH1 0x1 PUSH1 0xA8 SHL SUB NOT AND PUSH1 0x8 SWAP7 SWAP1 SWAP7 SHL PUSH2 0x100 PUSH1 0x1 PUSH1 0xA8 SHL SUB AND SWAP6 SWAP1 SWAP6 OR SWAP1 SWAP5 SSTORE PUSH1 0x1F DUP1 SLOAD PUSH1 0x1 PUSH1 0x1 PUSH1 0x60 SHL SUB NOT AND DUP6 OR SWAP1 SSTORE DUP2 MLOAD SWAP1 DUP2 MSTORE PUSH1 0x20 DUP2 ADD SWAP4 SWAP1 SWAP4 MSTORE SWAP1 SWAP2 PUSH32 0x8039BD6E4E7DBA001C8840EB2E118D9D131246FAA7D0D04335F7305127EC0B10 SWAP2 SWAP1 LOG1 DUP1 RETURN JUMPDEST PUSH1 0x64 SWAP1 PUSH1 0x20 DUP6 MLOAD SWAP2 PUSH3 0x461BCD PUSH1 0xE5 SHL DUP4 MSTORE DUP3 ADD MSTORE PUSH1 0x20 PUSH1 0x24 DUP3 ADD MSTORE PUSH32 0x526563697069656E742063616E6E6F74206265207A65726F2061646472657373 PUSH1 0x44 DUP3 ADD MSTORE REVERT JUMPDEST POP PUSH1 0x20 PUSH1 0x64 SWAP3 MLOAD SWAP2 PUSH3 0x461BCD PUSH1 0xE5 SHL DUP4 MSTORE DUP3 ADD MSTORE PUSH1 0x1D PUSH1 0x24 DUP3 ADD MSTORE PUSH32 0x526F79616C7479206665652063616E6E6F742065786365656420313025000000 PUSH1 0x44 DUP3 ADD MSTORE REVERT JUMPDEST POP POP CALLVALUE PUSH2 0x4E6 JUMPI PUSH1 0x20 CALLDATASIZE PUSH1 0x3 NOT ADD SLT PUSH2 0x4E6 JUMPI PUSH1 0x20 PUSH32 0xB7CA260B52317206C15B3B393B9437B88D5A6495EF4CC56FDC039F65DB3036E5 SWAP2 PUSH2 0x43DC PUSH2 0x44B7 JUMP JUMPDEST PUSH2 0x43E4 PUSH2 0x49AE JUMP JUMPDEST ISZERO ISZERO SWAP1 PUSH1 0xFF NOT PUSH1 0x18 SLOAD AND PUSH1 0xFF DUP4 AND OR PUSH1 0x18 SSTORE MLOAD SWAP1 DUP2 MSTORE LOG1 DUP1 RETURN JUMPDEST DUP5 SWAP2 CALLVALUE PUSH2 0x5B2 JUMPI PUSH1 0x20 CALLDATASIZE PUSH1 0x3 NOT ADD SLT PUSH2 0x5B2 JUMPI CALLDATALOAD PUSH4 0xFFFFFFFF PUSH1 0xE0 SHL DUP2 AND DUP1 SWAP2 SUB PUSH2 0x5B2 JUMPI PUSH1 0x20 SWAP3 POP PUSH4 0x152A902D PUSH1 0xE1 SHL DUP2 EQ SWAP1 DUP2 ISZERO PUSH2 0x4440 JUMPI JUMPDEST POP ISZERO ISZERO DUP2 MSTORE RETURN JUMPDEST PUSH4 0x7965DB0B PUSH1 0xE0 SHL DUP2 EQ SWAP2 POP DUP2 ISZERO PUSH2 0x445A JUMPI JUMPDEST POP DUP4 PUSH2 0x4439 JUMP JUMPDEST PUSH4 0x24832483 PUSH1 0xE1 SHL DUP2 EQ SWAP2 POP DUP2 ISZERO PUSH2 0x4474 JUMPI JUMPDEST POP DUP4 PUSH2 0x4453 JUMP JUMPDEST PUSH4 0x80AC58CD PUSH1 0xE0 SHL DUP2 EQ SWAP2 POP DUP2 ISZERO PUSH2 0x44A6 JUMPI JUMPDEST DUP2 ISZERO PUSH2 0x4495 JUMPI JUMPDEST POP DUP4 PUSH2 0x446D JUMP JUMPDEST PUSH4 0x1FFC9A7 PUSH1 0xE0 SHL EQ SWAP1 POP DUP4 PUSH2 0x448E JUMP JUMPDEST PUSH4 0x5B5E139F PUSH1 0xE0 SHL DUP2 EQ SWAP2 POP PUSH2 0x4487 JUMP JUMPDEST PUSH1 0x4 CALLDATALOAD SWAP1 DUP2 ISZERO ISZERO DUP3 SUB PUSH2 0x1894 JUMPI JUMP JUMPDEST PUSH1 0x4 CALLDATALOAD SWAP1 PUSH1 0x1 PUSH1 0x1 PUSH1 0xA0 SHL SUB DUP3 AND DUP3 SUB PUSH2 0x1894 JUMPI JUMP JUMPDEST PUSH1 0x24 CALLDATALOAD SWAP1 PUSH1 0x1 PUSH1 0x1 PUSH1 0xA0 SHL SUB DUP3 AND DUP3 SUB PUSH2 0x1894 JUMPI JUMP JUMPDEST DUP1 SLOAD DUP3 LT ISZERO PUSH2 0x450A JUMPI PUSH1 0x0 MSTORE PUSH1 0x20 PUSH1 0x0 KECCAK256 ADD SWAP1 PUSH1 0x0 SWAP1 JUMP JUMPDEST PUSH4 0x4E487B71 PUSH1 0xE0 SHL PUSH1 0x0 MSTORE PUSH1 0x32 PUSH1 0x4 MSTORE PUSH1 0x24 PUSH1 0x0 REVERT JUMPDEST PUSH1 0x0 JUMPDEST DUP4 DUP2 LT PUSH2 0x4533 JUMPI POP POP PUSH1 0x0 SWAP2 ADD MSTORE JUMP JUMPDEST DUP2 DUP2 ADD MLOAD DUP4 DUP3 ADD MSTORE PUSH1 0x20 ADD PUSH2 0x4523 JUMP JUMPDEST SWAP1 PUSH1 0x20 SWAP2 PUSH2 0x455C DUP2 MLOAD DUP1 SWAP3 DUP2 DUP6 MSTORE DUP6 DUP1 DUP7 ADD SWAP2 ADD PUSH2 0x4520 JUMP JUMPDEST PUSH1 0x1F ADD PUSH1 0x1F NOT AND ADD ADD SWAP1 JUMP JUMPDEST PUSH1 0x60 SWAP1 PUSH1 0x3 NOT ADD SLT PUSH2 0x1894 JUMPI PUSH1 0x1 PUSH1 0x1 PUSH1 0xA0 SHL SUB SWAP1 PUSH1 0x4 CALLDATALOAD DUP3 DUP2 AND DUP2 SUB PUSH2 0x1894 JUMPI SWAP2 PUSH1 0x24 CALLDATALOAD SWAP1 DUP2 AND DUP2 SUB PUSH2 0x1894 JUMPI SWAP1 PUSH1 0x44 CALLDATALOAD SWAP1 JUMP JUMPDEST PUSH2 0x45E5 SWAP2 PUSH1 0x80 PUSH2 0x45B6 DUP4 MLOAD PUSH1 0xA0 DUP5 MSTORE PUSH1 0xA0 DUP5 ADD SWAP1 PUSH2 0x4543 JUMP JUMPDEST SWAP3 PUSH1 0x20 DUP2 ADD MLOAD PUSH1 0x20 DUP5 ADD MSTORE PUSH1 0x40 DUP2 ADD MLOAD PUSH1 0x40 DUP5 ADD MSTORE PUSH1 0x60 DUP2 ADD MLOAD PUSH1 0x60 DUP5 ADD MSTORE ADD MLOAD SWAP1 PUSH1 0x80 DUP2 DUP5 SUB SWAP2 ADD MSTORE PUSH2 0x4543 JUMP JUMPDEST SWAP1 JUMP JUMPDEST PUSH1 0x1 PUSH1 0x1 PUSH1 0xA0 SHL SUB SWAP1 SWAP2 AND DUP2 MSTORE PUSH1 0x20 DUP2 ADD SWAP2 SWAP1 SWAP2 MSTORE PUSH1 0x40 ADD SWAP1 JUMP JUMPDEST SWAP2 DUP2 PUSH1 0x1F DUP5 ADD SLT ISZERO PUSH2 0x1894 JUMPI DUP3 CALLDATALOAD SWAP2 PUSH1 0x1 PUSH1 0x1 PUSH1 0x40 SHL SUB DUP4 GT PUSH2 0x1894 JUMPI PUSH1 0x20 DUP4 DUP2 DUP7 ADD SWAP6 ADD ADD GT PUSH2 0x1894 JUMPI JUMP JUMPDEST SWAP2 DUP2 PUSH1 0x1F DUP5 ADD SLT ISZERO PUSH2 0x1894 JUMPI DUP3 CALLDATALOAD SWAP2 PUSH1 0x1 PUSH1 0x1 PUSH1 0x40 SHL SUB DUP4 GT PUSH2 0x1894 JUMPI PUSH1 0x20 DUP1 DUP6 ADD SWAP5 DUP5 PUSH1 0x5 SHL ADD ADD GT PUSH2 0x1894 JUMPI JUMP JUMPDEST SWAP1 PUSH1 0x1 DUP3 DUP2 SHR SWAP3 AND DUP1 ISZERO PUSH2 0x4690 JUMPI JUMPDEST PUSH1 0x20 DUP4 LT EQ PUSH2 0x467A JUMPI JUMP JUMPDEST PUSH4 0x4E487B71 PUSH1 0xE0 SHL PUSH1 0x0 MSTORE PUSH1 0x22 PUSH1 0x4 MSTORE PUSH1 0x24 PUSH1 0x0 REVERT JUMPDEST SWAP2 PUSH1 0x7F AND SWAP2 PUSH2 0x466F JUMP JUMPDEST PUSH1 0x10 SLOAD PUSH1 0x0 SWAP3 SWAP2 PUSH2 0x46AA DUP3 PUSH2 0x4660 JUMP JUMPDEST SWAP1 DUP2 DUP2 MSTORE PUSH1 0x1 SWAP3 DUP4 DUP2 AND SWAP1 DUP2 PUSH1 0x0 EQ PUSH2 0x4704 JUMPI POP PUSH1 0x1 EQ PUSH2 0x46CA JUMPI POP POP POP JUMP JUMPDEST SWAP1 SWAP3 SWAP4 POP PUSH1 0x10 PUSH1 0x0 MSTORE PUSH1 0x20 SWAP3 DUP4 PUSH1 0x0 KECCAK256 SWAP3 DUP5 PUSH1 0x0 SWAP5 JUMPDEST DUP4 DUP7 LT PUSH2 0x46F0 JUMPI POP POP POP POP ADD ADD SWAP1 JUMP JUMPDEST DUP1 SLOAD DUP6 DUP8 ADD DUP4 ADD MSTORE SWAP5 ADD SWAP4 DUP6 SWAP1 DUP3 ADD PUSH2 0x46E0 JUMP JUMPDEST SWAP2 SWAP4 POP POP PUSH1 0x20 SWAP4 SWAP5 POP PUSH1 0xFF NOT AND DUP4 DUP4 ADD MSTORE ISZERO ISZERO PUSH1 0x5 SHL ADD ADD SWAP1 JUMP JUMPDEST PUSH1 0xE SLOAD PUSH1 0x0 SWAP3 SWAP2 PUSH2 0x472F DUP3 PUSH2 0x4660 JUMP JUMPDEST SWAP1 DUP2 DUP2 MSTORE PUSH1 0x1 SWAP3 DUP4 DUP2 AND SWAP1 DUP2 PUSH1 0x0 EQ PUSH2 0x4704 JUMPI POP PUSH1 0x1 EQ PUSH2 0x474F JUMPI POP POP POP JUMP JUMPDEST SWAP1 SWAP3 SWAP4 POP PUSH1 0xE PUSH1 0x0 MSTORE PUSH1 0x20 SWAP3 DUP4 PUSH1 0x0 KECCAK256 SWAP3 DUP5 PUSH1 0x0 SWAP5 JUMPDEST DUP4 DUP7 LT PUSH2 0x4775 JUMPI POP POP POP POP ADD ADD SWAP1 JUMP JUMPDEST DUP1 SLOAD DUP6 DUP8 ADD DUP4 ADD MSTORE SWAP5 ADD SWAP4 DUP6 SWAP1 DUP3 ADD PUSH2 0x4765 JUMP JUMPDEST SWAP1 PUSH1 0x0 SWAP3 SWAP2 DUP1 SLOAD SWAP2 PUSH2 0x479A DUP4 PUSH2 0x4660 JUMP JUMPDEST SWAP2 DUP3 DUP3 MSTORE PUSH1 0x1 SWAP4 DUP5 DUP2 AND SWAP1 DUP2 PUSH1 0x0 EQ PUSH2 0x47FC JUMPI POP PUSH1 0x1 EQ PUSH2 0x47BC JUMPI JUMPDEST POP POP POP POP JUMP JUMPDEST SWAP1 SWAP2 SWAP4 SWAP5 POP PUSH1 0x0 MSTORE PUSH1 0x20 SWAP3 DUP4 PUSH1 0x0 KECCAK256 SWAP3 DUP5 PUSH1 0x0 SWAP5 JUMPDEST DUP4 DUP7 LT PUSH2 0x47E8 JUMPI POP POP POP POP ADD ADD SWAP1 CODESIZE DUP1 DUP1 DUP1 PUSH2 0x47B6 JUMP JUMPDEST DUP1 SLOAD DUP6 DUP8 ADD DUP4 ADD MSTORE SWAP5 ADD SWAP4 DUP6 SWAP1 DUP3 ADD PUSH2 0x47D1 JUMP JUMPDEST SWAP3 SWAP5 POP POP POP PUSH1 0x20 SWAP4 SWAP5 POP PUSH1 0xFF NOT AND DUP4 DUP4 ADD MSTORE ISZERO ISZERO PUSH1 0x5 SHL ADD ADD SWAP1 CODESIZE DUP1 DUP1 DUP1 PUSH2 0x47B6 JUMP JUMPDEST PUSH1 0xA0 DUP2 ADD SWAP1 DUP2 LT PUSH1 0x1 PUSH1 0x1 PUSH1 0x40 SHL SUB DUP3 GT OR PUSH2 0x483A JUMPI PUSH1 0x40 MSTORE JUMP JUMPDEST PUSH4 0x4E487B71 PUSH1 0xE0 SHL PUSH1 0x0 MSTORE PUSH1 0x41 PUSH1 0x4 MSTORE PUSH1 0x24 PUSH1 0x0 REVERT JUMPDEST PUSH1 0x20 DUP2 ADD SWAP1 DUP2 LT PUSH1 0x1 PUSH1 0x1 PUSH1 0x40 SHL SUB DUP3 GT OR PUSH2 0x483A JUMPI PUSH1 0x40 MSTORE JUMP JUMPDEST PUSH1 0x80 DUP2 ADD SWAP1 DUP2 LT PUSH1 0x1 PUSH1 0x1 PUSH1 0x40 SHL SUB DUP3 GT OR PUSH2 0x483A JUMPI PUSH1 0x40 MSTORE JUMP JUMPDEST PUSH1 0x1F SWAP1 SWAP2 ADD PUSH1 0x1F NOT AND DUP2 ADD SWAP1 PUSH1 0x1 PUSH1 0x1 PUSH1 0x40 SHL SUB DUP3 GT SWAP1 DUP3 LT OR PUSH2 0x483A JUMPI PUSH1 0x40 MSTORE JUMP JUMPDEST PUSH1 0x1 PUSH1 0x1 PUSH1 0x40 SHL SUB DUP2 GT PUSH2 0x483A JUMPI PUSH1 0x1F ADD PUSH1 0x1F NOT AND PUSH1 0x20 ADD SWAP1 JUMP JUMPDEST SWAP3 SWAP2 SWAP3 PUSH2 0x48D0 DUP3 PUSH2 0x48A9 JUMP JUMPDEST SWAP2 PUSH2 0x48DE PUSH1 0x40 MLOAD SWAP4 DUP5 PUSH2 0x4886 JUMP JUMPDEST DUP3 SWAP5 DUP2 DUP5 MSTORE DUP2 DUP4 ADD GT PUSH2 0x1894 JUMPI DUP3 DUP2 PUSH1 0x20 SWAP4 DUP5 PUSH1 0x0 SWAP7 ADD CALLDATACOPY ADD ADD MSTORE JUMP JUMPDEST PUSH1 0x80 SWAP1 PUSH1 0x3 NOT ADD SLT PUSH2 0x1894 JUMPI PUSH1 0x4 CALLDATALOAD SWAP1 PUSH1 0x24 CALLDATALOAD SWAP1 PUSH1 0x44 CALLDATALOAD SWAP1 PUSH1 0x64 CALLDATALOAD SWAP1 JUMP JUMPDEST PUSH1 0x11 SLOAD DUP2 LT ISZERO PUSH2 0x450A JUMPI PUSH1 0x11 PUSH1 0x0 MSTORE PUSH1 0x5 PUSH1 0x20 PUSH1 0x0 KECCAK256 SWAP2 MUL ADD SWAP1 PUSH1 0x0 SWAP1 JUMP JUMPDEST SWAP1 PUSH1 0x0 SWAP2 DUP1 DUP4 MSTORE PUSH1 0xA PUSH1 0x20 MSTORE PUSH1 0x40 DUP4 KECCAK256 SWAP2 PUSH1 0x1 DUP1 PUSH1 0xA0 SHL SUB AND SWAP2 DUP3 DUP5 MSTORE PUSH1 0x20 MSTORE PUSH1 0xFF PUSH1 0x40 DUP5 KECCAK256 SLOAD AND PUSH2 0x4969 JUMPI POP POP POP JUMP JUMPDEST DUP1 DUP4 MSTORE PUSH1 0xA PUSH1 0x20 MSTORE PUSH1 0x40 DUP4 KECCAK256 DUP3 DUP5 MSTORE PUSH1 0x20 MSTORE PUSH1 0x40 DUP4 KECCAK256 PUSH1 0xFF NOT DUP2 SLOAD AND SWAP1 SSTORE PUSH32 0xF6391F5C32D9C69D2A47EA670B442974B53935D1EDC7FD64EB21E047A839171B CALLER SWAP4 DUP1 LOG4 JUMP JUMPDEST PUSH1 0x7 SLOAD PUSH1 0x1 PUSH1 0x1 PUSH1 0xA0 SHL SUB AND CALLER SUB PUSH2 0x49C2 JUMPI JUMP JUMPDEST PUSH1 0x64 PUSH1 0x40 MLOAD PUSH3 0x461BCD PUSH1 0xE5 SHL DUP2 MSTORE PUSH1 0x20 PUSH1 0x4 DUP3 ADD MSTORE PUSH1 0x20 PUSH1 0x24 DUP3 ADD MSTORE PUSH32 0x4F776E61626C653A2063616C6C6572206973206E6F7420746865206F776E6572 PUSH1 0x44 DUP3 ADD MSTORE REVERT JUMPDEST ISZERO PUSH2 0x4A0D JUMPI JUMP JUMPDEST PUSH1 0x40 MLOAD PUSH3 0x461BCD PUSH1 0xE5 SHL DUP2 MSTORE PUSH1 0x20 PUSH1 0x4 DUP3 ADD MSTORE PUSH1 0x18 PUSH1 0x24 DUP3 ADD MSTORE PUSH24 0x115490CDCC8C4E881A5B9D985B1A59081D1BDAD95B881251 PUSH1 0x42 SHL PUSH1 0x44 DUP3 ADD MSTORE PUSH1 0x64 SWAP1 REVERT JUMPDEST PUSH1 0x0 SWAP1 DUP2 MSTORE PUSH1 0x2 PUSH1 0x20 MSTORE PUSH1 0x40 SWAP1 KECCAK256 SLOAD PUSH1 0x1 PUSH1 0x1 PUSH1 0xA0 SHL SUB AND PUSH2 0x45E5 DUP2 ISZERO ISZERO PUSH2 0x4A06 JUMP JUMPDEST PUSH2 0x4A81 PUSH2 0x4A7C DUP3 PUSH2 0x4D8F JUMP JUMPDEST PUSH2 0x4A06 JUMP JUMPDEST PUSH1 0x0 SWAP1 DUP2 MSTORE PUSH1 0x4 PUSH1 0x20 MSTORE PUSH1 0x40 SWAP1 KECCAK256 SLOAD PUSH1 0x1 PUSH1 0x1 PUSH1 0xA0 SHL SUB AND SWAP1 JUMP JUMPDEST ISZERO PUSH2 0x4AA3 JUMPI JUMP JUMPDEST PUSH1 0x40 MLOAD PUSH3 0x461BCD PUSH1 0xE5 SHL DUP2 MSTORE PUSH1 0x20 PUSH1 0x4 DUP3 ADD MSTORE PUSH1 0x2D PUSH1 0x24 DUP3 ADD MSTORE PUSH32 0x4552433732313A2063616C6C6572206973206E6F7420746F6B656E206F776E65 PUSH1 0x44 DUP3 ADD MSTORE PUSH13 0x1C881BDC88185C1C1C9BDD9959 PUSH1 0x9A SHL PUSH1 0x64 DUP3 ADD MSTORE PUSH1 0x84 SWAP1 REVERT JUMPDEST PUSH1 0x80 SWAP1 PUSH1 0x20 DUP2 MSTORE PUSH1 0x32 PUSH1 0x20 DUP3 ADD MSTORE PUSH32 0x4552433732313A207472616E7366657220746F206E6F6E204552433732315265 PUSH1 0x40 DUP3 ADD MSTORE PUSH18 0x31B2B4BB32B91034B6B83632B6B2B73A32B9 PUSH1 0x71 SHL PUSH1 0x60 DUP3 ADD MSTORE ADD SWAP1 JUMP JUMPDEST ISZERO PUSH2 0x4B58 JUMPI JUMP JUMPDEST PUSH1 0x40 MLOAD PUSH3 0x461BCD PUSH1 0xE5 SHL DUP2 MSTORE DUP1 PUSH2 0x9C3 PUSH1 0x4 DUP3 ADD PUSH2 0x4AFE JUMP JUMPDEST SWAP1 PUSH1 0x1 PUSH1 0x1 PUSH1 0xA0 SHL SUB DUP1 DUP1 PUSH2 0x4B85 DUP5 PUSH2 0x4A4D JUMP JUMPDEST AND SWAP4 AND SWAP2 DUP4 DUP4 EQ SWAP4 DUP5 ISZERO PUSH2 0x4BB8 JUMPI JUMPDEST POP DUP4 ISZERO PUSH2 0x4BA2 JUMPI JUMPDEST POP POP POP SWAP1 JUMP JUMPDEST PUSH2 0x4BAE SWAP2 SWAP3 SWAP4 POP PUSH2 0x4A70 JUMP JUMPDEST AND EQ CODESIZE DUP1 DUP1 PUSH2 0x4B9C JUMP JUMPDEST SWAP1 SWAP4 POP PUSH1 0x0 MSTORE PUSH1 0x5 PUSH1 0x20 MSTORE PUSH1 0x40 PUSH1 0x0 KECCAK256 DUP3 PUSH1 0x0 MSTORE PUSH1 0x20 MSTORE PUSH1 0xFF PUSH1 0x40 PUSH1 0x0 KECCAK256 SLOAD AND SWAP3 CODESIZE PUSH2 0x4B94 JUMP JUMPDEST ISZERO PUSH2 0x4BE6 JUMPI JUMP JUMPDEST PUSH1 0x40 MLOAD PUSH3 0x461BCD PUSH1 0xE5 SHL DUP2 MSTORE PUSH1 0x20 PUSH1 0x4 DUP3 ADD MSTORE PUSH1 0x25 PUSH1 0x24 DUP3 ADD MSTORE PUSH32 0x4552433732313A207472616E736665722066726F6D20696E636F727265637420 PUSH1 0x44 DUP3 ADD MSTORE PUSH5 0x37BBB732B9 PUSH1 0xD9 SHL PUSH1 0x64 DUP3 ADD MSTORE PUSH1 0x84 SWAP1 REVERT JUMPDEST SWAP1 PUSH2 0x4C61 SWAP2 PUSH2 0x4C47 DUP5 PUSH2 0x4A4D JUMP JUMPDEST PUSH1 0x1 PUSH1 0x1 PUSH1 0xA0 SHL SUB SWAP4 SWAP2 DUP5 AND SWAP3 DUP5 SWAP3 SWAP1 SWAP2 DUP4 AND DUP5 EQ PUSH2 0x4BDF JUMP JUMPDEST AND SWAP2 DUP3 ISZERO PUSH2 0x4D3E JUMPI PUSH1 0x0 SWAP1 DUP5 DUP3 MSTORE PUSH1 0x20 SWAP1 DUP2 DUP1 MSTORE PUSH1 0x40 SWAP1 PUSH1 0xFF DUP3 DUP6 KECCAK256 SLOAD AND PUSH2 0x4CFB JUMPI PUSH1 0x0 DUP1 MLOAD PUSH1 0x20 PUSH2 0x6238 DUP4 CODECOPY DUP2 MLOAD SWAP2 MSTORE SWAP4 SWAP3 SWAP2 PUSH2 0x4CAB DUP7 DUP9 SWAP4 PUSH2 0x4CA4 DUP12 PUSH2 0x4A4D JUMP JUMPDEST AND EQ PUSH2 0x4BDF JUMP JUMPDEST DUP8 DUP5 MSTORE PUSH1 0x4 DUP4 MSTORE DUP1 DUP5 KECCAK256 DUP1 SLOAD PUSH1 0x1 PUSH1 0x1 PUSH1 0xA0 SHL SUB NOT SWAP1 DUP2 AND SWAP1 SWAP2 SSTORE DUP7 DUP6 MSTORE PUSH1 0x3 DUP5 MSTORE DUP2 DUP6 KECCAK256 DUP1 SLOAD PUSH1 0x0 NOT ADD SWAP1 SSTORE DUP3 DUP6 MSTORE DUP2 DUP6 KECCAK256 DUP1 SLOAD PUSH1 0x1 ADD SWAP1 SSTORE DUP9 DUP6 MSTORE PUSH1 0x2 SWAP1 SWAP4 MSTORE DUP4 KECCAK256 DUP1 SLOAD SWAP1 SWAP3 AND OR SWAP1 SSTORE DUP1 LOG4 JUMP JUMPDEST DUP2 MLOAD PUSH3 0x461BCD PUSH1 0xE5 SHL DUP2 MSTORE PUSH1 0x4 DUP2 ADD DUP5 SWAP1 MSTORE PUSH1 0x1C PUSH1 0x24 DUP3 ADD MSTORE PUSH28 0x21B0B73737BA103A3930B739B332B91039BA30B5B2B2103A37B5B2B7 PUSH1 0x21 SHL PUSH1 0x44 DUP3 ADD MSTORE PUSH1 0x64 SWAP1 REVERT JUMPDEST PUSH1 0x40 MLOAD PUSH3 0x461BCD PUSH1 0xE5 SHL DUP2 MSTORE PUSH1 0x20 PUSH1 0x4 DUP3 ADD MSTORE PUSH1 0x24 DUP1 DUP3 ADD MSTORE PUSH32 0x4552433732313A207472616E7366657220746F20746865207A65726F20616464 PUSH1 0x44 DUP3 ADD MSTORE PUSH4 0x72657373 PUSH1 0xE0 SHL PUSH1 0x64 DUP3 ADD MSTORE PUSH1 0x84 SWAP1 REVERT JUMPDEST PUSH1 0x0 SWAP1 DUP2 MSTORE PUSH1 0x2 PUSH1 0x20 MSTORE PUSH1 0x40 SWAP1 KECCAK256 SLOAD PUSH1 0x1 PUSH1 0x1 PUSH1 0xA0 SHL SUB AND ISZERO ISZERO SWAP1 JUMP JUMPDEST RETURNDATASIZE ISZERO PUSH2 0x4DD7 JUMPI RETURNDATASIZE SWAP1 PUSH2 0x4DBD DUP3 PUSH2 0x48A9 JUMP JUMPDEST SWAP2 PUSH2 0x4DCB PUSH1 0x40 MLOAD SWAP4 DUP5 PUSH2 0x4886 JUMP JUMPDEST DUP3 MSTORE RETURNDATASIZE PUSH1 0x0 PUSH1 0x20 DUP5 ADD RETURNDATACOPY JUMP JUMPDEST PUSH1 0x60 SWAP1 JUMP JUMPDEST SWAP1 SWAP2 PUSH1 0x0 SWAP2 DUP1 EXTCODESIZE ISZERO PUSH2 0x4EC7 JUMPI PUSH2 0x4E27 PUSH1 0x20 SWAP2 DUP5 SWAP4 PUSH1 0x40 MLOAD SWAP5 DUP6 DUP1 SWAP5 DUP2 SWAP4 PUSH4 0xA85BD01 PUSH1 0xE1 SHL SWAP11 DUP12 DUP5 MSTORE CALLER PUSH1 0x4 DUP6 ADD MSTORE DUP5 PUSH1 0x24 DUP6 ADD MSTORE PUSH1 0x44 DUP5 ADD MSTORE PUSH1 0x80 PUSH1 0x64 DUP5 ADD MSTORE PUSH1 0x84 DUP4 ADD SWAP1 PUSH2 0x4543 JUMP JUMPDEST SUB SWAP3 PUSH1 0x1 PUSH1 0x1 PUSH1 0xA0 SHL SUB AND GAS CALL SWAP1 DUP3 SWAP1 DUP3 PUSH2 0x4E7F JUMPI JUMPDEST POP POP PUSH2 0x4E71 JUMPI PUSH2 0x4E4B PUSH2 0x4DAC JUMP JUMPDEST DUP1 MLOAD SWAP1 DUP2 PUSH2 0x4E6C JUMPI PUSH1 0x40 MLOAD PUSH3 0x461BCD PUSH1 0xE5 SHL DUP2 MSTORE DUP1 PUSH2 0x9C3 PUSH1 0x4 DUP3 ADD PUSH2 0x4AFE JUMP JUMPDEST PUSH1 0x20 ADD REVERT JUMPDEST PUSH1 0x1 PUSH1 0x1 PUSH1 0xE0 SHL SUB NOT AND EQ SWAP1 JUMP JUMPDEST SWAP1 SWAP2 SWAP3 POP PUSH1 0x20 DUP2 RETURNDATASIZE DUP3 GT PUSH2 0x4EBF JUMPI JUMPDEST DUP2 PUSH2 0x4E9B PUSH1 0x20 SWAP4 DUP4 PUSH2 0x4886 JUMP JUMPDEST DUP2 ADD SUB SLT PUSH2 0x4E6 JUMPI MLOAD SWAP1 PUSH1 0x1 PUSH1 0x1 PUSH1 0xE0 SHL SUB NOT DUP3 AND DUP3 SUB PUSH2 0x540 JUMPI POP SWAP1 CODESIZE DUP1 PUSH2 0x4E3D JUMP JUMPDEST RETURNDATASIZE SWAP2 POP PUSH2 0x4E8E JUMP JUMPDEST POP POP POP POP PUSH1 0x1 SWAP1 JUMP JUMPDEST SWAP2 SWAP3 PUSH1 0x0 SWAP3 SWAP2 SWAP1 DUP2 EXTCODESIZE ISZERO PUSH2 0x4F41 JUMPI PUSH1 0x20 SWAP2 PUSH2 0x4F26 SWAP2 DUP6 PUSH1 0x40 MLOAD SWAP6 DUP7 DUP1 SWAP6 DUP2 SWAP5 PUSH4 0xA85BD01 PUSH1 0xE1 SHL SWAP12 DUP13 DUP5 MSTORE CALLER PUSH1 0x4 DUP6 ADD MSTORE PUSH1 0x1 DUP1 PUSH1 0xA0 SHL SUB DUP1 SWAP6 AND PUSH1 0x24 DUP6 ADD MSTORE PUSH1 0x44 DUP5 ADD MSTORE PUSH1 0x80 PUSH1 0x64 DUP5 ADD MSTORE PUSH1 0x84 DUP4 ADD SWAP1 PUSH2 0x4543 JUMP JUMPDEST SUB SWAP4 AND GAS CALL SWAP1 DUP3 SWAP1 DUP3 PUSH2 0x4E7F JUMPI POP POP PUSH2 0x4E71 JUMPI PUSH2 0x4E4B PUSH2 0x4DAC JUMP JUMPDEST POP POP POP POP POP PUSH1 0x1 SWAP1 JUMP JUMPDEST PUSH1 0x40 MLOAD SWAP1 PUSH2 0x4F58 DUP3 PUSH2 0x481F JUMP JUMPDEST PUSH1 0x60 PUSH1 0x80 DUP4 DUP3 DUP2 MSTORE PUSH1 0x0 PUSH1 0x20 DUP3 ADD MSTORE PUSH1 0x0 PUSH1 0x40 DUP3 ADD MSTORE PUSH1 0x0 DUP4 DUP3 ADD MSTORE ADD MSTORE JUMP JUMPDEST SWAP1 PUSH1 0x4 PUSH1 0x80 PUSH1 0x40 MLOAD PUSH2 0x4F89 DUP2 PUSH2 0x481F JUMP JUMPDEST PUSH2 0x4FDD DUP2 SWAP6 PUSH1 0x40 MLOAD PUSH2 0x4FA6 DUP2 PUSH2 0x4F9F DUP2 DUP6 PUSH2 0x4789 JUMP JUMPDEST SUB DUP3 PUSH2 0x4886 JUMP JUMPDEST DUP4 MSTORE PUSH1 0x1 DUP2 ADD SLOAD PUSH1 0x20 DUP5 ADD MSTORE PUSH1 0x2 DUP2 ADD SLOAD PUSH1 0x40 DUP5 ADD MSTORE PUSH1 0x3 DUP2 ADD SLOAD PUSH1 0x60 DUP5 ADD MSTORE PUSH2 0x4FD6 PUSH1 0x40 MLOAD DUP1 SWAP7 DUP2 SWAP4 ADD PUSH2 0x4789 JUMP JUMPDEST SUB DUP5 PUSH2 0x4886 JUMP JUMPDEST ADD MSTORE JUMP JUMPDEST ISZERO PUSH2 0x4FE8 JUMPI JUMP JUMPDEST PUSH1 0x40 MLOAD PUSH3 0x461BCD PUSH1 0xE5 SHL DUP2 MSTORE PUSH1 0x20 PUSH1 0x4 DUP3 ADD MSTORE PUSH1 0x14 PUSH1 0x24 DUP3 ADD MSTORE PUSH20 0x151BDAD95B88191BD95CC81B9BDD08195E1A5CDD PUSH1 0x62 SHL PUSH1 0x44 DUP3 ADD MSTORE PUSH1 0x64 SWAP1 REVERT JUMPDEST ISZERO PUSH2 0x502B JUMPI JUMP JUMPDEST PUSH1 0x40 MLOAD PUSH3 0x461BCD PUSH1 0xE5 SHL DUP2 MSTORE PUSH1 0x20 PUSH1 0x4 DUP3 ADD MSTORE PUSH1 0x1A PUSH1 0x24 DUP3 ADD MSTORE PUSH26 0x10DBDB9D1C9858DD08195B595C99D95B98DE481CDD1BDC1C1959 PUSH1 0x32 SHL PUSH1 0x44 DUP3 ADD MSTORE PUSH1 0x64 SWAP1 REVERT JUMPDEST ISZERO PUSH2 0x5074 JUMPI JUMP JUMPDEST PUSH1 0x40 MLOAD PUSH3 0x461BCD PUSH1 0xE5 SHL DUP2 MSTORE PUSH1 0x20 PUSH1 0x4 DUP3 ADD MSTORE PUSH1 0x16 PUSH1 0x24 DUP3 ADD MSTORE PUSH22 0x13585E1A5B5D5B481CDD5C1C1B1E481C995858DA1959 PUSH1 0x52 SHL PUSH1 0x44 DUP3 ADD MSTORE PUSH1 0x64 SWAP1 REVERT JUMPDEST ISZERO PUSH2 0x50B9 JUMPI JUMP JUMPDEST PUSH1 0x40 MLOAD PUSH3 0x461BCD PUSH1 0xE5 SHL DUP2 MSTORE PUSH1 0x20 PUSH1 0x4 DUP3 ADD MSTORE PUSH1 0x1B PUSH1 0x24 DUP3 ADD MSTORE PUSH27 0x43616E6E6F74206D696E7420746F207A65726F2061646472657373 PUSH1 0x28 SHL PUSH1 0x44 DUP3 ADD MSTORE PUSH1 0x64 SWAP1 REVERT JUMPDEST PUSH1 0x0 NOT DUP2 EQ PUSH2 0x510B JUMPI PUSH1 0x1 ADD SWAP1 JUMP JUMPDEST PUSH4 0x4E487B71 PUSH1 0xE0 SHL PUSH1 0x0 MSTORE PUSH1 0x11 PUSH1 0x4 MSTORE PUSH1 0x24 PUSH1 0x0 REVERT JUMPDEST PUSH1 0xFF PUSH1 0x9 SLOAD AND PUSH2 0x512D JUMPI JUMP JUMPDEST PUSH1 0x40 MLOAD PUSH3 0x461BCD PUSH1 0xE5 SHL DUP2 MSTORE PUSH1 0x20 PUSH1 0x4 DUP3 ADD MSTORE PUSH1 0x10 PUSH1 0x24 DUP3 ADD MSTORE PUSH16 0x14185D5CD8589B194E881C185D5CD959 PUSH1 0x82 SHL PUSH1 0x44 DUP3 ADD MSTORE PUSH1 0x64 SWAP1 REVERT JUMPDEST PUSH1 0x2 PUSH1 0x8 SLOAD EQ PUSH2 0x5176 JUMPI PUSH1 0x2 PUSH1 0x8 SSTORE JUMP JUMPDEST PUSH1 0x40 MLOAD PUSH3 0x461BCD PUSH1 0xE5 SHL DUP2 MSTORE PUSH1 0x20 PUSH1 0x4 DUP3 ADD MSTORE PUSH1 0x1F PUSH1 0x24 DUP3 ADD MSTORE PUSH32 0x5265656E7472616E637947756172643A207265656E7472616E742063616C6C00 PUSH1 0x44 DUP3 ADD MSTORE PUSH1 0x64 SWAP1 REVERT JUMPDEST SWAP1 PUSH1 0x40 SWAP2 DUP3 MLOAD SWAP3 PUSH2 0x51CB DUP5 PUSH2 0x4850 JUMP JUMPDEST PUSH1 0x0 DUP1 DUP6 MSTORE PUSH1 0x1 PUSH1 0x1 PUSH1 0xA0 SHL SUB DUP4 AND SWAP2 DUP3 ISZERO PUSH2 0x52A6 JUMPI PUSH2 0x51F3 PUSH2 0x51ED DUP7 PUSH2 0x4D8F JUMP JUMPDEST ISZERO PUSH2 0x52E9 JUMP JUMPDEST DUP5 DUP3 MSTORE PUSH1 0x20 DUP1 MSTORE PUSH1 0xFF DUP2 DUP4 KECCAK256 SLOAD AND PUSH2 0x5264 JUMPI SWAP4 DUP1 SWAP3 PUSH2 0x5262 SWAP7 SWAP5 SWAP3 PUSH2 0x152D SWAP7 PUSH2 0x521E PUSH2 0x51ED DUP6 PUSH2 0x4D8F JUMP JUMPDEST DUP3 DUP3 MSTORE PUSH1 0x3 PUSH1 0x20 SWAP1 DUP2 MSTORE DUP2 DUP4 KECCAK256 DUP1 SLOAD PUSH1 0x1 ADD SWAP1 SSTORE DUP5 DUP4 MSTORE PUSH1 0x2 SWAP1 MSTORE DUP2 KECCAK256 DUP1 SLOAD PUSH1 0x1 PUSH1 0x1 PUSH1 0xA0 SHL SUB NOT AND DUP4 OR SWAP1 SSTORE PUSH1 0x0 DUP1 MLOAD PUSH1 0x20 PUSH2 0x6238 DUP4 CODECOPY DUP2 MLOAD SWAP2 MSTORE DUP2 DUP1 LOG4 PUSH2 0x4DDC JUMP JUMPDEST JUMP JUMPDEST MLOAD PUSH3 0x461BCD PUSH1 0xE5 SHL DUP2 MSTORE PUSH1 0x20 PUSH1 0x4 DUP3 ADD MSTORE PUSH1 0x1C PUSH1 0x24 DUP3 ADD MSTORE PUSH28 0x21B0B73737BA103A3930B739B332B91039BA30B5B2B2103A37B5B2B7 PUSH1 0x21 SHL PUSH1 0x44 DUP3 ADD MSTORE PUSH1 0x64 SWAP1 REVERT JUMPDEST MLOAD PUSH3 0x461BCD PUSH1 0xE5 SHL DUP2 MSTORE PUSH1 0x20 PUSH1 0x4 DUP3 ADD DUP2 SWAP1 MSTORE PUSH1 0x24 DUP3 ADD MSTORE PUSH32 0x4552433732313A206D696E7420746F20746865207A65726F2061646472657373 PUSH1 0x44 DUP3 ADD MSTORE PUSH1 0x64 SWAP1 REVERT JUMPDEST ISZERO PUSH2 0x52F0 JUMPI JUMP JUMPDEST PUSH1 0x40 MLOAD PUSH3 0x461BCD PUSH1 0xE5 SHL DUP2 MSTORE PUSH1 0x20 PUSH1 0x4 DUP3 ADD MSTORE PUSH1 0x1C PUSH1 0x24 DUP3 ADD MSTORE PUSH28 0x115490CDCC8C4E881D1BDAD95B88185B1C9958591E481B5A5B9D1959 PUSH1 0x22 SHL PUSH1 0x44 DUP3 ADD MSTORE PUSH1 0x64 SWAP1 REVERT JUMPDEST PUSH1 0x1F DUP2 GT PUSH2 0x5340 JUMPI POP POP JUMP JUMPDEST PUSH1 0x0 SWAP1 PUSH1 0xD DUP3 MSTORE PUSH1 0x20 DUP3 KECCAK256 SWAP1 PUSH1 0x20 PUSH1 0x1F DUP6 ADD PUSH1 0x5 SHR DUP4 ADD SWAP5 LT PUSH2 0x537E JUMPI JUMPDEST PUSH1 0x1F ADD PUSH1 0x5 SHR ADD SWAP2 JUMPDEST DUP3 DUP2 LT PUSH2 0x5373 JUMPI POP POP POP JUMP JUMPDEST DUP2 DUP2 SSTORE PUSH1 0x1 ADD PUSH2 0x5367 JUMP JUMPDEST SWAP1 SWAP3 POP DUP3 SWAP1 PUSH2 0x535E JUMP JUMPDEST SWAP1 PUSH1 0x1F DUP2 GT PUSH2 0x5396 JUMPI POP POP POP JUMP JUMPDEST PUSH1 0x0 SWAP2 DUP3 MSTORE PUSH1 0x20 DUP3 KECCAK256 SWAP1 PUSH1 0x20 PUSH1 0x1F DUP6 ADD PUSH1 0x5 SHR DUP4 ADD SWAP5 LT PUSH2 0x53D2 JUMPI JUMPDEST PUSH1 0x1F ADD PUSH1 0x5 SHR ADD SWAP2 JUMPDEST DUP3 DUP2 LT PUSH2 0x53C7 JUMPI POP POP POP JUMP JUMPDEST DUP2 DUP2 SSTORE PUSH1 0x1 ADD PUSH2 0x53BB JUMP JUMPDEST SWAP1 SWAP3 POP DUP3 SWAP1 PUSH2 0x53B2 JUMP JUMPDEST SWAP2 SWAP1 SWAP2 PUSH2 0x53E8 DUP2 PUSH2 0x4D8F JUMP JUMPDEST ISZERO PUSH2 0x54F5 JUMPI PUSH1 0x0 DUP2 DUP2 MSTORE PUSH1 0x6 PUSH1 0x20 SWAP1 DUP2 MSTORE PUSH1 0x40 DUP3 KECCAK256 DUP6 MLOAD SWAP2 SWAP4 SWAP3 SWAP1 SWAP2 SWAP1 PUSH1 0x1 PUSH1 0x1 PUSH1 0x40 SHL SUB DUP3 GT PUSH2 0x54E1 JUMPI PUSH2 0x5421 DUP3 PUSH2 0x1F00 DUP6 SLOAD PUSH2 0x4660 JUMP JUMPDEST DUP5 SWAP1 PUSH1 0x1F DUP4 GT PUSH1 0x1 EQ PUSH2 0x546F JUMPI SWAP1 PUSH1 0x0 DUP1 MLOAD PUSH1 0x20 PUSH2 0x62D8 DUP4 CODECOPY DUP2 MLOAD SWAP2 MSTORE SWAP7 SWAP8 DUP4 PUSH2 0x5464 JUMPI JUMPDEST POP POP DUP2 PUSH1 0x1 SHL SWAP2 PUSH1 0x0 NOT SWAP1 PUSH1 0x3 SHL SHR NOT AND OR SWAP1 SSTORE JUMPDEST PUSH1 0x40 MLOAD SWAP1 DUP2 MSTORE LOG1 JUMP JUMPDEST ADD MLOAD SWAP1 POP CODESIZE DUP1 PUSH2 0x5446 JUMP JUMPDEST SWAP2 SWAP7 PUSH1 0x1F NOT DUP9 AND DUP5 DUP5 MSTORE DUP7 DUP5 KECCAK256 SWAP4 JUMPDEST DUP2 DUP2 LT PUSH2 0x54CA JUMPI POP SWAP2 PUSH1 0x1 SWAP4 SWAP2 DUP10 PUSH1 0x0 DUP1 MLOAD PUSH1 0x20 PUSH2 0x62D8 DUP4 CODECOPY DUP2 MLOAD SWAP2 MSTORE SWAP10 SWAP11 SWAP5 LT PUSH2 0x54B1 JUMPI JUMPDEST POP POP POP DUP2 SHL ADD SWAP1 SSTORE PUSH2 0x545B JUMP JUMPDEST ADD MLOAD PUSH1 0x0 NOT PUSH1 0xF8 DUP5 PUSH1 0x3 SHL AND SHR NOT AND SWAP1 SSTORE CODESIZE DUP1 DUP1 PUSH2 0x54A4 JUMP JUMPDEST SWAP3 SWAP4 DUP8 PUSH1 0x1 DUP2 SWAP3 DUP8 DUP7 ADD MLOAD DUP2 SSTORE ADD SWAP6 ADD SWAP4 ADD PUSH2 0x547E JUMP JUMPDEST PUSH4 0x4E487B71 PUSH1 0xE0 SHL DUP2 MSTORE PUSH1 0x41 PUSH1 0x4 MSTORE PUSH1 0x24 SWAP1 REVERT JUMPDEST PUSH1 0x40 MLOAD PUSH3 0x461BCD PUSH1 0xE5 SHL DUP2 MSTORE PUSH1 0x20 PUSH1 0x4 DUP3 ADD MSTORE PUSH1 0x2E PUSH1 0x24 DUP3 ADD MSTORE PUSH32 0x45524337323155524953746F726167653A2055524920736574206F66206E6F6E PUSH1 0x44 DUP3 ADD MSTORE PUSH14 0x32BC34B9BA32B73A103A37B5B2B7 PUSH1 0x91 SHL PUSH1 0x64 DUP3 ADD MSTORE PUSH1 0x84 SWAP1 REVERT JUMPDEST SWAP2 SWAP1 DUP3 ADD DUP1 SWAP3 GT PUSH2 0x510B JUMPI JUMP JUMPDEST PUSH1 0x14 SLOAD PUSH1 0xB SLOAD SWAP1 PUSH1 0x40 MLOAD SWAP2 PUSH1 0x20 DUP4 ADD SWAP2 DUP3 MSTORE TIMESTAMP PUSH1 0x40 DUP5 ADD MSTORE PREVRANDAO PUSH1 0x60 DUP5 ADD MSTORE CALLER PUSH1 0x60 SHL PUSH1 0x80 DUP5 ADD MSTORE PUSH1 0x94 DUP4 ADD MSTORE PUSH1 0x94 DUP3 MSTORE PUSH1 0xC0 DUP3 ADD SWAP2 DUP1 DUP4 LT PUSH1 0x1 DUP1 PUSH1 0x40 SHL SUB DUP5 GT OR PUSH2 0x483A JUMPI PUSH2 0x2710 SWAP3 PUSH1 0x40 MSTORE MLOAD SWAP1 KECCAK256 DUP1 PUSH1 0x14 SSTORE MOD PUSH1 0x0 SWAP1 DUP2 SWAP1 PUSH1 0x11 SLOAD SWAP3 JUMPDEST DUP4 DUP4 LT PUSH2 0x5646 JUMPI POP POP POP PUSH1 0x0 JUMPDEST DUP2 DUP2 LT PUSH2 0x5612 JUMPI PUSH1 0x40 MLOAD PUSH3 0x461BCD PUSH1 0xE5 SHL DUP2 MSTORE PUSH1 0x20 PUSH1 0x4 DUP3 ADD MSTORE PUSH1 0x19 PUSH1 0x24 DUP3 ADD MSTORE PUSH25 0x4E6F2072617269747920746965727320617661696C61626C65 PUSH1 0x38 SHL PUSH1 0x44 DUP3 ADD MSTORE PUSH1 0x64 SWAP1 REVERT JUMPDEST PUSH1 0x3 PUSH2 0x561D DUP3 PUSH2 0x4919 JUMP JUMPDEST POP ADD SLOAD PUSH1 0x2 PUSH2 0x562B DUP4 PUSH2 0x4919 JUMP JUMPDEST POP ADD SLOAD GT PUSH2 0x5641 JUMPI PUSH2 0x563C SWAP1 PUSH2 0x50FC JUMP JUMPDEST PUSH2 0x55CA JUMP JUMPDEST SWAP1 POP SWAP1 JUMP JUMPDEST PUSH2 0x5655 SWAP1 PUSH1 0x1 PUSH2 0x17B6 DUP6 PUSH2 0x4919 JUMP JUMPDEST SWAP2 DUP3 DUP3 LT PUSH2 0x566D JUMPI JUMPDEST PUSH2 0x5667 SWAP1 PUSH2 0x50FC JUMP JUMPDEST SWAP2 PUSH2 0x55BD JUMP JUMPDEST PUSH1 0x3 PUSH2 0x5678 DUP3 PUSH2 0x4919 JUMP JUMPDEST POP ADD SLOAD PUSH1 0x2 PUSH2 0x5686 DUP4 PUSH2 0x4919 JUMP JUMPDEST POP ADD SLOAD GT ISZERO PUSH2 0x565E JUMPI SWAP3 POP POP POP SWAP1 JUMP JUMPDEST PUSH1 0xD SLOAD PUSH1 0x0 SWAP3 SWAP2 PUSH2 0x56A6 DUP3 PUSH2 0x4660 JUMP JUMPDEST SWAP2 PUSH1 0x1 SWAP1 DUP2 DUP2 AND SWAP1 DUP2 ISZERO PUSH2 0x56F7 JUMPI POP PUSH1 0x1 EQ PUSH2 0x56C1 JUMPI POP POP POP JUMP JUMPDEST SWAP1 SWAP2 SWAP3 SWAP4 POP PUSH1 0xD PUSH1 0x0 MSTORE PUSH1 0x20 SWAP1 DUP2 PUSH1 0x0 KECCAK256 SWAP1 PUSH1 0x0 SWAP2 JUMPDEST DUP6 DUP4 LT PUSH2 0x56E6 JUMPI POP POP POP POP ADD SWAP1 JUMP JUMPDEST DUP1 SLOAD DUP6 DUP5 ADD MSTORE SWAP2 DUP4 ADD SWAP2 DUP2 ADD PUSH2 0x56D7 JUMP JUMPDEST PUSH1 0xFF NOT AND DUP4 MSTORE POP POP DUP2 ISZERO ISZERO SWAP1 SWAP2 MUL ADD SWAP2 POP JUMP JUMPDEST PUSH1 0xFF PUSH1 0xF SLOAD AND ISZERO PUSH2 0x5761 JUMPI PUSH2 0x45E5 PUSH1 0x5 PUSH2 0x5725 PUSH1 0x20 SWAP4 PUSH2 0x5792 JUMP JUMPDEST PUSH1 0x40 MLOAD SWAP4 DUP5 SWAP2 PUSH2 0x5746 PUSH2 0x5739 DUP4 DUP6 ADD PUSH2 0x5696 JUMP JUMPDEST SWAP2 DUP3 DUP2 MLOAD SWAP5 DUP6 SWAP3 ADD PUSH2 0x4520 JUMP JUMPDEST ADD PUSH5 0x173539B7B7 PUSH1 0xD9 SHL DUP2 MSTORE SUB PUSH1 0x1A NOT DUP2 ADD DUP5 MSTORE ADD DUP3 PUSH2 0x4886 JUMP JUMPDEST POP PUSH1 0x40 MLOAD PUSH2 0x45E5 DUP2 PUSH2 0x4F9F DUP2 PUSH2 0x469A JUMP JUMPDEST DUP2 ISZERO PUSH2 0x577C JUMPI DIV SWAP1 JUMP JUMPDEST PUSH4 0x4E487B71 PUSH1 0xE0 SHL PUSH1 0x0 MSTORE PUSH1 0x12 PUSH1 0x4 MSTORE PUSH1 0x24 PUSH1 0x0 REVERT JUMPDEST PUSH1 0x0 SWAP1 DUP1 PUSH19 0x184F03E93FF9F4DAA797ED6E38ED64BF6A1F01 PUSH1 0x40 SHL DUP1 DUP3 LT ISZERO PUSH2 0x58E6 JUMPI JUMPDEST POP PUSH10 0x4EE2D6D415B85ACEF81 PUSH1 0x20 SHL DUP1 DUP4 LT ISZERO PUSH2 0x58D7 JUMPI JUMPDEST POP PUSH7 0x2386F26FC10000 DUP1 DUP4 LT ISZERO PUSH2 0x58C8 JUMPI JUMPDEST POP PUSH4 0x5F5E100 DUP1 DUP4 LT ISZERO PUSH2 0x58B9 JUMPI JUMPDEST POP PUSH2 0x2710 DUP1 DUP4 LT ISZERO PUSH2 0x58AA JUMPI JUMPDEST POP PUSH1 0x64 DUP3 LT ISZERO PUSH2 0x589A JUMPI JUMPDEST PUSH1 0xA DUP1 SWAP3 LT ISZERO PUSH2 0x5890 JUMPI JUMPDEST PUSH1 0x1 SWAP1 DUP2 PUSH1 0x21 DUP2 DUP7 ADD SWAP6 PUSH2 0x5825 DUP8 PUSH2 0x48A9 JUMP JUMPDEST SWAP7 PUSH2 0x5833 PUSH1 0x40 MLOAD SWAP9 DUP10 PUSH2 0x4886 JUMP JUMPDEST DUP1 DUP9 MSTORE PUSH2 0x5842 PUSH1 0x1F NOT SWAP2 PUSH2 0x48A9 JUMP JUMPDEST ADD CALLDATASIZE PUSH1 0x20 DUP10 ADD CALLDATACOPY DUP7 ADD ADD SWAP1 JUMPDEST PUSH2 0x585A JUMPI JUMPDEST POP POP POP POP SWAP1 JUMP JUMPDEST PUSH1 0x0 NOT ADD SWAP1 DUP4 SWAP1 PUSH16 0x181899199A1A9B1B9C1CB0B131B232B3 PUSH1 0x81 SHL DUP3 DUP3 MOD BYTE DUP4 MSTORE8 DIV SWAP2 DUP3 ISZERO PUSH2 0x588B JUMPI SWAP2 SWAP1 DUP3 PUSH2 0x584E JUMP JUMPDEST PUSH2 0x5853 JUMP JUMPDEST SWAP2 PUSH1 0x1 ADD SWAP2 PUSH2 0x5812 JUMP JUMPDEST SWAP2 SWAP1 PUSH1 0x64 PUSH1 0x2 SWAP2 DIV SWAP2 ADD SWAP2 PUSH2 0x5807 JUMP JUMPDEST PUSH1 0x4 SWAP2 SWAP4 SWAP3 DIV SWAP2 ADD SWAP2 CODESIZE PUSH2 0x57FC JUMP JUMPDEST PUSH1 0x8 SWAP2 SWAP4 SWAP3 DIV SWAP2 ADD SWAP2 CODESIZE PUSH2 0x57EF JUMP JUMPDEST PUSH1 0x10 SWAP2 SWAP4 SWAP3 DIV SWAP2 ADD SWAP2 CODESIZE PUSH2 0x57E0 JUMP JUMPDEST PUSH1 0x20 SWAP2 SWAP4 SWAP3 DIV SWAP2 ADD SWAP2 CODESIZE PUSH2 0x57CE JUMP JUMPDEST PUSH1 0x40 SWAP4 POP DUP2 DIV SWAP2 POP CODESIZE PUSH2 0x57B6 JUMP JUMPDEST SWAP2 SWAP1 DUP3 SUB SWAP2 DUP3 GT PUSH2 0x510B JUMPI JUMP JUMPDEST ISZERO PUSH2 0x5908 JUMPI JUMP JUMPDEST PUSH1 0x40 MLOAD PUSH3 0x461BCD PUSH1 0xE5 SHL DUP2 MSTORE PUSH1 0x20 PUSH1 0x4 DUP3 ADD MSTORE PUSH1 0x25 PUSH1 0x24 DUP3 ADD MSTORE PUSH32 0x496E76616C6964207175616E746974793A20312D313020746F6B656E7320616C PUSH1 0x44 DUP3 ADD MSTORE PUSH5 0x1B1BDDD959 PUSH1 0xDA SHL PUSH1 0x64 DUP3 ADD MSTORE PUSH1 0x84 SWAP1 REVERT JUMPDEST PUSH2 0x5964 DUP2 PUSH2 0x4D8F JUMP JUMPDEST ISZERO PUSH2 0x59C6 JUMPI PUSH1 0xFF PUSH1 0xF SLOAD AND ISZERO PUSH2 0x5761 JUMPI PUSH2 0x5980 PUSH2 0x4A7C DUP3 PUSH2 0x4D8F JUMP JUMPDEST DUP1 PUSH1 0x0 MSTORE PUSH1 0x6 PUSH1 0x20 MSTORE PUSH2 0x4F9F PUSH2 0x59A0 PUSH1 0x40 PUSH1 0x0 KECCAK256 PUSH1 0x40 MLOAD SWAP3 DUP4 DUP1 SWAP3 PUSH2 0x4789 JUMP JUMPDEST PUSH1 0x0 PUSH1 0x40 MLOAD PUSH2 0x59AE DUP2 PUSH2 0x4850 JUMP JUMPDEST MSTORE DUP1 MLOAD PUSH2 0x5641 JUMPI POP PUSH2 0x45E5 PUSH1 0x5 PUSH2 0x5725 PUSH1 0x20 SWAP4 PUSH2 0x5792 JUMP JUMPDEST PUSH1 0x64 PUSH1 0x40 MLOAD PUSH3 0x461BCD PUSH1 0xE5 SHL DUP2 MSTORE PUSH1 0x20 PUSH1 0x4 DUP3 ADD MSTORE PUSH1 0x20 PUSH1 0x24 DUP3 ADD MSTORE PUSH32 0x55524920717565727920666F72206E6F6E206578697374696E6720746F6B656E PUSH1 0x44 DUP3 ADD MSTORE REVERT JUMPDEST SWAP1 SWAP2 DUP1 PUSH1 0x40 SWAP4 PUSH1 0x20 DUP5 MSTORE DUP2 PUSH1 0x20 DUP6 ADD MSTORE DUP5 DUP5 ADD CALLDATACOPY PUSH1 0x0 DUP3 DUP3 ADD DUP5 ADD MSTORE PUSH1 0x1F ADD PUSH1 0x1F NOT AND ADD ADD SWAP1 JUMP JUMPDEST ISZERO PUSH2 0x5A39 JUMPI JUMP JUMPDEST PUSH1 0x40 MLOAD PUSH3 0x461BCD PUSH1 0xE5 SHL DUP2 MSTORE PUSH1 0x20 PUSH1 0x4 DUP3 ADD MSTORE PUSH1 0x15 PUSH1 0x24 DUP3 ADD MSTORE PUSH21 0x456D70747920616464726573736573206172726179 PUSH1 0x58 SHL PUSH1 0x44 DUP3 ADD MSTORE PUSH1 0x64 SWAP1 REVERT JUMPDEST SWAP2 SWAP1 DUP2 LT ISZERO PUSH2 0x450A JUMPI PUSH1 0x5 SHL ADD SWAP1 JUMP JUMPDEST CALLDATALOAD PUSH1 0x1 PUSH1 0x1 PUSH1 0xA0 SHL SUB DUP2 AND DUP2 SUB PUSH2 0x1894 JUMPI SWAP1 JUMP JUMPDEST ISZERO PUSH2 0x5AA1 JUMPI JUMP JUMPDEST PUSH1 0x40 MLOAD PUSH3 0x461BCD PUSH1 0xE5 SHL DUP2 MSTORE PUSH1 0x20 PUSH1 0x4 DUP3 ADD MSTORE PUSH1 0x1F PUSH1 0x24 DUP3 ADD MSTORE PUSH32 0x5175616E74697479206D7573742062652067726561746572207468616E203000 PUSH1 0x44 DUP3 ADD MSTORE PUSH1 0x64 SWAP1 REVERT JUMPDEST ISZERO PUSH2 0x5AED JUMPI JUMP JUMPDEST PUSH1 0x40 MLOAD PUSH3 0x461BCD PUSH1 0xE5 SHL DUP2 MSTORE PUSH1 0x20 PUSH1 0x4 DUP3 ADD MSTORE PUSH1 0x12 PUSH1 0x24 DUP3 ADD MSTORE PUSH18 0x45786365656473206D617820737570706C79 PUSH1 0x70 SHL PUSH1 0x44 DUP3 ADD MSTORE PUSH1 0x64 SWAP1 REVERT JUMPDEST PUSH1 0x1 PUSH1 0x1 PUSH1 0xA0 SHL SUB AND PUSH1 0x0 SWAP1 DUP2 MSTORE PUSH1 0x15 PUSH1 0x20 MSTORE PUSH1 0x40 SWAP1 KECCAK256 SLOAD PUSH1 0xFF AND ISZERO PUSH2 0x5B5E JUMPI PUSH2 0x45E5 PUSH1 0x17 SLOAD PUSH1 0x16 PUSH1 0x20 MSTORE PUSH1 0x40 PUSH1 0x0 KECCAK256 SLOAD SWAP1 PUSH2 0x58F4 JUMP JUMPDEST PUSH1 0x0 SWAP1 JUMP JUMPDEST DUP2 DUP2 MUL SWAP3 SWAP2 DUP2 ISZERO SWAP2 DUP5 DIV EQ OR ISZERO PUSH2 0x510B JUMPI JUMP JUMPDEST PUSH1 0xFF PUSH1 0x1E SLOAD AND ISZERO PUSH2 0x5C0F JUMPI PUSH1 0x1B SLOAD DUP1 TIMESTAMP LT PUSH2 0x5C08 JUMPI PUSH2 0x5B95 SWAP1 TIMESTAMP PUSH2 0x58F4 JUMP JUMPDEST PUSH1 0x1C SLOAD SWAP1 DUP2 DUP2 LT ISZERO PUSH2 0x5C00 JUMPI PUSH2 0x5BB8 SWAP1 PUSH2 0x5BB2 PUSH1 0x1D SLOAD DUP1 SWAP3 PUSH2 0x5772 JUMP JUMPDEST SWAP3 PUSH2 0x5772 JUMP JUMPDEST SWAP1 DUP1 ISZERO PUSH2 0x5BF8 JUMPI PUSH2 0x5BEC SWAP1 PUSH2 0x5BE6 PUSH1 0x19 SLOAD SWAP2 PUSH2 0x5BE0 PUSH1 0x1A SLOAD SWAP6 PUSH2 0x5BDB DUP8 DUP7 PUSH2 0x58F4 JUMP JUMPDEST PUSH2 0x5772 JUMP JUMPDEST SWAP1 PUSH2 0x5B63 JUMP JUMPDEST SWAP1 PUSH2 0x58F4 JUMP JUMPDEST SWAP1 DUP1 DUP3 LT PUSH2 0x5641 JUMPI POP SWAP1 JUMP JUMPDEST POP POP PUSH1 0x19 SLOAD SWAP1 JUMP JUMPDEST POP POP PUSH1 0x1A SLOAD SWAP1 JUMP JUMPDEST POP PUSH1 0x19 SLOAD SWAP1 JUMP JUMPDEST PUSH1 0x19 SLOAD SWAP1 JUMP JUMPDEST ISZERO PUSH2 0x5C1C JUMPI JUMP JUMPDEST PUSH1 0x40 MLOAD PUSH3 0x461BCD PUSH1 0xE5 SHL DUP2 MSTORE PUSH1 0x20 PUSH1 0x4 DUP3 ADD MSTORE PUSH1 0x2D PUSH1 0x24 DUP3 ADD MSTORE PUSH32 0x5374617274207072696365206D75737420626520686967686572207468616E20 PUSH1 0x44 DUP3 ADD MSTORE PUSH13 0x74686520656E64207072696365 PUSH1 0x98 SHL PUSH1 0x64 DUP3 ADD MSTORE PUSH1 0x84 SWAP1 REVERT JUMPDEST ISZERO PUSH2 0x5C7E JUMPI JUMP JUMPDEST PUSH1 0x40 MLOAD PUSH3 0x461BCD PUSH1 0xE5 SHL DUP2 MSTORE PUSH1 0x20 PUSH1 0x4 DUP3 ADD MSTORE PUSH1 0x1F PUSH1 0x24 DUP3 ADD MSTORE PUSH32 0x4475726174696F6E206D7573742062652067726561746572207468616E203000 PUSH1 0x44 DUP3 ADD MSTORE PUSH1 0x64 SWAP1 REVERT JUMPDEST ISZERO PUSH2 0x5CCA JUMPI JUMP JUMPDEST PUSH1 0x40 MLOAD PUSH3 0x461BCD PUSH1 0xE5 SHL DUP2 MSTORE PUSH1 0x20 PUSH1 0x4 DUP3 ADD MSTORE PUSH1 0x1B PUSH1 0x24 DUP3 ADD MSTORE PUSH27 0x125B9D985B1A59081C1C9A58D948191C9BDC081A5B9D195C9D985B PUSH1 0x2A SHL PUSH1 0x44 DUP3 ADD MSTORE PUSH1 0x64 SWAP1 REVERT JUMPDEST ISZERO PUSH2 0x5D14 JUMPI JUMP JUMPDEST PUSH1 0x40 MLOAD PUSH3 0x461BCD PUSH1 0xE5 SHL DUP2 MSTORE PUSH1 0x20 PUSH1 0x4 DUP3 ADD MSTORE PUSH1 0x12 PUSH1 0x24 DUP3 ADD MSTORE PUSH18 0x41756374696F6E206E6F7420616374697665 PUSH1 0x70 SHL PUSH1 0x44 DUP3 ADD MSTORE PUSH1 0x64 SWAP1 REVERT JUMPDEST PUSH1 0x40 SWAP2 SWAP5 SWAP4 SWAP3 PUSH1 0x60 DUP3 ADD SWAP6 DUP3 MSTORE PUSH1 0x20 DUP3 ADD MSTORE ADD MSTORE JUMP JUMPDEST PUSH1 0xFF PUSH1 0x1E SLOAD AND ISZERO PUSH2 0x5D84 JUMPI PUSH2 0x5D7E PUSH1 0x1B SLOAD PUSH1 0x1C SLOAD SWAP1 PUSH2 0x5551 JUMP JUMPDEST TIMESTAMP LT ISZERO SWAP1 JUMP JUMPDEST PUSH1 0x1 SWAP1 JUMP JUMPDEST PUSH1 0xFF PUSH1 0x1E SLOAD AND ISZERO DUP1 ISZERO PUSH2 0x5DF1 JUMPI JUMPDEST PUSH2 0x5B5E JUMPI PUSH1 0x1B SLOAD PUSH2 0x5DA8 DUP2 TIMESTAMP PUSH2 0x58F4 JUMP JUMPDEST PUSH2 0x5DB5 PUSH1 0x1D SLOAD DUP1 SWAP3 PUSH2 0x5772 JUMP JUMPDEST SWAP1 PUSH1 0x1 DUP3 ADD DUP1 SWAP3 GT PUSH2 0x510B JUMPI PUSH2 0x5DD1 PUSH2 0x5DD7 SWAP2 PUSH2 0x5DE1 SWAP4 PUSH2 0x5B63 JUMP JUMPDEST DUP4 PUSH2 0x5551 JUMP JUMPDEST SWAP2 PUSH1 0x1C SLOAD SWAP1 PUSH2 0x5551 JUMP JUMPDEST DUP2 LT ISZERO PUSH2 0x5DEB JUMPI SWAP1 JUMP JUMPDEST POP PUSH1 0x0 SWAP1 JUMP JUMPDEST POP PUSH1 0x1B SLOAD TIMESTAMP LT PUSH2 0x5D97 JUMP JUMPDEST SWAP1 DUP2 MLOAD DUP2 LT ISZERO PUSH2 0x450A JUMPI ADD PUSH1 0x20 ADD SWAP1 JUMP JUMPDEST PUSH1 0x40 MLOAD SWAP1 PUSH1 0x60 DUP3 ADD PUSH1 0x1 PUSH1 0x1 PUSH1 0x40 SHL SUB DUP2 GT DUP4 DUP3 LT OR PUSH2 0x483A JUMPI PUSH1 0x40 MSTORE PUSH1 0x2A DUP3 MSTORE PUSH1 0x20 DUP3 ADD PUSH1 0x40 CALLDATASIZE DUP3 CALLDATACOPY DUP3 MLOAD ISZERO PUSH2 0x450A JUMPI PUSH1 0x30 SWAP1 MSTORE8 DUP2 MLOAD PUSH1 0x1 SWAP1 DUP2 LT ISZERO PUSH2 0x450A JUMPI PUSH1 0x78 PUSH1 0x21 DUP5 ADD MSTORE8 PUSH1 0x29 SWAP1 JUMPDEST DUP1 DUP3 GT PUSH2 0x5E9B JUMPI POP POP PUSH2 0x5E69 JUMPI SWAP1 JUMP JUMPDEST PUSH1 0x64 PUSH1 0x40 MLOAD PUSH3 0x461BCD PUSH1 0xE5 SHL DUP2 MSTORE PUSH1 0x20 PUSH1 0x4 DUP3 ADD MSTORE PUSH1 0x20 PUSH1 0x24 DUP3 ADD MSTORE PUSH1 0x0 DUP1 MLOAD PUSH1 0x20 PUSH2 0x6138 DUP4 CODECOPY DUP2 MLOAD SWAP2 MSTORE PUSH1 0x44 DUP3 ADD MSTORE REVERT JUMPDEST SWAP1 SWAP2 PUSH1 0xF DUP2 AND PUSH1 0x10 DUP2 LT ISZERO PUSH2 0x5EF4 JUMPI PUSH16 0x181899199A1A9B1B9C1CB0B131B232B3 PUSH1 0x81 SHL SWAP1 BYTE PUSH2 0x5ECA DUP5 DUP7 PUSH2 0x5DFC JUMP JUMPDEST MSTORE8 PUSH1 0x4 SHR SWAP2 DUP1 ISZERO PUSH2 0x5EDF JUMPI PUSH1 0x0 NOT ADD SWAP1 PUSH2 0x5E59 JUMP JUMPDEST PUSH1 0x24 PUSH1 0x0 PUSH4 0x4E487B71 PUSH1 0xE0 SHL DUP2 MSTORE PUSH1 0x11 PUSH1 0x4 MSTORE REVERT JUMPDEST PUSH1 0x24 PUSH1 0x0 PUSH4 0x4E487B71 PUSH1 0xE0 SHL DUP2 MSTORE PUSH1 0x32 PUSH1 0x4 MSTORE REVERT JUMPDEST ISZERO PUSH2 0x5F10 JUMPI JUMP JUMPDEST PUSH1 0x40 MLOAD PUSH3 0x461BCD PUSH1 0xE5 SHL DUP2 MSTORE PUSH1 0x20 PUSH1 0x4 DUP3 ADD MSTORE PUSH1 0x13 PUSH1 0x24 DUP3 ADD MSTORE PUSH19 0x14DD185ADA5B99C81B9BDD08195B98589B1959 PUSH1 0x6A SHL PUSH1 0x44 DUP3 ADD MSTORE PUSH1 0x64 SWAP1 REVERT JUMPDEST ISZERO PUSH2 0x5F52 JUMPI JUMP JUMPDEST PUSH1 0x40 MLOAD PUSH3 0x461BCD PUSH1 0xE5 SHL DUP2 MSTORE PUSH1 0x20 PUSH1 0x4 DUP3 ADD MSTORE PUSH1 0xF PUSH1 0x24 DUP3 ADD MSTORE PUSH15 0x2737BA103A37B5B2B71037BBB732B9 PUSH1 0x89 SHL PUSH1 0x44 DUP3 ADD MSTORE PUSH1 0x64 SWAP1 REVERT JUMPDEST ISZERO PUSH2 0x5F90 JUMPI JUMP JUMPDEST PUSH1 0x40 MLOAD PUSH3 0x461BCD PUSH1 0xE5 SHL DUP2 MSTORE PUSH1 0x20 PUSH1 0x4 DUP3 ADD MSTORE PUSH1 0x14 PUSH1 0x24 DUP3 ADD MSTORE PUSH20 0x151BDAD95B88185B1C9958591E481CDD185AD959 PUSH1 0x62 SHL PUSH1 0x44 DUP3 ADD MSTORE PUSH1 0x64 SWAP1 REVERT JUMPDEST DUP1 SLOAD SWAP2 SWAP1 PUSH1 0x1 PUSH1 0x40 SHL DUP4 LT ISZERO PUSH2 0x483A JUMPI DUP3 PUSH2 0xF93 SWAP2 PUSH1 0x1 PUSH2 0x5262 SWAP6 ADD DUP2 SSTORE PUSH2 0x44F2 JUMP JUMPDEST ISZERO PUSH2 0x5FF6 JUMPI JUMP JUMPDEST PUSH1 0x40 MLOAD PUSH3 0x461BCD PUSH1 0xE5 SHL DUP2 MSTORE PUSH1 0x20 PUSH1 0x4 DUP3 ADD MSTORE PUSH1 0x10 PUSH1 0x24 DUP3 ADD MSTORE PUSH16 0x151BDAD95B881B9BDD081CDD185AD959 PUSH1 0x82 SHL PUSH1 0x44 DUP3 ADD MSTORE PUSH1 0x64 SWAP1 REVERT JUMPDEST DUP1 SLOAD SWAP1 DUP2 ISZERO PUSH2 0x6058 JUMPI PUSH1 0x0 NOT SWAP2 DUP3 ADD SWAP2 PUSH2 0x6048 DUP4 DUP4 PUSH2 0x44F2 JUMP JUMPDEST SWAP1 SWAP2 DUP3 SLOAD SWAP2 PUSH1 0x3 SHL SHL NOT AND SWAP1 SSTORE SSTORE JUMP JUMPDEST PUSH4 0x4E487B71 PUSH1 0xE0 SHL PUSH1 0x0 MSTORE PUSH1 0x31 PUSH1 0x4 MSTORE PUSH1 0x24 PUSH1 0x0 REVERT JUMPDEST PUSH1 0x0 MSTORE PUSH1 0x20 DUP1 MSTORE PUSH1 0xFF PUSH1 0x40 PUSH1 0x0 KECCAK256 SLOAD AND ISZERO DUP1 ISZERO PUSH2 0x609E JUMPI JUMPDEST PUSH2 0x5B5E JUMPI PUSH1 0x21 PUSH1 0x20 MSTORE PUSH2 0x45E5 PUSH1 0x40 PUSH1 0x0 KECCAK256 SLOAD TIMESTAMP PUSH2 0x58F4 JUMP JUMPDEST POP PUSH1 0x21 PUSH1 0x20 MSTORE PUSH1 0x40 PUSH1 0x0 KECCAK256 SLOAD ISZERO PUSH2 0x6086 JUMP JUMPDEST ISZERO PUSH2 0x60B7 JUMPI JUMP JUMPDEST PUSH1 0x40 MLOAD PUSH3 0x461BCD PUSH1 0xE5 SHL DUP2 MSTORE PUSH1 0x20 PUSH1 0x4 DUP3 ADD MSTORE PUSH1 0x14 PUSH1 0x24 DUP3 ADD MSTORE PUSH20 0x4E6F2066756E647320746F207769746864726177 PUSH1 0x60 SHL PUSH1 0x44 DUP3 ADD MSTORE PUSH1 0x64 SWAP1 REVERT JUMPDEST ISZERO PUSH2 0x60FA JUMPI JUMP JUMPDEST PUSH1 0x40 MLOAD PUSH3 0x461BCD PUSH1 0xE5 SHL DUP2 MSTORE PUSH1 0x20 PUSH1 0x4 DUP3 ADD MSTORE PUSH1 0x15 PUSH1 0x24 DUP3 ADD MSTORE PUSH21 0x456D70747920746F6B656E20494473206172726179 PUSH1 0x58 SHL PUSH1 0x44 DUP3 ADD MSTORE PUSH1 0x64 SWAP1 REVERT INVALID MSTORE8 PUSH21 0x72696E67733A20686578206C656E67746820696E73 PUSH22 0x6666696369656E745DB9EE0A495BF2E6FF9C91A7834C SHL LOG4 REVERT 0xD2 PREVRANDAO 0xA5 0xE8 0xAA 0x4E MSTORE8 PUSH28 0xD38AEAE4B073AA0BD399AE365AB45A4803BCA8E95718B4F1FF0915B4 DUP5 SWAP4 0xD7 SWAP1 0xB2 MSTORE JUMP SUB 0xC0 LOG0 SWAP3 SDIV 0xB8 DUP14 0x23 0xD9 0xA6 SIGNEXTEND PUSH26 0x24FCCC370E1E0C1CCF49989E3B2968CAFAF7DB7FC13BD13FFD80 COINBASE REVERT PUSH31 0x4D7047A13BDE415402E7278AD32792F9BDF46102A274181893CC948BE0079C MSTORE8 AND MSIZE EQ SGT PREVRANDAO 0xCD 0x1F 0xD0 LOG4 CALLCODE DUP5 NOT 0x49 PUSH32 0x9722A3DAAFE3B4186F6B6457E09F2DF0FED2C77648DE5860A4CC508CD0818C85 0xB8 0xB8 LOG1 0xAB 0x4C 0xEE 0xEF DUP14 SWAP9 SHR DUP10 JUMP 0xA6 0xA6 PUSH32 0xA1D1D89C2D62B3F7FDA41A9E2958CF2B076098AFD5156DE632E082B06EF2DDF2 MSTORE 0xAD SHL 0xE2 0xC8 SWAP12 PUSH10 0xC2B068FC378DAA952BA7 CALL PUSH4 0xC4A11628 CREATE2 GAS 0x4D CREATE2 0x23 0xB3 0xEF LOG4 SWAP9 SMOD KECCAK256 0x5C 0xE4 0xD3 SSTORE MULMOD 0x2E CREATE2 0xA8 LOG1 DUP16 JUMP 0xE8 SWAP2 EXTCODECOPY DELEGATECALL LOG2 ADD 0xFB 0xE2 DUP8 DUP3 JUMPDEST MULMOD JUMP SWAP4 0xC2 OR PUSH22 0x62E78CEA01BEE320CD4E420270B5EA74000D11B0C9F7 SELFBALANCE SLOAD 0xEB 0xDB 0xFC SLOAD 0x4B SDIV LOG2 PC PUSH8 0x41B2FC379FAD6781 AND INVALID RETURNDATASIZE 0x4D 0x4B SWAP11 BYTE XOR 0x4A 0xB5 EXTCODESIZE LOG3 PUSH12 0x86AD0FA66340B1AB41AD7D2F COINBASE 0xD9 PREVRANDAO 0x23 0x5F PUSH29 0x99290CA6F149E25AA6DEB5397189BE3882B8DDF71C51BBECF8E1A15ABA SWAP4 SWAP9 0xE0 NOT CREATE 0xB4 SWAP14 CALL LOG4 REVERT 0xE9 DUP15 0xE1 PUSH27 0xE345CB5F6B5E2C27F5033E8CE7905D981207A7D0B6C62CC46AB0BE 0x2A SMOD PUSH14 0x298E4A86D0AB79882DBD01AC373 PUSH25 0x59F9FB6D992D2AEE0ED338BB4C504A17FD3F67AE91A3135BC2 0xEF SWAP5 PUSH31 0x308C41B2F93F9A76C1BF3444D22400A00CB9FE990E6ABE9DBB333FDA48859C INVALID 0xE8 PUSH5 0x543DA26469 PUSH17 0x66735822122008105EE0E6CDA490298E00 PUSH32 0x49785B4C0F3B210E36A4A494FCAAC2B1C59FDB464736F6C634300081300332F DUP8 DUP9 GT PUSH31 0x7EFF1D82E926EC794901D17C78024A50270940304540A733656F0D31ECC21A PUSH21 0x5E3968A04E9570E4425BC18FA8019C68028196B546 0xD1 PUSH7 0x9C200C68290DEC 0xD9 SLOAD DUP12 PUSH3 0xA8D603 GASLIMIT 0xA9 DUP9 CODESIZE PUSH16 0xC84BA6BC95484008F6362F93160EF3E5 PUSH4 0xD7B69901 SDIV PUSH18 0x9101DABEB77144F2A3385C8033ACD3AF97E9 TIMESTAMP GASPRICE PUSH10 0x5E81AD1EB5B10E2D5276 SLT SMOD EXTCODESIZE 0x26 0xEE 0xCD REVERT PUSH18 0x7E6A320CF44B4AFAC2B0732D9FCBE2B7FA0C 0xF6 "},"methodIdentifiers":{"ADMIN_ROLE()":"75b238fc","DEFAULT_ADMIN_ROLE()":"a217fddf","MAX_MINT_PER_TX()":"8ecad721","MINTER_ROLE()":"d5391393","STAKING_ROLE()":"91052816","_contractURI()":"c0e72740","addToWhitelist(address[])":"7f649783","adminMint(address,uint256)":"e58306f9","approve(address,uint256)":"095ea7b3","auctionActive()":"92228006","auctionDuration()":"0cbf54c8","auctionEndPrice()":"a04a6ac8","auctionMint(uint256)":"4d3554c3","auctionPriceDropInterval()":"4542fc46","auctionStartPrice()":"d756985b","auctionStartTime()":"eb54f9ec","balanceOf(address)":"70a08231","baseURI()":"6c0360eb","batchMint(address,uint256)":"43508b05","batchStake(uint256[])":"c2127793","batchUnstake(uint256[])":"d2acd13d","contractURI()":"e8a3d485","currentSupply()":"771282f6","emergencyStop()":"63a599a4","emergencyWithdraw()":"db2e21bc","endAuction()":"fe67a54b","getAllRarityTiers()":"9470fc93","getApproved(uint256)":"081812fc","getAuctionStatus()":"2e93be30","getContractStats()":"dfe6b5d6","getCurrentAuctionPrice()":"51c7115b","getNextPriceDropTime()":"512d5c61","getRarityTier(uint256)":"275b1efb","getRarityTierCount()":"0c4ad45b","getRemainingRaritySupply(uint256)":"d7af40e5","getRemainingSupply()":"e4b7fb73","getRemainingWhiteListMints(address)":"f90adccc","getRoleAdmin(bytes32)":"248a9ca3","getStakingDuration(uint256)":"250aeeb7","getTokenRarity(uint256)":"555ec78b","getTotalRarityProbability()":"a30c4055","getTotalStakedByUser(address)":"0951984d","getUserStakedTokens(address)":"ae1a01a2","getWhitelistMintedCount(address)":"694d9778","grantRole(bytes32,address)":"2f2ff15d","hasAuctionEnded()":"a0484dda","hasRole(bytes32,address)":"91d14854","hiddenMetaDataURI()":"bb9391a1","isApprovedForAll(address,address)":"e985e9c5","isRarityTierAvailable(uint256)":"521c46d8","isTokenStaked(uint256)":"f0a52424","isWhitelisted(address)":"3af32abf","maxSupply()":"d5abeb01","maxWhitelistMints()":"ff6e36ed","migrateToIPFS(string)":"cbc85d6f","mint(address)":"6a627842","name()":"06fdde03","owner()":"8da5cb5b","ownerMint(address,uint256)":"484b973c","ownerOf(uint256)":"6352211e","pauseContract()":"439766ce","paused()":"5c975abb","rarityNameToIndex(string)":"8cdb026d","rarityTiers(uint256)":"969ce9cf","recoverERC20(address,uint256)":"8980f11f","recoverERC721(address,uint256)":"819d4cc6","removeFromWhitelist(address[])":"548db174","renounceOwnership()":"715018a6","renounceRole(bytes32,address)":"36568abe","reveal()":"a475b5dd","revealed()":"51830227","revokeRole(bytes32,address)":"d547741f","royaltyInfo(uint256,uint256)":"2a55205a","safeTransferFrom(address,address,uint256)":"42842e0e","safeTransferFrom(address,address,uint256,bytes)":"b88d4fde","setApprovalForAll(address,bool)":"a22cb465","setAuctionParameters(uint256,uint256,uint256,uint256)":"e4dad1ee","setBaseURI(string)":"55f804b3","setContractURI(string)":"938e3d7b","setEmergencyStop(bool)":"c73d7c7b","setHiddenMetaDataURI(string)":"78bc0301","setMaxWhitelistMints(uint256)":"faf53169","setRoyaltyInfo(address,uint96)":"02fa7c47","setWhitelistPhase(bool)":"02bdd755","setWithdrawAddress(address)":"3ab1a494","stake(uint256)":"a694fc3a","stakedTokens(uint256)":"c0788555","stakingEnabled()":"1cfff51b","stakingStartTime(uint256)":"1c06adcd","startAuction(uint256,uint256,uint256,uint256)":"8d2c4488","supportsInterface(bytes4)":"01ffc9a7","symbol()":"95d89b41","toggleStaking()":"3b8105b3","tokenToRarity(uint256)":"3f244f04","tokenURI(uint256)":"c87b56dd","transferFrom(address,address,uint256)":"23b872dd","transferOwnership(address)":"f2fde38b","unpauseContract()":"b33712c5","unstake(uint256)":"2e17de78","updateRarityTier(uint256,string,uint256,uint256,string)":"8d63a272","updateTokenMetadata(uint256,string)":"2cb2f52e","userStakedTokens(address,uint256)":"061886cd","whitelist(address)":"9b19251a","whitelistMint(uint256)":"868ff4a2","whitelistMinted(address)":"98a8cffe","whitelistPhaseActive()":"d12f743a","withdraw()":"3ccfd60b","withdrawAddress()":"1581b600"}}}}}