{"contracts/NFTContract.sol":{"NFTContract":{"abi":[{"inputs":[{"internalType":"string","name":"_name","type":"string"},{"internalType":"string","name":"_symbol","type":"string"},{"internalType":"string","name":"_baseURI","type":"string"},{"internalType":"string","name":"contractURI_","type":"string"},{"internalType":"string","name":"_hiddenMetaDataURI","type":"string"},{"internalType":"address","name":"royaltyRecipient_","type":"address"},{"internalType":"address","name":"withdrawAddress_","type":"address"}],"stateMutability":"nonpayable","type":"constructor"},{"inputs":[],"name":"AlreadyRevealed","type":"error"},{"inputs":[],"name":"AuctionNotActive","type":"error"},{"inputs":[],"name":"ContractStopped","type":"error"},{"inputs":[],"name":"EmptyArray","type":"error"},{"inputs":[],"name":"ExceedWhitelistLimit","type":"error"},{"inputs":[],"name":"ExceedsMaxSupply","type":"error"},{"inputs":[],"name":"InsufficientPayment","type":"error"},{"inputs":[],"name":"InvalidAddress","type":"error"},{"inputs":[],"name":"InvalidIndex","type":"error"},{"inputs":[],"name":"InvalidQuantity","type":"error"},{"inputs":[],"name":"InvalidRarityTier","type":"error"},{"inputs":[],"name":"InvalidTierIndex","type":"error"},{"inputs":[],"name":"MaxSupplyReached","type":"error"},{"inputs":[],"name":"MaxSupplyTooLow","type":"error"},{"inputs":[],"name":"NoFunds","type":"error"},{"inputs":[],"name":"NotRevealed","type":"error"},{"inputs":[],"name":"NotTokenOwner","type":"error"},{"inputs":[],"name":"NotWhitelisted","type":"error"},{"inputs":[],"name":"RarityTierExhausted","type":"error"},{"inputs":[],"name":"RoyaltyTooHigh","type":"error"},{"inputs":[],"name":"StakingNotEnabled","type":"error"},{"inputs":[],"name":"TokenAlreadyStaked","type":"error"},{"inputs":[],"name":"TokenNotExist","type":"error"},{"inputs":[],"name":"TokenNotStaked","type":"error"},{"inputs":[],"name":"TooManyTokens","type":"error"},{"inputs":[],"name":"TransferFailed","type":"error"},{"inputs":[],"name":"WhitelistNotActive","type":"error"},{"inputs":[],"name":"WithdrawFailed","type":"error"},{"inputs":[],"name":"ZeroAddress","type":"error"},{"anonymous":false,"inputs":[{"indexed":true,"internalType":"address","name":"owner","type":"address"},{"indexed":true,"internalType":"address","name":"approved","type":"address"},{"indexed":true,"internalType":"uint256","name":"tokenId","type":"uint256"}],"name":"Approval","type":"event"},{"anonymous":false,"inputs":[{"indexed":true,"internalType":"address","name":"owner","type":"address"},{"indexed":true,"internalType":"address","name":"operator","type":"address"},{"indexed":false,"internalType":"bool","name":"approved","type":"bool"}],"name":"ApprovalForAll","type":"event"},{"anonymous":false,"inputs":[],"name":"AuctionEnded","type":"event"},{"anonymous":false,"inputs":[{"indexed":true,"internalType":"address","name":"buyer","type":"address"},{"indexed":false,"internalType":"uint256","name":"quantity","type":"uint256"},{"indexed":false,"internalType":"uint256","name":"totalPrice","type":"uint256"},{"indexed":false,"internalType":"uint256","name":"pricePerToken","type":"uint256"}],"name":"AuctionMinted","type":"event"},{"anonymous":false,"inputs":[{"indexed":false,"internalType":"uint256","name":"startPrice","type":"uint256"},{"indexed":false,"internalType":"uint256","name":"endPrice","type":"uint256"},{"indexed":false,"internalType":"uint256","name":"duration","type":"uint256"}],"name":"AuctionPriceUpdated","type":"event"},{"anonymous":false,"inputs":[{"indexed":false,"internalType":"uint256","name":"startPrice","type":"uint256"},{"indexed":false,"internalType":"uint256","name":"endPrice","type":"uint256"},{"indexed":false,"internalType":"uint256","name":"duration","type":"uint256"},{"indexed":false,"internalType":"uint256","name":"startTime","type":"uint256"}],"name":"AuctionStarted","type":"event"},{"anonymous":false,"inputs":[{"indexed":false,"internalType":"string","name":"newBaseURI","type":"string"}],"name":"BaseURIUpdated","type":"event"},{"anonymous":false,"inputs":[{"indexed":false,"internalType":"uint256","name":"_fromTokenId","type":"uint256"},{"indexed":false,"internalType":"uint256","name":"_toTokenId","type":"uint256"}],"name":"BatchMetadataUpdate","type":"event"},{"anonymous":false,"inputs":[{"indexed":true,"internalType":"address","name":"to","type":"address"},{"indexed":false,"internalType":"uint256","name":"quantity","type":"uint256"},{"indexed":false,"internalType":"uint256","name":"startTokenId","type":"uint256"}],"name":"BatchMinted","type":"event"},{"anonymous":false,"inputs":[{"indexed":false,"internalType":"string","name":"newContractURI","type":"string"}],"name":"ContractURIUpdated","type":"event"},{"anonymous":false,"inputs":[{"indexed":true,"internalType":"address","name":"token","type":"address"},{"indexed":true,"internalType":"address","name":"recipient","type":"address"},{"indexed":false,"internalType":"uint256","name":"amount","type":"uint256"}],"name":"ERC20Recovered","type":"event"},{"anonymous":false,"inputs":[{"indexed":false,"internalType":"bool","name":"stopped","type":"bool"}],"name":"EmergencyStopToggled","type":"event"},{"anonymous":false,"inputs":[{"indexed":true,"internalType":"address","name":"recipient","type":"address"},{"indexed":false,"internalType":"uint256","name":"amount","type":"uint256"}],"name":"EmergencyWithdrawal","type":"event"},{"anonymous":false,"inputs":[{"indexed":false,"internalType":"string","name":"newHiddenMetaDataURI","type":"string"}],"name":"HiddenMetaDataURIUpdated","type":"event"},{"anonymous":false,"inputs":[{"indexed":false,"internalType":"uint256","name":"_tokenId","type":"uint256"}],"name":"MetadataUpdate","type":"event"},{"anonymous":false,"inputs":[{"indexed":true,"internalType":"address","name":"previousOwner","type":"address"},{"indexed":true,"internalType":"address","name":"newOwner","type":"address"}],"name":"OwnershipTransferred","type":"event"},{"anonymous":false,"inputs":[{"indexed":false,"internalType":"address","name":"account","type":"address"}],"name":"Paused","type":"event"},{"anonymous":false,"inputs":[{"indexed":true,"internalType":"bytes32","name":"role","type":"bytes32"},{"indexed":true,"internalType":"bytes32","name":"previousAdminRole","type":"bytes32"},{"indexed":true,"internalType":"bytes32","name":"newAdminRole","type":"bytes32"}],"name":"RoleAdminChanged","type":"event"},{"anonymous":false,"inputs":[{"indexed":true,"internalType":"bytes32","name":"role","type":"bytes32"},{"indexed":true,"internalType":"address","name":"account","type":"address"},{"indexed":true,"internalType":"address","name":"sender","type":"address"}],"name":"RoleGranted","type":"event"},{"anonymous":false,"inputs":[{"indexed":true,"internalType":"bytes32","name":"role","type":"bytes32"},{"indexed":true,"internalType":"address","name":"account","type":"address"},{"indexed":true,"internalType":"address","name":"sender","type":"address"}],"name":"RoleRevoked","type":"event"},{"anonymous":false,"inputs":[{"indexed":false,"internalType":"address","name":"recipient","type":"address"},{"indexed":false,"internalType":"uint96","name":"fee","type":"uint96"}],"name":"RoyaltyUpdated","type":"event"},{"anonymous":false,"inputs":[{"indexed":false,"internalType":"bool","name":"enabled","type":"bool"}],"name":"StakingToggled","type":"event"},{"anonymous":false,"inputs":[{"indexed":true,"internalType":"uint256","name":"tokenId","type":"uint256"},{"indexed":false,"internalType":"string","name":"newURI","type":"string"}],"name":"TokenMetaDataUpdated","type":"event"},{"anonymous":false,"inputs":[{"indexed":true,"internalType":"address","name":"to","type":"address"},{"indexed":true,"internalType":"uint256","name":"tokenId","type":"uint256"},{"indexed":false,"internalType":"uint256","name":"rarityTier","type":"uint256"},{"indexed":false,"internalType":"string","name":"rarityName","type":"string"}],"name":"TokenMinted","type":"event"},{"anonymous":false,"inputs":[{"indexed":true,"internalType":"uint256","name":"tokenId","type":"uint256"},{"indexed":true,"internalType":"address","name":"owner","type":"address"}],"name":"TokenStaked","type":"event"},{"anonymous":false,"inputs":[{"indexed":true,"internalType":"uint256","name":"tokenId","type":"uint256"},{"indexed":true,"internalType":"address","name":"owner","type":"address"}],"name":"TokenUnstaked","type":"event"},{"anonymous":false,"inputs":[],"name":"TokensRevealed","type":"event"},{"anonymous":false,"inputs":[{"indexed":true,"internalType":"address","name":"from","type":"address"},{"indexed":true,"internalType":"address","name":"to","type":"address"},{"indexed":true,"internalType":"uint256","name":"tokenId","type":"uint256"}],"name":"Transfer","type":"event"},{"anonymous":false,"inputs":[{"indexed":false,"internalType":"address","name":"account","type":"address"}],"name":"Unpaused","type":"event"},{"anonymous":false,"inputs":[{"indexed":true,"internalType":"address","name":"to","type":"address"},{"indexed":false,"internalType":"uint256","name":"quantity","type":"uint256"}],"name":"WhitelistMinted","type":"event"},{"anonymous":false,"inputs":[{"indexed":false,"internalType":"bool","name":"active","type":"bool"}],"name":"WhitelistPhaseToggled","type":"event"},{"anonymous":false,"inputs":[{"indexed":true,"internalType":"address","name":"user","type":"address"},{"indexed":false,"internalType":"bool","name":"status","type":"bool"}],"name":"WhitelistUpdated","type":"event"},{"anonymous":false,"inputs":[{"indexed":true,"internalType":"address","name":"newAddress","type":"address"}],"name":"WithdrawAddressUpdated","type":"event"},{"inputs":[],"name":"ADMIN_ROLE","outputs":[{"internalType":"bytes32","name":"","type":"bytes32"}],"stateMutability":"view","type":"function"},{"inputs":[],"name":"DEFAULT_ADMIN_ROLE","outputs":[{"internalType":"bytes32","name":"","type":"bytes32"}],"stateMutability":"view","type":"function"},{"inputs":[],"name":"MAX_MINT_PER_TX","outputs":[{"internalType":"uint256","name":"","type":"uint256"}],"stateMutability":"view","type":"function"},{"inputs":[],"name":"MINTER_ROLE","outputs":[{"internalType":"bytes32","name":"","type":"bytes32"}],"stateMutability":"view","type":"function"},{"inputs":[],"name":"STAKING_ROLE","outputs":[{"internalType":"bytes32","name":"","type":"bytes32"}],"stateMutability":"view","type":"function"},{"inputs":[],"name":"_contractURI","outputs":[{"internalType":"string","name":"","type":"string"}],"stateMutability":"view","type":"function"},{"inputs":[{"internalType":"address[]","name":"addresses","type":"address[]"}],"name":"addToWhitelist","outputs":[],"stateMutability":"nonpayable","type":"function"},{"inputs":[{"internalType":"address","name":"to","type":"address"},{"internalType":"uint256","name":"quantity","type":"uint256"}],"name":"adminMint","outputs":[],"stateMutability":"nonpayable","type":"function"},{"inputs":[{"internalType":"address","name":"to","type":"address"},{"internalType":"uint256","name":"tokenId","type":"uint256"}],"name":"approve","outputs":[],"stateMutability":"nonpayable","type":"function"},{"inputs":[],"name":"auctionActive","outputs":[{"internalType":"bool","name":"","type":"bool"}],"stateMutability":"view","type":"function"},{"inputs":[],"name":"auctionDuration","outputs":[{"internalType":"uint256","name":"","type":"uint256"}],"stateMutability":"view","type":"function"},{"inputs":[],"name":"auctionEndPrice","outputs":[{"internalType":"uint256","name":"","type":"uint256"}],"stateMutability":"view","type":"function"},{"inputs":[{"internalType":"uint256","name":"quantity","type":"uint256"}],"name":"auctionMint","outputs":[],"stateMutability":"payable","type":"function"},{"inputs":[],"name":"auctionPriceDropInterval","outputs":[{"internalType":"uint256","name":"","type":"uint256"}],"stateMutability":"view","type":"function"},{"inputs":[],"name":"auctionStartPrice","outputs":[{"internalType":"uint256","name":"","type":"uint256"}],"stateMutability":"view","type":"function"},{"inputs":[],"name":"auctionStartTime","outputs":[{"internalType":"uint256","name":"","type":"uint256"}],"stateMutability":"view","type":"function"},{"inputs":[{"internalType":"address","name":"owner","type":"address"}],"name":"balanceOf","outputs":[{"internalType":"uint256","name":"","type":"uint256"}],"stateMutability":"view","type":"function"},{"inputs":[],"name":"baseURI","outputs":[{"internalType":"string","name":"","type":"string"}],"stateMutability":"view","type":"function"},{"inputs":[{"internalType":"address","name":"to","type":"address"},{"internalType":"uint256","name":"quantity","type":"uint256"}],"name":"batchMint","outputs":[],"stateMutability":"nonpayable","type":"function"},{"inputs":[{"internalType":"uint256[]","name":"tokenIdList","type":"uint256[]"}],"name":"batchStake","outputs":[],"stateMutability":"nonpayable","type":"function"},{"inputs":[{"internalType":"uint256[]","name":"tokenIdList","type":"uint256[]"}],"name":"batchUnstake","outputs":[],"stateMutability":"nonpayable","type":"function"},{"inputs":[],"name":"contractURI","outputs":[{"internalType":"string","name":"","type":"string"}],"stateMutability":"view","type":"function"},{"inputs":[],"name":"currentSupply","outputs":[{"internalType":"uint256","name":"","type":"uint256"}],"stateMutability":"view","type":"function"},{"inputs":[],"name":"emergencyStop","outputs":[{"internalType":"bool","name":"","type":"bool"}],"stateMutability":"view","type":"function"},{"inputs":[],"name":"emergencyWithdraw","outputs":[],"stateMutability":"nonpayable","type":"function"},{"inputs":[],"name":"endAuction","outputs":[],"stateMutability":"nonpayable","type":"function"},{"inputs":[],"name":"getAllRarityTiers","outputs":[{"components":[{"internalType":"string","name":"name","type":"string"},{"internalType":"uint256","name":"probability","type":"uint256"},{"internalType":"uint256","name":"maxSupply","type":"uint256"},{"internalType":"uint256","name":"currentSupply","type":"uint256"},{"internalType":"string","name":"specialAttribute","type":"string"}],"internalType":"struct NFTContract.RarityTier[]","name":"","type":"tuple[]"}],"stateMutability":"view","type":"function"},{"inputs":[{"internalType":"uint256","name":"tokenId","type":"uint256"}],"name":"getApproved","outputs":[{"internalType":"address","name":"","type":"address"}],"stateMutability":"view","type":"function"},{"inputs":[],"name":"getAuctionStatus","outputs":[{"internalType":"bool","name":"isActive","type":"bool"},{"internalType":"uint256","name":"currentPrice","type":"uint256"},{"internalType":"uint256","name":"timeRemaining","type":"uint256"}],"stateMutability":"view","type":"function"},{"inputs":[],"name":"getContractStats","outputs":[{"internalType":"uint256","name":"totalSupply","type":"uint256"},{"internalType":"uint256","name":"remainingSupply","type":"uint256"},{"internalType":"uint256","name":"totalRarityTiers","type":"uint256"},{"internalType":"bool","name":"isRevealed","type":"bool"},{"internalType":"bool","name":"isStakingEnabled","type":"bool"},{"internalType":"bool","name":"isWhitelistPhaseActive","type":"bool"},{"internalType":"bool","name":"isAuctionActive","type":"bool"}],"stateMutability":"view","type":"function"},{"inputs":[],"name":"getCurrentAuctionPrice","outputs":[{"internalType":"uint256","name":"","type":"uint256"}],"stateMutability":"view","type":"function"},{"inputs":[],"name":"getNextPriceDropTime","outputs":[{"internalType":"uint256","name":"","type":"uint256"}],"stateMutability":"view","type":"function"},{"inputs":[{"internalType":"uint256","name":"index","type":"uint256"}],"name":"getRarityTier","outputs":[{"components":[{"internalType":"string","name":"name","type":"string"},{"internalType":"uint256","name":"probability","type":"uint256"},{"internalType":"uint256","name":"maxSupply","type":"uint256"},{"internalType":"uint256","name":"currentSupply","type":"uint256"},{"internalType":"string","name":"specialAttribute","type":"string"}],"internalType":"struct NFTContract.RarityTier","name":"","type":"tuple"}],"stateMutability":"view","type":"function"},{"inputs":[],"name":"getRarityTierCount","outputs":[{"internalType":"uint256","name":"","type":"uint256"}],"stateMutability":"view","type":"function"},{"inputs":[{"internalType":"uint256","name":"rarityTierIndex","type":"uint256"}],"name":"getRemainingRaritySupply","outputs":[{"internalType":"uint256","name":"","type":"uint256"}],"stateMutability":"view","type":"function"},{"inputs":[],"name":"getRemainingSupply","outputs":[{"internalType":"uint256","name":"","type":"uint256"}],"stateMutability":"view","type":"function"},{"inputs":[{"internalType":"address","name":"user","type":"address"}],"name":"getRemainingWhiteListMints","outputs":[{"internalType":"uint256","name":"","type":"uint256"}],"stateMutability":"view","type":"function"},{"inputs":[{"internalType":"bytes32","name":"role","type":"bytes32"}],"name":"getRoleAdmin","outputs":[{"internalType":"bytes32","name":"","type":"bytes32"}],"stateMutability":"view","type":"function"},{"inputs":[{"internalType":"uint256","name":"tokenId","type":"uint256"}],"name":"getStakingDuration","outputs":[{"internalType":"uint256","name":"","type":"uint256"}],"stateMutability":"view","type":"function"},{"inputs":[{"internalType":"uint256","name":"tokenId","type":"uint256"}],"name":"getTokenRarity","outputs":[{"components":[{"internalType":"string","name":"name","type":"string"},{"internalType":"uint256","name":"probability","type":"uint256"},{"internalType":"uint256","name":"maxSupply","type":"uint256"},{"internalType":"uint256","name":"currentSupply","type":"uint256"},{"internalType":"string","name":"specialAttribute","type":"string"}],"internalType":"struct NFTContract.RarityTier","name":"","type":"tuple"}],"stateMutability":"view","type":"function"},{"inputs":[],"name":"getTotalRarityProbability","outputs":[{"internalType":"uint256","name":"","type":"uint256"}],"stateMutability":"view","type":"function"},{"inputs":[{"internalType":"address","name":"user","type":"address"}],"name":"getTotalStakedByUser","outputs":[{"internalType":"uint256","name":"","type":"uint256"}],"stateMutability":"view","type":"function"},{"inputs":[{"internalType":"address","name":"user","type":"address"}],"name":"getUserStakedTokens","outputs":[{"internalType":"uint256[]","name":"","type":"uint256[]"}],"stateMutability":"view","type":"function"},{"inputs":[{"internalType":"address","name":"user","type":"address"}],"name":"getWhitelistMintedCount","outputs":[{"internalType":"uint256","name":"","type":"uint256"}],"stateMutability":"view","type":"function"},{"inputs":[{"internalType":"bytes32","name":"role","type":"bytes32"},{"internalType":"address","name":"account","type":"address"}],"name":"grantRole","outputs":[],"stateMutability":"nonpayable","type":"function"},{"inputs":[],"name":"hasAuctionEnded","outputs":[{"internalType":"bool","name":"","type":"bool"}],"stateMutability":"view","type":"function"},{"inputs":[{"internalType":"bytes32","name":"role","type":"bytes32"},{"internalType":"address","name":"account","type":"address"}],"name":"hasRole","outputs":[{"internalType":"bool","name":"","type":"bool"}],"stateMutability":"view","type":"function"},{"inputs":[],"name":"hiddenMetaDataURI","outputs":[{"internalType":"string","name":"","type":"string"}],"stateMutability":"view","type":"function"},{"inputs":[{"internalType":"address","name":"owner","type":"address"},{"internalType":"address","name":"operator","type":"address"}],"name":"isApprovedForAll","outputs":[{"internalType":"bool","name":"","type":"bool"}],"stateMutability":"view","type":"function"},{"inputs":[{"internalType":"uint256","name":"rarityTierIndex","type":"uint256"}],"name":"isRarityTierAvailable","outputs":[{"internalType":"bool","name":"","type":"bool"}],"stateMutability":"view","type":"function"},{"inputs":[{"internalType":"uint256","name":"tokenId","type":"uint256"}],"name":"isTokenStaked","outputs":[{"internalType":"bool","name":"","type":"bool"}],"stateMutability":"view","type":"function"},{"inputs":[{"internalType":"address","name":"user","type":"address"}],"name":"isWhitelisted","outputs":[{"internalType":"bool","name":"","type":"bool"}],"stateMutability":"view","type":"function"},{"inputs":[],"name":"maxSupply","outputs":[{"internalType":"uint256","name":"","type":"uint256"}],"stateMutability":"view","type":"function"},{"inputs":[],"name":"maxWhitelistMints","outputs":[{"internalType":"uint256","name":"","type":"uint256"}],"stateMutability":"view","type":"function"},{"inputs":[{"internalType":"string","name":"newIPFSBaseURI","type":"string"}],"name":"migrateToIPFS","outputs":[],"stateMutability":"nonpayable","type":"function"},{"inputs":[{"internalType":"address","name":"to","type":"address"}],"name":"mint","outputs":[],"stateMutability":"nonpayable","type":"function"},{"inputs":[],"name":"name","outputs":[{"internalType":"string","name":"","type":"string"}],"stateMutability":"view","type":"function"},{"inputs":[],"name":"owner","outputs":[{"internalType":"address","name":"","type":"address"}],"stateMutability":"view","type":"function"},{"inputs":[{"internalType":"address","name":"to","type":"address"},{"internalType":"uint256","name":"rarityTierIndex","type":"uint256"}],"name":"ownerMint","outputs":[],"stateMutability":"nonpayable","type":"function"},{"inputs":[{"internalType":"uint256","name":"tokenId","type":"uint256"}],"name":"ownerOf","outputs":[{"internalType":"address","name":"","type":"address"}],"stateMutability":"view","type":"function"},{"inputs":[],"name":"pauseContract","outputs":[],"stateMutability":"nonpayable","type":"function"},{"inputs":[],"name":"paused","outputs":[{"internalType":"bool","name":"","type":"bool"}],"stateMutability":"view","type":"function"},{"inputs":[{"internalType":"string","name":"","type":"string"}],"name":"rarityNameToIndex","outputs":[{"internalType":"uint256","name":"","type":"uint256"}],"stateMutability":"view","type":"function"},{"inputs":[{"internalType":"uint256","name":"","type":"uint256"}],"name":"rarityTiers","outputs":[{"internalType":"string","name":"name","type":"string"},{"internalType":"uint256","name":"probability","type":"uint256"},{"internalType":"uint256","name":"maxSupply","type":"uint256"},{"internalType":"uint256","name":"currentSupply","type":"uint256"},{"internalType":"string","name":"specialAttribute","type":"string"}],"stateMutability":"view","type":"function"},{"inputs":[{"internalType":"address","name":"token","type":"address"},{"internalType":"uint256","name":"amount","type":"uint256"}],"name":"recoverERC20","outputs":[],"stateMutability":"nonpayable","type":"function"},{"inputs":[{"internalType":"address","name":"token","type":"address"},{"internalType":"uint256","name":"tokenId","type":"uint256"}],"name":"recoverERC721","outputs":[],"stateMutability":"nonpayable","type":"function"},{"inputs":[{"internalType":"address[]","name":"addresses","type":"address[]"}],"name":"removeFromWhitelist","outputs":[],"stateMutability":"nonpayable","type":"function"},{"inputs":[],"name":"renounceOwnership","outputs":[],"stateMutability":"nonpayable","type":"function"},{"inputs":[{"internalType":"bytes32","name":"role","type":"bytes32"},{"internalType":"address","name":"account","type":"address"}],"name":"renounceRole","outputs":[],"stateMutability":"nonpayable","type":"function"},{"inputs":[],"name":"reveal","outputs":[],"stateMutability":"nonpayable","type":"function"},{"inputs":[],"name":"revealed","outputs":[{"internalType":"bool","name":"","type":"bool"}],"stateMutability":"view","type":"function"},{"inputs":[{"internalType":"bytes32","name":"role","type":"bytes32"},{"internalType":"address","name":"account","type":"address"}],"name":"revokeRole","outputs":[],"stateMutability":"nonpayable","type":"function"},{"inputs":[{"internalType":"uint256","name":"","type":"uint256"},{"internalType":"uint256","name":"salePrice","type":"uint256"}],"name":"royaltyInfo","outputs":[{"internalType":"address","name":"","type":"address"},{"internalType":"uint256","name":"","type":"uint256"}],"stateMutability":"view","type":"function"},{"inputs":[{"internalType":"address","name":"from","type":"address"},{"internalType":"address","name":"to","type":"address"},{"internalType":"uint256","name":"tokenId","type":"uint256"}],"name":"safeTransferFrom","outputs":[],"stateMutability":"nonpayable","type":"function"},{"inputs":[{"internalType":"address","name":"from","type":"address"},{"internalType":"address","name":"to","type":"address"},{"internalType":"uint256","name":"tokenId","type":"uint256"},{"internalType":"bytes","name":"data","type":"bytes"}],"name":"safeTransferFrom","outputs":[],"stateMutability":"nonpayable","type":"function"},{"inputs":[{"internalType":"address","name":"operator","type":"address"},{"internalType":"bool","name":"approved","type":"bool"}],"name":"setApprovalForAll","outputs":[],"stateMutability":"nonpayable","type":"function"},{"inputs":[{"internalType":"uint256","name":"startPrice","type":"uint256"},{"internalType":"uint256","name":"endPrice","type":"uint256"},{"internalType":"uint256","name":"duration","type":"uint256"},{"internalType":"uint256","name":"priceDropInterval","type":"uint256"}],"name":"setAuctionParameters","outputs":[],"stateMutability":"nonpayable","type":"function"},{"inputs":[{"internalType":"string","name":"newBaseURI","type":"string"}],"name":"setBaseURI","outputs":[],"stateMutability":"nonpayable","type":"function"},{"inputs":[{"internalType":"string","name":"newContractURI","type":"string"}],"name":"setContractURI","outputs":[],"stateMutability":"nonpayable","type":"function"},{"inputs":[{"internalType":"bool","name":"stopped","type":"bool"}],"name":"setEmergencyStop","outputs":[],"stateMutability":"nonpayable","type":"function"},{"inputs":[{"internalType":"string","name":"newHiddenMetaDataURI","type":"string"}],"name":"setHiddenMetaDataURI","outputs":[],"stateMutability":"nonpayable","type":"function"},{"inputs":[{"internalType":"uint256","name":"maxMints","type":"uint256"}],"name":"setMaxWhitelistMints","outputs":[],"stateMutability":"nonpayable","type":"function"},{"inputs":[{"internalType":"address","name":"recipient","type":"address"},{"internalType":"uint96","name":"fee","type":"uint96"}],"name":"setRoyaltyInfo","outputs":[],"stateMutability":"nonpayable","type":"function"},{"inputs":[{"internalType":"bool","name":"active","type":"bool"}],"name":"setWhitelistPhase","outputs":[],"stateMutability":"nonpayable","type":"function"},{"inputs":[{"internalType":"address","name":"newAddress","type":"address"}],"name":"setWithdrawAddress","outputs":[],"stateMutability":"nonpayable","type":"function"},{"inputs":[{"internalType":"uint256","name":"tokenId","type":"uint256"}],"name":"stake","outputs":[],"stateMutability":"nonpayable","type":"function"},{"inputs":[{"internalType":"uint256","name":"","type":"uint256"}],"name":"stakedTokens","outputs":[{"internalType":"bool","name":"","type":"bool"}],"stateMutability":"view","type":"function"},{"inputs":[],"name":"stakingEnabled","outputs":[{"internalType":"bool","name":"","type":"bool"}],"stateMutability":"view","type":"function"},{"inputs":[{"internalType":"uint256","name":"","type":"uint256"}],"name":"stakingStartTime","outputs":[{"internalType":"uint256","name":"","type":"uint256"}],"stateMutability":"view","type":"function"},{"inputs":[{"internalType":"uint256","name":"startPrice","type":"uint256"},{"internalType":"uint256","name":"endPrice","type":"uint256"},{"internalType":"uint256","name":"duration","type":"uint256"},{"internalType":"uint256","name":"priceDropInterval","type":"uint256"}],"name":"startAuction","outputs":[],"stateMutability":"nonpayable","type":"function"},{"inputs":[{"internalType":"bytes4","name":"interfaceId","type":"bytes4"}],"name":"supportsInterface","outputs":[{"internalType":"bool","name":"","type":"bool"}],"stateMutability":"view","type":"function"},{"inputs":[],"name":"symbol","outputs":[{"internalType":"string","name":"","type":"string"}],"stateMutability":"view","type":"function"},{"inputs":[],"name":"toggleStaking","outputs":[],"stateMutability":"nonpayable","type":"function"},{"inputs":[{"internalType":"uint256","name":"","type":"uint256"}],"name":"tokenToRarity","outputs":[{"internalType":"uint256","name":"","type":"uint256"}],"stateMutability":"view","type":"function"},{"inputs":[{"internalType":"uint256","name":"tokenId","type":"uint256"}],"name":"tokenURI","outputs":[{"internalType":"string","name":"","type":"string"}],"stateMutability":"view","type":"function"},{"inputs":[{"internalType":"address","name":"from","type":"address"},{"internalType":"address","name":"to","type":"address"},{"internalType":"uint256","name":"tokenId","type":"uint256"}],"name":"transferFrom","outputs":[],"stateMutability":"nonpayable","type":"function"},{"inputs":[{"internalType":"address","name":"newOwner","type":"address"}],"name":"transferOwnership","outputs":[],"stateMutability":"nonpayable","type":"function"},{"inputs":[],"name":"unpauseContract","outputs":[],"stateMutability":"nonpayable","type":"function"},{"inputs":[{"internalType":"uint256","name":"tokenId","type":"uint256"}],"name":"unstake","outputs":[],"stateMutability":"nonpayable","type":"function"},{"inputs":[{"internalType":"uint256","name":"tierIndex","type":"uint256"},{"internalType":"string","name":"name","type":"string"},{"internalType":"uint256","name":"probability","type":"uint256"},{"internalType":"uint256","name":"maxSupplyTier","type":"uint256"},{"internalType":"string","name":"specialAttribute","type":"string"}],"name":"updateRarityTier","outputs":[],"stateMutability":"nonpayable","type":"function"},{"inputs":[{"internalType":"uint256","name":"tokenId","type":"uint256"},{"internalType":"string","name":"newURI","type":"string"}],"name":"updateTokenMetadata","outputs":[],"stateMutability":"nonpayable","type":"function"},{"inputs":[{"internalType":"address","name":"","type":"address"},{"internalType":"uint256","name":"","type":"uint256"}],"name":"userStakedTokens","outputs":[{"internalType":"uint256","name":"","type":"uint256"}],"stateMutability":"view","type":"function"},{"inputs":[{"internalType":"address","name":"","type":"address"}],"name":"whitelist","outputs":[{"internalType":"bool","name":"","type":"bool"}],"stateMutability":"view","type":"function"},{"inputs":[{"internalType":"uint256","name":"quantity","type":"uint256"}],"name":"whitelistMint","outputs":[],"stateMutability":"nonpayable","type":"function"},{"inputs":[{"internalType":"address","name":"","type":"address"}],"name":"whitelistMinted","outputs":[{"internalType":"uint256","name":"","type":"uint256"}],"stateMutability":"view","type":"function"},{"inputs":[],"name":"whitelistPhaseActive","outputs":[{"internalType":"bool","name":"","type":"bool"}],"stateMutability":"view","type":"function"},{"inputs":[],"name":"withdraw","outputs":[],"stateMutability":"nonpayable","type":"function"},{"inputs":[],"name":"withdrawAddress","outputs":[{"internalType":"address","name":"","type":"address"}],"stateMutability":"view","type":"function"}],"evm":{"bytecode":{"linkReferences":{},"object":"60808060405234620013cc5762007117803803809162000020828562001409565b833981019060e081830312620013cc5780516001600160401b038111620013cc57826200004f9183016200142d565b60208201516001600160401b038111620013cc5783620000719184016200142d565b60408301519092906001600160401b038111620013cc5784620000969183016200142d565b60608201516001600160401b038111620013cc5785620000b89184016200142d565b608083015190956001600160401b038211620013cc57620000db9184016200142d565b93620000f860c0620000f060a08601620014a4565b9401620014a4565b845190946001600160401b03821162000b1a5760005490600182811c92168015620013c1575b602083101462000c105781601f84931162001361575b50602090601f8311600114620012e557600092620012d9575b50508160011b916000199060031b1c1916176000555b8051906001600160401b03821162000b1a5760015490600182811c92168015620012ce575b602083101462000c105781601f8493116200126a575b50602090601f8311600114620011ec57600092620011e0575b50508160011b916000199060031b1c1916176001555b60078054336001600160a01b0319821681179092556040516001600160a01b0392909183167f8be0079c531659141344cd1fd0a4f28419497f9722a3daafe3b4186f6b6457e0600080a360016008556009805460ff191690556003601755670de0b6b3a764000060195567016345785d8a0000601a55610e10601c5561012c601d55601f80546001600160601b0319166102ee17905583821615620011d15750831615620011bf578051906001600160401b03821162000b1a57600d5490600182811c92168015620011b4575b602083101462000c105781601f84931162001153575b50602090601f8311600114620010d557600092620010c9575b50508160011b916000199060031b1c191617600d555b83516001600160401b03811162000b1a57600e54600181811c91168015620010be575b602082101462000c1057601f811162001058575b506020601f821160011462000fe857819293949560009262000fdc575b50508160011b916000199060031b1c191617600e555b82516001600160401b03811162000b1a57601054600181811c9116801562000fd1575b602082101462000c1057601f811162000f6b575b506020601f821160011462000efc578192939460009262000ef0575b50508160011b916000199060031b1c1916176010555b601e8054610100600160a81b03191660089290921b610100600160a81b03169190911790556023805462010000600160b01b03191660109290921b62010000600160b01b0316919091179055600b805460010190556040516200041581620013d1565b6040516200042381620013ed565b600681526521b7b6b6b7b760d11b6020820152815261177060208201526102586040820152600060608201526040516200045d81620013ed565b600881526714dd185b99185c9960c21b602082015260808201526011546801000000000000000081101562000b1a57600181018060115581101562000d1257601160005281518051909260008051602062007097833981519152916001600160401b03811162000b1a5760058402830154600181811c9116801562000ee5575b602082101462000c1057601f811162000e97575b506020601f821160011462000e1b578190608094959660009262000e0f575b50508160011b916000199060031b1c191617600585028401555b6020810151600585028401600181019190915560408201516002820155606082015160039091015501518051906001600160401b03821162000b1a5760046005850284010154600181811c9116801562000e04575b602082101462000c1057601f811162000db3575b50602090601f831160011462000d345791806005926004959460009262000d28575b50508160011b916000199060031b1c19161793020101555b600060266040516521b7b6b6b7b760d11b815260136006820152205560016024604051620005fb81620013d1565b62000667604051916200060e83620013ed565b60048352635261726560e01b9283602082015281526109c4602082015260fa6040820152600060608201526040516200064781620013ed565b6008815267115b9a185b98d95960c21b60208201526080820152620014b9565b604051908152601360048201522055600260246040516200068881620013d1565b620006db604051916200069b83620013ed565b60048352634570696360e01b9283602082015281526104b060208201526078604082015260006060820152620006d0620017cb565b6080820152620014b9565b604051908152601360048201522055604051620006f881620013d1565b62000702620017cb565b815261012c6020820152601e6040820152600060608201526040516200072881620013ed565b6008815267135e5d1a1a58d85b60c21b602082015260808201526011546801000000000000000081101562000b1a57600181018060115581101562000d1257601160005281518051909260008051602062007097833981519152916001600160401b03811162000b1a5760058402830154600181811c9116801562000d07575b602082101462000c1057601f811162000cb9575b506020601f821160011462000c3d578190608094959660009262000c31575b50508160011b916000199060031b1c191617600585028401555b6020810151600585028401600181019190915560408201516002820155606082015160039091015501518051906001600160401b03821162000b1a5760046005850284010154600181811c9116801562000c26575b602082101462000c1057601f811162000bbb575b50602090601f831160011462000b3c5791806005926004959460009262000b30575b50508160011b916000199060031b1c19161793020101555b60036029604051684c6567656e6461727960b81b8152601360098201522055604051602081014281524460408301523360601b606083015260548252608082019180831060018060401b0384111762000b1a57604083815290519091206014553360009081527f13da86008ba1c6922daee3e07db95305ef49ebced9f5467a0b8613fcc6b343e36020522054600a9060ff161562000ad9575b7fa49807205ce4d355092ef5a8a18f56e8913cf4a201fbe287825b095693c21775806000528160205260406000203360005260205260ff604060002054161562000a96575b507f9f2df0fed2c77648de5860a4cc508cd0818c85b8b8a1ab4ceeef8d981c8956a6806000528160205260406000203360005260205260ff604060002054161562000a53575b507ff18246d2e788c2a885ec6aeee43fc7c89077b8b7a1e52e99f27f5889e429e2f590816000528060205260406000203360005260205260ff604060002054161562000a10575b6158848381620017f38239f35b816000526020526040600020336000526020526040600020600160ff198254161790553390339060008051602062007077833981519152600080a4388062000a03565b80600052816020526040600020336000526020526040600020600160ff198254161790553390339060008051602062007077833981519152600080a438620009bc565b80600052816020526040600020336000526020526040600020600160ff198254161790553390339060008051602062007077833981519152600080a43862000976565b60008052806020526040600020336000526020526040600020600160ff1982541617905533336000600080516020620070778339815191528180a462000931565b634e487b7160e01b600052604160045260246000fd5b01519050388062000880565b9060046005860285010160005260206000209160005b601f198516811062000ba25750926005926001926004969583601f1981161062000b88575b505050811b01930201015562000898565b015160001960f88460031b161c1916905538808062000b77565b9192602060018192868501518155019401920162000b52565b6004600586028501016000526020600020601f840160051c8101916020851062000c05575b601f0160051c01905b81811062000bf857506200085e565b6000815560010162000be9565b909150819062000be0565b634e487b7160e01b600052602260045260246000fd5b90607f16906200084a565b015190503880620007db565b60058502840160005260206000209560005b601f198416811062000ca057509582916080959697600194601f1981161062000c86575b505050811b0160058502840155620007f5565b015160001960f88460031b161c1916905538808062000c73565b8282015188556001909701966020928301920162000c4f565b6005850284016000526020600020601f830160051c81016020841062000cff575b601f830160051c8201811062000cf2575050620007bc565b6000815560010162000cda565b508062000cda565b90607f1690620007a8565b634e487b7160e01b600052603260045260246000fd5b015190503880620005b5565b9060046005860285010160005260206000209160005b601f198516811062000d9a5750926005926001926004969583601f1981161062000d80575b505050811b019302010155620005cd565b015160001960f88460031b161c1916905538808062000d6f565b9192602060018192868501518155019401920162000d4a565b6004600586028501016000526020600020601f840160051c81016020851062000dfc575b601f830160051c8201811062000def57505062000593565b6000815560010162000dd7565b508062000dd7565b90607f16906200057f565b01519050388062000510565b60058502840160005260206000209560005b601f198416811062000e7e57509582916080959697600194601f1981161062000e64575b505050811b01600585028401556200052a565b015160001960f88460031b161c1916905538808062000e51565b8282015188556001909701966020928301920162000e2d565b6005850284016000526020600020601f830160051c81016020841062000edd575b601f830160051c8201811062000ed0575050620004f1565b6000815560010162000eb8565b508062000eb8565b90607f1690620004dd565b0151905038806200039c565b601060005260206000209060005b601f198416811062000f525750600193949583601f1981161062000f38575b505050811b01601055620003b2565b015160001960f88460031b161c1916905538808062000f29565b9091602060018192858a01518155019301910162000f0a565b60106000527f1b6847dc741a1b0cd08d278845f9d819d87b734759afb55fe2de5cb82a9ae672601f830160051c81016020841062000fc9575b601f830160051c8201811062000fbc57505062000380565b6000815560010162000fa4565b508062000fa4565b90607f16906200036c565b01519050388062000333565b600e60005260206000209060005b601f19841681106200103f575060019394959683601f1981161062001025575b505050811b01600e5562000349565b015160001960f88460031b161c1916905538808062001016565b9091602060018192858b01518155019301910162000ff6565b600e6000527fbb7b4a454dc3493923482f07822329ed19e8244eff582cc204f8554c3620c3fd601f830160051c810160208410620010b6575b601f830160051c82018110620010a957505062000316565b6000815560010162001091565b508062001091565b90607f169062000302565b015190503880620002c9565b600d60009081529350600080516020620070d783398151915291905b601f198416851062001137576001945083601f198116106200111d575b505050811b01600d55620002df565b015160001960f88460031b161c191690553880806200110e565b81810151835560209485019460019093019290910190620010f1565b600d600052909150600080516020620070d7833981519152601f840160051c810160208510620011ac575b90849392915b601f830160051c820181106200119c575050620002b0565b6000815585945060010162001184565b50806200117e565b91607f16916200029a565b60405163d92e233d60e01b8152600490fd5b63d92e233d60e01b8152600490fd5b015190503880620001b7565b600160009081529350600080516020620070f783398151915291905b601f19841685106200124e576001945083601f1981161062001234575b505050811b01600155620001cd565b015160001960f88460031b161c1916905538808062001225565b8181015183556020948501946001909301929091019062001208565b6001600052909150600080516020620070f7833981519152601f840160051c81019160208510620012c3575b90601f859493920160051c01905b818110620012b357506200019e565b60008155849350600101620012a4565b909150819062001296565b91607f169162000188565b0151905038806200014d565b60008080529350600080516020620070b783398151915291905b601f198416851062001345576001945083601f198116106200132b575b505050811b0160005562000163565b015160001960f88460031b161c191690553880806200131c565b81810151835560209485019460019093019290910190620012ff565b60008052909150600080516020620070b7833981519152601f840160051c810160208510620013b9575b90849392915b601f830160051c82018110620013a957505062000134565b6000815585945060010162001391565b50806200138b565b91607f16916200011e565b600080fd5b60a081019081106001600160401b0382111762000b1a57604052565b604081019081106001600160401b0382111762000b1a57604052565b601f909101601f19168101906001600160401b0382119082101762000b1a57604052565b919080601f84011215620013cc578251906001600160401b03821162000b1a576040519160209162001469601f8301601f191684018562001409565b818452828287010111620013cc5760005b8181106200149057508260009394955001015290565b85810183015184820184015282016200147a565b51906001600160a01b0382168203620013cc57565b6011546801000000000000000081101562000b1a5760018082018060115582101562000d125760116000908152835180516020946001600160401b039493916005909102600080516020620070978339815191520190858111620017b7578154938585811c95168015620017ac575b888610146200179857601f9485811162001750575b508790858311600114620016e1579180608094926004948792620016d5575b5050600019600383901b1c191690871b1781555b8789015186820155604089015160028201556060890151600382015501960151908151948511620016c15786548481811c91168015620016b6575b87821014620016a2578381116200165a575b5085928511600114620015f7579394508492919083620015eb575b50501b916000199060031b1c1916179055565b015192503880620015d8565b86815285812093958591601f198316915b888383106200163f575050501062001625575b505050811b019055565b015160001960f88460031b161c191690553880806200161b565b85870151885590960195948501948793509081019062001608565b8782528682208480880160051c82019289891062001698575b0160051c019085905b8281106200168c575050620015bd565b8381550185906200167c565b9250819262001673565b634e487b7160e01b82526022600452602482fd5b90607f1690620015ab565b634e487b7160e01b81526041600452602490fd5b0151905038806200155c565b8385528885208793929091601f198416875b8c82821062001739575050916004959391856080989694106200171f575b505050811b01815562001570565b015160001960f88460031b161c1916905538808062001711565b8385015186558b97909501949384019301620016f3565b8385528885208680850160051c8201928b86106200178e575b0160051c019087905b828110620017825750506200153d565b86815501879062001772565b9250819262001769565b634e487b7160e01b84526022600452602484fd5b94607f169462001528565b634e487b7160e01b83526041600452602483fd5b60405190620017da82620013ed565b60098252684c6567656e6461727960b81b602083015256fe608060408181526004918236101561001657600080fd5b600092833560e01c91826301ffc9a714613f585750816302bdd75514613ef757816302fa7c4714613e1c578163061886cd14613dc657816306fdde0314613d3f578163081812fc14613d1f5781630951984d14613ce7578163095ea7b314613b795781630c4ad45b14613b5a5781630cbf54c814613b3b5781631581b60014613b0e5781631c06adcd14613ae65781631cfff51b14613ac257816323b872dd14613a9d578163248a9ca314613a72578163250aeeb714613a19578163275b1efb146139d15781632a55205a1461397f5781632cb2f52e146138c95781632e17de78146137675781632e93be30146136d65781632f2ff15d1461363857816336568abe146135a65781633ab1a494146135145781633af32abf146118285781633b8105b3146133085781633ccfd60b1461327f5781633f244f041461325757816342842e0e1461322357816343508b05146130a3578163439766ce1461305a5781634542fc461461303b578163484b973c14612f285781634d3554c314612d05578163512d5c6114612ce85781635183022714612cc457816351c7115b14612ca7578163521c46d814612c5a578163548db17414612ba1578163555ec78b14612b4057816355f804b314612a425781635c975abb14612a1e5781636352211e146129ed57816363a599a4146129c6578163694d9778146118665781636a6278421461287a5781636c0360eb146127ab57816370a0823114612715578163715018a6146126ca57816375b238fc146126a1578163771282f61461268257816378bc0301146125135781637f6497831461242957838263819d4cc61461239357508163868ff4a2146121975781638980f11f146120a75781638cdb026d1461203a5781638d2c448814611fa45781638d63a27214611d395781638da5cb5b14611d105781638ecad72114611cf45781639105281614611cb957816391d1485414611c735781639222800614611c4f578163938e3d7b14611add5781639470fc93146119f657816395d89b4114611943578163969ce9cf1461189e57816398a8cffe146118665781639b19251a14611828578163a0484dda146117e2578163a04a6ac8146117c3578163a217fddf146117a8578163a22cb465146116d9578163a30c405514611689578163a475b5dd14611623578163a694fc3a1461153a578163ae1a01a21461148d578163b33712c514611443578163b88d4fde146113b8578163bb9391a114611393578163c078855514610687578163c0e7274014610722578163c212779314611238578163c73d7c7b1461112d578163c87b56dd146110f9578163cbc85d6f14610fa1578163d12f743a14610f7d578163d2acd13d14610d60578163d539139314610d37578163d547741f14610d07578163d5abeb0114610cea578163d756985b14610ccb578163d7af40e514610c73578163db2e21bc14610bd3578163dfe6b5d614610b4b578163e4b7fb7314610b0b578163e4dad1ee14610a8e578163e58306f914610764578163e8a3d48514610722578163e985e9c5146106d2578163eb54f9ec146106b3578163f0a5242414610687578163f2fde38b146105d2578163f90adccc14610576578163faf5316914610554578163fe67a54b146104ec575063ff6e36ed146104cb57600080fd5b346104e857816003193601126104e8576020906017549051908152f35b5080fd5b905034610550578260031936011261055057610506614508565b601e549160ff83161561054357505060ff1916601e557fa0e92984607195c326795751263414ee1074526323552e694c90ef2b99ae3f298180a180f35b516334dc687f60e11b8152fd5b8280fd5b8390346104e85760203660031901126104e85761056f614508565b3560175580f35b5050346104e85760203660031901126104e8576020916001600160a01b0361059c614020565b168152601583528181205460ff16156105cc576105c4908260175491601686522054906152a1565b905b51908152f35b906105c6565b905034610550576020366003190112610550576105ed614020565b906105f6614508565b6001600160a01b03918216928315610635575050600780546001600160a01b031981168417909155166000805160206156cf833981519152600080a380f35b906020608492519162461bcd60e51b8352820152602660248201527f4f776e61626c653a206e6577206f776e657220697320746865207a65726f206160448201526564647265737360d01b6064820152fd5b905034610550576020366003190112610550578160209360ff9235815284805220541690519015158152f35b5050346104e857816003193601126104e857602090601b549051908152f35b5050346104e857806003193601126104e8576020916106ef614020565b826106f8614036565b9260018060a01b03809316815260058652209116600052825260ff81600020541690519015158152f35b5050346104e857816003193601126104e85780516107609161074e8261074781614279565b03836143e0565b5191829160208352602083019061409d565b0390f35b839150346104e857826003193601126104e85761077f614020565b926024938435906000805160206156ef8339815191529586600052602096600a88528460002033600052885260ff856000205416156108da57505081156108cb57600c936103e86107d1848754614f2d565b116108bd5750600b805490966001600160a01b038316959192909190875b8581106108185750505060008051602061580f833981519152949596508351928352820152a280f35b6108b8908a896000805160206156af8339815191528a808e610838614f3a565b918291875497610848898d614bc9565b600181540190556108598c54614b0a565b8c5587815260128d522055600361086f82614473565b500161087b8154614b0a565b905561088f610889866150b7565b86614db8565b6108b061089b82614473565b5083519384938452808d8501528301906142e3565b0390a3614b0a565b6107ef565b835163c30436e960e01b8152fd5b50505163524f409b60e01b8152fd5b9250939450506108e9336154cf565b9082516108f5816143c5565b60428152868101916060368437815115610a7a57603083538151600190811015610a6657607860218401536041905b8082116109fb5750506109cd5760486109c9959385936109b1936109a2975197889376020b1b1b2b9b9a1b7b73a3937b61d1030b1b1b7bab73a1604d1b8d8601526109798d825192839160378901910161407a565b8401917001034b99036b4b9b9b4b733903937b6329607d1b60378401525180938684019061407a565b010360288101865201846143e0565b5194859462461bcd60e51b865285015283019061409d565b0390fd5b60648688878188519362461bcd60e51b855284015282015260008051602061562f8339815191526044820152fd5b9091600f81166010811015610a52576f181899199a1a9b1b9c1cb0b131b232b360811b901a610a2a84866154be565b53881c918015610a3e576000190190610924565b8760118a634e487b7160e01b600052526000fd5b8860328b634e487b7160e01b600052526000fd5b86603289634e487b7160e01b600052526000fd5b85603288634e487b7160e01b600052526000fd5b839150346104e857610a9f36614455565b90959193610aab614508565b60ff601e5416610afd575094610af7917fd19188be05e6ddc5a5158014d33ce7d5ce58bdb3b168f1f6760891d7ec6f097195968460195585601a5582601c55601d555193849384615434565b0390a180f35b82516334dc687f60e11b8152fd5b8383346104e857816003193601126104e857600c54916103e8928303928311610b38576020838351908152f35b634e487b7160e01b815260118452602490fd5b828434610bd05780600319360112610bd057600c54916103e891838303928311610bbd575060e0935060115460ff600f541660ff602354169160ff601854169360ff601e541695815197885260208801528601521515606085015215156080840152151560a0830152151560c0820152f35b634e487b7160e01b815260118552602490fd5b80fd5b905034610550578260031936011261055057610bed614508565b610bf5614b73565b47908115610c655760018060a01b0390848080808686600754165af1610c196148d5565b5015610c5757507f23d6711a1d031134a36921253c75aa59e967d38e369ac625992824315e204f2091602091600754169351908152a2600160085580f35b83516312171d8360e31b8152fd5b825163043f9e1160e41b8152fd5b828434610bd0576020366003190112610bd05750813591601154831015610cbd57506105c4826003610cb46002610cab602097614473565b50015492614473565b500154906152a1565b905163511785ad60e01b8152fd5b5050346104e857816003193601126104e8576020906019549051908152f35b5050346104e857816003193601126104e857602090516103e88152f35b91905034610550573660031901126104e857610d3490610d25614036565b90610d2e614508565b35614492565b80f35b5050346104e857816003193601126104e857602090516000805160206156ef8339815191528152f35b9190503461055057602080600319360112610f795782356001600160401b038111610f7557610d92903690850161418a565b929091610d9d614b73565b60ff93846023541615610f65578015610f555760148111610f4557909386935b828510610dcd5787600160085580f35b610ddd8584839a9798999a61535a565b3593610de8856148b8565b15610f3657336001600160a01b03610dff876145a7565b1603610f275784865287805282818720541615610f185784865287805280862060ff1981541690556021885285818120553386526022885280862097865b895480821015610f04578790610e53838d61404c565b929054600393841b1c14610e71575050610e6c90614b0a565b610e3d565b60009c9b9397969a95999c989498198101908111610ef157610ece92610eb08593610ea4610ec994610ee79a999861404c565b9054911b1c918461404c565b90919082549060031b91821b91600019901b1916179055565b6155ee565b339060008051602061566f8339815191528b80a3614b0a565b9394909194610dbd565b634e487b7160e01b8d5260118c5260248dfd5b50509392969094610ee79296999850610ece565b51630a49bbc360e21b81528890fd5b516359dc379f60e01b81528890fd5b5163224a1b1160e11b81528890fd5b8251633a4733d960e11b81528690fd5b825163521299a960e01b81528690fd5b825163a3df9bcf60e01b81528690fd5b8480fd5b8380fd5b5050346104e857816003193601126104e85760209060ff6018541690519015158152f35b839150346104e85760209283600319360112610550576001600160401b03908235828111610f7557610fd6903690850161415d565b939092610fe1614508565b60ff600f5416156110ea5784116110d7575061100783611002600d546141ba565b614d10565b8394601f841160011461105c5750610af79083859660008051602061578f8339815191529691611051575b508460011b906000198660031b1c191617600d555b5192839283615332565b905083013587611032565b94601f198416600d86528686209686905b8282106110be57505095610af792918560008051602061578f8339815191529798106110a4575b5050600184811b01600d55611047565b840135600019600387901b60f8161c191690558680611094565b838601358955600190980197928301929081019061106d565b634e487b7160e01b855260419052602484fd5b509051631659379160e31b8152fd5b828434610bd0576020366003190112610bd0575061111a61076092356152ae565b905191829160208352602083019061409d565b9190503461055057602036600319011261055057611149614011565b91611152614508565b8215159260235461ff008560081b169061ff001916176023556000146111ba575060008051602061568f8339815191529160209161118e614b2f565b600160ff19600954161760095560008051602061576f833981519152838251338152a15b51908152a180f35b6009549060ff8216156111fe57509160209160008051602061568f8339815191529360ff191660095560008051602061564f833981519152838251338152a16111b2565b606490602084519162461bcd60e51b8352820152601460248201527314185d5cd8589b194e881b9bdd081c185d5cd95960621b6044820152fd5b90503461055057602080600319360112610f795781356001600160401b038111610f7557611269903690840161418a565b919092611274614b73565b60ff92836023541615611384578015611375576014811161136657865b8181106112a15787600160085580f35b6112ac81838861535a565b356112b6816148b8565b1561135657336001600160a01b036112cd836145a7565b16036113465780895284805285888a205416611336579081611331928a52858052888a20600160ff198254161790556021865242898b2055338a5260228652611318818a8c206155cb565b33906000805160206157af8339815191528b80a3614b0a565b611291565b87516316e9ad8f60e01b81528490fd5b87516359dc379f60e01b81528490fd5b875163224a1b1160e11b81528490fd5b508451633a4733d960e11b8152fd5b50845163521299a960e01b8152fd5b50845163a3df9bcf60e01b8152fd5b5050346104e857816003193601126104e85780516107609161074e82610747816141f4565b8390346104e85760803660031901126104e8576113d3614020565b906113dc614036565b6064359290604435906001600160401b03851161143f573660238601121561143f5761141761143a94866024610d349836930135910161441e565b9261142a61142584336146cb565b6145f6565b611435838383614793565b6149f9565b6146ab565b8580fd5b90503461055057826003193601126105505761145d614508565b6009549060ff8216156111fe575060ff19166009555133815260008051602061564f83398151915290602090a180f35b828434610bd05760209081600319360112610bd05782906001600160a01b036114b4614020565b16815260228352818120908251808584549182815201908194845286842090845b81811061152657505050816114eb9103826143e0565b83519485948186019282875251809352850193925b82811061150f57505050500390f35b835185528695509381019392810192600101611500565b8254845292880192600192830192016114d5565b9190503461055057602080600319360112610f795782359261155a614b73565b60ff60235416156116155761156e846148b8565b156116075761157c846145a7565b336001600160a01b03909116036115f95783855281805260ff83862054166115eb57506115cf9160228492838752808052828720600160ff198254161790556021815242838820553387525284206155cb565b33906000805160206157af8339815191528380a3600160085580f35b82516316e9ad8f60e01b8152fd5b82516359dc379f60e01b8152fd5b825163224a1b1160e11b8152fd5b825163a3df9bcf60e01b8152fd5b90503461055057826003193601126105505761163d614508565b600f549160ff831661167c5760ff198316600117600f55837f08775102fde7505699b9d1e2b921e3786c1b5c7b2aec306add2b484a8ef0cbac8180a180f35b5163a89ac15160e01b8152fd5b828434610bd05780600319360112610bd05760115491815b8381106116b2576020838351908152f35b916116ce6116d49160016116c586614473565b50015490614f2d565b92614b0a565b6116a1565b919050346105505780600319360112610550576116f4614020565b90602435918215158093036117a3576001600160a01b03169233841461176557503384526005602052808420836000526020528060002060ff1981541660ff8416179055519081527f17307eab39ab6107e8899845ad3d59bd9653f200f220920489ca2b5937696c3160203392a380f35b6020606492519162461bcd60e51b8352820152601960248201527822a9219b99189d1030b8383937bb32903a379031b0b63632b960391b6044820152fd5b600080fd5b5050346104e857816003193601126104e85751908152602090f35b5050346104e857816003193601126104e857602090601a549051908152f35b5050346104e857816003193601126104e85760209060ff601e54161590811561180e575b519015158152f35b905061181f601b54601c5490614f2d565b42101590611806565b5050346104e85760203660031901126104e85760209160ff9082906001600160a01b03611853614020565b1681526015855220541690519015158152f35b5050346104e85760203660031901126104e85760209181906001600160a01b0361188e614020565b1681526016845220549051908152f35b90508234610bd0576020366003190112610bd057813590601154821015610bd05750611928926118d061076092614473565b50928151936118ea856118e381846142e3565b03866143e0565b60018101549260028201549061191560038401549361190e835180978193016142e3565b03856143e0565b805197889760a0895260a089019061409d565b9460208801528601526060850152838203608085015261409d565b828434610bd05780600319360112610bd05750805160009160018054611968816141ba565b808552908281169081156119ce5750600114611990575b505061074e826107609403836143e0565b93508060005260209384600020916000925b8284106119bb5750505082019092019161074e8261197f565b80548685018801529286019281016119a2565b610760965061074e93506020915091859260ff191682840152151560051b820101945061197f565b905034610550578260031936011261055057601154906001600160401b038211611aca57508151600593906020611a3184871b8201836143e0565b8382528082019384601185528285208886925b848410611aa4575050505050845194818601928287525180935282818701971b8601019392955b828710611a785785850386f35b909192938280611a94600193603f198a820301865288516140f7565b9601920196019592919092611a6b565b9085600192611ab6859a98999a614aa1565b815201920192019190899096959496611a44565b634e487b7160e01b845260419052602483fd5b839150346104e85760209283600319360112610550576001600160401b03908235828111610f7557611b12903690850161415d565b939092611b1d614508565b84116110d75750611b2f600e546141ba565b601f8111611c08575b508394601f8411600114611b8d5750610af7908385966000805160206157ef8339815191529691611b82575b508460011b906000198660031b1c191617600e555192839283615332565b905083013587611b64565b94601f198416600e86528686209686905b828210611bef57505095610af79291856000805160206157ef833981519152979810611bd5575b5050600184811b01600e55611047565b840135600019600387901b60f8161c191690558680611bc5565b8386013589556001909801979283019290810190611b9e565b600e60005285600020601f850160051c810191878610611c45575b601f0160051c01905b818110611c395750611b38565b60008155600101611c2c565b9091508190611c23565b5050346104e857816003193601126104e85760209060ff601e541690519015158152f35b90503461055057816003193601126105505781602093611c91614036565b92358152600a8552209060018060a01b0316600052825260ff81600020541690519015158152f35b5050346104e857816003193601126104e857602090517ff18246d2e788c2a885ec6aeee43fc7c89077b8b7a1e52e99f27f5889e429e2f58152f35b5050346104e857816003193601126104e85760209051600a8152f35b5050346104e857816003193601126104e85760075490516001600160a01b039091168152602090f35b919050346105505760a0366003190112610550578135916001600160401b0360243581811161143f57611d6f903690840161415d565b939091606435608435828111611fa057611d8c903690870161415d565b919095611d97614508565b601154891015611f92576003611dac8a614473565b5001548210611f8457611dbe89614473565b50848911611f715780611ddc8a611dd68594546141ba565b83614d64565b898c8d601f8311600114611f085791611efd575b508a60011b906000198c60031b1c19161781555b60019360443585830155600282015501938311611eea5750908291611e3582611e2f8a9796546141ba565b85614d64565b89601f8311600114611e8057829182916020998d94611e75575b50501b916000199060031b1c19161790555b519384928337810160138152030190205580f35b013592503880611e4f565b601f92919219821697848c52602091828d20928d905b8b8210611ed05750508360209a10611eb6575b505050811b019055611e61565b0135600019600384901b60f8161c19169055388080611ea9565b8284013585558c9950938601939182019190810190611e96565b634e487b7160e01b8a5260419052602489fd5b905088013538611df0565b83815260208082209391601f198316915b8d838310611f535750505010611f39575b505060018a811b018155611e04565b89013560001960038d901b60f8161c191690553880611f2a565b8501358655889750600190950194938401938f935090810190611f19565b634e487b7160e01b8b526041825260248bfd5b8451633bfc66bf60e11b8152fd5b845163255b382160e01b8152fd5b8880fd5b90503461055057611fb436614455565b611fc2959395949194614508565b601e549160ff831661202c5750916001869492608096947fa832766a05f1bd0298b0268308621777cfe1e4eea23afe7c06beea79bc6ddd2d9860195583601a5585601c55601d5542601b5560ff191617601e5581519384526020840152820152426060820152a180f35b84516334dc687f60e11b8152fd5b828434610bd0576020366003190112610bd0578235906001600160401b038211610bd05736602383011215610bd05750602061208381948360246120959536930135910161441e565b8184519382858094519384920161407a565b81016013815203019020549051908152f35b9050346105505781600319360112610550576120c1614020565b602435906120cd614508565b6001600160a01b0390811692831561218957602083918360075416906121048851948593849363a9059cbb60e01b85528401614142565b038189885af1801561217f57612148575b507faca8fb252cde442184e5f10e0f2e6e4029e8cd7717cae63559079610702436aa91602091600754169451908152a380f35b6020813d8211612177575b81612160602093836143e0565b8101031261143f575180151503610f755738612115565b3d9150612153565b85513d88823e3d90fd5b845163e6c4247b60e01b8152fd5b8383346104e85760209081600319360112610550578335916121b7614b2f565b60ff60235460081c16612383576121cc614b73565b60ff6018541615612373573384526015815260ff82852054161561236357821561235357338452601681526122048383862054614f2d565b6017541061234357600c946103e861221d858854614f2d565b116123355750600b90815491855b85811061229a5750509060008051602061580f83398151915292913386526016815282862061225b868254614f2d565b905582518581527fce77e469b386be007f957632f6f65216f2e74c5daa303aff682e8296f628d010823392a282519485528401523392a2600160085580f35b612330906122a6614f3a565b8354906122b38233614bc9565b600185540185556122c48b54614b0a565b8b55818a526012865280888b205560036122dd82614473565b50016122e98154614b0a565b90556122fd6122f7836150b7565b83614db8565b6000805160206156af83398151915261231582614473565b509189519081528988820152806108b033948c8301906142e3565b61222b565b825163c30436e960e01b8152fd5b815163b3adbb5760e01b81528590fd5b815163524f409b60e01b81528590fd5b8151630b094f2760e31b81528590fd5b81516302664e7160e11b81528590fd5b815163250440b360e01b81528590fd5b929150346124255781600319360112612425576123ae614020565b6123b6614508565b6007546001600160a01b039081169116803b15610f755760648592855196879384926323b872dd60e01b84523088850152602484015260243560448401525af1801561241b57612404578380f35b6001600160401b038311611aca5750523880808380f35b82513d86823e3d90fd5b5050fd5b9050346105505760209182600319360112610f795781356001600160401b038111610f755761245b903690840161418a565b92612464614508565b831561250557855b848110612477578680f35b6001600160a01b038061249361248e84898861535a565b61536a565b16156124f55790816124f0926124ad61248e848a8961535a565b1689526015885260008051602061582f83398151915288878b20926001938460ff198254161790556124e361248e868c8b61535a565b16928851908152a2614b0a565b61246c565b845163d92e233d60e01b81528390fd5b825163521299a960e01b8152fd5b839150346104e85760209283600319360112610550576001600160401b03908235828111610f7557612548903690850161415d565b939092612553614508565b84116110d757506125656010546141ba565b601f811161263e575b508394601f84116001146125c35750610af79083859660008051602061570f83398151915296916125b8575b508460011b906000198660031b1c1916176010555192839283615332565b90508301358761259a565b94601f198416601086528686209686905b82821061262557505095610af792918560008051602061570f83398151915297981061260b575b5050600184811b01601055611047565b840135600019600387901b60f8161c1916905586806125fb565b83860135895560019098019792830192908101906125d4565b60108552858520601f850160051c810191878610612678575b601f0160051c01905b81811061266d575061256e565b858155600101612660565b9091508190612657565b5050346104e857816003193601126104e857602090600c549051908152f35b5050346104e857816003193601126104e8576020905160008051602061574f8339815191528152f35b8334610bd05780600319360112610bd0576126e3614508565b600780546001600160a01b0319811690915581906001600160a01b03166000805160206156cf8339815191528280a380f35b839150346104e85760203660031901126104e8576001600160a01b03612739614020565b169081156127565760208480858581526003845220549051908152f35b608490602085519162461bcd60e51b8352820152602960248201527f4552433732313a2061646472657373207a65726f206973206e6f7420612076616044820152683634b21037bbb732b960b91b6064820152fd5b5050346104e857816003193601126104e85780519082600d546127cd816141ba565b8085529060019081811690811561285257506001146127f9575b50505061074e826107609403836143e0565b600d8352602095507fd7b6990105719101dabeb77144f2a3385c8033acd3af97e9423a695e81ad1eb55b82841061283f57505050826107609461074e92820101946127e7565b8054868501880152928601928101612823565b610760975061074e9450602092508693915060ff191682840152151560051b820101946127e7565b90503461055057602036600319011261055057612895614020565b9161289e614b2f565b60ff60235460081c166129b9576128b3614b73565b6103e8600c5410156129ac576001600160a01b03831691821561299e576128d8614f3a565b9060036128e483614473565b50015460026128f284614473565b50015411156129905750906000805160206156af8339815191529161291a600b548096614bc9565b6001600b5401600b5561292e600c54614b0a565b600c5584865260126020528082872055600361294982614473565b50016129558154614b0a565b9055612963610889866150b7565b61298561296f82614473565b50835193849384528060208501528301906142e3565b0390a3600160085580f35b825163024e40fd60e41b8152fd5b905163d92e233d60e01b8152fd5b5163d05cb60960e01b8152fd5b5163250440b360e01b8152fd5b5050346104e857816003193601126104e85760209060ff60235460081c1690519015158152f35b828434610bd0576020366003190112610bd05750612a0d602092356145a7565b90516001600160a01b039091168152f35b5050346104e857816003193601126104e85760209060ff6009541690519015158152f35b839150346104e85760209283600319360112610550576001600160401b03908235828111610f7557612a77903690850161415d565b939092612a82614508565b84116110d75750612a9883611002600d546141ba565b8394601f8411600114612ae05750610af79083859660008051602061578f833981519152969161105157508460011b906000198660031b1c191617600d555192839283615332565b94601f198416600d86528686209686905b828210612b2757505095610af792918560008051602061578f8339815191529798106110a4575050600184811b01600d55611047565b8386013589556001909801979283019290810190612af1565b90503461055057602036600319011261055057803590612b5e614a74565b50612b68826148b8565b156116075750612b888284612b8e93610760965260126020522054614473565b50614aa1565b90519182916020835260208301906140f7565b9190503461055057602080600319360112610f795782356001600160401b038111610f7557612bd3903690850161418a565b93612bdc614508565b8415612c4c5750845b848110612bf0578580f35b612c47906001600160a01b0380612c0b61248e848a8861535a565b16885260158552858820805460ff19169055612c2b61248e83898761535a565b1660008051602061582f8339815191528587518a8152a2614b0a565b612be5565b835163521299a960e01b8152fd5b828434610bd0576020366003190112610bd057508135601154811015612c9957602092506002612c8e6003610cab84614473565b500154119051908152f35b50516363df817160e01b8152fd5b5050346104e857816003193601126104e8576020906105c4615391565b5050346104e857816003193601126104e85760209060ff600f541690519015158152f35b5050346104e857816003193601126104e8576020906105c461544a565b916020915036600319018213610f7957823591612d20614b2f565b60ff60235460081c16612f1857612d35614b73565b60ff601e5416158015612f0d575b612efd5782158015612ef3575b612ee357600c906103e8612d65858454614f2d565b11612ed357612d72615391565b94612d7d858761537e565b90813410612ec55750600b92835493885b878110612e2957505050803411612df9575b7f663bd6898d9847b7aab9a13504609b487bfbc6e8dccdbd1c4435753941825797612de360008051602061580f8339815191529697865191829133958b84615434565b0390a282519485528401523392a2600160085580f35b86808080612e0785346152a1565b818115612e20575b3390f1612da05783513d88823e3d90fd5b506108fc612e0f565b612ec0908a886000805160206156af833981519152612e46614f3a565b8083885495612e558733614bc9565b60018a54018a55612e668b54614b0a565b8b5586815260128d5220556003612e7c82614473565b5001612e888154614b0a565b9055612e9c612e96856150b7565b85614db8565b612ea581614473565b50906108b084519283928352858d84015233958301906142e3565b612d8e565b845163cd1c886760e01b8152fd5b825163c30436e960e01b81528590fd5b815163524f409b60e01b81528490fd5b50600a8311612d50565b81516334dc687f60e11b81528490fd5b50601b544210612d43565b815163250440b360e01b81528490fd5b905034610550578160031936011261055057612f42614020565b91602435612f4e614508565b6103e8600c54101561302d576001600160a01b03841692831561301f57601154821015613011576003612f8083614473565b5001546002612f8e84614473565b50015411156129905750906000805160206156af83398151915291612fb6600b548096614bc9565b6001600b5401600b55612fca600c54614b0a565b600c55848652601260205280828720556003612fe582614473565b5001612ff18154614b0a565b9055612fff610889866150b7565b61300b61296f82614473565b0390a380f35b825163511785ad60e01b8152fd5b825163d92e233d60e01b8152fd5b505163d05cb60960e01b8152fd5b5050346104e857816003193601126104e857602090601d549051908152f35b5050346104e857816003193601126104e857602060008051602061576f83398151915291613086614508565b61308e614b2f565b600160ff19600954161760095551338152a180f35b839150346104e857826003193601126104e8576130be614020565b926024356130ca614b2f565b60ff60235460081c16613215576130df614b73565b8015801561320b575b6131fd57600c946103e86130fd838854614f2d565b116131ee576001600160a01b0381169384156131e05750600b805491865b848110613149575050835192835250602082015260008051602061580f8339815191529190a2600160085580f35b6131db9089886000805160206156af8339815191528b613167614f3a565b885494613174868a614bc9565b60018a54018a556131858154614b0a565b9055848252808c60209360128552205560036131a082614473565b50016131ac8154614b0a565b90556131ba610889866150b7565b6108b06131c682614473565b508d805194859485528401528d8301906142e3565b61311b565b835163d92e233d60e01b8152fd5b50505163c30436e960e01b8152fd5b505163524f409b60e01b8152fd5b50600a81116130e8565b505163250440b360e01b8152fd5b5050346104e85761143a610d349161323a366140c2565b91925192613247846143aa565b86845261142a61142584336146cb565b9050346105505760203660031901126105505760209282913581526012845220549051908152f35b9190503461055057826003193601126105505761329a614508565b6132a2614b73565b60235460101c6001600160a01b031680156132fa57479081156132eb578480809381935af16132cf6148d5565b50156132de5782600160085580f35b51631d42c86760e21b8152fd5b50505163043f9e1160e41b8152fd5b505163e6c4247b60e01b8152fd5b9190503461055057826003193601126105505760008051602061574f83398151915291828452602092600a8452828520338652845260ff83862054161561338c57847f886bf152398e89a7de17f229134a054c5448ada42007eaae5187b82753278be685856023549060ff8083161516809260ff191617602355519015158152a180f35b909293613398336154cf565b918351906133a5826143c5565b6042825286820192606036853782511561350157603084538251906001918210156134ee5790607860218501536041915b8183116134835750505061345457604861342b93859361343a936109c9975196879376020b1b1b2b9b9a1b7b73a3937b61d1030b1b1b7bab73a1604d1b8c8601526109798c825192839160378901910161407a565b010360288101855201836143e0565b5193849362461bcd60e51b8552840152602483019061409d565b606485878087519262461bcd60e51b8452830152602482015260008051602061562f8339815191526044820152fd5b909192600f811660108110156134db576f181899199a1a9b1b9c1cb0b131b232b360811b901a6134b385876154be565b53881c9280156134c8576000190191906133d6565b634e487b7160e01b825260118952602482fd5b634e487b7160e01b835260328a52602483fd5b634e487b7160e01b815260328852602490fd5b634e487b7160e01b815260328752602490fd5b9050346105505760203660031901126105505761352f614020565b90613538614508565b6001600160a01b0382169283156135995750506023805462010000600160b01b03191660109290921b62010000600160b01b03169190911790557f7560c42213a1d729912e2864a115883b3e527ba2f5813ecc26188d5ea8bcf4038280a280f35b5163d92e233d60e01b8152fd5b839150346104e857826003193601126104e8576135c1614036565b90336001600160a01b038316036135dd5790610d349135614492565b608490602085519162461bcd60e51b8352820152602f60248201527f416363657373436f6e74726f6c3a2063616e206f6e6c792072656e6f756e636560448201526e103937b632b9903337b91039b2b63360891b6064820152fd5b9050346105505781600319360112610550573590613654614036565b9061365d614508565b828452600a60209081528185206001600160a01b039093168086529290528084205460ff161561368b578380f35b828452600a6020528084208285526020528320600160ff1982541617905533917f2f8788117e7eff1d82e926ec794901d17c78024a50270940304540a733656f0d8480a43880808380f35b5050346104e857816003193601126104e8579060609160ff601e5416906136fb615391565b9115801593908461375c575b8015613744575b1561372457915b81519384526020840152820152f35b5061373e613737601b54601c5490614f2d565b42906152a1565b91613715565b50613754601b54601c5490614f2d565b42101561370e565b50601b544210613707565b828434610bd057602091826003193601126104e857833592613787614b73565b60ff60235416156138b95761379b846148b8565b156138a9576137a9846145a7565b336001600160a01b03909116036138995783835280805260ff8284205416156138895760229084845280805282842060ff19815416905560218152838381205533845252812091815b83548082101561387e578290613808838761404c565b929054600393841b1c1461382657505061382190614b0a565b6137f2565b93949293600019810190811161386b5761384f94959650610ec99291610ea4610eb0928661404c565b339060008051602061566f8339815191528380a3600160085580f35b634e487b7160e01b865260118752602486fd5b50509150915061384f565b8151630a49bbc360e21b81528590fd5b81516359dc379f60e01b81528590fd5b815163224a1b1160e11b81528590fd5b815163a3df9bcf60e01b81528590fd5b919050346105505780600319360112610550578135916024356001600160401b038111610f75576138fd903690830161415d565b929091613908614508565b613911856148b8565b156139715760ff600f54161561396357509061395d7fdb97328c83f32485a3581bd960425f69a2e03d66bbfdef66cb9d290d07e02964939261104761395736868661441e565b87614db8565b0390a280f35b9051631659379160e31b8152fd5b905163224a1b1160e11b8152fd5b828434610bd05781600319360112610bd05750601e54601f5460089190911c6001600160a01b03169061076090612710906139c5906001600160601b031660243561537e565b04925192839283614142565b828434610bd0576020366003190112610bd057508135916139f0614a74565b50601154831015613a0b5750612b8e612b8861076093614473565b90516363df817160e01b8152fd5b828434610bd057602092836003193601126104e8573581528280528160ff8183205416158015613a61575b15613a5157509051908152f35b6105cc91602185522054426152a1565b505060218352818082205415613a44565b9050346105505760203660031901126105505781602093600192358152600a85522001549051908152f35b8334610bd057610d34613aaf366140c2565b91613abd61142584336146cb565b614793565b5050346104e857816003193601126104e85760209060ff6023541690519015158152f35b9050346105505760203660031901126105505760209282913581526021845220549051908152f35b5050346104e857816003193601126104e857602354905160109190911c6001600160a01b03168152602090f35b5050346104e857816003193601126104e857602090601c549051908152f35b5050346104e857816003193601126104e8576020906011549051908152f35b905034610550578160031936011261055057613b93614020565b6024359290916001600160a01b0391908280613bae876145a7565b16941693808514613c9a57803314908115613c7b575b5015613c1357848652602052842080546001600160a01b03191683179055613beb836145a7565b167f8c5be1e5ebec7d5bd14f71427d1e84f3dd0314c0f7b2291e5b200ac8c7c3b9258480a480f35b6020608492519162461bcd60e51b8352820152603d60248201527f4552433732313a20617070726f76652063616c6c6572206973206e6f7420746f60448201527f6b656e206f776e6572206f7220617070726f76656420666f7220616c6c0000006064820152fd5b90508652600560205281862033875260205260ff828720541638613bc4565b506020608492519162461bcd60e51b8352820152602160248201527f4552433732313a20617070726f76616c20746f2063757272656e74206f776e656044820152603960f91b6064820152fd5b5050346104e85760203660031901126104e85760209181906001600160a01b03613d0f614020565b1681526022845220549051908152f35b828434610bd0576020366003190112610bd05750612a0d602092356145ca565b5050346104e857816003193601126104e857805190828054613d60816141ba565b808552906001908181169081156128525750600114613d8b5750505061074e826107609403836143e0565b94508180526020948583205b828410613db357505050826107609461074e92820101946127e7565b8054868501880152928601928101613d97565b5050346104e857806003193601126104e857613de0614020565b6001600160a01b03168252602260205280822080546024359390841015610bd05750602092613e0e9161404c565b91905490519160031b1c8152f35b8383346104e857806003193601126104e857613e36614020565b6024356001600160601b03811690819003610f7957613e53614508565b6103e88111613ee7576001600160a01b038216918215613ed757601e8054610100600160a81b03191660089290921b610100600160a81b0316919091179055601f80546001600160601b03191682179055825191825260208201529192507f8039bd6e4e7dba001c8840eb2e118d9d131246faa7d0d04335f7305127ec0b1091a180f35b835163d92e233d60e01b81528690fd5b825163c2b03beb60e01b81528590fd5b5050346104e85760203660031901126104e85760207fb7ca260b52317206c15b3b393b9437b88d5a6495ef4cc56fdc039f65db3036e591613f36614011565b613f3e614508565b15159060ff196018541660ff83161760185551908152a180f35b849134610550576020366003190112610550573563ffffffff60e01b8116809103610550576020925063152a902d60e11b8114908115613f9a575b5015158152f35b637965db0b60e01b811491508115613fb4575b5083613f93565b632483248360e11b811491508115613fce575b5083613fad565b6380ac58cd60e01b811491508115614000575b8115613fef575b5083613fc7565b6301ffc9a760e01b14905083613fe8565b635b5e139f60e01b81149150613fe1565b6004359081151582036117a357565b600435906001600160a01b03821682036117a357565b602435906001600160a01b03821682036117a357565b80548210156140645760005260206000200190600090565b634e487b7160e01b600052603260045260246000fd5b60005b83811061408d5750506000910152565b818101518382015260200161407d565b906020916140b68151809281855285808601910161407a565b601f01601f1916010190565b60609060031901126117a3576001600160a01b039060043582811681036117a3579160243590811681036117a3579060443590565b61413f916080614110835160a0845260a084019061409d565b92602081015160208401526040810151604084015260608101516060840152015190608081840391015261409d565b90565b6001600160a01b039091168152602081019190915260400190565b9181601f840112156117a3578235916001600160401b0383116117a357602083818601950101116117a357565b9181601f840112156117a3578235916001600160401b0383116117a3576020808501948460051b0101116117a357565b90600182811c921680156141ea575b60208310146141d457565b634e487b7160e01b600052602260045260246000fd5b91607f16916141c9565b60105460009291614204826141ba565b90818152600192838116908160001461425e575060011461422457505050565b9092935060106000526020928360002092846000945b83861061424a5750505050010190565b80548587018301529401938590820161423a565b91935050602093945060ff191683830152151560051b010190565b600e5460009291614289826141ba565b90818152600192838116908160001461425e57506001146142a957505050565b90929350600e6000526020928360002092846000945b8386106142cf5750505050010190565b8054858701830152940193859082016142bf565b90600092918054916142f4836141ba565b9182825260019384811690816000146143565750600114614316575b50505050565b90919394506000526020928360002092846000945b838610614342575050505001019038808080614310565b80548587018301529401938590820161432b565b9294505050602093945060ff191683830152151560051b01019038808080614310565b60a081019081106001600160401b0382111761439457604052565b634e487b7160e01b600052604160045260246000fd5b602081019081106001600160401b0382111761439457604052565b608081019081106001600160401b0382111761439457604052565b601f909101601f19168101906001600160401b0382119082101761439457604052565b6001600160401b03811161439457601f01601f191660200190565b92919261442a82614403565b9161443860405193846143e0565b8294818452818301116117a3578281602093846000960137010152565b60809060031901126117a35760043590602435906044359060643590565b6011548110156140645760116000526005602060002091020190600090565b90600091808352600a602052604083209160018060a01b03169182845260205260ff6040842054166144c357505050565b808352600a602052604083208284526020526040832060ff1981541690557ff6391f5c32d9c69d2a47ea670b442974b53935d1edc7fd64eb21e047a839171b339380a4565b6007546001600160a01b0316330361451c57565b606460405162461bcd60e51b815260206004820152602060248201527f4f776e61626c653a2063616c6c6572206973206e6f7420746865206f776e65726044820152fd5b1561456757565b60405162461bcd60e51b8152602060048201526018602482015277115490cdcc8c4e881a5b9d985b1a59081d1bdad95b88125160421b6044820152606490fd5b6000908152600260205260409020546001600160a01b031661413f811515614560565b6145db6145d6826148b8565b614560565b6000908152600460205260409020546001600160a01b031690565b156145fd57565b60405162461bcd60e51b815260206004820152602d60248201527f4552433732313a2063616c6c6572206973206e6f7420746f6b656e206f776e6560448201526c1c881bdc88185c1c1c9bdd9959609a1b6064820152608490fd5b60809060208152603260208201527f4552433732313a207472616e7366657220746f206e6f6e20455243373231526560408201527131b2b4bb32b91034b6b83632b6b2b73a32b960711b60608201520190565b156146b257565b60405162461bcd60e51b8152806109c960048201614658565b906001600160a01b0380806146df846145a7565b16931691838314938415614712575b5083156146fc575b50505090565b614708919293506145ca565b16143880806146f6565b909350600052600560205260406000208260005260205260ff6040600020541692386146ee565b1561474057565b60405162461bcd60e51b815260206004820152602560248201527f4552433732313a207472616e736665722066726f6d20696e636f72726563742060448201526437bbb732b960d91b6064820152608490fd5b906147bb916147a1846145a7565b6001600160a01b0393918416928492909183168414614739565b16918215614867576000908482526020805260409060ff828420541661485657906148018460008051602061572f83398151915294936147fa896145a7565b1614614739565b8582526004602090815281832080546001600160a01b031990811690915585845260038252828420805460001901905586845282842080546001019055878452600290915290822080549091168517905580a4565b81516316e9ad8f60e01b8152600490fd5b60405162461bcd60e51b8152602060048201526024808201527f4552433732313a207472616e7366657220746f20746865207a65726f206164646044820152637265737360e01b6064820152608490fd5b6000908152600260205260409020546001600160a01b0316151590565b3d15614900573d906148e682614403565b916148f460405193846143e0565b82523d6000602084013e565b606090565b9091600091803b156149f0576149506020918493604051948580948193630a85bd0160e11b9a8b8452336004850152846024850152604484015260806064840152608483019061409d565b03926001600160a01b03165af1908290826149a8575b505061499a576149746148d5565b805190816149955760405162461bcd60e51b8152806109c960048201614658565b602001fd5b6001600160e01b0319161490565b909192506020813d82116149e8575b816149c4602093836143e0565b810103126104e85751906001600160e01b031982168203610bd05750903880614966565b3d91506149b7565b50505050600190565b91926000929190813b15614a6a57602091614a4f9185604051958680958194630a85bd0160e11b9b8c845233600485015260018060a01b038095166024850152604484015260806064840152608483019061409d565b0393165af1908290826149a857505061499a576149746148d5565b5050505050600190565b60405190614a8182614379565b606060808382815260006020820152600060408201526000838201520152565b9060046080604051614ab281614379565b614b068195604051614acf81614ac881856142e3565b03826143e0565b8352600181015460208401526002810154604084015260038101546060840152614aff60405180968193016142e3565b03846143e0565b0152565b6000198114614b195760010190565b634e487b7160e01b600052601160045260246000fd5b60ff60095416614b3b57565b60405162461bcd60e51b815260206004820152601060248201526f14185d5cd8589b194e881c185d5cd95960821b6044820152606490fd5b600260085414614b84576002600855565b60405162461bcd60e51b815260206004820152601f60248201527f5265656e7472616e637947756172643a207265656e7472616e742063616c6c006044820152606490fd5b90604091825192614bd9846143aa565b60008085526001600160a01b038316918215614c8257614c01614bfb866148b8565b15614cc5565b8482526020805260ff8183205416614c7257938092614c7096949261143a96614c2c614bfb856148b8565b828252600360209081528183208054600101905584835260029052812080546001600160a01b0319168317905560008051602061572f8339815191528180a4614905565b565b516316e9ad8f60e01b8152600490fd5b5162461bcd60e51b815260206004820181905260248201527f4552433732313a206d696e7420746f20746865207a65726f20616464726573736044820152606490fd5b15614ccc57565b60405162461bcd60e51b815260206004820152601c60248201527b115490cdcc8c4e881d1bdad95b88185b1c9958591e481b5a5b9d195960221b6044820152606490fd5b601f8111614d1c575050565b600090600d825260208220906020601f850160051c83019410614d5a575b601f0160051c01915b828110614d4f57505050565b818155600101614d43565b9092508290614d3a565b90601f8111614d7257505050565b600091825260208220906020601f850160051c83019410614dae575b601f0160051c01915b828110614da357505050565b818155600101614d97565b9092508290614d8e565b919091614dc4816148b8565b15614ed1576000818152600660209081526040822085519193929091906001600160401b038211614ebd57614dfd82611e2f85546141ba565b8490601f8311600114614e4b57906000805160206157cf833981519152969783614e40575b50508160011b916000199060031b1c19161790555b604051908152a1565b015190503880614e22565b9196601f198816848452868420935b818110614ea657509160019391896000805160206157cf833981519152999a9410614e8d575b505050811b019055614e37565b015160001960f88460031b161c19169055388080614e80565b929387600181928786015181550195019301614e5a565b634e487b7160e01b81526041600452602490fd5b60405162461bcd60e51b815260206004820152602e60248201527f45524337323155524953746f726167653a2055524920736574206f66206e6f6e60448201526d32bc34b9ba32b73a103a37b5b2b760911b6064820152608490fd5b91908201809211614b1957565b601454600b549060405191602083019182524260408401524460608401523360601b608084015260948301526094825260c082019180831060018060401b03841117614394576127109260405251902080601455066000908190601154925b838310614ff35750505060005b818110614fbf5760405163024e40fd60e41b8152600490fd5b6003614fca82614473565b5001546002614fd883614473565b50015411614fee57614fe990614b0a565b614fa6565b905090565b6150029060016116c585614473565b9182821061501a575b61501490614b0a565b91614f99565b600361502582614473565b500154600261503383614473565b500154111561500b579250505090565b600d5460009291615053826141ba565b916001908181169081156150a4575060011461506e57505050565b9091929350600d60005260209081600020906000915b85831061509357505050500190565b805485840152918301918101615084565b60ff191683525050811515909102019150565b600f5460ff161561510e5761413f60056150d260209361513f565b6040519384916150f36150e6838501615043565b918281519485920161407a565b0164173539b7b760d91b815203601a198101845201826143e0565b5060405161413f81614ac8816141f4565b8115615129570490565b634e487b7160e01b600052601260045260246000fd5b6000908072184f03e93ff9f4daa797ed6e38ed64bf6a1f0160401b80821015615293575b506904ee2d6d415b85acef8160201b80831015615284575b50662386f26fc1000080831015615275575b506305f5e10080831015615266575b5061271080831015615257575b506064821015615247575b600a8092101561523d575b600190816021818601956151d287614403565b966151e060405198896143e0565b8088526151ef601f1991614403565b01366020890137860101905b615207575b5050505090565b600019019083906f181899199a1a9b1b9c1cb0b131b232b360811b8282061a835304918215615238579190826151fb565b615200565b91600101916151bf565b91906064600291049101916151b4565b600491939204910191386151a9565b6008919392049101913861519c565b6010919392049101913861518d565b6020919392049101913861517b565b604093508104915038615163565b91908203918211614b1957565b6152b7816148b8565b156153205760ff600f54161561510e57806152d76145d6610747936148b8565b8060005260066020526152f46040600020604051938480926142e3565b6000604051615302816143aa565b5281511561530e575090565b6020915060056150d261413f9261513f565b60405163224a1b1160e11b8152600490fd5b90918060409360208452816020850152848401376000828201840152601f01601f1916010190565b91908110156140645760051b0190565b356001600160a01b03811681036117a35790565b81810292918115918404141715614b1957565b60ff601e5416158015615429575b615423576153af601b54426152a1565b601c54908181101561541b576153c8601d54809261511f565b91821561541257615406916153dc9161511f565b91615400601954916153fa601a54956153f587866152a1565b61511f565b9061537e565b906152a1565b81811015614fee575090565b50505060195490565b5050601a5490565b60195490565b50601b54421061539f565b6040919493926060820195825260208201520152565b60ff601e54161580156154b3575b6154ae57601b5461546981426152a1565b615476601d54809261511f565b9060018201809211614b1957615492615498916154a29361537e565b83614f2d565b91601c5490614f2d565b811061413f5750600090565b600090565b50601b544210615458565b908151811015614064570160200190565b60405190606082016001600160401b0381118382101761439457604052602a82526020820160403682378251156140645760309053815160019081101561406457607860218401536029905b80821161555d57505061552b5790565b606460405162461bcd60e51b8152602060048201526020602482015260008051602061562f8339815191526044820152fd5b9091600f811660108110156155b6576f181899199a1a9b1b9c1cb0b131b232b360811b901a61558c84866154be565b5360041c9180156155a157600019019061551b565b60246000634e487b7160e01b81526011600452fd5b60246000634e487b7160e01b81526032600452fd5b80549190600160401b8310156143945782610eb0916001614c709501815561404c565b80549081156156185760001991820191615608838361404c565b909182549160031b1b1916905555565b634e487b7160e01b600052603160045260246000fdfe537472696e67733a20686578206c656e67746820696e73756666696369656e745db9ee0a495bf2e6ff9c91a7834c1ba4fdd244a5e8aa4e537bd38aeae4b073aa0bd399ae365ab45a4803bca8e95718b4f1ff0915b48493d790b2525603c0a09205b88d23d9a60b7924fccc370e1e0c1ccf49989e3b2968cafaf7db7fc13bd13ffd8041fd7e4d7047a13bde415402e7278ad32792f9bdf46102a274181893cc948be0079c531659141344cd1fd0a4f28419497f9722a3daafe3b4186f6b6457e09f2df0fed2c77648de5860a4cc508cd0818c85b8b8a1ab4ceeef8d981c8956a6a67fa1d1d89c2d62b3f7fda41a9e2958cf2b076098afd5156de632e082b06ef2ddf252ad1be2c89b69c2b068fc378daa952ba7f163c4a11628f55a4df523b3efa49807205ce4d355092ef5a8a18f56e8913cf4a201fbe287825b095693c2177562e78cea01bee320cd4e420270b5ea74000d11b0c9f74754ebdbfc544b05a2586741b2fc379fad678116fe3d4d4b9a1a184ab53ba36b86ad0fa66340b1ab41ad7d2f41d944235f7c99290ca6f149e25aa6deb5397189be3882b8ddf71c51bbecf8e1a15aba9398e019f0b49df1a4fde98ee17ae345cb5f6b5e2c27f5033e8ce7905d981207a7d0b6c62cc46ab0be2a076d0298e4a86d0ab79882dbd01ac3737859f9fb6d992d2aee0ed338bb4c504a17fd3f67ae91a3135bc2ef947e308c41b2f93f9a76c1bf3444d22400a00cb9fe990e6abe9dbb333fda48859cfee864543da2646970667358221220138db18c23c8f8f0ab2299f156757a9a896eb4d297cd5156637bb723717b6cde64736f6c634300081300332f8788117e7eff1d82e926ec794901d17c78024a50270940304540a733656f0d31ecc21a745e3968a04e9570e4425bc18fa8019c68028196b546d1669c200c68290decd9548b62a8d60345a988386fc84ba6bc95484008f6362f93160ef3e563d7b6990105719101dabeb77144f2a3385c8033acd3af97e9423a695e81ad1eb5b10e2d527612073b26eecdfd717e6a320cf44b4afac2b0732d9fcbe2b7fa0cf6","opcodes":"PUSH1 0x80 DUP1 PUSH1 0x40 MSTORE CALLVALUE PUSH3 0x13CC JUMPI PUSH3 0x7117 DUP1 CODESIZE SUB DUP1 SWAP2 PUSH3 0x20 DUP3 DUP6 PUSH3 0x1409 JUMP JUMPDEST DUP4 CODECOPY DUP2 ADD SWAP1 PUSH1 0xE0 DUP2 DUP4 SUB SLT PUSH3 0x13CC JUMPI DUP1 MLOAD PUSH1 0x1 PUSH1 0x1 PUSH1 0x40 SHL SUB DUP2 GT PUSH3 0x13CC JUMPI DUP3 PUSH3 0x4F SWAP2 DUP4 ADD PUSH3 0x142D JUMP JUMPDEST PUSH1 0x20 DUP3 ADD MLOAD PUSH1 0x1 PUSH1 0x1 PUSH1 0x40 SHL SUB DUP2 GT PUSH3 0x13CC JUMPI DUP4 PUSH3 0x71 SWAP2 DUP5 ADD PUSH3 0x142D JUMP JUMPDEST PUSH1 0x40 DUP4 ADD MLOAD SWAP1 SWAP3 SWAP1 PUSH1 0x1 PUSH1 0x1 PUSH1 0x40 SHL SUB DUP2 GT PUSH3 0x13CC JUMPI DUP5 PUSH3 0x96 SWAP2 DUP4 ADD PUSH3 0x142D JUMP JUMPDEST PUSH1 0x60 DUP3 ADD MLOAD PUSH1 0x1 PUSH1 0x1 PUSH1 0x40 SHL SUB DUP2 GT PUSH3 0x13CC JUMPI DUP6 PUSH3 0xB8 SWAP2 DUP5 ADD PUSH3 0x142D JUMP JUMPDEST PUSH1 0x80 DUP4 ADD MLOAD SWAP1 SWAP6 PUSH1 0x1 PUSH1 0x1 PUSH1 0x40 SHL SUB DUP3 GT PUSH3 0x13CC JUMPI PUSH3 0xDB SWAP2 DUP5 ADD PUSH3 0x142D JUMP JUMPDEST SWAP4 PUSH3 0xF8 PUSH1 0xC0 PUSH3 0xF0 PUSH1 0xA0 DUP7 ADD PUSH3 0x14A4 JUMP JUMPDEST SWAP5 ADD PUSH3 0x14A4 JUMP JUMPDEST DUP5 MLOAD SWAP1 SWAP5 PUSH1 0x1 PUSH1 0x1 PUSH1 0x40 SHL SUB DUP3 GT PUSH3 0xB1A JUMPI PUSH1 0x0 SLOAD SWAP1 PUSH1 0x1 DUP3 DUP2 SHR SWAP3 AND DUP1 ISZERO PUSH3 0x13C1 JUMPI JUMPDEST PUSH1 0x20 DUP4 LT EQ PUSH3 0xC10 JUMPI DUP2 PUSH1 0x1F DUP5 SWAP4 GT PUSH3 0x1361 JUMPI JUMPDEST POP PUSH1 0x20 SWAP1 PUSH1 0x1F DUP4 GT PUSH1 0x1 EQ PUSH3 0x12E5 JUMPI PUSH1 0x0 SWAP3 PUSH3 0x12D9 JUMPI JUMPDEST POP POP DUP2 PUSH1 0x1 SHL SWAP2 PUSH1 0x0 NOT SWAP1 PUSH1 0x3 SHL SHR NOT AND OR PUSH1 0x0 SSTORE JUMPDEST DUP1 MLOAD SWAP1 PUSH1 0x1 PUSH1 0x1 PUSH1 0x40 SHL SUB DUP3 GT PUSH3 0xB1A JUMPI PUSH1 0x1 SLOAD SWAP1 PUSH1 0x1 DUP3 DUP2 SHR SWAP3 AND DUP1 ISZERO PUSH3 0x12CE JUMPI JUMPDEST PUSH1 0x20 DUP4 LT EQ PUSH3 0xC10 JUMPI DUP2 PUSH1 0x1F DUP5 SWAP4 GT PUSH3 0x126A JUMPI JUMPDEST POP PUSH1 0x20 SWAP1 PUSH1 0x1F DUP4 GT PUSH1 0x1 EQ PUSH3 0x11EC JUMPI PUSH1 0x0 SWAP3 PUSH3 0x11E0 JUMPI JUMPDEST POP POP DUP2 PUSH1 0x1 SHL SWAP2 PUSH1 0x0 NOT SWAP1 PUSH1 0x3 SHL SHR NOT AND OR PUSH1 0x1 SSTORE JUMPDEST PUSH1 0x7 DUP1 SLOAD CALLER PUSH1 0x1 PUSH1 0x1 PUSH1 0xA0 SHL SUB NOT DUP3 AND DUP2 OR SWAP1 SWAP3 SSTORE PUSH1 0x40 MLOAD PUSH1 0x1 PUSH1 0x1 PUSH1 0xA0 SHL SUB SWAP3 SWAP1 SWAP2 DUP4 AND PUSH32 0x8BE0079C531659141344CD1FD0A4F28419497F9722A3DAAFE3B4186F6B6457E0 PUSH1 0x0 DUP1 LOG3 PUSH1 0x1 PUSH1 0x8 SSTORE PUSH1 0x9 DUP1 SLOAD PUSH1 0xFF NOT AND SWAP1 SSTORE PUSH1 0x3 PUSH1 0x17 SSTORE PUSH8 0xDE0B6B3A7640000 PUSH1 0x19 SSTORE PUSH8 0x16345785D8A0000 PUSH1 0x1A SSTORE PUSH2 0xE10 PUSH1 0x1C SSTORE PUSH2 0x12C PUSH1 0x1D SSTORE PUSH1 0x1F DUP1 SLOAD PUSH1 0x1 PUSH1 0x1 PUSH1 0x60 SHL SUB NOT AND PUSH2 0x2EE OR SWAP1 SSTORE DUP4 DUP3 AND ISZERO PUSH3 0x11D1 JUMPI POP DUP4 AND ISZERO PUSH3 0x11BF JUMPI DUP1 MLOAD SWAP1 PUSH1 0x1 PUSH1 0x1 PUSH1 0x40 SHL SUB DUP3 GT PUSH3 0xB1A JUMPI PUSH1 0xD SLOAD SWAP1 PUSH1 0x1 DUP3 DUP2 SHR SWAP3 AND DUP1 ISZERO PUSH3 0x11B4 JUMPI JUMPDEST PUSH1 0x20 DUP4 LT EQ PUSH3 0xC10 JUMPI DUP2 PUSH1 0x1F DUP5 SWAP4 GT PUSH3 0x1153 JUMPI JUMPDEST POP PUSH1 0x20 SWAP1 PUSH1 0x1F DUP4 GT PUSH1 0x1 EQ PUSH3 0x10D5 JUMPI PUSH1 0x0 SWAP3 PUSH3 0x10C9 JUMPI JUMPDEST POP POP DUP2 PUSH1 0x1 SHL SWAP2 PUSH1 0x0 NOT SWAP1 PUSH1 0x3 SHL SHR NOT AND OR PUSH1 0xD SSTORE JUMPDEST DUP4 MLOAD PUSH1 0x1 PUSH1 0x1 PUSH1 0x40 SHL SUB DUP2 GT PUSH3 0xB1A JUMPI PUSH1 0xE SLOAD PUSH1 0x1 DUP2 DUP2 SHR SWAP2 AND DUP1 ISZERO PUSH3 0x10BE JUMPI JUMPDEST PUSH1 0x20 DUP3 LT EQ PUSH3 0xC10 JUMPI PUSH1 0x1F DUP2 GT PUSH3 0x1058 JUMPI JUMPDEST POP PUSH1 0x20 PUSH1 0x1F DUP3 GT PUSH1 0x1 EQ PUSH3 0xFE8 JUMPI DUP2 SWAP3 SWAP4 SWAP5 SWAP6 PUSH1 0x0 SWAP3 PUSH3 0xFDC JUMPI JUMPDEST POP POP DUP2 PUSH1 0x1 SHL SWAP2 PUSH1 0x0 NOT SWAP1 PUSH1 0x3 SHL SHR NOT AND OR PUSH1 0xE SSTORE JUMPDEST DUP3 MLOAD PUSH1 0x1 PUSH1 0x1 PUSH1 0x40 SHL SUB DUP2 GT PUSH3 0xB1A JUMPI PUSH1 0x10 SLOAD PUSH1 0x1 DUP2 DUP2 SHR SWAP2 AND DUP1 ISZERO PUSH3 0xFD1 JUMPI JUMPDEST PUSH1 0x20 DUP3 LT EQ PUSH3 0xC10 JUMPI PUSH1 0x1F DUP2 GT PUSH3 0xF6B JUMPI JUMPDEST POP PUSH1 0x20 PUSH1 0x1F DUP3 GT PUSH1 0x1 EQ PUSH3 0xEFC JUMPI DUP2 SWAP3 SWAP4 SWAP5 PUSH1 0x0 SWAP3 PUSH3 0xEF0 JUMPI JUMPDEST POP POP DUP2 PUSH1 0x1 SHL SWAP2 PUSH1 0x0 NOT SWAP1 PUSH1 0x3 SHL SHR NOT AND OR PUSH1 0x10 SSTORE JUMPDEST PUSH1 0x1E DUP1 SLOAD PUSH2 0x100 PUSH1 0x1 PUSH1 0xA8 SHL SUB NOT AND PUSH1 0x8 SWAP3 SWAP1 SWAP3 SHL PUSH2 0x100 PUSH1 0x1 PUSH1 0xA8 SHL SUB AND SWAP2 SWAP1 SWAP2 OR SWAP1 SSTORE PUSH1 0x23 DUP1 SLOAD PUSH3 0x10000 PUSH1 0x1 PUSH1 0xB0 SHL SUB NOT AND PUSH1 0x10 SWAP3 SWAP1 SWAP3 SHL PUSH3 0x10000 PUSH1 0x1 PUSH1 0xB0 SHL SUB AND SWAP2 SWAP1 SWAP2 OR SWAP1 SSTORE PUSH1 0xB DUP1 SLOAD PUSH1 0x1 ADD SWAP1 SSTORE PUSH1 0x40 MLOAD PUSH3 0x415 DUP2 PUSH3 0x13D1 JUMP JUMPDEST PUSH1 0x40 MLOAD PUSH3 0x423 DUP2 PUSH3 0x13ED JUMP JUMPDEST PUSH1 0x6 DUP2 MSTORE PUSH6 0x21B7B6B6B7B7 PUSH1 0xD1 SHL PUSH1 0x20 DUP3 ADD MSTORE DUP2 MSTORE PUSH2 0x1770 PUSH1 0x20 DUP3 ADD MSTORE PUSH2 0x258 PUSH1 0x40 DUP3 ADD MSTORE PUSH1 0x0 PUSH1 0x60 DUP3 ADD MSTORE PUSH1 0x40 MLOAD PUSH3 0x45D DUP2 PUSH3 0x13ED JUMP JUMPDEST PUSH1 0x8 DUP2 MSTORE PUSH8 0x14DD185B99185C99 PUSH1 0xC2 SHL PUSH1 0x20 DUP3 ADD MSTORE PUSH1 0x80 DUP3 ADD MSTORE PUSH1 0x11 SLOAD PUSH9 0x10000000000000000 DUP2 LT ISZERO PUSH3 0xB1A JUMPI PUSH1 0x1 DUP2 ADD DUP1 PUSH1 0x11 SSTORE DUP2 LT ISZERO PUSH3 0xD12 JUMPI PUSH1 0x11 PUSH1 0x0 MSTORE DUP2 MLOAD DUP1 MLOAD SWAP1 SWAP3 PUSH1 0x0 DUP1 MLOAD PUSH1 0x20 PUSH3 0x7097 DUP4 CODECOPY DUP2 MLOAD SWAP2 MSTORE SWAP2 PUSH1 0x1 PUSH1 0x1 PUSH1 0x40 SHL SUB DUP2 GT PUSH3 0xB1A JUMPI PUSH1 0x5 DUP5 MUL DUP4 ADD SLOAD PUSH1 0x1 DUP2 DUP2 SHR SWAP2 AND DUP1 ISZERO PUSH3 0xEE5 JUMPI JUMPDEST PUSH1 0x20 DUP3 LT EQ PUSH3 0xC10 JUMPI PUSH1 0x1F DUP2 GT PUSH3 0xE97 JUMPI JUMPDEST POP PUSH1 0x20 PUSH1 0x1F DUP3 GT PUSH1 0x1 EQ PUSH3 0xE1B JUMPI DUP2 SWAP1 PUSH1 0x80 SWAP5 SWAP6 SWAP7 PUSH1 0x0 SWAP3 PUSH3 0xE0F JUMPI JUMPDEST POP POP DUP2 PUSH1 0x1 SHL SWAP2 PUSH1 0x0 NOT SWAP1 PUSH1 0x3 SHL SHR NOT AND OR PUSH1 0x5 DUP6 MUL DUP5 ADD SSTORE JUMPDEST PUSH1 0x20 DUP2 ADD MLOAD PUSH1 0x5 DUP6 MUL DUP5 ADD PUSH1 0x1 DUP2 ADD SWAP2 SWAP1 SWAP2 SSTORE PUSH1 0x40 DUP3 ADD MLOAD PUSH1 0x2 DUP3 ADD SSTORE PUSH1 0x60 DUP3 ADD MLOAD PUSH1 0x3 SWAP1 SWAP2 ADD SSTORE ADD MLOAD DUP1 MLOAD SWAP1 PUSH1 0x1 PUSH1 0x1 PUSH1 0x40 SHL SUB DUP3 GT PUSH3 0xB1A JUMPI PUSH1 0x4 PUSH1 0x5 DUP6 MUL DUP5 ADD ADD SLOAD PUSH1 0x1 DUP2 DUP2 SHR SWAP2 AND DUP1 ISZERO PUSH3 0xE04 JUMPI JUMPDEST PUSH1 0x20 DUP3 LT EQ PUSH3 0xC10 JUMPI PUSH1 0x1F DUP2 GT PUSH3 0xDB3 JUMPI JUMPDEST POP PUSH1 0x20 SWAP1 PUSH1 0x1F DUP4 GT PUSH1 0x1 EQ PUSH3 0xD34 JUMPI SWAP2 DUP1 PUSH1 0x5 SWAP3 PUSH1 0x4 SWAP6 SWAP5 PUSH1 0x0 SWAP3 PUSH3 0xD28 JUMPI JUMPDEST POP POP DUP2 PUSH1 0x1 SHL SWAP2 PUSH1 0x0 NOT SWAP1 PUSH1 0x3 SHL SHR NOT AND OR SWAP4 MUL ADD ADD SSTORE JUMPDEST PUSH1 0x0 PUSH1 0x26 PUSH1 0x40 MLOAD PUSH6 0x21B7B6B6B7B7 PUSH1 0xD1 SHL DUP2 MSTORE PUSH1 0x13 PUSH1 0x6 DUP3 ADD MSTORE KECCAK256 SSTORE PUSH1 0x1 PUSH1 0x24 PUSH1 0x40 MLOAD PUSH3 0x5FB DUP2 PUSH3 0x13D1 JUMP JUMPDEST PUSH3 0x667 PUSH1 0x40 MLOAD SWAP2 PUSH3 0x60E DUP4 PUSH3 0x13ED JUMP JUMPDEST PUSH1 0x4 DUP4 MSTORE PUSH4 0x52617265 PUSH1 0xE0 SHL SWAP3 DUP4 PUSH1 0x20 DUP3 ADD MSTORE DUP2 MSTORE PUSH2 0x9C4 PUSH1 0x20 DUP3 ADD MSTORE PUSH1 0xFA PUSH1 0x40 DUP3 ADD MSTORE PUSH1 0x0 PUSH1 0x60 DUP3 ADD MSTORE PUSH1 0x40 MLOAD PUSH3 0x647 DUP2 PUSH3 0x13ED JUMP JUMPDEST PUSH1 0x8 DUP2 MSTORE PUSH8 0x115B9A185B98D959 PUSH1 0xC2 SHL PUSH1 0x20 DUP3 ADD MSTORE PUSH1 0x80 DUP3 ADD MSTORE PUSH3 0x14B9 JUMP JUMPDEST PUSH1 0x40 MLOAD SWAP1 DUP2 MSTORE PUSH1 0x13 PUSH1 0x4 DUP3 ADD MSTORE KECCAK256 SSTORE PUSH1 0x2 PUSH1 0x24 PUSH1 0x40 MLOAD PUSH3 0x688 DUP2 PUSH3 0x13D1 JUMP JUMPDEST PUSH3 0x6DB PUSH1 0x40 MLOAD SWAP2 PUSH3 0x69B DUP4 PUSH3 0x13ED JUMP JUMPDEST PUSH1 0x4 DUP4 MSTORE PUSH4 0x45706963 PUSH1 0xE0 SHL SWAP3 DUP4 PUSH1 0x20 DUP3 ADD MSTORE DUP2 MSTORE PUSH2 0x4B0 PUSH1 0x20 DUP3 ADD MSTORE PUSH1 0x78 PUSH1 0x40 DUP3 ADD MSTORE PUSH1 0x0 PUSH1 0x60 DUP3 ADD MSTORE PUSH3 0x6D0 PUSH3 0x17CB JUMP JUMPDEST PUSH1 0x80 DUP3 ADD MSTORE PUSH3 0x14B9 JUMP JUMPDEST PUSH1 0x40 MLOAD SWAP1 DUP2 MSTORE PUSH1 0x13 PUSH1 0x4 DUP3 ADD MSTORE KECCAK256 SSTORE PUSH1 0x40 MLOAD PUSH3 0x6F8 DUP2 PUSH3 0x13D1 JUMP JUMPDEST PUSH3 0x702 PUSH3 0x17CB JUMP JUMPDEST DUP2 MSTORE PUSH2 0x12C PUSH1 0x20 DUP3 ADD MSTORE PUSH1 0x1E PUSH1 0x40 DUP3 ADD MSTORE PUSH1 0x0 PUSH1 0x60 DUP3 ADD MSTORE PUSH1 0x40 MLOAD PUSH3 0x728 DUP2 PUSH3 0x13ED JUMP JUMPDEST PUSH1 0x8 DUP2 MSTORE PUSH8 0x135E5D1A1A58D85B PUSH1 0xC2 SHL PUSH1 0x20 DUP3 ADD MSTORE PUSH1 0x80 DUP3 ADD MSTORE PUSH1 0x11 SLOAD PUSH9 0x10000000000000000 DUP2 LT ISZERO PUSH3 0xB1A JUMPI PUSH1 0x1 DUP2 ADD DUP1 PUSH1 0x11 SSTORE DUP2 LT ISZERO PUSH3 0xD12 JUMPI PUSH1 0x11 PUSH1 0x0 MSTORE DUP2 MLOAD DUP1 MLOAD SWAP1 SWAP3 PUSH1 0x0 DUP1 MLOAD PUSH1 0x20 PUSH3 0x7097 DUP4 CODECOPY DUP2 MLOAD SWAP2 MSTORE SWAP2 PUSH1 0x1 PUSH1 0x1 PUSH1 0x40 SHL SUB DUP2 GT PUSH3 0xB1A JUMPI PUSH1 0x5 DUP5 MUL DUP4 ADD SLOAD PUSH1 0x1 DUP2 DUP2 SHR SWAP2 AND DUP1 ISZERO PUSH3 0xD07 JUMPI JUMPDEST PUSH1 0x20 DUP3 LT EQ PUSH3 0xC10 JUMPI PUSH1 0x1F DUP2 GT PUSH3 0xCB9 JUMPI JUMPDEST POP PUSH1 0x20 PUSH1 0x1F DUP3 GT PUSH1 0x1 EQ PUSH3 0xC3D JUMPI DUP2 SWAP1 PUSH1 0x80 SWAP5 SWAP6 SWAP7 PUSH1 0x0 SWAP3 PUSH3 0xC31 JUMPI JUMPDEST POP POP DUP2 PUSH1 0x1 SHL SWAP2 PUSH1 0x0 NOT SWAP1 PUSH1 0x3 SHL SHR NOT AND OR PUSH1 0x5 DUP6 MUL DUP5 ADD SSTORE JUMPDEST PUSH1 0x20 DUP2 ADD MLOAD PUSH1 0x5 DUP6 MUL DUP5 ADD PUSH1 0x1 DUP2 ADD SWAP2 SWAP1 SWAP2 SSTORE PUSH1 0x40 DUP3 ADD MLOAD PUSH1 0x2 DUP3 ADD SSTORE PUSH1 0x60 DUP3 ADD MLOAD PUSH1 0x3 SWAP1 SWAP2 ADD SSTORE ADD MLOAD DUP1 MLOAD SWAP1 PUSH1 0x1 PUSH1 0x1 PUSH1 0x40 SHL SUB DUP3 GT PUSH3 0xB1A JUMPI PUSH1 0x4 PUSH1 0x5 DUP6 MUL DUP5 ADD ADD SLOAD PUSH1 0x1 DUP2 DUP2 SHR SWAP2 AND DUP1 ISZERO PUSH3 0xC26 JUMPI JUMPDEST PUSH1 0x20 DUP3 LT EQ PUSH3 0xC10 JUMPI PUSH1 0x1F DUP2 GT PUSH3 0xBBB JUMPI JUMPDEST POP PUSH1 0x20 SWAP1 PUSH1 0x1F DUP4 GT PUSH1 0x1 EQ PUSH3 0xB3C JUMPI SWAP2 DUP1 PUSH1 0x5 SWAP3 PUSH1 0x4 SWAP6 SWAP5 PUSH1 0x0 SWAP3 PUSH3 0xB30 JUMPI JUMPDEST POP POP DUP2 PUSH1 0x1 SHL SWAP2 PUSH1 0x0 NOT SWAP1 PUSH1 0x3 SHL SHR NOT AND OR SWAP4 MUL ADD ADD SSTORE JUMPDEST PUSH1 0x3 PUSH1 0x29 PUSH1 0x40 MLOAD PUSH9 0x4C6567656E64617279 PUSH1 0xB8 SHL DUP2 MSTORE PUSH1 0x13 PUSH1 0x9 DUP3 ADD MSTORE KECCAK256 SSTORE PUSH1 0x40 MLOAD PUSH1 0x20 DUP2 ADD TIMESTAMP DUP2 MSTORE PREVRANDAO PUSH1 0x40 DUP4 ADD MSTORE CALLER PUSH1 0x60 SHL PUSH1 0x60 DUP4 ADD MSTORE PUSH1 0x54 DUP3 MSTORE PUSH1 0x80 DUP3 ADD SWAP2 DUP1 DUP4 LT PUSH1 0x1 DUP1 PUSH1 0x40 SHL SUB DUP5 GT OR PUSH3 0xB1A JUMPI PUSH1 0x40 DUP4 DUP2 MSTORE SWAP1 MLOAD SWAP1 SWAP2 KECCAK256 PUSH1 0x14 SSTORE CALLER PUSH1 0x0 SWAP1 DUP2 MSTORE PUSH32 0x13DA86008BA1C6922DAEE3E07DB95305EF49EBCED9F5467A0B8613FCC6B343E3 PUSH1 0x20 MSTORE KECCAK256 SLOAD PUSH1 0xA SWAP1 PUSH1 0xFF AND ISZERO PUSH3 0xAD9 JUMPI JUMPDEST PUSH32 0xA49807205CE4D355092EF5A8A18F56E8913CF4A201FBE287825B095693C21775 DUP1 PUSH1 0x0 MSTORE DUP2 PUSH1 0x20 MSTORE PUSH1 0x40 PUSH1 0x0 KECCAK256 CALLER PUSH1 0x0 MSTORE PUSH1 0x20 MSTORE PUSH1 0xFF PUSH1 0x40 PUSH1 0x0 KECCAK256 SLOAD AND ISZERO PUSH3 0xA96 JUMPI JUMPDEST POP PUSH32 0x9F2DF0FED2C77648DE5860A4CC508CD0818C85B8B8A1AB4CEEEF8D981C8956A6 DUP1 PUSH1 0x0 MSTORE DUP2 PUSH1 0x20 MSTORE PUSH1 0x40 PUSH1 0x0 KECCAK256 CALLER PUSH1 0x0 MSTORE PUSH1 0x20 MSTORE PUSH1 0xFF PUSH1 0x40 PUSH1 0x0 KECCAK256 SLOAD AND ISZERO PUSH3 0xA53 JUMPI JUMPDEST POP PUSH32 0xF18246D2E788C2A885EC6AEEE43FC7C89077B8B7A1E52E99F27F5889E429E2F5 SWAP1 DUP2 PUSH1 0x0 MSTORE DUP1 PUSH1 0x20 MSTORE PUSH1 0x40 PUSH1 0x0 KECCAK256 CALLER PUSH1 0x0 MSTORE PUSH1 0x20 MSTORE PUSH1 0xFF PUSH1 0x40 PUSH1 0x0 KECCAK256 SLOAD AND ISZERO PUSH3 0xA10 JUMPI JUMPDEST PUSH2 0x5884 DUP4 DUP2 PUSH3 0x17F3 DUP3 CODECOPY RETURN JUMPDEST DUP2 PUSH1 0x0 MSTORE PUSH1 0x20 MSTORE PUSH1 0x40 PUSH1 0x0 KECCAK256 CALLER PUSH1 0x0 MSTORE PUSH1 0x20 MSTORE PUSH1 0x40 PUSH1 0x0 KECCAK256 PUSH1 0x1 PUSH1 0xFF NOT DUP3 SLOAD AND OR SWAP1 SSTORE CALLER SWAP1 CALLER SWAP1 PUSH1 0x0 DUP1 MLOAD PUSH1 0x20 PUSH3 0x7077 DUP4 CODECOPY DUP2 MLOAD SWAP2 MSTORE PUSH1 0x0 DUP1 LOG4 CODESIZE DUP1 PUSH3 0xA03 JUMP JUMPDEST DUP1 PUSH1 0x0 MSTORE DUP2 PUSH1 0x20 MSTORE PUSH1 0x40 PUSH1 0x0 KECCAK256 CALLER PUSH1 0x0 MSTORE PUSH1 0x20 MSTORE PUSH1 0x40 PUSH1 0x0 KECCAK256 PUSH1 0x1 PUSH1 0xFF NOT DUP3 SLOAD AND OR SWAP1 SSTORE CALLER SWAP1 CALLER SWAP1 PUSH1 0x0 DUP1 MLOAD PUSH1 0x20 PUSH3 0x7077 DUP4 CODECOPY DUP2 MLOAD SWAP2 MSTORE PUSH1 0x0 DUP1 LOG4 CODESIZE PUSH3 0x9BC JUMP JUMPDEST DUP1 PUSH1 0x0 MSTORE DUP2 PUSH1 0x20 MSTORE PUSH1 0x40 PUSH1 0x0 KECCAK256 CALLER PUSH1 0x0 MSTORE PUSH1 0x20 MSTORE PUSH1 0x40 PUSH1 0x0 KECCAK256 PUSH1 0x1 PUSH1 0xFF NOT DUP3 SLOAD AND OR SWAP1 SSTORE CALLER SWAP1 CALLER SWAP1 PUSH1 0x0 DUP1 MLOAD PUSH1 0x20 PUSH3 0x7077 DUP4 CODECOPY DUP2 MLOAD SWAP2 MSTORE PUSH1 0x0 DUP1 LOG4 CODESIZE PUSH3 0x976 JUMP JUMPDEST PUSH1 0x0 DUP1 MSTORE DUP1 PUSH1 0x20 MSTORE PUSH1 0x40 PUSH1 0x0 KECCAK256 CALLER PUSH1 0x0 MSTORE PUSH1 0x20 MSTORE PUSH1 0x40 PUSH1 0x0 KECCAK256 PUSH1 0x1 PUSH1 0xFF NOT DUP3 SLOAD AND OR SWAP1 SSTORE CALLER CALLER PUSH1 0x0 PUSH1 0x0 DUP1 MLOAD PUSH1 0x20 PUSH3 0x7077 DUP4 CODECOPY DUP2 MLOAD SWAP2 MSTORE DUP2 DUP1 LOG4 PUSH3 0x931 JUMP JUMPDEST PUSH4 0x4E487B71 PUSH1 0xE0 SHL PUSH1 0x0 MSTORE PUSH1 0x41 PUSH1 0x4 MSTORE PUSH1 0x24 PUSH1 0x0 REVERT JUMPDEST ADD MLOAD SWAP1 POP CODESIZE DUP1 PUSH3 0x880 JUMP JUMPDEST SWAP1 PUSH1 0x4 PUSH1 0x5 DUP7 MUL DUP6 ADD ADD PUSH1 0x0 MSTORE PUSH1 0x20 PUSH1 0x0 KECCAK256 SWAP2 PUSH1 0x0 JUMPDEST PUSH1 0x1F NOT DUP6 AND DUP2 LT PUSH3 0xBA2 JUMPI POP SWAP3 PUSH1 0x5 SWAP3 PUSH1 0x1 SWAP3 PUSH1 0x4 SWAP7 SWAP6 DUP4 PUSH1 0x1F NOT DUP2 AND LT PUSH3 0xB88 JUMPI JUMPDEST POP POP POP DUP2 SHL ADD SWAP4 MUL ADD ADD SSTORE PUSH3 0x898 JUMP JUMPDEST ADD MLOAD PUSH1 0x0 NOT PUSH1 0xF8 DUP5 PUSH1 0x3 SHL AND SHR NOT AND SWAP1 SSTORE CODESIZE DUP1 DUP1 PUSH3 0xB77 JUMP JUMPDEST SWAP2 SWAP3 PUSH1 0x20 PUSH1 0x1 DUP2 SWAP3 DUP7 DUP6 ADD MLOAD DUP2 SSTORE ADD SWAP5 ADD SWAP3 ADD PUSH3 0xB52 JUMP JUMPDEST PUSH1 0x4 PUSH1 0x5 DUP7 MUL DUP6 ADD ADD PUSH1 0x0 MSTORE PUSH1 0x20 PUSH1 0x0 KECCAK256 PUSH1 0x1F DUP5 ADD PUSH1 0x5 SHR DUP2 ADD SWAP2 PUSH1 0x20 DUP6 LT PUSH3 0xC05 JUMPI JUMPDEST PUSH1 0x1F ADD PUSH1 0x5 SHR ADD SWAP1 JUMPDEST DUP2 DUP2 LT PUSH3 0xBF8 JUMPI POP PUSH3 0x85E JUMP JUMPDEST PUSH1 0x0 DUP2 SSTORE PUSH1 0x1 ADD PUSH3 0xBE9 JUMP JUMPDEST SWAP1 SWAP2 POP DUP2 SWAP1 PUSH3 0xBE0 JUMP JUMPDEST PUSH4 0x4E487B71 PUSH1 0xE0 SHL PUSH1 0x0 MSTORE PUSH1 0x22 PUSH1 0x4 MSTORE PUSH1 0x24 PUSH1 0x0 REVERT JUMPDEST SWAP1 PUSH1 0x7F AND SWAP1 PUSH3 0x84A JUMP JUMPDEST ADD MLOAD SWAP1 POP CODESIZE DUP1 PUSH3 0x7DB JUMP JUMPDEST PUSH1 0x5 DUP6 MUL DUP5 ADD PUSH1 0x0 MSTORE PUSH1 0x20 PUSH1 0x0 KECCAK256 SWAP6 PUSH1 0x0 JUMPDEST PUSH1 0x1F NOT DUP5 AND DUP2 LT PUSH3 0xCA0 JUMPI POP SWAP6 DUP3 SWAP2 PUSH1 0x80 SWAP6 SWAP7 SWAP8 PUSH1 0x1 SWAP5 PUSH1 0x1F NOT DUP2 AND LT PUSH3 0xC86 JUMPI JUMPDEST POP POP POP DUP2 SHL ADD PUSH1 0x5 DUP6 MUL DUP5 ADD SSTORE PUSH3 0x7F5 JUMP JUMPDEST ADD MLOAD PUSH1 0x0 NOT PUSH1 0xF8 DUP5 PUSH1 0x3 SHL AND SHR NOT AND SWAP1 SSTORE CODESIZE DUP1 DUP1 PUSH3 0xC73 JUMP JUMPDEST DUP3 DUP3 ADD MLOAD DUP9 SSTORE PUSH1 0x1 SWAP1 SWAP8 ADD SWAP7 PUSH1 0x20 SWAP3 DUP4 ADD SWAP3 ADD PUSH3 0xC4F JUMP JUMPDEST PUSH1 0x5 DUP6 MUL DUP5 ADD PUSH1 0x0 MSTORE PUSH1 0x20 PUSH1 0x0 KECCAK256 PUSH1 0x1F DUP4 ADD PUSH1 0x5 SHR DUP2 ADD PUSH1 0x20 DUP5 LT PUSH3 0xCFF JUMPI JUMPDEST PUSH1 0x1F DUP4 ADD PUSH1 0x5 SHR DUP3 ADD DUP2 LT PUSH3 0xCF2 JUMPI POP POP PUSH3 0x7BC JUMP JUMPDEST PUSH1 0x0 DUP2 SSTORE PUSH1 0x1 ADD PUSH3 0xCDA JUMP JUMPDEST POP DUP1 PUSH3 0xCDA JUMP JUMPDEST SWAP1 PUSH1 0x7F AND SWAP1 PUSH3 0x7A8 JUMP JUMPDEST PUSH4 0x4E487B71 PUSH1 0xE0 SHL PUSH1 0x0 MSTORE PUSH1 0x32 PUSH1 0x4 MSTORE PUSH1 0x24 PUSH1 0x0 REVERT JUMPDEST ADD MLOAD SWAP1 POP CODESIZE DUP1 PUSH3 0x5B5 JUMP JUMPDEST SWAP1 PUSH1 0x4 PUSH1 0x5 DUP7 MUL DUP6 ADD ADD PUSH1 0x0 MSTORE PUSH1 0x20 PUSH1 0x0 KECCAK256 SWAP2 PUSH1 0x0 JUMPDEST PUSH1 0x1F NOT DUP6 AND DUP2 LT PUSH3 0xD9A JUMPI POP SWAP3 PUSH1 0x5 SWAP3 PUSH1 0x1 SWAP3 PUSH1 0x4 SWAP7 SWAP6 DUP4 PUSH1 0x1F NOT DUP2 AND LT PUSH3 0xD80 JUMPI JUMPDEST POP POP POP DUP2 SHL ADD SWAP4 MUL ADD ADD SSTORE PUSH3 0x5CD JUMP JUMPDEST ADD MLOAD PUSH1 0x0 NOT PUSH1 0xF8 DUP5 PUSH1 0x3 SHL AND SHR NOT AND SWAP1 SSTORE CODESIZE DUP1 DUP1 PUSH3 0xD6F JUMP JUMPDEST SWAP2 SWAP3 PUSH1 0x20 PUSH1 0x1 DUP2 SWAP3 DUP7 DUP6 ADD MLOAD DUP2 SSTORE ADD SWAP5 ADD SWAP3 ADD PUSH3 0xD4A JUMP JUMPDEST PUSH1 0x4 PUSH1 0x5 DUP7 MUL DUP6 ADD ADD PUSH1 0x0 MSTORE PUSH1 0x20 PUSH1 0x0 KECCAK256 PUSH1 0x1F DUP5 ADD PUSH1 0x5 SHR DUP2 ADD PUSH1 0x20 DUP6 LT PUSH3 0xDFC JUMPI JUMPDEST PUSH1 0x1F DUP4 ADD PUSH1 0x5 SHR DUP3 ADD DUP2 LT PUSH3 0xDEF JUMPI POP POP PUSH3 0x593 JUMP JUMPDEST PUSH1 0x0 DUP2 SSTORE PUSH1 0x1 ADD PUSH3 0xDD7 JUMP JUMPDEST POP DUP1 PUSH3 0xDD7 JUMP JUMPDEST SWAP1 PUSH1 0x7F AND SWAP1 PUSH3 0x57F JUMP JUMPDEST ADD MLOAD SWAP1 POP CODESIZE DUP1 PUSH3 0x510 JUMP JUMPDEST PUSH1 0x5 DUP6 MUL DUP5 ADD PUSH1 0x0 MSTORE PUSH1 0x20 PUSH1 0x0 KECCAK256 SWAP6 PUSH1 0x0 JUMPDEST PUSH1 0x1F NOT DUP5 AND DUP2 LT PUSH3 0xE7E JUMPI POP SWAP6 DUP3 SWAP2 PUSH1 0x80 SWAP6 SWAP7 SWAP8 PUSH1 0x1 SWAP5 PUSH1 0x1F NOT DUP2 AND LT PUSH3 0xE64 JUMPI JUMPDEST POP POP POP DUP2 SHL ADD PUSH1 0x5 DUP6 MUL DUP5 ADD SSTORE PUSH3 0x52A JUMP JUMPDEST ADD MLOAD PUSH1 0x0 NOT PUSH1 0xF8 DUP5 PUSH1 0x3 SHL AND SHR NOT AND SWAP1 SSTORE CODESIZE DUP1 DUP1 PUSH3 0xE51 JUMP JUMPDEST DUP3 DUP3 ADD MLOAD DUP9 SSTORE PUSH1 0x1 SWAP1 SWAP8 ADD SWAP7 PUSH1 0x20 SWAP3 DUP4 ADD SWAP3 ADD PUSH3 0xE2D JUMP JUMPDEST PUSH1 0x5 DUP6 MUL DUP5 ADD PUSH1 0x0 MSTORE PUSH1 0x20 PUSH1 0x0 KECCAK256 PUSH1 0x1F DUP4 ADD PUSH1 0x5 SHR DUP2 ADD PUSH1 0x20 DUP5 LT PUSH3 0xEDD JUMPI JUMPDEST PUSH1 0x1F DUP4 ADD PUSH1 0x5 SHR DUP3 ADD DUP2 LT PUSH3 0xED0 JUMPI POP POP PUSH3 0x4F1 JUMP JUMPDEST PUSH1 0x0 DUP2 SSTORE PUSH1 0x1 ADD PUSH3 0xEB8 JUMP JUMPDEST POP DUP1 PUSH3 0xEB8 JUMP JUMPDEST SWAP1 PUSH1 0x7F AND SWAP1 PUSH3 0x4DD JUMP JUMPDEST ADD MLOAD SWAP1 POP CODESIZE DUP1 PUSH3 0x39C JUMP JUMPDEST PUSH1 0x10 PUSH1 0x0 MSTORE PUSH1 0x20 PUSH1 0x0 KECCAK256 SWAP1 PUSH1 0x0 JUMPDEST PUSH1 0x1F NOT DUP5 AND DUP2 LT PUSH3 0xF52 JUMPI POP PUSH1 0x1 SWAP4 SWAP5 SWAP6 DUP4 PUSH1 0x1F NOT DUP2 AND LT PUSH3 0xF38 JUMPI JUMPDEST POP POP POP DUP2 SHL ADD PUSH1 0x10 SSTORE PUSH3 0x3B2 JUMP JUMPDEST ADD MLOAD PUSH1 0x0 NOT PUSH1 0xF8 DUP5 PUSH1 0x3 SHL AND SHR NOT AND SWAP1 SSTORE CODESIZE DUP1 DUP1 PUSH3 0xF29 JUMP JUMPDEST SWAP1 SWAP2 PUSH1 0x20 PUSH1 0x1 DUP2 SWAP3 DUP6 DUP11 ADD MLOAD DUP2 SSTORE ADD SWAP4 ADD SWAP2 ADD PUSH3 0xF0A JUMP JUMPDEST PUSH1 0x10 PUSH1 0x0 MSTORE PUSH32 0x1B6847DC741A1B0CD08D278845F9D819D87B734759AFB55FE2DE5CB82A9AE672 PUSH1 0x1F DUP4 ADD PUSH1 0x5 SHR DUP2 ADD PUSH1 0x20 DUP5 LT PUSH3 0xFC9 JUMPI JUMPDEST PUSH1 0x1F DUP4 ADD PUSH1 0x5 SHR DUP3 ADD DUP2 LT PUSH3 0xFBC JUMPI POP POP PUSH3 0x380 JUMP JUMPDEST PUSH1 0x0 DUP2 SSTORE PUSH1 0x1 ADD PUSH3 0xFA4 JUMP JUMPDEST POP DUP1 PUSH3 0xFA4 JUMP JUMPDEST SWAP1 PUSH1 0x7F AND SWAP1 PUSH3 0x36C JUMP JUMPDEST ADD MLOAD SWAP1 POP CODESIZE DUP1 PUSH3 0x333 JUMP JUMPDEST PUSH1 0xE PUSH1 0x0 MSTORE PUSH1 0x20 PUSH1 0x0 KECCAK256 SWAP1 PUSH1 0x0 JUMPDEST PUSH1 0x1F NOT DUP5 AND DUP2 LT PUSH3 0x103F JUMPI POP PUSH1 0x1 SWAP4 SWAP5 SWAP6 SWAP7 DUP4 PUSH1 0x1F NOT DUP2 AND LT PUSH3 0x1025 JUMPI JUMPDEST POP POP POP DUP2 SHL ADD PUSH1 0xE SSTORE PUSH3 0x349 JUMP JUMPDEST ADD MLOAD PUSH1 0x0 NOT PUSH1 0xF8 DUP5 PUSH1 0x3 SHL AND SHR NOT AND SWAP1 SSTORE CODESIZE DUP1 DUP1 PUSH3 0x1016 JUMP JUMPDEST SWAP1 SWAP2 PUSH1 0x20 PUSH1 0x1 DUP2 SWAP3 DUP6 DUP12 ADD MLOAD DUP2 SSTORE ADD SWAP4 ADD SWAP2 ADD PUSH3 0xFF6 JUMP JUMPDEST PUSH1 0xE PUSH1 0x0 MSTORE PUSH32 0xBB7B4A454DC3493923482F07822329ED19E8244EFF582CC204F8554C3620C3FD PUSH1 0x1F DUP4 ADD PUSH1 0x5 SHR DUP2 ADD PUSH1 0x20 DUP5 LT PUSH3 0x10B6 JUMPI JUMPDEST PUSH1 0x1F DUP4 ADD PUSH1 0x5 SHR DUP3 ADD DUP2 LT PUSH3 0x10A9 JUMPI POP POP PUSH3 0x316 JUMP JUMPDEST PUSH1 0x0 DUP2 SSTORE PUSH1 0x1 ADD PUSH3 0x1091 JUMP JUMPDEST POP DUP1 PUSH3 0x1091 JUMP JUMPDEST SWAP1 PUSH1 0x7F AND SWAP1 PUSH3 0x302 JUMP JUMPDEST ADD MLOAD SWAP1 POP CODESIZE DUP1 PUSH3 0x2C9 JUMP JUMPDEST PUSH1 0xD PUSH1 0x0 SWAP1 DUP2 MSTORE SWAP4 POP PUSH1 0x0 DUP1 MLOAD PUSH1 0x20 PUSH3 0x70D7 DUP4 CODECOPY DUP2 MLOAD SWAP2 MSTORE SWAP2 SWAP1 JUMPDEST PUSH1 0x1F NOT DUP5 AND DUP6 LT PUSH3 0x1137 JUMPI PUSH1 0x1 SWAP5 POP DUP4 PUSH1 0x1F NOT DUP2 AND LT PUSH3 0x111D JUMPI JUMPDEST POP POP POP DUP2 SHL ADD PUSH1 0xD SSTORE PUSH3 0x2DF JUMP JUMPDEST ADD MLOAD PUSH1 0x0 NOT PUSH1 0xF8 DUP5 PUSH1 0x3 SHL AND SHR NOT AND SWAP1 SSTORE CODESIZE DUP1 DUP1 PUSH3 0x110E JUMP JUMPDEST DUP2 DUP2 ADD MLOAD DUP4 SSTORE PUSH1 0x20 SWAP5 DUP6 ADD SWAP5 PUSH1 0x1 SWAP1 SWAP4 ADD SWAP3 SWAP1 SWAP2 ADD SWAP1 PUSH3 0x10F1 JUMP JUMPDEST PUSH1 0xD PUSH1 0x0 MSTORE SWAP1 SWAP2 POP PUSH1 0x0 DUP1 MLOAD PUSH1 0x20 PUSH3 0x70D7 DUP4 CODECOPY DUP2 MLOAD SWAP2 MSTORE PUSH1 0x1F DUP5 ADD PUSH1 0x5 SHR DUP2 ADD PUSH1 0x20 DUP6 LT PUSH3 0x11AC JUMPI JUMPDEST SWAP1 DUP5 SWAP4 SWAP3 SWAP2 JUMPDEST PUSH1 0x1F DUP4 ADD PUSH1 0x5 SHR DUP3 ADD DUP2 LT PUSH3 0x119C JUMPI POP POP PUSH3 0x2B0 JUMP JUMPDEST PUSH1 0x0 DUP2 SSTORE DUP6 SWAP5 POP PUSH1 0x1 ADD PUSH3 0x1184 JUMP JUMPDEST POP DUP1 PUSH3 0x117E JUMP JUMPDEST SWAP2 PUSH1 0x7F AND SWAP2 PUSH3 0x29A JUMP JUMPDEST PUSH1 0x40 MLOAD PUSH4 0xD92E233D PUSH1 0xE0 SHL DUP2 MSTORE PUSH1 0x4 SWAP1 REVERT JUMPDEST PUSH4 0xD92E233D PUSH1 0xE0 SHL DUP2 MSTORE PUSH1 0x4 SWAP1 REVERT JUMPDEST ADD MLOAD SWAP1 POP CODESIZE DUP1 PUSH3 0x1B7 JUMP JUMPDEST PUSH1 0x1 PUSH1 0x0 SWAP1 DUP2 MSTORE SWAP4 POP PUSH1 0x0 DUP1 MLOAD PUSH1 0x20 PUSH3 0x70F7 DUP4 CODECOPY DUP2 MLOAD SWAP2 MSTORE SWAP2 SWAP1 JUMPDEST PUSH1 0x1F NOT DUP5 AND DUP6 LT PUSH3 0x124E JUMPI PUSH1 0x1 SWAP5 POP DUP4 PUSH1 0x1F NOT DUP2 AND LT PUSH3 0x1234 JUMPI JUMPDEST POP POP POP DUP2 SHL ADD PUSH1 0x1 SSTORE PUSH3 0x1CD JUMP JUMPDEST ADD MLOAD PUSH1 0x0 NOT PUSH1 0xF8 DUP5 PUSH1 0x3 SHL AND SHR NOT AND SWAP1 SSTORE CODESIZE DUP1 DUP1 PUSH3 0x1225 JUMP JUMPDEST DUP2 DUP2 ADD MLOAD DUP4 SSTORE PUSH1 0x20 SWAP5 DUP6 ADD SWAP5 PUSH1 0x1 SWAP1 SWAP4 ADD SWAP3 SWAP1 SWAP2 ADD SWAP1 PUSH3 0x1208 JUMP JUMPDEST PUSH1 0x1 PUSH1 0x0 MSTORE SWAP1 SWAP2 POP PUSH1 0x0 DUP1 MLOAD PUSH1 0x20 PUSH3 0x70F7 DUP4 CODECOPY DUP2 MLOAD SWAP2 MSTORE PUSH1 0x1F DUP5 ADD PUSH1 0x5 SHR DUP2 ADD SWAP2 PUSH1 0x20 DUP6 LT PUSH3 0x12C3 JUMPI JUMPDEST SWAP1 PUSH1 0x1F DUP6 SWAP5 SWAP4 SWAP3 ADD PUSH1 0x5 SHR ADD SWAP1 JUMPDEST DUP2 DUP2 LT PUSH3 0x12B3 JUMPI POP PUSH3 0x19E JUMP JUMPDEST PUSH1 0x0 DUP2 SSTORE DUP5 SWAP4 POP PUSH1 0x1 ADD PUSH3 0x12A4 JUMP JUMPDEST SWAP1 SWAP2 POP DUP2 SWAP1 PUSH3 0x1296 JUMP JUMPDEST SWAP2 PUSH1 0x7F AND SWAP2 PUSH3 0x188 JUMP JUMPDEST ADD MLOAD SWAP1 POP CODESIZE DUP1 PUSH3 0x14D JUMP JUMPDEST PUSH1 0x0 DUP1 DUP1 MSTORE SWAP4 POP PUSH1 0x0 DUP1 MLOAD PUSH1 0x20 PUSH3 0x70B7 DUP4 CODECOPY DUP2 MLOAD SWAP2 MSTORE SWAP2 SWAP1 JUMPDEST PUSH1 0x1F NOT DUP5 AND DUP6 LT PUSH3 0x1345 JUMPI PUSH1 0x1 SWAP5 POP DUP4 PUSH1 0x1F NOT DUP2 AND LT PUSH3 0x132B JUMPI JUMPDEST POP POP POP DUP2 SHL ADD PUSH1 0x0 SSTORE PUSH3 0x163 JUMP JUMPDEST ADD MLOAD PUSH1 0x0 NOT PUSH1 0xF8 DUP5 PUSH1 0x3 SHL AND SHR NOT AND SWAP1 SSTORE CODESIZE DUP1 DUP1 PUSH3 0x131C JUMP JUMPDEST DUP2 DUP2 ADD MLOAD DUP4 SSTORE PUSH1 0x20 SWAP5 DUP6 ADD SWAP5 PUSH1 0x1 SWAP1 SWAP4 ADD SWAP3 SWAP1 SWAP2 ADD SWAP1 PUSH3 0x12FF JUMP JUMPDEST PUSH1 0x0 DUP1 MSTORE SWAP1 SWAP2 POP PUSH1 0x0 DUP1 MLOAD PUSH1 0x20 PUSH3 0x70B7 DUP4 CODECOPY DUP2 MLOAD SWAP2 MSTORE PUSH1 0x1F DUP5 ADD PUSH1 0x5 SHR DUP2 ADD PUSH1 0x20 DUP6 LT PUSH3 0x13B9 JUMPI JUMPDEST SWAP1 DUP5 SWAP4 SWAP3 SWAP2 JUMPDEST PUSH1 0x1F DUP4 ADD PUSH1 0x5 SHR DUP3 ADD DUP2 LT PUSH3 0x13A9 JUMPI POP POP PUSH3 0x134 JUMP JUMPDEST PUSH1 0x0 DUP2 SSTORE DUP6 SWAP5 POP PUSH1 0x1 ADD PUSH3 0x1391 JUMP JUMPDEST POP DUP1 PUSH3 0x138B JUMP JUMPDEST SWAP2 PUSH1 0x7F AND SWAP2 PUSH3 0x11E JUMP JUMPDEST PUSH1 0x0 DUP1 REVERT JUMPDEST PUSH1 0xA0 DUP2 ADD SWAP1 DUP2 LT PUSH1 0x1 PUSH1 0x1 PUSH1 0x40 SHL SUB DUP3 GT OR PUSH3 0xB1A JUMPI PUSH1 0x40 MSTORE JUMP JUMPDEST PUSH1 0x40 DUP2 ADD SWAP1 DUP2 LT PUSH1 0x1 PUSH1 0x1 PUSH1 0x40 SHL SUB DUP3 GT OR PUSH3 0xB1A JUMPI PUSH1 0x40 MSTORE JUMP JUMPDEST PUSH1 0x1F SWAP1 SWAP2 ADD PUSH1 0x1F NOT AND DUP2 ADD SWAP1 PUSH1 0x1 PUSH1 0x1 PUSH1 0x40 SHL SUB DUP3 GT SWAP1 DUP3 LT OR PUSH3 0xB1A JUMPI PUSH1 0x40 MSTORE JUMP JUMPDEST SWAP2 SWAP1 DUP1 PUSH1 0x1F DUP5 ADD SLT ISZERO PUSH3 0x13CC JUMPI DUP3 MLOAD SWAP1 PUSH1 0x1 PUSH1 0x1 PUSH1 0x40 SHL SUB DUP3 GT PUSH3 0xB1A JUMPI PUSH1 0x40 MLOAD SWAP2 PUSH1 0x20 SWAP2 PUSH3 0x1469 PUSH1 0x1F DUP4 ADD PUSH1 0x1F NOT AND DUP5 ADD DUP6 PUSH3 0x1409 JUMP JUMPDEST DUP2 DUP5 MSTORE DUP3 DUP3 DUP8 ADD ADD GT PUSH3 0x13CC JUMPI PUSH1 0x0 JUMPDEST DUP2 DUP2 LT PUSH3 0x1490 JUMPI POP DUP3 PUSH1 0x0 SWAP4 SWAP5 SWAP6 POP ADD ADD MSTORE SWAP1 JUMP JUMPDEST DUP6 DUP2 ADD DUP4 ADD MLOAD DUP5 DUP3 ADD DUP5 ADD MSTORE DUP3 ADD PUSH3 0x147A JUMP JUMPDEST MLOAD SWAP1 PUSH1 0x1 PUSH1 0x1 PUSH1 0xA0 SHL SUB DUP3 AND DUP3 SUB PUSH3 0x13CC JUMPI JUMP JUMPDEST PUSH1 0x11 SLOAD PUSH9 0x10000000000000000 DUP2 LT ISZERO PUSH3 0xB1A JUMPI PUSH1 0x1 DUP1 DUP3 ADD DUP1 PUSH1 0x11 SSTORE DUP3 LT ISZERO PUSH3 0xD12 JUMPI PUSH1 0x11 PUSH1 0x0 SWAP1 DUP2 MSTORE DUP4 MLOAD DUP1 MLOAD PUSH1 0x20 SWAP5 PUSH1 0x1 PUSH1 0x1 PUSH1 0x40 SHL SUB SWAP5 SWAP4 SWAP2 PUSH1 0x5 SWAP1 SWAP2 MUL PUSH1 0x0 DUP1 MLOAD PUSH1 0x20 PUSH3 0x7097 DUP4 CODECOPY DUP2 MLOAD SWAP2 MSTORE ADD SWAP1 DUP6 DUP2 GT PUSH3 0x17B7 JUMPI DUP2 SLOAD SWAP4 DUP6 DUP6 DUP2 SHR SWAP6 AND DUP1 ISZERO PUSH3 0x17AC JUMPI JUMPDEST DUP9 DUP7 LT EQ PUSH3 0x1798 JUMPI PUSH1 0x1F SWAP5 DUP6 DUP2 GT PUSH3 0x1750 JUMPI JUMPDEST POP DUP8 SWAP1 DUP6 DUP4 GT PUSH1 0x1 EQ PUSH3 0x16E1 JUMPI SWAP2 DUP1 PUSH1 0x80 SWAP5 SWAP3 PUSH1 0x4 SWAP5 DUP8 SWAP3 PUSH3 0x16D5 JUMPI JUMPDEST POP POP PUSH1 0x0 NOT PUSH1 0x3 DUP4 SWAP1 SHL SHR NOT AND SWAP1 DUP8 SHL OR DUP2 SSTORE JUMPDEST DUP8 DUP10 ADD MLOAD DUP7 DUP3 ADD SSTORE PUSH1 0x40 DUP10 ADD MLOAD PUSH1 0x2 DUP3 ADD SSTORE PUSH1 0x60 DUP10 ADD MLOAD PUSH1 0x3 DUP3 ADD SSTORE ADD SWAP7 ADD MLOAD SWAP1 DUP2 MLOAD SWAP5 DUP6 GT PUSH3 0x16C1 JUMPI DUP7 SLOAD DUP5 DUP2 DUP2 SHR SWAP2 AND DUP1 ISZERO PUSH3 0x16B6 JUMPI JUMPDEST DUP8 DUP3 LT EQ PUSH3 0x16A2 JUMPI DUP4 DUP2 GT PUSH3 0x165A JUMPI JUMPDEST POP DUP6 SWAP3 DUP6 GT PUSH1 0x1 EQ PUSH3 0x15F7 JUMPI SWAP4 SWAP5 POP DUP5 SWAP3 SWAP2 SWAP1 DUP4 PUSH3 0x15EB JUMPI JUMPDEST POP POP SHL SWAP2 PUSH1 0x0 NOT SWAP1 PUSH1 0x3 SHL SHR NOT AND OR SWAP1 SSTORE JUMP JUMPDEST ADD MLOAD SWAP3 POP CODESIZE DUP1 PUSH3 0x15D8 JUMP JUMPDEST DUP7 DUP2 MSTORE DUP6 DUP2 KECCAK256 SWAP4 SWAP6 DUP6 SWAP2 PUSH1 0x1F NOT DUP4 AND SWAP2 JUMPDEST DUP9 DUP4 DUP4 LT PUSH3 0x163F JUMPI POP POP POP LT PUSH3 0x1625 JUMPI JUMPDEST POP POP POP DUP2 SHL ADD SWAP1 SSTORE JUMP JUMPDEST ADD MLOAD PUSH1 0x0 NOT PUSH1 0xF8 DUP5 PUSH1 0x3 SHL AND SHR NOT AND SWAP1 SSTORE CODESIZE DUP1 DUP1 PUSH3 0x161B JUMP JUMPDEST DUP6 DUP8 ADD MLOAD DUP9 SSTORE SWAP1 SWAP7 ADD SWAP6 SWAP5 DUP6 ADD SWAP5 DUP8 SWAP4 POP SWAP1 DUP2 ADD SWAP1 PUSH3 0x1608 JUMP JUMPDEST DUP8 DUP3 MSTORE DUP7 DUP3 KECCAK256 DUP5 DUP1 DUP9 ADD PUSH1 0x5 SHR DUP3 ADD SWAP3 DUP10 DUP10 LT PUSH3 0x1698 JUMPI JUMPDEST ADD PUSH1 0x5 SHR ADD SWAP1 DUP6 SWAP1 JUMPDEST DUP3 DUP2 LT PUSH3 0x168C JUMPI POP POP PUSH3 0x15BD JUMP JUMPDEST DUP4 DUP2 SSTORE ADD DUP6 SWAP1 PUSH3 0x167C JUMP JUMPDEST SWAP3 POP DUP2 SWAP3 PUSH3 0x1673 JUMP JUMPDEST PUSH4 0x4E487B71 PUSH1 0xE0 SHL DUP3 MSTORE PUSH1 0x22 PUSH1 0x4 MSTORE PUSH1 0x24 DUP3 REVERT JUMPDEST SWAP1 PUSH1 0x7F AND SWAP1 PUSH3 0x15AB JUMP JUMPDEST PUSH4 0x4E487B71 PUSH1 0xE0 SHL DUP2 MSTORE PUSH1 0x41 PUSH1 0x4 MSTORE PUSH1 0x24 SWAP1 REVERT JUMPDEST ADD MLOAD SWAP1 POP CODESIZE DUP1 PUSH3 0x155C JUMP JUMPDEST DUP4 DUP6 MSTORE DUP9 DUP6 KECCAK256 DUP8 SWAP4 SWAP3 SWAP1 SWAP2 PUSH1 0x1F NOT DUP5 AND DUP8 JUMPDEST DUP13 DUP3 DUP3 LT PUSH3 0x1739 JUMPI POP POP SWAP2 PUSH1 0x4 SWAP6 SWAP4 SWAP2 DUP6 PUSH1 0x80 SWAP9 SWAP7 SWAP5 LT PUSH3 0x171F JUMPI JUMPDEST POP POP POP DUP2 SHL ADD DUP2 SSTORE PUSH3 0x1570 JUMP JUMPDEST ADD MLOAD PUSH1 0x0 NOT PUSH1 0xF8 DUP5 PUSH1 0x3 SHL AND SHR NOT AND SWAP1 SSTORE CODESIZE DUP1 DUP1 PUSH3 0x1711 JUMP JUMPDEST DUP4 DUP6 ADD MLOAD DUP7 SSTORE DUP12 SWAP8 SWAP1 SWAP6 ADD SWAP5 SWAP4 DUP5 ADD SWAP4 ADD PUSH3 0x16F3 JUMP JUMPDEST DUP4 DUP6 MSTORE DUP9 DUP6 KECCAK256 DUP7 DUP1 DUP6 ADD PUSH1 0x5 SHR DUP3 ADD SWAP3 DUP12 DUP7 LT PUSH3 0x178E JUMPI JUMPDEST ADD PUSH1 0x5 SHR ADD SWAP1 DUP8 SWAP1 JUMPDEST DUP3 DUP2 LT PUSH3 0x1782 JUMPI POP POP PUSH3 0x153D JUMP JUMPDEST DUP7 DUP2 SSTORE ADD DUP8 SWAP1 PUSH3 0x1772 JUMP JUMPDEST SWAP3 POP DUP2 SWAP3 PUSH3 0x1769 JUMP JUMPDEST PUSH4 0x4E487B71 PUSH1 0xE0 SHL DUP5 MSTORE PUSH1 0x22 PUSH1 0x4 MSTORE PUSH1 0x24 DUP5 REVERT JUMPDEST SWAP5 PUSH1 0x7F AND SWAP5 PUSH3 0x1528 JUMP JUMPDEST PUSH4 0x4E487B71 PUSH1 0xE0 SHL DUP4 MSTORE PUSH1 0x41 PUSH1 0x4 MSTORE PUSH1 0x24 DUP4 REVERT JUMPDEST PUSH1 0x40 MLOAD SWAP1 PUSH3 0x17DA DUP3 PUSH3 0x13ED JUMP JUMPDEST PUSH1 0x9 DUP3 MSTORE PUSH9 0x4C6567656E64617279 PUSH1 0xB8 SHL PUSH1 0x20 DUP4 ADD MSTORE JUMP INVALID PUSH1 0x80 PUSH1 0x40 DUP2 DUP2 MSTORE PUSH1 0x4 SWAP2 DUP3 CALLDATASIZE LT ISZERO PUSH2 0x16 JUMPI PUSH1 0x0 DUP1 REVERT JUMPDEST PUSH1 0x0 SWAP3 DUP4 CALLDATALOAD PUSH1 0xE0 SHR SWAP2 DUP3 PUSH4 0x1FFC9A7 EQ PUSH2 0x3F58 JUMPI POP DUP2 PUSH4 0x2BDD755 EQ PUSH2 0x3EF7 JUMPI DUP2 PUSH4 0x2FA7C47 EQ PUSH2 0x3E1C JUMPI DUP2 PUSH4 0x61886CD EQ PUSH2 0x3DC6 JUMPI DUP2 PUSH4 0x6FDDE03 EQ PUSH2 0x3D3F JUMPI DUP2 PUSH4 0x81812FC EQ PUSH2 0x3D1F JUMPI DUP2 PUSH4 0x951984D EQ PUSH2 0x3CE7 JUMPI DUP2 PUSH4 0x95EA7B3 EQ PUSH2 0x3B79 JUMPI DUP2 PUSH4 0xC4AD45B EQ PUSH2 0x3B5A JUMPI DUP2 PUSH4 0xCBF54C8 EQ PUSH2 0x3B3B JUMPI DUP2 PUSH4 0x1581B600 EQ PUSH2 0x3B0E JUMPI DUP2 PUSH4 0x1C06ADCD EQ PUSH2 0x3AE6 JUMPI DUP2 PUSH4 0x1CFFF51B EQ PUSH2 0x3AC2 JUMPI DUP2 PUSH4 0x23B872DD EQ PUSH2 0x3A9D JUMPI DUP2 PUSH4 0x248A9CA3 EQ PUSH2 0x3A72 JUMPI DUP2 PUSH4 0x250AEEB7 EQ PUSH2 0x3A19 JUMPI DUP2 PUSH4 0x275B1EFB EQ PUSH2 0x39D1 JUMPI DUP2 PUSH4 0x2A55205A EQ PUSH2 0x397F JUMPI DUP2 PUSH4 0x2CB2F52E EQ PUSH2 0x38C9 JUMPI DUP2 PUSH4 0x2E17DE78 EQ PUSH2 0x3767 JUMPI DUP2 PUSH4 0x2E93BE30 EQ PUSH2 0x36D6 JUMPI DUP2 PUSH4 0x2F2FF15D EQ PUSH2 0x3638 JUMPI DUP2 PUSH4 0x36568ABE EQ PUSH2 0x35A6 JUMPI DUP2 PUSH4 0x3AB1A494 EQ PUSH2 0x3514 JUMPI DUP2 PUSH4 0x3AF32ABF EQ PUSH2 0x1828 JUMPI DUP2 PUSH4 0x3B8105B3 EQ PUSH2 0x3308 JUMPI DUP2 PUSH4 0x3CCFD60B EQ PUSH2 0x327F JUMPI DUP2 PUSH4 0x3F244F04 EQ PUSH2 0x3257 JUMPI DUP2 PUSH4 0x42842E0E EQ PUSH2 0x3223 JUMPI DUP2 PUSH4 0x43508B05 EQ PUSH2 0x30A3 JUMPI DUP2 PUSH4 0x439766CE EQ PUSH2 0x305A JUMPI DUP2 PUSH4 0x4542FC46 EQ PUSH2 0x303B JUMPI DUP2 PUSH4 0x484B973C EQ PUSH2 0x2F28 JUMPI DUP2 PUSH4 0x4D3554C3 EQ PUSH2 0x2D05 JUMPI DUP2 PUSH4 0x512D5C61 EQ PUSH2 0x2CE8 JUMPI DUP2 PUSH4 0x51830227 EQ PUSH2 0x2CC4 JUMPI DUP2 PUSH4 0x51C7115B EQ PUSH2 0x2CA7 JUMPI DUP2 PUSH4 0x521C46D8 EQ PUSH2 0x2C5A JUMPI DUP2 PUSH4 0x548DB174 EQ PUSH2 0x2BA1 JUMPI DUP2 PUSH4 0x555EC78B EQ PUSH2 0x2B40 JUMPI DUP2 PUSH4 0x55F804B3 EQ PUSH2 0x2A42 JUMPI DUP2 PUSH4 0x5C975ABB EQ PUSH2 0x2A1E JUMPI DUP2 PUSH4 0x6352211E EQ PUSH2 0x29ED JUMPI DUP2 PUSH4 0x63A599A4 EQ PUSH2 0x29C6 JUMPI DUP2 PUSH4 0x694D9778 EQ PUSH2 0x1866 JUMPI DUP2 PUSH4 0x6A627842 EQ PUSH2 0x287A JUMPI DUP2 PUSH4 0x6C0360EB EQ PUSH2 0x27AB JUMPI DUP2 PUSH4 0x70A08231 EQ PUSH2 0x2715 JUMPI DUP2 PUSH4 0x715018A6 EQ PUSH2 0x26CA JUMPI DUP2 PUSH4 0x75B238FC EQ PUSH2 0x26A1 JUMPI DUP2 PUSH4 0x771282F6 EQ PUSH2 0x2682 JUMPI DUP2 PUSH4 0x78BC0301 EQ PUSH2 0x2513 JUMPI DUP2 PUSH4 0x7F649783 EQ PUSH2 0x2429 JUMPI DUP4 DUP3 PUSH4 0x819D4CC6 EQ PUSH2 0x2393 JUMPI POP DUP2 PUSH4 0x868FF4A2 EQ PUSH2 0x2197 JUMPI DUP2 PUSH4 0x8980F11F EQ PUSH2 0x20A7 JUMPI DUP2 PUSH4 0x8CDB026D EQ PUSH2 0x203A JUMPI DUP2 PUSH4 0x8D2C4488 EQ PUSH2 0x1FA4 JUMPI DUP2 PUSH4 0x8D63A272 EQ PUSH2 0x1D39 JUMPI DUP2 PUSH4 0x8DA5CB5B EQ PUSH2 0x1D10 JUMPI DUP2 PUSH4 0x8ECAD721 EQ PUSH2 0x1CF4 JUMPI DUP2 PUSH4 0x91052816 EQ PUSH2 0x1CB9 JUMPI DUP2 PUSH4 0x91D14854 EQ PUSH2 0x1C73 JUMPI DUP2 PUSH4 0x92228006 EQ PUSH2 0x1C4F JUMPI DUP2 PUSH4 0x938E3D7B EQ PUSH2 0x1ADD JUMPI DUP2 PUSH4 0x9470FC93 EQ PUSH2 0x19F6 JUMPI DUP2 PUSH4 0x95D89B41 EQ PUSH2 0x1943 JUMPI DUP2 PUSH4 0x969CE9CF EQ PUSH2 0x189E JUMPI DUP2 PUSH4 0x98A8CFFE EQ PUSH2 0x1866 JUMPI DUP2 PUSH4 0x9B19251A EQ PUSH2 0x1828 JUMPI DUP2 PUSH4 0xA0484DDA EQ PUSH2 0x17E2 JUMPI DUP2 PUSH4 0xA04A6AC8 EQ PUSH2 0x17C3 JUMPI DUP2 PUSH4 0xA217FDDF EQ PUSH2 0x17A8 JUMPI DUP2 PUSH4 0xA22CB465 EQ PUSH2 0x16D9 JUMPI DUP2 PUSH4 0xA30C4055 EQ PUSH2 0x1689 JUMPI DUP2 PUSH4 0xA475B5DD EQ PUSH2 0x1623 JUMPI DUP2 PUSH4 0xA694FC3A EQ PUSH2 0x153A JUMPI DUP2 PUSH4 0xAE1A01A2 EQ PUSH2 0x148D JUMPI DUP2 PUSH4 0xB33712C5 EQ PUSH2 0x1443 JUMPI DUP2 PUSH4 0xB88D4FDE EQ PUSH2 0x13B8 JUMPI DUP2 PUSH4 0xBB9391A1 EQ PUSH2 0x1393 JUMPI DUP2 PUSH4 0xC0788555 EQ PUSH2 0x687 JUMPI DUP2 PUSH4 0xC0E72740 EQ PUSH2 0x722 JUMPI DUP2 PUSH4 0xC2127793 EQ PUSH2 0x1238 JUMPI DUP2 PUSH4 0xC73D7C7B EQ PUSH2 0x112D JUMPI DUP2 PUSH4 0xC87B56DD EQ PUSH2 0x10F9 JUMPI DUP2 PUSH4 0xCBC85D6F EQ PUSH2 0xFA1 JUMPI DUP2 PUSH4 0xD12F743A EQ PUSH2 0xF7D JUMPI DUP2 PUSH4 0xD2ACD13D EQ PUSH2 0xD60 JUMPI DUP2 PUSH4 0xD5391393 EQ PUSH2 0xD37 JUMPI DUP2 PUSH4 0xD547741F EQ PUSH2 0xD07 JUMPI DUP2 PUSH4 0xD5ABEB01 EQ PUSH2 0xCEA JUMPI DUP2 PUSH4 0xD756985B EQ PUSH2 0xCCB JUMPI DUP2 PUSH4 0xD7AF40E5 EQ PUSH2 0xC73 JUMPI DUP2 PUSH4 0xDB2E21BC EQ PUSH2 0xBD3 JUMPI DUP2 PUSH4 0xDFE6B5D6 EQ PUSH2 0xB4B JUMPI DUP2 PUSH4 0xE4B7FB73 EQ PUSH2 0xB0B JUMPI DUP2 PUSH4 0xE4DAD1EE EQ PUSH2 0xA8E JUMPI DUP2 PUSH4 0xE58306F9 EQ PUSH2 0x764 JUMPI DUP2 PUSH4 0xE8A3D485 EQ PUSH2 0x722 JUMPI DUP2 PUSH4 0xE985E9C5 EQ PUSH2 0x6D2 JUMPI DUP2 PUSH4 0xEB54F9EC EQ PUSH2 0x6B3 JUMPI DUP2 PUSH4 0xF0A52424 EQ PUSH2 0x687 JUMPI DUP2 PUSH4 0xF2FDE38B EQ PUSH2 0x5D2 JUMPI DUP2 PUSH4 0xF90ADCCC EQ PUSH2 0x576 JUMPI DUP2 PUSH4 0xFAF53169 EQ PUSH2 0x554 JUMPI DUP2 PUSH4 0xFE67A54B EQ PUSH2 0x4EC JUMPI POP PUSH4 0xFF6E36ED EQ PUSH2 0x4CB JUMPI PUSH1 0x0 DUP1 REVERT JUMPDEST CALLVALUE PUSH2 0x4E8 JUMPI DUP2 PUSH1 0x3 NOT CALLDATASIZE ADD SLT PUSH2 0x4E8 JUMPI PUSH1 0x20 SWAP1 PUSH1 0x17 SLOAD SWAP1 MLOAD SWAP1 DUP2 MSTORE RETURN JUMPDEST POP DUP1 REVERT JUMPDEST SWAP1 POP CALLVALUE PUSH2 0x550 JUMPI DUP3 PUSH1 0x3 NOT CALLDATASIZE ADD SLT PUSH2 0x550 JUMPI PUSH2 0x506 PUSH2 0x4508 JUMP JUMPDEST PUSH1 0x1E SLOAD SWAP2 PUSH1 0xFF DUP4 AND ISZERO PUSH2 0x543 JUMPI POP POP PUSH1 0xFF NOT AND PUSH1 0x1E SSTORE PUSH32 0xA0E92984607195C326795751263414EE1074526323552E694C90EF2B99AE3F29 DUP2 DUP1 LOG1 DUP1 RETURN JUMPDEST MLOAD PUSH4 0x34DC687F PUSH1 0xE1 SHL DUP2 MSTORE REVERT JUMPDEST DUP3 DUP1 REVERT JUMPDEST DUP4 SWAP1 CALLVALUE PUSH2 0x4E8 JUMPI PUSH1 0x20 CALLDATASIZE PUSH1 0x3 NOT ADD SLT PUSH2 0x4E8 JUMPI PUSH2 0x56F PUSH2 0x4508 JUMP JUMPDEST CALLDATALOAD PUSH1 0x17 SSTORE DUP1 RETURN JUMPDEST POP POP CALLVALUE PUSH2 0x4E8 JUMPI PUSH1 0x20 CALLDATASIZE PUSH1 0x3 NOT ADD SLT PUSH2 0x4E8 JUMPI PUSH1 0x20 SWAP2 PUSH1 0x1 PUSH1 0x1 PUSH1 0xA0 SHL SUB PUSH2 0x59C PUSH2 0x4020 JUMP JUMPDEST AND DUP2 MSTORE PUSH1 0x15 DUP4 MSTORE DUP2 DUP2 KECCAK256 SLOAD PUSH1 0xFF AND ISZERO PUSH2 0x5CC JUMPI PUSH2 0x5C4 SWAP1 DUP3 PUSH1 0x17 SLOAD SWAP2 PUSH1 0x16 DUP7 MSTORE KECCAK256 SLOAD SWAP1 PUSH2 0x52A1 JUMP JUMPDEST SWAP1 JUMPDEST MLOAD SWAP1 DUP2 MSTORE RETURN JUMPDEST SWAP1 PUSH2 0x5C6 JUMP JUMPDEST SWAP1 POP CALLVALUE PUSH2 0x550 JUMPI PUSH1 0x20 CALLDATASIZE PUSH1 0x3 NOT ADD SLT PUSH2 0x550 JUMPI PUSH2 0x5ED PUSH2 0x4020 JUMP JUMPDEST SWAP1 PUSH2 0x5F6 PUSH2 0x4508 JUMP JUMPDEST PUSH1 0x1 PUSH1 0x1 PUSH1 0xA0 SHL SUB SWAP2 DUP3 AND SWAP3 DUP4 ISZERO PUSH2 0x635 JUMPI POP POP PUSH1 0x7 DUP1 SLOAD PUSH1 0x1 PUSH1 0x1 PUSH1 0xA0 SHL SUB NOT DUP2 AND DUP5 OR SWAP1 SWAP2 SSTORE AND PUSH1 0x0 DUP1 MLOAD PUSH1 0x20 PUSH2 0x56CF DUP4 CODECOPY DUP2 MLOAD SWAP2 MSTORE PUSH1 0x0 DUP1 LOG3 DUP1 RETURN JUMPDEST SWAP1 PUSH1 0x20 PUSH1 0x84 SWAP3 MLOAD SWAP2 PUSH3 0x461BCD PUSH1 0xE5 SHL DUP4 MSTORE DUP3 ADD MSTORE PUSH1 0x26 PUSH1 0x24 DUP3 ADD MSTORE PUSH32 0x4F776E61626C653A206E6577206F776E657220697320746865207A65726F2061 PUSH1 0x44 DUP3 ADD MSTORE PUSH6 0x646472657373 PUSH1 0xD0 SHL PUSH1 0x64 DUP3 ADD MSTORE REVERT JUMPDEST SWAP1 POP CALLVALUE PUSH2 0x550 JUMPI PUSH1 0x20 CALLDATASIZE PUSH1 0x3 NOT ADD SLT PUSH2 0x550 JUMPI DUP2 PUSH1 0x20 SWAP4 PUSH1 0xFF SWAP3 CALLDATALOAD DUP2 MSTORE DUP5 DUP1 MSTORE KECCAK256 SLOAD AND SWAP1 MLOAD SWAP1 ISZERO ISZERO DUP2 MSTORE RETURN JUMPDEST POP POP CALLVALUE PUSH2 0x4E8 JUMPI DUP2 PUSH1 0x3 NOT CALLDATASIZE ADD SLT PUSH2 0x4E8 JUMPI PUSH1 0x20 SWAP1 PUSH1 0x1B SLOAD SWAP1 MLOAD SWAP1 DUP2 MSTORE RETURN JUMPDEST POP POP CALLVALUE PUSH2 0x4E8 JUMPI DUP1 PUSH1 0x3 NOT CALLDATASIZE ADD SLT PUSH2 0x4E8 JUMPI PUSH1 0x20 SWAP2 PUSH2 0x6EF PUSH2 0x4020 JUMP JUMPDEST DUP3 PUSH2 0x6F8 PUSH2 0x4036 JUMP JUMPDEST SWAP3 PUSH1 0x1 DUP1 PUSH1 0xA0 SHL SUB DUP1 SWAP4 AND DUP2 MSTORE PUSH1 0x5 DUP7 MSTORE KECCAK256 SWAP2 AND PUSH1 0x0 MSTORE DUP3 MSTORE PUSH1 0xFF DUP2 PUSH1 0x0 KECCAK256 SLOAD AND SWAP1 MLOAD SWAP1 ISZERO ISZERO DUP2 MSTORE RETURN JUMPDEST POP POP CALLVALUE PUSH2 0x4E8 JUMPI DUP2 PUSH1 0x3 NOT CALLDATASIZE ADD SLT PUSH2 0x4E8 JUMPI DUP1 MLOAD PUSH2 0x760 SWAP2 PUSH2 0x74E DUP3 PUSH2 0x747 DUP2 PUSH2 0x4279 JUMP JUMPDEST SUB DUP4 PUSH2 0x43E0 JUMP JUMPDEST MLOAD SWAP2 DUP3 SWAP2 PUSH1 0x20 DUP4 MSTORE PUSH1 0x20 DUP4 ADD SWAP1 PUSH2 0x409D JUMP JUMPDEST SUB SWAP1 RETURN JUMPDEST DUP4 SWAP2 POP CALLVALUE PUSH2 0x4E8 JUMPI DUP3 PUSH1 0x3 NOT CALLDATASIZE ADD SLT PUSH2 0x4E8 JUMPI PUSH2 0x77F PUSH2 0x4020 JUMP JUMPDEST SWAP3 PUSH1 0x24 SWAP4 DUP5 CALLDATALOAD SWAP1 PUSH1 0x0 DUP1 MLOAD PUSH1 0x20 PUSH2 0x56EF DUP4 CODECOPY DUP2 MLOAD SWAP2 MSTORE SWAP6 DUP7 PUSH1 0x0 MSTORE PUSH1 0x20 SWAP7 PUSH1 0xA DUP9 MSTORE DUP5 PUSH1 0x0 KECCAK256 CALLER PUSH1 0x0 MSTORE DUP9 MSTORE PUSH1 0xFF DUP6 PUSH1 0x0 KECCAK256 SLOAD AND ISZERO PUSH2 0x8DA JUMPI POP POP DUP2 ISZERO PUSH2 0x8CB JUMPI PUSH1 0xC SWAP4 PUSH2 0x3E8 PUSH2 0x7D1 DUP5 DUP8 SLOAD PUSH2 0x4F2D JUMP JUMPDEST GT PUSH2 0x8BD JUMPI POP PUSH1 0xB DUP1 SLOAD SWAP1 SWAP7 PUSH1 0x1 PUSH1 0x1 PUSH1 0xA0 SHL SUB DUP4 AND SWAP6 SWAP2 SWAP3 SWAP1 SWAP2 SWAP1 DUP8 JUMPDEST DUP6 DUP2 LT PUSH2 0x818 JUMPI POP POP POP PUSH1 0x0 DUP1 MLOAD PUSH1 0x20 PUSH2 0x580F DUP4 CODECOPY DUP2 MLOAD SWAP2 MSTORE SWAP5 SWAP6 SWAP7 POP DUP4 MLOAD SWAP3 DUP4 MSTORE DUP3 ADD MSTORE LOG2 DUP1 RETURN JUMPDEST PUSH2 0x8B8 SWAP1 DUP11 DUP10 PUSH1 0x0 DUP1 MLOAD PUSH1 0x20 PUSH2 0x56AF DUP4 CODECOPY DUP2 MLOAD SWAP2 MSTORE DUP11 DUP1 DUP15 PUSH2 0x838 PUSH2 0x4F3A JUMP JUMPDEST SWAP2 DUP3 SWAP2 DUP8 SLOAD SWAP8 PUSH2 0x848 DUP10 DUP14 PUSH2 0x4BC9 JUMP JUMPDEST PUSH1 0x1 DUP2 SLOAD ADD SWAP1 SSTORE PUSH2 0x859 DUP13 SLOAD PUSH2 0x4B0A JUMP JUMPDEST DUP13 SSTORE DUP8 DUP2 MSTORE PUSH1 0x12 DUP14 MSTORE KECCAK256 SSTORE PUSH1 0x3 PUSH2 0x86F DUP3 PUSH2 0x4473 JUMP JUMPDEST POP ADD PUSH2 0x87B DUP2 SLOAD PUSH2 0x4B0A JUMP JUMPDEST SWAP1 SSTORE PUSH2 0x88F PUSH2 0x889 DUP7 PUSH2 0x50B7 JUMP JUMPDEST DUP7 PUSH2 0x4DB8 JUMP JUMPDEST PUSH2 0x8B0 PUSH2 0x89B DUP3 PUSH2 0x4473 JUMP JUMPDEST POP DUP4 MLOAD SWAP4 DUP5 SWAP4 DUP5 MSTORE DUP1 DUP14 DUP6 ADD MSTORE DUP4 ADD SWAP1 PUSH2 0x42E3 JUMP JUMPDEST SUB SWAP1 LOG3 PUSH2 0x4B0A JUMP JUMPDEST PUSH2 0x7EF JUMP JUMPDEST DUP4 MLOAD PUSH4 0xC30436E9 PUSH1 0xE0 SHL DUP2 MSTORE REVERT JUMPDEST POP POP MLOAD PUSH4 0x524F409B PUSH1 0xE0 SHL DUP2 MSTORE REVERT JUMPDEST SWAP3 POP SWAP4 SWAP5 POP POP PUSH2 0x8E9 CALLER PUSH2 0x54CF JUMP JUMPDEST SWAP1 DUP3 MLOAD PUSH2 0x8F5 DUP2 PUSH2 0x43C5 JUMP JUMPDEST PUSH1 0x42 DUP2 MSTORE DUP7 DUP2 ADD SWAP2 PUSH1 0x60 CALLDATASIZE DUP5 CALLDATACOPY DUP2 MLOAD ISZERO PUSH2 0xA7A JUMPI PUSH1 0x30 DUP4 MSTORE8 DUP2 MLOAD PUSH1 0x1 SWAP1 DUP2 LT ISZERO PUSH2 0xA66 JUMPI PUSH1 0x78 PUSH1 0x21 DUP5 ADD MSTORE8 PUSH1 0x41 SWAP1 JUMPDEST DUP1 DUP3 GT PUSH2 0x9FB JUMPI POP POP PUSH2 0x9CD JUMPI PUSH1 0x48 PUSH2 0x9C9 SWAP6 SWAP4 DUP6 SWAP4 PUSH2 0x9B1 SWAP4 PUSH2 0x9A2 SWAP8 MLOAD SWAP8 DUP9 SWAP4 PUSH23 0x20B1B1B2B9B9A1B7B73A3937B61D1030B1B1B7BAB73A1 PUSH1 0x4D SHL DUP14 DUP7 ADD MSTORE PUSH2 0x979 DUP14 DUP3 MLOAD SWAP3 DUP4 SWAP2 PUSH1 0x37 DUP10 ADD SWAP2 ADD PUSH2 0x407A JUMP JUMPDEST DUP5 ADD SWAP2 PUSH17 0x1034B99036B4B9B9B4B733903937B6329 PUSH1 0x7D SHL PUSH1 0x37 DUP5 ADD MSTORE MLOAD DUP1 SWAP4 DUP7 DUP5 ADD SWAP1 PUSH2 0x407A JUMP JUMPDEST ADD SUB PUSH1 0x28 DUP2 ADD DUP7 MSTORE ADD DUP5 PUSH2 0x43E0 JUMP JUMPDEST MLOAD SWAP5 DUP6 SWAP5 PUSH3 0x461BCD PUSH1 0xE5 SHL DUP7 MSTORE DUP6 ADD MSTORE DUP4 ADD SWAP1 PUSH2 0x409D JUMP JUMPDEST SUB SWAP1 REVERT JUMPDEST PUSH1 0x64 DUP7 DUP9 DUP8 DUP2 DUP9 MLOAD SWAP4 PUSH3 0x461BCD PUSH1 0xE5 SHL DUP6 MSTORE DUP5 ADD MSTORE DUP3 ADD MSTORE PUSH1 0x0 DUP1 MLOAD PUSH1 0x20 PUSH2 0x562F DUP4 CODECOPY DUP2 MLOAD SWAP2 MSTORE PUSH1 0x44 DUP3 ADD MSTORE REVERT JUMPDEST SWAP1 SWAP2 PUSH1 0xF DUP2 AND PUSH1 0x10 DUP2 LT ISZERO PUSH2 0xA52 JUMPI PUSH16 0x181899199A1A9B1B9C1CB0B131B232B3 PUSH1 0x81 SHL SWAP1 BYTE PUSH2 0xA2A DUP5 DUP7 PUSH2 0x54BE JUMP JUMPDEST MSTORE8 DUP9 SHR SWAP2 DUP1 ISZERO PUSH2 0xA3E JUMPI PUSH1 0x0 NOT ADD SWAP1 PUSH2 0x924 JUMP JUMPDEST DUP8 PUSH1 0x11 DUP11 PUSH4 0x4E487B71 PUSH1 0xE0 SHL PUSH1 0x0 MSTORE MSTORE PUSH1 0x0 REVERT JUMPDEST DUP9 PUSH1 0x32 DUP12 PUSH4 0x4E487B71 PUSH1 0xE0 SHL PUSH1 0x0 MSTORE MSTORE PUSH1 0x0 REVERT JUMPDEST DUP7 PUSH1 0x32 DUP10 PUSH4 0x4E487B71 PUSH1 0xE0 SHL PUSH1 0x0 MSTORE MSTORE PUSH1 0x0 REVERT JUMPDEST DUP6 PUSH1 0x32 DUP9 PUSH4 0x4E487B71 PUSH1 0xE0 SHL PUSH1 0x0 MSTORE MSTORE PUSH1 0x0 REVERT JUMPDEST DUP4 SWAP2 POP CALLVALUE PUSH2 0x4E8 JUMPI PUSH2 0xA9F CALLDATASIZE PUSH2 0x4455 JUMP JUMPDEST SWAP1 SWAP6 SWAP2 SWAP4 PUSH2 0xAAB PUSH2 0x4508 JUMP JUMPDEST PUSH1 0xFF PUSH1 0x1E SLOAD AND PUSH2 0xAFD JUMPI POP SWAP5 PUSH2 0xAF7 SWAP2 PUSH32 0xD19188BE05E6DDC5A5158014D33CE7D5CE58BDB3B168F1F6760891D7EC6F0971 SWAP6 SWAP7 DUP5 PUSH1 0x19 SSTORE DUP6 PUSH1 0x1A SSTORE DUP3 PUSH1 0x1C SSTORE PUSH1 0x1D SSTORE MLOAD SWAP4 DUP5 SWAP4 DUP5 PUSH2 0x5434 JUMP JUMPDEST SUB SWAP1 LOG1 DUP1 RETURN JUMPDEST DUP3 MLOAD PUSH4 0x34DC687F PUSH1 0xE1 SHL DUP2 MSTORE REVERT JUMPDEST DUP4 DUP4 CALLVALUE PUSH2 0x4E8 JUMPI DUP2 PUSH1 0x3 NOT CALLDATASIZE ADD SLT PUSH2 0x4E8 JUMPI PUSH1 0xC SLOAD SWAP2 PUSH2 0x3E8 SWAP3 DUP4 SUB SWAP3 DUP4 GT PUSH2 0xB38 JUMPI PUSH1 0x20 DUP4 DUP4 MLOAD SWAP1 DUP2 MSTORE RETURN JUMPDEST PUSH4 0x4E487B71 PUSH1 0xE0 SHL DUP2 MSTORE PUSH1 0x11 DUP5 MSTORE PUSH1 0x24 SWAP1 REVERT JUMPDEST DUP3 DUP5 CALLVALUE PUSH2 0xBD0 JUMPI DUP1 PUSH1 0x3 NOT CALLDATASIZE ADD SLT PUSH2 0xBD0 JUMPI PUSH1 0xC SLOAD SWAP2 PUSH2 0x3E8 SWAP2 DUP4 DUP4 SUB SWAP3 DUP4 GT PUSH2 0xBBD JUMPI POP PUSH1 0xE0 SWAP4 POP PUSH1 0x11 SLOAD PUSH1 0xFF PUSH1 0xF SLOAD AND PUSH1 0xFF PUSH1 0x23 SLOAD AND SWAP2 PUSH1 0xFF PUSH1 0x18 SLOAD AND SWAP4 PUSH1 0xFF PUSH1 0x1E SLOAD AND SWAP6 DUP2 MLOAD SWAP8 DUP9 MSTORE PUSH1 0x20 DUP9 ADD MSTORE DUP7 ADD MSTORE ISZERO ISZERO PUSH1 0x60 DUP6 ADD MSTORE ISZERO ISZERO PUSH1 0x80 DUP5 ADD MSTORE ISZERO ISZERO PUSH1 0xA0 DUP4 ADD MSTORE ISZERO ISZERO PUSH1 0xC0 DUP3 ADD MSTORE RETURN JUMPDEST PUSH4 0x4E487B71 PUSH1 0xE0 SHL DUP2 MSTORE PUSH1 0x11 DUP6 MSTORE PUSH1 0x24 SWAP1 REVERT JUMPDEST DUP1 REVERT JUMPDEST SWAP1 POP CALLVALUE PUSH2 0x550 JUMPI DUP3 PUSH1 0x3 NOT CALLDATASIZE ADD SLT PUSH2 0x550 JUMPI PUSH2 0xBED PUSH2 0x4508 JUMP JUMPDEST PUSH2 0xBF5 PUSH2 0x4B73 JUMP JUMPDEST SELFBALANCE SWAP1 DUP2 ISZERO PUSH2 0xC65 JUMPI PUSH1 0x1 DUP1 PUSH1 0xA0 SHL SUB SWAP1 DUP5 DUP1 DUP1 DUP1 DUP7 DUP7 PUSH1 0x7 SLOAD AND GAS CALL PUSH2 0xC19 PUSH2 0x48D5 JUMP JUMPDEST POP ISZERO PUSH2 0xC57 JUMPI POP PUSH32 0x23D6711A1D031134A36921253C75AA59E967D38E369AC625992824315E204F20 SWAP2 PUSH1 0x20 SWAP2 PUSH1 0x7 SLOAD AND SWAP4 MLOAD SWAP1 DUP2 MSTORE LOG2 PUSH1 0x1 PUSH1 0x8 SSTORE DUP1 RETURN JUMPDEST DUP4 MLOAD PUSH4 0x12171D83 PUSH1 0xE3 SHL DUP2 MSTORE REVERT JUMPDEST DUP3 MLOAD PUSH4 0x43F9E11 PUSH1 0xE4 SHL DUP2 MSTORE REVERT JUMPDEST DUP3 DUP5 CALLVALUE PUSH2 0xBD0 JUMPI PUSH1 0x20 CALLDATASIZE PUSH1 0x3 NOT ADD SLT PUSH2 0xBD0 JUMPI POP DUP2 CALLDATALOAD SWAP2 PUSH1 0x11 SLOAD DUP4 LT ISZERO PUSH2 0xCBD JUMPI POP PUSH2 0x5C4 DUP3 PUSH1 0x3 PUSH2 0xCB4 PUSH1 0x2 PUSH2 0xCAB PUSH1 0x20 SWAP8 PUSH2 0x4473 JUMP JUMPDEST POP ADD SLOAD SWAP3 PUSH2 0x4473 JUMP JUMPDEST POP ADD SLOAD SWAP1 PUSH2 0x52A1 JUMP JUMPDEST SWAP1 MLOAD PUSH4 0x511785AD PUSH1 0xE0 SHL DUP2 MSTORE REVERT JUMPDEST POP POP CALLVALUE PUSH2 0x4E8 JUMPI DUP2 PUSH1 0x3 NOT CALLDATASIZE ADD SLT PUSH2 0x4E8 JUMPI PUSH1 0x20 SWAP1 PUSH1 0x19 SLOAD SWAP1 MLOAD SWAP1 DUP2 MSTORE RETURN JUMPDEST POP POP CALLVALUE PUSH2 0x4E8 JUMPI DUP2 PUSH1 0x3 NOT CALLDATASIZE ADD SLT PUSH2 0x4E8 JUMPI PUSH1 0x20 SWAP1 MLOAD PUSH2 0x3E8 DUP2 MSTORE RETURN JUMPDEST SWAP2 SWAP1 POP CALLVALUE PUSH2 0x550 JUMPI CALLDATASIZE PUSH1 0x3 NOT ADD SLT PUSH2 0x4E8 JUMPI PUSH2 0xD34 SWAP1 PUSH2 0xD25 PUSH2 0x4036 JUMP JUMPDEST SWAP1 PUSH2 0xD2E PUSH2 0x4508 JUMP JUMPDEST CALLDATALOAD PUSH2 0x4492 JUMP JUMPDEST DUP1 RETURN JUMPDEST POP POP CALLVALUE PUSH2 0x4E8 JUMPI DUP2 PUSH1 0x3 NOT CALLDATASIZE ADD SLT PUSH2 0x4E8 JUMPI PUSH1 0x20 SWAP1 MLOAD PUSH1 0x0 DUP1 MLOAD PUSH1 0x20 PUSH2 0x56EF DUP4 CODECOPY DUP2 MLOAD SWAP2 MSTORE DUP2 MSTORE RETURN JUMPDEST SWAP2 SWAP1 POP CALLVALUE PUSH2 0x550 JUMPI PUSH1 0x20 DUP1 PUSH1 0x3 NOT CALLDATASIZE ADD SLT PUSH2 0xF79 JUMPI DUP3 CALLDATALOAD PUSH1 0x1 PUSH1 0x1 PUSH1 0x40 SHL SUB DUP2 GT PUSH2 0xF75 JUMPI PUSH2 0xD92 SWAP1 CALLDATASIZE SWAP1 DUP6 ADD PUSH2 0x418A JUMP JUMPDEST SWAP3 SWAP1 SWAP2 PUSH2 0xD9D PUSH2 0x4B73 JUMP JUMPDEST PUSH1 0xFF SWAP4 DUP5 PUSH1 0x23 SLOAD AND ISZERO PUSH2 0xF65 JUMPI DUP1 ISZERO PUSH2 0xF55 JUMPI PUSH1 0x14 DUP2 GT PUSH2 0xF45 JUMPI SWAP1 SWAP4 DUP7 SWAP4 JUMPDEST DUP3 DUP6 LT PUSH2 0xDCD JUMPI DUP8 PUSH1 0x1 PUSH1 0x8 SSTORE DUP1 RETURN JUMPDEST PUSH2 0xDDD DUP6 DUP5 DUP4 SWAP11 SWAP8 SWAP9 SWAP10 SWAP11 PUSH2 0x535A JUMP JUMPDEST CALLDATALOAD SWAP4 PUSH2 0xDE8 DUP6 PUSH2 0x48B8 JUMP JUMPDEST ISZERO PUSH2 0xF36 JUMPI CALLER PUSH1 0x1 PUSH1 0x1 PUSH1 0xA0 SHL SUB PUSH2 0xDFF DUP8 PUSH2 0x45A7 JUMP JUMPDEST AND SUB PUSH2 0xF27 JUMPI DUP5 DUP7 MSTORE DUP8 DUP1 MSTORE DUP3 DUP2 DUP8 KECCAK256 SLOAD AND ISZERO PUSH2 0xF18 JUMPI DUP5 DUP7 MSTORE DUP8 DUP1 MSTORE DUP1 DUP7 KECCAK256 PUSH1 0xFF NOT DUP2 SLOAD AND SWAP1 SSTORE PUSH1 0x21 DUP9 MSTORE DUP6 DUP2 DUP2 KECCAK256 SSTORE CALLER DUP7 MSTORE PUSH1 0x22 DUP9 MSTORE DUP1 DUP7 KECCAK256 SWAP8 DUP7 JUMPDEST DUP10 SLOAD DUP1 DUP3 LT ISZERO PUSH2 0xF04 JUMPI DUP8 SWAP1 PUSH2 0xE53 DUP4 DUP14 PUSH2 0x404C JUMP JUMPDEST SWAP3 SWAP1 SLOAD PUSH1 0x3 SWAP4 DUP5 SHL SHR EQ PUSH2 0xE71 JUMPI POP POP PUSH2 0xE6C SWAP1 PUSH2 0x4B0A JUMP JUMPDEST PUSH2 0xE3D JUMP JUMPDEST PUSH1 0x0 SWAP13 SWAP12 SWAP4 SWAP8 SWAP7 SWAP11 SWAP6 SWAP10 SWAP13 SWAP9 SWAP5 SWAP9 NOT DUP2 ADD SWAP1 DUP2 GT PUSH2 0xEF1 JUMPI PUSH2 0xECE SWAP3 PUSH2 0xEB0 DUP6 SWAP4 PUSH2 0xEA4 PUSH2 0xEC9 SWAP5 PUSH2 0xEE7 SWAP11 SWAP10 SWAP9 PUSH2 0x404C JUMP JUMPDEST SWAP1 SLOAD SWAP2 SHL SHR SWAP2 DUP5 PUSH2 0x404C JUMP JUMPDEST SWAP1 SWAP2 SWAP1 DUP3 SLOAD SWAP1 PUSH1 0x3 SHL SWAP2 DUP3 SHL SWAP2 PUSH1 0x0 NOT SWAP1 SHL NOT AND OR SWAP1 SSTORE JUMP JUMPDEST PUSH2 0x55EE JUMP JUMPDEST CALLER SWAP1 PUSH1 0x0 DUP1 MLOAD PUSH1 0x20 PUSH2 0x566F DUP4 CODECOPY DUP2 MLOAD SWAP2 MSTORE DUP12 DUP1 LOG3 PUSH2 0x4B0A JUMP JUMPDEST SWAP4 SWAP5 SWAP1 SWAP2 SWAP5 PUSH2 0xDBD JUMP JUMPDEST PUSH4 0x4E487B71 PUSH1 0xE0 SHL DUP14 MSTORE PUSH1 0x11 DUP13 MSTORE PUSH1 0x24 DUP14 REVERT JUMPDEST POP POP SWAP4 SWAP3 SWAP7 SWAP1 SWAP5 PUSH2 0xEE7 SWAP3 SWAP7 SWAP10 SWAP9 POP PUSH2 0xECE JUMP JUMPDEST MLOAD PUSH4 0xA49BBC3 PUSH1 0xE2 SHL DUP2 MSTORE DUP9 SWAP1 REVERT JUMPDEST MLOAD PUSH4 0x59DC379F PUSH1 0xE0 SHL DUP2 MSTORE DUP9 SWAP1 REVERT JUMPDEST MLOAD PUSH4 0x224A1B11 PUSH1 0xE1 SHL DUP2 MSTORE DUP9 SWAP1 REVERT JUMPDEST DUP3 MLOAD PUSH4 0x3A4733D9 PUSH1 0xE1 SHL DUP2 MSTORE DUP7 SWAP1 REVERT JUMPDEST DUP3 MLOAD PUSH4 0x521299A9 PUSH1 0xE0 SHL DUP2 MSTORE DUP7 SWAP1 REVERT JUMPDEST DUP3 MLOAD PUSH4 0xA3DF9BCF PUSH1 0xE0 SHL DUP2 MSTORE DUP7 SWAP1 REVERT JUMPDEST DUP5 DUP1 REVERT JUMPDEST DUP4 DUP1 REVERT JUMPDEST POP POP CALLVALUE PUSH2 0x4E8 JUMPI DUP2 PUSH1 0x3 NOT CALLDATASIZE ADD SLT PUSH2 0x4E8 JUMPI PUSH1 0x20 SWAP1 PUSH1 0xFF PUSH1 0x18 SLOAD AND SWAP1 MLOAD SWAP1 ISZERO ISZERO DUP2 MSTORE RETURN JUMPDEST DUP4 SWAP2 POP CALLVALUE PUSH2 0x4E8 JUMPI PUSH1 0x20 SWAP3 DUP4 PUSH1 0x3 NOT CALLDATASIZE ADD SLT PUSH2 0x550 JUMPI PUSH1 0x1 PUSH1 0x1 PUSH1 0x40 SHL SUB SWAP1 DUP3 CALLDATALOAD DUP3 DUP2 GT PUSH2 0xF75 JUMPI PUSH2 0xFD6 SWAP1 CALLDATASIZE SWAP1 DUP6 ADD PUSH2 0x415D JUMP JUMPDEST SWAP4 SWAP1 SWAP3 PUSH2 0xFE1 PUSH2 0x4508 JUMP JUMPDEST PUSH1 0xFF PUSH1 0xF SLOAD AND ISZERO PUSH2 0x10EA JUMPI DUP5 GT PUSH2 0x10D7 JUMPI POP PUSH2 0x1007 DUP4 PUSH2 0x1002 PUSH1 0xD SLOAD PUSH2 0x41BA JUMP JUMPDEST PUSH2 0x4D10 JUMP JUMPDEST DUP4 SWAP5 PUSH1 0x1F DUP5 GT PUSH1 0x1 EQ PUSH2 0x105C JUMPI POP PUSH2 0xAF7 SWAP1 DUP4 DUP6 SWAP7 PUSH1 0x0 DUP1 MLOAD PUSH1 0x20 PUSH2 0x578F DUP4 CODECOPY DUP2 MLOAD SWAP2 MSTORE SWAP7 SWAP2 PUSH2 0x1051 JUMPI JUMPDEST POP DUP5 PUSH1 0x1 SHL SWAP1 PUSH1 0x0 NOT DUP7 PUSH1 0x3 SHL SHR NOT AND OR PUSH1 0xD SSTORE JUMPDEST MLOAD SWAP3 DUP4 SWAP3 DUP4 PUSH2 0x5332 JUMP JUMPDEST SWAP1 POP DUP4 ADD CALLDATALOAD DUP8 PUSH2 0x1032 JUMP JUMPDEST SWAP5 PUSH1 0x1F NOT DUP5 AND PUSH1 0xD DUP7 MSTORE DUP7 DUP7 KECCAK256 SWAP7 DUP7 SWAP1 JUMPDEST DUP3 DUP3 LT PUSH2 0x10BE JUMPI POP POP SWAP6 PUSH2 0xAF7 SWAP3 SWAP2 DUP6 PUSH1 0x0 DUP1 MLOAD PUSH1 0x20 PUSH2 0x578F DUP4 CODECOPY DUP2 MLOAD SWAP2 MSTORE SWAP8 SWAP9 LT PUSH2 0x10A4 JUMPI JUMPDEST POP POP PUSH1 0x1 DUP5 DUP2 SHL ADD PUSH1 0xD SSTORE PUSH2 0x1047 JUMP JUMPDEST DUP5 ADD CALLDATALOAD PUSH1 0x0 NOT PUSH1 0x3 DUP8 SWAP1 SHL PUSH1 0xF8 AND SHR NOT AND SWAP1 SSTORE DUP7 DUP1 PUSH2 0x1094 JUMP JUMPDEST DUP4 DUP7 ADD CALLDATALOAD DUP10 SSTORE PUSH1 0x1 SWAP1 SWAP9 ADD SWAP8 SWAP3 DUP4 ADD SWAP3 SWAP1 DUP2 ADD SWAP1 PUSH2 0x106D JUMP JUMPDEST PUSH4 0x4E487B71 PUSH1 0xE0 SHL DUP6 MSTORE PUSH1 0x41 SWAP1 MSTORE PUSH1 0x24 DUP5 REVERT JUMPDEST POP SWAP1 MLOAD PUSH4 0x16593791 PUSH1 0xE3 SHL DUP2 MSTORE REVERT JUMPDEST DUP3 DUP5 CALLVALUE PUSH2 0xBD0 JUMPI PUSH1 0x20 CALLDATASIZE PUSH1 0x3 NOT ADD SLT PUSH2 0xBD0 JUMPI POP PUSH2 0x111A PUSH2 0x760 SWAP3 CALLDATALOAD PUSH2 0x52AE JUMP JUMPDEST SWAP1 MLOAD SWAP2 DUP3 SWAP2 PUSH1 0x20 DUP4 MSTORE PUSH1 0x20 DUP4 ADD SWAP1 PUSH2 0x409D JUMP JUMPDEST SWAP2 SWAP1 POP CALLVALUE PUSH2 0x550 JUMPI PUSH1 0x20 CALLDATASIZE PUSH1 0x3 NOT ADD SLT PUSH2 0x550 JUMPI PUSH2 0x1149 PUSH2 0x4011 JUMP JUMPDEST SWAP2 PUSH2 0x1152 PUSH2 0x4508 JUMP JUMPDEST DUP3 ISZERO ISZERO SWAP3 PUSH1 0x23 SLOAD PUSH2 0xFF00 DUP6 PUSH1 0x8 SHL AND SWAP1 PUSH2 0xFF00 NOT AND OR PUSH1 0x23 SSTORE PUSH1 0x0 EQ PUSH2 0x11BA JUMPI POP PUSH1 0x0 DUP1 MLOAD PUSH1 0x20 PUSH2 0x568F DUP4 CODECOPY DUP2 MLOAD SWAP2 MSTORE SWAP2 PUSH1 0x20 SWAP2 PUSH2 0x118E PUSH2 0x4B2F JUMP JUMPDEST PUSH1 0x1 PUSH1 0xFF NOT PUSH1 0x9 SLOAD AND OR PUSH1 0x9 SSTORE PUSH1 0x0 DUP1 MLOAD PUSH1 0x20 PUSH2 0x576F DUP4 CODECOPY DUP2 MLOAD SWAP2 MSTORE DUP4 DUP3 MLOAD CALLER DUP2 MSTORE LOG1 JUMPDEST MLOAD SWAP1 DUP2 MSTORE LOG1 DUP1 RETURN JUMPDEST PUSH1 0x9 SLOAD SWAP1 PUSH1 0xFF DUP3 AND ISZERO PUSH2 0x11FE JUMPI POP SWAP2 PUSH1 0x20 SWAP2 PUSH1 0x0 DUP1 MLOAD PUSH1 0x20 PUSH2 0x568F DUP4 CODECOPY DUP2 MLOAD SWAP2 MSTORE SWAP4 PUSH1 0xFF NOT AND PUSH1 0x9 SSTORE PUSH1 0x0 DUP1 MLOAD PUSH1 0x20 PUSH2 0x564F DUP4 CODECOPY DUP2 MLOAD SWAP2 MSTORE DUP4 DUP3 MLOAD CALLER DUP2 MSTORE LOG1 PUSH2 0x11B2 JUMP JUMPDEST PUSH1 0x64 SWAP1 PUSH1 0x20 DUP5 MLOAD SWAP2 PUSH3 0x461BCD PUSH1 0xE5 SHL DUP4 MSTORE DUP3 ADD MSTORE PUSH1 0x14 PUSH1 0x24 DUP3 ADD MSTORE PUSH20 0x14185D5CD8589B194E881B9BDD081C185D5CD959 PUSH1 0x62 SHL PUSH1 0x44 DUP3 ADD MSTORE REVERT JUMPDEST SWAP1 POP CALLVALUE PUSH2 0x550 JUMPI PUSH1 0x20 DUP1 PUSH1 0x3 NOT CALLDATASIZE ADD SLT PUSH2 0xF79 JUMPI DUP2 CALLDATALOAD PUSH1 0x1 PUSH1 0x1 PUSH1 0x40 SHL SUB DUP2 GT PUSH2 0xF75 JUMPI PUSH2 0x1269 SWAP1 CALLDATASIZE SWAP1 DUP5 ADD PUSH2 0x418A JUMP JUMPDEST SWAP2 SWAP1 SWAP3 PUSH2 0x1274 PUSH2 0x4B73 JUMP JUMPDEST PUSH1 0xFF SWAP3 DUP4 PUSH1 0x23 SLOAD AND ISZERO PUSH2 0x1384 JUMPI DUP1 ISZERO PUSH2 0x1375 JUMPI PUSH1 0x14 DUP2 GT PUSH2 0x1366 JUMPI DUP7 JUMPDEST DUP2 DUP2 LT PUSH2 0x12A1 JUMPI DUP8 PUSH1 0x1 PUSH1 0x8 SSTORE DUP1 RETURN JUMPDEST PUSH2 0x12AC DUP2 DUP4 DUP9 PUSH2 0x535A JUMP JUMPDEST CALLDATALOAD PUSH2 0x12B6 DUP2 PUSH2 0x48B8 JUMP JUMPDEST ISZERO PUSH2 0x1356 JUMPI CALLER PUSH1 0x1 PUSH1 0x1 PUSH1 0xA0 SHL SUB PUSH2 0x12CD DUP4 PUSH2 0x45A7 JUMP JUMPDEST AND SUB PUSH2 0x1346 JUMPI DUP1 DUP10 MSTORE DUP5 DUP1 MSTORE DUP6 DUP9 DUP11 KECCAK256 SLOAD AND PUSH2 0x1336 JUMPI SWAP1 DUP2 PUSH2 0x1331 SWAP3 DUP11 MSTORE DUP6 DUP1 MSTORE DUP9 DUP11 KECCAK256 PUSH1 0x1 PUSH1 0xFF NOT DUP3 SLOAD AND OR SWAP1 SSTORE PUSH1 0x21 DUP7 MSTORE TIMESTAMP DUP10 DUP12 KECCAK256 SSTORE CALLER DUP11 MSTORE PUSH1 0x22 DUP7 MSTORE PUSH2 0x1318 DUP2 DUP11 DUP13 KECCAK256 PUSH2 0x55CB JUMP JUMPDEST CALLER SWAP1 PUSH1 0x0 DUP1 MLOAD PUSH1 0x20 PUSH2 0x57AF DUP4 CODECOPY DUP2 MLOAD SWAP2 MSTORE DUP12 DUP1 LOG3 PUSH2 0x4B0A JUMP JUMPDEST PUSH2 0x1291 JUMP JUMPDEST DUP8 MLOAD PUSH4 0x16E9AD8F PUSH1 0xE0 SHL DUP2 MSTORE DUP5 SWAP1 REVERT JUMPDEST DUP8 MLOAD PUSH4 0x59DC379F PUSH1 0xE0 SHL DUP2 MSTORE DUP5 SWAP1 REVERT JUMPDEST DUP8 MLOAD PUSH4 0x224A1B11 PUSH1 0xE1 SHL DUP2 MSTORE DUP5 SWAP1 REVERT JUMPDEST POP DUP5 MLOAD PUSH4 0x3A4733D9 PUSH1 0xE1 SHL DUP2 MSTORE REVERT JUMPDEST POP DUP5 MLOAD PUSH4 0x521299A9 PUSH1 0xE0 SHL DUP2 MSTORE REVERT JUMPDEST POP DUP5 MLOAD PUSH4 0xA3DF9BCF PUSH1 0xE0 SHL DUP2 MSTORE REVERT JUMPDEST POP POP CALLVALUE PUSH2 0x4E8 JUMPI DUP2 PUSH1 0x3 NOT CALLDATASIZE ADD SLT PUSH2 0x4E8 JUMPI DUP1 MLOAD PUSH2 0x760 SWAP2 PUSH2 0x74E DUP3 PUSH2 0x747 DUP2 PUSH2 0x41F4 JUMP JUMPDEST DUP4 SWAP1 CALLVALUE PUSH2 0x4E8 JUMPI PUSH1 0x80 CALLDATASIZE PUSH1 0x3 NOT ADD SLT PUSH2 0x4E8 JUMPI PUSH2 0x13D3 PUSH2 0x4020 JUMP JUMPDEST SWAP1 PUSH2 0x13DC PUSH2 0x4036 JUMP JUMPDEST PUSH1 0x64 CALLDATALOAD SWAP3 SWAP1 PUSH1 0x44 CALLDATALOAD SWAP1 PUSH1 0x1 PUSH1 0x1 PUSH1 0x40 SHL SUB DUP6 GT PUSH2 0x143F JUMPI CALLDATASIZE PUSH1 0x23 DUP7 ADD SLT ISZERO PUSH2 0x143F JUMPI PUSH2 0x1417 PUSH2 0x143A SWAP5 DUP7 PUSH1 0x24 PUSH2 0xD34 SWAP9 CALLDATASIZE SWAP4 ADD CALLDATALOAD SWAP2 ADD PUSH2 0x441E JUMP JUMPDEST SWAP3 PUSH2 0x142A PUSH2 0x1425 DUP5 CALLER PUSH2 0x46CB JUMP JUMPDEST PUSH2 0x45F6 JUMP JUMPDEST PUSH2 0x1435 DUP4 DUP4 DUP4 PUSH2 0x4793 JUMP JUMPDEST PUSH2 0x49F9 JUMP JUMPDEST PUSH2 0x46AB JUMP JUMPDEST DUP6 DUP1 REVERT JUMPDEST SWAP1 POP CALLVALUE PUSH2 0x550 JUMPI DUP3 PUSH1 0x3 NOT CALLDATASIZE ADD SLT PUSH2 0x550 JUMPI PUSH2 0x145D PUSH2 0x4508 JUMP JUMPDEST PUSH1 0x9 SLOAD SWAP1 PUSH1 0xFF DUP3 AND ISZERO PUSH2 0x11FE JUMPI POP PUSH1 0xFF NOT AND PUSH1 0x9 SSTORE MLOAD CALLER DUP2 MSTORE PUSH1 0x0 DUP1 MLOAD PUSH1 0x20 PUSH2 0x564F DUP4 CODECOPY DUP2 MLOAD SWAP2 MSTORE SWAP1 PUSH1 0x20 SWAP1 LOG1 DUP1 RETURN JUMPDEST DUP3 DUP5 CALLVALUE PUSH2 0xBD0 JUMPI PUSH1 0x20 SWAP1 DUP2 PUSH1 0x3 NOT CALLDATASIZE ADD SLT PUSH2 0xBD0 JUMPI DUP3 SWAP1 PUSH1 0x1 PUSH1 0x1 PUSH1 0xA0 SHL SUB PUSH2 0x14B4 PUSH2 0x4020 JUMP JUMPDEST AND DUP2 MSTORE PUSH1 0x22 DUP4 MSTORE DUP2 DUP2 KECCAK256 SWAP1 DUP3 MLOAD DUP1 DUP6 DUP5 SLOAD SWAP2 DUP3 DUP2 MSTORE ADD SWAP1 DUP2 SWAP5 DUP5 MSTORE DUP7 DUP5 KECCAK256 SWAP1 DUP5 JUMPDEST DUP2 DUP2 LT PUSH2 0x1526 JUMPI POP POP POP DUP2 PUSH2 0x14EB SWAP2 SUB DUP3 PUSH2 0x43E0 JUMP JUMPDEST DUP4 MLOAD SWAP5 DUP6 SWAP5 DUP2 DUP7 ADD SWAP3 DUP3 DUP8 MSTORE MLOAD DUP1 SWAP4 MSTORE DUP6 ADD SWAP4 SWAP3 JUMPDEST DUP3 DUP2 LT PUSH2 0x150F JUMPI POP POP POP POP SUB SWAP1 RETURN JUMPDEST DUP4 MLOAD DUP6 MSTORE DUP7 SWAP6 POP SWAP4 DUP2 ADD SWAP4 SWAP3 DUP2 ADD SWAP3 PUSH1 0x1 ADD PUSH2 0x1500 JUMP JUMPDEST DUP3 SLOAD DUP5 MSTORE SWAP3 DUP9 ADD SWAP3 PUSH1 0x1 SWAP3 DUP4 ADD SWAP3 ADD PUSH2 0x14D5 JUMP JUMPDEST SWAP2 SWAP1 POP CALLVALUE PUSH2 0x550 JUMPI PUSH1 0x20 DUP1 PUSH1 0x3 NOT CALLDATASIZE ADD SLT PUSH2 0xF79 JUMPI DUP3 CALLDATALOAD SWAP3 PUSH2 0x155A PUSH2 0x4B73 JUMP JUMPDEST PUSH1 0xFF PUSH1 0x23 SLOAD AND ISZERO PUSH2 0x1615 JUMPI PUSH2 0x156E DUP5 PUSH2 0x48B8 JUMP JUMPDEST ISZERO PUSH2 0x1607 JUMPI PUSH2 0x157C DUP5 PUSH2 0x45A7 JUMP JUMPDEST CALLER PUSH1 0x1 PUSH1 0x1 PUSH1 0xA0 SHL SUB SWAP1 SWAP2 AND SUB PUSH2 0x15F9 JUMPI DUP4 DUP6 MSTORE DUP2 DUP1 MSTORE PUSH1 0xFF DUP4 DUP7 KECCAK256 SLOAD AND PUSH2 0x15EB JUMPI POP PUSH2 0x15CF SWAP2 PUSH1 0x22 DUP5 SWAP3 DUP4 DUP8 MSTORE DUP1 DUP1 MSTORE DUP3 DUP8 KECCAK256 PUSH1 0x1 PUSH1 0xFF NOT DUP3 SLOAD AND OR SWAP1 SSTORE PUSH1 0x21 DUP2 MSTORE TIMESTAMP DUP4 DUP9 KECCAK256 SSTORE CALLER DUP8 MSTORE MSTORE DUP5 KECCAK256 PUSH2 0x55CB JUMP JUMPDEST CALLER SWAP1 PUSH1 0x0 DUP1 MLOAD PUSH1 0x20 PUSH2 0x57AF DUP4 CODECOPY DUP2 MLOAD SWAP2 MSTORE DUP4 DUP1 LOG3 PUSH1 0x1 PUSH1 0x8 SSTORE DUP1 RETURN JUMPDEST DUP3 MLOAD PUSH4 0x16E9AD8F PUSH1 0xE0 SHL DUP2 MSTORE REVERT JUMPDEST DUP3 MLOAD PUSH4 0x59DC379F PUSH1 0xE0 SHL DUP2 MSTORE REVERT JUMPDEST DUP3 MLOAD PUSH4 0x224A1B11 PUSH1 0xE1 SHL DUP2 MSTORE REVERT JUMPDEST DUP3 MLOAD PUSH4 0xA3DF9BCF PUSH1 0xE0 SHL DUP2 MSTORE REVERT JUMPDEST SWAP1 POP CALLVALUE PUSH2 0x550 JUMPI DUP3 PUSH1 0x3 NOT CALLDATASIZE ADD SLT PUSH2 0x550 JUMPI PUSH2 0x163D PUSH2 0x4508 JUMP JUMPDEST PUSH1 0xF SLOAD SWAP2 PUSH1 0xFF DUP4 AND PUSH2 0x167C JUMPI PUSH1 0xFF NOT DUP4 AND PUSH1 0x1 OR PUSH1 0xF SSTORE DUP4 PUSH32 0x8775102FDE7505699B9D1E2B921E3786C1B5C7B2AEC306ADD2B484A8EF0CBAC DUP2 DUP1 LOG1 DUP1 RETURN JUMPDEST MLOAD PUSH4 0xA89AC151 PUSH1 0xE0 SHL DUP2 MSTORE REVERT JUMPDEST DUP3 DUP5 CALLVALUE PUSH2 0xBD0 JUMPI DUP1 PUSH1 0x3 NOT CALLDATASIZE ADD SLT PUSH2 0xBD0 JUMPI PUSH1 0x11 SLOAD SWAP2 DUP2 JUMPDEST DUP4 DUP2 LT PUSH2 0x16B2 JUMPI PUSH1 0x20 DUP4 DUP4 MLOAD SWAP1 DUP2 MSTORE RETURN JUMPDEST SWAP2 PUSH2 0x16CE PUSH2 0x16D4 SWAP2 PUSH1 0x1 PUSH2 0x16C5 DUP7 PUSH2 0x4473 JUMP JUMPDEST POP ADD SLOAD SWAP1 PUSH2 0x4F2D JUMP JUMPDEST SWAP3 PUSH2 0x4B0A JUMP JUMPDEST PUSH2 0x16A1 JUMP JUMPDEST SWAP2 SWAP1 POP CALLVALUE PUSH2 0x550 JUMPI DUP1 PUSH1 0x3 NOT CALLDATASIZE ADD SLT PUSH2 0x550 JUMPI PUSH2 0x16F4 PUSH2 0x4020 JUMP JUMPDEST SWAP1 PUSH1 0x24 CALLDATALOAD SWAP2 DUP3 ISZERO ISZERO DUP1 SWAP4 SUB PUSH2 0x17A3 JUMPI PUSH1 0x1 PUSH1 0x1 PUSH1 0xA0 SHL SUB AND SWAP3 CALLER DUP5 EQ PUSH2 0x1765 JUMPI POP CALLER DUP5 MSTORE PUSH1 0x5 PUSH1 0x20 MSTORE DUP1 DUP5 KECCAK256 DUP4 PUSH1 0x0 MSTORE PUSH1 0x20 MSTORE DUP1 PUSH1 0x0 KECCAK256 PUSH1 0xFF NOT DUP2 SLOAD AND PUSH1 0xFF DUP5 AND OR SWAP1 SSTORE MLOAD SWAP1 DUP2 MSTORE PUSH32 0x17307EAB39AB6107E8899845AD3D59BD9653F200F220920489CA2B5937696C31 PUSH1 0x20 CALLER SWAP3 LOG3 DUP1 RETURN JUMPDEST PUSH1 0x20 PUSH1 0x64 SWAP3 MLOAD SWAP2 PUSH3 0x461BCD PUSH1 0xE5 SHL DUP4 MSTORE DUP3 ADD MSTORE PUSH1 0x19 PUSH1 0x24 DUP3 ADD MSTORE PUSH25 0x22A9219B99189D1030B8383937BB32903A379031B0B63632B9 PUSH1 0x39 SHL PUSH1 0x44 DUP3 ADD MSTORE REVERT JUMPDEST PUSH1 0x0 DUP1 REVERT JUMPDEST POP POP CALLVALUE PUSH2 0x4E8 JUMPI DUP2 PUSH1 0x3 NOT CALLDATASIZE ADD SLT PUSH2 0x4E8 JUMPI MLOAD SWAP1 DUP2 MSTORE PUSH1 0x20 SWAP1 RETURN JUMPDEST POP POP CALLVALUE PUSH2 0x4E8 JUMPI DUP2 PUSH1 0x3 NOT CALLDATASIZE ADD SLT PUSH2 0x4E8 JUMPI PUSH1 0x20 SWAP1 PUSH1 0x1A SLOAD SWAP1 MLOAD SWAP1 DUP2 MSTORE RETURN JUMPDEST POP POP CALLVALUE PUSH2 0x4E8 JUMPI DUP2 PUSH1 0x3 NOT CALLDATASIZE ADD SLT PUSH2 0x4E8 JUMPI PUSH1 0x20 SWAP1 PUSH1 0xFF PUSH1 0x1E SLOAD AND ISZERO SWAP1 DUP2 ISZERO PUSH2 0x180E JUMPI JUMPDEST MLOAD SWAP1 ISZERO ISZERO DUP2 MSTORE RETURN JUMPDEST SWAP1 POP PUSH2 0x181F PUSH1 0x1B SLOAD PUSH1 0x1C SLOAD SWAP1 PUSH2 0x4F2D JUMP JUMPDEST TIMESTAMP LT ISZERO SWAP1 PUSH2 0x1806 JUMP JUMPDEST POP POP CALLVALUE PUSH2 0x4E8 JUMPI PUSH1 0x20 CALLDATASIZE PUSH1 0x3 NOT ADD SLT PUSH2 0x4E8 JUMPI PUSH1 0x20 SWAP2 PUSH1 0xFF SWAP1 DUP3 SWAP1 PUSH1 0x1 PUSH1 0x1 PUSH1 0xA0 SHL SUB PUSH2 0x1853 PUSH2 0x4020 JUMP JUMPDEST AND DUP2 MSTORE PUSH1 0x15 DUP6 MSTORE KECCAK256 SLOAD AND SWAP1 MLOAD SWAP1 ISZERO ISZERO DUP2 MSTORE RETURN JUMPDEST POP POP CALLVALUE PUSH2 0x4E8 JUMPI PUSH1 0x20 CALLDATASIZE PUSH1 0x3 NOT ADD SLT PUSH2 0x4E8 JUMPI PUSH1 0x20 SWAP2 DUP2 SWAP1 PUSH1 0x1 PUSH1 0x1 PUSH1 0xA0 SHL SUB PUSH2 0x188E PUSH2 0x4020 JUMP JUMPDEST AND DUP2 MSTORE PUSH1 0x16 DUP5 MSTORE KECCAK256 SLOAD SWAP1 MLOAD SWAP1 DUP2 MSTORE RETURN JUMPDEST SWAP1 POP DUP3 CALLVALUE PUSH2 0xBD0 JUMPI PUSH1 0x20 CALLDATASIZE PUSH1 0x3 NOT ADD SLT PUSH2 0xBD0 JUMPI DUP2 CALLDATALOAD SWAP1 PUSH1 0x11 SLOAD DUP3 LT ISZERO PUSH2 0xBD0 JUMPI POP PUSH2 0x1928 SWAP3 PUSH2 0x18D0 PUSH2 0x760 SWAP3 PUSH2 0x4473 JUMP JUMPDEST POP SWAP3 DUP2 MLOAD SWAP4 PUSH2 0x18EA DUP6 PUSH2 0x18E3 DUP2 DUP5 PUSH2 0x42E3 JUMP JUMPDEST SUB DUP7 PUSH2 0x43E0 JUMP JUMPDEST PUSH1 0x1 DUP2 ADD SLOAD SWAP3 PUSH1 0x2 DUP3 ADD SLOAD SWAP1 PUSH2 0x1915 PUSH1 0x3 DUP5 ADD SLOAD SWAP4 PUSH2 0x190E DUP4 MLOAD DUP1 SWAP8 DUP2 SWAP4 ADD PUSH2 0x42E3 JUMP JUMPDEST SUB DUP6 PUSH2 0x43E0 JUMP JUMPDEST DUP1 MLOAD SWAP8 DUP9 SWAP8 PUSH1 0xA0 DUP10 MSTORE PUSH1 0xA0 DUP10 ADD SWAP1 PUSH2 0x409D JUMP JUMPDEST SWAP5 PUSH1 0x20 DUP9 ADD MSTORE DUP7 ADD MSTORE PUSH1 0x60 DUP6 ADD MSTORE DUP4 DUP3 SUB PUSH1 0x80 DUP6 ADD MSTORE PUSH2 0x409D JUMP JUMPDEST DUP3 DUP5 CALLVALUE PUSH2 0xBD0 JUMPI DUP1 PUSH1 0x3 NOT CALLDATASIZE ADD SLT PUSH2 0xBD0 JUMPI POP DUP1 MLOAD PUSH1 0x0 SWAP2 PUSH1 0x1 DUP1 SLOAD PUSH2 0x1968 DUP2 PUSH2 0x41BA JUMP JUMPDEST DUP1 DUP6 MSTORE SWAP1 DUP3 DUP2 AND SWAP1 DUP2 ISZERO PUSH2 0x19CE JUMPI POP PUSH1 0x1 EQ PUSH2 0x1990 JUMPI JUMPDEST POP POP PUSH2 0x74E DUP3 PUSH2 0x760 SWAP5 SUB DUP4 PUSH2 0x43E0 JUMP JUMPDEST SWAP4 POP DUP1 PUSH1 0x0 MSTORE PUSH1 0x20 SWAP4 DUP5 PUSH1 0x0 KECCAK256 SWAP2 PUSH1 0x0 SWAP3 JUMPDEST DUP3 DUP5 LT PUSH2 0x19BB JUMPI POP POP POP DUP3 ADD SWAP1 SWAP3 ADD SWAP2 PUSH2 0x74E DUP3 PUSH2 0x197F JUMP JUMPDEST DUP1 SLOAD DUP7 DUP6 ADD DUP9 ADD MSTORE SWAP3 DUP7 ADD SWAP3 DUP2 ADD PUSH2 0x19A2 JUMP JUMPDEST PUSH2 0x760 SWAP7 POP PUSH2 0x74E SWAP4 POP PUSH1 0x20 SWAP2 POP SWAP2 DUP6 SWAP3 PUSH1 0xFF NOT AND DUP3 DUP5 ADD MSTORE ISZERO ISZERO PUSH1 0x5 SHL DUP3 ADD ADD SWAP5 POP PUSH2 0x197F JUMP JUMPDEST SWAP1 POP CALLVALUE PUSH2 0x550 JUMPI DUP3 PUSH1 0x3 NOT CALLDATASIZE ADD SLT PUSH2 0x550 JUMPI PUSH1 0x11 SLOAD SWAP1 PUSH1 0x1 PUSH1 0x1 PUSH1 0x40 SHL SUB DUP3 GT PUSH2 0x1ACA JUMPI POP DUP2 MLOAD PUSH1 0x5 SWAP4 SWAP1 PUSH1 0x20 PUSH2 0x1A31 DUP5 DUP8 SHL DUP3 ADD DUP4 PUSH2 0x43E0 JUMP JUMPDEST DUP4 DUP3 MSTORE DUP1 DUP3 ADD SWAP4 DUP5 PUSH1 0x11 DUP6 MSTORE DUP3 DUP6 KECCAK256 DUP9 DUP7 SWAP3 JUMPDEST DUP5 DUP5 LT PUSH2 0x1AA4 JUMPI POP POP POP POP POP DUP5 MLOAD SWAP5 DUP2 DUP7 ADD SWAP3 DUP3 DUP8 MSTORE MLOAD DUP1 SWAP4 MSTORE DUP3 DUP2 DUP8 ADD SWAP8 SHL DUP7 ADD ADD SWAP4 SWAP3 SWAP6 JUMPDEST DUP3 DUP8 LT PUSH2 0x1A78 JUMPI DUP6 DUP6 SUB DUP7 RETURN JUMPDEST SWAP1 SWAP2 SWAP3 SWAP4 DUP3 DUP1 PUSH2 0x1A94 PUSH1 0x1 SWAP4 PUSH1 0x3F NOT DUP11 DUP3 SUB ADD DUP7 MSTORE DUP9 MLOAD PUSH2 0x40F7 JUMP JUMPDEST SWAP7 ADD SWAP3 ADD SWAP7 ADD SWAP6 SWAP3 SWAP2 SWAP1 SWAP3 PUSH2 0x1A6B JUMP JUMPDEST SWAP1 DUP6 PUSH1 0x1 SWAP3 PUSH2 0x1AB6 DUP6 SWAP11 SWAP9 SWAP10 SWAP11 PUSH2 0x4AA1 JUMP JUMPDEST DUP2 MSTORE ADD SWAP3 ADD SWAP3 ADD SWAP2 SWAP1 DUP10 SWAP1 SWAP7 SWAP6 SWAP5 SWAP7 PUSH2 0x1A44 JUMP JUMPDEST PUSH4 0x4E487B71 PUSH1 0xE0 SHL DUP5 MSTORE PUSH1 0x41 SWAP1 MSTORE PUSH1 0x24 DUP4 REVERT JUMPDEST DUP4 SWAP2 POP CALLVALUE PUSH2 0x4E8 JUMPI PUSH1 0x20 SWAP3 DUP4 PUSH1 0x3 NOT CALLDATASIZE ADD SLT PUSH2 0x550 JUMPI PUSH1 0x1 PUSH1 0x1 PUSH1 0x40 SHL SUB SWAP1 DUP3 CALLDATALOAD DUP3 DUP2 GT PUSH2 0xF75 JUMPI PUSH2 0x1B12 SWAP1 CALLDATASIZE SWAP1 DUP6 ADD PUSH2 0x415D JUMP JUMPDEST SWAP4 SWAP1 SWAP3 PUSH2 0x1B1D PUSH2 0x4508 JUMP JUMPDEST DUP5 GT PUSH2 0x10D7 JUMPI POP PUSH2 0x1B2F PUSH1 0xE SLOAD PUSH2 0x41BA JUMP JUMPDEST PUSH1 0x1F DUP2 GT PUSH2 0x1C08 JUMPI JUMPDEST POP DUP4 SWAP5 PUSH1 0x1F DUP5 GT PUSH1 0x1 EQ PUSH2 0x1B8D JUMPI POP PUSH2 0xAF7 SWAP1 DUP4 DUP6 SWAP7 PUSH1 0x0 DUP1 MLOAD PUSH1 0x20 PUSH2 0x57EF DUP4 CODECOPY DUP2 MLOAD SWAP2 MSTORE SWAP7 SWAP2 PUSH2 0x1B82 JUMPI JUMPDEST POP DUP5 PUSH1 0x1 SHL SWAP1 PUSH1 0x0 NOT DUP7 PUSH1 0x3 SHL SHR NOT AND OR PUSH1 0xE SSTORE MLOAD SWAP3 DUP4 SWAP3 DUP4 PUSH2 0x5332 JUMP JUMPDEST SWAP1 POP DUP4 ADD CALLDATALOAD DUP8 PUSH2 0x1B64 JUMP JUMPDEST SWAP5 PUSH1 0x1F NOT DUP5 AND PUSH1 0xE DUP7 MSTORE DUP7 DUP7 KECCAK256 SWAP7 DUP7 SWAP1 JUMPDEST DUP3 DUP3 LT PUSH2 0x1BEF JUMPI POP POP SWAP6 PUSH2 0xAF7 SWAP3 SWAP2 DUP6 PUSH1 0x0 DUP1 MLOAD PUSH1 0x20 PUSH2 0x57EF DUP4 CODECOPY DUP2 MLOAD SWAP2 MSTORE SWAP8 SWAP9 LT PUSH2 0x1BD5 JUMPI JUMPDEST POP POP PUSH1 0x1 DUP5 DUP2 SHL ADD PUSH1 0xE SSTORE PUSH2 0x1047 JUMP JUMPDEST DUP5 ADD CALLDATALOAD PUSH1 0x0 NOT PUSH1 0x3 DUP8 SWAP1 SHL PUSH1 0xF8 AND SHR NOT AND SWAP1 SSTORE DUP7 DUP1 PUSH2 0x1BC5 JUMP JUMPDEST DUP4 DUP7 ADD CALLDATALOAD DUP10 SSTORE PUSH1 0x1 SWAP1 SWAP9 ADD SWAP8 SWAP3 DUP4 ADD SWAP3 SWAP1 DUP2 ADD SWAP1 PUSH2 0x1B9E JUMP JUMPDEST PUSH1 0xE PUSH1 0x0 MSTORE DUP6 PUSH1 0x0 KECCAK256 PUSH1 0x1F DUP6 ADD PUSH1 0x5 SHR DUP2 ADD SWAP2 DUP8 DUP7 LT PUSH2 0x1C45 JUMPI JUMPDEST PUSH1 0x1F ADD PUSH1 0x5 SHR ADD SWAP1 JUMPDEST DUP2 DUP2 LT PUSH2 0x1C39 JUMPI POP PUSH2 0x1B38 JUMP JUMPDEST PUSH1 0x0 DUP2 SSTORE PUSH1 0x1 ADD PUSH2 0x1C2C JUMP JUMPDEST SWAP1 SWAP2 POP DUP2 SWAP1 PUSH2 0x1C23 JUMP JUMPDEST POP POP CALLVALUE PUSH2 0x4E8 JUMPI DUP2 PUSH1 0x3 NOT CALLDATASIZE ADD SLT PUSH2 0x4E8 JUMPI PUSH1 0x20 SWAP1 PUSH1 0xFF PUSH1 0x1E SLOAD AND SWAP1 MLOAD SWAP1 ISZERO ISZERO DUP2 MSTORE RETURN JUMPDEST SWAP1 POP CALLVALUE PUSH2 0x550 JUMPI DUP2 PUSH1 0x3 NOT CALLDATASIZE ADD SLT PUSH2 0x550 JUMPI DUP2 PUSH1 0x20 SWAP4 PUSH2 0x1C91 PUSH2 0x4036 JUMP JUMPDEST SWAP3 CALLDATALOAD DUP2 MSTORE PUSH1 0xA DUP6 MSTORE KECCAK256 SWAP1 PUSH1 0x1 DUP1 PUSH1 0xA0 SHL SUB AND PUSH1 0x0 MSTORE DUP3 MSTORE PUSH1 0xFF DUP2 PUSH1 0x0 KECCAK256 SLOAD AND SWAP1 MLOAD SWAP1 ISZERO ISZERO DUP2 MSTORE RETURN JUMPDEST POP POP CALLVALUE PUSH2 0x4E8 JUMPI DUP2 PUSH1 0x3 NOT CALLDATASIZE ADD SLT PUSH2 0x4E8 JUMPI PUSH1 0x20 SWAP1 MLOAD PUSH32 0xF18246D2E788C2A885EC6AEEE43FC7C89077B8B7A1E52E99F27F5889E429E2F5 DUP2 MSTORE RETURN JUMPDEST POP POP CALLVALUE PUSH2 0x4E8 JUMPI DUP2 PUSH1 0x3 NOT CALLDATASIZE ADD SLT PUSH2 0x4E8 JUMPI PUSH1 0x20 SWAP1 MLOAD PUSH1 0xA DUP2 MSTORE RETURN JUMPDEST POP POP CALLVALUE PUSH2 0x4E8 JUMPI DUP2 PUSH1 0x3 NOT CALLDATASIZE ADD SLT PUSH2 0x4E8 JUMPI PUSH1 0x7 SLOAD SWAP1 MLOAD PUSH1 0x1 PUSH1 0x1 PUSH1 0xA0 SHL SUB SWAP1 SWAP2 AND DUP2 MSTORE PUSH1 0x20 SWAP1 RETURN JUMPDEST SWAP2 SWAP1 POP CALLVALUE PUSH2 0x550 JUMPI PUSH1 0xA0 CALLDATASIZE PUSH1 0x3 NOT ADD SLT PUSH2 0x550 JUMPI DUP2 CALLDATALOAD SWAP2 PUSH1 0x1 PUSH1 0x1 PUSH1 0x40 SHL SUB PUSH1 0x24 CALLDATALOAD DUP2 DUP2 GT PUSH2 0x143F JUMPI PUSH2 0x1D6F SWAP1 CALLDATASIZE SWAP1 DUP5 ADD PUSH2 0x415D JUMP JUMPDEST SWAP4 SWAP1 SWAP2 PUSH1 0x64 CALLDATALOAD PUSH1 0x84 CALLDATALOAD DUP3 DUP2 GT PUSH2 0x1FA0 JUMPI PUSH2 0x1D8C SWAP1 CALLDATASIZE SWAP1 DUP8 ADD PUSH2 0x415D JUMP JUMPDEST SWAP2 SWAP1 SWAP6 PUSH2 0x1D97 PUSH2 0x4508 JUMP JUMPDEST PUSH1 0x11 SLOAD DUP10 LT ISZERO PUSH2 0x1F92 JUMPI PUSH1 0x3 PUSH2 0x1DAC DUP11 PUSH2 0x4473 JUMP JUMPDEST POP ADD SLOAD DUP3 LT PUSH2 0x1F84 JUMPI PUSH2 0x1DBE DUP10 PUSH2 0x4473 JUMP JUMPDEST POP DUP5 DUP10 GT PUSH2 0x1F71 JUMPI DUP1 PUSH2 0x1DDC DUP11 PUSH2 0x1DD6 DUP6 SWAP5 SLOAD PUSH2 0x41BA JUMP JUMPDEST DUP4 PUSH2 0x4D64 JUMP JUMPDEST DUP10 DUP13 DUP14 PUSH1 0x1F DUP4 GT PUSH1 0x1 EQ PUSH2 0x1F08 JUMPI SWAP2 PUSH2 0x1EFD JUMPI JUMPDEST POP DUP11 PUSH1 0x1 SHL SWAP1 PUSH1 0x0 NOT DUP13 PUSH1 0x3 SHL SHR NOT AND OR DUP2 SSTORE JUMPDEST PUSH1 0x1 SWAP4 PUSH1 0x44 CALLDATALOAD DUP6 DUP4 ADD SSTORE PUSH1 0x2 DUP3 ADD SSTORE ADD SWAP4 DUP4 GT PUSH2 0x1EEA JUMPI POP SWAP1 DUP3 SWAP2 PUSH2 0x1E35 DUP3 PUSH2 0x1E2F DUP11 SWAP8 SWAP7 SLOAD PUSH2 0x41BA JUMP JUMPDEST DUP6 PUSH2 0x4D64 JUMP JUMPDEST DUP10 PUSH1 0x1F DUP4 GT PUSH1 0x1 EQ PUSH2 0x1E80 JUMPI DUP3 SWAP2 DUP3 SWAP2 PUSH1 0x20 SWAP10 DUP14 SWAP5 PUSH2 0x1E75 JUMPI JUMPDEST POP POP SHL SWAP2 PUSH1 0x0 NOT SWAP1 PUSH1 0x3 SHL SHR NOT AND OR SWAP1 SSTORE JUMPDEST MLOAD SWAP4 DUP5 SWAP3 DUP4 CALLDATACOPY DUP2 ADD PUSH1 0x13 DUP2 MSTORE SUB ADD SWAP1 KECCAK256 SSTORE DUP1 RETURN JUMPDEST ADD CALLDATALOAD SWAP3 POP CODESIZE DUP1 PUSH2 0x1E4F JUMP JUMPDEST PUSH1 0x1F SWAP3 SWAP2 SWAP3 NOT DUP3 AND SWAP8 DUP5 DUP13 MSTORE PUSH1 0x20 SWAP2 DUP3 DUP14 KECCAK256 SWAP3 DUP14 SWAP1 JUMPDEST DUP12 DUP3 LT PUSH2 0x1ED0 JUMPI POP POP DUP4 PUSH1 0x20 SWAP11 LT PUSH2 0x1EB6 JUMPI JUMPDEST POP POP POP DUP2 SHL ADD SWAP1 SSTORE PUSH2 0x1E61 JUMP JUMPDEST ADD CALLDATALOAD PUSH1 0x0 NOT PUSH1 0x3 DUP5 SWAP1 SHL PUSH1 0xF8 AND SHR NOT AND SWAP1 SSTORE CODESIZE DUP1 DUP1 PUSH2 0x1EA9 JUMP JUMPDEST DUP3 DUP5 ADD CALLDATALOAD DUP6 SSTORE DUP13 SWAP10 POP SWAP4 DUP7 ADD SWAP4 SWAP2 DUP3 ADD SWAP2 SWAP1 DUP2 ADD SWAP1 PUSH2 0x1E96 JUMP JUMPDEST PUSH4 0x4E487B71 PUSH1 0xE0 SHL DUP11 MSTORE PUSH1 0x41 SWAP1 MSTORE PUSH1 0x24 DUP10 REVERT JUMPDEST SWAP1 POP DUP9 ADD CALLDATALOAD CODESIZE PUSH2 0x1DF0 JUMP JUMPDEST DUP4 DUP2 MSTORE PUSH1 0x20 DUP1 DUP3 KECCAK256 SWAP4 SWAP2 PUSH1 0x1F NOT DUP4 AND SWAP2 JUMPDEST DUP14 DUP4 DUP4 LT PUSH2 0x1F53 JUMPI POP POP POP LT PUSH2 0x1F39 JUMPI JUMPDEST POP POP PUSH1 0x1 DUP11 DUP2 SHL ADD DUP2 SSTORE PUSH2 0x1E04 JUMP JUMPDEST DUP10 ADD CALLDATALOAD PUSH1 0x0 NOT PUSH1 0x3 DUP14 SWAP1 SHL PUSH1 0xF8 AND SHR NOT AND SWAP1 SSTORE CODESIZE DUP1 PUSH2 0x1F2A JUMP JUMPDEST DUP6 ADD CALLDATALOAD DUP7 SSTORE DUP9 SWAP8 POP PUSH1 0x1 SWAP1 SWAP6 ADD SWAP5 SWAP4 DUP5 ADD SWAP4 DUP16 SWAP4 POP SWAP1 DUP2 ADD SWAP1 PUSH2 0x1F19 JUMP JUMPDEST PUSH4 0x4E487B71 PUSH1 0xE0 SHL DUP12 MSTORE PUSH1 0x41 DUP3 MSTORE PUSH1 0x24 DUP12 REVERT JUMPDEST DUP5 MLOAD PUSH4 0x3BFC66BF PUSH1 0xE1 SHL DUP2 MSTORE REVERT JUMPDEST DUP5 MLOAD PUSH4 0x255B3821 PUSH1 0xE0 SHL DUP2 MSTORE REVERT JUMPDEST DUP9 DUP1 REVERT JUMPDEST SWAP1 POP CALLVALUE PUSH2 0x550 JUMPI PUSH2 0x1FB4 CALLDATASIZE PUSH2 0x4455 JUMP JUMPDEST PUSH2 0x1FC2 SWAP6 SWAP4 SWAP6 SWAP5 SWAP2 SWAP5 PUSH2 0x4508 JUMP JUMPDEST PUSH1 0x1E SLOAD SWAP2 PUSH1 0xFF DUP4 AND PUSH2 0x202C JUMPI POP SWAP2 PUSH1 0x1 DUP7 SWAP5 SWAP3 PUSH1 0x80 SWAP7 SWAP5 PUSH32 0xA832766A05F1BD0298B0268308621777CFE1E4EEA23AFE7C06BEEA79BC6DDD2D SWAP9 PUSH1 0x19 SSTORE DUP4 PUSH1 0x1A SSTORE DUP6 PUSH1 0x1C SSTORE PUSH1 0x1D SSTORE TIMESTAMP PUSH1 0x1B SSTORE PUSH1 0xFF NOT AND OR PUSH1 0x1E SSTORE DUP2 MLOAD SWAP4 DUP5 MSTORE PUSH1 0x20 DUP5 ADD MSTORE DUP3 ADD MSTORE TIMESTAMP PUSH1 0x60 DUP3 ADD MSTORE LOG1 DUP1 RETURN JUMPDEST DUP5 MLOAD PUSH4 0x34DC687F PUSH1 0xE1 SHL DUP2 MSTORE REVERT JUMPDEST DUP3 DUP5 CALLVALUE PUSH2 0xBD0 JUMPI PUSH1 0x20 CALLDATASIZE PUSH1 0x3 NOT ADD SLT PUSH2 0xBD0 JUMPI DUP3 CALLDATALOAD SWAP1 PUSH1 0x1 PUSH1 0x1 PUSH1 0x40 SHL SUB DUP3 GT PUSH2 0xBD0 JUMPI CALLDATASIZE PUSH1 0x23 DUP4 ADD SLT ISZERO PUSH2 0xBD0 JUMPI POP PUSH1 0x20 PUSH2 0x2083 DUP2 SWAP5 DUP4 PUSH1 0x24 PUSH2 0x2095 SWAP6 CALLDATASIZE SWAP4 ADD CALLDATALOAD SWAP2 ADD PUSH2 0x441E JUMP JUMPDEST DUP2 DUP5 MLOAD SWAP4 DUP3 DUP6 DUP1 SWAP5 MLOAD SWAP4 DUP5 SWAP3 ADD PUSH2 0x407A JUMP JUMPDEST DUP2 ADD PUSH1 0x13 DUP2 MSTORE SUB ADD SWAP1 KECCAK256 SLOAD SWAP1 MLOAD SWAP1 DUP2 MSTORE RETURN JUMPDEST SWAP1 POP CALLVALUE PUSH2 0x550 JUMPI DUP2 PUSH1 0x3 NOT CALLDATASIZE ADD SLT PUSH2 0x550 JUMPI PUSH2 0x20C1 PUSH2 0x4020 JUMP JUMPDEST PUSH1 0x24 CALLDATALOAD SWAP1 PUSH2 0x20CD PUSH2 0x4508 JUMP JUMPDEST PUSH1 0x1 PUSH1 0x1 PUSH1 0xA0 SHL SUB SWAP1 DUP2 AND SWAP3 DUP4 ISZERO PUSH2 0x2189 JUMPI PUSH1 0x20 DUP4 SWAP2 DUP4 PUSH1 0x7 SLOAD AND SWAP1 PUSH2 0x2104 DUP9 MLOAD SWAP5 DUP6 SWAP4 DUP5 SWAP4 PUSH4 0xA9059CBB PUSH1 0xE0 SHL DUP6 MSTORE DUP5 ADD PUSH2 0x4142 JUMP JUMPDEST SUB DUP2 DUP10 DUP9 GAS CALL DUP1 ISZERO PUSH2 0x217F JUMPI PUSH2 0x2148 JUMPI JUMPDEST POP PUSH32 0xACA8FB252CDE442184E5F10E0F2E6E4029E8CD7717CAE63559079610702436AA SWAP2 PUSH1 0x20 SWAP2 PUSH1 0x7 SLOAD AND SWAP5 MLOAD SWAP1 DUP2 MSTORE LOG3 DUP1 RETURN JUMPDEST PUSH1 0x20 DUP2 RETURNDATASIZE DUP3 GT PUSH2 0x2177 JUMPI JUMPDEST DUP2 PUSH2 0x2160 PUSH1 0x20 SWAP4 DUP4 PUSH2 0x43E0 JUMP JUMPDEST DUP2 ADD SUB SLT PUSH2 0x143F JUMPI MLOAD DUP1 ISZERO ISZERO SUB PUSH2 0xF75 JUMPI CODESIZE PUSH2 0x2115 JUMP JUMPDEST RETURNDATASIZE SWAP2 POP PUSH2 0x2153 JUMP JUMPDEST DUP6 MLOAD RETURNDATASIZE DUP9 DUP3 RETURNDATACOPY RETURNDATASIZE SWAP1 REVERT JUMPDEST DUP5 MLOAD PUSH4 0xE6C4247B PUSH1 0xE0 SHL DUP2 MSTORE REVERT JUMPDEST DUP4 DUP4 CALLVALUE PUSH2 0x4E8 JUMPI PUSH1 0x20 SWAP1 DUP2 PUSH1 0x3 NOT CALLDATASIZE ADD SLT PUSH2 0x550 JUMPI DUP4 CALLDATALOAD SWAP2 PUSH2 0x21B7 PUSH2 0x4B2F JUMP JUMPDEST PUSH1 0xFF PUSH1 0x23 SLOAD PUSH1 0x8 SHR AND PUSH2 0x2383 JUMPI PUSH2 0x21CC PUSH2 0x4B73 JUMP JUMPDEST PUSH1 0xFF PUSH1 0x18 SLOAD AND ISZERO PUSH2 0x2373 JUMPI CALLER DUP5 MSTORE PUSH1 0x15 DUP2 MSTORE PUSH1 0xFF DUP3 DUP6 KECCAK256 SLOAD AND ISZERO PUSH2 0x2363 JUMPI DUP3 ISZERO PUSH2 0x2353 JUMPI CALLER DUP5 MSTORE PUSH1 0x16 DUP2 MSTORE PUSH2 0x2204 DUP4 DUP4 DUP7 KECCAK256 SLOAD PUSH2 0x4F2D JUMP JUMPDEST PUSH1 0x17 SLOAD LT PUSH2 0x2343 JUMPI PUSH1 0xC SWAP5 PUSH2 0x3E8 PUSH2 0x221D DUP6 DUP9 SLOAD PUSH2 0x4F2D JUMP JUMPDEST GT PUSH2 0x2335 JUMPI POP PUSH1 0xB SWAP1 DUP2 SLOAD SWAP2 DUP6 JUMPDEST DUP6 DUP2 LT PUSH2 0x229A JUMPI POP POP SWAP1 PUSH1 0x0 DUP1 MLOAD PUSH1 0x20 PUSH2 0x580F DUP4 CODECOPY DUP2 MLOAD SWAP2 MSTORE SWAP3 SWAP2 CALLER DUP7 MSTORE PUSH1 0x16 DUP2 MSTORE DUP3 DUP7 KECCAK256 PUSH2 0x225B DUP7 DUP3 SLOAD PUSH2 0x4F2D JUMP JUMPDEST SWAP1 SSTORE DUP3 MLOAD DUP6 DUP2 MSTORE PUSH32 0xCE77E469B386BE007F957632F6F65216F2E74C5DAA303AFF682E8296F628D010 DUP3 CALLER SWAP3 LOG2 DUP3 MLOAD SWAP5 DUP6 MSTORE DUP5 ADD MSTORE CALLER SWAP3 LOG2 PUSH1 0x1 PUSH1 0x8 SSTORE DUP1 RETURN JUMPDEST PUSH2 0x2330 SWAP1 PUSH2 0x22A6 PUSH2 0x4F3A JUMP JUMPDEST DUP4 SLOAD SWAP1 PUSH2 0x22B3 DUP3 CALLER PUSH2 0x4BC9 JUMP JUMPDEST PUSH1 0x1 DUP6 SLOAD ADD DUP6 SSTORE PUSH2 0x22C4 DUP12 SLOAD PUSH2 0x4B0A JUMP JUMPDEST DUP12 SSTORE DUP2 DUP11 MSTORE PUSH1 0x12 DUP7 MSTORE DUP1 DUP9 DUP12 KECCAK256 SSTORE PUSH1 0x3 PUSH2 0x22DD DUP3 PUSH2 0x4473 JUMP JUMPDEST POP ADD PUSH2 0x22E9 DUP2 SLOAD PUSH2 0x4B0A JUMP JUMPDEST SWAP1 SSTORE PUSH2 0x22FD PUSH2 0x22F7 DUP4 PUSH2 0x50B7 JUMP JUMPDEST DUP4 PUSH2 0x4DB8 JUMP JUMPDEST PUSH1 0x0 DUP1 MLOAD PUSH1 0x20 PUSH2 0x56AF DUP4 CODECOPY DUP2 MLOAD SWAP2 MSTORE PUSH2 0x2315 DUP3 PUSH2 0x4473 JUMP JUMPDEST POP SWAP2 DUP10 MLOAD SWAP1 DUP2 MSTORE DUP10 DUP9 DUP3 ADD MSTORE DUP1 PUSH2 0x8B0 CALLER SWAP5 DUP13 DUP4 ADD SWAP1 PUSH2 0x42E3 JUMP JUMPDEST PUSH2 0x222B JUMP JUMPDEST DUP3 MLOAD PUSH4 0xC30436E9 PUSH1 0xE0 SHL DUP2 MSTORE REVERT JUMPDEST DUP2 MLOAD PUSH4 0xB3ADBB57 PUSH1 0xE0 SHL DUP2 MSTORE DUP6 SWAP1 REVERT JUMPDEST DUP2 MLOAD PUSH4 0x524F409B PUSH1 0xE0 SHL DUP2 MSTORE DUP6 SWAP1 REVERT JUMPDEST DUP2 MLOAD PUSH4 0xB094F27 PUSH1 0xE3 SHL DUP2 MSTORE DUP6 SWAP1 REVERT JUMPDEST DUP2 MLOAD PUSH4 0x2664E71 PUSH1 0xE1 SHL DUP2 MSTORE DUP6 SWAP1 REVERT JUMPDEST DUP2 MLOAD PUSH4 0x250440B3 PUSH1 0xE0 SHL DUP2 MSTORE DUP6 SWAP1 REVERT JUMPDEST SWAP3 SWAP2 POP CALLVALUE PUSH2 0x2425 JUMPI DUP2 PUSH1 0x3 NOT CALLDATASIZE ADD SLT PUSH2 0x2425 JUMPI PUSH2 0x23AE PUSH2 0x4020 JUMP JUMPDEST PUSH2 0x23B6 PUSH2 0x4508 JUMP JUMPDEST PUSH1 0x7 SLOAD PUSH1 0x1 PUSH1 0x1 PUSH1 0xA0 SHL SUB SWAP1 DUP2 AND SWAP2 AND DUP1 EXTCODESIZE ISZERO PUSH2 0xF75 JUMPI PUSH1 0x64 DUP6 SWAP3 DUP6 MLOAD SWAP7 DUP8 SWAP4 DUP5 SWAP3 PUSH4 0x23B872DD PUSH1 0xE0 SHL DUP5 MSTORE ADDRESS DUP9 DUP6 ADD MSTORE PUSH1 0x24 DUP5 ADD MSTORE PUSH1 0x24 CALLDATALOAD PUSH1 0x44 DUP5 ADD MSTORE GAS CALL DUP1 ISZERO PUSH2 0x241B JUMPI PUSH2 0x2404 JUMPI DUP4 DUP1 RETURN JUMPDEST PUSH1 0x1 PUSH1 0x1 PUSH1 0x40 SHL SUB DUP4 GT PUSH2 0x1ACA JUMPI POP MSTORE CODESIZE DUP1 DUP1 DUP4 DUP1 RETURN JUMPDEST DUP3 MLOAD RETURNDATASIZE DUP7 DUP3 RETURNDATACOPY RETURNDATASIZE SWAP1 REVERT JUMPDEST POP POP REVERT JUMPDEST SWAP1 POP CALLVALUE PUSH2 0x550 JUMPI PUSH1 0x20 SWAP2 DUP3 PUSH1 0x3 NOT CALLDATASIZE ADD SLT PUSH2 0xF79 JUMPI DUP2 CALLDATALOAD PUSH1 0x1 PUSH1 0x1 PUSH1 0x40 SHL SUB DUP2 GT PUSH2 0xF75 JUMPI PUSH2 0x245B SWAP1 CALLDATASIZE SWAP1 DUP5 ADD PUSH2 0x418A JUMP JUMPDEST SWAP3 PUSH2 0x2464 PUSH2 0x4508 JUMP JUMPDEST DUP4 ISZERO PUSH2 0x2505 JUMPI DUP6 JUMPDEST DUP5 DUP2 LT PUSH2 0x2477 JUMPI DUP7 DUP1 RETURN JUMPDEST PUSH1 0x1 PUSH1 0x1 PUSH1 0xA0 SHL SUB DUP1 PUSH2 0x2493 PUSH2 0x248E DUP5 DUP10 DUP9 PUSH2 0x535A JUMP JUMPDEST PUSH2 0x536A JUMP JUMPDEST AND ISZERO PUSH2 0x24F5 JUMPI SWAP1 DUP2 PUSH2 0x24F0 SWAP3 PUSH2 0x24AD PUSH2 0x248E DUP5 DUP11 DUP10 PUSH2 0x535A JUMP JUMPDEST AND DUP10 MSTORE PUSH1 0x15 DUP9 MSTORE PUSH1 0x0 DUP1 MLOAD PUSH1 0x20 PUSH2 0x582F DUP4 CODECOPY DUP2 MLOAD SWAP2 MSTORE DUP9 DUP8 DUP12 KECCAK256 SWAP3 PUSH1 0x1 SWAP4 DUP5 PUSH1 0xFF NOT DUP3 SLOAD AND OR SWAP1 SSTORE PUSH2 0x24E3 PUSH2 0x248E DUP7 DUP13 DUP12 PUSH2 0x535A JUMP JUMPDEST AND SWAP3 DUP9 MLOAD SWAP1 DUP2 MSTORE LOG2 PUSH2 0x4B0A JUMP JUMPDEST PUSH2 0x246C JUMP JUMPDEST DUP5 MLOAD PUSH4 0xD92E233D PUSH1 0xE0 SHL DUP2 MSTORE DUP4 SWAP1 REVERT JUMPDEST DUP3 MLOAD PUSH4 0x521299A9 PUSH1 0xE0 SHL DUP2 MSTORE REVERT JUMPDEST DUP4 SWAP2 POP CALLVALUE PUSH2 0x4E8 JUMPI PUSH1 0x20 SWAP3 DUP4 PUSH1 0x3 NOT CALLDATASIZE ADD SLT PUSH2 0x550 JUMPI PUSH1 0x1 PUSH1 0x1 PUSH1 0x40 SHL SUB SWAP1 DUP3 CALLDATALOAD DUP3 DUP2 GT PUSH2 0xF75 JUMPI PUSH2 0x2548 SWAP1 CALLDATASIZE SWAP1 DUP6 ADD PUSH2 0x415D JUMP JUMPDEST SWAP4 SWAP1 SWAP3 PUSH2 0x2553 PUSH2 0x4508 JUMP JUMPDEST DUP5 GT PUSH2 0x10D7 JUMPI POP PUSH2 0x2565 PUSH1 0x10 SLOAD PUSH2 0x41BA JUMP JUMPDEST PUSH1 0x1F DUP2 GT PUSH2 0x263E JUMPI JUMPDEST POP DUP4 SWAP5 PUSH1 0x1F DUP5 GT PUSH1 0x1 EQ PUSH2 0x25C3 JUMPI POP PUSH2 0xAF7 SWAP1 DUP4 DUP6 SWAP7 PUSH1 0x0 DUP1 MLOAD PUSH1 0x20 PUSH2 0x570F DUP4 CODECOPY DUP2 MLOAD SWAP2 MSTORE SWAP7 SWAP2 PUSH2 0x25B8 JUMPI JUMPDEST POP DUP5 PUSH1 0x1 SHL SWAP1 PUSH1 0x0 NOT DUP7 PUSH1 0x3 SHL SHR NOT AND OR PUSH1 0x10 SSTORE MLOAD SWAP3 DUP4 SWAP3 DUP4 PUSH2 0x5332 JUMP JUMPDEST SWAP1 POP DUP4 ADD CALLDATALOAD DUP8 PUSH2 0x259A JUMP JUMPDEST SWAP5 PUSH1 0x1F NOT DUP5 AND PUSH1 0x10 DUP7 MSTORE DUP7 DUP7 KECCAK256 SWAP7 DUP7 SWAP1 JUMPDEST DUP3 DUP3 LT PUSH2 0x2625 JUMPI POP POP SWAP6 PUSH2 0xAF7 SWAP3 SWAP2 DUP6 PUSH1 0x0 DUP1 MLOAD PUSH1 0x20 PUSH2 0x570F DUP4 CODECOPY DUP2 MLOAD SWAP2 MSTORE SWAP8 SWAP9 LT PUSH2 0x260B JUMPI JUMPDEST POP POP PUSH1 0x1 DUP5 DUP2 SHL ADD PUSH1 0x10 SSTORE PUSH2 0x1047 JUMP JUMPDEST DUP5 ADD CALLDATALOAD PUSH1 0x0 NOT PUSH1 0x3 DUP8 SWAP1 SHL PUSH1 0xF8 AND SHR NOT AND SWAP1 SSTORE DUP7 DUP1 PUSH2 0x25FB JUMP JUMPDEST DUP4 DUP7 ADD CALLDATALOAD DUP10 SSTORE PUSH1 0x1 SWAP1 SWAP9 ADD SWAP8 SWAP3 DUP4 ADD SWAP3 SWAP1 DUP2 ADD SWAP1 PUSH2 0x25D4 JUMP JUMPDEST PUSH1 0x10 DUP6 MSTORE DUP6 DUP6 KECCAK256 PUSH1 0x1F DUP6 ADD PUSH1 0x5 SHR DUP2 ADD SWAP2 DUP8 DUP7 LT PUSH2 0x2678 JUMPI JUMPDEST PUSH1 0x1F ADD PUSH1 0x5 SHR ADD SWAP1 JUMPDEST DUP2 DUP2 LT PUSH2 0x266D JUMPI POP PUSH2 0x256E JUMP JUMPDEST DUP6 DUP2 SSTORE PUSH1 0x1 ADD PUSH2 0x2660 JUMP JUMPDEST SWAP1 SWAP2 POP DUP2 SWAP1 PUSH2 0x2657 JUMP JUMPDEST POP POP CALLVALUE PUSH2 0x4E8 JUMPI DUP2 PUSH1 0x3 NOT CALLDATASIZE ADD SLT PUSH2 0x4E8 JUMPI PUSH1 0x20 SWAP1 PUSH1 0xC SLOAD SWAP1 MLOAD SWAP1 DUP2 MSTORE RETURN JUMPDEST POP POP CALLVALUE PUSH2 0x4E8 JUMPI DUP2 PUSH1 0x3 NOT CALLDATASIZE ADD SLT PUSH2 0x4E8 JUMPI PUSH1 0x20 SWAP1 MLOAD PUSH1 0x0 DUP1 MLOAD PUSH1 0x20 PUSH2 0x574F DUP4 CODECOPY DUP2 MLOAD SWAP2 MSTORE DUP2 MSTORE RETURN JUMPDEST DUP4 CALLVALUE PUSH2 0xBD0 JUMPI DUP1 PUSH1 0x3 NOT CALLDATASIZE ADD SLT PUSH2 0xBD0 JUMPI PUSH2 0x26E3 PUSH2 0x4508 JUMP JUMPDEST PUSH1 0x7 DUP1 SLOAD PUSH1 0x1 PUSH1 0x1 PUSH1 0xA0 SHL SUB NOT DUP2 AND SWAP1 SWAP2 SSTORE DUP2 SWAP1 PUSH1 0x1 PUSH1 0x1 PUSH1 0xA0 SHL SUB AND PUSH1 0x0 DUP1 MLOAD PUSH1 0x20 PUSH2 0x56CF DUP4 CODECOPY DUP2 MLOAD SWAP2 MSTORE DUP3 DUP1 LOG3 DUP1 RETURN JUMPDEST DUP4 SWAP2 POP CALLVALUE PUSH2 0x4E8 JUMPI PUSH1 0x20 CALLDATASIZE PUSH1 0x3 NOT ADD SLT PUSH2 0x4E8 JUMPI PUSH1 0x1 PUSH1 0x1 PUSH1 0xA0 SHL SUB PUSH2 0x2739 PUSH2 0x4020 JUMP JUMPDEST AND SWAP1 DUP2 ISZERO PUSH2 0x2756 JUMPI PUSH1 0x20 DUP5 DUP1 DUP6 DUP6 DUP2 MSTORE PUSH1 0x3 DUP5 MSTORE KECCAK256 SLOAD SWAP1 MLOAD SWAP1 DUP2 MSTORE RETURN JUMPDEST PUSH1 0x84 SWAP1 PUSH1 0x20 DUP6 MLOAD SWAP2 PUSH3 0x461BCD PUSH1 0xE5 SHL DUP4 MSTORE DUP3 ADD MSTORE PUSH1 0x29 PUSH1 0x24 DUP3 ADD MSTORE PUSH32 0x4552433732313A2061646472657373207A65726F206973206E6F742061207661 PUSH1 0x44 DUP3 ADD MSTORE PUSH9 0x3634B21037BBB732B9 PUSH1 0xB9 SHL PUSH1 0x64 DUP3 ADD MSTORE REVERT JUMPDEST POP POP CALLVALUE PUSH2 0x4E8 JUMPI DUP2 PUSH1 0x3 NOT CALLDATASIZE ADD SLT PUSH2 0x4E8 JUMPI DUP1 MLOAD SWAP1 DUP3 PUSH1 0xD SLOAD PUSH2 0x27CD DUP2 PUSH2 0x41BA JUMP JUMPDEST DUP1 DUP6 MSTORE SWAP1 PUSH1 0x1 SWAP1 DUP2 DUP2 AND SWAP1 DUP2 ISZERO PUSH2 0x2852 JUMPI POP PUSH1 0x1 EQ PUSH2 0x27F9 JUMPI JUMPDEST POP POP POP PUSH2 0x74E DUP3 PUSH2 0x760 SWAP5 SUB DUP4 PUSH2 0x43E0 JUMP JUMPDEST PUSH1 0xD DUP4 MSTORE PUSH1 0x20 SWAP6 POP PUSH32 0xD7B6990105719101DABEB77144F2A3385C8033ACD3AF97E9423A695E81AD1EB5 JUMPDEST DUP3 DUP5 LT PUSH2 0x283F JUMPI POP POP POP DUP3 PUSH2 0x760 SWAP5 PUSH2 0x74E SWAP3 DUP3 ADD ADD SWAP5 PUSH2 0x27E7 JUMP JUMPDEST DUP1 SLOAD DUP7 DUP6 ADD DUP9 ADD MSTORE SWAP3 DUP7 ADD SWAP3 DUP2 ADD PUSH2 0x2823 JUMP JUMPDEST PUSH2 0x760 SWAP8 POP PUSH2 0x74E SWAP5 POP PUSH1 0x20 SWAP3 POP DUP7 SWAP4 SWAP2 POP PUSH1 0xFF NOT AND DUP3 DUP5 ADD MSTORE ISZERO ISZERO PUSH1 0x5 SHL DUP3 ADD ADD SWAP5 PUSH2 0x27E7 JUMP JUMPDEST SWAP1 POP CALLVALUE PUSH2 0x550 JUMPI PUSH1 0x20 CALLDATASIZE PUSH1 0x3 NOT ADD SLT PUSH2 0x550 JUMPI PUSH2 0x2895 PUSH2 0x4020 JUMP JUMPDEST SWAP2 PUSH2 0x289E PUSH2 0x4B2F JUMP JUMPDEST PUSH1 0xFF PUSH1 0x23 SLOAD PUSH1 0x8 SHR AND PUSH2 0x29B9 JUMPI PUSH2 0x28B3 PUSH2 0x4B73 JUMP JUMPDEST PUSH2 0x3E8 PUSH1 0xC SLOAD LT ISZERO PUSH2 0x29AC JUMPI PUSH1 0x1 PUSH1 0x1 PUSH1 0xA0 SHL SUB DUP4 AND SWAP2 DUP3 ISZERO PUSH2 0x299E JUMPI PUSH2 0x28D8 PUSH2 0x4F3A JUMP JUMPDEST SWAP1 PUSH1 0x3 PUSH2 0x28E4 DUP4 PUSH2 0x4473 JUMP JUMPDEST POP ADD SLOAD PUSH1 0x2 PUSH2 0x28F2 DUP5 PUSH2 0x4473 JUMP JUMPDEST POP ADD SLOAD GT ISZERO PUSH2 0x2990 JUMPI POP SWAP1 PUSH1 0x0 DUP1 MLOAD PUSH1 0x20 PUSH2 0x56AF DUP4 CODECOPY DUP2 MLOAD SWAP2 MSTORE SWAP2 PUSH2 0x291A PUSH1 0xB SLOAD DUP1 SWAP7 PUSH2 0x4BC9 JUMP JUMPDEST PUSH1 0x1 PUSH1 0xB SLOAD ADD PUSH1 0xB SSTORE PUSH2 0x292E PUSH1 0xC SLOAD PUSH2 0x4B0A JUMP JUMPDEST PUSH1 0xC SSTORE DUP5 DUP7 MSTORE PUSH1 0x12 PUSH1 0x20 MSTORE DUP1 DUP3 DUP8 KECCAK256 SSTORE PUSH1 0x3 PUSH2 0x2949 DUP3 PUSH2 0x4473 JUMP JUMPDEST POP ADD PUSH2 0x2955 DUP2 SLOAD PUSH2 0x4B0A JUMP JUMPDEST SWAP1 SSTORE PUSH2 0x2963 PUSH2 0x889 DUP7 PUSH2 0x50B7 JUMP JUMPDEST PUSH2 0x2985 PUSH2 0x296F DUP3 PUSH2 0x4473 JUMP JUMPDEST POP DUP4 MLOAD SWAP4 DUP5 SWAP4 DUP5 MSTORE DUP1 PUSH1 0x20 DUP6 ADD MSTORE DUP4 ADD SWAP1 PUSH2 0x42E3 JUMP JUMPDEST SUB SWAP1 LOG3 PUSH1 0x1 PUSH1 0x8 SSTORE DUP1 RETURN JUMPDEST DUP3 MLOAD PUSH4 0x24E40FD PUSH1 0xE4 SHL DUP2 MSTORE REVERT JUMPDEST SWAP1 MLOAD PUSH4 0xD92E233D PUSH1 0xE0 SHL DUP2 MSTORE REVERT JUMPDEST MLOAD PUSH4 0xD05CB609 PUSH1 0xE0 SHL DUP2 MSTORE REVERT JUMPDEST MLOAD PUSH4 0x250440B3 PUSH1 0xE0 SHL DUP2 MSTORE REVERT JUMPDEST POP POP CALLVALUE PUSH2 0x4E8 JUMPI DUP2 PUSH1 0x3 NOT CALLDATASIZE ADD SLT PUSH2 0x4E8 JUMPI PUSH1 0x20 SWAP1 PUSH1 0xFF PUSH1 0x23 SLOAD PUSH1 0x8 SHR AND SWAP1 MLOAD SWAP1 ISZERO ISZERO DUP2 MSTORE RETURN JUMPDEST DUP3 DUP5 CALLVALUE PUSH2 0xBD0 JUMPI PUSH1 0x20 CALLDATASIZE PUSH1 0x3 NOT ADD SLT PUSH2 0xBD0 JUMPI POP PUSH2 0x2A0D PUSH1 0x20 SWAP3 CALLDATALOAD PUSH2 0x45A7 JUMP JUMPDEST SWAP1 MLOAD PUSH1 0x1 PUSH1 0x1 PUSH1 0xA0 SHL SUB SWAP1 SWAP2 AND DUP2 MSTORE RETURN JUMPDEST POP POP CALLVALUE PUSH2 0x4E8 JUMPI DUP2 PUSH1 0x3 NOT CALLDATASIZE ADD SLT PUSH2 0x4E8 JUMPI PUSH1 0x20 SWAP1 PUSH1 0xFF PUSH1 0x9 SLOAD AND SWAP1 MLOAD SWAP1 ISZERO ISZERO DUP2 MSTORE RETURN JUMPDEST DUP4 SWAP2 POP CALLVALUE PUSH2 0x4E8 JUMPI PUSH1 0x20 SWAP3 DUP4 PUSH1 0x3 NOT CALLDATASIZE ADD SLT PUSH2 0x550 JUMPI PUSH1 0x1 PUSH1 0x1 PUSH1 0x40 SHL SUB SWAP1 DUP3 CALLDATALOAD DUP3 DUP2 GT PUSH2 0xF75 JUMPI PUSH2 0x2A77 SWAP1 CALLDATASIZE SWAP1 DUP6 ADD PUSH2 0x415D JUMP JUMPDEST SWAP4 SWAP1 SWAP3 PUSH2 0x2A82 PUSH2 0x4508 JUMP JUMPDEST DUP5 GT PUSH2 0x10D7 JUMPI POP PUSH2 0x2A98 DUP4 PUSH2 0x1002 PUSH1 0xD SLOAD PUSH2 0x41BA JUMP JUMPDEST DUP4 SWAP5 PUSH1 0x1F DUP5 GT PUSH1 0x1 EQ PUSH2 0x2AE0 JUMPI POP PUSH2 0xAF7 SWAP1 DUP4 DUP6 SWAP7 PUSH1 0x0 DUP1 MLOAD PUSH1 0x20 PUSH2 0x578F DUP4 CODECOPY DUP2 MLOAD SWAP2 MSTORE SWAP7 SWAP2 PUSH2 0x1051 JUMPI POP DUP5 PUSH1 0x1 SHL SWAP1 PUSH1 0x0 NOT DUP7 PUSH1 0x3 SHL SHR NOT AND OR PUSH1 0xD SSTORE MLOAD SWAP3 DUP4 SWAP3 DUP4 PUSH2 0x5332 JUMP JUMPDEST SWAP5 PUSH1 0x1F NOT DUP5 AND PUSH1 0xD DUP7 MSTORE DUP7 DUP7 KECCAK256 SWAP7 DUP7 SWAP1 JUMPDEST DUP3 DUP3 LT PUSH2 0x2B27 JUMPI POP POP SWAP6 PUSH2 0xAF7 SWAP3 SWAP2 DUP6 PUSH1 0x0 DUP1 MLOAD PUSH1 0x20 PUSH2 0x578F DUP4 CODECOPY DUP2 MLOAD SWAP2 MSTORE SWAP8 SWAP9 LT PUSH2 0x10A4 JUMPI POP POP PUSH1 0x1 DUP5 DUP2 SHL ADD PUSH1 0xD SSTORE PUSH2 0x1047 JUMP JUMPDEST DUP4 DUP7 ADD CALLDATALOAD DUP10 SSTORE PUSH1 0x1 SWAP1 SWAP9 ADD SWAP8 SWAP3 DUP4 ADD SWAP3 SWAP1 DUP2 ADD SWAP1 PUSH2 0x2AF1 JUMP JUMPDEST SWAP1 POP CALLVALUE PUSH2 0x550 JUMPI PUSH1 0x20 CALLDATASIZE PUSH1 0x3 NOT ADD SLT PUSH2 0x550 JUMPI DUP1 CALLDATALOAD SWAP1 PUSH2 0x2B5E PUSH2 0x4A74 JUMP JUMPDEST POP PUSH2 0x2B68 DUP3 PUSH2 0x48B8 JUMP JUMPDEST ISZERO PUSH2 0x1607 JUMPI POP PUSH2 0x2B88 DUP3 DUP5 PUSH2 0x2B8E SWAP4 PUSH2 0x760 SWAP7 MSTORE PUSH1 0x12 PUSH1 0x20 MSTORE KECCAK256 SLOAD PUSH2 0x4473 JUMP JUMPDEST POP PUSH2 0x4AA1 JUMP JUMPDEST SWAP1 MLOAD SWAP2 DUP3 SWAP2 PUSH1 0x20 DUP4 MSTORE PUSH1 0x20 DUP4 ADD SWAP1 PUSH2 0x40F7 JUMP JUMPDEST SWAP2 SWAP1 POP CALLVALUE PUSH2 0x550 JUMPI PUSH1 0x20 DUP1 PUSH1 0x3 NOT CALLDATASIZE ADD SLT PUSH2 0xF79 JUMPI DUP3 CALLDATALOAD PUSH1 0x1 PUSH1 0x1 PUSH1 0x40 SHL SUB DUP2 GT PUSH2 0xF75 JUMPI PUSH2 0x2BD3 SWAP1 CALLDATASIZE SWAP1 DUP6 ADD PUSH2 0x418A JUMP JUMPDEST SWAP4 PUSH2 0x2BDC PUSH2 0x4508 JUMP JUMPDEST DUP5 ISZERO PUSH2 0x2C4C JUMPI POP DUP5 JUMPDEST DUP5 DUP2 LT PUSH2 0x2BF0 JUMPI DUP6 DUP1 RETURN JUMPDEST PUSH2 0x2C47 SWAP1 PUSH1 0x1 PUSH1 0x1 PUSH1 0xA0 SHL SUB DUP1 PUSH2 0x2C0B PUSH2 0x248E DUP5 DUP11 DUP9 PUSH2 0x535A JUMP JUMPDEST AND DUP9 MSTORE PUSH1 0x15 DUP6 MSTORE DUP6 DUP9 KECCAK256 DUP1 SLOAD PUSH1 0xFF NOT AND SWAP1 SSTORE PUSH2 0x2C2B PUSH2 0x248E DUP4 DUP10 DUP8 PUSH2 0x535A JUMP JUMPDEST AND PUSH1 0x0 DUP1 MLOAD PUSH1 0x20 PUSH2 0x582F DUP4 CODECOPY DUP2 MLOAD SWAP2 MSTORE DUP6 DUP8 MLOAD DUP11 DUP2 MSTORE LOG2 PUSH2 0x4B0A JUMP JUMPDEST PUSH2 0x2BE5 JUMP JUMPDEST DUP4 MLOAD PUSH4 0x521299A9 PUSH1 0xE0 SHL DUP2 MSTORE REVERT JUMPDEST DUP3 DUP5 CALLVALUE PUSH2 0xBD0 JUMPI PUSH1 0x20 CALLDATASIZE PUSH1 0x3 NOT ADD SLT PUSH2 0xBD0 JUMPI POP DUP2 CALLDATALOAD PUSH1 0x11 SLOAD DUP2 LT ISZERO PUSH2 0x2C99 JUMPI PUSH1 0x20 SWAP3 POP PUSH1 0x2 PUSH2 0x2C8E PUSH1 0x3 PUSH2 0xCAB DUP5 PUSH2 0x4473 JUMP JUMPDEST POP ADD SLOAD GT SWAP1 MLOAD SWAP1 DUP2 MSTORE RETURN JUMPDEST POP MLOAD PUSH4 0x63DF8171 PUSH1 0xE0 SHL DUP2 MSTORE REVERT JUMPDEST POP POP CALLVALUE PUSH2 0x4E8 JUMPI DUP2 PUSH1 0x3 NOT CALLDATASIZE ADD SLT PUSH2 0x4E8 JUMPI PUSH1 0x20 SWAP1 PUSH2 0x5C4 PUSH2 0x5391 JUMP JUMPDEST POP POP CALLVALUE PUSH2 0x4E8 JUMPI DUP2 PUSH1 0x3 NOT CALLDATASIZE ADD SLT PUSH2 0x4E8 JUMPI PUSH1 0x20 SWAP1 PUSH1 0xFF PUSH1 0xF SLOAD AND SWAP1 MLOAD SWAP1 ISZERO ISZERO DUP2 MSTORE RETURN JUMPDEST POP POP CALLVALUE PUSH2 0x4E8 JUMPI DUP2 PUSH1 0x3 NOT CALLDATASIZE ADD SLT PUSH2 0x4E8 JUMPI PUSH1 0x20 SWAP1 PUSH2 0x5C4 PUSH2 0x544A JUMP JUMPDEST SWAP2 PUSH1 0x20 SWAP2 POP CALLDATASIZE PUSH1 0x3 NOT ADD DUP3 SGT PUSH2 0xF79 JUMPI DUP3 CALLDATALOAD SWAP2 PUSH2 0x2D20 PUSH2 0x4B2F JUMP JUMPDEST PUSH1 0xFF PUSH1 0x23 SLOAD PUSH1 0x8 SHR AND PUSH2 0x2F18 JUMPI PUSH2 0x2D35 PUSH2 0x4B73 JUMP JUMPDEST PUSH1 0xFF PUSH1 0x1E SLOAD AND ISZERO DUP1 ISZERO PUSH2 0x2F0D JUMPI JUMPDEST PUSH2 0x2EFD JUMPI DUP3 ISZERO DUP1 ISZERO PUSH2 0x2EF3 JUMPI JUMPDEST PUSH2 0x2EE3 JUMPI PUSH1 0xC SWAP1 PUSH2 0x3E8 PUSH2 0x2D65 DUP6 DUP5 SLOAD PUSH2 0x4F2D JUMP JUMPDEST GT PUSH2 0x2ED3 JUMPI PUSH2 0x2D72 PUSH2 0x5391 JUMP JUMPDEST SWAP5 PUSH2 0x2D7D DUP6 DUP8 PUSH2 0x537E JUMP JUMPDEST SWAP1 DUP2 CALLVALUE LT PUSH2 0x2EC5 JUMPI POP PUSH1 0xB SWAP3 DUP4 SLOAD SWAP4 DUP9 JUMPDEST DUP8 DUP2 LT PUSH2 0x2E29 JUMPI POP POP POP DUP1 CALLVALUE GT PUSH2 0x2DF9 JUMPI JUMPDEST PUSH32 0x663BD6898D9847B7AAB9A13504609B487BFBC6E8DCCDBD1C4435753941825797 PUSH2 0x2DE3 PUSH1 0x0 DUP1 MLOAD PUSH1 0x20 PUSH2 0x580F DUP4 CODECOPY DUP2 MLOAD SWAP2 MSTORE SWAP7 SWAP8 DUP7 MLOAD SWAP2 DUP3 SWAP2 CALLER SWAP6 DUP12 DUP5 PUSH2 0x5434 JUMP JUMPDEST SUB SWAP1 LOG2 DUP3 MLOAD SWAP5 DUP6 MSTORE DUP5 ADD MSTORE CALLER SWAP3 LOG2 PUSH1 0x1 PUSH1 0x8 SSTORE DUP1 RETURN JUMPDEST DUP7 DUP1 DUP1 DUP1 PUSH2 0x2E07 DUP6 CALLVALUE PUSH2 0x52A1 JUMP JUMPDEST DUP2 DUP2 ISZERO PUSH2 0x2E20 JUMPI JUMPDEST CALLER SWAP1 CALL PUSH2 0x2DA0 JUMPI DUP4 MLOAD RETURNDATASIZE DUP9 DUP3 RETURNDATACOPY RETURNDATASIZE SWAP1 REVERT JUMPDEST POP PUSH2 0x8FC PUSH2 0x2E0F JUMP JUMPDEST PUSH2 0x2EC0 SWAP1 DUP11 DUP9 PUSH1 0x0 DUP1 MLOAD PUSH1 0x20 PUSH2 0x56AF DUP4 CODECOPY DUP2 MLOAD SWAP2 MSTORE PUSH2 0x2E46 PUSH2 0x4F3A JUMP JUMPDEST DUP1 DUP4 DUP9 SLOAD SWAP6 PUSH2 0x2E55 DUP8 CALLER PUSH2 0x4BC9 JUMP JUMPDEST PUSH1 0x1 DUP11 SLOAD ADD DUP11 SSTORE PUSH2 0x2E66 DUP12 SLOAD PUSH2 0x4B0A JUMP JUMPDEST DUP12 SSTORE DUP7 DUP2 MSTORE PUSH1 0x12 DUP14 MSTORE KECCAK256 SSTORE PUSH1 0x3 PUSH2 0x2E7C DUP3 PUSH2 0x4473 JUMP JUMPDEST POP ADD PUSH2 0x2E88 DUP2 SLOAD PUSH2 0x4B0A JUMP JUMPDEST SWAP1 SSTORE PUSH2 0x2E9C PUSH2 0x2E96 DUP6 PUSH2 0x50B7 JUMP JUMPDEST DUP6 PUSH2 0x4DB8 JUMP JUMPDEST PUSH2 0x2EA5 DUP2 PUSH2 0x4473 JUMP JUMPDEST POP SWAP1 PUSH2 0x8B0 DUP5 MLOAD SWAP3 DUP4 SWAP3 DUP4 MSTORE DUP6 DUP14 DUP5 ADD MSTORE CALLER SWAP6 DUP4 ADD SWAP1 PUSH2 0x42E3 JUMP JUMPDEST PUSH2 0x2D8E JUMP JUMPDEST DUP5 MLOAD PUSH4 0xCD1C8867 PUSH1 0xE0 SHL DUP2 MSTORE REVERT JUMPDEST DUP3 MLOAD PUSH4 0xC30436E9 PUSH1 0xE0 SHL DUP2 MSTORE DUP6 SWAP1 REVERT JUMPDEST DUP2 MLOAD PUSH4 0x524F409B PUSH1 0xE0 SHL DUP2 MSTORE DUP5 SWAP1 REVERT JUMPDEST POP PUSH1 0xA DUP4 GT PUSH2 0x2D50 JUMP JUMPDEST DUP2 MLOAD PUSH4 0x34DC687F PUSH1 0xE1 SHL DUP2 MSTORE DUP5 SWAP1 REVERT JUMPDEST POP PUSH1 0x1B SLOAD TIMESTAMP LT PUSH2 0x2D43 JUMP JUMPDEST DUP2 MLOAD PUSH4 0x250440B3 PUSH1 0xE0 SHL DUP2 MSTORE DUP5 SWAP1 REVERT JUMPDEST SWAP1 POP CALLVALUE PUSH2 0x550 JUMPI DUP2 PUSH1 0x3 NOT CALLDATASIZE ADD SLT PUSH2 0x550 JUMPI PUSH2 0x2F42 PUSH2 0x4020 JUMP JUMPDEST SWAP2 PUSH1 0x24 CALLDATALOAD PUSH2 0x2F4E PUSH2 0x4508 JUMP JUMPDEST PUSH2 0x3E8 PUSH1 0xC SLOAD LT ISZERO PUSH2 0x302D JUMPI PUSH1 0x1 PUSH1 0x1 PUSH1 0xA0 SHL SUB DUP5 AND SWAP3 DUP4 ISZERO PUSH2 0x301F JUMPI PUSH1 0x11 SLOAD DUP3 LT ISZERO PUSH2 0x3011 JUMPI PUSH1 0x3 PUSH2 0x2F80 DUP4 PUSH2 0x4473 JUMP JUMPDEST POP ADD SLOAD PUSH1 0x2 PUSH2 0x2F8E DUP5 PUSH2 0x4473 JUMP JUMPDEST POP ADD SLOAD GT ISZERO PUSH2 0x2990 JUMPI POP SWAP1 PUSH1 0x0 DUP1 MLOAD PUSH1 0x20 PUSH2 0x56AF DUP4 CODECOPY DUP2 MLOAD SWAP2 MSTORE SWAP2 PUSH2 0x2FB6 PUSH1 0xB SLOAD DUP1 SWAP7 PUSH2 0x4BC9 JUMP JUMPDEST PUSH1 0x1 PUSH1 0xB SLOAD ADD PUSH1 0xB SSTORE PUSH2 0x2FCA PUSH1 0xC SLOAD PUSH2 0x4B0A JUMP JUMPDEST PUSH1 0xC SSTORE DUP5 DUP7 MSTORE PUSH1 0x12 PUSH1 0x20 MSTORE DUP1 DUP3 DUP8 KECCAK256 SSTORE PUSH1 0x3 PUSH2 0x2FE5 DUP3 PUSH2 0x4473 JUMP JUMPDEST POP ADD PUSH2 0x2FF1 DUP2 SLOAD PUSH2 0x4B0A JUMP JUMPDEST SWAP1 SSTORE PUSH2 0x2FFF PUSH2 0x889 DUP7 PUSH2 0x50B7 JUMP JUMPDEST PUSH2 0x300B PUSH2 0x296F DUP3 PUSH2 0x4473 JUMP JUMPDEST SUB SWAP1 LOG3 DUP1 RETURN JUMPDEST DUP3 MLOAD PUSH4 0x511785AD PUSH1 0xE0 SHL DUP2 MSTORE REVERT JUMPDEST DUP3 MLOAD PUSH4 0xD92E233D PUSH1 0xE0 SHL DUP2 MSTORE REVERT JUMPDEST POP MLOAD PUSH4 0xD05CB609 PUSH1 0xE0 SHL DUP2 MSTORE REVERT JUMPDEST POP POP CALLVALUE PUSH2 0x4E8 JUMPI DUP2 PUSH1 0x3 NOT CALLDATASIZE ADD SLT PUSH2 0x4E8 JUMPI PUSH1 0x20 SWAP1 PUSH1 0x1D SLOAD SWAP1 MLOAD SWAP1 DUP2 MSTORE RETURN JUMPDEST POP POP CALLVALUE PUSH2 0x4E8 JUMPI DUP2 PUSH1 0x3 NOT CALLDATASIZE ADD SLT PUSH2 0x4E8 JUMPI PUSH1 0x20 PUSH1 0x0 DUP1 MLOAD PUSH1 0x20 PUSH2 0x576F DUP4 CODECOPY DUP2 MLOAD SWAP2 MSTORE SWAP2 PUSH2 0x3086 PUSH2 0x4508 JUMP JUMPDEST PUSH2 0x308E PUSH2 0x4B2F JUMP JUMPDEST PUSH1 0x1 PUSH1 0xFF NOT PUSH1 0x9 SLOAD AND OR PUSH1 0x9 SSTORE MLOAD CALLER DUP2 MSTORE LOG1 DUP1 RETURN JUMPDEST DUP4 SWAP2 POP CALLVALUE PUSH2 0x4E8 JUMPI DUP3 PUSH1 0x3 NOT CALLDATASIZE ADD SLT PUSH2 0x4E8 JUMPI PUSH2 0x30BE PUSH2 0x4020 JUMP JUMPDEST SWAP3 PUSH1 0x24 CALLDATALOAD PUSH2 0x30CA PUSH2 0x4B2F JUMP JUMPDEST PUSH1 0xFF PUSH1 0x23 SLOAD PUSH1 0x8 SHR AND PUSH2 0x3215 JUMPI PUSH2 0x30DF PUSH2 0x4B73 JUMP JUMPDEST DUP1 ISZERO DUP1 ISZERO PUSH2 0x320B JUMPI JUMPDEST PUSH2 0x31FD JUMPI PUSH1 0xC SWAP5 PUSH2 0x3E8 PUSH2 0x30FD DUP4 DUP9 SLOAD PUSH2 0x4F2D JUMP JUMPDEST GT PUSH2 0x31EE JUMPI PUSH1 0x1 PUSH1 0x1 PUSH1 0xA0 SHL SUB DUP2 AND SWAP4 DUP5 ISZERO PUSH2 0x31E0 JUMPI POP PUSH1 0xB DUP1 SLOAD SWAP2 DUP7 JUMPDEST DUP5 DUP2 LT PUSH2 0x3149 JUMPI POP POP DUP4 MLOAD SWAP3 DUP4 MSTORE POP PUSH1 0x20 DUP3 ADD MSTORE PUSH1 0x0 DUP1 MLOAD PUSH1 0x20 PUSH2 0x580F DUP4 CODECOPY DUP2 MLOAD SWAP2 MSTORE SWAP2 SWAP1 LOG2 PUSH1 0x1 PUSH1 0x8 SSTORE DUP1 RETURN JUMPDEST PUSH2 0x31DB SWAP1 DUP10 DUP9 PUSH1 0x0 DUP1 MLOAD PUSH1 0x20 PUSH2 0x56AF DUP4 CODECOPY DUP2 MLOAD SWAP2 MSTORE DUP12 PUSH2 0x3167 PUSH2 0x4F3A JUMP JUMPDEST DUP9 SLOAD SWAP5 PUSH2 0x3174 DUP7 DUP11 PUSH2 0x4BC9 JUMP JUMPDEST PUSH1 0x1 DUP11 SLOAD ADD DUP11 SSTORE PUSH2 0x3185 DUP2 SLOAD PUSH2 0x4B0A JUMP JUMPDEST SWAP1 SSTORE DUP5 DUP3 MSTORE DUP1 DUP13 PUSH1 0x20 SWAP4 PUSH1 0x12 DUP6 MSTORE KECCAK256 SSTORE PUSH1 0x3 PUSH2 0x31A0 DUP3 PUSH2 0x4473 JUMP JUMPDEST POP ADD PUSH2 0x31AC DUP2 SLOAD PUSH2 0x4B0A JUMP JUMPDEST SWAP1 SSTORE PUSH2 0x31BA PUSH2 0x889 DUP7 PUSH2 0x50B7 JUMP JUMPDEST PUSH2 0x8B0 PUSH2 0x31C6 DUP3 PUSH2 0x4473 JUMP JUMPDEST POP DUP14 DUP1 MLOAD SWAP5 DUP6 SWAP5 DUP6 MSTORE DUP5 ADD MSTORE DUP14 DUP4 ADD SWAP1 PUSH2 0x42E3 JUMP JUMPDEST PUSH2 0x311B JUMP JUMPDEST DUP4 MLOAD PUSH4 0xD92E233D PUSH1 0xE0 SHL DUP2 MSTORE REVERT JUMPDEST POP POP MLOAD PUSH4 0xC30436E9 PUSH1 0xE0 SHL DUP2 MSTORE REVERT JUMPDEST POP MLOAD PUSH4 0x524F409B PUSH1 0xE0 SHL DUP2 MSTORE REVERT JUMPDEST POP PUSH1 0xA DUP2 GT PUSH2 0x30E8 JUMP JUMPDEST POP MLOAD PUSH4 0x250440B3 PUSH1 0xE0 SHL DUP2 MSTORE REVERT JUMPDEST POP POP CALLVALUE PUSH2 0x4E8 JUMPI PUSH2 0x143A PUSH2 0xD34 SWAP2 PUSH2 0x323A CALLDATASIZE PUSH2 0x40C2 JUMP JUMPDEST SWAP2 SWAP3 MLOAD SWAP3 PUSH2 0x3247 DUP5 PUSH2 0x43AA JUMP JUMPDEST DUP7 DUP5 MSTORE PUSH2 0x142A PUSH2 0x1425 DUP5 CALLER PUSH2 0x46CB JUMP JUMPDEST SWAP1 POP CALLVALUE PUSH2 0x550 JUMPI PUSH1 0x20 CALLDATASIZE PUSH1 0x3 NOT ADD SLT PUSH2 0x550 JUMPI PUSH1 0x20 SWAP3 DUP3 SWAP2 CALLDATALOAD DUP2 MSTORE PUSH1 0x12 DUP5 MSTORE KECCAK256 SLOAD SWAP1 MLOAD SWAP1 DUP2 MSTORE RETURN JUMPDEST SWAP2 SWAP1 POP CALLVALUE PUSH2 0x550 JUMPI DUP3 PUSH1 0x3 NOT CALLDATASIZE ADD SLT PUSH2 0x550 JUMPI PUSH2 0x329A PUSH2 0x4508 JUMP JUMPDEST PUSH2 0x32A2 PUSH2 0x4B73 JUMP JUMPDEST PUSH1 0x23 SLOAD PUSH1 0x10 SHR PUSH1 0x1 PUSH1 0x1 PUSH1 0xA0 SHL SUB AND DUP1 ISZERO PUSH2 0x32FA JUMPI SELFBALANCE SWAP1 DUP2 ISZERO PUSH2 0x32EB JUMPI DUP5 DUP1 DUP1 SWAP4 DUP2 SWAP4 GAS CALL PUSH2 0x32CF PUSH2 0x48D5 JUMP JUMPDEST POP ISZERO PUSH2 0x32DE JUMPI DUP3 PUSH1 0x1 PUSH1 0x8 SSTORE DUP1 RETURN JUMPDEST MLOAD PUSH4 0x1D42C867 PUSH1 0xE2 SHL DUP2 MSTORE REVERT JUMPDEST POP POP MLOAD PUSH4 0x43F9E11 PUSH1 0xE4 SHL DUP2 MSTORE REVERT JUMPDEST POP MLOAD PUSH4 0xE6C4247B PUSH1 0xE0 SHL DUP2 MSTORE REVERT JUMPDEST SWAP2 SWAP1 POP CALLVALUE PUSH2 0x550 JUMPI DUP3 PUSH1 0x3 NOT CALLDATASIZE ADD SLT PUSH2 0x550 JUMPI PUSH1 0x0 DUP1 MLOAD PUSH1 0x20 PUSH2 0x574F DUP4 CODECOPY DUP2 MLOAD SWAP2 MSTORE SWAP2 DUP3 DUP5 MSTORE PUSH1 0x20 SWAP3 PUSH1 0xA DUP5 MSTORE DUP3 DUP6 KECCAK256 CALLER DUP7 MSTORE DUP5 MSTORE PUSH1 0xFF DUP4 DUP7 KECCAK256 SLOAD AND ISZERO PUSH2 0x338C JUMPI DUP5 PUSH32 0x886BF152398E89A7DE17F229134A054C5448ADA42007EAAE5187B82753278BE6 DUP6 DUP6 PUSH1 0x23 SLOAD SWAP1 PUSH1 0xFF DUP1 DUP4 AND ISZERO AND DUP1 SWAP3 PUSH1 0xFF NOT AND OR PUSH1 0x23 SSTORE MLOAD SWAP1 ISZERO ISZERO DUP2 MSTORE LOG1 DUP1 RETURN JUMPDEST SWAP1 SWAP3 SWAP4 PUSH2 0x3398 CALLER PUSH2 0x54CF JUMP JUMPDEST SWAP2 DUP4 MLOAD SWAP1 PUSH2 0x33A5 DUP3 PUSH2 0x43C5 JUMP JUMPDEST PUSH1 0x42 DUP3 MSTORE DUP7 DUP3 ADD SWAP3 PUSH1 0x60 CALLDATASIZE DUP6 CALLDATACOPY DUP3 MLOAD ISZERO PUSH2 0x3501 JUMPI PUSH1 0x30 DUP5 MSTORE8 DUP3 MLOAD SWAP1 PUSH1 0x1 SWAP2 DUP3 LT ISZERO PUSH2 0x34EE JUMPI SWAP1 PUSH1 0x78 PUSH1 0x21 DUP6 ADD MSTORE8 PUSH1 0x41 SWAP2 JUMPDEST DUP2 DUP4 GT PUSH2 0x3483 JUMPI POP POP POP PUSH2 0x3454 JUMPI PUSH1 0x48 PUSH2 0x342B SWAP4 DUP6 SWAP4 PUSH2 0x343A SWAP4 PUSH2 0x9C9 SWAP8 MLOAD SWAP7 DUP8 SWAP4 PUSH23 0x20B1B1B2B9B9A1B7B73A3937B61D1030B1B1B7BAB73A1 PUSH1 0x4D SHL DUP13 DUP7 ADD MSTORE PUSH2 0x979 DUP13 DUP3 MLOAD SWAP3 DUP4 SWAP2 PUSH1 0x37 DUP10 ADD SWAP2 ADD PUSH2 0x407A JUMP JUMPDEST ADD SUB PUSH1 0x28 DUP2 ADD DUP6 MSTORE ADD DUP4 PUSH2 0x43E0 JUMP JUMPDEST MLOAD SWAP4 DUP5 SWAP4 PUSH3 0x461BCD PUSH1 0xE5 SHL DUP6 MSTORE DUP5 ADD MSTORE PUSH1 0x24 DUP4 ADD SWAP1 PUSH2 0x409D JUMP JUMPDEST PUSH1 0x64 DUP6 DUP8 DUP1 DUP8 MLOAD SWAP3 PUSH3 0x461BCD PUSH1 0xE5 SHL DUP5 MSTORE DUP4 ADD MSTORE PUSH1 0x24 DUP3 ADD MSTORE PUSH1 0x0 DUP1 MLOAD PUSH1 0x20 PUSH2 0x562F DUP4 CODECOPY DUP2 MLOAD SWAP2 MSTORE PUSH1 0x44 DUP3 ADD MSTORE REVERT JUMPDEST SWAP1 SWAP2 SWAP3 PUSH1 0xF DUP2 AND PUSH1 0x10 DUP2 LT ISZERO PUSH2 0x34DB JUMPI PUSH16 0x181899199A1A9B1B9C1CB0B131B232B3 PUSH1 0x81 SHL SWAP1 BYTE PUSH2 0x34B3 DUP6 DUP8 PUSH2 0x54BE JUMP JUMPDEST MSTORE8 DUP9 SHR SWAP3 DUP1 ISZERO PUSH2 0x34C8 JUMPI PUSH1 0x0 NOT ADD SWAP2 SWAP1 PUSH2 0x33D6 JUMP JUMPDEST PUSH4 0x4E487B71 PUSH1 0xE0 SHL DUP3 MSTORE PUSH1 0x11 DUP10 MSTORE PUSH1 0x24 DUP3 REVERT JUMPDEST PUSH4 0x4E487B71 PUSH1 0xE0 SHL DUP4 MSTORE PUSH1 0x32 DUP11 MSTORE PUSH1 0x24 DUP4 REVERT JUMPDEST PUSH4 0x4E487B71 PUSH1 0xE0 SHL DUP2 MSTORE PUSH1 0x32 DUP9 MSTORE PUSH1 0x24 SWAP1 REVERT JUMPDEST PUSH4 0x4E487B71 PUSH1 0xE0 SHL DUP2 MSTORE PUSH1 0x32 DUP8 MSTORE PUSH1 0x24 SWAP1 REVERT JUMPDEST SWAP1 POP CALLVALUE PUSH2 0x550 JUMPI PUSH1 0x20 CALLDATASIZE PUSH1 0x3 NOT ADD SLT PUSH2 0x550 JUMPI PUSH2 0x352F PUSH2 0x4020 JUMP JUMPDEST SWAP1 PUSH2 0x3538 PUSH2 0x4508 JUMP JUMPDEST PUSH1 0x1 PUSH1 0x1 PUSH1 0xA0 SHL SUB DUP3 AND SWAP3 DUP4 ISZERO PUSH2 0x3599 JUMPI POP POP PUSH1 0x23 DUP1 SLOAD PUSH3 0x10000 PUSH1 0x1 PUSH1 0xB0 SHL SUB NOT AND PUSH1 0x10 SWAP3 SWAP1 SWAP3 SHL PUSH3 0x10000 PUSH1 0x1 PUSH1 0xB0 SHL SUB AND SWAP2 SWAP1 SWAP2 OR SWAP1 SSTORE PUSH32 0x7560C42213A1D729912E2864A115883B3E527BA2F5813ECC26188D5EA8BCF403 DUP3 DUP1 LOG2 DUP1 RETURN JUMPDEST MLOAD PUSH4 0xD92E233D PUSH1 0xE0 SHL DUP2 MSTORE REVERT JUMPDEST DUP4 SWAP2 POP CALLVALUE PUSH2 0x4E8 JUMPI DUP3 PUSH1 0x3 NOT CALLDATASIZE ADD SLT PUSH2 0x4E8 JUMPI PUSH2 0x35C1 PUSH2 0x4036 JUMP JUMPDEST SWAP1 CALLER PUSH1 0x1 PUSH1 0x1 PUSH1 0xA0 SHL SUB DUP4 AND SUB PUSH2 0x35DD JUMPI SWAP1 PUSH2 0xD34 SWAP2 CALLDATALOAD PUSH2 0x4492 JUMP JUMPDEST PUSH1 0x84 SWAP1 PUSH1 0x20 DUP6 MLOAD SWAP2 PUSH3 0x461BCD PUSH1 0xE5 SHL DUP4 MSTORE DUP3 ADD MSTORE PUSH1 0x2F PUSH1 0x24 DUP3 ADD MSTORE PUSH32 0x416363657373436F6E74726F6C3A2063616E206F6E6C792072656E6F756E6365 PUSH1 0x44 DUP3 ADD MSTORE PUSH15 0x103937B632B9903337B91039B2B633 PUSH1 0x89 SHL PUSH1 0x64 DUP3 ADD MSTORE REVERT JUMPDEST SWAP1 POP CALLVALUE PUSH2 0x550 JUMPI DUP2 PUSH1 0x3 NOT CALLDATASIZE ADD SLT PUSH2 0x550 JUMPI CALLDATALOAD SWAP1 PUSH2 0x3654 PUSH2 0x4036 JUMP JUMPDEST SWAP1 PUSH2 0x365D PUSH2 0x4508 JUMP JUMPDEST DUP3 DUP5 MSTORE PUSH1 0xA PUSH1 0x20 SWAP1 DUP2 MSTORE DUP2 DUP6 KECCAK256 PUSH1 0x1 PUSH1 0x1 PUSH1 0xA0 SHL SUB SWAP1 SWAP4 AND DUP1 DUP7 MSTORE SWAP3 SWAP1 MSTORE DUP1 DUP5 KECCAK256 SLOAD PUSH1 0xFF AND ISZERO PUSH2 0x368B JUMPI DUP4 DUP1 RETURN JUMPDEST DUP3 DUP5 MSTORE PUSH1 0xA PUSH1 0x20 MSTORE DUP1 DUP5 KECCAK256 DUP3 DUP6 MSTORE PUSH1 0x20 MSTORE DUP4 KECCAK256 PUSH1 0x1 PUSH1 0xFF NOT DUP3 SLOAD AND OR SWAP1 SSTORE CALLER SWAP2 PUSH32 0x2F8788117E7EFF1D82E926EC794901D17C78024A50270940304540A733656F0D DUP5 DUP1 LOG4 CODESIZE DUP1 DUP1 DUP4 DUP1 RETURN JUMPDEST POP POP CALLVALUE PUSH2 0x4E8 JUMPI DUP2 PUSH1 0x3 NOT CALLDATASIZE ADD SLT PUSH2 0x4E8 JUMPI SWAP1 PUSH1 0x60 SWAP2 PUSH1 0xFF PUSH1 0x1E SLOAD AND SWAP1 PUSH2 0x36FB PUSH2 0x5391 JUMP JUMPDEST SWAP2 ISZERO DUP1 ISZERO SWAP4 SWAP1 DUP5 PUSH2 0x375C JUMPI JUMPDEST DUP1 ISZERO PUSH2 0x3744 JUMPI JUMPDEST ISZERO PUSH2 0x3724 JUMPI SWAP2 JUMPDEST DUP2 MLOAD SWAP4 DUP5 MSTORE PUSH1 0x20 DUP5 ADD MSTORE DUP3 ADD MSTORE RETURN JUMPDEST POP PUSH2 0x373E PUSH2 0x3737 PUSH1 0x1B SLOAD PUSH1 0x1C SLOAD SWAP1 PUSH2 0x4F2D JUMP JUMPDEST TIMESTAMP SWAP1 PUSH2 0x52A1 JUMP JUMPDEST SWAP2 PUSH2 0x3715 JUMP JUMPDEST POP PUSH2 0x3754 PUSH1 0x1B SLOAD PUSH1 0x1C SLOAD SWAP1 PUSH2 0x4F2D JUMP JUMPDEST TIMESTAMP LT ISZERO PUSH2 0x370E JUMP JUMPDEST POP PUSH1 0x1B SLOAD TIMESTAMP LT PUSH2 0x3707 JUMP JUMPDEST DUP3 DUP5 CALLVALUE PUSH2 0xBD0 JUMPI PUSH1 0x20 SWAP2 DUP3 PUSH1 0x3 NOT CALLDATASIZE ADD SLT PUSH2 0x4E8 JUMPI DUP4 CALLDATALOAD SWAP3 PUSH2 0x3787 PUSH2 0x4B73 JUMP JUMPDEST PUSH1 0xFF PUSH1 0x23 SLOAD AND ISZERO PUSH2 0x38B9 JUMPI PUSH2 0x379B DUP5 PUSH2 0x48B8 JUMP JUMPDEST ISZERO PUSH2 0x38A9 JUMPI PUSH2 0x37A9 DUP5 PUSH2 0x45A7 JUMP JUMPDEST CALLER PUSH1 0x1 PUSH1 0x1 PUSH1 0xA0 SHL SUB SWAP1 SWAP2 AND SUB PUSH2 0x3899 JUMPI DUP4 DUP4 MSTORE DUP1 DUP1 MSTORE PUSH1 0xFF DUP3 DUP5 KECCAK256 SLOAD AND ISZERO PUSH2 0x3889 JUMPI PUSH1 0x22 SWAP1 DUP5 DUP5 MSTORE DUP1 DUP1 MSTORE DUP3 DUP5 KECCAK256 PUSH1 0xFF NOT DUP2 SLOAD AND SWAP1 SSTORE PUSH1 0x21 DUP2 MSTORE DUP4 DUP4 DUP2 KECCAK256 SSTORE CALLER DUP5 MSTORE MSTORE DUP2 KECCAK256 SWAP2 DUP2 JUMPDEST DUP4 SLOAD DUP1 DUP3 LT ISZERO PUSH2 0x387E JUMPI DUP3 SWAP1 PUSH2 0x3808 DUP4 DUP8 PUSH2 0x404C JUMP JUMPDEST SWAP3 SWAP1 SLOAD PUSH1 0x3 SWAP4 DUP5 SHL SHR EQ PUSH2 0x3826 JUMPI POP POP PUSH2 0x3821 SWAP1 PUSH2 0x4B0A JUMP JUMPDEST PUSH2 0x37F2 JUMP JUMPDEST SWAP4 SWAP5 SWAP3 SWAP4 PUSH1 0x0 NOT DUP2 ADD SWAP1 DUP2 GT PUSH2 0x386B JUMPI PUSH2 0x384F SWAP5 SWAP6 SWAP7 POP PUSH2 0xEC9 SWAP3 SWAP2 PUSH2 0xEA4 PUSH2 0xEB0 SWAP3 DUP7 PUSH2 0x404C JUMP JUMPDEST CALLER SWAP1 PUSH1 0x0 DUP1 MLOAD PUSH1 0x20 PUSH2 0x566F DUP4 CODECOPY DUP2 MLOAD SWAP2 MSTORE DUP4 DUP1 LOG3 PUSH1 0x1 PUSH1 0x8 SSTORE DUP1 RETURN JUMPDEST PUSH4 0x4E487B71 PUSH1 0xE0 SHL DUP7 MSTORE PUSH1 0x11 DUP8 MSTORE PUSH1 0x24 DUP7 REVERT JUMPDEST POP POP SWAP2 POP SWAP2 POP PUSH2 0x384F JUMP JUMPDEST DUP2 MLOAD PUSH4 0xA49BBC3 PUSH1 0xE2 SHL DUP2 MSTORE DUP6 SWAP1 REVERT JUMPDEST DUP2 MLOAD PUSH4 0x59DC379F PUSH1 0xE0 SHL DUP2 MSTORE DUP6 SWAP1 REVERT JUMPDEST DUP2 MLOAD PUSH4 0x224A1B11 PUSH1 0xE1 SHL DUP2 MSTORE DUP6 SWAP1 REVERT JUMPDEST DUP2 MLOAD PUSH4 0xA3DF9BCF PUSH1 0xE0 SHL DUP2 MSTORE DUP6 SWAP1 REVERT JUMPDEST SWAP2 SWAP1 POP CALLVALUE PUSH2 0x550 JUMPI DUP1 PUSH1 0x3 NOT CALLDATASIZE ADD SLT PUSH2 0x550 JUMPI DUP2 CALLDATALOAD SWAP2 PUSH1 0x24 CALLDATALOAD PUSH1 0x1 PUSH1 0x1 PUSH1 0x40 SHL SUB DUP2 GT PUSH2 0xF75 JUMPI PUSH2 0x38FD SWAP1 CALLDATASIZE SWAP1 DUP4 ADD PUSH2 0x415D JUMP JUMPDEST SWAP3 SWAP1 SWAP2 PUSH2 0x3908 PUSH2 0x4508 JUMP JUMPDEST PUSH2 0x3911 DUP6 PUSH2 0x48B8 JUMP JUMPDEST ISZERO PUSH2 0x3971 JUMPI PUSH1 0xFF PUSH1 0xF SLOAD AND ISZERO PUSH2 0x3963 JUMPI POP SWAP1 PUSH2 0x395D PUSH32 0xDB97328C83F32485A3581BD960425F69A2E03D66BBFDEF66CB9D290D07E02964 SWAP4 SWAP3 PUSH2 0x1047 PUSH2 0x3957 CALLDATASIZE DUP7 DUP7 PUSH2 0x441E JUMP JUMPDEST DUP8 PUSH2 0x4DB8 JUMP JUMPDEST SUB SWAP1 LOG2 DUP1 RETURN JUMPDEST SWAP1 MLOAD PUSH4 0x16593791 PUSH1 0xE3 SHL DUP2 MSTORE REVERT JUMPDEST SWAP1 MLOAD PUSH4 0x224A1B11 PUSH1 0xE1 SHL DUP2 MSTORE REVERT JUMPDEST DUP3 DUP5 CALLVALUE PUSH2 0xBD0 JUMPI DUP2 PUSH1 0x3 NOT CALLDATASIZE ADD SLT PUSH2 0xBD0 JUMPI POP PUSH1 0x1E SLOAD PUSH1 0x1F SLOAD PUSH1 0x8 SWAP2 SWAP1 SWAP2 SHR PUSH1 0x1 PUSH1 0x1 PUSH1 0xA0 SHL SUB AND SWAP1 PUSH2 0x760 SWAP1 PUSH2 0x2710 SWAP1 PUSH2 0x39C5 SWAP1 PUSH1 0x1 PUSH1 0x1 PUSH1 0x60 SHL SUB AND PUSH1 0x24 CALLDATALOAD PUSH2 0x537E JUMP JUMPDEST DIV SWAP3 MLOAD SWAP3 DUP4 SWAP3 DUP4 PUSH2 0x4142 JUMP JUMPDEST DUP3 DUP5 CALLVALUE PUSH2 0xBD0 JUMPI PUSH1 0x20 CALLDATASIZE PUSH1 0x3 NOT ADD SLT PUSH2 0xBD0 JUMPI POP DUP2 CALLDATALOAD SWAP2 PUSH2 0x39F0 PUSH2 0x4A74 JUMP JUMPDEST POP PUSH1 0x11 SLOAD DUP4 LT ISZERO PUSH2 0x3A0B JUMPI POP PUSH2 0x2B8E PUSH2 0x2B88 PUSH2 0x760 SWAP4 PUSH2 0x4473 JUMP JUMPDEST SWAP1 MLOAD PUSH4 0x63DF8171 PUSH1 0xE0 SHL DUP2 MSTORE REVERT JUMPDEST DUP3 DUP5 CALLVALUE PUSH2 0xBD0 JUMPI PUSH1 0x20 SWAP3 DUP4 PUSH1 0x3 NOT CALLDATASIZE ADD SLT PUSH2 0x4E8 JUMPI CALLDATALOAD DUP2 MSTORE DUP3 DUP1 MSTORE DUP2 PUSH1 0xFF DUP2 DUP4 KECCAK256 SLOAD AND ISZERO DUP1 ISZERO PUSH2 0x3A61 JUMPI JUMPDEST ISZERO PUSH2 0x3A51 JUMPI POP SWAP1 MLOAD SWAP1 DUP2 MSTORE RETURN JUMPDEST PUSH2 0x5CC SWAP2 PUSH1 0x21 DUP6 MSTORE KECCAK256 SLOAD TIMESTAMP PUSH2 0x52A1 JUMP JUMPDEST POP POP PUSH1 0x21 DUP4 MSTORE DUP2 DUP1 DUP3 KECCAK256 SLOAD ISZERO PUSH2 0x3A44 JUMP JUMPDEST SWAP1 POP CALLVALUE PUSH2 0x550 JUMPI PUSH1 0x20 CALLDATASIZE PUSH1 0x3 NOT ADD SLT PUSH2 0x550 JUMPI DUP2 PUSH1 0x20 SWAP4 PUSH1 0x1 SWAP3 CALLDATALOAD DUP2 MSTORE PUSH1 0xA DUP6 MSTORE KECCAK256 ADD SLOAD SWAP1 MLOAD SWAP1 DUP2 MSTORE RETURN JUMPDEST DUP4 CALLVALUE PUSH2 0xBD0 JUMPI PUSH2 0xD34 PUSH2 0x3AAF CALLDATASIZE PUSH2 0x40C2 JUMP JUMPDEST SWAP2 PUSH2 0x3ABD PUSH2 0x1425 DUP5 CALLER PUSH2 0x46CB JUMP JUMPDEST PUSH2 0x4793 JUMP JUMPDEST POP POP CALLVALUE PUSH2 0x4E8 JUMPI DUP2 PUSH1 0x3 NOT CALLDATASIZE ADD SLT PUSH2 0x4E8 JUMPI PUSH1 0x20 SWAP1 PUSH1 0xFF PUSH1 0x23 SLOAD AND SWAP1 MLOAD SWAP1 ISZERO ISZERO DUP2 MSTORE RETURN JUMPDEST SWAP1 POP CALLVALUE PUSH2 0x550 JUMPI PUSH1 0x20 CALLDATASIZE PUSH1 0x3 NOT ADD SLT PUSH2 0x550 JUMPI PUSH1 0x20 SWAP3 DUP3 SWAP2 CALLDATALOAD DUP2 MSTORE PUSH1 0x21 DUP5 MSTORE KECCAK256 SLOAD SWAP1 MLOAD SWAP1 DUP2 MSTORE RETURN JUMPDEST POP POP CALLVALUE PUSH2 0x4E8 JUMPI DUP2 PUSH1 0x3 NOT CALLDATASIZE ADD SLT PUSH2 0x4E8 JUMPI PUSH1 0x23 SLOAD SWAP1 MLOAD PUSH1 0x10 SWAP2 SWAP1 SWAP2 SHR PUSH1 0x1 PUSH1 0x1 PUSH1 0xA0 SHL SUB AND DUP2 MSTORE PUSH1 0x20 SWAP1 RETURN JUMPDEST POP POP CALLVALUE PUSH2 0x4E8 JUMPI DUP2 PUSH1 0x3 NOT CALLDATASIZE ADD SLT PUSH2 0x4E8 JUMPI PUSH1 0x20 SWAP1 PUSH1 0x1C SLOAD SWAP1 MLOAD SWAP1 DUP2 MSTORE RETURN JUMPDEST POP POP CALLVALUE PUSH2 0x4E8 JUMPI DUP2 PUSH1 0x3 NOT CALLDATASIZE ADD SLT PUSH2 0x4E8 JUMPI PUSH1 0x20 SWAP1 PUSH1 0x11 SLOAD SWAP1 MLOAD SWAP1 DUP2 MSTORE RETURN JUMPDEST SWAP1 POP CALLVALUE PUSH2 0x550 JUMPI DUP2 PUSH1 0x3 NOT CALLDATASIZE ADD SLT PUSH2 0x550 JUMPI PUSH2 0x3B93 PUSH2 0x4020 JUMP JUMPDEST PUSH1 0x24 CALLDATALOAD SWAP3 SWAP1 SWAP2 PUSH1 0x1 PUSH1 0x1 PUSH1 0xA0 SHL SUB SWAP2 SWAP1 DUP3 DUP1 PUSH2 0x3BAE DUP8 PUSH2 0x45A7 JUMP JUMPDEST AND SWAP5 AND SWAP4 DUP1 DUP6 EQ PUSH2 0x3C9A JUMPI DUP1 CALLER EQ SWAP1 DUP2 ISZERO PUSH2 0x3C7B JUMPI JUMPDEST POP ISZERO PUSH2 0x3C13 JUMPI DUP5 DUP7 MSTORE PUSH1 0x20 MSTORE DUP5 KECCAK256 DUP1 SLOAD PUSH1 0x1 PUSH1 0x1 PUSH1 0xA0 SHL SUB NOT AND DUP4 OR SWAP1 SSTORE PUSH2 0x3BEB DUP4 PUSH2 0x45A7 JUMP JUMPDEST AND PUSH32 0x8C5BE1E5EBEC7D5BD14F71427D1E84F3DD0314C0F7B2291E5B200AC8C7C3B925 DUP5 DUP1 LOG4 DUP1 RETURN JUMPDEST PUSH1 0x20 PUSH1 0x84 SWAP3 MLOAD SWAP2 PUSH3 0x461BCD PUSH1 0xE5 SHL DUP4 MSTORE DUP3 ADD MSTORE PUSH1 0x3D PUSH1 0x24 DUP3 ADD MSTORE PUSH32 0x4552433732313A20617070726F76652063616C6C6572206973206E6F7420746F PUSH1 0x44 DUP3 ADD MSTORE PUSH32 0x6B656E206F776E6572206F7220617070726F76656420666F7220616C6C000000 PUSH1 0x64 DUP3 ADD MSTORE REVERT JUMPDEST SWAP1 POP DUP7 MSTORE PUSH1 0x5 PUSH1 0x20 MSTORE DUP2 DUP7 KECCAK256 CALLER DUP8 MSTORE PUSH1 0x20 MSTORE PUSH1 0xFF DUP3 DUP8 KECCAK256 SLOAD AND CODESIZE PUSH2 0x3BC4 JUMP JUMPDEST POP PUSH1 0x20 PUSH1 0x84 SWAP3 MLOAD SWAP2 PUSH3 0x461BCD PUSH1 0xE5 SHL DUP4 MSTORE DUP3 ADD MSTORE PUSH1 0x21 PUSH1 0x24 DUP3 ADD MSTORE PUSH32 0x4552433732313A20617070726F76616C20746F2063757272656E74206F776E65 PUSH1 0x44 DUP3 ADD MSTORE PUSH1 0x39 PUSH1 0xF9 SHL PUSH1 0x64 DUP3 ADD MSTORE REVERT JUMPDEST POP POP CALLVALUE PUSH2 0x4E8 JUMPI PUSH1 0x20 CALLDATASIZE PUSH1 0x3 NOT ADD SLT PUSH2 0x4E8 JUMPI PUSH1 0x20 SWAP2 DUP2 SWAP1 PUSH1 0x1 PUSH1 0x1 PUSH1 0xA0 SHL SUB PUSH2 0x3D0F PUSH2 0x4020 JUMP JUMPDEST AND DUP2 MSTORE PUSH1 0x22 DUP5 MSTORE KECCAK256 SLOAD SWAP1 MLOAD SWAP1 DUP2 MSTORE RETURN JUMPDEST DUP3 DUP5 CALLVALUE PUSH2 0xBD0 JUMPI PUSH1 0x20 CALLDATASIZE PUSH1 0x3 NOT ADD SLT PUSH2 0xBD0 JUMPI POP PUSH2 0x2A0D PUSH1 0x20 SWAP3 CALLDATALOAD PUSH2 0x45CA JUMP JUMPDEST POP POP CALLVALUE PUSH2 0x4E8 JUMPI DUP2 PUSH1 0x3 NOT CALLDATASIZE ADD SLT PUSH2 0x4E8 JUMPI DUP1 MLOAD SWAP1 DUP3 DUP1 SLOAD PUSH2 0x3D60 DUP2 PUSH2 0x41BA JUMP JUMPDEST DUP1 DUP6 MSTORE SWAP1 PUSH1 0x1 SWAP1 DUP2 DUP2 AND SWAP1 DUP2 ISZERO PUSH2 0x2852 JUMPI POP PUSH1 0x1 EQ PUSH2 0x3D8B JUMPI POP POP POP PUSH2 0x74E DUP3 PUSH2 0x760 SWAP5 SUB DUP4 PUSH2 0x43E0 JUMP JUMPDEST SWAP5 POP DUP2 DUP1 MSTORE PUSH1 0x20 SWAP5 DUP6 DUP4 KECCAK256 JUMPDEST DUP3 DUP5 LT PUSH2 0x3DB3 JUMPI POP POP POP DUP3 PUSH2 0x760 SWAP5 PUSH2 0x74E SWAP3 DUP3 ADD ADD SWAP5 PUSH2 0x27E7 JUMP JUMPDEST DUP1 SLOAD DUP7 DUP6 ADD DUP9 ADD MSTORE SWAP3 DUP7 ADD SWAP3 DUP2 ADD PUSH2 0x3D97 JUMP JUMPDEST POP POP CALLVALUE PUSH2 0x4E8 JUMPI DUP1 PUSH1 0x3 NOT CALLDATASIZE ADD SLT PUSH2 0x4E8 JUMPI PUSH2 0x3DE0 PUSH2 0x4020 JUMP JUMPDEST PUSH1 0x1 PUSH1 0x1 PUSH1 0xA0 SHL SUB AND DUP3 MSTORE PUSH1 0x22 PUSH1 0x20 MSTORE DUP1 DUP3 KECCAK256 DUP1 SLOAD PUSH1 0x24 CALLDATALOAD SWAP4 SWAP1 DUP5 LT ISZERO PUSH2 0xBD0 JUMPI POP PUSH1 0x20 SWAP3 PUSH2 0x3E0E SWAP2 PUSH2 0x404C JUMP JUMPDEST SWAP2 SWAP1 SLOAD SWAP1 MLOAD SWAP2 PUSH1 0x3 SHL SHR DUP2 MSTORE RETURN JUMPDEST DUP4 DUP4 CALLVALUE PUSH2 0x4E8 JUMPI DUP1 PUSH1 0x3 NOT CALLDATASIZE ADD SLT PUSH2 0x4E8 JUMPI PUSH2 0x3E36 PUSH2 0x4020 JUMP JUMPDEST PUSH1 0x24 CALLDATALOAD PUSH1 0x1 PUSH1 0x1 PUSH1 0x60 SHL SUB DUP2 AND SWAP1 DUP2 SWAP1 SUB PUSH2 0xF79 JUMPI PUSH2 0x3E53 PUSH2 0x4508 JUMP JUMPDEST PUSH2 0x3E8 DUP2 GT PUSH2 0x3EE7 JUMPI PUSH1 0x1 PUSH1 0x1 PUSH1 0xA0 SHL SUB DUP3 AND SWAP2 DUP3 ISZERO PUSH2 0x3ED7 JUMPI PUSH1 0x1E DUP1 SLOAD PUSH2 0x100 PUSH1 0x1 PUSH1 0xA8 SHL SUB NOT AND PUSH1 0x8 SWAP3 SWAP1 SWAP3 SHL PUSH2 0x100 PUSH1 0x1 PUSH1 0xA8 SHL SUB AND SWAP2 SWAP1 SWAP2 OR SWAP1 SSTORE PUSH1 0x1F DUP1 SLOAD PUSH1 0x1 PUSH1 0x1 PUSH1 0x60 SHL SUB NOT AND DUP3 OR SWAP1 SSTORE DUP3 MLOAD SWAP2 DUP3 MSTORE PUSH1 0x20 DUP3 ADD MSTORE SWAP2 SWAP3 POP PUSH32 0x8039BD6E4E7DBA001C8840EB2E118D9D131246FAA7D0D04335F7305127EC0B10 SWAP2 LOG1 DUP1 RETURN JUMPDEST DUP4 MLOAD PUSH4 0xD92E233D PUSH1 0xE0 SHL DUP2 MSTORE DUP7 SWAP1 REVERT JUMPDEST DUP3 MLOAD PUSH4 0xC2B03BEB PUSH1 0xE0 SHL DUP2 MSTORE DUP6 SWAP1 REVERT JUMPDEST POP POP CALLVALUE PUSH2 0x4E8 JUMPI PUSH1 0x20 CALLDATASIZE PUSH1 0x3 NOT ADD SLT PUSH2 0x4E8 JUMPI PUSH1 0x20 PUSH32 0xB7CA260B52317206C15B3B393B9437B88D5A6495EF4CC56FDC039F65DB3036E5 SWAP2 PUSH2 0x3F36 PUSH2 0x4011 JUMP JUMPDEST PUSH2 0x3F3E PUSH2 0x4508 JUMP JUMPDEST ISZERO ISZERO SWAP1 PUSH1 0xFF NOT PUSH1 0x18 SLOAD AND PUSH1 0xFF DUP4 AND OR PUSH1 0x18 SSTORE MLOAD SWAP1 DUP2 MSTORE LOG1 DUP1 RETURN JUMPDEST DUP5 SWAP2 CALLVALUE PUSH2 0x550 JUMPI PUSH1 0x20 CALLDATASIZE PUSH1 0x3 NOT ADD SLT PUSH2 0x550 JUMPI CALLDATALOAD PUSH4 0xFFFFFFFF PUSH1 0xE0 SHL DUP2 AND DUP1 SWAP2 SUB PUSH2 0x550 JUMPI PUSH1 0x20 SWAP3 POP PUSH4 0x152A902D PUSH1 0xE1 SHL DUP2 EQ SWAP1 DUP2 ISZERO PUSH2 0x3F9A JUMPI JUMPDEST POP ISZERO ISZERO DUP2 MSTORE RETURN JUMPDEST PUSH4 0x7965DB0B PUSH1 0xE0 SHL DUP2 EQ SWAP2 POP DUP2 ISZERO PUSH2 0x3FB4 JUMPI JUMPDEST POP DUP4 PUSH2 0x3F93 JUMP JUMPDEST PUSH4 0x24832483 PUSH1 0xE1 SHL DUP2 EQ SWAP2 POP DUP2 ISZERO PUSH2 0x3FCE JUMPI JUMPDEST POP DUP4 PUSH2 0x3FAD JUMP JUMPDEST PUSH4 0x80AC58CD PUSH1 0xE0 SHL DUP2 EQ SWAP2 POP DUP2 ISZERO PUSH2 0x4000 JUMPI JUMPDEST DUP2 ISZERO PUSH2 0x3FEF JUMPI JUMPDEST POP DUP4 PUSH2 0x3FC7 JUMP JUMPDEST PUSH4 0x1FFC9A7 PUSH1 0xE0 SHL EQ SWAP1 POP DUP4 PUSH2 0x3FE8 JUMP JUMPDEST PUSH4 0x5B5E139F PUSH1 0xE0 SHL DUP2 EQ SWAP2 POP PUSH2 0x3FE1 JUMP JUMPDEST PUSH1 0x4 CALLDATALOAD SWAP1 DUP2 ISZERO ISZERO DUP3 SUB PUSH2 0x17A3 JUMPI JUMP JUMPDEST PUSH1 0x4 CALLDATALOAD SWAP1 PUSH1 0x1 PUSH1 0x1 PUSH1 0xA0 SHL SUB DUP3 AND DUP3 SUB PUSH2 0x17A3 JUMPI JUMP JUMPDEST PUSH1 0x24 CALLDATALOAD SWAP1 PUSH1 0x1 PUSH1 0x1 PUSH1 0xA0 SHL SUB DUP3 AND DUP3 SUB PUSH2 0x17A3 JUMPI JUMP JUMPDEST DUP1 SLOAD DUP3 LT ISZERO PUSH2 0x4064 JUMPI PUSH1 0x0 MSTORE PUSH1 0x20 PUSH1 0x0 KECCAK256 ADD SWAP1 PUSH1 0x0 SWAP1 JUMP JUMPDEST PUSH4 0x4E487B71 PUSH1 0xE0 SHL PUSH1 0x0 MSTORE PUSH1 0x32 PUSH1 0x4 MSTORE PUSH1 0x24 PUSH1 0x0 REVERT JUMPDEST PUSH1 0x0 JUMPDEST DUP4 DUP2 LT PUSH2 0x408D JUMPI POP POP PUSH1 0x0 SWAP2 ADD MSTORE JUMP JUMPDEST DUP2 DUP2 ADD MLOAD DUP4 DUP3 ADD MSTORE PUSH1 0x20 ADD PUSH2 0x407D JUMP JUMPDEST SWAP1 PUSH1 0x20 SWAP2 PUSH2 0x40B6 DUP2 MLOAD DUP1 SWAP3 DUP2 DUP6 MSTORE DUP6 DUP1 DUP7 ADD SWAP2 ADD PUSH2 0x407A JUMP JUMPDEST PUSH1 0x1F ADD PUSH1 0x1F NOT AND ADD ADD SWAP1 JUMP JUMPDEST PUSH1 0x60 SWAP1 PUSH1 0x3 NOT ADD SLT PUSH2 0x17A3 JUMPI PUSH1 0x1 PUSH1 0x1 PUSH1 0xA0 SHL SUB SWAP1 PUSH1 0x4 CALLDATALOAD DUP3 DUP2 AND DUP2 SUB PUSH2 0x17A3 JUMPI SWAP2 PUSH1 0x24 CALLDATALOAD SWAP1 DUP2 AND DUP2 SUB PUSH2 0x17A3 JUMPI SWAP1 PUSH1 0x44 CALLDATALOAD SWAP1 JUMP JUMPDEST PUSH2 0x413F SWAP2 PUSH1 0x80 PUSH2 0x4110 DUP4 MLOAD PUSH1 0xA0 DUP5 MSTORE PUSH1 0xA0 DUP5 ADD SWAP1 PUSH2 0x409D JUMP JUMPDEST SWAP3 PUSH1 0x20 DUP2 ADD MLOAD PUSH1 0x20 DUP5 ADD MSTORE PUSH1 0x40 DUP2 ADD MLOAD PUSH1 0x40 DUP5 ADD MSTORE PUSH1 0x60 DUP2 ADD MLOAD PUSH1 0x60 DUP5 ADD MSTORE ADD MLOAD SWAP1 PUSH1 0x80 DUP2 DUP5 SUB SWAP2 ADD MSTORE PUSH2 0x409D JUMP JUMPDEST SWAP1 JUMP JUMPDEST PUSH1 0x1 PUSH1 0x1 PUSH1 0xA0 SHL SUB SWAP1 SWAP2 AND DUP2 MSTORE PUSH1 0x20 DUP2 ADD SWAP2 SWAP1 SWAP2 MSTORE PUSH1 0x40 ADD SWAP1 JUMP JUMPDEST SWAP2 DUP2 PUSH1 0x1F DUP5 ADD SLT ISZERO PUSH2 0x17A3 JUMPI DUP3 CALLDATALOAD SWAP2 PUSH1 0x1 PUSH1 0x1 PUSH1 0x40 SHL SUB DUP4 GT PUSH2 0x17A3 JUMPI PUSH1 0x20 DUP4 DUP2 DUP7 ADD SWAP6 ADD ADD GT PUSH2 0x17A3 JUMPI JUMP JUMPDEST SWAP2 DUP2 PUSH1 0x1F DUP5 ADD SLT ISZERO PUSH2 0x17A3 JUMPI DUP3 CALLDATALOAD SWAP2 PUSH1 0x1 PUSH1 0x1 PUSH1 0x40 SHL SUB DUP4 GT PUSH2 0x17A3 JUMPI PUSH1 0x20 DUP1 DUP6 ADD SWAP5 DUP5 PUSH1 0x5 SHL ADD ADD GT PUSH2 0x17A3 JUMPI JUMP JUMPDEST SWAP1 PUSH1 0x1 DUP3 DUP2 SHR SWAP3 AND DUP1 ISZERO PUSH2 0x41EA JUMPI JUMPDEST PUSH1 0x20 DUP4 LT EQ PUSH2 0x41D4 JUMPI JUMP JUMPDEST PUSH4 0x4E487B71 PUSH1 0xE0 SHL PUSH1 0x0 MSTORE PUSH1 0x22 PUSH1 0x4 MSTORE PUSH1 0x24 PUSH1 0x0 REVERT JUMPDEST SWAP2 PUSH1 0x7F AND SWAP2 PUSH2 0x41C9 JUMP JUMPDEST PUSH1 0x10 SLOAD PUSH1 0x0 SWAP3 SWAP2 PUSH2 0x4204 DUP3 PUSH2 0x41BA JUMP JUMPDEST SWAP1 DUP2 DUP2 MSTORE PUSH1 0x1 SWAP3 DUP4 DUP2 AND SWAP1 DUP2 PUSH1 0x0 EQ PUSH2 0x425E JUMPI POP PUSH1 0x1 EQ PUSH2 0x4224 JUMPI POP POP POP JUMP JUMPDEST SWAP1 SWAP3 SWAP4 POP PUSH1 0x10 PUSH1 0x0 MSTORE PUSH1 0x20 SWAP3 DUP4 PUSH1 0x0 KECCAK256 SWAP3 DUP5 PUSH1 0x0 SWAP5 JUMPDEST DUP4 DUP7 LT PUSH2 0x424A JUMPI POP POP POP POP ADD ADD SWAP1 JUMP JUMPDEST DUP1 SLOAD DUP6 DUP8 ADD DUP4 ADD MSTORE SWAP5 ADD SWAP4 DUP6 SWAP1 DUP3 ADD PUSH2 0x423A JUMP JUMPDEST SWAP2 SWAP4 POP POP PUSH1 0x20 SWAP4 SWAP5 POP PUSH1 0xFF NOT AND DUP4 DUP4 ADD MSTORE ISZERO ISZERO PUSH1 0x5 SHL ADD ADD SWAP1 JUMP JUMPDEST PUSH1 0xE SLOAD PUSH1 0x0 SWAP3 SWAP2 PUSH2 0x4289 DUP3 PUSH2 0x41BA JUMP JUMPDEST SWAP1 DUP2 DUP2 MSTORE PUSH1 0x1 SWAP3 DUP4 DUP2 AND SWAP1 DUP2 PUSH1 0x0 EQ PUSH2 0x425E JUMPI POP PUSH1 0x1 EQ PUSH2 0x42A9 JUMPI POP POP POP JUMP JUMPDEST SWAP1 SWAP3 SWAP4 POP PUSH1 0xE PUSH1 0x0 MSTORE PUSH1 0x20 SWAP3 DUP4 PUSH1 0x0 KECCAK256 SWAP3 DUP5 PUSH1 0x0 SWAP5 JUMPDEST DUP4 DUP7 LT PUSH2 0x42CF JUMPI POP POP POP POP ADD ADD SWAP1 JUMP JUMPDEST DUP1 SLOAD DUP6 DUP8 ADD DUP4 ADD MSTORE SWAP5 ADD SWAP4 DUP6 SWAP1 DUP3 ADD PUSH2 0x42BF JUMP JUMPDEST SWAP1 PUSH1 0x0 SWAP3 SWAP2 DUP1 SLOAD SWAP2 PUSH2 0x42F4 DUP4 PUSH2 0x41BA JUMP JUMPDEST SWAP2 DUP3 DUP3 MSTORE PUSH1 0x1 SWAP4 DUP5 DUP2 AND SWAP1 DUP2 PUSH1 0x0 EQ PUSH2 0x4356 JUMPI POP PUSH1 0x1 EQ PUSH2 0x4316 JUMPI JUMPDEST POP POP POP POP JUMP JUMPDEST SWAP1 SWAP2 SWAP4 SWAP5 POP PUSH1 0x0 MSTORE PUSH1 0x20 SWAP3 DUP4 PUSH1 0x0 KECCAK256 SWAP3 DUP5 PUSH1 0x0 SWAP5 JUMPDEST DUP4 DUP7 LT PUSH2 0x4342 JUMPI POP POP POP POP ADD ADD SWAP1 CODESIZE DUP1 DUP1 DUP1 PUSH2 0x4310 JUMP JUMPDEST DUP1 SLOAD DUP6 DUP8 ADD DUP4 ADD MSTORE SWAP5 ADD SWAP4 DUP6 SWAP1 DUP3 ADD PUSH2 0x432B JUMP JUMPDEST SWAP3 SWAP5 POP POP POP PUSH1 0x20 SWAP4 SWAP5 POP PUSH1 0xFF NOT AND DUP4 DUP4 ADD MSTORE ISZERO ISZERO PUSH1 0x5 SHL ADD ADD SWAP1 CODESIZE DUP1 DUP1 DUP1 PUSH2 0x4310 JUMP JUMPDEST PUSH1 0xA0 DUP2 ADD SWAP1 DUP2 LT PUSH1 0x1 PUSH1 0x1 PUSH1 0x40 SHL SUB DUP3 GT OR PUSH2 0x4394 JUMPI PUSH1 0x40 MSTORE JUMP JUMPDEST PUSH4 0x4E487B71 PUSH1 0xE0 SHL PUSH1 0x0 MSTORE PUSH1 0x41 PUSH1 0x4 MSTORE PUSH1 0x24 PUSH1 0x0 REVERT JUMPDEST PUSH1 0x20 DUP2 ADD SWAP1 DUP2 LT PUSH1 0x1 PUSH1 0x1 PUSH1 0x40 SHL SUB DUP3 GT OR PUSH2 0x4394 JUMPI PUSH1 0x40 MSTORE JUMP JUMPDEST PUSH1 0x80 DUP2 ADD SWAP1 DUP2 LT PUSH1 0x1 PUSH1 0x1 PUSH1 0x40 SHL SUB DUP3 GT OR PUSH2 0x4394 JUMPI PUSH1 0x40 MSTORE JUMP JUMPDEST PUSH1 0x1F SWAP1 SWAP2 ADD PUSH1 0x1F NOT AND DUP2 ADD SWAP1 PUSH1 0x1 PUSH1 0x1 PUSH1 0x40 SHL SUB DUP3 GT SWAP1 DUP3 LT OR PUSH2 0x4394 JUMPI PUSH1 0x40 MSTORE JUMP JUMPDEST PUSH1 0x1 PUSH1 0x1 PUSH1 0x40 SHL SUB DUP2 GT PUSH2 0x4394 JUMPI PUSH1 0x1F ADD PUSH1 0x1F NOT AND PUSH1 0x20 ADD SWAP1 JUMP JUMPDEST SWAP3 SWAP2 SWAP3 PUSH2 0x442A DUP3 PUSH2 0x4403 JUMP JUMPDEST SWAP2 PUSH2 0x4438 PUSH1 0x40 MLOAD SWAP4 DUP5 PUSH2 0x43E0 JUMP JUMPDEST DUP3 SWAP5 DUP2 DUP5 MSTORE DUP2 DUP4 ADD GT PUSH2 0x17A3 JUMPI DUP3 DUP2 PUSH1 0x20 SWAP4 DUP5 PUSH1 0x0 SWAP7 ADD CALLDATACOPY ADD ADD MSTORE JUMP JUMPDEST PUSH1 0x80 SWAP1 PUSH1 0x3 NOT ADD SLT PUSH2 0x17A3 JUMPI PUSH1 0x4 CALLDATALOAD SWAP1 PUSH1 0x24 CALLDATALOAD SWAP1 PUSH1 0x44 CALLDATALOAD SWAP1 PUSH1 0x64 CALLDATALOAD SWAP1 JUMP JUMPDEST PUSH1 0x11 SLOAD DUP2 LT ISZERO PUSH2 0x4064 JUMPI PUSH1 0x11 PUSH1 0x0 MSTORE PUSH1 0x5 PUSH1 0x20 PUSH1 0x0 KECCAK256 SWAP2 MUL ADD SWAP1 PUSH1 0x0 SWAP1 JUMP JUMPDEST SWAP1 PUSH1 0x0 SWAP2 DUP1 DUP4 MSTORE PUSH1 0xA PUSH1 0x20 MSTORE PUSH1 0x40 DUP4 KECCAK256 SWAP2 PUSH1 0x1 DUP1 PUSH1 0xA0 SHL SUB AND SWAP2 DUP3 DUP5 MSTORE PUSH1 0x20 MSTORE PUSH1 0xFF PUSH1 0x40 DUP5 KECCAK256 SLOAD AND PUSH2 0x44C3 JUMPI POP POP POP JUMP JUMPDEST DUP1 DUP4 MSTORE PUSH1 0xA PUSH1 0x20 MSTORE PUSH1 0x40 DUP4 KECCAK256 DUP3 DUP5 MSTORE PUSH1 0x20 MSTORE PUSH1 0x40 DUP4 KECCAK256 PUSH1 0xFF NOT DUP2 SLOAD AND SWAP1 SSTORE PUSH32 0xF6391F5C32D9C69D2A47EA670B442974B53935D1EDC7FD64EB21E047A839171B CALLER SWAP4 DUP1 LOG4 JUMP JUMPDEST PUSH1 0x7 SLOAD PUSH1 0x1 PUSH1 0x1 PUSH1 0xA0 SHL SUB AND CALLER SUB PUSH2 0x451C JUMPI JUMP JUMPDEST PUSH1 0x64 PUSH1 0x40 MLOAD PUSH3 0x461BCD PUSH1 0xE5 SHL DUP2 MSTORE PUSH1 0x20 PUSH1 0x4 DUP3 ADD MSTORE PUSH1 0x20 PUSH1 0x24 DUP3 ADD MSTORE PUSH32 0x4F776E61626C653A2063616C6C6572206973206E6F7420746865206F776E6572 PUSH1 0x44 DUP3 ADD MSTORE REVERT JUMPDEST ISZERO PUSH2 0x4567 JUMPI JUMP JUMPDEST PUSH1 0x40 MLOAD PUSH3 0x461BCD PUSH1 0xE5 SHL DUP2 MSTORE PUSH1 0x20 PUSH1 0x4 DUP3 ADD MSTORE PUSH1 0x18 PUSH1 0x24 DUP3 ADD MSTORE PUSH24 0x115490CDCC8C4E881A5B9D985B1A59081D1BDAD95B881251 PUSH1 0x42 SHL PUSH1 0x44 DUP3 ADD MSTORE PUSH1 0x64 SWAP1 REVERT JUMPDEST PUSH1 0x0 SWAP1 DUP2 MSTORE PUSH1 0x2 PUSH1 0x20 MSTORE PUSH1 0x40 SWAP1 KECCAK256 SLOAD PUSH1 0x1 PUSH1 0x1 PUSH1 0xA0 SHL SUB AND PUSH2 0x413F DUP2 ISZERO ISZERO PUSH2 0x4560 JUMP JUMPDEST PUSH2 0x45DB PUSH2 0x45D6 DUP3 PUSH2 0x48B8 JUMP JUMPDEST PUSH2 0x4560 JUMP JUMPDEST PUSH1 0x0 SWAP1 DUP2 MSTORE PUSH1 0x4 PUSH1 0x20 MSTORE PUSH1 0x40 SWAP1 KECCAK256 SLOAD PUSH1 0x1 PUSH1 0x1 PUSH1 0xA0 SHL SUB AND SWAP1 JUMP JUMPDEST ISZERO PUSH2 0x45FD JUMPI JUMP JUMPDEST PUSH1 0x40 MLOAD PUSH3 0x461BCD PUSH1 0xE5 SHL DUP2 MSTORE PUSH1 0x20 PUSH1 0x4 DUP3 ADD MSTORE PUSH1 0x2D PUSH1 0x24 DUP3 ADD MSTORE PUSH32 0x4552433732313A2063616C6C6572206973206E6F7420746F6B656E206F776E65 PUSH1 0x44 DUP3 ADD MSTORE PUSH13 0x1C881BDC88185C1C1C9BDD9959 PUSH1 0x9A SHL PUSH1 0x64 DUP3 ADD MSTORE PUSH1 0x84 SWAP1 REVERT JUMPDEST PUSH1 0x80 SWAP1 PUSH1 0x20 DUP2 MSTORE PUSH1 0x32 PUSH1 0x20 DUP3 ADD MSTORE PUSH32 0x4552433732313A207472616E7366657220746F206E6F6E204552433732315265 PUSH1 0x40 DUP3 ADD MSTORE PUSH18 0x31B2B4BB32B91034B6B83632B6B2B73A32B9 PUSH1 0x71 SHL PUSH1 0x60 DUP3 ADD MSTORE ADD SWAP1 JUMP JUMPDEST ISZERO PUSH2 0x46B2 JUMPI JUMP JUMPDEST PUSH1 0x40 MLOAD PUSH3 0x461BCD PUSH1 0xE5 SHL DUP2 MSTORE DUP1 PUSH2 0x9C9 PUSH1 0x4 DUP3 ADD PUSH2 0x4658 JUMP JUMPDEST SWAP1 PUSH1 0x1 PUSH1 0x1 PUSH1 0xA0 SHL SUB DUP1 DUP1 PUSH2 0x46DF DUP5 PUSH2 0x45A7 JUMP JUMPDEST AND SWAP4 AND SWAP2 DUP4 DUP4 EQ SWAP4 DUP5 ISZERO PUSH2 0x4712 JUMPI JUMPDEST POP DUP4 ISZERO PUSH2 0x46FC JUMPI JUMPDEST POP POP POP SWAP1 JUMP JUMPDEST PUSH2 0x4708 SWAP2 SWAP3 SWAP4 POP PUSH2 0x45CA JUMP JUMPDEST AND EQ CODESIZE DUP1 DUP1 PUSH2 0x46F6 JUMP JUMPDEST SWAP1 SWAP4 POP PUSH1 0x0 MSTORE PUSH1 0x5 PUSH1 0x20 MSTORE PUSH1 0x40 PUSH1 0x0 KECCAK256 DUP3 PUSH1 0x0 MSTORE PUSH1 0x20 MSTORE PUSH1 0xFF PUSH1 0x40 PUSH1 0x0 KECCAK256 SLOAD AND SWAP3 CODESIZE PUSH2 0x46EE JUMP JUMPDEST ISZERO PUSH2 0x4740 JUMPI JUMP JUMPDEST PUSH1 0x40 MLOAD PUSH3 0x461BCD PUSH1 0xE5 SHL DUP2 MSTORE PUSH1 0x20 PUSH1 0x4 DUP3 ADD MSTORE PUSH1 0x25 PUSH1 0x24 DUP3 ADD MSTORE PUSH32 0x4552433732313A207472616E736665722066726F6D20696E636F727265637420 PUSH1 0x44 DUP3 ADD MSTORE PUSH5 0x37BBB732B9 PUSH1 0xD9 SHL PUSH1 0x64 DUP3 ADD MSTORE PUSH1 0x84 SWAP1 REVERT JUMPDEST SWAP1 PUSH2 0x47BB SWAP2 PUSH2 0x47A1 DUP5 PUSH2 0x45A7 JUMP JUMPDEST PUSH1 0x1 PUSH1 0x1 PUSH1 0xA0 SHL SUB SWAP4 SWAP2 DUP5 AND SWAP3 DUP5 SWAP3 SWAP1 SWAP2 DUP4 AND DUP5 EQ PUSH2 0x4739 JUMP JUMPDEST AND SWAP2 DUP3 ISZERO PUSH2 0x4867 JUMPI PUSH1 0x0 SWAP1 DUP5 DUP3 MSTORE PUSH1 0x20 DUP1 MSTORE PUSH1 0x40 SWAP1 PUSH1 0xFF DUP3 DUP5 KECCAK256 SLOAD AND PUSH2 0x4856 JUMPI SWAP1 PUSH2 0x4801 DUP5 PUSH1 0x0 DUP1 MLOAD PUSH1 0x20 PUSH2 0x572F DUP4 CODECOPY DUP2 MLOAD SWAP2 MSTORE SWAP5 SWAP4 PUSH2 0x47FA DUP10 PUSH2 0x45A7 JUMP JUMPDEST AND EQ PUSH2 0x4739 JUMP JUMPDEST DUP6 DUP3 MSTORE PUSH1 0x4 PUSH1 0x20 SWAP1 DUP2 MSTORE DUP2 DUP4 KECCAK256 DUP1 SLOAD PUSH1 0x1 PUSH1 0x1 PUSH1 0xA0 SHL SUB NOT SWAP1 DUP2 AND SWAP1 SWAP2 SSTORE DUP6 DUP5 MSTORE PUSH1 0x3 DUP3 MSTORE DUP3 DUP5 KECCAK256 DUP1 SLOAD PUSH1 0x0 NOT ADD SWAP1 SSTORE DUP7 DUP5 MSTORE DUP3 DUP5 KECCAK256 DUP1 SLOAD PUSH1 0x1 ADD SWAP1 SSTORE DUP8 DUP5 MSTORE PUSH1 0x2 SWAP1 SWAP2 MSTORE SWAP1 DUP3 KECCAK256 DUP1 SLOAD SWAP1 SWAP2 AND DUP6 OR SWAP1 SSTORE DUP1 LOG4 JUMP JUMPDEST DUP2 MLOAD PUSH4 0x16E9AD8F PUSH1 0xE0 SHL DUP2 MSTORE PUSH1 0x4 SWAP1 REVERT JUMPDEST PUSH1 0x40 MLOAD PUSH3 0x461BCD PUSH1 0xE5 SHL DUP2 MSTORE PUSH1 0x20 PUSH1 0x4 DUP3 ADD MSTORE PUSH1 0x24 DUP1 DUP3 ADD MSTORE PUSH32 0x4552433732313A207472616E7366657220746F20746865207A65726F20616464 PUSH1 0x44 DUP3 ADD MSTORE PUSH4 0x72657373 PUSH1 0xE0 SHL PUSH1 0x64 DUP3 ADD MSTORE PUSH1 0x84 SWAP1 REVERT JUMPDEST PUSH1 0x0 SWAP1 DUP2 MSTORE PUSH1 0x2 PUSH1 0x20 MSTORE PUSH1 0x40 SWAP1 KECCAK256 SLOAD PUSH1 0x1 PUSH1 0x1 PUSH1 0xA0 SHL SUB AND ISZERO ISZERO SWAP1 JUMP JUMPDEST RETURNDATASIZE ISZERO PUSH2 0x4900 JUMPI RETURNDATASIZE SWAP1 PUSH2 0x48E6 DUP3 PUSH2 0x4403 JUMP JUMPDEST SWAP2 PUSH2 0x48F4 PUSH1 0x40 MLOAD SWAP4 DUP5 PUSH2 0x43E0 JUMP JUMPDEST DUP3 MSTORE RETURNDATASIZE PUSH1 0x0 PUSH1 0x20 DUP5 ADD RETURNDATACOPY JUMP JUMPDEST PUSH1 0x60 SWAP1 JUMP JUMPDEST SWAP1 SWAP2 PUSH1 0x0 SWAP2 DUP1 EXTCODESIZE ISZERO PUSH2 0x49F0 JUMPI PUSH2 0x4950 PUSH1 0x20 SWAP2 DUP5 SWAP4 PUSH1 0x40 MLOAD SWAP5 DUP6 DUP1 SWAP5 DUP2 SWAP4 PUSH4 0xA85BD01 PUSH1 0xE1 SHL SWAP11 DUP12 DUP5 MSTORE CALLER PUSH1 0x4 DUP6 ADD MSTORE DUP5 PUSH1 0x24 DUP6 ADD MSTORE PUSH1 0x44 DUP5 ADD MSTORE PUSH1 0x80 PUSH1 0x64 DUP5 ADD MSTORE PUSH1 0x84 DUP4 ADD SWAP1 PUSH2 0x409D JUMP JUMPDEST SUB SWAP3 PUSH1 0x1 PUSH1 0x1 PUSH1 0xA0 SHL SUB AND GAS CALL SWAP1 DUP3 SWAP1 DUP3 PUSH2 0x49A8 JUMPI JUMPDEST POP POP PUSH2 0x499A JUMPI PUSH2 0x4974 PUSH2 0x48D5 JUMP JUMPDEST DUP1 MLOAD SWAP1 DUP2 PUSH2 0x4995 JUMPI PUSH1 0x40 MLOAD PUSH3 0x461BCD PUSH1 0xE5 SHL DUP2 MSTORE DUP1 PUSH2 0x9C9 PUSH1 0x4 DUP3 ADD PUSH2 0x4658 JUMP JUMPDEST PUSH1 0x20 ADD REVERT JUMPDEST PUSH1 0x1 PUSH1 0x1 PUSH1 0xE0 SHL SUB NOT AND EQ SWAP1 JUMP JUMPDEST SWAP1 SWAP2 SWAP3 POP PUSH1 0x20 DUP2 RETURNDATASIZE DUP3 GT PUSH2 0x49E8 JUMPI JUMPDEST DUP2 PUSH2 0x49C4 PUSH1 0x20 SWAP4 DUP4 PUSH2 0x43E0 JUMP JUMPDEST DUP2 ADD SUB SLT PUSH2 0x4E8 JUMPI MLOAD SWAP1 PUSH1 0x1 PUSH1 0x1 PUSH1 0xE0 SHL SUB NOT DUP3 AND DUP3 SUB PUSH2 0xBD0 JUMPI POP SWAP1 CODESIZE DUP1 PUSH2 0x4966 JUMP JUMPDEST RETURNDATASIZE SWAP2 POP PUSH2 0x49B7 JUMP JUMPDEST POP POP POP POP PUSH1 0x1 SWAP1 JUMP JUMPDEST SWAP2 SWAP3 PUSH1 0x0 SWAP3 SWAP2 SWAP1 DUP2 EXTCODESIZE ISZERO PUSH2 0x4A6A JUMPI PUSH1 0x20 SWAP2 PUSH2 0x4A4F SWAP2 DUP6 PUSH1 0x40 MLOAD SWAP6 DUP7 DUP1 SWAP6 DUP2 SWAP5 PUSH4 0xA85BD01 PUSH1 0xE1 SHL SWAP12 DUP13 DUP5 MSTORE CALLER PUSH1 0x4 DUP6 ADD MSTORE PUSH1 0x1 DUP1 PUSH1 0xA0 SHL SUB DUP1 SWAP6 AND PUSH1 0x24 DUP6 ADD MSTORE PUSH1 0x44 DUP5 ADD MSTORE PUSH1 0x80 PUSH1 0x64 DUP5 ADD MSTORE PUSH1 0x84 DUP4 ADD SWAP1 PUSH2 0x409D JUMP JUMPDEST SUB SWAP4 AND GAS CALL SWAP1 DUP3 SWAP1 DUP3 PUSH2 0x49A8 JUMPI POP POP PUSH2 0x499A JUMPI PUSH2 0x4974 PUSH2 0x48D5 JUMP JUMPDEST POP POP POP POP POP PUSH1 0x1 SWAP1 JUMP JUMPDEST PUSH1 0x40 MLOAD SWAP1 PUSH2 0x4A81 DUP3 PUSH2 0x4379 JUMP JUMPDEST PUSH1 0x60 PUSH1 0x80 DUP4 DUP3 DUP2 MSTORE PUSH1 0x0 PUSH1 0x20 DUP3 ADD MSTORE PUSH1 0x0 PUSH1 0x40 DUP3 ADD MSTORE PUSH1 0x0 DUP4 DUP3 ADD MSTORE ADD MSTORE JUMP JUMPDEST SWAP1 PUSH1 0x4 PUSH1 0x80 PUSH1 0x40 MLOAD PUSH2 0x4AB2 DUP2 PUSH2 0x4379 JUMP JUMPDEST PUSH2 0x4B06 DUP2 SWAP6 PUSH1 0x40 MLOAD PUSH2 0x4ACF DUP2 PUSH2 0x4AC8 DUP2 DUP6 PUSH2 0x42E3 JUMP JUMPDEST SUB DUP3 PUSH2 0x43E0 JUMP JUMPDEST DUP4 MSTORE PUSH1 0x1 DUP2 ADD SLOAD PUSH1 0x20 DUP5 ADD MSTORE PUSH1 0x2 DUP2 ADD SLOAD PUSH1 0x40 DUP5 ADD MSTORE PUSH1 0x3 DUP2 ADD SLOAD PUSH1 0x60 DUP5 ADD MSTORE PUSH2 0x4AFF PUSH1 0x40 MLOAD DUP1 SWAP7 DUP2 SWAP4 ADD PUSH2 0x42E3 JUMP JUMPDEST SUB DUP5 PUSH2 0x43E0 JUMP JUMPDEST ADD MSTORE JUMP JUMPDEST PUSH1 0x0 NOT DUP2 EQ PUSH2 0x4B19 JUMPI PUSH1 0x1 ADD SWAP1 JUMP JUMPDEST PUSH4 0x4E487B71 PUSH1 0xE0 SHL PUSH1 0x0 MSTORE PUSH1 0x11 PUSH1 0x4 MSTORE PUSH1 0x24 PUSH1 0x0 REVERT JUMPDEST PUSH1 0xFF PUSH1 0x9 SLOAD AND PUSH2 0x4B3B JUMPI JUMP JUMPDEST PUSH1 0x40 MLOAD PUSH3 0x461BCD PUSH1 0xE5 SHL DUP2 MSTORE PUSH1 0x20 PUSH1 0x4 DUP3 ADD MSTORE PUSH1 0x10 PUSH1 0x24 DUP3 ADD MSTORE PUSH16 0x14185D5CD8589B194E881C185D5CD959 PUSH1 0x82 SHL PUSH1 0x44 DUP3 ADD MSTORE PUSH1 0x64 SWAP1 REVERT JUMPDEST PUSH1 0x2 PUSH1 0x8 SLOAD EQ PUSH2 0x4B84 JUMPI PUSH1 0x2 PUSH1 0x8 SSTORE JUMP JUMPDEST PUSH1 0x40 MLOAD PUSH3 0x461BCD PUSH1 0xE5 SHL DUP2 MSTORE PUSH1 0x20 PUSH1 0x4 DUP3 ADD MSTORE PUSH1 0x1F PUSH1 0x24 DUP3 ADD MSTORE PUSH32 0x5265656E7472616E637947756172643A207265656E7472616E742063616C6C00 PUSH1 0x44 DUP3 ADD MSTORE PUSH1 0x64 SWAP1 REVERT JUMPDEST SWAP1 PUSH1 0x40 SWAP2 DUP3 MLOAD SWAP3 PUSH2 0x4BD9 DUP5 PUSH2 0x43AA JUMP JUMPDEST PUSH1 0x0 DUP1 DUP6 MSTORE PUSH1 0x1 PUSH1 0x1 PUSH1 0xA0 SHL SUB DUP4 AND SWAP2 DUP3 ISZERO PUSH2 0x4C82 JUMPI PUSH2 0x4C01 PUSH2 0x4BFB DUP7 PUSH2 0x48B8 JUMP JUMPDEST ISZERO PUSH2 0x4CC5 JUMP JUMPDEST DUP5 DUP3 MSTORE PUSH1 0x20 DUP1 MSTORE PUSH1 0xFF DUP2 DUP4 KECCAK256 SLOAD AND PUSH2 0x4C72 JUMPI SWAP4 DUP1 SWAP3 PUSH2 0x4C70 SWAP7 SWAP5 SWAP3 PUSH2 0x143A SWAP7 PUSH2 0x4C2C PUSH2 0x4BFB DUP6 PUSH2 0x48B8 JUMP JUMPDEST DUP3 DUP3 MSTORE PUSH1 0x3 PUSH1 0x20 SWAP1 DUP2 MSTORE DUP2 DUP4 KECCAK256 DUP1 SLOAD PUSH1 0x1 ADD SWAP1 SSTORE DUP5 DUP4 MSTORE PUSH1 0x2 SWAP1 MSTORE DUP2 KECCAK256 DUP1 SLOAD PUSH1 0x1 PUSH1 0x1 PUSH1 0xA0 SHL SUB NOT AND DUP4 OR SWAP1 SSTORE PUSH1 0x0 DUP1 MLOAD PUSH1 0x20 PUSH2 0x572F DUP4 CODECOPY DUP2 MLOAD SWAP2 MSTORE DUP2 DUP1 LOG4 PUSH2 0x4905 JUMP JUMPDEST JUMP JUMPDEST MLOAD PUSH4 0x16E9AD8F PUSH1 0xE0 SHL DUP2 MSTORE PUSH1 0x4 SWAP1 REVERT JUMPDEST MLOAD PUSH3 0x461BCD PUSH1 0xE5 SHL DUP2 MSTORE PUSH1 0x20 PUSH1 0x4 DUP3 ADD DUP2 SWAP1 MSTORE PUSH1 0x24 DUP3 ADD MSTORE PUSH32 0x4552433732313A206D696E7420746F20746865207A65726F2061646472657373 PUSH1 0x44 DUP3 ADD MSTORE PUSH1 0x64 SWAP1 REVERT JUMPDEST ISZERO PUSH2 0x4CCC JUMPI JUMP JUMPDEST PUSH1 0x40 MLOAD PUSH3 0x461BCD PUSH1 0xE5 SHL DUP2 MSTORE PUSH1 0x20 PUSH1 0x4 DUP3 ADD MSTORE PUSH1 0x1C PUSH1 0x24 DUP3 ADD MSTORE PUSH28 0x115490CDCC8C4E881D1BDAD95B88185B1C9958591E481B5A5B9D1959 PUSH1 0x22 SHL PUSH1 0x44 DUP3 ADD MSTORE PUSH1 0x64 SWAP1 REVERT JUMPDEST PUSH1 0x1F DUP2 GT PUSH2 0x4D1C JUMPI POP POP JUMP JUMPDEST PUSH1 0x0 SWAP1 PUSH1 0xD DUP3 MSTORE PUSH1 0x20 DUP3 KECCAK256 SWAP1 PUSH1 0x20 PUSH1 0x1F DUP6 ADD PUSH1 0x5 SHR DUP4 ADD SWAP5 LT PUSH2 0x4D5A JUMPI JUMPDEST PUSH1 0x1F ADD PUSH1 0x5 SHR ADD SWAP2 JUMPDEST DUP3 DUP2 LT PUSH2 0x4D4F JUMPI POP POP POP JUMP JUMPDEST DUP2 DUP2 SSTORE PUSH1 0x1 ADD PUSH2 0x4D43 JUMP JUMPDEST SWAP1 SWAP3 POP DUP3 SWAP1 PUSH2 0x4D3A JUMP JUMPDEST SWAP1 PUSH1 0x1F DUP2 GT PUSH2 0x4D72 JUMPI POP POP POP JUMP JUMPDEST PUSH1 0x0 SWAP2 DUP3 MSTORE PUSH1 0x20 DUP3 KECCAK256 SWAP1 PUSH1 0x20 PUSH1 0x1F DUP6 ADD PUSH1 0x5 SHR DUP4 ADD SWAP5 LT PUSH2 0x4DAE JUMPI JUMPDEST PUSH1 0x1F ADD PUSH1 0x5 SHR ADD SWAP2 JUMPDEST DUP3 DUP2 LT PUSH2 0x4DA3 JUMPI POP POP POP JUMP JUMPDEST DUP2 DUP2 SSTORE PUSH1 0x1 ADD PUSH2 0x4D97 JUMP JUMPDEST SWAP1 SWAP3 POP DUP3 SWAP1 PUSH2 0x4D8E JUMP JUMPDEST SWAP2 SWAP1 SWAP2 PUSH2 0x4DC4 DUP2 PUSH2 0x48B8 JUMP JUMPDEST ISZERO PUSH2 0x4ED1 JUMPI PUSH1 0x0 DUP2 DUP2 MSTORE PUSH1 0x6 PUSH1 0x20 SWAP1 DUP2 MSTORE PUSH1 0x40 DUP3 KECCAK256 DUP6 MLOAD SWAP2 SWAP4 SWAP3 SWAP1 SWAP2 SWAP1 PUSH1 0x1 PUSH1 0x1 PUSH1 0x40 SHL SUB DUP3 GT PUSH2 0x4EBD JUMPI PUSH2 0x4DFD DUP3 PUSH2 0x1E2F DUP6 SLOAD PUSH2 0x41BA JUMP JUMPDEST DUP5 SWAP1 PUSH1 0x1F DUP4 GT PUSH1 0x1 EQ PUSH2 0x4E4B JUMPI SWAP1 PUSH1 0x0 DUP1 MLOAD PUSH1 0x20 PUSH2 0x57CF DUP4 CODECOPY DUP2 MLOAD SWAP2 MSTORE SWAP7 SWAP8 DUP4 PUSH2 0x4E40 JUMPI JUMPDEST POP POP DUP2 PUSH1 0x1 SHL SWAP2 PUSH1 0x0 NOT SWAP1 PUSH1 0x3 SHL SHR NOT AND OR SWAP1 SSTORE JUMPDEST PUSH1 0x40 MLOAD SWAP1 DUP2 MSTORE LOG1 JUMP JUMPDEST ADD MLOAD SWAP1 POP CODESIZE DUP1 PUSH2 0x4E22 JUMP JUMPDEST SWAP2 SWAP7 PUSH1 0x1F NOT DUP9 AND DUP5 DUP5 MSTORE DUP7 DUP5 KECCAK256 SWAP4 JUMPDEST DUP2 DUP2 LT PUSH2 0x4EA6 JUMPI POP SWAP2 PUSH1 0x1 SWAP4 SWAP2 DUP10 PUSH1 0x0 DUP1 MLOAD PUSH1 0x20 PUSH2 0x57CF DUP4 CODECOPY DUP2 MLOAD SWAP2 MSTORE SWAP10 SWAP11 SWAP5 LT PUSH2 0x4E8D JUMPI JUMPDEST POP POP POP DUP2 SHL ADD SWAP1 SSTORE PUSH2 0x4E37 JUMP JUMPDEST ADD MLOAD PUSH1 0x0 NOT PUSH1 0xF8 DUP5 PUSH1 0x3 SHL AND SHR NOT AND SWAP1 SSTORE CODESIZE DUP1 DUP1 PUSH2 0x4E80 JUMP JUMPDEST SWAP3 SWAP4 DUP8 PUSH1 0x1 DUP2 SWAP3 DUP8 DUP7 ADD MLOAD DUP2 SSTORE ADD SWAP6 ADD SWAP4 ADD PUSH2 0x4E5A JUMP JUMPDEST PUSH4 0x4E487B71 PUSH1 0xE0 SHL DUP2 MSTORE PUSH1 0x41 PUSH1 0x4 MSTORE PUSH1 0x24 SWAP1 REVERT JUMPDEST PUSH1 0x40 MLOAD PUSH3 0x461BCD PUSH1 0xE5 SHL DUP2 MSTORE PUSH1 0x20 PUSH1 0x4 DUP3 ADD MSTORE PUSH1 0x2E PUSH1 0x24 DUP3 ADD MSTORE PUSH32 0x45524337323155524953746F726167653A2055524920736574206F66206E6F6E PUSH1 0x44 DUP3 ADD MSTORE PUSH14 0x32BC34B9BA32B73A103A37B5B2B7 PUSH1 0x91 SHL PUSH1 0x64 DUP3 ADD MSTORE PUSH1 0x84 SWAP1 REVERT JUMPDEST SWAP2 SWAP1 DUP3 ADD DUP1 SWAP3 GT PUSH2 0x4B19 JUMPI JUMP JUMPDEST PUSH1 0x14 SLOAD PUSH1 0xB SLOAD SWAP1 PUSH1 0x40 MLOAD SWAP2 PUSH1 0x20 DUP4 ADD SWAP2 DUP3 MSTORE TIMESTAMP PUSH1 0x40 DUP5 ADD MSTORE PREVRANDAO PUSH1 0x60 DUP5 ADD MSTORE CALLER PUSH1 0x60 SHL PUSH1 0x80 DUP5 ADD MSTORE PUSH1 0x94 DUP4 ADD MSTORE PUSH1 0x94 DUP3 MSTORE PUSH1 0xC0 DUP3 ADD SWAP2 DUP1 DUP4 LT PUSH1 0x1 DUP1 PUSH1 0x40 SHL SUB DUP5 GT OR PUSH2 0x4394 JUMPI PUSH2 0x2710 SWAP3 PUSH1 0x40 MSTORE MLOAD SWAP1 KECCAK256 DUP1 PUSH1 0x14 SSTORE MOD PUSH1 0x0 SWAP1 DUP2 SWAP1 PUSH1 0x11 SLOAD SWAP3 JUMPDEST DUP4 DUP4 LT PUSH2 0x4FF3 JUMPI POP POP POP PUSH1 0x0 JUMPDEST DUP2 DUP2 LT PUSH2 0x4FBF JUMPI PUSH1 0x40 MLOAD PUSH4 0x24E40FD PUSH1 0xE4 SHL DUP2 MSTORE PUSH1 0x4 SWAP1 REVERT JUMPDEST PUSH1 0x3 PUSH2 0x4FCA DUP3 PUSH2 0x4473 JUMP JUMPDEST POP ADD SLOAD PUSH1 0x2 PUSH2 0x4FD8 DUP4 PUSH2 0x4473 JUMP JUMPDEST POP ADD SLOAD GT PUSH2 0x4FEE JUMPI PUSH2 0x4FE9 SWAP1 PUSH2 0x4B0A JUMP JUMPDEST PUSH2 0x4FA6 JUMP JUMPDEST SWAP1 POP SWAP1 JUMP JUMPDEST PUSH2 0x5002 SWAP1 PUSH1 0x1 PUSH2 0x16C5 DUP6 PUSH2 0x4473 JUMP JUMPDEST SWAP2 DUP3 DUP3 LT PUSH2 0x501A JUMPI JUMPDEST PUSH2 0x5014 SWAP1 PUSH2 0x4B0A JUMP JUMPDEST SWAP2 PUSH2 0x4F99 JUMP JUMPDEST PUSH1 0x3 PUSH2 0x5025 DUP3 PUSH2 0x4473 JUMP JUMPDEST POP ADD SLOAD PUSH1 0x2 PUSH2 0x5033 DUP4 PUSH2 0x4473 JUMP JUMPDEST POP ADD SLOAD GT ISZERO PUSH2 0x500B JUMPI SWAP3 POP POP POP SWAP1 JUMP JUMPDEST PUSH1 0xD SLOAD PUSH1 0x0 SWAP3 SWAP2 PUSH2 0x5053 DUP3 PUSH2 0x41BA JUMP JUMPDEST SWAP2 PUSH1 0x1 SWAP1 DUP2 DUP2 AND SWAP1 DUP2 ISZERO PUSH2 0x50A4 JUMPI POP PUSH1 0x1 EQ PUSH2 0x506E JUMPI POP POP POP JUMP JUMPDEST SWAP1 SWAP2 SWAP3 SWAP4 POP PUSH1 0xD PUSH1 0x0 MSTORE PUSH1 0x20 SWAP1 DUP2 PUSH1 0x0 KECCAK256 SWAP1 PUSH1 0x0 SWAP2 JUMPDEST DUP6 DUP4 LT PUSH2 0x5093 JUMPI POP POP POP POP ADD SWAP1 JUMP JUMPDEST DUP1 SLOAD DUP6 DUP5 ADD MSTORE SWAP2 DUP4 ADD SWAP2 DUP2 ADD PUSH2 0x5084 JUMP JUMPDEST PUSH1 0xFF NOT AND DUP4 MSTORE POP POP DUP2 ISZERO ISZERO SWAP1 SWAP2 MUL ADD SWAP2 POP JUMP JUMPDEST PUSH1 0xF SLOAD PUSH1 0xFF AND ISZERO PUSH2 0x510E JUMPI PUSH2 0x413F PUSH1 0x5 PUSH2 0x50D2 PUSH1 0x20 SWAP4 PUSH2 0x513F JUMP JUMPDEST PUSH1 0x40 MLOAD SWAP4 DUP5 SWAP2 PUSH2 0x50F3 PUSH2 0x50E6 DUP4 DUP6 ADD PUSH2 0x5043 JUMP JUMPDEST SWAP2 DUP3 DUP2 MLOAD SWAP5 DUP6 SWAP3 ADD PUSH2 0x407A JUMP JUMPDEST ADD PUSH5 0x173539B7B7 PUSH1 0xD9 SHL DUP2 MSTORE SUB PUSH1 0x1A NOT DUP2 ADD DUP5 MSTORE ADD DUP3 PUSH2 0x43E0 JUMP JUMPDEST POP PUSH1 0x40 MLOAD PUSH2 0x413F DUP2 PUSH2 0x4AC8 DUP2 PUSH2 0x41F4 JUMP JUMPDEST DUP2 ISZERO PUSH2 0x5129 JUMPI DIV SWAP1 JUMP JUMPDEST PUSH4 0x4E487B71 PUSH1 0xE0 SHL PUSH1 0x0 MSTORE PUSH1 0x12 PUSH1 0x4 MSTORE PUSH1 0x24 PUSH1 0x0 REVERT JUMPDEST PUSH1 0x0 SWAP1 DUP1 PUSH19 0x184F03E93FF9F4DAA797ED6E38ED64BF6A1F01 PUSH1 0x40 SHL DUP1 DUP3 LT ISZERO PUSH2 0x5293 JUMPI JUMPDEST POP PUSH10 0x4EE2D6D415B85ACEF81 PUSH1 0x20 SHL DUP1 DUP4 LT ISZERO PUSH2 0x5284 JUMPI JUMPDEST POP PUSH7 0x2386F26FC10000 DUP1 DUP4 LT ISZERO PUSH2 0x5275 JUMPI JUMPDEST POP PUSH4 0x5F5E100 DUP1 DUP4 LT ISZERO PUSH2 0x5266 JUMPI JUMPDEST POP PUSH2 0x2710 DUP1 DUP4 LT ISZERO PUSH2 0x5257 JUMPI JUMPDEST POP PUSH1 0x64 DUP3 LT ISZERO PUSH2 0x5247 JUMPI JUMPDEST PUSH1 0xA DUP1 SWAP3 LT ISZERO PUSH2 0x523D JUMPI JUMPDEST PUSH1 0x1 SWAP1 DUP2 PUSH1 0x21 DUP2 DUP7 ADD SWAP6 PUSH2 0x51D2 DUP8 PUSH2 0x4403 JUMP JUMPDEST SWAP7 PUSH2 0x51E0 PUSH1 0x40 MLOAD SWAP9 DUP10 PUSH2 0x43E0 JUMP JUMPDEST DUP1 DUP9 MSTORE PUSH2 0x51EF PUSH1 0x1F NOT SWAP2 PUSH2 0x4403 JUMP JUMPDEST ADD CALLDATASIZE PUSH1 0x20 DUP10 ADD CALLDATACOPY DUP7 ADD ADD SWAP1 JUMPDEST PUSH2 0x5207 JUMPI JUMPDEST POP POP POP POP SWAP1 JUMP JUMPDEST PUSH1 0x0 NOT ADD SWAP1 DUP4 SWAP1 PUSH16 0x181899199A1A9B1B9C1CB0B131B232B3 PUSH1 0x81 SHL DUP3 DUP3 MOD BYTE DUP4 MSTORE8 DIV SWAP2 DUP3 ISZERO PUSH2 0x5238 JUMPI SWAP2 SWAP1 DUP3 PUSH2 0x51FB JUMP JUMPDEST PUSH2 0x5200 JUMP JUMPDEST SWAP2 PUSH1 0x1 ADD SWAP2 PUSH2 0x51BF JUMP JUMPDEST SWAP2 SWAP1 PUSH1 0x64 PUSH1 0x2 SWAP2 DIV SWAP2 ADD SWAP2 PUSH2 0x51B4 JUMP JUMPDEST PUSH1 0x4 SWAP2 SWAP4 SWAP3 DIV SWAP2 ADD SWAP2 CODESIZE PUSH2 0x51A9 JUMP JUMPDEST PUSH1 0x8 SWAP2 SWAP4 SWAP3 DIV SWAP2 ADD SWAP2 CODESIZE PUSH2 0x519C JUMP JUMPDEST PUSH1 0x10 SWAP2 SWAP4 SWAP3 DIV SWAP2 ADD SWAP2 CODESIZE PUSH2 0x518D JUMP JUMPDEST PUSH1 0x20 SWAP2 SWAP4 SWAP3 DIV SWAP2 ADD SWAP2 CODESIZE PUSH2 0x517B JUMP JUMPDEST PUSH1 0x40 SWAP4 POP DUP2 DIV SWAP2 POP CODESIZE PUSH2 0x5163 JUMP JUMPDEST SWAP2 SWAP1 DUP3 SUB SWAP2 DUP3 GT PUSH2 0x4B19 JUMPI JUMP JUMPDEST PUSH2 0x52B7 DUP2 PUSH2 0x48B8 JUMP JUMPDEST ISZERO PUSH2 0x5320 JUMPI PUSH1 0xFF PUSH1 0xF SLOAD AND ISZERO PUSH2 0x510E JUMPI DUP1 PUSH2 0x52D7 PUSH2 0x45D6 PUSH2 0x747 SWAP4 PUSH2 0x48B8 JUMP JUMPDEST DUP1 PUSH1 0x0 MSTORE PUSH1 0x6 PUSH1 0x20 MSTORE PUSH2 0x52F4 PUSH1 0x40 PUSH1 0x0 KECCAK256 PUSH1 0x40 MLOAD SWAP4 DUP5 DUP1 SWAP3 PUSH2 0x42E3 JUMP JUMPDEST PUSH1 0x0 PUSH1 0x40 MLOAD PUSH2 0x5302 DUP2 PUSH2 0x43AA JUMP JUMPDEST MSTORE DUP2 MLOAD ISZERO PUSH2 0x530E JUMPI POP SWAP1 JUMP JUMPDEST PUSH1 0x20 SWAP2 POP PUSH1 0x5 PUSH2 0x50D2 PUSH2 0x413F SWAP3 PUSH2 0x513F JUMP JUMPDEST PUSH1 0x40 MLOAD PUSH4 0x224A1B11 PUSH1 0xE1 SHL DUP2 MSTORE PUSH1 0x4 SWAP1 REVERT JUMPDEST SWAP1 SWAP2 DUP1 PUSH1 0x40 SWAP4 PUSH1 0x20 DUP5 MSTORE DUP2 PUSH1 0x20 DUP6 ADD MSTORE DUP5 DUP5 ADD CALLDATACOPY PUSH1 0x0 DUP3 DUP3 ADD DUP5 ADD MSTORE PUSH1 0x1F ADD PUSH1 0x1F NOT AND ADD ADD SWAP1 JUMP JUMPDEST SWAP2 SWAP1 DUP2 LT ISZERO PUSH2 0x4064 JUMPI PUSH1 0x5 SHL ADD SWAP1 JUMP JUMPDEST CALLDATALOAD PUSH1 0x1 PUSH1 0x1 PUSH1 0xA0 SHL SUB DUP2 AND DUP2 SUB PUSH2 0x17A3 JUMPI SWAP1 JUMP JUMPDEST DUP2 DUP2 MUL SWAP3 SWAP2 DUP2 ISZERO SWAP2 DUP5 DIV EQ OR ISZERO PUSH2 0x4B19 JUMPI JUMP JUMPDEST PUSH1 0xFF PUSH1 0x1E SLOAD AND ISZERO DUP1 ISZERO PUSH2 0x5429 JUMPI JUMPDEST PUSH2 0x5423 JUMPI PUSH2 0x53AF PUSH1 0x1B SLOAD TIMESTAMP PUSH2 0x52A1 JUMP JUMPDEST PUSH1 0x1C SLOAD SWAP1 DUP2 DUP2 LT ISZERO PUSH2 0x541B JUMPI PUSH2 0x53C8 PUSH1 0x1D SLOAD DUP1 SWAP3 PUSH2 0x511F JUMP JUMPDEST SWAP2 DUP3 ISZERO PUSH2 0x5412 JUMPI PUSH2 0x5406 SWAP2 PUSH2 0x53DC SWAP2 PUSH2 0x511F JUMP JUMPDEST SWAP2 PUSH2 0x5400 PUSH1 0x19 SLOAD SWAP2 PUSH2 0x53FA PUSH1 0x1A SLOAD SWAP6 PUSH2 0x53F5 DUP8 DUP7 PUSH2 0x52A1 JUMP JUMPDEST PUSH2 0x511F JUMP JUMPDEST SWAP1 PUSH2 0x537E JUMP JUMPDEST SWAP1 PUSH2 0x52A1 JUMP JUMPDEST DUP2 DUP2 LT ISZERO PUSH2 0x4FEE JUMPI POP SWAP1 JUMP JUMPDEST POP POP POP PUSH1 0x19 SLOAD SWAP1 JUMP JUMPDEST POP POP PUSH1 0x1A SLOAD SWAP1 JUMP JUMPDEST PUSH1 0x19 SLOAD SWAP1 JUMP JUMPDEST POP PUSH1 0x1B SLOAD TIMESTAMP LT PUSH2 0x539F JUMP JUMPDEST PUSH1 0x40 SWAP2 SWAP5 SWAP4 SWAP3 PUSH1 0x60 DUP3 ADD SWAP6 DUP3 MSTORE PUSH1 0x20 DUP3 ADD MSTORE ADD MSTORE JUMP JUMPDEST PUSH1 0xFF PUSH1 0x1E SLOAD AND ISZERO DUP1 ISZERO PUSH2 0x54B3 JUMPI JUMPDEST PUSH2 0x54AE JUMPI PUSH1 0x1B SLOAD PUSH2 0x5469 DUP2 TIMESTAMP PUSH2 0x52A1 JUMP JUMPDEST PUSH2 0x5476 PUSH1 0x1D SLOAD DUP1 SWAP3 PUSH2 0x511F JUMP JUMPDEST SWAP1 PUSH1 0x1 DUP3 ADD DUP1 SWAP3 GT PUSH2 0x4B19 JUMPI PUSH2 0x5492 PUSH2 0x5498 SWAP2 PUSH2 0x54A2 SWAP4 PUSH2 0x537E JUMP JUMPDEST DUP4 PUSH2 0x4F2D JUMP JUMPDEST SWAP2 PUSH1 0x1C SLOAD SWAP1 PUSH2 0x4F2D JUMP JUMPDEST DUP2 LT PUSH2 0x413F JUMPI POP PUSH1 0x0 SWAP1 JUMP JUMPDEST PUSH1 0x0 SWAP1 JUMP JUMPDEST POP PUSH1 0x1B SLOAD TIMESTAMP LT PUSH2 0x5458 JUMP JUMPDEST SWAP1 DUP2 MLOAD DUP2 LT ISZERO PUSH2 0x4064 JUMPI ADD PUSH1 0x20 ADD SWAP1 JUMP JUMPDEST PUSH1 0x40 MLOAD SWAP1 PUSH1 0x60 DUP3 ADD PUSH1 0x1 PUSH1 0x1 PUSH1 0x40 SHL SUB DUP2 GT DUP4 DUP3 LT OR PUSH2 0x4394 JUMPI PUSH1 0x40 MSTORE PUSH1 0x2A DUP3 MSTORE PUSH1 0x20 DUP3 ADD PUSH1 0x40 CALLDATASIZE DUP3 CALLDATACOPY DUP3 MLOAD ISZERO PUSH2 0x4064 JUMPI PUSH1 0x30 SWAP1 MSTORE8 DUP2 MLOAD PUSH1 0x1 SWAP1 DUP2 LT ISZERO PUSH2 0x4064 JUMPI PUSH1 0x78 PUSH1 0x21 DUP5 ADD MSTORE8 PUSH1 0x29 SWAP1 JUMPDEST DUP1 DUP3 GT PUSH2 0x555D JUMPI POP POP PUSH2 0x552B JUMPI SWAP1 JUMP JUMPDEST PUSH1 0x64 PUSH1 0x40 MLOAD PUSH3 0x461BCD PUSH1 0xE5 SHL DUP2 MSTORE PUSH1 0x20 PUSH1 0x4 DUP3 ADD MSTORE PUSH1 0x20 PUSH1 0x24 DUP3 ADD MSTORE PUSH1 0x0 DUP1 MLOAD PUSH1 0x20 PUSH2 0x562F DUP4 CODECOPY DUP2 MLOAD SWAP2 MSTORE PUSH1 0x44 DUP3 ADD MSTORE REVERT JUMPDEST SWAP1 SWAP2 PUSH1 0xF DUP2 AND PUSH1 0x10 DUP2 LT ISZERO PUSH2 0x55B6 JUMPI PUSH16 0x181899199A1A9B1B9C1CB0B131B232B3 PUSH1 0x81 SHL SWAP1 BYTE PUSH2 0x558C DUP5 DUP7 PUSH2 0x54BE JUMP JUMPDEST MSTORE8 PUSH1 0x4 SHR SWAP2 DUP1 ISZERO PUSH2 0x55A1 JUMPI PUSH1 0x0 NOT ADD SWAP1 PUSH2 0x551B JUMP JUMPDEST PUSH1 0x24 PUSH1 0x0 PUSH4 0x4E487B71 PUSH1 0xE0 SHL DUP2 MSTORE PUSH1 0x11 PUSH1 0x4 MSTORE REVERT JUMPDEST PUSH1 0x24 PUSH1 0x0 PUSH4 0x4E487B71 PUSH1 0xE0 SHL DUP2 MSTORE PUSH1 0x32 PUSH1 0x4 MSTORE REVERT JUMPDEST DUP1 SLOAD SWAP2 SWAP1 PUSH1 0x1 PUSH1 0x40 SHL DUP4 LT ISZERO PUSH2 0x4394 JUMPI DUP3 PUSH2 0xEB0 SWAP2 PUSH1 0x1 PUSH2 0x4C70 SWAP6 ADD DUP2 SSTORE PUSH2 0x404C JUMP JUMPDEST DUP1 SLOAD SWAP1 DUP2 ISZERO PUSH2 0x5618 JUMPI PUSH1 0x0 NOT SWAP2 DUP3 ADD SWAP2 PUSH2 0x5608 DUP4 DUP4 PUSH2 0x404C JUMP JUMPDEST SWAP1 SWAP2 DUP3 SLOAD SWAP2 PUSH1 0x3 SHL SHL NOT AND SWAP1 SSTORE SSTORE JUMP JUMPDEST PUSH4 0x4E487B71 PUSH1 0xE0 SHL PUSH1 0x0 MSTORE PUSH1 0x31 PUSH1 0x4 MSTORE PUSH1 0x24 PUSH1 0x0 REVERT INVALID MSTORE8 PUSH21 0x72696E67733A20686578206C656E67746820696E73 PUSH22 0x6666696369656E745DB9EE0A495BF2E6FF9C91A7834C SHL LOG4 REVERT 0xD2 PREVRANDAO 0xA5 0xE8 0xAA 0x4E MSTORE8 PUSH28 0xD38AEAE4B073AA0BD399AE365AB45A4803BCA8E95718B4F1FF0915B4 DUP5 SWAP4 0xD7 SWAP1 0xB2 MSTORE JUMP SUB 0xC0 LOG0 SWAP3 SDIV 0xB8 DUP14 0x23 0xD9 0xA6 SIGNEXTEND PUSH26 0x24FCCC370E1E0C1CCF49989E3B2968CAFAF7DB7FC13BD13FFD80 COINBASE REVERT PUSH31 0x4D7047A13BDE415402E7278AD32792F9BDF46102A274181893CC948BE0079C MSTORE8 AND MSIZE EQ SGT PREVRANDAO 0xCD 0x1F 0xD0 LOG4 CALLCODE DUP5 NOT 0x49 PUSH32 0x9722A3DAAFE3B4186F6B6457E09F2DF0FED2C77648DE5860A4CC508CD0818C85 0xB8 0xB8 LOG1 0xAB 0x4C 0xEE 0xEF DUP14 SWAP9 SHR DUP10 JUMP 0xA6 0xA6 PUSH32 0xA1D1D89C2D62B3F7FDA41A9E2958CF2B076098AFD5156DE632E082B06EF2DDF2 MSTORE 0xAD SHL 0xE2 0xC8 SWAP12 PUSH10 0xC2B068FC378DAA952BA7 CALL PUSH4 0xC4A11628 CREATE2 GAS 0x4D CREATE2 0x23 0xB3 0xEF LOG4 SWAP9 SMOD KECCAK256 0x5C 0xE4 0xD3 SSTORE MULMOD 0x2E CREATE2 0xA8 LOG1 DUP16 JUMP 0xE8 SWAP2 EXTCODECOPY DELEGATECALL LOG2 ADD 0xFB 0xE2 DUP8 DUP3 JUMPDEST MULMOD JUMP SWAP4 0xC2 OR PUSH22 0x62E78CEA01BEE320CD4E420270B5EA74000D11B0C9F7 SELFBALANCE SLOAD 0xEB 0xDB 0xFC SLOAD 0x4B SDIV LOG2 PC PUSH8 0x41B2FC379FAD6781 AND INVALID RETURNDATASIZE 0x4D 0x4B SWAP11 BYTE XOR 0x4A 0xB5 EXTCODESIZE LOG3 PUSH12 0x86AD0FA66340B1AB41AD7D2F COINBASE 0xD9 PREVRANDAO 0x23 0x5F PUSH29 0x99290CA6F149E25AA6DEB5397189BE3882B8DDF71C51BBECF8E1A15ABA SWAP4 SWAP9 0xE0 NOT CREATE 0xB4 SWAP14 CALL LOG4 REVERT 0xE9 DUP15 0xE1 PUSH27 0xE345CB5F6B5E2C27F5033E8CE7905D981207A7D0B6C62CC46AB0BE 0x2A SMOD PUSH14 0x298E4A86D0AB79882DBD01AC373 PUSH25 0x59F9FB6D992D2AEE0ED338BB4C504A17FD3F67AE91A3135BC2 0xEF SWAP5 PUSH31 0x308C41B2F93F9A76C1BF3444D22400A00CB9FE990E6ABE9DBB333FDA48859C INVALID 0xE8 PUSH5 0x543DA26469 PUSH17 0x667358221220138DB18C23C8F8F0AB2299 CALL JUMP PUSH22 0x7A9A896EB4D297CD5156637BB723717B6CDE64736F6C PUSH4 0x43000813 STOP CALLER 0x2F DUP8 DUP9 GT PUSH31 0x7EFF1D82E926EC794901D17C78024A50270940304540A733656F0D31ECC21A PUSH21 0x5E3968A04E9570E4425BC18FA8019C68028196B546 0xD1 PUSH7 0x9C200C68290DEC 0xD9 SLOAD DUP12 PUSH3 0xA8D603 GASLIMIT 0xA9 DUP9 CODESIZE PUSH16 0xC84BA6BC95484008F6362F93160EF3E5 PUSH4 0xD7B69901 SDIV PUSH18 0x9101DABEB77144F2A3385C8033ACD3AF97E9 TIMESTAMP GASPRICE PUSH10 0x5E81AD1EB5B10E2D5276 SLT SMOD EXTCODESIZE 0x26 0xEE 0xCD REVERT PUSH18 0x7E6A320CF44B4AFAC2B0732D9FCBE2B7FA0C 0xF6 "},"methodIdentifiers":{"ADMIN_ROLE()":"75b238fc","DEFAULT_ADMIN_ROLE()":"a217fddf","MAX_MINT_PER_TX()":"8ecad721","MINTER_ROLE()":"d5391393","STAKING_ROLE()":"91052816","_contractURI()":"c0e72740","addToWhitelist(address[])":"7f649783","adminMint(address,uint256)":"e58306f9","approve(address,uint256)":"095ea7b3","auctionActive()":"92228006","auctionDuration()":"0cbf54c8","auctionEndPrice()":"a04a6ac8","auctionMint(uint256)":"4d3554c3","auctionPriceDropInterval()":"4542fc46","auctionStartPrice()":"d756985b","auctionStartTime()":"eb54f9ec","balanceOf(address)":"70a08231","baseURI()":"6c0360eb","batchMint(address,uint256)":"43508b05","batchStake(uint256[])":"c2127793","batchUnstake(uint256[])":"d2acd13d","contractURI()":"e8a3d485","currentSupply()":"771282f6","emergencyStop()":"63a599a4","emergencyWithdraw()":"db2e21bc","endAuction()":"fe67a54b","getAllRarityTiers()":"9470fc93","getApproved(uint256)":"081812fc","getAuctionStatus()":"2e93be30","getContractStats()":"dfe6b5d6","getCurrentAuctionPrice()":"51c7115b","getNextPriceDropTime()":"512d5c61","getRarityTier(uint256)":"275b1efb","getRarityTierCount()":"0c4ad45b","getRemainingRaritySupply(uint256)":"d7af40e5","getRemainingSupply()":"e4b7fb73","getRemainingWhiteListMints(address)":"f90adccc","getRoleAdmin(bytes32)":"248a9ca3","getStakingDuration(uint256)":"250aeeb7","getTokenRarity(uint256)":"555ec78b","getTotalRarityProbability()":"a30c4055","getTotalStakedByUser(address)":"0951984d","getUserStakedTokens(address)":"ae1a01a2","getWhitelistMintedCount(address)":"694d9778","grantRole(bytes32,address)":"2f2ff15d","hasAuctionEnded()":"a0484dda","hasRole(bytes32,address)":"91d14854","hiddenMetaDataURI()":"bb9391a1","isApprovedForAll(address,address)":"e985e9c5","isRarityTierAvailable(uint256)":"521c46d8","isTokenStaked(uint256)":"f0a52424","isWhitelisted(address)":"3af32abf","maxSupply()":"d5abeb01","maxWhitelistMints()":"ff6e36ed","migrateToIPFS(string)":"cbc85d6f","mint(address)":"6a627842","name()":"06fdde03","owner()":"8da5cb5b","ownerMint(address,uint256)":"484b973c","ownerOf(uint256)":"6352211e","pauseContract()":"439766ce","paused()":"5c975abb","rarityNameToIndex(string)":"8cdb026d","rarityTiers(uint256)":"969ce9cf","recoverERC20(address,uint256)":"8980f11f","recoverERC721(address,uint256)":"819d4cc6","removeFromWhitelist(address[])":"548db174","renounceOwnership()":"715018a6","renounceRole(bytes32,address)":"36568abe","reveal()":"a475b5dd","revealed()":"51830227","revokeRole(bytes32,address)":"d547741f","royaltyInfo(uint256,uint256)":"2a55205a","safeTransferFrom(address,address,uint256)":"42842e0e","safeTransferFrom(address,address,uint256,bytes)":"b88d4fde","setApprovalForAll(address,bool)":"a22cb465","setAuctionParameters(uint256,uint256,uint256,uint256)":"e4dad1ee","setBaseURI(string)":"55f804b3","setContractURI(string)":"938e3d7b","setEmergencyStop(bool)":"c73d7c7b","setHiddenMetaDataURI(string)":"78bc0301","setMaxWhitelistMints(uint256)":"faf53169","setRoyaltyInfo(address,uint96)":"02fa7c47","setWhitelistPhase(bool)":"02bdd755","setWithdrawAddress(address)":"3ab1a494","stake(uint256)":"a694fc3a","stakedTokens(uint256)":"c0788555","stakingEnabled()":"1cfff51b","stakingStartTime(uint256)":"1c06adcd","startAuction(uint256,uint256,uint256,uint256)":"8d2c4488","supportsInterface(bytes4)":"01ffc9a7","symbol()":"95d89b41","toggleStaking()":"3b8105b3","tokenToRarity(uint256)":"3f244f04","tokenURI(uint256)":"c87b56dd","transferFrom(address,address,uint256)":"23b872dd","transferOwnership(address)":"f2fde38b","unpauseContract()":"b33712c5","unstake(uint256)":"2e17de78","updateRarityTier(uint256,string,uint256,uint256,string)":"8d63a272","updateTokenMetadata(uint256,string)":"2cb2f52e","userStakedTokens(address,uint256)":"061886cd","whitelist(address)":"9b19251a","whitelistMint(uint256)":"868ff4a2","whitelistMinted(address)":"98a8cffe","whitelistPhaseActive()":"d12f743a","withdraw()":"3ccfd60b","withdrawAddress()":"1581b600"}}}}}