{
  "_format": "hh-sol-artifact-1",
  "contractName": "NFTContract",
  "sourceName": "contracts/NFTContract.sol",
  "abi": [
    {
      "inputs": [
        {
          "internalType": "string",
          "name": "_name",
          "type": "string"
        },
        {
          "internalType": "string",
          "name": "_symbol",
          "type": "string"
        },
        {
          "internalType": "string",
          "name": "_baseURI",
          "type": "string"
        },
        {
          "internalType": "string",
          "name": "contractURI_",
          "type": "string"
        },
        {
          "internalType": "string",
          "name": "_hiddenMetaDataURI",
          "type": "string"
        },
        {
          "internalType": "address",
          "name": "royaltyRecipient_",
          "type": "address"
        },
        {
          "internalType": "address",
          "name": "withdrawAddress_",
          "type": "address"
        }
      ],
      "stateMutability": "nonpayable",
      "type": "constructor"
    },
    {
      "inputs": [],
      "name": "AlreadyRevealed",
      "type": "error"
    },
    {
      "inputs": [],
      "name": "AuctionNotActive",
      "type": "error"
    },
    {
      "inputs": [],
      "name": "ContractStopped",
      "type": "error"
    },
    {
      "inputs": [],
      "name": "EmptyArray",
      "type": "error"
    },
    {
      "inputs": [],
      "name": "ExceedWhitelistLimit",
      "type": "error"
    },
    {
      "inputs": [],
      "name": "ExceedsMaxSupply",
      "type": "error"
    },
    {
      "inputs": [],
      "name": "InsufficientPayment",
      "type": "error"
    },
    {
      "inputs": [],
      "name": "InvalidAddress",
      "type": "error"
    },
    {
      "inputs": [],
      "name": "InvalidIndex",
      "type": "error"
    },
    {
      "inputs": [],
      "name": "InvalidQuantity",
      "type": "error"
    },
    {
      "inputs": [],
      "name": "InvalidRarityTier",
      "type": "error"
    },
    {
      "inputs": [],
      "name": "InvalidTierIndex",
      "type": "error"
    },
    {
      "inputs": [],
      "name": "MaxSupplyReached",
      "type": "error"
    },
    {
      "inputs": [],
      "name": "MaxSupplyTooLow",
      "type": "error"
    },
    {
      "inputs": [],
      "name": "NoFunds",
      "type": "error"
    },
    {
      "inputs": [],
      "name": "NotRevealed",
      "type": "error"
    },
    {
      "inputs": [],
      "name": "NotTokenOwner",
      "type": "error"
    },
    {
      "inputs": [],
      "name": "NotWhitelisted",
      "type": "error"
    },
    {
      "inputs": [],
      "name": "RarityTierExhausted",
      "type": "error"
    },
    {
      "inputs": [],
      "name": "RoyaltyTooHigh",
      "type": "error"
    },
    {
      "inputs": [],
      "name": "StakingNotEnabled",
      "type": "error"
    },
    {
      "inputs": [],
      "name": "TokenAlreadyStaked",
      "type": "error"
    },
    {
      "inputs": [],
      "name": "TokenNotExist",
      "type": "error"
    },
    {
      "inputs": [],
      "name": "TokenNotStaked",
      "type": "error"
    },
    {
      "inputs": [],
      "name": "TooManyTokens",
      "type": "error"
    },
    {
      "inputs": [],
      "name": "TransferFailed",
      "type": "error"
    },
    {
      "inputs": [],
      "name": "WhitelistNotActive",
      "type": "error"
    },
    {
      "inputs": [],
      "name": "WithdrawFailed",
      "type": "error"
    },
    {
      "inputs": [],
      "name": "ZeroAddress",
      "type": "error"
    },
    {
      "anonymous": false,
      "inputs": [
        {
          "indexed": true,
          "internalType": "address",
          "name": "owner",
          "type": "address"
        },
        {
          "indexed": true,
          "internalType": "address",
          "name": "approved",
          "type": "address"
        },
        {
          "indexed": true,
          "internalType": "uint256",
          "name": "tokenId",
          "type": "uint256"
        }
      ],
      "name": "Approval",
      "type": "event"
    },
    {
      "anonymous": false,
      "inputs": [
        {
          "indexed": true,
          "internalType": "address",
          "name": "owner",
          "type": "address"
        },
        {
          "indexed": true,
          "internalType": "address",
          "name": "operator",
          "type": "address"
        },
        {
          "indexed": false,
          "internalType": "bool",
          "name": "approved",
          "type": "bool"
        }
      ],
      "name": "ApprovalForAll",
      "type": "event"
    },
    {
      "anonymous": false,
      "inputs": [],
      "name": "AuctionEnded",
      "type": "event"
    },
    {
      "anonymous": false,
      "inputs": [
        {
          "indexed": true,
          "internalType": "address",
          "name": "buyer",
          "type": "address"
        },
        {
          "indexed": false,
          "internalType": "uint256",
          "name": "quantity",
          "type": "uint256"
        },
        {
          "indexed": false,
          "internalType": "uint256",
          "name": "totalPrice",
          "type": "uint256"
        },
        {
          "indexed": false,
          "internalType": "uint256",
          "name": "pricePerToken",
          "type": "uint256"
        }
      ],
      "name": "AuctionMinted",
      "type": "event"
    },
    {
      "anonymous": false,
      "inputs": [
        {
          "indexed": false,
          "internalType": "uint256",
          "name": "startPrice",
          "type": "uint256"
        },
        {
          "indexed": false,
          "internalType": "uint256",
          "name": "endPrice",
          "type": "uint256"
        },
        {
          "indexed": false,
          "internalType": "uint256",
          "name": "duration",
          "type": "uint256"
        }
      ],
      "name": "AuctionPriceUpdated",
      "type": "event"
    },
    {
      "anonymous": false,
      "inputs": [
        {
          "indexed": false,
          "internalType": "uint256",
          "name": "startPrice",
          "type": "uint256"
        },
        {
          "indexed": false,
          "internalType": "uint256",
          "name": "endPrice",
          "type": "uint256"
        },
        {
          "indexed": false,
          "internalType": "uint256",
          "name": "duration",
          "type": "uint256"
        },
        {
          "indexed": false,
          "internalType": "uint256",
          "name": "startTime",
          "type": "uint256"
        }
      ],
      "name": "AuctionStarted",
      "type": "event"
    },
    {
      "anonymous": false,
      "inputs": [
        {
          "indexed": false,
          "internalType": "string",
          "name": "newBaseURI",
          "type": "string"
        }
      ],
      "name": "BaseURIUpdated",
      "type": "event"
    },
    {
      "anonymous": false,
      "inputs": [
        {
          "indexed": false,
          "internalType": "uint256",
          "name": "_fromTokenId",
          "type": "uint256"
        },
        {
          "indexed": false,
          "internalType": "uint256",
          "name": "_toTokenId",
          "type": "uint256"
        }
      ],
      "name": "BatchMetadataUpdate",
      "type": "event"
    },
    {
      "anonymous": false,
      "inputs": [
        {
          "indexed": true,
          "internalType": "address",
          "name": "to",
          "type": "address"
        },
        {
          "indexed": false,
          "internalType": "uint256",
          "name": "quantity",
          "type": "uint256"
        },
        {
          "indexed": false,
          "internalType": "uint256",
          "name": "startTokenId",
          "type": "uint256"
        }
      ],
      "name": "BatchMinted",
      "type": "event"
    },
    {
      "anonymous": false,
      "inputs": [
        {
          "indexed": false,
          "internalType": "string",
          "name": "newContractURI",
          "type": "string"
        }
      ],
      "name": "ContractURIUpdated",
      "type": "event"
    },
    {
      "anonymous": false,
      "inputs": [
        {
          "indexed": true,
          "internalType": "address",
          "name": "token",
          "type": "address"
        },
        {
          "indexed": true,
          "internalType": "address",
          "name": "recipient",
          "type": "address"
        },
        {
          "indexed": false,
          "internalType": "uint256",
          "name": "amount",
          "type": "uint256"
        }
      ],
      "name": "ERC20Recovered",
      "type": "event"
    },
    {
      "anonymous": false,
      "inputs": [
        {
          "indexed": false,
          "internalType": "bool",
          "name": "stopped",
          "type": "bool"
        }
      ],
      "name": "EmergencyStopToggled",
      "type": "event"
    },
    {
      "anonymous": false,
      "inputs": [
        {
          "indexed": true,
          "internalType": "address",
          "name": "recipient",
          "type": "address"
        },
        {
          "indexed": false,
          "internalType": "uint256",
          "name": "amount",
          "type": "uint256"
        }
      ],
      "name": "EmergencyWithdrawal",
      "type": "event"
    },
    {
      "anonymous": false,
      "inputs": [
        {
          "indexed": false,
          "internalType": "string",
          "name": "newHiddenMetaDataURI",
          "type": "string"
        }
      ],
      "name": "HiddenMetaDataURIUpdated",
      "type": "event"
    },
    {
      "anonymous": false,
      "inputs": [
        {
          "indexed": false,
          "internalType": "uint256",
          "name": "_tokenId",
          "type": "uint256"
        }
      ],
      "name": "MetadataUpdate",
      "type": "event"
    },
    {
      "anonymous": false,
      "inputs": [
        {
          "indexed": true,
          "internalType": "address",
          "name": "previousOwner",
          "type": "address"
        },
        {
          "indexed": true,
          "internalType": "address",
          "name": "newOwner",
          "type": "address"
        }
      ],
      "name": "OwnershipTransferred",
      "type": "event"
    },
    {
      "anonymous": false,
      "inputs": [
        {
          "indexed": false,
          "internalType": "address",
          "name": "account",
          "type": "address"
        }
      ],
      "name": "Paused",
      "type": "event"
    },
    {
      "anonymous": false,
      "inputs": [
        {
          "indexed": true,
          "internalType": "bytes32",
          "name": "role",
          "type": "bytes32"
        },
        {
          "indexed": true,
          "internalType": "bytes32",
          "name": "previousAdminRole",
          "type": "bytes32"
        },
        {
          "indexed": true,
          "internalType": "bytes32",
          "name": "newAdminRole",
          "type": "bytes32"
        }
      ],
      "name": "RoleAdminChanged",
      "type": "event"
    },
    {
      "anonymous": false,
      "inputs": [
        {
          "indexed": true,
          "internalType": "bytes32",
          "name": "role",
          "type": "bytes32"
        },
        {
          "indexed": true,
          "internalType": "address",
          "name": "account",
          "type": "address"
        },
        {
          "indexed": true,
          "internalType": "address",
          "name": "sender",
          "type": "address"
        }
      ],
      "name": "RoleGranted",
      "type": "event"
    },
    {
      "anonymous": false,
      "inputs": [
        {
          "indexed": true,
          "internalType": "bytes32",
          "name": "role",
          "type": "bytes32"
        },
        {
          "indexed": true,
          "internalType": "address",
          "name": "account",
          "type": "address"
        },
        {
          "indexed": true,
          "internalType": "address",
          "name": "sender",
          "type": "address"
        }
      ],
      "name": "RoleRevoked",
      "type": "event"
    },
    {
      "anonymous": false,
      "inputs": [
        {
          "indexed": false,
          "internalType": "address",
          "name": "recipient",
          "type": "address"
        },
        {
          "indexed": false,
          "internalType": "uint96",
          "name": "fee",
          "type": "uint96"
        }
      ],
      "name": "RoyaltyUpdated",
      "type": "event"
    },
    {
      "anonymous": false,
      "inputs": [
        {
          "indexed": false,
          "internalType": "bool",
          "name": "enabled",
          "type": "bool"
        }
      ],
      "name": "StakingToggled",
      "type": "event"
    },
    {
      "anonymous": false,
      "inputs": [
        {
          "indexed": true,
          "internalType": "uint256",
          "name": "tokenId",
          "type": "uint256"
        },
        {
          "indexed": false,
          "internalType": "string",
          "name": "newURI",
          "type": "string"
        }
      ],
      "name": "TokenMetaDataUpdated",
      "type": "event"
    },
    {
      "anonymous": false,
      "inputs": [
        {
          "indexed": true,
          "internalType": "address",
          "name": "to",
          "type": "address"
        },
        {
          "indexed": true,
          "internalType": "uint256",
          "name": "tokenId",
          "type": "uint256"
        },
        {
          "indexed": false,
          "internalType": "uint256",
          "name": "rarityTier",
          "type": "uint256"
        },
        {
          "indexed": false,
          "internalType": "string",
          "name": "rarityName",
          "type": "string"
        }
      ],
      "name": "TokenMinted",
      "type": "event"
    },
    {
      "anonymous": false,
      "inputs": [
        {
          "indexed": true,
          "internalType": "uint256",
          "name": "tokenId",
          "type": "uint256"
        },
        {
          "indexed": true,
          "internalType": "address",
          "name": "owner",
          "type": "address"
        }
      ],
      "name": "TokenStaked",
      "type": "event"
    },
    {
      "anonymous": false,
      "inputs": [
        {
          "indexed": true,
          "internalType": "uint256",
          "name": "tokenId",
          "type": "uint256"
        },
        {
          "indexed": true,
          "internalType": "address",
          "name": "owner",
          "type": "address"
        }
      ],
      "name": "TokenUnstaked",
      "type": "event"
    },
    {
      "anonymous": false,
      "inputs": [],
      "name": "TokensRevealed",
      "type": "event"
    },
    {
      "anonymous": false,
      "inputs": [
        {
          "indexed": true,
          "internalType": "address",
          "name": "from",
          "type": "address"
        },
        {
          "indexed": true,
          "internalType": "address",
          "name": "to",
          "type": "address"
        },
        {
          "indexed": true,
          "internalType": "uint256",
          "name": "tokenId",
          "type": "uint256"
        }
      ],
      "name": "Transfer",
      "type": "event"
    },
    {
      "anonymous": false,
      "inputs": [
        {
          "indexed": false,
          "internalType": "address",
          "name": "account",
          "type": "address"
        }
      ],
      "name": "Unpaused",
      "type": "event"
    },
    {
      "anonymous": false,
      "inputs": [
        {
          "indexed": true,
          "internalType": "address",
          "name": "to",
          "type": "address"
        },
        {
          "indexed": false,
          "internalType": "uint256",
          "name": "quantity",
          "type": "uint256"
        }
      ],
      "name": "WhitelistMinted",
      "type": "event"
    },
    {
      "anonymous": false,
      "inputs": [
        {
          "indexed": false,
          "internalType": "bool",
          "name": "active",
          "type": "bool"
        }
      ],
      "name": "WhitelistPhaseToggled",
      "type": "event"
    },
    {
      "anonymous": false,
      "inputs": [
        {
          "indexed": true,
          "internalType": "address",
          "name": "user",
          "type": "address"
        },
        {
          "indexed": false,
          "internalType": "bool",
          "name": "status",
          "type": "bool"
        }
      ],
      "name": "WhitelistUpdated",
      "type": "event"
    },
    {
      "anonymous": false,
      "inputs": [
        {
          "indexed": true,
          "internalType": "address",
          "name": "newAddress",
          "type": "address"
        }
      ],
      "name": "WithdrawAddressUpdated",
      "type": "event"
    },
    {
      "inputs": [],
      "name": "ADMIN_ROLE",
      "outputs": [
        {
          "internalType": "bytes32",
          "name": "",
          "type": "bytes32"
        }
      ],
      "stateMutability": "view",
      "type": "function"
    },
    {
      "inputs": [],
      "name": "DEFAULT_ADMIN_ROLE",
      "outputs": [
        {
          "internalType": "bytes32",
          "name": "",
          "type": "bytes32"
        }
      ],
      "stateMutability": "view",
      "type": "function"
    },
    {
      "inputs": [],
      "name": "MAX_MINT_PER_TX",
      "outputs": [
        {
          "internalType": "uint256",
          "name": "",
          "type": "uint256"
        }
      ],
      "stateMutability": "view",
      "type": "function"
    },
    {
      "inputs": [],
      "name": "MINTER_ROLE",
      "outputs": [
        {
          "internalType": "bytes32",
          "name": "",
          "type": "bytes32"
        }
      ],
      "stateMutability": "view",
      "type": "function"
    },
    {
      "inputs": [],
      "name": "STAKING_ROLE",
      "outputs": [
        {
          "internalType": "bytes32",
          "name": "",
          "type": "bytes32"
        }
      ],
      "stateMutability": "view",
      "type": "function"
    },
    {
      "inputs": [],
      "name": "_contractURI",
      "outputs": [
        {
          "internalType": "string",
          "name": "",
          "type": "string"
        }
      ],
      "stateMutability": "view",
      "type": "function"
    },
    {
      "inputs": [
        {
          "internalType": "address[]",
          "name": "addresses",
          "type": "address[]"
        }
      ],
      "name": "addToWhitelist",
      "outputs": [],
      "stateMutability": "nonpayable",
      "type": "function"
    },
    {
      "inputs": [
        {
          "internalType": "address",
          "name": "to",
          "type": "address"
        },
        {
          "internalType": "uint256",
          "name": "quantity",
          "type": "uint256"
        }
      ],
      "name": "adminMint",
      "outputs": [],
      "stateMutability": "nonpayable",
      "type": "function"
    },
    {
      "inputs": [
        {
          "internalType": "address",
          "name": "to",
          "type": "address"
        },
        {
          "internalType": "uint256",
          "name": "tokenId",
          "type": "uint256"
        }
      ],
      "name": "approve",
      "outputs": [],
      "stateMutability": "nonpayable",
      "type": "function"
    },
    {
      "inputs": [],
      "name": "auctionActive",
      "outputs": [
        {
          "internalType": "bool",
          "name": "",
          "type": "bool"
        }
      ],
      "stateMutability": "view",
      "type": "function"
    },
    {
      "inputs": [],
      "name": "auctionDuration",
      "outputs": [
        {
          "internalType": "uint256",
          "name": "",
          "type": "uint256"
        }
      ],
      "stateMutability": "view",
      "type": "function"
    },
    {
      "inputs": [],
      "name": "auctionEndPrice",
      "outputs": [
        {
          "internalType": "uint256",
          "name": "",
          "type": "uint256"
        }
      ],
      "stateMutability": "view",
      "type": "function"
    },
    {
      "inputs": [
        {
          "internalType": "uint256",
          "name": "quantity",
          "type": "uint256"
        }
      ],
      "name": "auctionMint",
      "outputs": [],
      "stateMutability": "payable",
      "type": "function"
    },
    {
      "inputs": [],
      "name": "auctionPriceDropInterval",
      "outputs": [
        {
          "internalType": "uint256",
          "name": "",
          "type": "uint256"
        }
      ],
      "stateMutability": "view",
      "type": "function"
    },
    {
      "inputs": [],
      "name": "auctionStartPrice",
      "outputs": [
        {
          "internalType": "uint256",
          "name": "",
          "type": "uint256"
        }
      ],
      "stateMutability": "view",
      "type": "function"
    },
    {
      "inputs": [],
      "name": "auctionStartTime",
      "outputs": [
        {
          "internalType": "uint256",
          "name": "",
          "type": "uint256"
        }
      ],
      "stateMutability": "view",
      "type": "function"
    },
    {
      "inputs": [
        {
          "internalType": "address",
          "name": "owner",
          "type": "address"
        }
      ],
      "name": "balanceOf",
      "outputs": [
        {
          "internalType": "uint256",
          "name": "",
          "type": "uint256"
        }
      ],
      "stateMutability": "view",
      "type": "function"
    },
    {
      "inputs": [],
      "name": "baseURI",
      "outputs": [
        {
          "internalType": "string",
          "name": "",
          "type": "string"
        }
      ],
      "stateMutability": "view",
      "type": "function"
    },
    {
      "inputs": [
        {
          "internalType": "address",
          "name": "to",
          "type": "address"
        },
        {
          "internalType": "uint256",
          "name": "quantity",
          "type": "uint256"
        }
      ],
      "name": "batchMint",
      "outputs": [],
      "stateMutability": "nonpayable",
      "type": "function"
    },
    {
      "inputs": [
        {
          "internalType": "uint256[]",
          "name": "tokenIdList",
          "type": "uint256[]"
        }
      ],
      "name": "batchStake",
      "outputs": [],
      "stateMutability": "nonpayable",
      "type": "function"
    },
    {
      "inputs": [
        {
          "internalType": "uint256[]",
          "name": "tokenIdList",
          "type": "uint256[]"
        }
      ],
      "name": "batchUnstake",
      "outputs": [],
      "stateMutability": "nonpayable",
      "type": "function"
    },
    {
      "inputs": [],
      "name": "contractURI",
      "outputs": [
        {
          "internalType": "string",
          "name": "",
          "type": "string"
        }
      ],
      "stateMutability": "view",
      "type": "function"
    },
    {
      "inputs": [],
      "name": "currentSupply",
      "outputs": [
        {
          "internalType": "uint256",
          "name": "",
          "type": "uint256"
        }
      ],
      "stateMutability": "view",
      "type": "function"
    },
    {
      "inputs": [],
      "name": "emergencyStop",
      "outputs": [
        {
          "internalType": "bool",
          "name": "",
          "type": "bool"
        }
      ],
      "stateMutability": "view",
      "type": "function"
    },
    {
      "inputs": [],
      "name": "emergencyWithdraw",
      "outputs": [],
      "stateMutability": "nonpayable",
      "type": "function"
    },
    {
      "inputs": [],
      "name": "endAuction",
      "outputs": [],
      "stateMutability": "nonpayable",
      "type": "function"
    },
    {
      "inputs": [],
      "name": "getAllRarityTiers",
      "outputs": [
        {
          "components": [
            {
              "internalType": "string",
              "name": "name",
              "type": "string"
            },
            {
              "internalType": "uint256",
              "name": "probability",
              "type": "uint256"
            },
            {
              "internalType": "uint256",
              "name": "maxSupply",
              "type": "uint256"
            },
            {
              "internalType": "uint256",
              "name": "currentSupply",
              "type": "uint256"
            },
            {
              "internalType": "string",
              "name": "specialAttribute",
              "type": "string"
            }
          ],
          "internalType": "struct NFTContract.RarityTier[]",
          "name": "",
          "type": "tuple[]"
        }
      ],
      "stateMutability": "view",
      "type": "function"
    },
    {
      "inputs": [
        {
          "internalType": "uint256",
          "name": "tokenId",
          "type": "uint256"
        }
      ],
      "name": "getApproved",
      "outputs": [
        {
          "internalType": "address",
          "name": "",
          "type": "address"
        }
      ],
      "stateMutability": "view",
      "type": "function"
    },
    {
      "inputs": [],
      "name": "getAuctionStatus",
      "outputs": [
        {
          "internalType": "bool",
          "name": "isActive",
          "type": "bool"
        },
        {
          "internalType": "uint256",
          "name": "currentPrice",
          "type": "uint256"
        },
        {
          "internalType": "uint256",
          "name": "timeRemaining",
          "type": "uint256"
        }
      ],
      "stateMutability": "view",
      "type": "function"
    },
    {
      "inputs": [],
      "name": "getContractStats",
      "outputs": [
        {
          "internalType": "uint256",
          "name": "totalSupply",
          "type": "uint256"
        },
        {
          "internalType": "uint256",
          "name": "remainingSupply",
          "type": "uint256"
        },
        {
          "internalType": "uint256",
          "name": "totalRarityTiers",
          "type": "uint256"
        },
        {
          "internalType": "bool",
          "name": "isRevealed",
          "type": "bool"
        },
        {
          "internalType": "bool",
          "name": "isStakingEnabled",
          "type": "bool"
        },
        {
          "internalType": "bool",
          "name": "isWhitelistPhaseActive",
          "type": "bool"
        },
        {
          "internalType": "bool",
          "name": "isAuctionActive",
          "type": "bool"
        }
      ],
      "stateMutability": "view",
      "type": "function"
    },
    {
      "inputs": [],
      "name": "getCurrentAuctionPrice",
      "outputs": [
        {
          "internalType": "uint256",
          "name": "",
          "type": "uint256"
        }
      ],
      "stateMutability": "view",
      "type": "function"
    },
    {
      "inputs": [],
      "name": "getNextPriceDropTime",
      "outputs": [
        {
          "internalType": "uint256",
          "name": "",
          "type": "uint256"
        }
      ],
      "stateMutability": "view",
      "type": "function"
    },
    {
      "inputs": [
        {
          "internalType": "uint256",
          "name": "index",
          "type": "uint256"
        }
      ],
      "name": "getRarityTier",
      "outputs": [
        {
          "components": [
            {
              "internalType": "string",
              "name": "name",
              "type": "string"
            },
            {
              "internalType": "uint256",
              "name": "probability",
              "type": "uint256"
            },
            {
              "internalType": "uint256",
              "name": "maxSupply",
              "type": "uint256"
            },
            {
              "internalType": "uint256",
              "name": "currentSupply",
              "type": "uint256"
            },
            {
              "internalType": "string",
              "name": "specialAttribute",
              "type": "string"
            }
          ],
          "internalType": "struct NFTContract.RarityTier",
          "name": "",
          "type": "tuple"
        }
      ],
      "stateMutability": "view",
      "type": "function"
    },
    {
      "inputs": [],
      "name": "getRarityTierCount",
      "outputs": [
        {
          "internalType": "uint256",
          "name": "",
          "type": "uint256"
        }
      ],
      "stateMutability": "view",
      "type": "function"
    },
    {
      "inputs": [
        {
          "internalType": "uint256",
          "name": "rarityTierIndex",
          "type": "uint256"
        }
      ],
      "name": "getRemainingRaritySupply",
      "outputs": [
        {
          "internalType": "uint256",
          "name": "",
          "type": "uint256"
        }
      ],
      "stateMutability": "view",
      "type": "function"
    },
    {
      "inputs": [],
      "name": "getRemainingSupply",
      "outputs": [
        {
          "internalType": "uint256",
          "name": "",
          "type": "uint256"
        }
      ],
      "stateMutability": "view",
      "type": "function"
    },
    {
      "inputs": [
        {
          "internalType": "address",
          "name": "user",
          "type": "address"
        }
      ],
      "name": "getRemainingWhiteListMints",
      "outputs": [
        {
          "internalType": "uint256",
          "name": "",
          "type": "uint256"
        }
      ],
      "stateMutability": "view",
      "type": "function"
    },
    {
      "inputs": [
        {
          "internalType": "bytes32",
          "name": "role",
          "type": "bytes32"
        }
      ],
      "name": "getRoleAdmin",
      "outputs": [
        {
          "internalType": "bytes32",
          "name": "",
          "type": "bytes32"
        }
      ],
      "stateMutability": "view",
      "type": "function"
    },
    {
      "inputs": [
        {
          "internalType": "uint256",
          "name": "tokenId",
          "type": "uint256"
        }
      ],
      "name": "getStakingDuration",
      "outputs": [
        {
          "internalType": "uint256",
          "name": "",
          "type": "uint256"
        }
      ],
      "stateMutability": "view",
      "type": "function"
    },
    {
      "inputs": [
        {
          "internalType": "uint256",
          "name": "tokenId",
          "type": "uint256"
        }
      ],
      "name": "getTokenRarity",
      "outputs": [
        {
          "components": [
            {
              "internalType": "string",
              "name": "name",
              "type": "string"
            },
            {
              "internalType": "uint256",
              "name": "probability",
              "type": "uint256"
            },
            {
              "internalType": "uint256",
              "name": "maxSupply",
              "type": "uint256"
            },
            {
              "internalType": "uint256",
              "name": "currentSupply",
              "type": "uint256"
            },
            {
              "internalType": "string",
              "name": "specialAttribute",
              "type": "string"
            }
          ],
          "internalType": "struct NFTContract.RarityTier",
          "name": "",
          "type": "tuple"
        }
      ],
      "stateMutability": "view",
      "type": "function"
    },
    {
      "inputs": [],
      "name": "getTotalRarityProbability",
      "outputs": [
        {
          "internalType": "uint256",
          "name": "",
          "type": "uint256"
        }
      ],
      "stateMutability": "view",
      "type": "function"
    },
    {
      "inputs": [
        {
          "internalType": "address",
          "name": "user",
          "type": "address"
        }
      ],
      "name": "getTotalStakedByUser",
      "outputs": [
        {
          "internalType": "uint256",
          "name": "",
          "type": "uint256"
        }
      ],
      "stateMutability": "view",
      "type": "function"
    },
    {
      "inputs": [
        {
          "internalType": "address",
          "name": "user",
          "type": "address"
        }
      ],
      "name": "getUserStakedTokens",
      "outputs": [
        {
          "internalType": "uint256[]",
          "name": "",
          "type": "uint256[]"
        }
      ],
      "stateMutability": "view",
      "type": "function"
    },
    {
      "inputs": [
        {
          "internalType": "address",
          "name": "user",
          "type": "address"
        }
      ],
      "name": "getWhitelistMintedCount",
      "outputs": [
        {
          "internalType": "uint256",
          "name": "",
          "type": "uint256"
        }
      ],
      "stateMutability": "view",
      "type": "function"
    },
    {
      "inputs": [
        {
          "internalType": "bytes32",
          "name": "role",
          "type": "bytes32"
        },
        {
          "internalType": "address",
          "name": "account",
          "type": "address"
        }
      ],
      "name": "grantRole",
      "outputs": [],
      "stateMutability": "nonpayable",
      "type": "function"
    },
    {
      "inputs": [],
      "name": "hasAuctionEnded",
      "outputs": [
        {
          "internalType": "bool",
          "name": "",
          "type": "bool"
        }
      ],
      "stateMutability": "view",
      "type": "function"
    },
    {
      "inputs": [
        {
          "internalType": "bytes32",
          "name": "role",
          "type": "bytes32"
        },
        {
          "internalType": "address",
          "name": "account",
          "type": "address"
        }
      ],
      "name": "hasRole",
      "outputs": [
        {
          "internalType": "bool",
          "name": "",
          "type": "bool"
        }
      ],
      "stateMutability": "view",
      "type": "function"
    },
    {
      "inputs": [],
      "name": "hiddenMetaDataURI",
      "outputs": [
        {
          "internalType": "string",
          "name": "",
          "type": "string"
        }
      ],
      "stateMutability": "view",
      "type": "function"
    },
    {
      "inputs": [
        {
          "internalType": "address",
          "name": "owner",
          "type": "address"
        },
        {
          "internalType": "address",
          "name": "operator",
          "type": "address"
        }
      ],
      "name": "isApprovedForAll",
      "outputs": [
        {
          "internalType": "bool",
          "name": "",
          "type": "bool"
        }
      ],
      "stateMutability": "view",
      "type": "function"
    },
    {
      "inputs": [
        {
          "internalType": "uint256",
          "name": "rarityTierIndex",
          "type": "uint256"
        }
      ],
      "name": "isRarityTierAvailable",
      "outputs": [
        {
          "internalType": "bool",
          "name": "",
          "type": "bool"
        }
      ],
      "stateMutability": "view",
      "type": "function"
    },
    {
      "inputs": [
        {
          "internalType": "uint256",
          "name": "tokenId",
          "type": "uint256"
        }
      ],
      "name": "isTokenStaked",
      "outputs": [
        {
          "internalType": "bool",
          "name": "",
          "type": "bool"
        }
      ],
      "stateMutability": "view",
      "type": "function"
    },
    {
      "inputs": [
        {
          "internalType": "address",
          "name": "user",
          "type": "address"
        }
      ],
      "name": "isWhitelisted",
      "outputs": [
        {
          "internalType": "bool",
          "name": "",
          "type": "bool"
        }
      ],
      "stateMutability": "view",
      "type": "function"
    },
    {
      "inputs": [],
      "name": "maxSupply",
      "outputs": [
        {
          "internalType": "uint256",
          "name": "",
          "type": "uint256"
        }
      ],
      "stateMutability": "view",
      "type": "function"
    },
    {
      "inputs": [],
      "name": "maxWhitelistMints",
      "outputs": [
        {
          "internalType": "uint256",
          "name": "",
          "type": "uint256"
        }
      ],
      "stateMutability": "view",
      "type": "function"
    },
    {
      "inputs": [
        {
          "internalType": "string",
          "name": "newIPFSBaseURI",
          "type": "string"
        }
      ],
      "name": "migrateToIPFS",
      "outputs": [],
      "stateMutability": "nonpayable",
      "type": "function"
    },
    {
      "inputs": [
        {
          "internalType": "address",
          "name": "to",
          "type": "address"
        }
      ],
      "name": "mint",
      "outputs": [],
      "stateMutability": "nonpayable",
      "type": "function"
    },
    {
      "inputs": [],
      "name": "name",
      "outputs": [
        {
          "internalType": "string",
          "name": "",
          "type": "string"
        }
      ],
      "stateMutability": "view",
      "type": "function"
    },
    {
      "inputs": [],
      "name": "owner",
      "outputs": [
        {
          "internalType": "address",
          "name": "",
          "type": "address"
        }
      ],
      "stateMutability": "view",
      "type": "function"
    },
    {
      "inputs": [
        {
          "internalType": "address",
          "name": "to",
          "type": "address"
        },
        {
          "internalType": "uint256",
          "name": "rarityTierIndex",
          "type": "uint256"
        }
      ],
      "name": "ownerMint",
      "outputs": [],
      "stateMutability": "nonpayable",
      "type": "function"
    },
    {
      "inputs": [
        {
          "internalType": "uint256",
          "name": "tokenId",
          "type": "uint256"
        }
      ],
      "name": "ownerOf",
      "outputs": [
        {
          "internalType": "address",
          "name": "",
          "type": "address"
        }
      ],
      "stateMutability": "view",
      "type": "function"
    },
    {
      "inputs": [],
      "name": "pauseContract",
      "outputs": [],
      "stateMutability": "nonpayable",
      "type": "function"
    },
    {
      "inputs": [],
      "name": "paused",
      "outputs": [
        {
          "internalType": "bool",
          "name": "",
          "type": "bool"
        }
      ],
      "stateMutability": "view",
      "type": "function"
    },
    {
      "inputs": [
        {
          "internalType": "string",
          "name": "",
          "type": "string"
        }
      ],
      "name": "rarityNameToIndex",
      "outputs": [
        {
          "internalType": "uint256",
          "name": "",
          "type": "uint256"
        }
      ],
      "stateMutability": "view",
      "type": "function"
    },
    {
      "inputs": [
        {
          "internalType": "uint256",
          "name": "",
          "type": "uint256"
        }
      ],
      "name": "rarityTiers",
      "outputs": [
        {
          "internalType": "string",
          "name": "name",
          "type": "string"
        },
        {
          "internalType": "uint256",
          "name": "probability",
          "type": "uint256"
        },
        {
          "internalType": "uint256",
          "name": "maxSupply",
          "type": "uint256"
        },
        {
          "internalType": "uint256",
          "name": "currentSupply",
          "type": "uint256"
        },
        {
          "internalType": "string",
          "name": "specialAttribute",
          "type": "string"
        }
      ],
      "stateMutability": "view",
      "type": "function"
    },
    {
      "inputs": [
        {
          "internalType": "address",
          "name": "token",
          "type": "address"
        },
        {
          "internalType": "uint256",
          "name": "amount",
          "type": "uint256"
        }
      ],
      "name": "recoverERC20",
      "outputs": [],
      "stateMutability": "nonpayable",
      "type": "function"
    },
    {
      "inputs": [
        {
          "internalType": "address",
          "name": "token",
          "type": "address"
        },
        {
          "internalType": "uint256",
          "name": "tokenId",
          "type": "uint256"
        }
      ],
      "name": "recoverERC721",
      "outputs": [],
      "stateMutability": "nonpayable",
      "type": "function"
    },
    {
      "inputs": [
        {
          "internalType": "address[]",
          "name": "addresses",
          "type": "address[]"
        }
      ],
      "name": "removeFromWhitelist",
      "outputs": [],
      "stateMutability": "nonpayable",
      "type": "function"
    },
    {
      "inputs": [],
      "name": "renounceOwnership",
      "outputs": [],
      "stateMutability": "nonpayable",
      "type": "function"
    },
    {
      "inputs": [
        {
          "internalType": "bytes32",
          "name": "role",
          "type": "bytes32"
        },
        {
          "internalType": "address",
          "name": "account",
          "type": "address"
        }
      ],
      "name": "renounceRole",
      "outputs": [],
      "stateMutability": "nonpayable",
      "type": "function"
    },
    {
      "inputs": [],
      "name": "reveal",
      "outputs": [],
      "stateMutability": "nonpayable",
      "type": "function"
    },
    {
      "inputs": [],
      "name": "revealed",
      "outputs": [
        {
          "internalType": "bool",
          "name": "",
          "type": "bool"
        }
      ],
      "stateMutability": "view",
      "type": "function"
    },
    {
      "inputs": [
        {
          "internalType": "bytes32",
          "name": "role",
          "type": "bytes32"
        },
        {
          "internalType": "address",
          "name": "account",
          "type": "address"
        }
      ],
      "name": "revokeRole",
      "outputs": [],
      "stateMutability": "nonpayable",
      "type": "function"
    },
    {
      "inputs": [
        {
          "internalType": "uint256",
          "name": "",
          "type": "uint256"
        },
        {
          "internalType": "uint256",
          "name": "salePrice",
          "type": "uint256"
        }
      ],
      "name": "royaltyInfo",
      "outputs": [
        {
          "internalType": "address",
          "name": "",
          "type": "address"
        },
        {
          "internalType": "uint256",
          "name": "",
          "type": "uint256"
        }
      ],
      "stateMutability": "view",
      "type": "function"
    },
    {
      "inputs": [
        {
          "internalType": "address",
          "name": "from",
          "type": "address"
        },
        {
          "internalType": "address",
          "name": "to",
          "type": "address"
        },
        {
          "internalType": "uint256",
          "name": "tokenId",
          "type": "uint256"
        }
      ],
      "name": "safeTransferFrom",
      "outputs": [],
      "stateMutability": "nonpayable",
      "type": "function"
    },
    {
      "inputs": [
        {
          "internalType": "address",
          "name": "from",
          "type": "address"
        },
        {
          "internalType": "address",
          "name": "to",
          "type": "address"
        },
        {
          "internalType": "uint256",
          "name": "tokenId",
          "type": "uint256"
        },
        {
          "internalType": "bytes",
          "name": "data",
          "type": "bytes"
        }
      ],
      "name": "safeTransferFrom",
      "outputs": [],
      "stateMutability": "nonpayable",
      "type": "function"
    },
    {
      "inputs": [
        {
          "internalType": "address",
          "name": "operator",
          "type": "address"
        },
        {
          "internalType": "bool",
          "name": "approved",
          "type": "bool"
        }
      ],
      "name": "setApprovalForAll",
      "outputs": [],
      "stateMutability": "nonpayable",
      "type": "function"
    },
    {
      "inputs": [
        {
          "internalType": "uint256",
          "name": "startPrice",
          "type": "uint256"
        },
        {
          "internalType": "uint256",
          "name": "endPrice",
          "type": "uint256"
        },
        {
          "internalType": "uint256",
          "name": "duration",
          "type": "uint256"
        },
        {
          "internalType": "uint256",
          "name": "priceDropInterval",
          "type": "uint256"
        }
      ],
      "name": "setAuctionParameters",
      "outputs": [],
      "stateMutability": "nonpayable",
      "type": "function"
    },
    {
      "inputs": [
        {
          "internalType": "string",
          "name": "newBaseURI",
          "type": "string"
        }
      ],
      "name": "setBaseURI",
      "outputs": [],
      "stateMutability": "nonpayable",
      "type": "function"
    },
    {
      "inputs": [
        {
          "internalType": "string",
          "name": "newContractURI",
          "type": "string"
        }
      ],
      "name": "setContractURI",
      "outputs": [],
      "stateMutability": "nonpayable",
      "type": "function"
    },
    {
      "inputs": [
        {
          "internalType": "bool",
          "name": "stopped",
          "type": "bool"
        }
      ],
      "name": "setEmergencyStop",
      "outputs": [],
      "stateMutability": "nonpayable",
      "type": "function"
    },
    {
      "inputs": [
        {
          "internalType": "string",
          "name": "newHiddenMetaDataURI",
          "type": "string"
        }
      ],
      "name": "setHiddenMetaDataURI",
      "outputs": [],
      "stateMutability": "nonpayable",
      "type": "function"
    },
    {
      "inputs": [
        {
          "internalType": "uint256",
          "name": "maxMints",
          "type": "uint256"
        }
      ],
      "name": "setMaxWhitelistMints",
      "outputs": [],
      "stateMutability": "nonpayable",
      "type": "function"
    },
    {
      "inputs": [
        {
          "internalType": "address",
          "name": "recipient",
          "type": "address"
        },
        {
          "internalType": "uint96",
          "name": "fee",
          "type": "uint96"
        }
      ],
      "name": "setRoyaltyInfo",
      "outputs": [],
      "stateMutability": "nonpayable",
      "type": "function"
    },
    {
      "inputs": [
        {
          "internalType": "bool",
          "name": "active",
          "type": "bool"
        }
      ],
      "name": "setWhitelistPhase",
      "outputs": [],
      "stateMutability": "nonpayable",
      "type": "function"
    },
    {
      "inputs": [
        {
          "internalType": "address",
          "name": "newAddress",
          "type": "address"
        }
      ],
      "name": "setWithdrawAddress",
      "outputs": [],
      "stateMutability": "nonpayable",
      "type": "function"
    },
    {
      "inputs": [
        {
          "internalType": "uint256",
          "name": "tokenId",
          "type": "uint256"
        }
      ],
      "name": "stake",
      "outputs": [],
      "stateMutability": "nonpayable",
      "type": "function"
    },
    {
      "inputs": [
        {
          "internalType": "uint256",
          "name": "",
          "type": "uint256"
        }
      ],
      "name": "stakedTokens",
      "outputs": [
        {
          "internalType": "bool",
          "name": "",
          "type": "bool"
        }
      ],
      "stateMutability": "view",
      "type": "function"
    },
    {
      "inputs": [],
      "name": "stakingEnabled",
      "outputs": [
        {
          "internalType": "bool",
          "name": "",
          "type": "bool"
        }
      ],
      "stateMutability": "view",
      "type": "function"
    },
    {
      "inputs": [
        {
          "internalType": "uint256",
          "name": "",
          "type": "uint256"
        }
      ],
      "name": "stakingStartTime",
      "outputs": [
        {
          "internalType": "uint256",
          "name": "",
          "type": "uint256"
        }
      ],
      "stateMutability": "view",
      "type": "function"
    },
    {
      "inputs": [
        {
          "internalType": "uint256",
          "name": "startPrice",
          "type": "uint256"
        },
        {
          "internalType": "uint256",
          "name": "endPrice",
          "type": "uint256"
        },
        {
          "internalType": "uint256",
          "name": "duration",
          "type": "uint256"
        },
        {
          "internalType": "uint256",
          "name": "priceDropInterval",
          "type": "uint256"
        }
      ],
      "name": "startAuction",
      "outputs": [],
      "stateMutability": "nonpayable",
      "type": "function"
    },
    {
      "inputs": [
        {
          "internalType": "bytes4",
          "name": "interfaceId",
          "type": "bytes4"
        }
      ],
      "name": "supportsInterface",
      "outputs": [
        {
          "internalType": "bool",
          "name": "",
          "type": "bool"
        }
      ],
      "stateMutability": "view",
      "type": "function"
    },
    {
      "inputs": [],
      "name": "symbol",
      "outputs": [
        {
          "internalType": "string",
          "name": "",
          "type": "string"
        }
      ],
      "stateMutability": "view",
      "type": "function"
    },
    {
      "inputs": [],
      "name": "toggleStaking",
      "outputs": [],
      "stateMutability": "nonpayable",
      "type": "function"
    },
    {
      "inputs": [
        {
          "internalType": "uint256",
          "name": "",
          "type": "uint256"
        }
      ],
      "name": "tokenToRarity",
      "outputs": [
        {
          "internalType": "uint256",
          "name": "",
          "type": "uint256"
        }
      ],
      "stateMutability": "view",
      "type": "function"
    },
    {
      "inputs": [
        {
          "internalType": "uint256",
          "name": "tokenId",
          "type": "uint256"
        }
      ],
      "name": "tokenURI",
      "outputs": [
        {
          "internalType": "string",
          "name": "",
          "type": "string"
        }
      ],
      "stateMutability": "view",
      "type": "function"
    },
    {
      "inputs": [
        {
          "internalType": "address",
          "name": "from",
          "type": "address"
        },
        {
          "internalType": "address",
          "name": "to",
          "type": "address"
        },
        {
          "internalType": "uint256",
          "name": "tokenId",
          "type": "uint256"
        }
      ],
      "name": "transferFrom",
      "outputs": [],
      "stateMutability": "nonpayable",
      "type": "function"
    },
    {
      "inputs": [
        {
          "internalType": "address",
          "name": "newOwner",
          "type": "address"
        }
      ],
      "name": "transferOwnership",
      "outputs": [],
      "stateMutability": "nonpayable",
      "type": "function"
    },
    {
      "inputs": [],
      "name": "unpauseContract",
      "outputs": [],
      "stateMutability": "nonpayable",
      "type": "function"
    },
    {
      "inputs": [
        {
          "internalType": "uint256",
          "name": "tokenId",
          "type": "uint256"
        }
      ],
      "name": "unstake",
      "outputs": [],
      "stateMutability": "nonpayable",
      "type": "function"
    },
    {
      "inputs": [
        {
          "internalType": "uint256",
          "name": "tierIndex",
          "type": "uint256"
        },
        {
          "internalType": "string",
          "name": "name",
          "type": "string"
        },
        {
          "internalType": "uint256",
          "name": "probability",
          "type": "uint256"
        },
        {
          "internalType": "uint256",
          "name": "maxSupplyTier",
          "type": "uint256"
        },
        {
          "internalType": "string",
          "name": "specialAttribute",
          "type": "string"
        }
      ],
      "name": "updateRarityTier",
      "outputs": [],
      "stateMutability": "nonpayable",
      "type": "function"
    },
    {
      "inputs": [
        {
          "internalType": "uint256",
          "name": "tokenId",
          "type": "uint256"
        },
        {
          "internalType": "string",
          "name": "newURI",
          "type": "string"
        }
      ],
      "name": "updateTokenMetadata",
      "outputs": [],
      "stateMutability": "nonpayable",
      "type": "function"
    },
    {
      "inputs": [
        {
          "internalType": "address",
          "name": "",
          "type": "address"
        },
        {
          "internalType": "uint256",
          "name": "",
          "type": "uint256"
        }
      ],
      "name": "userStakedTokens",
      "outputs": [
        {
          "internalType": "uint256",
          "name": "",
          "type": "uint256"
        }
      ],
      "stateMutability": "view",
      "type": "function"
    },
    {
      "inputs": [
        {
          "internalType": "address",
          "name": "",
          "type": "address"
        }
      ],
      "name": "whitelist",
      "outputs": [
        {
          "internalType": "bool",
          "name": "",
          "type": "bool"
        }
      ],
      "stateMutability": "view",
      "type": "function"
    },
    {
      "inputs": [
        {
          "internalType": "uint256",
          "name": "quantity",
          "type": "uint256"
        }
      ],
      "name": "whitelistMint",
      "outputs": [],
      "stateMutability": "nonpayable",
      "type": "function"
    },
    {
      "inputs": [
        {
          "internalType": "address",
          "name": "",
          "type": "address"
        }
      ],
      "name": "whitelistMinted",
      "outputs": [
        {
          "internalType": "uint256",
          "name": "",
          "type": "uint256"
        }
      ],
      "stateMutability": "view",
      "type": "function"
    },
    {
      "inputs": [],
      "name": "whitelistPhaseActive",
      "outputs": [
        {
          "internalType": "bool",
          "name": "",
          "type": "bool"
        }
      ],
      "stateMutability": "view",
      "type": "function"
    },
    {
      "inputs": [],
      "name": "withdraw",
      "outputs": [],
      "stateMutability": "nonpayable",
      "type": "function"
    },
    {
      "inputs": [],
      "name": "withdrawAddress",
      "outputs": [
        {
          "internalType": "address",
          "name": "",
          "type": "address"
        }
      ],
      "stateMutability": "view",
      "type": "function"
    }
  ],
  "bytecode": "0x60808060405234620013cc5762007117803803809162000020828562001409565b833981019060e081830312620013cc5780516001600160401b038111620013cc57826200004f9183016200142d565b60208201516001600160401b038111620013cc5783620000719184016200142d565b60408301519092906001600160401b038111620013cc5784620000969183016200142d565b60608201516001600160401b038111620013cc5785620000b89184016200142d565b608083015190956001600160401b038211620013cc57620000db9184016200142d565b93620000f860c0620000f060a08601620014a4565b9401620014a4565b845190946001600160401b03821162000b1a5760005490600182811c92168015620013c1575b602083101462000c105781601f84931162001361575b50602090601f8311600114620012e557600092620012d9575b50508160011b916000199060031b1c1916176000555b8051906001600160401b03821162000b1a5760015490600182811c92168015620012ce575b602083101462000c105781601f8493116200126a575b50602090601f8311600114620011ec57600092620011e0575b50508160011b916000199060031b1c1916176001555b60078054336001600160a01b0319821681179092556040516001600160a01b0392909183167f8be0079c531659141344cd1fd0a4f28419497f9722a3daafe3b4186f6b6457e0600080a360016008556009805460ff191690556003601755670de0b6b3a764000060195567016345785d8a0000601a55610e10601c5561012c601d55601f80546001600160601b0319166102ee17905583821615620011d15750831615620011bf578051906001600160401b03821162000b1a57600d5490600182811c92168015620011b4575b602083101462000c105781601f84931162001153575b50602090601f8311600114620010d557600092620010c9575b50508160011b916000199060031b1c191617600d555b83516001600160401b03811162000b1a57600e54600181811c91168015620010be575b602082101462000c1057601f811162001058575b506020601f821160011462000fe857819293949560009262000fdc575b50508160011b916000199060031b1c191617600e555b82516001600160401b03811162000b1a57601054600181811c9116801562000fd1575b602082101462000c1057601f811162000f6b575b506020601f821160011462000efc578192939460009262000ef0575b50508160011b916000199060031b1c1916176010555b601e8054610100600160a81b03191660089290921b610100600160a81b03169190911790556023805462010000600160b01b03191660109290921b62010000600160b01b0316919091179055600b805460010190556040516200041581620013d1565b6040516200042381620013ed565b600681526521b7b6b6b7b760d11b6020820152815261177060208201526102586040820152600060608201526040516200045d81620013ed565b600881526714dd185b99185c9960c21b602082015260808201526011546801000000000000000081101562000b1a57600181018060115581101562000d1257601160005281518051909260008051602062007097833981519152916001600160401b03811162000b1a5760058402830154600181811c9116801562000ee5575b602082101462000c1057601f811162000e97575b506020601f821160011462000e1b578190608094959660009262000e0f575b50508160011b916000199060031b1c191617600585028401555b6020810151600585028401600181019190915560408201516002820155606082015160039091015501518051906001600160401b03821162000b1a5760046005850284010154600181811c9116801562000e04575b602082101462000c1057601f811162000db3575b50602090601f831160011462000d345791806005926004959460009262000d28575b50508160011b916000199060031b1c19161793020101555b600060266040516521b7b6b6b7b760d11b815260136006820152205560016024604051620005fb81620013d1565b62000667604051916200060e83620013ed565b60048352635261726560e01b9283602082015281526109c4602082015260fa6040820152600060608201526040516200064781620013ed565b6008815267115b9a185b98d95960c21b60208201526080820152620014b9565b604051908152601360048201522055600260246040516200068881620013d1565b620006db604051916200069b83620013ed565b60048352634570696360e01b9283602082015281526104b060208201526078604082015260006060820152620006d0620017cb565b6080820152620014b9565b604051908152601360048201522055604051620006f881620013d1565b62000702620017cb565b815261012c6020820152601e6040820152600060608201526040516200072881620013ed565b6008815267135e5d1a1a58d85b60c21b602082015260808201526011546801000000000000000081101562000b1a57600181018060115581101562000d1257601160005281518051909260008051602062007097833981519152916001600160401b03811162000b1a5760058402830154600181811c9116801562000d07575b602082101462000c1057601f811162000cb9575b506020601f821160011462000c3d578190608094959660009262000c31575b50508160011b916000199060031b1c191617600585028401555b6020810151600585028401600181019190915560408201516002820155606082015160039091015501518051906001600160401b03821162000b1a5760046005850284010154600181811c9116801562000c26575b602082101462000c1057601f811162000bbb575b50602090601f831160011462000b3c5791806005926004959460009262000b30575b50508160011b916000199060031b1c19161793020101555b60036029604051684c6567656e6461727960b81b8152601360098201522055604051602081014281524460408301523360601b606083015260548252608082019180831060018060401b0384111762000b1a57604083815290519091206014553360009081527f13da86008ba1c6922daee3e07db95305ef49ebced9f5467a0b8613fcc6b343e36020522054600a9060ff161562000ad9575b7fa49807205ce4d355092ef5a8a18f56e8913cf4a201fbe287825b095693c21775806000528160205260406000203360005260205260ff604060002054161562000a96575b507f9f2df0fed2c77648de5860a4cc508cd0818c85b8b8a1ab4ceeef8d981c8956a6806000528160205260406000203360005260205260ff604060002054161562000a53575b507ff18246d2e788c2a885ec6aeee43fc7c89077b8b7a1e52e99f27f5889e429e2f590816000528060205260406000203360005260205260ff604060002054161562000a10575b6158848381620017f38239f35b816000526020526040600020336000526020526040600020600160ff198254161790553390339060008051602062007077833981519152600080a4388062000a03565b80600052816020526040600020336000526020526040600020600160ff198254161790553390339060008051602062007077833981519152600080a438620009bc565b80600052816020526040600020336000526020526040600020600160ff198254161790553390339060008051602062007077833981519152600080a43862000976565b60008052806020526040600020336000526020526040600020600160ff1982541617905533336000600080516020620070778339815191528180a462000931565b634e487b7160e01b600052604160045260246000fd5b01519050388062000880565b9060046005860285010160005260206000209160005b601f198516811062000ba25750926005926001926004969583601f1981161062000b88575b505050811b01930201015562000898565b015160001960f88460031b161c1916905538808062000b77565b9192602060018192868501518155019401920162000b52565b6004600586028501016000526020600020601f840160051c8101916020851062000c05575b601f0160051c01905b81811062000bf857506200085e565b6000815560010162000be9565b909150819062000be0565b634e487b7160e01b600052602260045260246000fd5b90607f16906200084a565b015190503880620007db565b60058502840160005260206000209560005b601f198416811062000ca057509582916080959697600194601f1981161062000c86575b505050811b0160058502840155620007f5565b015160001960f88460031b161c1916905538808062000c73565b8282015188556001909701966020928301920162000c4f565b6005850284016000526020600020601f830160051c81016020841062000cff575b601f830160051c8201811062000cf2575050620007bc565b6000815560010162000cda565b508062000cda565b90607f1690620007a8565b634e487b7160e01b600052603260045260246000fd5b015190503880620005b5565b9060046005860285010160005260206000209160005b601f198516811062000d9a5750926005926001926004969583601f1981161062000d80575b505050811b019302010155620005cd565b015160001960f88460031b161c1916905538808062000d6f565b9192602060018192868501518155019401920162000d4a565b6004600586028501016000526020600020601f840160051c81016020851062000dfc575b601f830160051c8201811062000def57505062000593565b6000815560010162000dd7565b508062000dd7565b90607f16906200057f565b01519050388062000510565b60058502840160005260206000209560005b601f198416811062000e7e57509582916080959697600194601f1981161062000e64575b505050811b01600585028401556200052a565b015160001960f88460031b161c1916905538808062000e51565b8282015188556001909701966020928301920162000e2d565b6005850284016000526020600020601f830160051c81016020841062000edd575b601f830160051c8201811062000ed0575050620004f1565b6000815560010162000eb8565b508062000eb8565b90607f1690620004dd565b0151905038806200039c565b601060005260206000209060005b601f198416811062000f525750600193949583601f1981161062000f38575b505050811b01601055620003b2565b015160001960f88460031b161c1916905538808062000f29565b9091602060018192858a01518155019301910162000f0a565b60106000527f1b6847dc741a1b0cd08d278845f9d819d87b734759afb55fe2de5cb82a9ae672601f830160051c81016020841062000fc9575b601f830160051c8201811062000fbc57505062000380565b6000815560010162000fa4565b508062000fa4565b90607f16906200036c565b01519050388062000333565b600e60005260206000209060005b601f19841681106200103f575060019394959683601f1981161062001025575b505050811b01600e5562000349565b015160001960f88460031b161c1916905538808062001016565b9091602060018192858b01518155019301910162000ff6565b600e6000527fbb7b4a454dc3493923482f07822329ed19e8244eff582cc204f8554c3620c3fd601f830160051c810160208410620010b6575b601f830160051c82018110620010a957505062000316565b6000815560010162001091565b508062001091565b90607f169062000302565b015190503880620002c9565b600d60009081529350600080516020620070d783398151915291905b601f198416851062001137576001945083601f198116106200111d575b505050811b01600d55620002df565b015160001960f88460031b161c191690553880806200110e565b81810151835560209485019460019093019290910190620010f1565b600d600052909150600080516020620070d7833981519152601f840160051c810160208510620011ac575b90849392915b601f830160051c820181106200119c575050620002b0565b6000815585945060010162001184565b50806200117e565b91607f16916200029a565b60405163d92e233d60e01b8152600490fd5b63d92e233d60e01b8152600490fd5b015190503880620001b7565b600160009081529350600080516020620070f783398151915291905b601f19841685106200124e576001945083601f1981161062001234575b505050811b01600155620001cd565b015160001960f88460031b161c1916905538808062001225565b8181015183556020948501946001909301929091019062001208565b6001600052909150600080516020620070f7833981519152601f840160051c81019160208510620012c3575b90601f859493920160051c01905b818110620012b357506200019e565b60008155849350600101620012a4565b909150819062001296565b91607f169162000188565b0151905038806200014d565b60008080529350600080516020620070b783398151915291905b601f198416851062001345576001945083601f198116106200132b575b505050811b0160005562000163565b015160001960f88460031b161c191690553880806200131c565b81810151835560209485019460019093019290910190620012ff565b60008052909150600080516020620070b7833981519152601f840160051c810160208510620013b9575b90849392915b601f830160051c82018110620013a957505062000134565b6000815585945060010162001391565b50806200138b565b91607f16916200011e565b600080fd5b60a081019081106001600160401b0382111762000b1a57604052565b604081019081106001600160401b0382111762000b1a57604052565b601f909101601f19168101906001600160401b0382119082101762000b1a57604052565b919080601f84011215620013cc578251906001600160401b03821162000b1a576040519160209162001469601f8301601f191684018562001409565b818452828287010111620013cc5760005b8181106200149057508260009394955001015290565b85810183015184820184015282016200147a565b51906001600160a01b0382168203620013cc57565b6011546801000000000000000081101562000b1a5760018082018060115582101562000d125760116000908152835180516020946001600160401b039493916005909102600080516020620070978339815191520190858111620017b7578154938585811c95168015620017ac575b888610146200179857601f9485811162001750575b508790858311600114620016e1579180608094926004948792620016d5575b5050600019600383901b1c191690871b1781555b8789015186820155604089015160028201556060890151600382015501960151908151948511620016c15786548481811c91168015620016b6575b87821014620016a2578381116200165a575b5085928511600114620015f7579394508492919083620015eb575b50501b916000199060031b1c1916179055565b015192503880620015d8565b86815285812093958591601f198316915b888383106200163f575050501062001625575b505050811b019055565b015160001960f88460031b161c191690553880806200161b565b85870151885590960195948501948793509081019062001608565b8782528682208480880160051c82019289891062001698575b0160051c019085905b8281106200168c575050620015bd565b8381550185906200167c565b9250819262001673565b634e487b7160e01b82526022600452602482fd5b90607f1690620015ab565b634e487b7160e01b81526041600452602490fd5b0151905038806200155c565b8385528885208793929091601f198416875b8c82821062001739575050916004959391856080989694106200171f575b505050811b01815562001570565b015160001960f88460031b161c1916905538808062001711565b8385015186558b97909501949384019301620016f3565b8385528885208680850160051c8201928b86106200178e575b0160051c019087905b828110620017825750506200153d565b86815501879062001772565b9250819262001769565b634e487b7160e01b84526022600452602484fd5b94607f169462001528565b634e487b7160e01b83526041600452602483fd5b60405190620017da82620013ed565b60098252684c6567656e6461727960b81b602083015256fe608060408181526004918236101561001657600080fd5b600092833560e01c91826301ffc9a714613f585750816302bdd75514613ef757816302fa7c4714613e1c578163061886cd14613dc657816306fdde0314613d3f578163081812fc14613d1f5781630951984d14613ce7578163095ea7b314613b795781630c4ad45b14613b5a5781630cbf54c814613b3b5781631581b60014613b0e5781631c06adcd14613ae65781631cfff51b14613ac257816323b872dd14613a9d578163248a9ca314613a72578163250aeeb714613a19578163275b1efb146139d15781632a55205a1461397f5781632cb2f52e146138c95781632e17de78146137675781632e93be30146136d65781632f2ff15d1461363857816336568abe146135a65781633ab1a494146135145781633af32abf146118285781633b8105b3146133085781633ccfd60b1461327f5781633f244f041461325757816342842e0e1461322357816343508b05146130a3578163439766ce1461305a5781634542fc461461303b578163484b973c14612f285781634d3554c314612d05578163512d5c6114612ce85781635183022714612cc457816351c7115b14612ca7578163521c46d814612c5a578163548db17414612ba1578163555ec78b14612b4057816355f804b314612a425781635c975abb14612a1e5781636352211e146129ed57816363a599a4146129c6578163694d9778146118665781636a6278421461287a5781636c0360eb146127ab57816370a0823114612715578163715018a6146126ca57816375b238fc146126a1578163771282f61461268257816378bc0301146125135781637f6497831461242957838263819d4cc61461239357508163868ff4a2146121975781638980f11f146120a75781638cdb026d1461203a5781638d2c448814611fa45781638d63a27214611d395781638da5cb5b14611d105781638ecad72114611cf45781639105281614611cb957816391d1485414611c735781639222800614611c4f578163938e3d7b14611add5781639470fc93146119f657816395d89b4114611943578163969ce9cf1461189e57816398a8cffe146118665781639b19251a14611828578163a0484dda146117e2578163a04a6ac8146117c3578163a217fddf146117a8578163a22cb465146116d9578163a30c405514611689578163a475b5dd14611623578163a694fc3a1461153a578163ae1a01a21461148d578163b33712c514611443578163b88d4fde146113b8578163bb9391a114611393578163c078855514610687578163c0e7274014610722578163c212779314611238578163c73d7c7b1461112d578163c87b56dd146110f9578163cbc85d6f14610fa1578163d12f743a14610f7d578163d2acd13d14610d60578163d539139314610d37578163d547741f14610d07578163d5abeb0114610cea578163d756985b14610ccb578163d7af40e514610c73578163db2e21bc14610bd3578163dfe6b5d614610b4b578163e4b7fb7314610b0b578163e4dad1ee14610a8e578163e58306f914610764578163e8a3d48514610722578163e985e9c5146106d2578163eb54f9ec146106b3578163f0a5242414610687578163f2fde38b146105d2578163f90adccc14610576578163faf5316914610554578163fe67a54b146104ec575063ff6e36ed146104cb57600080fd5b346104e857816003193601126104e8576020906017549051908152f35b5080fd5b905034610550578260031936011261055057610506614508565b601e549160ff83161561054357505060ff1916601e557fa0e92984607195c326795751263414ee1074526323552e694c90ef2b99ae3f298180a180f35b516334dc687f60e11b8152fd5b8280fd5b8390346104e85760203660031901126104e85761056f614508565b3560175580f35b5050346104e85760203660031901126104e8576020916001600160a01b0361059c614020565b168152601583528181205460ff16156105cc576105c4908260175491601686522054906152a1565b905b51908152f35b906105c6565b905034610550576020366003190112610550576105ed614020565b906105f6614508565b6001600160a01b03918216928315610635575050600780546001600160a01b031981168417909155166000805160206156cf833981519152600080a380f35b906020608492519162461bcd60e51b8352820152602660248201527f4f776e61626c653a206e6577206f776e657220697320746865207a65726f206160448201526564647265737360d01b6064820152fd5b905034610550576020366003190112610550578160209360ff9235815284805220541690519015158152f35b5050346104e857816003193601126104e857602090601b549051908152f35b5050346104e857806003193601126104e8576020916106ef614020565b826106f8614036565b9260018060a01b03809316815260058652209116600052825260ff81600020541690519015158152f35b5050346104e857816003193601126104e85780516107609161074e8261074781614279565b03836143e0565b5191829160208352602083019061409d565b0390f35b839150346104e857826003193601126104e85761077f614020565b926024938435906000805160206156ef8339815191529586600052602096600a88528460002033600052885260ff856000205416156108da57505081156108cb57600c936103e86107d1848754614f2d565b116108bd5750600b805490966001600160a01b038316959192909190875b8581106108185750505060008051602061580f833981519152949596508351928352820152a280f35b6108b8908a896000805160206156af8339815191528a808e610838614f3a565b918291875497610848898d614bc9565b600181540190556108598c54614b0a565b8c5587815260128d522055600361086f82614473565b500161087b8154614b0a565b905561088f610889866150b7565b86614db8565b6108b061089b82614473565b5083519384938452808d8501528301906142e3565b0390a3614b0a565b6107ef565b835163c30436e960e01b8152fd5b50505163524f409b60e01b8152fd5b9250939450506108e9336154cf565b9082516108f5816143c5565b60428152868101916060368437815115610a7a57603083538151600190811015610a6657607860218401536041905b8082116109fb5750506109cd5760486109c9959385936109b1936109a2975197889376020b1b1b2b9b9a1b7b73a3937b61d1030b1b1b7bab73a1604d1b8d8601526109798d825192839160378901910161407a565b8401917001034b99036b4b9b9b4b733903937b6329607d1b60378401525180938684019061407a565b010360288101865201846143e0565b5194859462461bcd60e51b865285015283019061409d565b0390fd5b60648688878188519362461bcd60e51b855284015282015260008051602061562f8339815191526044820152fd5b9091600f81166010811015610a52576f181899199a1a9b1b9c1cb0b131b232b360811b901a610a2a84866154be565b53881c918015610a3e576000190190610924565b8760118a634e487b7160e01b600052526000fd5b8860328b634e487b7160e01b600052526000fd5b86603289634e487b7160e01b600052526000fd5b85603288634e487b7160e01b600052526000fd5b839150346104e857610a9f36614455565b90959193610aab614508565b60ff601e5416610afd575094610af7917fd19188be05e6ddc5a5158014d33ce7d5ce58bdb3b168f1f6760891d7ec6f097195968460195585601a5582601c55601d555193849384615434565b0390a180f35b82516334dc687f60e11b8152fd5b8383346104e857816003193601126104e857600c54916103e8928303928311610b38576020838351908152f35b634e487b7160e01b815260118452602490fd5b828434610bd05780600319360112610bd057600c54916103e891838303928311610bbd575060e0935060115460ff600f541660ff602354169160ff601854169360ff601e541695815197885260208801528601521515606085015215156080840152151560a0830152151560c0820152f35b634e487b7160e01b815260118552602490fd5b80fd5b905034610550578260031936011261055057610bed614508565b610bf5614b73565b47908115610c655760018060a01b0390848080808686600754165af1610c196148d5565b5015610c5757507f23d6711a1d031134a36921253c75aa59e967d38e369ac625992824315e204f2091602091600754169351908152a2600160085580f35b83516312171d8360e31b8152fd5b825163043f9e1160e41b8152fd5b828434610bd0576020366003190112610bd05750813591601154831015610cbd57506105c4826003610cb46002610cab602097614473565b50015492614473565b500154906152a1565b905163511785ad60e01b8152fd5b5050346104e857816003193601126104e8576020906019549051908152f35b5050346104e857816003193601126104e857602090516103e88152f35b91905034610550573660031901126104e857610d3490610d25614036565b90610d2e614508565b35614492565b80f35b5050346104e857816003193601126104e857602090516000805160206156ef8339815191528152f35b9190503461055057602080600319360112610f795782356001600160401b038111610f7557610d92903690850161418a565b929091610d9d614b73565b60ff93846023541615610f65578015610f555760148111610f4557909386935b828510610dcd5787600160085580f35b610ddd8584839a9798999a61535a565b3593610de8856148b8565b15610f3657336001600160a01b03610dff876145a7565b1603610f275784865287805282818720541615610f185784865287805280862060ff1981541690556021885285818120553386526022885280862097865b895480821015610f04578790610e53838d61404c565b929054600393841b1c14610e71575050610e6c90614b0a565b610e3d565b60009c9b9397969a95999c989498198101908111610ef157610ece92610eb08593610ea4610ec994610ee79a999861404c565b9054911b1c918461404c565b90919082549060031b91821b91600019901b1916179055565b6155ee565b339060008051602061566f8339815191528b80a3614b0a565b9394909194610dbd565b634e487b7160e01b8d5260118c5260248dfd5b50509392969094610ee79296999850610ece565b51630a49bbc360e21b81528890fd5b516359dc379f60e01b81528890fd5b5163224a1b1160e11b81528890fd5b8251633a4733d960e11b81528690fd5b825163521299a960e01b81528690fd5b825163a3df9bcf60e01b81528690fd5b8480fd5b8380fd5b5050346104e857816003193601126104e85760209060ff6018541690519015158152f35b839150346104e85760209283600319360112610550576001600160401b03908235828111610f7557610fd6903690850161415d565b939092610fe1614508565b60ff600f5416156110ea5784116110d7575061100783611002600d546141ba565b614d10565b8394601f841160011461105c5750610af79083859660008051602061578f8339815191529691611051575b508460011b906000198660031b1c191617600d555b5192839283615332565b905083013587611032565b94601f198416600d86528686209686905b8282106110be57505095610af792918560008051602061578f8339815191529798106110a4575b5050600184811b01600d55611047565b840135600019600387901b60f8161c191690558680611094565b838601358955600190980197928301929081019061106d565b634e487b7160e01b855260419052602484fd5b509051631659379160e31b8152fd5b828434610bd0576020366003190112610bd0575061111a61076092356152ae565b905191829160208352602083019061409d565b9190503461055057602036600319011261055057611149614011565b91611152614508565b8215159260235461ff008560081b169061ff001916176023556000146111ba575060008051602061568f8339815191529160209161118e614b2f565b600160ff19600954161760095560008051602061576f833981519152838251338152a15b51908152a180f35b6009549060ff8216156111fe57509160209160008051602061568f8339815191529360ff191660095560008051602061564f833981519152838251338152a16111b2565b606490602084519162461bcd60e51b8352820152601460248201527314185d5cd8589b194e881b9bdd081c185d5cd95960621b6044820152fd5b90503461055057602080600319360112610f795781356001600160401b038111610f7557611269903690840161418a565b919092611274614b73565b60ff92836023541615611384578015611375576014811161136657865b8181106112a15787600160085580f35b6112ac81838861535a565b356112b6816148b8565b1561135657336001600160a01b036112cd836145a7565b16036113465780895284805285888a205416611336579081611331928a52858052888a20600160ff198254161790556021865242898b2055338a5260228652611318818a8c206155cb565b33906000805160206157af8339815191528b80a3614b0a565b611291565b87516316e9ad8f60e01b81528490fd5b87516359dc379f60e01b81528490fd5b875163224a1b1160e11b81528490fd5b508451633a4733d960e11b8152fd5b50845163521299a960e01b8152fd5b50845163a3df9bcf60e01b8152fd5b5050346104e857816003193601126104e85780516107609161074e82610747816141f4565b8390346104e85760803660031901126104e8576113d3614020565b906113dc614036565b6064359290604435906001600160401b03851161143f573660238601121561143f5761141761143a94866024610d349836930135910161441e565b9261142a61142584336146cb565b6145f6565b611435838383614793565b6149f9565b6146ab565b8580fd5b90503461055057826003193601126105505761145d614508565b6009549060ff8216156111fe575060ff19166009555133815260008051602061564f83398151915290602090a180f35b828434610bd05760209081600319360112610bd05782906001600160a01b036114b4614020565b16815260228352818120908251808584549182815201908194845286842090845b81811061152657505050816114eb9103826143e0565b83519485948186019282875251809352850193925b82811061150f57505050500390f35b835185528695509381019392810192600101611500565b8254845292880192600192830192016114d5565b9190503461055057602080600319360112610f795782359261155a614b73565b60ff60235416156116155761156e846148b8565b156116075761157c846145a7565b336001600160a01b03909116036115f95783855281805260ff83862054166115eb57506115cf9160228492838752808052828720600160ff198254161790556021815242838820553387525284206155cb565b33906000805160206157af8339815191528380a3600160085580f35b82516316e9ad8f60e01b8152fd5b82516359dc379f60e01b8152fd5b825163224a1b1160e11b8152fd5b825163a3df9bcf60e01b8152fd5b90503461055057826003193601126105505761163d614508565b600f549160ff831661167c5760ff198316600117600f55837f08775102fde7505699b9d1e2b921e3786c1b5c7b2aec306add2b484a8ef0cbac8180a180f35b5163a89ac15160e01b8152fd5b828434610bd05780600319360112610bd05760115491815b8381106116b2576020838351908152f35b916116ce6116d49160016116c586614473565b50015490614f2d565b92614b0a565b6116a1565b919050346105505780600319360112610550576116f4614020565b90602435918215158093036117a3576001600160a01b03169233841461176557503384526005602052808420836000526020528060002060ff1981541660ff8416179055519081527f17307eab39ab6107e8899845ad3d59bd9653f200f220920489ca2b5937696c3160203392a380f35b6020606492519162461bcd60e51b8352820152601960248201527822a9219b99189d1030b8383937bb32903a379031b0b63632b960391b6044820152fd5b600080fd5b5050346104e857816003193601126104e85751908152602090f35b5050346104e857816003193601126104e857602090601a549051908152f35b5050346104e857816003193601126104e85760209060ff601e54161590811561180e575b519015158152f35b905061181f601b54601c5490614f2d565b42101590611806565b5050346104e85760203660031901126104e85760209160ff9082906001600160a01b03611853614020565b1681526015855220541690519015158152f35b5050346104e85760203660031901126104e85760209181906001600160a01b0361188e614020565b1681526016845220549051908152f35b90508234610bd0576020366003190112610bd057813590601154821015610bd05750611928926118d061076092614473565b50928151936118ea856118e381846142e3565b03866143e0565b60018101549260028201549061191560038401549361190e835180978193016142e3565b03856143e0565b805197889760a0895260a089019061409d565b9460208801528601526060850152838203608085015261409d565b828434610bd05780600319360112610bd05750805160009160018054611968816141ba565b808552908281169081156119ce5750600114611990575b505061074e826107609403836143e0565b93508060005260209384600020916000925b8284106119bb5750505082019092019161074e8261197f565b80548685018801529286019281016119a2565b610760965061074e93506020915091859260ff191682840152151560051b820101945061197f565b905034610550578260031936011261055057601154906001600160401b038211611aca57508151600593906020611a3184871b8201836143e0565b8382528082019384601185528285208886925b848410611aa4575050505050845194818601928287525180935282818701971b8601019392955b828710611a785785850386f35b909192938280611a94600193603f198a820301865288516140f7565b9601920196019592919092611a6b565b9085600192611ab6859a98999a614aa1565b815201920192019190899096959496611a44565b634e487b7160e01b845260419052602483fd5b839150346104e85760209283600319360112610550576001600160401b03908235828111610f7557611b12903690850161415d565b939092611b1d614508565b84116110d75750611b2f600e546141ba565b601f8111611c08575b508394601f8411600114611b8d5750610af7908385966000805160206157ef8339815191529691611b82575b508460011b906000198660031b1c191617600e555192839283615332565b905083013587611b64565b94601f198416600e86528686209686905b828210611bef57505095610af79291856000805160206157ef833981519152979810611bd5575b5050600184811b01600e55611047565b840135600019600387901b60f8161c191690558680611bc5565b8386013589556001909801979283019290810190611b9e565b600e60005285600020601f850160051c810191878610611c45575b601f0160051c01905b818110611c395750611b38565b60008155600101611c2c565b9091508190611c23565b5050346104e857816003193601126104e85760209060ff601e541690519015158152f35b90503461055057816003193601126105505781602093611c91614036565b92358152600a8552209060018060a01b0316600052825260ff81600020541690519015158152f35b5050346104e857816003193601126104e857602090517ff18246d2e788c2a885ec6aeee43fc7c89077b8b7a1e52e99f27f5889e429e2f58152f35b5050346104e857816003193601126104e85760209051600a8152f35b5050346104e857816003193601126104e85760075490516001600160a01b039091168152602090f35b919050346105505760a0366003190112610550578135916001600160401b0360243581811161143f57611d6f903690840161415d565b939091606435608435828111611fa057611d8c903690870161415d565b919095611d97614508565b601154891015611f92576003611dac8a614473565b5001548210611f8457611dbe89614473565b50848911611f715780611ddc8a611dd68594546141ba565b83614d64565b898c8d601f8311600114611f085791611efd575b508a60011b906000198c60031b1c19161781555b60019360443585830155600282015501938311611eea5750908291611e3582611e2f8a9796546141ba565b85614d64565b89601f8311600114611e8057829182916020998d94611e75575b50501b916000199060031b1c19161790555b519384928337810160138152030190205580f35b013592503880611e4f565b601f92919219821697848c52602091828d20928d905b8b8210611ed05750508360209a10611eb6575b505050811b019055611e61565b0135600019600384901b60f8161c19169055388080611ea9565b8284013585558c9950938601939182019190810190611e96565b634e487b7160e01b8a5260419052602489fd5b905088013538611df0565b83815260208082209391601f198316915b8d838310611f535750505010611f39575b505060018a811b018155611e04565b89013560001960038d901b60f8161c191690553880611f2a565b8501358655889750600190950194938401938f935090810190611f19565b634e487b7160e01b8b526041825260248bfd5b8451633bfc66bf60e11b8152fd5b845163255b382160e01b8152fd5b8880fd5b90503461055057611fb436614455565b611fc2959395949194614508565b601e549160ff831661202c5750916001869492608096947fa832766a05f1bd0298b0268308621777cfe1e4eea23afe7c06beea79bc6ddd2d9860195583601a5585601c55601d5542601b5560ff191617601e5581519384526020840152820152426060820152a180f35b84516334dc687f60e11b8152fd5b828434610bd0576020366003190112610bd0578235906001600160401b038211610bd05736602383011215610bd05750602061208381948360246120959536930135910161441e565b8184519382858094519384920161407a565b81016013815203019020549051908152f35b9050346105505781600319360112610550576120c1614020565b602435906120cd614508565b6001600160a01b0390811692831561218957602083918360075416906121048851948593849363a9059cbb60e01b85528401614142565b038189885af1801561217f57612148575b507faca8fb252cde442184e5f10e0f2e6e4029e8cd7717cae63559079610702436aa91602091600754169451908152a380f35b6020813d8211612177575b81612160602093836143e0565b8101031261143f575180151503610f755738612115565b3d9150612153565b85513d88823e3d90fd5b845163e6c4247b60e01b8152fd5b8383346104e85760209081600319360112610550578335916121b7614b2f565b60ff60235460081c16612383576121cc614b73565b60ff6018541615612373573384526015815260ff82852054161561236357821561235357338452601681526122048383862054614f2d565b6017541061234357600c946103e861221d858854614f2d565b116123355750600b90815491855b85811061229a5750509060008051602061580f83398151915292913386526016815282862061225b868254614f2d565b905582518581527fce77e469b386be007f957632f6f65216f2e74c5daa303aff682e8296f628d010823392a282519485528401523392a2600160085580f35b612330906122a6614f3a565b8354906122b38233614bc9565b600185540185556122c48b54614b0a565b8b55818a526012865280888b205560036122dd82614473565b50016122e98154614b0a565b90556122fd6122f7836150b7565b83614db8565b6000805160206156af83398151915261231582614473565b509189519081528988820152806108b033948c8301906142e3565b61222b565b825163c30436e960e01b8152fd5b815163b3adbb5760e01b81528590fd5b815163524f409b60e01b81528590fd5b8151630b094f2760e31b81528590fd5b81516302664e7160e11b81528590fd5b815163250440b360e01b81528590fd5b929150346124255781600319360112612425576123ae614020565b6123b6614508565b6007546001600160a01b039081169116803b15610f755760648592855196879384926323b872dd60e01b84523088850152602484015260243560448401525af1801561241b57612404578380f35b6001600160401b038311611aca5750523880808380f35b82513d86823e3d90fd5b5050fd5b9050346105505760209182600319360112610f795781356001600160401b038111610f755761245b903690840161418a565b92612464614508565b831561250557855b848110612477578680f35b6001600160a01b038061249361248e84898861535a565b61536a565b16156124f55790816124f0926124ad61248e848a8961535a565b1689526015885260008051602061582f83398151915288878b20926001938460ff198254161790556124e361248e868c8b61535a565b16928851908152a2614b0a565b61246c565b845163d92e233d60e01b81528390fd5b825163521299a960e01b8152fd5b839150346104e85760209283600319360112610550576001600160401b03908235828111610f7557612548903690850161415d565b939092612553614508565b84116110d757506125656010546141ba565b601f811161263e575b508394601f84116001146125c35750610af79083859660008051602061570f83398151915296916125b8575b508460011b906000198660031b1c1916176010555192839283615332565b90508301358761259a565b94601f198416601086528686209686905b82821061262557505095610af792918560008051602061570f83398151915297981061260b575b5050600184811b01601055611047565b840135600019600387901b60f8161c1916905586806125fb565b83860135895560019098019792830192908101906125d4565b60108552858520601f850160051c810191878610612678575b601f0160051c01905b81811061266d575061256e565b858155600101612660565b9091508190612657565b5050346104e857816003193601126104e857602090600c549051908152f35b5050346104e857816003193601126104e8576020905160008051602061574f8339815191528152f35b8334610bd05780600319360112610bd0576126e3614508565b600780546001600160a01b0319811690915581906001600160a01b03166000805160206156cf8339815191528280a380f35b839150346104e85760203660031901126104e8576001600160a01b03612739614020565b169081156127565760208480858581526003845220549051908152f35b608490602085519162461bcd60e51b8352820152602960248201527f4552433732313a2061646472657373207a65726f206973206e6f7420612076616044820152683634b21037bbb732b960b91b6064820152fd5b5050346104e857816003193601126104e85780519082600d546127cd816141ba565b8085529060019081811690811561285257506001146127f9575b50505061074e826107609403836143e0565b600d8352602095507fd7b6990105719101dabeb77144f2a3385c8033acd3af97e9423a695e81ad1eb55b82841061283f57505050826107609461074e92820101946127e7565b8054868501880152928601928101612823565b610760975061074e9450602092508693915060ff191682840152151560051b820101946127e7565b90503461055057602036600319011261055057612895614020565b9161289e614b2f565b60ff60235460081c166129b9576128b3614b73565b6103e8600c5410156129ac576001600160a01b03831691821561299e576128d8614f3a565b9060036128e483614473565b50015460026128f284614473565b50015411156129905750906000805160206156af8339815191529161291a600b548096614bc9565b6001600b5401600b5561292e600c54614b0a565b600c5584865260126020528082872055600361294982614473565b50016129558154614b0a565b9055612963610889866150b7565b61298561296f82614473565b50835193849384528060208501528301906142e3565b0390a3600160085580f35b825163024e40fd60e41b8152fd5b905163d92e233d60e01b8152fd5b5163d05cb60960e01b8152fd5b5163250440b360e01b8152fd5b5050346104e857816003193601126104e85760209060ff60235460081c1690519015158152f35b828434610bd0576020366003190112610bd05750612a0d602092356145a7565b90516001600160a01b039091168152f35b5050346104e857816003193601126104e85760209060ff6009541690519015158152f35b839150346104e85760209283600319360112610550576001600160401b03908235828111610f7557612a77903690850161415d565b939092612a82614508565b84116110d75750612a9883611002600d546141ba565b8394601f8411600114612ae05750610af79083859660008051602061578f833981519152969161105157508460011b906000198660031b1c191617600d555192839283615332565b94601f198416600d86528686209686905b828210612b2757505095610af792918560008051602061578f8339815191529798106110a4575050600184811b01600d55611047565b8386013589556001909801979283019290810190612af1565b90503461055057602036600319011261055057803590612b5e614a74565b50612b68826148b8565b156116075750612b888284612b8e93610760965260126020522054614473565b50614aa1565b90519182916020835260208301906140f7565b9190503461055057602080600319360112610f795782356001600160401b038111610f7557612bd3903690850161418a565b93612bdc614508565b8415612c4c5750845b848110612bf0578580f35b612c47906001600160a01b0380612c0b61248e848a8861535a565b16885260158552858820805460ff19169055612c2b61248e83898761535a565b1660008051602061582f8339815191528587518a8152a2614b0a565b612be5565b835163521299a960e01b8152fd5b828434610bd0576020366003190112610bd057508135601154811015612c9957602092506002612c8e6003610cab84614473565b500154119051908152f35b50516363df817160e01b8152fd5b5050346104e857816003193601126104e8576020906105c4615391565b5050346104e857816003193601126104e85760209060ff600f541690519015158152f35b5050346104e857816003193601126104e8576020906105c461544a565b916020915036600319018213610f7957823591612d20614b2f565b60ff60235460081c16612f1857612d35614b73565b60ff601e5416158015612f0d575b612efd5782158015612ef3575b612ee357600c906103e8612d65858454614f2d565b11612ed357612d72615391565b94612d7d858761537e565b90813410612ec55750600b92835493885b878110612e2957505050803411612df9575b7f663bd6898d9847b7aab9a13504609b487bfbc6e8dccdbd1c4435753941825797612de360008051602061580f8339815191529697865191829133958b84615434565b0390a282519485528401523392a2600160085580f35b86808080612e0785346152a1565b818115612e20575b3390f1612da05783513d88823e3d90fd5b506108fc612e0f565b612ec0908a886000805160206156af833981519152612e46614f3a565b8083885495612e558733614bc9565b60018a54018a55612e668b54614b0a565b8b5586815260128d5220556003612e7c82614473565b5001612e888154614b0a565b9055612e9c612e96856150b7565b85614db8565b612ea581614473565b50906108b084519283928352858d84015233958301906142e3565b612d8e565b845163cd1c886760e01b8152fd5b825163c30436e960e01b81528590fd5b815163524f409b60e01b81528490fd5b50600a8311612d50565b81516334dc687f60e11b81528490fd5b50601b544210612d43565b815163250440b360e01b81528490fd5b905034610550578160031936011261055057612f42614020565b91602435612f4e614508565b6103e8600c54101561302d576001600160a01b03841692831561301f57601154821015613011576003612f8083614473565b5001546002612f8e84614473565b50015411156129905750906000805160206156af83398151915291612fb6600b548096614bc9565b6001600b5401600b55612fca600c54614b0a565b600c55848652601260205280828720556003612fe582614473565b5001612ff18154614b0a565b9055612fff610889866150b7565b61300b61296f82614473565b0390a380f35b825163511785ad60e01b8152fd5b825163d92e233d60e01b8152fd5b505163d05cb60960e01b8152fd5b5050346104e857816003193601126104e857602090601d549051908152f35b5050346104e857816003193601126104e857602060008051602061576f83398151915291613086614508565b61308e614b2f565b600160ff19600954161760095551338152a180f35b839150346104e857826003193601126104e8576130be614020565b926024356130ca614b2f565b60ff60235460081c16613215576130df614b73565b8015801561320b575b6131fd57600c946103e86130fd838854614f2d565b116131ee576001600160a01b0381169384156131e05750600b805491865b848110613149575050835192835250602082015260008051602061580f8339815191529190a2600160085580f35b6131db9089886000805160206156af8339815191528b613167614f3a565b885494613174868a614bc9565b60018a54018a556131858154614b0a565b9055848252808c60209360128552205560036131a082614473565b50016131ac8154614b0a565b90556131ba610889866150b7565b6108b06131c682614473565b508d805194859485528401528d8301906142e3565b61311b565b835163d92e233d60e01b8152fd5b50505163c30436e960e01b8152fd5b505163524f409b60e01b8152fd5b50600a81116130e8565b505163250440b360e01b8152fd5b5050346104e85761143a610d349161323a366140c2565b91925192613247846143aa565b86845261142a61142584336146cb565b9050346105505760203660031901126105505760209282913581526012845220549051908152f35b9190503461055057826003193601126105505761329a614508565b6132a2614b73565b60235460101c6001600160a01b031680156132fa57479081156132eb578480809381935af16132cf6148d5565b50156132de5782600160085580f35b51631d42c86760e21b8152fd5b50505163043f9e1160e41b8152fd5b505163e6c4247b60e01b8152fd5b9190503461055057826003193601126105505760008051602061574f83398151915291828452602092600a8452828520338652845260ff83862054161561338c57847f886bf152398e89a7de17f229134a054c5448ada42007eaae5187b82753278be685856023549060ff8083161516809260ff191617602355519015158152a180f35b909293613398336154cf565b918351906133a5826143c5565b6042825286820192606036853782511561350157603084538251906001918210156134ee5790607860218501536041915b8183116134835750505061345457604861342b93859361343a936109c9975196879376020b1b1b2b9b9a1b7b73a3937b61d1030b1b1b7bab73a1604d1b8c8601526109798c825192839160378901910161407a565b010360288101855201836143e0565b5193849362461bcd60e51b8552840152602483019061409d565b606485878087519262461bcd60e51b8452830152602482015260008051602061562f8339815191526044820152fd5b909192600f811660108110156134db576f181899199a1a9b1b9c1cb0b131b232b360811b901a6134b385876154be565b53881c9280156134c8576000190191906133d6565b634e487b7160e01b825260118952602482fd5b634e487b7160e01b835260328a52602483fd5b634e487b7160e01b815260328852602490fd5b634e487b7160e01b815260328752602490fd5b9050346105505760203660031901126105505761352f614020565b90613538614508565b6001600160a01b0382169283156135995750506023805462010000600160b01b03191660109290921b62010000600160b01b03169190911790557f7560c42213a1d729912e2864a115883b3e527ba2f5813ecc26188d5ea8bcf4038280a280f35b5163d92e233d60e01b8152fd5b839150346104e857826003193601126104e8576135c1614036565b90336001600160a01b038316036135dd5790610d349135614492565b608490602085519162461bcd60e51b8352820152602f60248201527f416363657373436f6e74726f6c3a2063616e206f6e6c792072656e6f756e636560448201526e103937b632b9903337b91039b2b63360891b6064820152fd5b9050346105505781600319360112610550573590613654614036565b9061365d614508565b828452600a60209081528185206001600160a01b039093168086529290528084205460ff161561368b578380f35b828452600a6020528084208285526020528320600160ff1982541617905533917f2f8788117e7eff1d82e926ec794901d17c78024a50270940304540a733656f0d8480a43880808380f35b5050346104e857816003193601126104e8579060609160ff601e5416906136fb615391565b9115801593908461375c575b8015613744575b1561372457915b81519384526020840152820152f35b5061373e613737601b54601c5490614f2d565b42906152a1565b91613715565b50613754601b54601c5490614f2d565b42101561370e565b50601b544210613707565b828434610bd057602091826003193601126104e857833592613787614b73565b60ff60235416156138b95761379b846148b8565b156138a9576137a9846145a7565b336001600160a01b03909116036138995783835280805260ff8284205416156138895760229084845280805282842060ff19815416905560218152838381205533845252812091815b83548082101561387e578290613808838761404c565b929054600393841b1c1461382657505061382190614b0a565b6137f2565b93949293600019810190811161386b5761384f94959650610ec99291610ea4610eb0928661404c565b339060008051602061566f8339815191528380a3600160085580f35b634e487b7160e01b865260118752602486fd5b50509150915061384f565b8151630a49bbc360e21b81528590fd5b81516359dc379f60e01b81528590fd5b815163224a1b1160e11b81528590fd5b815163a3df9bcf60e01b81528590fd5b919050346105505780600319360112610550578135916024356001600160401b038111610f75576138fd903690830161415d565b929091613908614508565b613911856148b8565b156139715760ff600f54161561396357509061395d7fdb97328c83f32485a3581bd960425f69a2e03d66bbfdef66cb9d290d07e02964939261104761395736868661441e565b87614db8565b0390a280f35b9051631659379160e31b8152fd5b905163224a1b1160e11b8152fd5b828434610bd05781600319360112610bd05750601e54601f5460089190911c6001600160a01b03169061076090612710906139c5906001600160601b031660243561537e565b04925192839283614142565b828434610bd0576020366003190112610bd057508135916139f0614a74565b50601154831015613a0b5750612b8e612b8861076093614473565b90516363df817160e01b8152fd5b828434610bd057602092836003193601126104e8573581528280528160ff8183205416158015613a61575b15613a5157509051908152f35b6105cc91602185522054426152a1565b505060218352818082205415613a44565b9050346105505760203660031901126105505781602093600192358152600a85522001549051908152f35b8334610bd057610d34613aaf366140c2565b91613abd61142584336146cb565b614793565b5050346104e857816003193601126104e85760209060ff6023541690519015158152f35b9050346105505760203660031901126105505760209282913581526021845220549051908152f35b5050346104e857816003193601126104e857602354905160109190911c6001600160a01b03168152602090f35b5050346104e857816003193601126104e857602090601c549051908152f35b5050346104e857816003193601126104e8576020906011549051908152f35b905034610550578160031936011261055057613b93614020565b6024359290916001600160a01b0391908280613bae876145a7565b16941693808514613c9a57803314908115613c7b575b5015613c1357848652602052842080546001600160a01b03191683179055613beb836145a7565b167f8c5be1e5ebec7d5bd14f71427d1e84f3dd0314c0f7b2291e5b200ac8c7c3b9258480a480f35b6020608492519162461bcd60e51b8352820152603d60248201527f4552433732313a20617070726f76652063616c6c6572206973206e6f7420746f60448201527f6b656e206f776e6572206f7220617070726f76656420666f7220616c6c0000006064820152fd5b90508652600560205281862033875260205260ff828720541638613bc4565b506020608492519162461bcd60e51b8352820152602160248201527f4552433732313a20617070726f76616c20746f2063757272656e74206f776e656044820152603960f91b6064820152fd5b5050346104e85760203660031901126104e85760209181906001600160a01b03613d0f614020565b1681526022845220549051908152f35b828434610bd0576020366003190112610bd05750612a0d602092356145ca565b5050346104e857816003193601126104e857805190828054613d60816141ba565b808552906001908181169081156128525750600114613d8b5750505061074e826107609403836143e0565b94508180526020948583205b828410613db357505050826107609461074e92820101946127e7565b8054868501880152928601928101613d97565b5050346104e857806003193601126104e857613de0614020565b6001600160a01b03168252602260205280822080546024359390841015610bd05750602092613e0e9161404c565b91905490519160031b1c8152f35b8383346104e857806003193601126104e857613e36614020565b6024356001600160601b03811690819003610f7957613e53614508565b6103e88111613ee7576001600160a01b038216918215613ed757601e8054610100600160a81b03191660089290921b610100600160a81b0316919091179055601f80546001600160601b03191682179055825191825260208201529192507f8039bd6e4e7dba001c8840eb2e118d9d131246faa7d0d04335f7305127ec0b1091a180f35b835163d92e233d60e01b81528690fd5b825163c2b03beb60e01b81528590fd5b5050346104e85760203660031901126104e85760207fb7ca260b52317206c15b3b393b9437b88d5a6495ef4cc56fdc039f65db3036e591613f36614011565b613f3e614508565b15159060ff196018541660ff83161760185551908152a180f35b849134610550576020366003190112610550573563ffffffff60e01b8116809103610550576020925063152a902d60e11b8114908115613f9a575b5015158152f35b637965db0b60e01b811491508115613fb4575b5083613f93565b632483248360e11b811491508115613fce575b5083613fad565b6380ac58cd60e01b811491508115614000575b8115613fef575b5083613fc7565b6301ffc9a760e01b14905083613fe8565b635b5e139f60e01b81149150613fe1565b6004359081151582036117a357565b600435906001600160a01b03821682036117a357565b602435906001600160a01b03821682036117a357565b80548210156140645760005260206000200190600090565b634e487b7160e01b600052603260045260246000fd5b60005b83811061408d5750506000910152565b818101518382015260200161407d565b906020916140b68151809281855285808601910161407a565b601f01601f1916010190565b60609060031901126117a3576001600160a01b039060043582811681036117a3579160243590811681036117a3579060443590565b61413f916080614110835160a0845260a084019061409d565b92602081015160208401526040810151604084015260608101516060840152015190608081840391015261409d565b90565b6001600160a01b039091168152602081019190915260400190565b9181601f840112156117a3578235916001600160401b0383116117a357602083818601950101116117a357565b9181601f840112156117a3578235916001600160401b0383116117a3576020808501948460051b0101116117a357565b90600182811c921680156141ea575b60208310146141d457565b634e487b7160e01b600052602260045260246000fd5b91607f16916141c9565b60105460009291614204826141ba565b90818152600192838116908160001461425e575060011461422457505050565b9092935060106000526020928360002092846000945b83861061424a5750505050010190565b80548587018301529401938590820161423a565b91935050602093945060ff191683830152151560051b010190565b600e5460009291614289826141ba565b90818152600192838116908160001461425e57506001146142a957505050565b90929350600e6000526020928360002092846000945b8386106142cf5750505050010190565b8054858701830152940193859082016142bf565b90600092918054916142f4836141ba565b9182825260019384811690816000146143565750600114614316575b50505050565b90919394506000526020928360002092846000945b838610614342575050505001019038808080614310565b80548587018301529401938590820161432b565b9294505050602093945060ff191683830152151560051b01019038808080614310565b60a081019081106001600160401b0382111761439457604052565b634e487b7160e01b600052604160045260246000fd5b602081019081106001600160401b0382111761439457604052565b608081019081106001600160401b0382111761439457604052565b601f909101601f19168101906001600160401b0382119082101761439457604052565b6001600160401b03811161439457601f01601f191660200190565b92919261442a82614403565b9161443860405193846143e0565b8294818452818301116117a3578281602093846000960137010152565b60809060031901126117a35760043590602435906044359060643590565b6011548110156140645760116000526005602060002091020190600090565b90600091808352600a602052604083209160018060a01b03169182845260205260ff6040842054166144c357505050565b808352600a602052604083208284526020526040832060ff1981541690557ff6391f5c32d9c69d2a47ea670b442974b53935d1edc7fd64eb21e047a839171b339380a4565b6007546001600160a01b0316330361451c57565b606460405162461bcd60e51b815260206004820152602060248201527f4f776e61626c653a2063616c6c6572206973206e6f7420746865206f776e65726044820152fd5b1561456757565b60405162461bcd60e51b8152602060048201526018602482015277115490cdcc8c4e881a5b9d985b1a59081d1bdad95b88125160421b6044820152606490fd5b6000908152600260205260409020546001600160a01b031661413f811515614560565b6145db6145d6826148b8565b614560565b6000908152600460205260409020546001600160a01b031690565b156145fd57565b60405162461bcd60e51b815260206004820152602d60248201527f4552433732313a2063616c6c6572206973206e6f7420746f6b656e206f776e6560448201526c1c881bdc88185c1c1c9bdd9959609a1b6064820152608490fd5b60809060208152603260208201527f4552433732313a207472616e7366657220746f206e6f6e20455243373231526560408201527131b2b4bb32b91034b6b83632b6b2b73a32b960711b60608201520190565b156146b257565b60405162461bcd60e51b8152806109c960048201614658565b906001600160a01b0380806146df846145a7565b16931691838314938415614712575b5083156146fc575b50505090565b614708919293506145ca565b16143880806146f6565b909350600052600560205260406000208260005260205260ff6040600020541692386146ee565b1561474057565b60405162461bcd60e51b815260206004820152602560248201527f4552433732313a207472616e736665722066726f6d20696e636f72726563742060448201526437bbb732b960d91b6064820152608490fd5b906147bb916147a1846145a7565b6001600160a01b0393918416928492909183168414614739565b16918215614867576000908482526020805260409060ff828420541661485657906148018460008051602061572f83398151915294936147fa896145a7565b1614614739565b8582526004602090815281832080546001600160a01b031990811690915585845260038252828420805460001901905586845282842080546001019055878452600290915290822080549091168517905580a4565b81516316e9ad8f60e01b8152600490fd5b60405162461bcd60e51b8152602060048201526024808201527f4552433732313a207472616e7366657220746f20746865207a65726f206164646044820152637265737360e01b6064820152608490fd5b6000908152600260205260409020546001600160a01b0316151590565b3d15614900573d906148e682614403565b916148f460405193846143e0565b82523d6000602084013e565b606090565b9091600091803b156149f0576149506020918493604051948580948193630a85bd0160e11b9a8b8452336004850152846024850152604484015260806064840152608483019061409d565b03926001600160a01b03165af1908290826149a8575b505061499a576149746148d5565b805190816149955760405162461bcd60e51b8152806109c960048201614658565b602001fd5b6001600160e01b0319161490565b909192506020813d82116149e8575b816149c4602093836143e0565b810103126104e85751906001600160e01b031982168203610bd05750903880614966565b3d91506149b7565b50505050600190565b91926000929190813b15614a6a57602091614a4f9185604051958680958194630a85bd0160e11b9b8c845233600485015260018060a01b038095166024850152604484015260806064840152608483019061409d565b0393165af1908290826149a857505061499a576149746148d5565b5050505050600190565b60405190614a8182614379565b606060808382815260006020820152600060408201526000838201520152565b9060046080604051614ab281614379565b614b068195604051614acf81614ac881856142e3565b03826143e0565b8352600181015460208401526002810154604084015260038101546060840152614aff60405180968193016142e3565b03846143e0565b0152565b6000198114614b195760010190565b634e487b7160e01b600052601160045260246000fd5b60ff60095416614b3b57565b60405162461bcd60e51b815260206004820152601060248201526f14185d5cd8589b194e881c185d5cd95960821b6044820152606490fd5b600260085414614b84576002600855565b60405162461bcd60e51b815260206004820152601f60248201527f5265656e7472616e637947756172643a207265656e7472616e742063616c6c006044820152606490fd5b90604091825192614bd9846143aa565b60008085526001600160a01b038316918215614c8257614c01614bfb866148b8565b15614cc5565b8482526020805260ff8183205416614c7257938092614c7096949261143a96614c2c614bfb856148b8565b828252600360209081528183208054600101905584835260029052812080546001600160a01b0319168317905560008051602061572f8339815191528180a4614905565b565b516316e9ad8f60e01b8152600490fd5b5162461bcd60e51b815260206004820181905260248201527f4552433732313a206d696e7420746f20746865207a65726f20616464726573736044820152606490fd5b15614ccc57565b60405162461bcd60e51b815260206004820152601c60248201527b115490cdcc8c4e881d1bdad95b88185b1c9958591e481b5a5b9d195960221b6044820152606490fd5b601f8111614d1c575050565b600090600d825260208220906020601f850160051c83019410614d5a575b601f0160051c01915b828110614d4f57505050565b818155600101614d43565b9092508290614d3a565b90601f8111614d7257505050565b600091825260208220906020601f850160051c83019410614dae575b601f0160051c01915b828110614da357505050565b818155600101614d97565b9092508290614d8e565b919091614dc4816148b8565b15614ed1576000818152600660209081526040822085519193929091906001600160401b038211614ebd57614dfd82611e2f85546141ba565b8490601f8311600114614e4b57906000805160206157cf833981519152969783614e40575b50508160011b916000199060031b1c19161790555b604051908152a1565b015190503880614e22565b9196601f198816848452868420935b818110614ea657509160019391896000805160206157cf833981519152999a9410614e8d575b505050811b019055614e37565b015160001960f88460031b161c19169055388080614e80565b929387600181928786015181550195019301614e5a565b634e487b7160e01b81526041600452602490fd5b60405162461bcd60e51b815260206004820152602e60248201527f45524337323155524953746f726167653a2055524920736574206f66206e6f6e60448201526d32bc34b9ba32b73a103a37b5b2b760911b6064820152608490fd5b91908201809211614b1957565b601454600b549060405191602083019182524260408401524460608401523360601b608084015260948301526094825260c082019180831060018060401b03841117614394576127109260405251902080601455066000908190601154925b838310614ff35750505060005b818110614fbf5760405163024e40fd60e41b8152600490fd5b6003614fca82614473565b5001546002614fd883614473565b50015411614fee57614fe990614b0a565b614fa6565b905090565b6150029060016116c585614473565b9182821061501a575b61501490614b0a565b91614f99565b600361502582614473565b500154600261503383614473565b500154111561500b579250505090565b600d5460009291615053826141ba565b916001908181169081156150a4575060011461506e57505050565b9091929350600d60005260209081600020906000915b85831061509357505050500190565b805485840152918301918101615084565b60ff191683525050811515909102019150565b600f5460ff161561510e5761413f60056150d260209361513f565b6040519384916150f36150e6838501615043565b918281519485920161407a565b0164173539b7b760d91b815203601a198101845201826143e0565b5060405161413f81614ac8816141f4565b8115615129570490565b634e487b7160e01b600052601260045260246000fd5b6000908072184f03e93ff9f4daa797ed6e38ed64bf6a1f0160401b80821015615293575b506904ee2d6d415b85acef8160201b80831015615284575b50662386f26fc1000080831015615275575b506305f5e10080831015615266575b5061271080831015615257575b506064821015615247575b600a8092101561523d575b600190816021818601956151d287614403565b966151e060405198896143e0565b8088526151ef601f1991614403565b01366020890137860101905b615207575b5050505090565b600019019083906f181899199a1a9b1b9c1cb0b131b232b360811b8282061a835304918215615238579190826151fb565b615200565b91600101916151bf565b91906064600291049101916151b4565b600491939204910191386151a9565b6008919392049101913861519c565b6010919392049101913861518d565b6020919392049101913861517b565b604093508104915038615163565b91908203918211614b1957565b6152b7816148b8565b156153205760ff600f54161561510e57806152d76145d6610747936148b8565b8060005260066020526152f46040600020604051938480926142e3565b6000604051615302816143aa565b5281511561530e575090565b6020915060056150d261413f9261513f565b60405163224a1b1160e11b8152600490fd5b90918060409360208452816020850152848401376000828201840152601f01601f1916010190565b91908110156140645760051b0190565b356001600160a01b03811681036117a35790565b81810292918115918404141715614b1957565b60ff601e5416158015615429575b615423576153af601b54426152a1565b601c54908181101561541b576153c8601d54809261511f565b91821561541257615406916153dc9161511f565b91615400601954916153fa601a54956153f587866152a1565b61511f565b9061537e565b906152a1565b81811015614fee575090565b50505060195490565b5050601a5490565b60195490565b50601b54421061539f565b6040919493926060820195825260208201520152565b60ff601e54161580156154b3575b6154ae57601b5461546981426152a1565b615476601d54809261511f565b9060018201809211614b1957615492615498916154a29361537e565b83614f2d565b91601c5490614f2d565b811061413f5750600090565b600090565b50601b544210615458565b908151811015614064570160200190565b60405190606082016001600160401b0381118382101761439457604052602a82526020820160403682378251156140645760309053815160019081101561406457607860218401536029905b80821161555d57505061552b5790565b606460405162461bcd60e51b8152602060048201526020602482015260008051602061562f8339815191526044820152fd5b9091600f811660108110156155b6576f181899199a1a9b1b9c1cb0b131b232b360811b901a61558c84866154be565b5360041c9180156155a157600019019061551b565b60246000634e487b7160e01b81526011600452fd5b60246000634e487b7160e01b81526032600452fd5b80549190600160401b8310156143945782610eb0916001614c709501815561404c565b80549081156156185760001991820191615608838361404c565b909182549160031b1b1916905555565b634e487b7160e01b600052603160045260246000fdfe537472696e67733a20686578206c656e67746820696e73756666696369656e745db9ee0a495bf2e6ff9c91a7834c1ba4fdd244a5e8aa4e537bd38aeae4b073aa0bd399ae365ab45a4803bca8e95718b4f1ff0915b48493d790b2525603c0a09205b88d23d9a60b7924fccc370e1e0c1ccf49989e3b2968cafaf7db7fc13bd13ffd8041fd7e4d7047a13bde415402e7278ad32792f9bdf46102a274181893cc948be0079c531659141344cd1fd0a4f28419497f9722a3daafe3b4186f6b6457e09f2df0fed2c77648de5860a4cc508cd0818c85b8b8a1ab4ceeef8d981c8956a6a67fa1d1d89c2d62b3f7fda41a9e2958cf2b076098afd5156de632e082b06ef2ddf252ad1be2c89b69c2b068fc378daa952ba7f163c4a11628f55a4df523b3efa49807205ce4d355092ef5a8a18f56e8913cf4a201fbe287825b095693c2177562e78cea01bee320cd4e420270b5ea74000d11b0c9f74754ebdbfc544b05a2586741b2fc379fad678116fe3d4d4b9a1a184ab53ba36b86ad0fa66340b1ab41ad7d2f41d944235f7c99290ca6f149e25aa6deb5397189be3882b8ddf71c51bbecf8e1a15aba9398e019f0b49df1a4fde98ee17ae345cb5f6b5e2c27f5033e8ce7905d981207a7d0b6c62cc46ab0be2a076d0298e4a86d0ab79882dbd01ac3737859f9fb6d992d2aee0ed338bb4c504a17fd3f67ae91a3135bc2ef947e308c41b2f93f9a76c1bf3444d22400a00cb9fe990e6abe9dbb333fda48859cfee864543da2646970667358221220138db18c23c8f8f0ab2299f156757a9a896eb4d297cd5156637bb723717b6cde64736f6c634300081300332f8788117e7eff1d82e926ec794901d17c78024a50270940304540a733656f0d31ecc21a745e3968a04e9570e4425bc18fa8019c68028196b546d1669c200c68290decd9548b62a8d60345a988386fc84ba6bc95484008f6362f93160ef3e563d7b6990105719101dabeb77144f2a3385c8033acd3af97e9423a695e81ad1eb5b10e2d527612073b26eecdfd717e6a320cf44b4afac2b0732d9fcbe2b7fa0cf6",
  "linkReferences": {},
  "deployedLinkReferences": {}
}